{
  "contractName": "AddressBook",
  "abi": [
    {
      "constant": true,
      "inputs": [],
      "name": "hasInitialized",
      "outputs": [
        {
          "name": "",
          "type": "bool"
        }
      ],
      "payable": false,
      "stateMutability": "view",
      "type": "function"
    },
    {
      "constant": true,
      "inputs": [
        {
          "name": "_script",
          "type": "bytes"
        }
      ],
      "name": "getEVMScriptExecutor",
      "outputs": [
        {
          "name": "",
          "type": "address"
        }
      ],
      "payable": false,
      "stateMutability": "view",
      "type": "function"
    },
    {
      "constant": true,
      "inputs": [],
      "name": "getRecoveryVault",
      "outputs": [
        {
          "name": "",
          "type": "address"
        }
      ],
      "payable": false,
      "stateMutability": "view",
      "type": "function"
    },
    {
      "constant": true,
      "inputs": [],
      "name": "REMOVE_ENTRY_ROLE",
      "outputs": [
        {
          "name": "",
          "type": "bytes32"
        }
      ],
      "payable": false,
      "stateMutability": "view",
      "type": "function"
    },
    {
      "constant": true,
      "inputs": [
        {
          "name": "",
          "type": "uint256"
        }
      ],
      "name": "entryArr",
      "outputs": [
        {
          "name": "",
          "type": "address"
        }
      ],
      "payable": false,
      "stateMutability": "view",
      "type": "function"
    },
    {
      "constant": true,
      "inputs": [],
      "name": "ADD_ENTRY_ROLE",
      "outputs": [
        {
          "name": "",
          "type": "bytes32"
        }
      ],
      "payable": false,
      "stateMutability": "view",
      "type": "function"
    },
    {
      "constant": true,
      "inputs": [
        {
          "name": "token",
          "type": "address"
        }
      ],
      "name": "allowRecoverability",
      "outputs": [
        {
          "name": "",
          "type": "bool"
        }
      ],
      "payable": false,
      "stateMutability": "view",
      "type": "function"
    },
    {
      "constant": true,
      "inputs": [],
      "name": "appId",
      "outputs": [
        {
          "name": "",
          "type": "bytes32"
        }
      ],
      "payable": false,
      "stateMutability": "view",
      "type": "function"
    },
    {
      "constant": true,
      "inputs": [],
      "name": "getInitializationBlock",
      "outputs": [
        {
          "name": "",
          "type": "uint256"
        }
      ],
      "payable": false,
      "stateMutability": "view",
      "type": "function"
    },
    {
      "constant": false,
      "inputs": [
        {
          "name": "_token",
          "type": "address"
        }
      ],
      "name": "transferToVault",
      "outputs": [],
      "payable": false,
      "stateMutability": "nonpayable",
      "type": "function"
    },
    {
      "constant": true,
      "inputs": [
        {
          "name": "_sender",
          "type": "address"
        },
        {
          "name": "_role",
          "type": "bytes32"
        },
        {
          "name": "_params",
          "type": "uint256[]"
        }
      ],
      "name": "canPerform",
      "outputs": [
        {
          "name": "",
          "type": "bool"
        }
      ],
      "payable": false,
      "stateMutability": "view",
      "type": "function"
    },
    {
      "constant": true,
      "inputs": [],
      "name": "getEVMScriptRegistry",
      "outputs": [
        {
          "name": "",
          "type": "address"
        }
      ],
      "payable": false,
      "stateMutability": "view",
      "type": "function"
    },
    {
      "constant": true,
      "inputs": [],
      "name": "kernel",
      "outputs": [
        {
          "name": "",
          "type": "address"
        }
      ],
      "payable": false,
      "stateMutability": "view",
      "type": "function"
    },
    {
      "constant": true,
      "inputs": [],
      "name": "UPDATE_ENTRY_ROLE",
      "outputs": [
        {
          "name": "",
          "type": "bytes32"
        }
      ],
      "payable": false,
      "stateMutability": "view",
      "type": "function"
    },
    {
      "constant": true,
      "inputs": [],
      "name": "isPetrified",
      "outputs": [
        {
          "name": "",
          "type": "bool"
        }
      ],
      "payable": false,
      "stateMutability": "view",
      "type": "function"
    },
    {
      "constant": true,
      "inputs": [],
      "name": "entryArrLength",
      "outputs": [
        {
          "name": "",
          "type": "uint256"
        }
      ],
      "payable": false,
      "stateMutability": "view",
      "type": "function"
    },
    {
      "constant": true,
      "inputs": [
        {
          "name": "",
          "type": "address"
        }
      ],
      "name": "entries",
      "outputs": [
        {
          "name": "data",
          "type": "string"
        },
        {
          "name": "index",
          "type": "uint256"
        }
      ],
      "payable": false,
      "stateMutability": "view",
      "type": "function"
    },
    {
      "anonymous": false,
      "inputs": [
        {
          "indexed": false,
          "name": "addr",
          "type": "address"
        }
      ],
      "name": "EntryAdded",
      "type": "event"
    },
    {
      "anonymous": false,
      "inputs": [
        {
          "indexed": false,
          "name": "addr",
          "type": "address"
        }
      ],
      "name": "EntryRemoved",
      "type": "event"
    },
    {
      "anonymous": false,
      "inputs": [
        {
          "indexed": false,
          "name": "addr",
          "type": "address"
        }
      ],
      "name": "EntryUpdated",
      "type": "event"
    },
    {
      "anonymous": false,
      "inputs": [
        {
          "indexed": true,
          "name": "executor",
          "type": "address"
        },
        {
          "indexed": false,
          "name": "script",
          "type": "bytes"
        },
        {
          "indexed": false,
          "name": "input",
          "type": "bytes"
        },
        {
          "indexed": false,
          "name": "returnData",
          "type": "bytes"
        }
      ],
      "name": "ScriptResult",
      "type": "event"
    },
    {
      "anonymous": false,
      "inputs": [
        {
          "indexed": true,
          "name": "vault",
          "type": "address"
        },
        {
          "indexed": true,
          "name": "token",
          "type": "address"
        },
        {
          "indexed": false,
          "name": "amount",
          "type": "uint256"
        }
      ],
      "name": "RecoverToVault",
      "type": "event"
    },
    {
      "constant": false,
      "inputs": [],
      "name": "initialize",
      "outputs": [],
      "payable": false,
      "stateMutability": "nonpayable",
      "type": "function"
    },
    {
      "constant": false,
      "inputs": [
        {
          "name": "_addr",
          "type": "address"
        },
        {
          "name": "_cid",
          "type": "string"
        }
      ],
      "name": "addEntry",
      "outputs": [],
      "payable": false,
      "stateMutability": "nonpayable",
      "type": "function"
    },
    {
      "constant": false,
      "inputs": [
        {
          "name": "_addr",
          "type": "address"
        },
        {
          "name": "_cid",
          "type": "string"
        }
      ],
      "name": "removeEntry",
      "outputs": [],
      "payable": false,
      "stateMutability": "nonpayable",
      "type": "function"
    },
    {
      "constant": false,
      "inputs": [
        {
          "name": "_addr",
          "type": "address"
        },
        {
          "name": "_oldCid",
          "type": "string"
        },
        {
          "name": "_newCid",
          "type": "string"
        }
      ],
      "name": "updateEntry",
      "outputs": [],
      "payable": false,
      "stateMutability": "nonpayable",
      "type": "function"
    },
    {
      "constant": true,
      "inputs": [
        {
          "name": "_addr",
          "type": "address"
        }
      ],
      "name": "getEntry",
      "outputs": [
        {
          "name": "contentId",
          "type": "string"
        }
      ],
      "payable": false,
      "stateMutability": "view",
      "type": "function"
    },
    {
      "constant": true,
      "inputs": [
        {
          "name": "_addr",
          "type": "address"
        }
      ],
      "name": "getEntryIndex",
      "outputs": [
        {
          "name": "index",
          "type": "uint256"
        }
      ],
      "payable": false,
      "stateMutability": "view",
      "type": "function"
    },
    {
      "constant": true,
      "inputs": [
        {
          "name": "_entry",
          "type": "address"
        }
      ],
      "name": "isEntryAdded",
      "outputs": [
        {
          "name": "isAdded",
          "type": "bool"
        }
      ],
      "payable": false,
      "stateMutability": "view",
      "type": "function"
    }
  ],
  "bytecode": "0x6080604052620000176401000000006200001d810204565b6200023b565b6200003064010000000062000125810204565b60408051808201909152601881527f494e49545f414c52454144595f494e495449414c495a45440000000000000000602082015290156200010c576040517f08c379a00000000000000000000000000000000000000000000000000000000081526004018080602001828103825283818151815260200191508051906020019080838360005b83811015620000d0578181015183820152602001620000b6565b50505050905090810190601f168015620000fe5780820380516001836020036101000a031916815260200191505b509250505060405180910390fd5b506200012360001964010000000062000154810204565b565b60006200014f60008051602062002acd833981519152640100000000620023726200023382021704565b905090565b6200016764010000000062000125810204565b60408051808201909152601881527f494e49545f414c52454144595f494e495449414c495a454400000000000000006020820152901562000206576040517f08c379a000000000000000000000000000000000000000000000000000000000815260040180806020018281038252838181518152602001915080519060200190808383600083811015620000d0578181015183820152602001620000b6565b506200023060008051602062002acd833981519152826401000000006200266c6200023782021704565b50565b5490565b9055565b612882806200024b6000396000f30060806040526004361061013d5763ffffffff7c01000000000000000000000000000000000000000000000000000000006000350416630803fac081146101425780631ef9de2f1461016b5780632914b9bd1461019957806332f0a3b51461021b57806335a672e614610230578063402c3dc1146102575780634362a049146102935780635c272576146102ab5780637db6a4e4146102c05780637e7db6e11461036357806380afdea8146103915780638129fc1c146103a65780638b3dd749146103bb5780638d646582146103d05780639d4941d8146103fe5780639fbb032f1461042c578063a1658fad14610472578063a479e508146104e6578063d4aae0c4146104fb578063d70e0f4a14610510578063de4796ed14610525578063ec7326691461053a578063f02a33911461054f578063f29ee12514610589575b600080fd5b34801561014e57600080fd5b50610157610636565b604080519115158252519081900360200190f35b34801561017757600080fd5b5061015773ffffffffffffffffffffffffffffffffffffffff60043516610660565b3480156101a557600080fd5b506040805160206004803580820135601f81018490048402850184019095528484526101f29436949293602493928401919081908401838280828437509497506106ee9650505050505050565b6040805173ffffffffffffffffffffffffffffffffffffffff9092168252519081900360200190f35b34801561022757600080fd5b506101f26107fa565b34801561023c57600080fd5b50610245610899565b60408051918252519081900360200190f35b34801561026357600080fd5b506102916004803573ffffffffffffffffffffffffffffffffffffffff1690602480359081019101356108bd565b005b34801561029f57600080fd5b506101f2600435610e9a565b3480156102b757600080fd5b50610245610ec2565b3480156102cc57600080fd5b506102ee73ffffffffffffffffffffffffffffffffffffffff60043516610ee6565b6040805160208082528351818301528351919283929083019185019080838360005b83811015610328578181015183820152602001610310565b50505050905090810190601f1680156103555780820380516001836020036101000a031916815260200191505b509250505060405180910390f35b34801561036f57600080fd5b5061015773ffffffffffffffffffffffffffffffffffffffff60043516611042565b34801561039d57600080fd5b50610245611048565b3480156103b257600080fd5b50610291611078565b3480156103c757600080fd5b50610245611127565b3480156103dc57600080fd5b5061024573ffffffffffffffffffffffffffffffffffffffff60043516611152565b34801561040a57600080fd5b5061029173ffffffffffffffffffffffffffffffffffffffff600435166112cf565b34801561043857600080fd5b506102916004803573ffffffffffffffffffffffffffffffffffffffff1690602480358082019290810135916044359081019101356115f1565b34801561047e57600080fd5b50604080516020600460443581810135838102808601850190965280855261015795833573ffffffffffffffffffffffffffffffffffffffff16956024803596369695606495939492019291829185019084908082843750949750611bfe9650505050505050565b3480156104f257600080fd5b506101f2611d8e565b34801561050757600080fd5b506101f2611e50565b34801561051c57600080fd5b50610245611e7b565b34801561053157600080fd5b50610157611e9f565b34801561054657600080fd5b50610245611eb2565b34801561055b57600080fd5b506102916004803573ffffffffffffffffffffffffffffffffffffffff169060248035908101910135611eb8565b34801561059557600080fd5b506105b773ffffffffffffffffffffffffffffffffffffffff600435166122ca565b6040518080602001838152602001828103825284818151815260200191508051906020019080838360005b838110156105fa5781810151838201526020016105e2565b50505050905090810190601f1680156106275780820380516001836020036101000a031916815260200191505b50935050505060405180910390f35b600080610641611127565b9050801580159061065957508061065661236e565b10155b91505b5090565b600060025460001415610675575060006106e9565b60025473ffffffffffffffffffffffffffffffffffffffff8316600090815260208190526040902060010154106106ae575060006106e9565b5073ffffffffffffffffffffffffffffffffffffffff8082166000818152602081815260408083206001908101548452909152902054909116145b919050565b60006106f8611d8e565b73ffffffffffffffffffffffffffffffffffffffff166304bf2a7f836040518263ffffffff167c01000000000000000000000000000000000000000000000000000000000281526004018080602001828103825283818151815260200191508051906020019080838360005b8381101561077c578181015183820152602001610764565b50505050905090810190601f1680156107a95780820380516001836020036101000a031916815260200191505b5092505050602060405180830381600087803b1580156107c857600080fd5b505af11580156107dc573d6000803e3d6000fd5b505050506040513d60208110156107f257600080fd5b505192915050565b6000610804611e50565b73ffffffffffffffffffffffffffffffffffffffff166332f0a3b56040518163ffffffff167c0100000000000000000000000000000000000000000000000000000000028152600401602060405180830381600087803b15801561086757600080fd5b505af115801561087b573d6000803e3d6000fd5b505050506040513d602081101561089157600080fd5b505190505b90565b7f4bf67e2ff5501162fc2ee020c851b17118c126a125e7f189b1c10056a35a8ed181565b600082828080601f01602080910402602001604051908101604052809392919081815260200183838082843750508451859450849350600092508210905061090157fe5b9060200101517f010000000000000000000000000000000000000000000000000000000000000090047f0100000000000000000000000000000000000000000000000000000000000000027effffffffffffffffffffffffffffffffffffffffffffffffffffffffffffff19167f5100000000000000000000000000000000000000000000000000000000000000148015610a3657508060018151811015156109a657fe5b9060200101517f010000000000000000000000000000000000000000000000000000000000000090047f0100000000000000000000000000000000000000000000000000000000000000027effffffffffffffffffffffffffffffffffffffffffffffffffffffffffffff19167f6d00000000000000000000000000000000000000000000000000000000000000145b60408051808201909152600d81527f4349445f4d414c464f524d4544000000000000000000000000000000000000006020820152901515610b0f576040517f08c379a00000000000000000000000000000000000000000000000000000000081526004018080602001828103825283818151815260200191508051906020019080838360005b83811015610ad4578181015183820152602001610abc565b50505050905090810190601f168015610b015780820380516001836020036101000a031916815260200191505b509250505060405180910390fd5b50805160408051808201909152601481527f4349445f4c454e4754485f494e434f5252454354000000000000000000000000602082015290602e14610bb0576040517f08c379a000000000000000000000000000000000000000000000000000000000815260040180806020018281038252838181518152602001915080519060200190808383600083811015610ad4578181015183820152602001610abc565b50604080516000808252602082019092527f4a167688760e93a8dd0a899c70e125af7d665ed37fd06496b8c83ce9fdac41bd91610bf39133918491905b50611bfe565b60408051808201909152600f81527f4150505f415554485f4641494c454400000000000000000000000000000000006020820152901515610c90576040517f08c379a000000000000000000000000000000000000000000000000000000000815260040180806020018281038252838181518152602001915080519060200190808383600083811015610ad4578181015183820152602001610abc565b5073ffffffffffffffffffffffffffffffffffffffff871660009081526020818152604091829020548251808401909352601483527f454e5452595f414c52454144595f455849535453000000000000000000000000918301919091526002600019610100600184161502019091160415610d67576040517f08c379a000000000000000000000000000000000000000000000000000000000815260040180806020018281038252838181518152602001915080519060200190808383600083811015610ad4578181015183820152602001610abc565b506002805460018082019092556000818152602092835260409081902080547fffffffffffffffffffffffff00000000000000000000000000000000000000001673ffffffffffffffffffffffffffffffffffffffff8c161790558051601f89018490049093028301606090810182529083018881529196508291908990899081908501838280828437505050928452505050602090810186905273ffffffffffffffffffffffffffffffffffffffff8916600090815280825260409020825180519192610e3a928492909101906126ef565b506020918201516001909101556040805173ffffffffffffffffffffffffffffffffffffffff8a16815290517f2a25c8fc45c2647ced4f97a42649b36bc8d3c2c043420da19c2068a7c3f7e520929181900390910190a150505050505050565b60016020526000908152604090205473ffffffffffffffffffffffffffffffffffffffff1681565b7f4a167688760e93a8dd0a899c70e125af7d665ed37fd06496b8c83ce9fdac41bd81565b6060610ef0610636565b60408051808201909152601481527f494e49545f4e4f545f494e495449414c495a45440000000000000000000000006020820152901515610f8d576040517f08c379a000000000000000000000000000000000000000000000000000000000815260040180806020018281038252838181518152602001915080519060200190808383600083811015610ad4578181015183820152602001610abc565b5073ffffffffffffffffffffffffffffffffffffffff82166000908152602081815260409182902080548351601f6002600019610100600186161502019093169290920491820184900484028101840190945280845290918301828280156110365780601f1061100b57610100808354040283529160200191611036565b820191906000526020600020905b81548152906001019060200180831161101957829003601f168201915b50505050509050919050565b50600190565b60006110737fd625496217aa6a3453eecb9c3489dc5a53e6c67b444329ea2b2cbc9ff547639b612372565b905090565b611080611127565b60408051808201909152601881527f494e49545f414c52454144595f494e495449414c495a454400000000000000006020820152901561111c576040517f08c379a000000000000000000000000000000000000000000000000000000000815260040180806020018281038252838181518152602001915080519060200190808383600083811015610ad4578181015183820152602001610abc565b50611125612376565b565b60006110737febb05b386a8d34882b8711d156f463690983dc47815980fb82aeeff1aa43579e612372565b600061115c610636565b60408051808201909152601481527f494e49545f4e4f545f494e495449414c495a454400000000000000000000000060208201529015156111f9576040517f08c379a000000000000000000000000000000000000000000000000000000000815260040180806020018281038252838181518152602001915080519060200190808383600083811015610ad4578181015183820152602001610abc565b508161120481610660565b60408051808201909152601481527f454e5452595f444f45535f4e4f545f455849535400000000000000000000000060208201529015156112a1576040517f08c379a000000000000000000000000000000000000000000000000000000000815260040180806020018281038252838181518152602001915080519060200190808383600083811015610ad4578181015183820152602001610abc565b50505073ffffffffffffffffffffffffffffffffffffffff1660009081526020819052604090206001015490565b60008060006112dd84611042565b60408051808201909152601281527f5245434f5645525f444953414c4c4f5745440000000000000000000000000000602082015290151561137a576040517f08c379a000000000000000000000000000000000000000000000000000000000815260040180806020018281038252838181518152602001915080519060200190808383600083811015610ad4578181015183820152602001610abc565b506113836107fa565b925061138e83612457565b60408051808201909152601a81527f5245434f5645525f5641554c545f4e4f545f434f4e5452414354000000000000602082015290151561142b576040517f08c379a000000000000000000000000000000000000000000000000000000000815260040180806020018281038252838181518152602001915080519060200190808383600083811015610ad4578181015183820152602001610abc565b5073ffffffffffffffffffffffffffffffffffffffff84161515611496576040513031925073ffffffffffffffffffffffffffffffffffffffff84169083156108fc029084906000818181858888f19350505050158015611490573d6000803e3d6000fd5b50611586565b50826114be73ffffffffffffffffffffffffffffffffffffffff82163063ffffffff61249116565b91506114e773ffffffffffffffffffffffffffffffffffffffff8216848463ffffffff6125ca16565b60408051808201909152601d81527f5245434f5645525f544f4b454e5f5452414e534645525f4641494c45440000006020820152901515611584576040517f08c379a000000000000000000000000000000000000000000000000000000000815260040180806020018281038252838181518152602001915080519060200190808383600083811015610ad4578181015183820152602001610abc565b505b8373ffffffffffffffffffffffffffffffffffffffff168373ffffffffffffffffffffffffffffffffffffffff167f596caf56044b55fb8c4ca640089bbc2b63cae3e978b851f5745cbb7c5b288e02846040518082815260200191505060405180910390a350505050565b604080516000808252602082019092527f6838798f8ade371d93fbc95e535888e5fdc0abba71f87ab7320dd9c8220b4da091611631913391849190610bed565b60408051808201909152600f81527f4150505f415554485f4641494c4544000000000000000000000000000000000060208201529015156116ce576040517f08c379a000000000000000000000000000000000000000000000000000000000815260040180806020018281038252838181518152602001915080519060200190808383600083811015610ad4578181015183820152602001610abc565b50856116d981610660565b60408051808201909152601481527f454e5452595f444f45535f4e4f545f45584953540000000000000000000000006020820152901515611776576040517f08c379a000000000000000000000000000000000000000000000000000000000815260040180806020018281038252838181518152602001915080519060200190808383600083811015610ad4578181015183820152602001610abc565b5083838080601f0160208091040260200160405190810160405280939291908181526020018383808284375050845185945084935060009250821090506117b957fe5b9060200101517f010000000000000000000000000000000000000000000000000000000000000090047f0100000000000000000000000000000000000000000000000000000000000000027effffffffffffffffffffffffffffffffffffffffffffffffffffffffffffff19167f51000000000000000000000000000000000000000000000000000000000000001480156118ee575080600181518110151561185e57fe5b9060200101517f010000000000000000000000000000000000000000000000000000000000000090047f0100000000000000000000000000000000000000000000000000000000000000027effffffffffffffffffffffffffffffffffffffffffffffffffffffffffffff19167f6d00000000000000000000000000000000000000000000000000000000000000145b60408051808201909152600d81527f4349445f4d414c464f524d454400000000000000000000000000000000000000602082015290151561198b576040517f08c379a000000000000000000000000000000000000000000000000000000000815260040180806020018281038252838181518152602001915080519060200190808383600083811015610ad4578181015183820152602001610abc565b50805160408051808201909152601481527f4349445f4c454e4754485f494e434f5252454354000000000000000000000000602082015290602e14611a2c576040517f08c379a000000000000000000000000000000000000000000000000000000000815260040180806020018281038252838181518152602001915080519060200190808383600083811015610ad4578181015183820152602001610abc565b5073ffffffffffffffffffffffffffffffffffffffff8916600090815260208190526040908190209051815481908390600260001961010060018416150201909116048015611ab25780601f10611a90576101008083540402835291820191611ab2565b820191906000526020600020905b815481529060010190602001808311611a9e575b505060405190819003812092508a915089908083838082843760408051919093018190038120818401909352601281527f4349445f444f45535f4e4f545f4d4154434800000000000000000000000000006020820152959091149350611b7892505050576040517f08c379a000000000000000000000000000000000000000000000000000000000815260040180806020018281038252838181518152602001915080519060200190808383600083811015610ad4578181015183820152602001610abc565b5073ffffffffffffffffffffffffffffffffffffffff89166000908152602081905260409020611ba9908787612769565b506040805173ffffffffffffffffffffffffffffffffffffffff8b16815290517f97f4d3022f07051b029a745e0976ede77a5dcf0b98bcf731bb1cde17629ae13e9181900360200190a1505050505050505050565b600080611c09610636565b1515611c185760009150611d86565b611c20611e50565b905073ffffffffffffffffffffffffffffffffffffffff81161515611c485760009150611d86565b8073ffffffffffffffffffffffffffffffffffffffff1663fdef9106863087611c7088612662565b6040517c010000000000000000000000000000000000000000000000000000000063ffffffff871602815273ffffffffffffffffffffffffffffffffffffffff808616600483019081529085166024830152604482018490526080606483019081528351608484015283519192909160a490910190602085019080838360005b83811015611d08578181015183820152602001611cf0565b50505050905090810190601f168015611d355780820380516001836020036101000a031916815260200191505b5095505050505050602060405180830381600087803b158015611d5757600080fd5b505af1158015611d6b573d6000803e3d6000fd5b505050506040513d6020811015611d8157600080fd5b505191505b509392505050565b600080611d99611e50565b604080517fbe00bbd80000000000000000000000000000000000000000000000000000000081527fd6f028ca0e8edb4a8c9757ca4fdccab25fa1e0317da1188108f7d2dee14902fb60048201527fddbcfd564f642ab5627cf68b9b7d374fb4f8a36e941a75d89c87998cef03bd616024820152905173ffffffffffffffffffffffffffffffffffffffff929092169163be00bbd8916044808201926020929091908290030181600087803b1580156107c857600080fd5b60006110737f4172f0f7d2289153072b0a6ca36959e0cbe2efc3afe50fc81636caa96338137b612372565b7f6838798f8ade371d93fbc95e535888e5fdc0abba71f87ab7320dd9c8220b4da081565b6000600019611eac611127565b14905090565b60025481565b60008084611ec581610660565b60408051808201909152601481527f454e5452595f444f45535f4e4f545f45584953540000000000000000000000006020820152901515611f62576040517f08c379a000000000000000000000000000000000000000000000000000000000815260040180806020018281038252838181518152602001915080519060200190808383600083811015610ad4578181015183820152602001610abc565b50604080516000808252602082019092527f4bf67e2ff5501162fc2ee020c851b17118c126a125e7f189b1c10056a35a8ed191611fa3913391849190610bed565b60408051808201909152600f81527f4150505f415554485f4641494c454400000000000000000000000000000000006020820152901515612040576040517f08c379a000000000000000000000000000000000000000000000000000000000815260040180806020018281038252838181518152602001915080519060200190808383600083811015610ad4578181015183820152602001610abc565b5073ffffffffffffffffffffffffffffffffffffffff87166000908152602081905260409081902090518154819083906002600019610100600184161502019091160480156120c65780601f106120a45761010080835404028352918201916120c6565b820191906000526020600020905b8154815290600101906020018083116120b2575b5050604051908190038120925088915087908083838082843760408051919093018190038120818401909352601281527f4349445f444f45535f4e4f545f4d415443480000000000000000000000000000602082015295909114935061218c92505050576040517f08c379a000000000000000000000000000000000000000000000000000000000815260040180806020018281038252838181518152602001915080519060200190808383600083811015610ad4578181015183820152602001610abc565b5073ffffffffffffffffffffffffffffffffffffffff8716600090815260208190526040902060019081015460025490955014612234576002546000190160009081526001602081815260408084205488855281852080547fffffffffffffffffffffffff00000000000000000000000000000000000000001673ffffffffffffffffffffffffffffffffffffffff9092169182179055808552918490529092200185905592505b73ffffffffffffffffffffffffffffffffffffffff871660009081526020819052604081209061226482826127f5565b50600060019190910155600280546000190190556040805173ffffffffffffffffffffffffffffffffffffffff8916815290517f35df0cc22f4745995f228e5646161436865335a8d710d5c55137ba94d9d833779181900360200190a150505050505050565b6000602081815291815260409081902080548251601f60026000196101006001861615020190931692909204918201859004850281018501909352808352909283919083018282801561235e5780601f106123335761010080835404028352916020019161235e565b820191906000526020600020905b81548152906001019060200180831161234157829003601f168201915b5050505050908060010154905082565b4390565b5490565b61237e611127565b60408051808201909152601881527f494e49545f414c52454144595f494e495449414c495a454400000000000000006020820152901561241a576040517f08c379a000000000000000000000000000000000000000000000000000000000815260040180806020018281038252838181518152602001915080519060200190808383600083811015610ad4578181015183820152602001610abc565b5061112561242661236e565b7febb05b386a8d34882b8711d156f463690983dc47815980fb82aeeff1aa43579e9063ffffffff61266c16565b5490565b60008073ffffffffffffffffffffffffffffffffffffffff83161515612480576000915061248b565b823b90506000811191505b50919050565b6040805173ffffffffffffffffffffffffffffffffffffffff83166024808301919091528251808303909101815260449091019091526020810180517bffffffffffffffffffffffffffffffffffffffffffffffffffffffff167f70a0823100000000000000000000000000000000000000000000000000000000179052600090818061251e8684612670565b60408051808201909152601c81527f534146455f4552435f32305f42414c414e43455f524556455254454400000000602082015291935091508215156125c0576040517f08c379a000000000000000000000000000000000000000000000000000000000815260040180806020018281038252838181518152602001915080519060200190808383600083811015610ad4578181015183820152602001610abc565b5095945050505050565b6040805173ffffffffffffffffffffffffffffffffffffffff8416602482015260448082018490528251808303909101815260649091019091526020810180517bffffffffffffffffffffffffffffffffffffffffffffffffffffffff167fa9059cbb0000000000000000000000000000000000000000000000000000000017905260009061265985826126a1565b95945050505050565b8051602002815290565b9055565b6000806000806040516020818751602089018a5afa9250600083111561269557805191505b50909590945092505050565b6000806040516020818551602087016000895af160008111156126e5573d80156126d257602081146126db576126e3565b600193506126e3565b600183511493505b505b5090949350505050565b828054600181600116156101000203166002900490600052602060002090601f016020900481019282601f1061273057805160ff191683800117855561275d565b8280016001018555821561275d579182015b8281111561275d578251825591602001919060010190612742565b5061065c92915061283c565b828054600181600116156101000203166002900490600052602060002090601f016020900481019282601f106127c8578280017fffffffffffffffffffffffffffffffffffffffffffffffffffffffffffffff0082351617855561275d565b8280016001018555821561275d579182015b8281111561275d5782358255916020019190600101906127da565b50805460018160011615610100020316600290046000825580601f1061281b5750612839565b601f016020900490600052602060002090810190612839919061283c565b50565b61089691905b8082111561065c57600081556001016128425600a165627a7a72305820254cdbbf8f8edd3b49eb434c03016e8187004fb8275af439800ea11c5e4bcc230029ebb05b386a8d34882b8711d156f463690983dc47815980fb82aeeff1aa43579e",
  "source": "/*\n * SPDX-License-Identitifer: GPL-3.0-or-later\n */\n\npragma solidity 0.4.24;\n\nimport \"@aragon/os/contracts/apps/AragonApp.sol\";\n\n\n/**\n * @title AddressBook App\n * @author Autark\n * @dev Defines an address book (registry) that allows the\n * association of an ethereum address with an IPFS CID pointing to JSON content\n */\ncontract AddressBook is AragonApp {\n\n    /// Hardcoded constants to save gas\n    /// bytes32 public constant ADD_ENTRY_ROLE = keccak256(\"ADD_ENTRY_ROLE\");\n    bytes32 public constant ADD_ENTRY_ROLE = 0x4a167688760e93a8dd0a899c70e125af7d665ed37fd06496b8c83ce9fdac41bd;\n    /// bytes32 public constant REMOVE_ENTRY_ROLE = keccak256(\"REMOVE_ENTRY_ROLE\");\n    bytes32 public constant REMOVE_ENTRY_ROLE = 0x4bf67e2ff5501162fc2ee020c851b17118c126a125e7f189b1c10056a35a8ed1;\n    /// bytes32 public constant UPDATE_ENTRY_ROLE = keccak256(\"UPDATE_ENTRY_ROLE\");\n    bytes32 public constant UPDATE_ENTRY_ROLE = 0x6838798f8ade371d93fbc95e535888e5fdc0abba71f87ab7320dd9c8220b4da0;\n\n    /// Error string constants\n    string private constant ERROR_NOT_FOUND = \"ENTRY_DOES_NOT_EXIST\";\n    string private constant ERROR_EXISTS = \"ENTRY_ALREADY_EXISTS\";\n    string private constant ERROR_CID_MALFORMED = \"CID_MALFORMED\";\n    string private constant ERROR_CID_LENGTH = \"CID_LENGTH_INCORRECT\";\n    string private constant ERROR_NO_CID = \"CID_DOES_NOT_MATCH\";\n\n    struct Entry {\n        string data;\n        uint256 index;\n    }\n\n    /// The entries in the registry\n    mapping(address => Entry) public entries;\n\n    /// Array-like struct to access all addresses\n    mapping(uint256 => address) public entryArr;\n    uint256 public entryArrLength;\n\n    /// Events\n    event EntryAdded(address addr); /// Fired when an entry is added to the registry\n    event EntryRemoved(address addr); /// Fired when an entry is removed from the registry\n    event EntryUpdated(address addr); /// Fired when an entry is updated with a new CID.\n\n    /**\n     * @dev Guard to check existence of address in the registry\n     * @param _addr The address to enforce its existence in the registry\n     */\n    modifier entryExists(address _addr) {\n        require(isEntryAdded(_addr), ERROR_NOT_FOUND);\n        _;\n    }\n\n    /**\n     * @dev Guard to ensure the CID is 46 chars long according to base58 encoding\n     * @param _cid The IPFS hash of the entry to add to the registry\n     */\n    modifier cidIsValid(string _cid) {\n        bytes memory cidBytes = bytes(_cid);\n        require(cidBytes[0] == \"Q\" && cidBytes[1] == \"m\", ERROR_CID_MALFORMED);\n        require(cidBytes.length == 46, ERROR_CID_LENGTH);\n        _;\n    }\n\n    /**\n     * @notice Initialize AddressBook app\n     * @dev Initializes the app, this is the Aragon custom constructor\n     */\n    function initialize() external onlyInit {\n        initialized();\n    }\n\n    /**\n     * @notice Add `_addr` to the registry with metadata `_cid`\n     * @dev CIDs must be base58-encoded in order to work with this function\n     * @param _addr The Ethereum address of the entry to add to the registry\n     * @param _cid The IPFS hash of the entry to add to the registry\n     */\n    function addEntry(address _addr, string _cid) external cidIsValid(_cid) auth(ADD_ENTRY_ROLE) {\n        require(bytes(entries[_addr].data).length == 0, ERROR_EXISTS);\n        // This is auth-guarded, so it'll overflow well after the app becomes unusable\n        // due to the quantity of entries\n        uint256 entryIndex = entryArrLength++;\n        entryArr[entryIndex] = _addr;\n        entries[_addr] = Entry(_cid, entryIndex);\n        emit EntryAdded(_addr);\n    }\n\n    /**\n     * @notice Remove `_addr` from the registry with metadata `_cid`\n     * @dev this function only supports CIDs that are base58-encoded\n     * @param _addr The Ethereum address of the entry to remove from the registry\n     * @param _cid The IPFS hash of the entry to remove from the registry; used only for radspec here\n     */\n    function removeEntry(address _addr, string _cid) external entryExists(_addr) auth(REMOVE_ENTRY_ROLE) {\n        require(keccak256(bytes(_cid)) == keccak256(bytes(entries[_addr].data)), ERROR_NO_CID);\n        uint256 rowToDelete = entries[_addr].index;\n        if (entryArrLength != 1) {\n            address entryToMove = entryArr[entryArrLength - 1];\n            entryArr[rowToDelete] = entryToMove;\n            entries[entryToMove].index = rowToDelete;\n        }\n        delete entries[_addr];\n        // Doesn't require underflow checking because entry existence is verified\n        entryArrLength--;\n        emit EntryRemoved(_addr);\n    }\n\n    /**\n     * @notice Update `_addr` from current metadata `_oldCid` to new metadata `_newCid`\n     * @dev this function only supports CIDs that are base58-encoded\n     * @param _addr The Ethereum address of the entry to update\n     * @param _oldCid The current IPFS hash containing the metadata of the entry\n     * @param _newCid The new IPFS hash containing the metadata of the entry\n     */\n    function updateEntry(\n        address _addr,\n        string _oldCid,\n        string _newCid\n    ) external auth(UPDATE_ENTRY_ROLE) entryExists(_addr) cidIsValid(_newCid)\n    {\n        require(keccak256(bytes(_oldCid)) == keccak256(bytes(entries[_addr].data)), ERROR_NO_CID);\n        entries[_addr].data = _newCid;\n        emit EntryUpdated(_addr);\n    }\n\n    /**\n     * @notice Get data associated to entry `_addr` from the registry.\n     * @dev getter for the entries mapping to IPFS data\n     * @param _addr The Ethereum address of the entry to get\n     * @return contentId pointing to the IPFS structured content object for the entry\n     */\n    function getEntry(address _addr) external view isInitialized returns (string contentId) {\n        contentId = entries[_addr].data;\n    }\n\n    /**\n     * @notice Get index associated to entry `_addr` from the registry.\n     * @dev getter for the entries mapping for an index in entryArr\n     * @param _addr The Ethereum address of the entry to get\n     * @return contentId pointing to the IPFS structured content object for the entry\n     */\n    function getEntryIndex(address _addr) external view isInitialized entryExists(_addr) returns (uint256 index) {\n        index = entries[_addr].index;\n    }\n\n    /**\n     * @notice Checks if `_entry` exists in the registry\n     * @param _entry the Ethereum address to check\n     * @return _repoId Id for entry in entryArr\n     */\n    function isEntryAdded(address _entry) public view returns (bool isAdded) {\n        if (entryArrLength == 0) {\n            return false;\n        }\n\n        if (entries[_entry].index >= entryArrLength) {\n            return false;\n        }\n\n        return (entryArr[entries[_entry].index] == _entry);\n    }\n}\n",
  "sourcePath": "@autarklabs/apps-address-book/contracts/AddressBook.sol",
  "compiler": {
    "name": "solc",
    "version": "0.4.24+commit.e67f0147.Emscripten.clang"
  },
  "schemaVersion": "3.4.1",
  "updatedAt": "2021-06-03T12:38:42.271Z",
  "devdoc": {
    "author": "Autark",
    "methods": {
      "addEntry(address,string)": {
        "details": "CIDs must be base58-encoded in order to work with this function",
        "params": {
          "_addr": "The Ethereum address of the entry to add to the registry",
          "_cid": "The IPFS hash of the entry to add to the registry"
        }
      },
      "allowRecoverability(address)": {
        "details": "By default deriving from AragonApp makes it recoverable",
        "params": {
          "token": "Token address that would be recovered"
        },
        "return": "bool whether the app allows the recovery"
      },
      "canPerform(address,bytes32,uint256[])": {
        "details": "Check whether an action can be performed by a sender for a particular role on this app",
        "params": {
          "_params": "Permission params for the role",
          "_role": "Role on this app",
          "_sender": "Sender of the call"
        },
        "return": "Boolean indicating whether the sender has the permissions to perform the action.        Always returns false if the app hasn't been initialized yet."
      },
      "getEntry(address)": {
        "details": "getter for the entries mapping to IPFS data",
        "params": {
          "_addr": "The Ethereum address of the entry to get"
        },
        "return": "contentId pointing to the IPFS structured content object for the entry"
      },
      "getEntryIndex(address)": {
        "details": "getter for the entries mapping for an index in entryArr",
        "params": {
          "_addr": "The Ethereum address of the entry to get"
        },
        "return": "contentId pointing to the IPFS structured content object for the entry"
      },
      "getInitializationBlock()": {
        "return": "Block number in which the contract was initialized"
      },
      "getRecoveryVault()": {
        "details": "Get the recovery vault for the app",
        "return": "Recovery vault address for the app"
      },
      "hasInitialized()": {
        "return": "Whether the contract has been initialized by the time of the current block"
      },
      "initialize()": {
        "details": "Initializes the app, this is the Aragon custom constructor"
      },
      "isEntryAdded(address)": {
        "params": {
          "_entry": "the Ethereum address to check"
        },
        "return": "_repoId Id for entry in entryArr"
      },
      "removeEntry(address,string)": {
        "details": "this function only supports CIDs that are base58-encoded",
        "params": {
          "_addr": "The Ethereum address of the entry to remove from the registry",
          "_cid": "The IPFS hash of the entry to remove from the registry; used only for radspec here"
        }
      },
      "transferToVault(address)": {
        "params": {
          "_token": "Token balance to be sent to recovery vault."
        }
      },
      "updateEntry(address,string,string)": {
        "details": "this function only supports CIDs that are base58-encoded",
        "params": {
          "_addr": "The Ethereum address of the entry to update",
          "_newCid": "The new IPFS hash containing the metadata of the entry",
          "_oldCid": "The current IPFS hash containing the metadata of the entry"
        }
      }
    },
    "title": "AddressBook App"
  },
  "userdoc": {
    "methods": {
      "addEntry(address,string)": {
        "notice": "Add `_addr` to the registry with metadata `_cid`"
      },
      "getEntry(address)": {
        "notice": "Get data associated to entry `_addr` from the registry."
      },
      "getEntryIndex(address)": {
        "notice": "Get index associated to entry `_addr` from the registry."
      },
      "initialize()": {
        "notice": "Initialize AddressBook app"
      },
      "isEntryAdded(address)": {
        "notice": "Checks if `_entry` exists in the registry"
      },
      "removeEntry(address,string)": {
        "notice": "Remove `_addr` from the registry with metadata `_cid`"
      },
      "transferToVault(address)": {
        "notice": "Send funds to recovery Vault. This contract should never receive funds,        but in case it does, this function allows one to recover them."
      },
      "updateEntry(address,string,string)": {
        "notice": "Update `_addr` from current metadata `_oldCid` to new metadata `_newCid`"
      }
    }
  }
}