{
  "contractName": "Agent",
  "abi": [
    {
      "constant": true,
      "inputs": [],
      "name": "ADD_PROTECTED_TOKEN_ROLE",
      "outputs": [
        {
          "name": "",
          "type": "bytes32"
        }
      ],
      "payable": false,
      "stateMutability": "view",
      "type": "function"
    },
    {
      "constant": true,
      "inputs": [],
      "name": "hasInitialized",
      "outputs": [
        {
          "name": "",
          "type": "bool"
        }
      ],
      "payable": false,
      "stateMutability": "view",
      "type": "function"
    },
    {
      "constant": true,
      "inputs": [],
      "name": "ERC1271_INTERFACE_ID",
      "outputs": [
        {
          "name": "",
          "type": "bytes4"
        }
      ],
      "payable": false,
      "stateMutability": "view",
      "type": "function"
    },
    {
      "constant": true,
      "inputs": [],
      "name": "ERC1271_RETURN_INVALID_SIGNATURE",
      "outputs": [
        {
          "name": "",
          "type": "bytes4"
        }
      ],
      "payable": false,
      "stateMutability": "view",
      "type": "function"
    },
    {
      "constant": true,
      "inputs": [],
      "name": "TRANSFER_ROLE",
      "outputs": [
        {
          "name": "",
          "type": "bytes32"
        }
      ],
      "payable": false,
      "stateMutability": "view",
      "type": "function"
    },
    {
      "constant": true,
      "inputs": [
        {
          "name": "_script",
          "type": "bytes"
        }
      ],
      "name": "getEVMScriptExecutor",
      "outputs": [
        {
          "name": "",
          "type": "address"
        }
      ],
      "payable": false,
      "stateMutability": "view",
      "type": "function"
    },
    {
      "constant": true,
      "inputs": [],
      "name": "getRecoveryVault",
      "outputs": [
        {
          "name": "",
          "type": "address"
        }
      ],
      "payable": false,
      "stateMutability": "view",
      "type": "function"
    },
    {
      "constant": true,
      "inputs": [],
      "name": "RUN_SCRIPT_ROLE",
      "outputs": [
        {
          "name": "",
          "type": "bytes32"
        }
      ],
      "payable": false,
      "stateMutability": "view",
      "type": "function"
    },
    {
      "constant": true,
      "inputs": [],
      "name": "SAFE_EXECUTE_ROLE",
      "outputs": [
        {
          "name": "",
          "type": "bytes32"
        }
      ],
      "payable": false,
      "stateMutability": "view",
      "type": "function"
    },
    {
      "constant": true,
      "inputs": [],
      "name": "REMOVE_PROTECTED_TOKEN_ROLE",
      "outputs": [
        {
          "name": "",
          "type": "bytes32"
        }
      ],
      "payable": false,
      "stateMutability": "view",
      "type": "function"
    },
    {
      "constant": false,
      "inputs": [
        {
          "name": "_token",
          "type": "address"
        },
        {
          "name": "_value",
          "type": "uint256"
        }
      ],
      "name": "deposit",
      "outputs": [],
      "payable": true,
      "stateMutability": "payable",
      "type": "function"
    },
    {
      "constant": true,
      "inputs": [],
      "name": "isDepositable",
      "outputs": [
        {
          "name": "",
          "type": "bool"
        }
      ],
      "payable": false,
      "stateMutability": "view",
      "type": "function"
    },
    {
      "constant": true,
      "inputs": [],
      "name": "DESIGNATE_SIGNER_ROLE",
      "outputs": [
        {
          "name": "",
          "type": "bytes32"
        }
      ],
      "payable": false,
      "stateMutability": "view",
      "type": "function"
    },
    {
      "constant": true,
      "inputs": [],
      "name": "EXECUTE_ROLE",
      "outputs": [
        {
          "name": "",
          "type": "bytes32"
        }
      ],
      "payable": false,
      "stateMutability": "view",
      "type": "function"
    },
    {
      "constant": true,
      "inputs": [
        {
          "name": "",
          "type": "address"
        }
      ],
      "name": "allowRecoverability",
      "outputs": [
        {
          "name": "",
          "type": "bool"
        }
      ],
      "payable": false,
      "stateMutability": "view",
      "type": "function"
    },
    {
      "constant": true,
      "inputs": [],
      "name": "appId",
      "outputs": [
        {
          "name": "",
          "type": "bytes32"
        }
      ],
      "payable": false,
      "stateMutability": "view",
      "type": "function"
    },
    {
      "constant": false,
      "inputs": [],
      "name": "initialize",
      "outputs": [],
      "payable": false,
      "stateMutability": "nonpayable",
      "type": "function"
    },
    {
      "constant": true,
      "inputs": [
        {
          "name": "",
          "type": "uint256"
        }
      ],
      "name": "protectedTokens",
      "outputs": [
        {
          "name": "",
          "type": "address"
        }
      ],
      "payable": false,
      "stateMutability": "view",
      "type": "function"
    },
    {
      "constant": true,
      "inputs": [],
      "name": "getInitializationBlock",
      "outputs": [
        {
          "name": "",
          "type": "uint256"
        }
      ],
      "payable": false,
      "stateMutability": "view",
      "type": "function"
    },
    {
      "constant": true,
      "inputs": [],
      "name": "ERC1271_RETURN_VALID_SIGNATURE",
      "outputs": [
        {
          "name": "",
          "type": "bytes4"
        }
      ],
      "payable": false,
      "stateMutability": "view",
      "type": "function"
    },
    {
      "constant": false,
      "inputs": [
        {
          "name": "_token",
          "type": "address"
        }
      ],
      "name": "transferToVault",
      "outputs": [],
      "payable": false,
      "stateMutability": "nonpayable",
      "type": "function"
    },
    {
      "constant": true,
      "inputs": [
        {
          "name": "_sender",
          "type": "address"
        },
        {
          "name": "_role",
          "type": "bytes32"
        },
        {
          "name": "_params",
          "type": "uint256[]"
        }
      ],
      "name": "canPerform",
      "outputs": [
        {
          "name": "",
          "type": "bool"
        }
      ],
      "payable": false,
      "stateMutability": "view",
      "type": "function"
    },
    {
      "constant": true,
      "inputs": [],
      "name": "getEVMScriptRegistry",
      "outputs": [
        {
          "name": "",
          "type": "address"
        }
      ],
      "payable": false,
      "stateMutability": "view",
      "type": "function"
    },
    {
      "constant": true,
      "inputs": [],
      "name": "designatedSigner",
      "outputs": [
        {
          "name": "",
          "type": "address"
        }
      ],
      "payable": false,
      "stateMutability": "view",
      "type": "function"
    },
    {
      "constant": true,
      "inputs": [],
      "name": "PROTECTED_TOKENS_CAP",
      "outputs": [
        {
          "name": "",
          "type": "uint256"
        }
      ],
      "payable": false,
      "stateMutability": "view",
      "type": "function"
    },
    {
      "constant": true,
      "inputs": [],
      "name": "ADD_PRESIGNED_HASH_ROLE",
      "outputs": [
        {
          "name": "",
          "type": "bytes32"
        }
      ],
      "payable": false,
      "stateMutability": "view",
      "type": "function"
    },
    {
      "constant": true,
      "inputs": [
        {
          "name": "",
          "type": "bytes32"
        }
      ],
      "name": "isPresigned",
      "outputs": [
        {
          "name": "",
          "type": "bool"
        }
      ],
      "payable": false,
      "stateMutability": "view",
      "type": "function"
    },
    {
      "constant": false,
      "inputs": [
        {
          "name": "_token",
          "type": "address"
        },
        {
          "name": "_to",
          "type": "address"
        },
        {
          "name": "_value",
          "type": "uint256"
        }
      ],
      "name": "transfer",
      "outputs": [],
      "payable": false,
      "stateMutability": "nonpayable",
      "type": "function"
    },
    {
      "constant": true,
      "inputs": [],
      "name": "kernel",
      "outputs": [
        {
          "name": "",
          "type": "address"
        }
      ],
      "payable": false,
      "stateMutability": "view",
      "type": "function"
    },
    {
      "constant": true,
      "inputs": [],
      "name": "isPetrified",
      "outputs": [
        {
          "name": "",
          "type": "bool"
        }
      ],
      "payable": false,
      "stateMutability": "view",
      "type": "function"
    },
    {
      "constant": true,
      "inputs": [
        {
          "name": "_token",
          "type": "address"
        }
      ],
      "name": "balance",
      "outputs": [
        {
          "name": "",
          "type": "uint256"
        }
      ],
      "payable": false,
      "stateMutability": "view",
      "type": "function"
    },
    {
      "payable": true,
      "stateMutability": "payable",
      "type": "fallback"
    },
    {
      "anonymous": false,
      "inputs": [
        {
          "indexed": true,
          "name": "sender",
          "type": "address"
        },
        {
          "indexed": true,
          "name": "target",
          "type": "address"
        },
        {
          "indexed": false,
          "name": "data",
          "type": "bytes"
        }
      ],
      "name": "SafeExecute",
      "type": "event"
    },
    {
      "anonymous": false,
      "inputs": [
        {
          "indexed": true,
          "name": "sender",
          "type": "address"
        },
        {
          "indexed": true,
          "name": "target",
          "type": "address"
        },
        {
          "indexed": false,
          "name": "ethValue",
          "type": "uint256"
        },
        {
          "indexed": false,
          "name": "data",
          "type": "bytes"
        }
      ],
      "name": "Execute",
      "type": "event"
    },
    {
      "anonymous": false,
      "inputs": [
        {
          "indexed": true,
          "name": "token",
          "type": "address"
        }
      ],
      "name": "AddProtectedToken",
      "type": "event"
    },
    {
      "anonymous": false,
      "inputs": [
        {
          "indexed": true,
          "name": "token",
          "type": "address"
        }
      ],
      "name": "RemoveProtectedToken",
      "type": "event"
    },
    {
      "anonymous": false,
      "inputs": [
        {
          "indexed": true,
          "name": "sender",
          "type": "address"
        },
        {
          "indexed": true,
          "name": "hash",
          "type": "bytes32"
        }
      ],
      "name": "PresignHash",
      "type": "event"
    },
    {
      "anonymous": false,
      "inputs": [
        {
          "indexed": true,
          "name": "sender",
          "type": "address"
        },
        {
          "indexed": true,
          "name": "oldSigner",
          "type": "address"
        },
        {
          "indexed": true,
          "name": "newSigner",
          "type": "address"
        }
      ],
      "name": "SetDesignatedSigner",
      "type": "event"
    },
    {
      "anonymous": false,
      "inputs": [
        {
          "indexed": true,
          "name": "token",
          "type": "address"
        },
        {
          "indexed": true,
          "name": "operator",
          "type": "address"
        },
        {
          "indexed": true,
          "name": "from",
          "type": "address"
        },
        {
          "indexed": false,
          "name": "tokenId",
          "type": "uint256"
        },
        {
          "indexed": false,
          "name": "data",
          "type": "bytes"
        }
      ],
      "name": "ReceiveERC721",
      "type": "event"
    },
    {
      "anonymous": false,
      "inputs": [
        {
          "indexed": true,
          "name": "token",
          "type": "address"
        },
        {
          "indexed": true,
          "name": "to",
          "type": "address"
        },
        {
          "indexed": false,
          "name": "amount",
          "type": "uint256"
        }
      ],
      "name": "VaultTransfer",
      "type": "event"
    },
    {
      "anonymous": false,
      "inputs": [
        {
          "indexed": true,
          "name": "token",
          "type": "address"
        },
        {
          "indexed": true,
          "name": "sender",
          "type": "address"
        },
        {
          "indexed": false,
          "name": "amount",
          "type": "uint256"
        }
      ],
      "name": "VaultDeposit",
      "type": "event"
    },
    {
      "anonymous": false,
      "inputs": [
        {
          "indexed": true,
          "name": "executor",
          "type": "address"
        },
        {
          "indexed": false,
          "name": "script",
          "type": "bytes"
        },
        {
          "indexed": false,
          "name": "input",
          "type": "bytes"
        },
        {
          "indexed": false,
          "name": "returnData",
          "type": "bytes"
        }
      ],
      "name": "ScriptResult",
      "type": "event"
    },
    {
      "anonymous": false,
      "inputs": [
        {
          "indexed": true,
          "name": "vault",
          "type": "address"
        },
        {
          "indexed": true,
          "name": "token",
          "type": "address"
        },
        {
          "indexed": false,
          "name": "amount",
          "type": "uint256"
        }
      ],
      "name": "RecoverToVault",
      "type": "event"
    },
    {
      "constant": false,
      "inputs": [
        {
          "name": "_target",
          "type": "address"
        },
        {
          "name": "_ethValue",
          "type": "uint256"
        },
        {
          "name": "_data",
          "type": "bytes"
        }
      ],
      "name": "execute",
      "outputs": [],
      "payable": false,
      "stateMutability": "nonpayable",
      "type": "function"
    },
    {
      "constant": false,
      "inputs": [
        {
          "name": "_target",
          "type": "address"
        },
        {
          "name": "_data",
          "type": "bytes"
        }
      ],
      "name": "safeExecute",
      "outputs": [],
      "payable": false,
      "stateMutability": "nonpayable",
      "type": "function"
    },
    {
      "constant": false,
      "inputs": [
        {
          "name": "_token",
          "type": "address"
        }
      ],
      "name": "addProtectedToken",
      "outputs": [],
      "payable": false,
      "stateMutability": "nonpayable",
      "type": "function"
    },
    {
      "constant": false,
      "inputs": [
        {
          "name": "_token",
          "type": "address"
        }
      ],
      "name": "removeProtectedToken",
      "outputs": [],
      "payable": false,
      "stateMutability": "nonpayable",
      "type": "function"
    },
    {
      "constant": false,
      "inputs": [
        {
          "name": "_hash",
          "type": "bytes32"
        }
      ],
      "name": "presignHash",
      "outputs": [],
      "payable": false,
      "stateMutability": "nonpayable",
      "type": "function"
    },
    {
      "constant": false,
      "inputs": [
        {
          "name": "_designatedSigner",
          "type": "address"
        }
      ],
      "name": "setDesignatedSigner",
      "outputs": [],
      "payable": false,
      "stateMutability": "nonpayable",
      "type": "function"
    },
    {
      "constant": false,
      "inputs": [
        {
          "name": "_operator",
          "type": "address"
        },
        {
          "name": "_from",
          "type": "address"
        },
        {
          "name": "_tokenId",
          "type": "uint256"
        },
        {
          "name": "_data",
          "type": "bytes"
        }
      ],
      "name": "onERC721Received",
      "outputs": [
        {
          "name": "",
          "type": "bytes4"
        }
      ],
      "payable": false,
      "stateMutability": "nonpayable",
      "type": "function"
    },
    {
      "constant": true,
      "inputs": [],
      "name": "isForwarder",
      "outputs": [
        {
          "name": "",
          "type": "bool"
        }
      ],
      "payable": false,
      "stateMutability": "pure",
      "type": "function"
    },
    {
      "constant": true,
      "inputs": [
        {
          "name": "_interfaceId",
          "type": "bytes4"
        }
      ],
      "name": "supportsInterface",
      "outputs": [
        {
          "name": "",
          "type": "bool"
        }
      ],
      "payable": false,
      "stateMutability": "pure",
      "type": "function"
    },
    {
      "constant": false,
      "inputs": [
        {
          "name": "_evmScript",
          "type": "bytes"
        }
      ],
      "name": "forward",
      "outputs": [],
      "payable": false,
      "stateMutability": "nonpayable",
      "type": "function"
    },
    {
      "constant": true,
      "inputs": [
        {
          "name": "_sender",
          "type": "address"
        },
        {
          "name": "_evmScript",
          "type": "bytes"
        }
      ],
      "name": "canForward",
      "outputs": [
        {
          "name": "",
          "type": "bool"
        }
      ],
      "payable": false,
      "stateMutability": "view",
      "type": "function"
    },
    {
      "constant": true,
      "inputs": [
        {
          "name": "_hash",
          "type": "bytes32"
        },
        {
          "name": "_signature",
          "type": "bytes"
        }
      ],
      "name": "isValidSignature",
      "outputs": [
        {
          "name": "",
          "type": "bytes4"
        }
      ],
      "payable": false,
      "stateMutability": "view",
      "type": "function"
    },
    {
      "constant": true,
      "inputs": [
        {
          "name": "_data",
          "type": "bytes"
        },
        {
          "name": "_signature",
          "type": "bytes"
        }
      ],
      "name": "isValidSignature",
      "outputs": [
        {
          "name": "",
          "type": "bytes4"
        }
      ],
      "payable": false,
      "stateMutability": "view",
      "type": "function"
    },
    {
      "constant": true,
      "inputs": [],
      "name": "getProtectedTokensLength",
      "outputs": [
        {
          "name": "",
          "type": "uint256"
        }
      ],
      "payable": false,
      "stateMutability": "view",
      "type": "function"
    }
  ],
  "bytecode": "0x6080604052620000176401000000006200001d810204565b6200023b565b6200003064010000000062000125810204565b60408051808201909152601881527f494e49545f414c52454144595f494e495449414c495a45440000000000000000602082015290156200010c576040517f08c379a00000000000000000000000000000000000000000000000000000000081526004018080602001828103825283818151815260200191508051906020019080838360005b83811015620000d0578181015183820152602001620000b6565b50505050905090810190601f168015620000fe5780820380516001836020036101000a031916815260200191505b509250505060405180910390fd5b506200012360001964010000000062000154810204565b565b60006200014f6000805160206200402d83398151915264010000000062002a856200023382021704565b905090565b6200016764010000000062000125810204565b60408051808201909152601881527f494e49545f414c52454144595f494e495449414c495a454400000000000000006020820152901562000206576040517f08c379a000000000000000000000000000000000000000000000000000000000815260040180806020018281038252838181518152602001915080519060200190808383600083811015620000d0578181015183820152602001620000b6565b50620002306000805160206200402d833981519152826401000000006200396a6200023782021704565b50565b5490565b9055565b613de2806200024b6000396000f30060806040526004361061020a5763ffffffff60e060020a6000350416627bb003811461034f57806301ffc9a7146103765780630803fac0146103ac57806311a5e409146103c1578063150b7a02146103f35780631626ba7e1461042c5780631ce301811461048a578063206b60f91461049f57806320c13b0b146104b457806326f06d241461054b5780632914b9bd1461056057806332f0a3b5146105d5578063368c3c34146105ea5780633e4eb756146105ff57806342b2d0661461061457806347e7ef241461062957806348a0c8dd146106405780634c7ec0b01461065557806354842f141461066d578063578eb50b146106825780635fa5e4e6146106a35780636298e902146106b85780637e7db6e1146106d957806380afdea8146106fa5780638129fc1c1461070f578063851a3790146107245780638b3dd7491461073c5780639890cdca146107515780639d4941d814610766578063a1658fad14610787578063a479e508146107ee578063a83e52b414610803578063aae2505114610824578063ab23c34514610839578063b03bdb0414610866578063b06c42441461087b578063b4fa653c14610890578063b61d27f6146108a8578063beabacc8146108d9578063c0774df314610903578063d4aae0c41461096a578063d948d4681461097f578063de4796ed146109d8578063e3d670d7146109ed578063fd64eccb14610a0e575b610212610a23565b6040805180820190915260148152600080516020613d9783398151915260208201529015156102c25760405160e560020a62461bcd0281526004018080602001828103825283818151815260200191508051906020019080838360005b8381101561028757818101518382015260200161026f565b50505050905090810190601f1680156102b45780820380516001836020036101000a031916815260200191505b509250505060405180910390fd5b506040805180820190915260138152606860020a725641554c545f444154415f4e4f4e5f5a45524f02602082015236156103415760405160e560020a62461bcd0281526004018080602001828103825283818151815260200191508051906020019080838360008381101561028757818101518382015260200161026f565b5061034d600034610a4d565b005b34801561035b57600080fd5b50610364610cde565b60408051918252519081900360200190f35b34801561038257600080fd5b50610398600160e060020a031960043516610cf0565b604080519115158252519081900360200190f35b3480156103b857600080fd5b50610398610a23565b3480156103cd57600080fd5b506103d6610d4d565b60408051600160e060020a03199092168252519081900360200190f35b3480156103ff57600080fd5b506103d6600160a060020a0360048035821691602480359091169160443591606435908101910135610d5b565b34801561043857600080fd5b5060408051602060046024803582810135601f81018590048502860185019096528585526103d6958335953695604494919390910191908190840183828082843750949750610de89650505050505050565b34801561049657600080fd5b506103d6610e5a565b3480156104ab57600080fd5b50610364610e5f565b3480156104c057600080fd5b506040805160206004803580820135601f81018490048402850184019095528484526103d694369492936024939284019190819084018382808284375050604080516020601f89358b018035918201839004830284018301909452808352979a999881019791965091820194509250829150840183828082843750949750610e879650505050505050565b34801561055757600080fd5b50610364610ef6565b34801561056c57600080fd5b506040805160206004803580820135601f81018490048402850184019095528484526105b9943694929360249392840191908190840183828082843750949750610f7d9650505050505050565b60408051600160a060020a039092168252519081900360200190f35b3480156105e157600080fd5b506105b9611063565b3480156105f657600080fd5b506103646110db565b34801561060b57600080fd5b506103646110ed565b34801561062057600080fd5b506103646110ff565b61034d600160a060020a0360043516602435611111565b34801561064c57600080fd5b5061039861119c565b34801561066157600080fd5b5061034d6004356111ba565b34801561067957600080fd5b5061036461129a565b34801561068e57600080fd5b5061034d600160a060020a03600435166112ac565b3480156106af57600080fd5b506103646113d0565b3480156106c457600080fd5b5061034d600160a060020a03600435166113e2565b3480156106e557600080fd5b50610398600160a060020a0360043516611628565b34801561070657600080fd5b5061036461162e565b34801561071b57600080fd5b5061034d611659565b34801561073057600080fd5b506105b96004356116e9565b34801561074857600080fd5b50610364611711565b34801561075d57600080fd5b506103d661172a565b34801561077257600080fd5b5061034d600160a060020a0360043516611738565b34801561079357600080fd5b506040805160206004604435818101358381028086018501909652808552610398958335600160a060020a03169560248035963696956064959394920192918291850190849080828437509497506119bf9650505050505050565b3480156107fa57600080fd5b506105b9611b0f565b34801561080f57600080fd5b5061034d600160a060020a0360043516611bae565b34801561083057600080fd5b506105b9611d2f565b34801561084557600080fd5b5061034d60048035600160a060020a03169060248035908101910135611d3e565b34801561087257600080fd5b50610364612269565b34801561088757600080fd5b5061036461226e565b34801561089c57600080fd5b50610398600435612280565b3480156108b457600080fd5b5061034d60048035600160a060020a0316906024803591604435918201910135612295565b3480156108e557600080fd5b5061034d600160a060020a0360043581169060243516604435612430565b34801561090f57600080fd5b5060408051602060046024803582810135601f8101859004850286018501909652858552610398958335600160a060020a03169536956044949193909101919081908401838280828437509497506127189650505050505050565b34801561097657600080fd5b506105b9612743565b34801561098b57600080fd5b506040805160206004803580820135601f810184900484028501840190955284845261034d94369492936024939284019190819084018382808284375094975061276e9650505050505050565b3480156109e457600080fd5b5061039861282c565b3480156109f957600080fd5b50610364600160a060020a036004351661283f565b348015610a1a57600080fd5b50610398612879565b600080610a2e611711565b90508015801590610a46575080610a4361287e565b10155b91505b5090565b610a5561119c565b6040805180820190915260158152605860020a745641554c545f4e4f545f4445504f53495441424c45026020820152901515610ad65760405160e560020a62461bcd0281526004018080602001828103825283818151815260200191508051906020019080838360008381101561028757818101518382015260200161026f565b5060408051808201909152601881527f5641554c545f4445504f5349545f56414c55455f5a45524f0000000000000000602082015260008211610b5e5760405160e560020a62461bcd0281526004018080602001828103825283818151815260200191508051906020019080838360008381101561028757818101518382015260200161026f565b50600160a060020a0382161515610bf5576040805180820190915260148152606360020a730ac82aa98a8beac8298aa8abe9a92a69a82a8869026020820152348214610bef5760405160e560020a62461bcd0281526004018080602001828103825283818151815260200191508051906020019080838360008381101561028757818101518382015260200161026f565b50610c9a565b610c10600160a060020a03831633308463ffffffff61288216565b6040805190810160405280602081526020017f5641554c545f544f4b454e5f5452414e534645525f46524f4d5f524556455254815250901515610c985760405160e560020a62461bcd0281526004018080602001828103825283818151815260200191508051906020019080838360008381101561028757818101518382015260200161026f565b505b6040805182815290513391600160a060020a038516917f2790b90165fd3973ad7edde4eca71b4f8808dd4857a2a3a3e8ae5642a5cb196e9181900360200190a35050565b600080516020613d7783398151915281565b6000600160e060020a0319821660e060020a63fb855dc9021480610d275750600160e060020a0319821660e160020a630a85bd0102145b80610d455750600160e060020a0319821660e060020a6301ffc9a702145b90505b919050565b60e060020a63fb855dc90281565b600084600160a060020a031686600160a060020a031633600160a060020a03167fe0d2ab3bf6896c073bb33b920a9b60f3c8207b3cc3b7561c3101cb081a8f0883878787604051808481526020018060200182810382528484828181526020019250808284376040519201829003965090945050505050a45060e160020a630a85bd010295945050505050565b600082815260208190526040812054819060ff1615610e1257610e0b60016128eb565b9150610e53565b600154600160a060020a03161515610e2c57506000610e47565b600154610e44908590600160a060020a03168561290a565b90505b610e50816128eb565b91505b5092915050565b600081565b60408051609860020a6c5452414e534645525f524f4c45028152905190819003600d01902081565b6000610eef836040518082805190602001908083835b60208310610ebc5780518252601f199092019160209182019101610e9d565b6001836020036101000a038019825116818451168082178552505050505050905001915050604051809103902083610de8565b9392505050565b6000610f00610a23565b6040805180820190915260148152600080516020613d978339815191526020820152901515610f745760405160e560020a62461bcd0281526004018080602001828103825283818151815260200191508051906020019080838360008381101561028757818101518382015260200161026f565b50506002545b90565b6000610f87611b0f565b600160a060020a03166304bf2a7f836040518263ffffffff1660e060020a0281526004018080602001828103825283818151815260200191508051906020019080838360005b83811015610fe5578181015183820152602001610fcd565b50505050905090810190601f1680156110125780820380516001836020036101000a031916815260200191505b5092505050602060405180830381600087803b15801561103157600080fd5b505af1158015611045573d6000803e3d6000fd5b505050506040513d602081101561105b57600080fd5b505192915050565b600061106d612743565b600160a060020a03166332f0a3b56040518163ffffffff1660e060020a028152600401602060405180830381600087803b1580156110aa57600080fd5b505af11580156110be573d6000803e3d6000fd5b505050506040513d60208110156110d457600080fd5b5051905090565b600080516020613d3783398151915281565b600080516020613c7783398151915281565b600080516020613d5783398151915281565b611119610a23565b6040805180820190915260148152600080516020613d97833981519152602082015290151561118d5760405160e560020a62461bcd0281526004018080602001828103825283818151815260200191508051906020019080838360008381101561028757818101518382015260200161026f565b506111988282610a4d565b5050565b60006111b5600080516020613cf7833981519152612a85565b905090565b600080516020613bf78339815191526111d282612a89565b6111dd3383836119bf565b60408051808201909152600f8152600080516020613bd783398151915260208201529015156112515760405160e560020a62461bcd0281526004018080602001828103825283818151815260200191508051906020019080838360008381101561028757818101518382015260200161026f565b50600083815260208190526040808220805460ff1916600117905551849133917fb150212e573caa2a0216cf8f273ef996af143fd7b2d35abd92c8105536cac1609190a3505050565b600080516020613c9783398151915281565b600080516020613d578339815191526112c482612a94565b6112cf3383836119bf565b60408051808201909152600f8152600080516020613bd783398151915260208201529015156113435760405160e560020a62461bcd0281526004018080602001828103825283818151815260200191508051906020019080838360008381101561028757818101518382015260200161026f565b5061134d83612aa8565b6040805180820190915260198152600080516020613d1783398151915260208201529015156113c15760405160e560020a62461bcd0281526004018080602001828103825283818151815260200191508051906020019080838360008381101561028757818101518382015260200161026f565b506113cb83612b06565b505050565b600080516020613cd783398151915281565b600080516020613d778339815191526113fa82612a94565b6114053383836119bf565b60408051808201909152600f8152600080516020613bd783398151915260208201529015156114795760405160e560020a62461bcd0281526004018080602001828103825283818151815260200191508051906020019080838360008381101561028757818101518382015260200161026f565b5060025460408051808201909152601881527f4147454e545f544f4b454e535f4341505f524541434845440000000000000000602082015290600a116115045760405160e560020a62461bcd0281526004018080602001828103825283818151815260200191508051906020019080838360008381101561028757818101518382015260200161026f565b5061150e83612bb6565b6040805180820190915260158152605c60020a7404147454e545f544f4b454e5f4e4f545f45524332302602082015290151561158f5760405160e560020a62461bcd0281526004018080602001828103825283818151815260200191508051906020019080838360008381101561028757818101518382015260200161026f565b5061159983612aa8565b60408051808201909152601d81527f4147454e545f544f4b454e5f414c52454144595f50524f5445435445440000006020820152901561161e5760405160e560020a62461bcd0281526004018080602001828103825283818151815260200191508051906020019080838360008381101561028757818101518382015260200161026f565b506113cb83612be1565b50600090565b60006111b57fd625496217aa6a3453eecb9c3489dc5a53e6c67b444329ea2b2cbc9ff547639b612a85565b611661611711565b6040805180820190915260188152600080516020613c57833981519152602082015290156116d45760405160e560020a62461bcd0281526004018080602001828103825283818151815260200191508051906020019080838360008381101561028757818101518382015260200161026f565b506116dd612c59565b6116e76001612cfb565b565b60028054829081106116f757fe5b600091825260209091200154600160a060020a0316905081565b60006111b5600080516020613c37833981519152612a85565b60e060020a6320c13b0b0281565b600080600061174684611628565b6040805180820190915260128152607260020a71149150d3d5915497d11254d0531313d5d1510260208201529015156117c45760405160e560020a62461bcd0281526004018080602001828103825283818151815260200191508051906020019080838360008381101561028757818101518382015260200161026f565b506117cd611063565b92506117d883612d20565b60408051808201909152601a81527f5245434f5645525f5641554c545f4e4f545f434f4e5452414354000000000000602082015290151561185e5760405160e560020a62461bcd0281526004018080602001828103825283818151815260200191508051906020019080838360008381101561028757818101518382015260200161026f565b50600160a060020a03841615156118af5760405130319250600160a060020a0384169083156108fc029084906000818181858888f193505050501580156118a9573d6000803e3d6000fd5b5061196e565b50826118ca600160a060020a0382163063ffffffff612d4616565b91506118e6600160a060020a038216848463ffffffff612e3016565b60408051808201909152601d81527f5245434f5645525f544f4b454e5f5452414e534645525f4641494c4544000000602082015290151561196c5760405160e560020a62461bcd0281526004018080602001828103825283818151815260200191508051906020019080838360008381101561028757818101518382015260200161026f565b505b83600160a060020a031683600160a060020a03167f596caf56044b55fb8c4ca640089bbc2b63cae3e978b851f5745cbb7c5b288e02846040518082815260200191505060405180910390a350505050565b6000806119ca610a23565b15156119d95760009150611b07565b6119e1612743565b9050600160a060020a03811615156119fc5760009150611b07565b80600160a060020a031663fdef9106863087611a1788612e90565b60405160e060020a63ffffffff8716028152600160a060020a03808616600483019081529085166024830152604482018490526080606483019081528351608484015283519192909160a490910190602085019080838360005b83811015611a89578181015183820152602001611a71565b50505050905090810190601f168015611ab65780820380516001836020036101000a031916815260200191505b5095505050505050602060405180830381600087803b158015611ad857600080fd5b505af1158015611aec573d6000803e3d6000fd5b505050506040513d6020811015611b0257600080fd5b505191505b509392505050565b600080611b1a612743565b6040805160e360020a6317c0177b0281527fd6f028ca0e8edb4a8c9757ca4fdccab25fa1e0317da1188108f7d2dee14902fb60048201527fddbcfd564f642ab5627cf68b9b7d374fb4f8a36e941a75d89c87998cef03bd6160248201529051600160a060020a03929092169163be00bbd8916044808201926020929091908290030181600087803b15801561103157600080fd5b6000600080516020613c97833981519152611bc883612a94565b611bd33383836119bf565b60408051808201909152600f8152600080516020613bd78339815191526020820152901515611c475760405160e560020a62461bcd0281526004018080602001828103825283818151815260200191508051906020019080838360008381101561028757818101518382015260200161026f565b5060408051808201909152601881527f4147454e545f44455349474e415445445f544f5f53454c4600000000000000006020820152600160a060020a038516301415611cd85760405160e560020a62461bcd0281526004018080602001828103825283818151815260200191508051906020019080838360008381101561028757818101518382015260200161026f565b5060018054600160a060020a03868116600160a060020a03198316811790935560405191169450849033907f3ecf54ed9acd859c5ee7f080794267b8f08b65d2446d816cef1efccd6d00d73590600090a450505050565b600154600160a060020a031681565b6000606080600080600080600080600080516020613c77833981519152600102611da78d611d9b8e8e8080601f01602080910402602001604051908101604052809392919081815260200183838082843750612e9a945050505050565b60e060020a9004612eb3565b611db23383836119bf565b60408051808201909152600f8152600080516020613bd78339815191526020820152901515611e265760405160e560020a62461bcd0281526004018080602001828103825283818151815260200191508051906020019080838360008381101561028757818101518382015260200161026f565b50600254604080518281526020808402820101909152909b508b8015611e56578160200160208202803883390190505b5099508a604051908082528060200260200182016040528015611e83578160200160208202803883390190505b509850600097505b8a881015611f98576002805489908110611ea157fe5b6000918252602091829020015460408051808201909152601681527f4147454e545f5441524745545f50524f5445435445440000000000000000000092810192909252600160a060020a0390811698508f16881415611f455760405160e560020a62461bcd0281526004018080602001828103825283818151815260200191508051906020019080838360008381101561028757818101518382015260200161026f565b50868a89815181101515611f5557fe5b600160a060020a03909216602092830290910190910152611f758761283f565b8989815181101515611f8357fe5b60209081029091010152600190970196611e8b565b8d600160a060020a03168d8d604051808383808284378201915050925050506000604051808303816000865af191505095503d935060405194503d85016040523d6000863e85156122655760025460408051808201909152601f8152600080516020613c178339815191526020820152908c1461205a5760405160e560020a62461bcd0281526004018080602001828103825283818151815260200191508051906020019080838360008381101561028757818101518382015260200161026f565b50600092505b8a8310156121fd57898381518110151561207657fe5b90602001906020020151600160a060020a031660028481548110151561209857fe5b6000918252602091829020015460408051808201909152601f8152600080516020613c17833981519152928101929092529091600160a060020a03909116146121265760405160e560020a62461bcd0281526004018080602001828103825283818151815260200191508051906020019080838360008381101561028757818101518382015260200161026f565b50888381518110151561213557fe5b9060200190602002015161216b60028581548110151561215157fe5b600091825260209091200154600160a060020a031661283f565b60408051808201909152601f81527f4147454e545f50524f5445435445445f42414c414e43455f4c4f57455245440060208201529111156121f15760405160e560020a62461bcd0281526004018080602001828103825283818151815260200191508051906020019080838360008381101561028757818101518382015260200161026f565b50600190920191612060565b8d600160a060020a031633600160a060020a03167f47f4287d5285559a03d8affeadc53ef3fca238a63c256c08a22bfd30fd5d33ce8f8f6040518080602001828103825284848281815260200192508082843760405192018290039550909350505050a38385f35b8385fd5b600a81565b600080516020613bf783398151915281565b60006020819052908152604090205460ff1681565b6000600080516020613cd78339815191526001026122f386866122e787878080601f01602080910402602001604051908101604052809392919081815260200183838082843750612e9a945050505050565b60e060020a9004612ec8565b6122fe3383836119bf565b60408051808201909152600f8152600080516020613bd783398151915260208201529015156123725760405160e560020a62461bcd0281526004018080602001828103825283818151815260200191508051906020019080838360008381101561028757818101518382015260200161026f565b5086600160a060020a03168686866040518083838082843782019150509250505060006040518083038185875af192505050925082156124195786600160a060020a031633600160a060020a03167fc25cfed0b22da6a56f0e5ff784979a0b8623eddf2aee4acd33c2adefb09cbab6888888604051808481526020018060200182810382528484828181526020019250808284376040519201829003965090945050505050a35b6040513d6000823e83801561242c573d82f35b3d82fd5b60408051609860020a6c5452414e534645525f524f4c45028152905190819003600d019020612460848484612ee6565b61246b3383836119bf565b60408051808201909152600f8152600080516020613bd783398151915260208201529015156124df5760405160e560020a62461bcd0281526004018080602001828103825283818151815260200191508051906020019080838360008381101561028757818101518382015260200161026f565b5060408051808201909152601981527f5641554c545f5452414e534645525f56414c55455f5a45524f000000000000006020820152600084116125675760405160e560020a62461bcd0281526004018080602001828103825283818151815260200191508051906020019080838360008381101561028757818101518382015260200161026f565b50600160a060020a038516151561262457604051600160a060020a0385169084156108fc029085906000818181858888f19350505050604080519081016040528060138152602001606a60020a72159055531517d4d1539117d4915591549511510281525090151561261e5760405160e560020a62461bcd0281526004018080602001828103825283818151815260200191508051906020019080838360008381101561028757818101518382015260200161026f565b506126c6565b61263e600160a060020a038616858563ffffffff612e3016565b60408051808201909152601d81527f5641554c545f544f4b454e5f5452414e534645525f524556455254454400000060208201529015156126c45760405160e560020a62461bcd0281526004018080602001828103825283818151815260200191508051906020019080838360008381101561028757818101518382015260200161026f565b505b83600160a060020a031685600160a060020a03167f239e7f6cdac8fb35a788a46b431b54da87de90b82448a2c294be5e92a6e579af856040518082815260200191505060405180910390a35050505050565b6000610eef83600080516020613d3783398151915261273e61273986612f05565b612fcf565b6119bf565b60006111b57f4172f0f7d2289153072b0a6ca36959e0cbe2efc3afe50fc81636caa96338137b612a85565b60608061277b3384612718565b6040805180820190915260158152605a60020a741051d1539517d0d05397d393d517d193d495d054910260208201529015156127fc5760405160e560020a62461bcd0281526004018080602001828103825283818151815260200191508051906020019080838360008381101561028757818101518382015260200161026f565b50506040805160208082018352600080835283519081529081019092529150612826838383613010565b50505050565b6000600019612839611711565b14905090565b6000600160a060020a038216151561285957503031610d48565b612872600160a060020a0383163063ffffffff612d4616565b9050610d48565b600190565b4390565b60408051600160a060020a038581166024830152841660448201526064808201849052825180830390910181526084909101909152602081018051600160e060020a031660e060020a6323b872dd021790526000906128e186826135c9565b9695505050505050565b6000816128f9576000610d45565b5060e060020a6320c13b0b02919050565b60008060008351600014156129225760009250612a7c565b83600081518110151561293157fe5b016020015160f860020a908190048102049150600460ff8316106129585760009250612a7c565b8160ff16600481111561296757fe5b9050600181600481111561297757fe5b141561298f57612988868686613617565b9250612a7c565b600281600481111561299d57fe5b1415612a5057604080517f19457468657265756d205369676e6564204d6573736167653a0a333200000000602080830191909152603c8083018a905283518084039091018152605c90920192839052815161298893918291908401908083835b60208310612a1c5780518252601f1990920191602091820191016129fd565b6001836020036101000a03801982511681845116808217855250505050505090500191505060405180910390208686613617565b6003816004811115612a5e57fe5b1415612a77576129888587612a72876136c5565b6137ba565b600092505b50509392505050565b5490565b6060610d4582612fcf565b6060610d4582600160a060020a0316612fcf565b6000805b600254811015612afb5782600160a060020a0316600282815481101515612acf57fe5b600091825260209091200154600160a060020a03161415612af35760019150612b00565b600101612aac565b600091505b50919050565b600280546000198101908110612b1857fe5b600091825260209091200154600160a060020a03166002612b38836138ad565b81548110612b4257fe5b60009182526020909120018054600160a060020a031916600160a060020a03929092169190911790556002805490612b7e906000198301613b9d565b50604051600160a060020a038216907f3da25279c93c5b22b359bebff8b5ddbfd9b0506be8344b93c9a7dc999459fe0490600090a250565b6000612bc182612d20565b1515612bcf57506000610d48565b612bd88261283f565b50600192915050565b6002805460018101825560009182527f405787fa12a823e0f2b7631cc41b3ba8828b3321ca811111fa75cd3aa3bb5ace018054600160a060020a031916600160a060020a03841690811790915560405190917ff70a5123a7f334e5dac1d9aa3a6aafbc316712bf2519ffe0d3aa4f7cba52767e91a250565b612c61611711565b6040805180820190915260188152600080516020613c5783398151915260208201529015612cd45760405160e560020a62461bcd0281526004018080602001828103825283818151815260200191508051906020019080838360008381101561028757818101518382015260200161026f565b506116e7612ce061287e565b600080516020613c378339815191529063ffffffff61396a16565b612d19600080516020613cf78339815191528263ffffffff61396a16565b50565b5490565b600080600160a060020a0383161515612d3c5760009150612b00565b50506000903b1190565b60408051600160a060020a038316602480830191909152825180830390910181526044909101909152602081018051600160e060020a031660e060020a6370a08231021790526000908180612d9b868461396e565b60408051808201909152601c81527f534146455f4552435f32305f42414c414e43455f52455645525445440000000060208201529193509150821515612e265760405160e560020a62461bcd0281526004018080602001828103825283818151815260200191508051906020019080838360008381101561028757818101518382015260200161026f565b5095945050505050565b60408051600160a060020a03841660248201526044808201849052825180830390910181526064909101909152602081018051600160e060020a031660e060020a63a9059cbb02179052600090612e8785826135c9565b95945050505050565b8051602002815290565b6000600482511015612eab57610d48565b506020015190565b6060610eef83600160a060020a03168361399f565b6060612ede84600160a060020a031684846139fa565b949350505050565b6060612ede84600160a060020a031684600160a060020a0316846139fa565b6000816040516020018082805190602001908083835b60208310612f3a5780518252601f199092019160209182019101612f1b565b6001836020036101000a0380198251168184511680821785525050505050509050019150506040516020818303038152906040526040518082805190602001908083835b60208310612f9d5780518252601f199092019160209182019101612f7e565b5181516020939093036101000a6000190180199091169216919091179052604051920182900390912095945050505050565b604080516001808252818301909252606091602080830190803883390190505090508181600081518110151561300157fe5b60209081029091010152919050565b6060600080606080613020610a23565b6040805180820190915260148152600080516020613d9783398151915260208201529015156130945760405160e560020a62461bcd0281526004018080602001828103825283818151815260200191508051906020019080838360008381101561028757818101518382015260200161026f565b506000806130a0612743565b91506130aa61162e565b90506130b58a610f7d565b60408051808201909152601b81527f45564d52554e5f4558454355544f525f554e415641494c41424c4500000000006020820152909650600160a060020a03871615156131475760405160e560020a62461bcd0281526004018080602001828103825283818151815260200191508051906020019080838360008381101561028757818101518382015260200161026f565b506040516060602482019081528b5160848301528b5160e060020a63279cea3502975087928d928d928d9282916044820191606481019160a490910190602089019080838360005b838110156131a757818101518382015260200161318f565b50505050905090810190601f1680156131d45780820380516001836020036101000a031916815260200191505b50848103835286518152865160209182019188019080838360005b838110156132075781810151838201526020016131ef565b50505050905090810190601f1680156132345780820380516001836020036101000a031916815260200191505b508481038252855181528551602091820191808801910280838360005b83811015613269578181015183820152602001613251565b50505050905001965050505050505060405160208183030381529060405290600160e060020a031916602082018051600160e060020a0383818316178352505050509350600080855160208701895af4604051935080801561332d57603f3d1180156132e25760203d03806020883e8601604052613327565b60e560020a62461bcd02865260206004870152601e60248701527f45564d52554e5f4558454355544f525f494e56414c49445f52455455524e00006044870152606486fd5b50613336565b3d6000863e3d85fd5b505085600160a060020a03167f5229a5dba83a54ae8cb5b51bdd6de9474cacbe9dd332f5185f3a4f4f2e3f4ad98b8b8660405180806020018060200180602001848103845287818151815260200191508051906020019080838360005b838110156133ab578181015183820152602001613393565b50505050905090810190601f1680156133d85780820380516001836020036101000a031916815260200191505b50848103835286518152865160209182019188019080838360005b8381101561340b5781810151838201526020016133f3565b50505050905090810190601f1680156134385780820380516001836020036101000a031916815260200191505b50848103825285518152855160209182019187019080838360005b8381101561346b578181015183820152602001613453565b50505050905090810190601f1680156134985780820380516001836020036101000a031916815260200191505b50965050505050505060405180910390a282965081600160a060020a03166134be612743565b600160a060020a0316146040805190810160405280601f8152602001600080516020613cb783398151915281525090151561353e5760405160e560020a62461bcd0281526004018080602001828103825283818151815260200191508051906020019080838360008381101561028757818101518382015260200161026f565b508061354861162e565b60408051808201909152601f8152600080516020613cb7833981519152602082015291146135bb5760405160e560020a62461bcd0281526004018080602001828103825283818151815260200191508051906020019080838360008381101561028757818101518382015260200161026f565b505050505050509392505050565b6000806040516020818551602087016000895af1600081111561360d573d80156135fa57602081146136035761360b565b6001935061360b565b600183511493505b505b5090949350505050565b600080600080600061362886613a73565b9350935093509350831561363f57600094506136ba565b60408051600080825260208083018085528c905260ff8516838501526060830187905260808301869052925160019360a0808501949193601f19840193928390039091019190865af1158015613699573d6000803e3d6000fd5b50505060206040510351600160a060020a031687600160a060020a03161494505b505050509392505050565b805160408051808201909152601e81527f53494756414c5f494e56414c49445f4c454e4754485f504f505f42595445000060208201526060919060009081908184116137565760405160e560020a62461bcd0281526004018080602001828103825283818151815260200191508051906020019080838360008381101561028757818101518382015260200161026f565b50600183036040519080825280601f01601f191660200182016040528015613788578160200160208202803883390190505b50935083516000141561379a576137b2565b6021850191506020840190506137b281838651613aff565b505050919050565b604080516024810184815260448201928352835160648301528351600093606093859360e160020a630b135d3f029389938993909160849091019060208501908083838b5b838110156138175781810151838201526020016137ff565b50505050905090810190601f1680156138445780820380516001836020036101000a031916815260200191505b50935050505060405160208183030381529060405290600160e060020a031916602082018051600160e060020a038381831617835250505050915061388d86836203d090613b43565b600160e060020a03191660e060020a6320c13b0b02149695505050505050565b6000805b6002548110156138ff5782600160a060020a03166002828154811015156138d457fe5b600091825260209091200154600160a060020a031614156138f757809150612b00565b6001016138b1565b60408051808201825260198152600080516020613d178339815191526020808301918252925160e560020a62461bcd0281526004810193845282516024820152825192939283926044909201919080838360008381101561028757818101518382015260200161026f565b9055565b6000806000806040516020818751602089018a5afa9250600083111561399357805191505b50909590945092505050565b6040805160028082526060808301845292602083019080388339019050509050828160008151811015156139cf57fe5b6020908102909101015280518290829060019081106139ea57fe5b6020908102909101015292915050565b6040805160038082526080820190925260609160208201838038833901905050905083816000815181101515613a2c57fe5b602090810290910101528051839082906001908110613a4757fe5b602090810290910101528051829082906002908110613a6257fe5b602090810290910101529392505050565b60008060008084516042141515613a8d5760019350613af8565b846041815181101515613a9c57fe5b90602001015160f860020a900460f860020a0260f860020a900490506021850151925060418501519150601b8160ff161015613ad657601b015b8060ff16601b14158015613aee57508060ff16601c14155b15613af857600193505b9193509193565b60005b60208210613b24578251845260209384019390920191601f1990910190613b02565b50905182516020929092036101000a6000190180199091169116179052565b60008060008060005a9350858411613b5b5783613b5d565b855b9250600080885160208a018b87fa9150811515613b79576136ba565b503d60208114613b88576136ba565b604051816000823e5198975050505050505050565b8154818355818111156113cb576000838152602090206113cb918101908301610f7a91905b80821115610a495760008155600101613bc256004150505f415554485f4641494c454400000000000000000000000000000000000b29780bb523a130b3b01f231ef49ed2fa2781645591a0b0a44ca98f15a5994c4147454e545f50524f5445435445445f544f4b454e535f4d4f44494649454400ebb05b386a8d34882b8711d156f463690983dc47815980fb82aeeff1aa43579e494e49545f414c52454144595f494e495449414c495a454400000000000000000a1ad7b87f5846153c6d5a1f761d71c7d0cfd122384f56066cd33239b793369423ce341656c3f14df6692eebd4757791e33662b7dcf9970c8308303da5472b7c45564d52554e5f50524f5445435445445f53544154455f4d4f44494649454400cebf517aa4440d1d125e0355aae64401211d0848a23c02cc5d29a14822580ba4665fd576fbbe6f247aff98f5c94a561e3f71ec2d3c988d56f12d342396c50cea4147454e545f544f4b454e5f4e4f545f50524f54454354454400000000000000b421f7ad7646747f3051c50c0b8e2377839296cd4973e27f63821d73e390338f71eee93d500f6f065e38b27d242a756466a00a52a1dbcd6b4260f01a8640402a6eb2a499556bfa2872f5aa15812b956cc4a71b4d64eb3553f7073c7e41415aaa494e49545f4e4f545f494e495449414c495a4544000000000000000000000000a165627a7a7230582013738fcd37c4c92b2e21efb086ae815bf38b91debd1c95c9289059e4487d9f1d0029ebb05b386a8d34882b8711d156f463690983dc47815980fb82aeeff1aa43579e",
  "source": "/*\n * SPDX-License-Identitifer:    GPL-3.0-or-later\n */\n\npragma solidity 0.4.24;\n\nimport \"./SignatureValidator.sol\";\nimport \"./standards/IERC165.sol\";\nimport \"./standards/ERC1271.sol\";\nimport \"./standards/IERC721Receiver.sol\";\n\nimport \"@aragon/apps-vault/contracts/Vault.sol\";\n\nimport \"@aragon/os/contracts/common/IForwarder.sol\";\n\n\ncontract Agent is IERC165, IERC721Receiver, ERC1271Bytes, IForwarder, IsContract, Vault {\n    /* Hardcoded constants to save gas\n    bytes32 public constant EXECUTE_ROLE = keccak256(\"EXECUTE_ROLE\");\n    bytes32 public constant SAFE_EXECUTE_ROLE = keccak256(\"SAFE_EXECUTE_ROLE\");\n    bytes32 public constant ADD_PROTECTED_TOKEN_ROLE = keccak256(\"ADD_PROTECTED_TOKEN_ROLE\");\n    bytes32 public constant REMOVE_PROTECTED_TOKEN_ROLE = keccak256(\"REMOVE_PROTECTED_TOKEN_ROLE\");\n    bytes32 public constant ADD_PRESIGNED_HASH_ROLE = keccak256(\"ADD_PRESIGNED_HASH_ROLE\");\n    bytes32 public constant DESIGNATE_SIGNER_ROLE = keccak256(\"DESIGNATE_SIGNER_ROLE\");\n    bytes32 public constant RUN_SCRIPT_ROLE = keccak256(\"RUN_SCRIPT_ROLE\");\n    */\n\n    bytes32 public constant EXECUTE_ROLE = 0xcebf517aa4440d1d125e0355aae64401211d0848a23c02cc5d29a14822580ba4;\n    bytes32 public constant SAFE_EXECUTE_ROLE = 0x0a1ad7b87f5846153c6d5a1f761d71c7d0cfd122384f56066cd33239b7933694;\n    bytes32 public constant ADD_PROTECTED_TOKEN_ROLE = 0x6eb2a499556bfa2872f5aa15812b956cc4a71b4d64eb3553f7073c7e41415aaa;\n    bytes32 public constant REMOVE_PROTECTED_TOKEN_ROLE = 0x71eee93d500f6f065e38b27d242a756466a00a52a1dbcd6b4260f01a8640402a;\n    bytes32 public constant ADD_PRESIGNED_HASH_ROLE = 0x0b29780bb523a130b3b01f231ef49ed2fa2781645591a0b0a44ca98f15a5994c;\n    bytes32 public constant DESIGNATE_SIGNER_ROLE = 0x23ce341656c3f14df6692eebd4757791e33662b7dcf9970c8308303da5472b7c;\n    bytes32 public constant RUN_SCRIPT_ROLE = 0xb421f7ad7646747f3051c50c0b8e2377839296cd4973e27f63821d73e390338f;\n\n    uint256 public constant PROTECTED_TOKENS_CAP = 10;\n\n    bytes4 private constant ERC165_INTERFACE_ID = 0x01ffc9a7;\n    bytes4 private constant ERC721_RECEIVED_INTERFACE_ID = 0x150b7a02; // bytes4(keccak256(\"onERC721Received(address,address,uint256,bytes)\"))\n\n    string private constant ERROR_TARGET_PROTECTED = \"AGENT_TARGET_PROTECTED\";\n    string private constant ERROR_PROTECTED_TOKENS_MODIFIED = \"AGENT_PROTECTED_TOKENS_MODIFIED\";\n    string private constant ERROR_PROTECTED_BALANCE_LOWERED = \"AGENT_PROTECTED_BALANCE_LOWERED\";\n    string private constant ERROR_TOKENS_CAP_REACHED = \"AGENT_TOKENS_CAP_REACHED\";\n    string private constant ERROR_TOKEN_NOT_ERC20 = \"AGENT_TOKEN_NOT_ERC20\";\n    string private constant ERROR_TOKEN_ALREADY_PROTECTED = \"AGENT_TOKEN_ALREADY_PROTECTED\";\n    string private constant ERROR_TOKEN_NOT_PROTECTED = \"AGENT_TOKEN_NOT_PROTECTED\";\n    string private constant ERROR_DESIGNATED_TO_SELF = \"AGENT_DESIGNATED_TO_SELF\";\n    string private constant ERROR_CAN_NOT_FORWARD = \"AGENT_CAN_NOT_FORWARD\";\n\n    mapping (bytes32 => bool) public isPresigned;\n    address public designatedSigner;\n    address[] public protectedTokens;\n\n    event SafeExecute(address indexed sender, address indexed target, bytes data);\n    event Execute(address indexed sender, address indexed target, uint256 ethValue, bytes data);\n    event AddProtectedToken(address indexed token);\n    event RemoveProtectedToken(address indexed token);\n    event PresignHash(address indexed sender, bytes32 indexed hash);\n    event SetDesignatedSigner(address indexed sender, address indexed oldSigner, address indexed newSigner);\n    event ReceiveERC721(address indexed token, address indexed operator, address indexed from, uint256 tokenId, bytes data);\n\n    /**\n    * @notice Execute '`@radspec(_target, _data)`' on `_target``_ethValue == 0 ? '' : ' (Sending ' + @tokenAmount(0x0000000000000000000000000000000000000000, _ethValue) + ')'`\n    * @param _target Address where the action is being executed\n    * @param _ethValue Amount of ETH from the contract that is sent with the action\n    * @param _data Calldata for the action\n    * @return Exits call frame forwarding the return data of the executed call (either error or success data)\n    */\n    function execute(address _target, uint256 _ethValue, bytes _data)\n        external // This function MUST always be external as the function performs a low level return, exiting the Agent app execution context\n        authP(EXECUTE_ROLE, arr(_target, _ethValue, uint256(_getSig(_data)))) // bytes4 casted as uint256 sets the bytes as the LSBs\n    {\n        bool result = _target.call.value(_ethValue)(_data);\n\n        if (result) {\n            emit Execute(msg.sender, _target, _ethValue, _data);\n        }\n\n        assembly {\n            let ptr := mload(0x40)\n            returndatacopy(ptr, 0, returndatasize)\n\n            // revert instead of invalid() bc if the underlying call failed with invalid() it already wasted gas.\n            // if the call returned error data, forward it\n            switch result case 0 { revert(ptr, returndatasize) }\n            default { return(ptr, returndatasize) }\n        }\n    }\n\n    /**\n    * @notice Execute '`@radspec(_target, _data)`' on `_target`, ensuring that protected tokens can't be spent\n    * @param _target Address where the action is being executed\n    * @param _data Calldata for the action\n    * @return Exits call frame forwarding the return data of the executed call (either error or success data)\n    */\n    function safeExecute(address _target, bytes _data)\n        external // This function MUST always be external as the function performs a low level return, exiting the Agent app execution context\n        authP(SAFE_EXECUTE_ROLE, arr(_target, uint256(_getSig(_data)))) // bytes4 casted as uint256 sets the bytes as the LSBs\n    {\n        uint256 protectedTokensLength = protectedTokens.length;\n        address[] memory protectedTokens_ = new address[](protectedTokensLength);\n        uint256[] memory balances = new uint256[](protectedTokensLength);\n\n        for (uint256 i = 0; i < protectedTokensLength; i++) {\n            address token = protectedTokens[i];\n            require(_target != token, ERROR_TARGET_PROTECTED);\n            // we copy the protected tokens array to check whether the storage array has been modified during the underlying call\n            protectedTokens_[i] = token;\n            // we copy the balances to check whether they have been modified during the underlying call\n            balances[i] = balance(token);\n        }\n\n        bool result = _target.call(_data);\n\n        bytes32 ptr;\n        uint256 size;\n        assembly {\n            size := returndatasize\n            ptr := mload(0x40)\n            mstore(0x40, add(ptr, returndatasize))\n            returndatacopy(ptr, 0, returndatasize)\n        }\n\n        if (result) {\n            // if the underlying call has succeeded, we check that the protected tokens\n            // and their balances have not been modified and return the call's return data\n            require(protectedTokens.length == protectedTokensLength, ERROR_PROTECTED_TOKENS_MODIFIED);\n            for (uint256 j = 0; j < protectedTokensLength; j++) {\n                require(protectedTokens[j] == protectedTokens_[j], ERROR_PROTECTED_TOKENS_MODIFIED);\n                require(balance(protectedTokens[j]) >= balances[j], ERROR_PROTECTED_BALANCE_LOWERED);\n            }\n\n            emit SafeExecute(msg.sender, _target, _data);\n\n            assembly {\n                return(ptr, size)\n            }\n        } else {\n            // if the underlying call has failed, we revert and forward returned error data\n            assembly {\n                revert(ptr, size)\n            }\n        }\n    }\n\n    /**\n    * @notice Add `_token.symbol(): string` to the list of protected tokens\n    * @param _token Address of the token to be protected\n    */\n    function addProtectedToken(address _token) external authP(ADD_PROTECTED_TOKEN_ROLE, arr(_token)) {\n        require(protectedTokens.length < PROTECTED_TOKENS_CAP, ERROR_TOKENS_CAP_REACHED);\n        require(_isERC20(_token), ERROR_TOKEN_NOT_ERC20);\n        require(!_tokenIsProtected(_token), ERROR_TOKEN_ALREADY_PROTECTED);\n\n        _addProtectedToken(_token);\n    }\n\n    /**\n    * @notice Remove `_token.symbol(): string` from the list of protected tokens\n    * @param _token Address of the token to be unprotected\n    */\n    function removeProtectedToken(address _token) external authP(REMOVE_PROTECTED_TOKEN_ROLE, arr(_token)) {\n        require(_tokenIsProtected(_token), ERROR_TOKEN_NOT_PROTECTED);\n\n        _removeProtectedToken(_token);\n    }\n\n    /**\n    * @notice Pre-sign hash `_hash`\n    * @param _hash Hash that will be considered signed regardless of the signature checked with 'isValidSignature()'\n    */\n    function presignHash(bytes32 _hash)\n        external\n        authP(ADD_PRESIGNED_HASH_ROLE, arr(_hash))\n    {\n        isPresigned[_hash] = true;\n\n        emit PresignHash(msg.sender, _hash);\n    }\n\n    /**\n    * @notice Set `_designatedSigner` as the designated signer of the app, which will be able to sign messages on behalf of the app\n    * @param _designatedSigner Address that will be able to sign messages on behalf of the app\n    */\n    function setDesignatedSigner(address _designatedSigner)\n        external\n        authP(DESIGNATE_SIGNER_ROLE, arr(_designatedSigner))\n    {\n        // Prevent an infinite loop by setting the app itself as its designated signer.\n        // An undetectable loop can be created by setting a different contract as the\n        // designated signer which calls back into `isValidSignature`.\n        // Given that `isValidSignature` is always called with just 50k gas, the max\n        // damage of the loop is wasting 50k gas.\n        require(_designatedSigner != address(this), ERROR_DESIGNATED_TO_SELF);\n\n        address oldDesignatedSigner = designatedSigner;\n        designatedSigner = _designatedSigner;\n\n        emit SetDesignatedSigner(msg.sender, oldDesignatedSigner, _designatedSigner);\n    }\n\n    function onERC721Received(address _operator, address _from, uint256 _tokenId, bytes _data) external returns (bytes4) {\n        emit ReceiveERC721(msg.sender, _operator, _from, _tokenId, _data);\n\n        return ERC721_RECEIVED_INTERFACE_ID;\n    }\n\n    // Forwarding fns\n\n    /**\n    * @notice Tells whether the Agent app is a forwarder or not\n    * @dev IForwarder interface conformance\n    * @return Always true\n    */\n    function isForwarder() external pure returns (bool) {\n        return true;\n    }\n\n    /**\n     * @notice Tells whether this contract supports a given ERC-165 interface\n     * @dev Implements conformance to ERC-165\n     * @param _interfaceId Interface bytes to check\n     * @return True if this contract supports the interface\n     */\n    function supportsInterface(bytes4 _interfaceId) external pure returns (bool) {\n        return\n            _interfaceId == ERC1271_INTERFACE_ID ||\n            _interfaceId == ERC721_RECEIVED_INTERFACE_ID ||\n            _interfaceId == ERC165_INTERFACE_ID;\n    }\n\n    /**\n    * @notice Execute the script as the Agent app\n    * @dev IForwarder interface conformance. Forwards any token holder action.\n    * @param _evmScript Script being executed\n    */\n    function forward(bytes _evmScript) public {\n        require(canForward(msg.sender, _evmScript), ERROR_CAN_NOT_FORWARD);\n\n        bytes memory input = \"\"; // no input\n        address[] memory blacklist = new address[](0); // no addr blacklist, can interact with anything\n        runScript(_evmScript, input, blacklist);\n        // We don't need to emit an event here as EVMScriptRunner will emit ScriptResult if successful\n    }\n\n    /**\n    * @notice Tells whether `_sender` can forward actions or not\n    * @dev IForwarder interface conformance\n    * @param _sender Address of the account intending to forward an action\n    * @return True if the given address can run scripts, false otherwise\n    */\n    function canForward(address _sender, bytes _evmScript) public view returns (bool) {\n        // Note that `canPerform()` implicitly does an initialization check itself\n        return canPerform(_sender, RUN_SCRIPT_ROLE, arr(_getScriptACLParam(_evmScript)));\n    }\n\n    // ERC-1271 conformance\n\n    /**\n     * @notice Tells whether a signature is seen as valid by this contract through ERC-1271\n     * @param _hash Arbitrary length data signed on the behalf of address (this)\n     * @param _signature Signature byte array associated with _data\n     * @return The ERC-1271 magic value if the signature is valid\n     */\n    function isValidSignature(bytes32 _hash, bytes _signature) public view returns (bytes4) {\n        // Short-circuit in case the hash was presigned. Optimization as performing calls\n        // and ecrecover is more expensive than an SLOAD.\n        if (isPresigned[_hash]) {\n            return returnIsValidSignatureMagicNumber(true);\n        }\n\n        bool isValid;\n        if (designatedSigner == address(0)) {\n            isValid = false;\n        } else {\n            isValid = SignatureValidator.isValidSignature(_hash, designatedSigner, _signature);\n        }\n\n        return returnIsValidSignatureMagicNumber(isValid);\n    }\n\n    // Getters\n\n    function getProtectedTokensLength() public view isInitialized returns (uint256) {\n        return protectedTokens.length;\n    }\n\n    // Internal fns\n\n    function _addProtectedToken(address _token) internal {\n        protectedTokens.push(_token);\n\n        emit AddProtectedToken(_token);\n    }\n\n    function _removeProtectedToken(address _token) internal {\n        protectedTokens[_protectedTokenIndex(_token)] = protectedTokens[protectedTokens.length - 1];\n        protectedTokens.length--;\n\n        emit RemoveProtectedToken(_token);\n    }\n\n    function _isERC20(address _token) internal view returns (bool) {\n        if (!isContract(_token)) {\n            return false;\n        }\n\n        // Throwaway sanity check to make sure the token's `balanceOf()` does not error (for now)\n        balance(_token);\n\n        return true;\n    }\n\n    function _protectedTokenIndex(address _token) internal view returns (uint256) {\n        for (uint i = 0; i < protectedTokens.length; i++) {\n            if (protectedTokens[i] == _token) {\n              return i;\n            }\n        }\n\n        revert(ERROR_TOKEN_NOT_PROTECTED);\n    }\n\n    function _tokenIsProtected(address _token) internal view returns (bool) {\n        for (uint256 i = 0; i < protectedTokens.length; i++) {\n            if (protectedTokens[i] == _token) {\n                return true;\n            }\n        }\n\n        return false;\n    }\n\n    function _getScriptACLParam(bytes _evmScript) internal pure returns (uint256) {\n        return uint256(keccak256(abi.encodePacked(_evmScript)));\n    }\n\n    function _getSig(bytes _data) internal pure returns (bytes4 sig) {\n        if (_data.length < 4) {\n            return;\n        }\n\n        assembly { sig := mload(add(_data, 0x20)) }\n    }\n}\n",
  "sourcePath": "@aragon/apps-agent/contracts/Agent.sol",
  "compiler": {
    "name": "solc",
    "version": "0.4.24+commit.e67f0147.Emscripten.clang"
  },
  "schemaVersion": "3.4.2",
  "updatedAt": "2021-10-14T14:14:03.800Z",
  "devdoc": {
    "methods": {
      "addProtectedToken(address)": {
        "params": {
          "_token": "Address of the token to be protected"
        }
      },
      "allowRecoverability(address)": {
        "details": "Disable recovery escape hatch, as it could be used     maliciously to transfer funds away from the vault"
      },
      "canForward(address,bytes)": {
        "details": "IForwarder interface conformance",
        "params": {
          "_sender": "Address of the account intending to forward an action"
        },
        "return": "True if the given address can run scripts, false otherwise"
      },
      "canPerform(address,bytes32,uint256[])": {
        "details": "Check whether an action can be performed by a sender for a particular role on this app",
        "params": {
          "_params": "Permission params for the role",
          "_role": "Role on this app",
          "_sender": "Sender of the call"
        },
        "return": "Boolean indicating whether the sender has the permissions to perform the action.        Always returns false if the app hasn't been initialized yet."
      },
      "deposit(address,uint256)": {
        "params": {
          "_token": "Address of the token being transferred",
          "_value": "Amount of tokens being transferred"
        }
      },
      "execute(address,uint256,bytes)": {
        "params": {
          "_data": "Calldata for the action",
          "_ethValue": "Amount of ETH from the contract that is sent with the action",
          "_target": "Address where the action is being executed"
        },
        "return": "Exits call frame forwarding the return data of the executed call (either error or success data)"
      },
      "forward(bytes)": {
        "details": "IForwarder interface conformance. Forwards any token holder action.",
        "params": {
          "_evmScript": "Script being executed"
        }
      },
      "getInitializationBlock()": {
        "return": "Block number in which the contract was initialized"
      },
      "getRecoveryVault()": {
        "details": "Get the recovery vault for the app",
        "return": "Recovery vault address for the app"
      },
      "hasInitialized()": {
        "return": "Whether the contract has been initialized by the time of the current block"
      },
      "initialize()": {
        "details": "As an AragonApp it needs to be initialized in order for roles (`auth` and `authP`) to work"
      },
      "isForwarder()": {
        "details": "IForwarder interface conformance",
        "return": "Always true"
      },
      "isValidSignature(bytes,bytes)": {
        "details": "Default behavior of `isValidSignature(bytes,bytes)`, can be overloaded for custom validation",
        "params": {
          "_data": "Arbitrary length data signed on the behalf of address(this)",
          "_signature": "Signature byte array associated with _data"
        },
        "return": "A bytes4 magic value 0x20c13b0b if the signature check passes, 0x00000000 if not    * MUST NOT modify state (using STATICCALL for solc < 0.5, view modifier for solc > 0.5) MUST allow external calls"
      },
      "isValidSignature(bytes32,bytes)": {
        "params": {
          "_hash": "Arbitrary length data signed on the behalf of address (this)",
          "_signature": "Signature byte array associated with _data"
        },
        "return": "The ERC-1271 magic value if the signature is valid"
      },
      "presignHash(bytes32)": {
        "params": {
          "_hash": "Hash that will be considered signed regardless of the signature checked with 'isValidSignature()'"
        }
      },
      "removeProtectedToken(address)": {
        "params": {
          "_token": "Address of the token to be unprotected"
        }
      },
      "safeExecute(address,bytes)": {
        "params": {
          "_data": "Calldata for the action",
          "_target": "Address where the action is being executed"
        },
        "return": "Exits call frame forwarding the return data of the executed call (either error or success data)"
      },
      "setDesignatedSigner(address)": {
        "params": {
          "_designatedSigner": "Address that will be able to sign messages on behalf of the app"
        }
      },
      "supportsInterface(bytes4)": {
        "details": "Implements conformance to ERC-165",
        "params": {
          "_interfaceId": "Interface bytes to check"
        },
        "return": "True if this contract supports the interface"
      },
      "transfer(address,address,uint256)": {
        "params": {
          "_to": "Address of the recipient of tokens",
          "_token": "Address of the token being transferred",
          "_value": "Amount of tokens being transferred"
        }
      },
      "transferToVault(address)": {
        "params": {
          "_token": "Token balance to be sent to recovery vault."
        }
      }
    }
  },
  "userdoc": {
    "methods": {
      "addProtectedToken(address)": {
        "notice": "Add `_token.symbol(): string` to the list of protected tokens"
      },
      "canForward(address,bytes)": {
        "notice": "Tells whether `_sender` can forward actions or not"
      },
      "deposit(address,uint256)": {
        "notice": "Deposit `_value` `_token` to the vault"
      },
      "execute(address,uint256,bytes)": {
        "notice": "Execute '`@radspec(_target, _data)`' on `_target``_ethValue == 0 ? '' : ' (Sending ' + @tokenAmount(0x0000000000000000000000000000000000000000, _ethValue) + ')'`"
      },
      "forward(bytes)": {
        "notice": "Execute the script as the Agent app"
      },
      "initialize()": {
        "notice": "Initialize Vault app"
      },
      "isForwarder()": {
        "notice": "Tells whether the Agent app is a forwarder or not"
      },
      "isValidSignature(bytes32,bytes)": {
        "notice": "Tells whether a signature is seen as valid by this contract through ERC-1271"
      },
      "presignHash(bytes32)": {
        "notice": "Pre-sign hash `_hash`"
      },
      "removeProtectedToken(address)": {
        "notice": "Remove `_token.symbol(): string` from the list of protected tokens"
      },
      "safeExecute(address,bytes)": {
        "notice": "Execute '`@radspec(_target, _data)`' on `_target`, ensuring that protected tokens can't be spent"
      },
      "setDesignatedSigner(address)": {
        "notice": "Set `_designatedSigner` as the designated signer of the app, which will be able to sign messages on behalf of the app"
      },
      "supportsInterface(bytes4)": {
        "notice": "Tells whether this contract supports a given ERC-165 interface"
      },
      "transfer(address,address,uint256)": {
        "notice": "Transfer `_value` `_token` from the Vault to `_to`"
      },
      "transferToVault(address)": {
        "notice": "Send funds to recovery Vault. This contract should never receive funds,        but in case it does, this function allows one to recover them."
      }
    }
  }
}