{
  "contractName": "Allocations",
  "abi": [
    {
      "constant": true,
      "inputs": [],
      "name": "EXECUTE_PAYOUT_ROLE",
      "outputs": [
        {
          "name": "",
          "type": "bytes32"
        }
      ],
      "payable": false,
      "stateMutability": "view",
      "type": "function"
    },
    {
      "constant": true,
      "inputs": [],
      "name": "hasInitialized",
      "outputs": [
        {
          "name": "",
          "type": "bool"
        }
      ],
      "payable": false,
      "stateMutability": "view",
      "type": "function"
    },
    {
      "constant": true,
      "inputs": [
        {
          "name": "_script",
          "type": "bytes"
        }
      ],
      "name": "getEVMScriptExecutor",
      "outputs": [
        {
          "name": "",
          "type": "address"
        }
      ],
      "payable": false,
      "stateMutability": "view",
      "type": "function"
    },
    {
      "constant": true,
      "inputs": [],
      "name": "getRecoveryVault",
      "outputs": [
        {
          "name": "",
          "type": "address"
        }
      ],
      "payable": false,
      "stateMutability": "view",
      "type": "function"
    },
    {
      "constant": true,
      "inputs": [],
      "name": "CHANGE_PERIOD_ROLE",
      "outputs": [
        {
          "name": "",
          "type": "bytes32"
        }
      ],
      "payable": false,
      "stateMutability": "view",
      "type": "function"
    },
    {
      "constant": true,
      "inputs": [],
      "name": "CHANGE_BUDGETS_ROLE",
      "outputs": [
        {
          "name": "",
          "type": "bytes32"
        }
      ],
      "payable": false,
      "stateMutability": "view",
      "type": "function"
    },
    {
      "constant": true,
      "inputs": [],
      "name": "SET_MAX_CANDIDATES_ROLE",
      "outputs": [
        {
          "name": "",
          "type": "bytes32"
        }
      ],
      "payable": false,
      "stateMutability": "view",
      "type": "function"
    },
    {
      "constant": true,
      "inputs": [],
      "name": "CREATE_ALLOCATION_ROLE",
      "outputs": [
        {
          "name": "",
          "type": "bytes32"
        }
      ],
      "payable": false,
      "stateMutability": "view",
      "type": "function"
    },
    {
      "constant": true,
      "inputs": [
        {
          "name": "token",
          "type": "address"
        }
      ],
      "name": "allowRecoverability",
      "outputs": [
        {
          "name": "",
          "type": "bool"
        }
      ],
      "payable": false,
      "stateMutability": "view",
      "type": "function"
    },
    {
      "constant": true,
      "inputs": [],
      "name": "appId",
      "outputs": [
        {
          "name": "",
          "type": "bytes32"
        }
      ],
      "payable": false,
      "stateMutability": "view",
      "type": "function"
    },
    {
      "constant": true,
      "inputs": [],
      "name": "getInitializationBlock",
      "outputs": [
        {
          "name": "",
          "type": "uint256"
        }
      ],
      "payable": false,
      "stateMutability": "view",
      "type": "function"
    },
    {
      "constant": true,
      "inputs": [],
      "name": "CREATE_ACCOUNT_ROLE",
      "outputs": [
        {
          "name": "",
          "type": "bytes32"
        }
      ],
      "payable": false,
      "stateMutability": "view",
      "type": "function"
    },
    {
      "constant": false,
      "inputs": [
        {
          "name": "_token",
          "type": "address"
        }
      ],
      "name": "transferToVault",
      "outputs": [],
      "payable": false,
      "stateMutability": "nonpayable",
      "type": "function"
    },
    {
      "constant": true,
      "inputs": [
        {
          "name": "_sender",
          "type": "address"
        },
        {
          "name": "_role",
          "type": "bytes32"
        },
        {
          "name": "_params",
          "type": "uint256[]"
        }
      ],
      "name": "canPerform",
      "outputs": [
        {
          "name": "",
          "type": "bool"
        }
      ],
      "payable": false,
      "stateMutability": "view",
      "type": "function"
    },
    {
      "constant": true,
      "inputs": [],
      "name": "getEVMScriptRegistry",
      "outputs": [
        {
          "name": "",
          "type": "address"
        }
      ],
      "payable": false,
      "stateMutability": "view",
      "type": "function"
    },
    {
      "constant": true,
      "inputs": [],
      "name": "EXECUTE_ALLOCATION_ROLE",
      "outputs": [
        {
          "name": "",
          "type": "bytes32"
        }
      ],
      "payable": false,
      "stateMutability": "view",
      "type": "function"
    },
    {
      "constant": true,
      "inputs": [],
      "name": "kernel",
      "outputs": [
        {
          "name": "",
          "type": "address"
        }
      ],
      "payable": false,
      "stateMutability": "view",
      "type": "function"
    },
    {
      "constant": true,
      "inputs": [],
      "name": "isPetrified",
      "outputs": [
        {
          "name": "",
          "type": "bool"
        }
      ],
      "payable": false,
      "stateMutability": "view",
      "type": "function"
    },
    {
      "constant": true,
      "inputs": [],
      "name": "vault",
      "outputs": [
        {
          "name": "",
          "type": "address"
        }
      ],
      "payable": false,
      "stateMutability": "view",
      "type": "function"
    },
    {
      "anonymous": false,
      "inputs": [
        {
          "indexed": false,
          "name": "accountId",
          "type": "uint64"
        },
        {
          "indexed": false,
          "name": "payoutId",
          "type": "uint64"
        },
        {
          "indexed": false,
          "name": "candidateId",
          "type": "uint256"
        }
      ],
      "name": "PayoutExecuted",
      "type": "event"
    },
    {
      "anonymous": false,
      "inputs": [
        {
          "indexed": false,
          "name": "accountId",
          "type": "uint64"
        }
      ],
      "name": "NewAccount",
      "type": "event"
    },
    {
      "anonymous": false,
      "inputs": [
        {
          "indexed": true,
          "name": "periodId",
          "type": "uint64"
        },
        {
          "indexed": false,
          "name": "periodStarts",
          "type": "uint64"
        },
        {
          "indexed": false,
          "name": "periodEnds",
          "type": "uint64"
        }
      ],
      "name": "NewPeriod",
      "type": "event"
    },
    {
      "anonymous": false,
      "inputs": [
        {
          "indexed": false,
          "name": "accountId",
          "type": "uint64"
        }
      ],
      "name": "FundAccount",
      "type": "event"
    },
    {
      "anonymous": false,
      "inputs": [
        {
          "indexed": false,
          "name": "accountId",
          "type": "uint64"
        },
        {
          "indexed": false,
          "name": "payoutId",
          "type": "uint64"
        }
      ],
      "name": "SetDistribution",
      "type": "event"
    },
    {
      "anonymous": false,
      "inputs": [
        {
          "indexed": false,
          "name": "accountId",
          "type": "uint64"
        },
        {
          "indexed": false,
          "name": "payoutId",
          "type": "uint64"
        },
        {
          "indexed": false,
          "name": "candidateId",
          "type": "uint256"
        }
      ],
      "name": "PaymentFailure",
      "type": "event"
    },
    {
      "anonymous": false,
      "inputs": [
        {
          "indexed": true,
          "name": "accountId",
          "type": "uint256"
        },
        {
          "indexed": false,
          "name": "amount",
          "type": "uint256"
        },
        {
          "indexed": false,
          "name": "name",
          "type": "string"
        },
        {
          "indexed": false,
          "name": "hasBudget",
          "type": "bool"
        }
      ],
      "name": "SetBudget",
      "type": "event"
    },
    {
      "anonymous": false,
      "inputs": [
        {
          "indexed": false,
          "name": "newDuration",
          "type": "uint64"
        }
      ],
      "name": "ChangePeriodDuration",
      "type": "event"
    },
    {
      "anonymous": false,
      "inputs": [
        {
          "indexed": true,
          "name": "executor",
          "type": "address"
        },
        {
          "indexed": false,
          "name": "script",
          "type": "bytes"
        },
        {
          "indexed": false,
          "name": "input",
          "type": "bytes"
        },
        {
          "indexed": false,
          "name": "returnData",
          "type": "bytes"
        }
      ],
      "name": "ScriptResult",
      "type": "event"
    },
    {
      "anonymous": false,
      "inputs": [
        {
          "indexed": true,
          "name": "vault",
          "type": "address"
        },
        {
          "indexed": true,
          "name": "token",
          "type": "address"
        },
        {
          "indexed": false,
          "name": "amount",
          "type": "uint256"
        }
      ],
      "name": "RecoverToVault",
      "type": "event"
    },
    {
      "constant": false,
      "inputs": [
        {
          "name": "_vault",
          "type": "address"
        },
        {
          "name": "_periodDuration",
          "type": "uint64"
        }
      ],
      "name": "initialize",
      "outputs": [],
      "payable": false,
      "stateMutability": "nonpayable",
      "type": "function"
    },
    {
      "constant": true,
      "inputs": [
        {
          "name": "_accountId",
          "type": "uint64"
        }
      ],
      "name": "getAccount",
      "outputs": [
        {
          "name": "metadata",
          "type": "string"
        },
        {
          "name": "token",
          "type": "address"
        },
        {
          "name": "hasBudget",
          "type": "bool"
        },
        {
          "name": "budget",
          "type": "uint256"
        }
      ],
      "payable": false,
      "stateMutability": "view",
      "type": "function"
    },
    {
      "constant": true,
      "inputs": [
        {
          "name": "_accountId",
          "type": "uint64"
        },
        {
          "name": "_payoutId",
          "type": "uint64"
        }
      ],
      "name": "getPayout",
      "outputs": [
        {
          "name": "amount",
          "type": "uint256"
        },
        {
          "name": "recurrences",
          "type": "uint64"
        },
        {
          "name": "startTime",
          "type": "uint256"
        },
        {
          "name": "period",
          "type": "uint256"
        }
      ],
      "payable": false,
      "stateMutability": "view",
      "type": "function"
    },
    {
      "constant": true,
      "inputs": [
        {
          "name": "_accountId",
          "type": "uint64"
        }
      ],
      "name": "getRemainingBudget",
      "outputs": [
        {
          "name": "",
          "type": "uint256"
        }
      ],
      "payable": false,
      "stateMutability": "view",
      "type": "function"
    },
    {
      "constant": true,
      "inputs": [
        {
          "name": "_accountId",
          "type": "uint64"
        },
        {
          "name": "_payoutId",
          "type": "uint64"
        }
      ],
      "name": "getPayoutDescription",
      "outputs": [
        {
          "name": "description",
          "type": "string"
        }
      ],
      "payable": false,
      "stateMutability": "view",
      "type": "function"
    },
    {
      "constant": true,
      "inputs": [
        {
          "name": "_accountId",
          "type": "uint64"
        },
        {
          "name": "_payoutId",
          "type": "uint64"
        }
      ],
      "name": "getNumberOfCandidates",
      "outputs": [
        {
          "name": "numCandidates",
          "type": "uint256"
        }
      ],
      "payable": false,
      "stateMutability": "view",
      "type": "function"
    },
    {
      "constant": true,
      "inputs": [
        {
          "name": "_accountId",
          "type": "uint64"
        },
        {
          "name": "_payoutId",
          "type": "uint64"
        },
        {
          "name": "_idx",
          "type": "uint256"
        }
      ],
      "name": "getPayoutDistributionValue",
      "outputs": [
        {
          "name": "supports",
          "type": "uint256"
        },
        {
          "name": "candidateAddress",
          "type": "address"
        },
        {
          "name": "executions",
          "type": "uint64"
        }
      ],
      "payable": false,
      "stateMutability": "view",
      "type": "function"
    },
    {
      "constant": true,
      "inputs": [],
      "name": "getCurrentPeriodId",
      "outputs": [
        {
          "name": "",
          "type": "uint64"
        }
      ],
      "payable": false,
      "stateMutability": "view",
      "type": "function"
    },
    {
      "constant": true,
      "inputs": [
        {
          "name": "_periodId",
          "type": "uint64"
        }
      ],
      "name": "getPeriod",
      "outputs": [
        {
          "name": "isCurrent",
          "type": "bool"
        },
        {
          "name": "startTime",
          "type": "uint64"
        },
        {
          "name": "endTime",
          "type": "uint64"
        }
      ],
      "payable": false,
      "stateMutability": "view",
      "type": "function"
    },
    {
      "constant": false,
      "inputs": [
        {
          "name": "_metadata",
          "type": "string"
        },
        {
          "name": "_token",
          "type": "address"
        },
        {
          "name": "_hasBudget",
          "type": "bool"
        },
        {
          "name": "_budget",
          "type": "uint256"
        }
      ],
      "name": "newAccount",
      "outputs": [
        {
          "name": "accountId",
          "type": "uint64"
        }
      ],
      "payable": false,
      "stateMutability": "nonpayable",
      "type": "function"
    },
    {
      "constant": false,
      "inputs": [
        {
          "name": "_periodDuration",
          "type": "uint64"
        }
      ],
      "name": "setPeriodDuration",
      "outputs": [],
      "payable": false,
      "stateMutability": "nonpayable",
      "type": "function"
    },
    {
      "constant": false,
      "inputs": [
        {
          "name": "_maxCandidates",
          "type": "uint256"
        }
      ],
      "name": "setMaxCandidates",
      "outputs": [],
      "payable": false,
      "stateMutability": "nonpayable",
      "type": "function"
    },
    {
      "constant": false,
      "inputs": [
        {
          "name": "_accountId",
          "type": "uint64"
        },
        {
          "name": "_amount",
          "type": "uint256"
        },
        {
          "name": "_metadata",
          "type": "string"
        }
      ],
      "name": "setBudget",
      "outputs": [],
      "payable": false,
      "stateMutability": "nonpayable",
      "type": "function"
    },
    {
      "constant": false,
      "inputs": [
        {
          "name": "_accountId",
          "type": "uint64"
        },
        {
          "name": "_metadata",
          "type": "string"
        }
      ],
      "name": "removeBudget",
      "outputs": [],
      "payable": false,
      "stateMutability": "nonpayable",
      "type": "function"
    },
    {
      "constant": false,
      "inputs": [
        {
          "name": "_accountId",
          "type": "uint64"
        },
        {
          "name": "_payoutId",
          "type": "uint64"
        },
        {
          "name": "_candidateId",
          "type": "uint256"
        }
      ],
      "name": "candidateExecutePayout",
      "outputs": [],
      "payable": false,
      "stateMutability": "nonpayable",
      "type": "function"
    },
    {
      "constant": false,
      "inputs": [
        {
          "name": "_accountId",
          "type": "uint64"
        },
        {
          "name": "_payoutId",
          "type": "uint64"
        },
        {
          "name": "_candidateId",
          "type": "uint256"
        }
      ],
      "name": "executePayout",
      "outputs": [],
      "payable": false,
      "stateMutability": "nonpayable",
      "type": "function"
    },
    {
      "constant": false,
      "inputs": [
        {
          "name": "_accountId",
          "type": "uint64"
        },
        {
          "name": "_payoutId",
          "type": "uint64"
        }
      ],
      "name": "runPayout",
      "outputs": [
        {
          "name": "success",
          "type": "bool"
        }
      ],
      "payable": false,
      "stateMutability": "nonpayable",
      "type": "function"
    },
    {
      "constant": false,
      "inputs": [
        {
          "name": "_limit",
          "type": "uint64"
        }
      ],
      "name": "advancePeriod",
      "outputs": [],
      "payable": false,
      "stateMutability": "nonpayable",
      "type": "function"
    },
    {
      "constant": false,
      "inputs": [
        {
          "name": "_candidateAddresses",
          "type": "address[]"
        },
        {
          "name": "_supports",
          "type": "uint256[]"
        },
        {
          "name": "",
          "type": "uint256[]"
        },
        {
          "name": "",
          "type": "string"
        },
        {
          "name": "_description",
          "type": "string"
        },
        {
          "name": "",
          "type": "uint256[]"
        },
        {
          "name": "",
          "type": "uint256[]"
        },
        {
          "name": "_accountId",
          "type": "uint64"
        },
        {
          "name": "_recurrences",
          "type": "uint64"
        },
        {
          "name": "_startTime",
          "type": "uint64"
        },
        {
          "name": "_period",
          "type": "uint64"
        },
        {
          "name": "_amount",
          "type": "uint256"
        }
      ],
      "name": "setDistribution",
      "outputs": [
        {
          "name": "payoutId",
          "type": "uint64"
        }
      ],
      "payable": false,
      "stateMutability": "nonpayable",
      "type": "function"
    }
  ],
  "bytecode": "0x6080604052620000176401000000006200001d810204565b6200023b565b6200003064010000000062000125810204565b60408051808201909152601881527f494e49545f414c52454144595f494e495449414c495a45440000000000000000602082015290156200010c576040517f08c379a00000000000000000000000000000000000000000000000000000000081526004018080602001828103825283818151815260200191508051906020019080838360005b83811015620000d0578181015183820152602001620000b6565b50505050905090810190601f168015620000fe5780820380516001836020036101000a031916815260200191505b509250505060405180910390fd5b506200012360001964010000000062000154810204565b565b60006200014f60008051602062004cfd83398151915264010000000062003a196200023382021704565b905090565b6200016764010000000062000125810204565b60408051808201909152601881527f494e49545f414c52454144595f494e495449414c495a454400000000000000006020820152901562000206576040517f08c379a000000000000000000000000000000000000000000000000000000000815260040180806020018281038252838181518152602001915080519060200190808383600083811015620000d0578181015183820152602001620000b6565b506200023060008051602062004cfd8339815191528264010000000062003e016200023782021704565b50565b5490565b9055565b614ab2806200024b6000396000f3006080604052600436106101be5763ffffffff60e060020a6000350416630648bb4781146101c35780630803fac0146101ea5780630c54c3f5146102135780630e50c818146102af5780631798de81146103015780632914b9bd1461033057806332f0a3b5146103a5578063396b6247146103ba57806348c8f882146103cf5780634ff3cb14146104005780635985feec1461042a5780635b14dbc81461043f57806360d63a0f1461045457806367047c4a14610469578063671273f4146104b457806371c2c2a4146104d557806377ae211a146104ea5780637e7db6e1146105ae57806380afdea8146105cf5780638b3dd749146105e45780639b79219a146105f95780639d4941d81461060e5780639d90f5f91461062f578063a1658fad14610684578063a479e508146106eb578063a6b75ddc14610700578063ac67d8511461072d578063ae53f7e414610742578063cb623d211461079b578063d137222a1461097a578063d26c6f381461099b578063d46e5a28146109c5578063d4aae0c4146109e6578063d92ec73b146109fb578063ddc0dc4e14610a22578063de4796ed14610a3a578063fbfa77cf14610a4f578063fc8ed9c814610a64575b600080fd5b3480156101cf57600080fd5b506101d8610a8b565b60408051918252519081900360200190f35b3480156101f657600080fd5b506101ff610a9d565b604080519115158252519081900360200190f35b34801561021f57600080fd5b5061023a6001604060020a0360043581169060243516610ac7565b6040805160208082528351818301528351919283929083019185019080838360005b8381101561027457818101518382015260200161025c565b50505050905090810190601f1680156102a15780820380516001836020036101000a031916815260200191505b509250505060405180910390f35b3480156102bb57600080fd5b506102e56024600480358281019291013590600160a060020a039035166044351515606435610ce1565b604080516001604060020a039092168252519081900360200190f35b34801561030d57600080fd5b5061032e600160a060020a03600435166001604060020a0360243516610e54565b005b34801561033c57600080fd5b506040805160206004803580820135601f8101849004840285018401909552848452610389943694929360249392840191908190840183828082843750949750610fd89650505050505050565b60408051600160a060020a039092168252519081900360200190f35b3480156103b157600080fd5b506103896110be565b3480156103c657600080fd5b506102e5611137565b3480156103db57600080fd5b5061032e600480356001604060020a03169060248035916044359182019101356111c3565b34801561040c57600080fd5b5061032e6001604060020a036004358116906024351660443561147b565b34801561043657600080fd5b506101d86116d9565b34801561044b57600080fd5b506101d86116eb565b34801561046057600080fd5b506101d86116fd565b34801561047557600080fd5b5061048a6001604060020a036004351661170f565b6040805193151584526001604060020a039283166020850152911682820152519081900360600190f35b3480156104c057600080fd5b5061032e6001604060020a036004351661186d565b3480156104e157600080fd5b506101d8611a73565b3480156104f657600080fd5b5061050b6001604060020a0360043516611a85565b604051808060200185600160a060020a0316600160a060020a0316815260200184151515158152602001838152602001828103825286818151815260200191508051906020019080838360005b83811015610570578181015183820152602001610558565b50505050905090810190601f16801561059d5780820380516001836020036101000a031916815260200191505b509550505050505060405180910390f35b3480156105ba57600080fd5b506101ff600160a060020a0360043516611c70565b3480156105db57600080fd5b506101d8611c76565b3480156105f057600080fd5b506101d8611ca1565b34801561060557600080fd5b506101d8611cba565b34801561061a57600080fd5b5061032e600160a060020a0360043516611ccc565b34801561063b57600080fd5b506106566001604060020a0360043581169060243516611f53565b604080519485526001604060020a039093166020850152838301919091526060830152519081900360800190f35b34801561069057600080fd5b5060408051602060046044358181013583810280860185019096528085526101ff958335600160a060020a03169560248035963696956064959394920192918291850190849080828437509497506120ce9650505050505050565b3480156106f757600080fd5b5061038961221e565b34801561070c57600080fd5b5061032e600480356001604060020a031690602480359081019101356122bd565b34801561073957600080fd5b506101d861252a565b34801561074e57600080fd5b5061076c6001604060020a036004358116906024351660443561253c565b60408051938452600160a060020a0390921660208401526001604060020a031682820152519081900360600190f35b3480156107a757600080fd5b50604080516020600480358082013583810280860185019096528085526102e595369593946024949385019291829185019084908082843750506040805187358901803560208181028481018201909552818452989b9a998901989297509082019550935083925085019084908082843750506040805187358901803560208181028481018201909552818452989b9a99890198929750908201955093508392508501908490808284375050604080516020601f89358b018035918201839004830284018301909452808352979a99988101979196509182019450925082915084018382808284375050604080516020601f89358b018035918201839004830284018301909452808352979a999881019791965091820194509250829150840183828082843750506040805187358901803560208181028481018201909552818452989b9a998901989297509082019550935083925085019084908082843750506040805187358901803560208181028481018201909552818452989b9a998901989297509082019550935083925085019084908082843750949750506001604060020a038535811696506020860135811695604081013582169550606081013590911693506080013591506127959050565b34801561098657600080fd5b506101d86001604060020a0360043516612c75565b3480156109a757600080fd5b5061032e6001604060020a0360043581169060243516604435612d10565b3480156109d157600080fd5b5061032e6001604060020a036004351661301d565b3480156109f257600080fd5b506103896130a3565b348015610a0757600080fd5b506101ff6001604060020a03600435811690602435166130ce565b348015610a2e57600080fd5b5061032e60043561332a565b348015610a4657600080fd5b506101ff6133d3565b348015610a5b57600080fd5b506103896133e6565b348015610a7057600080fd5b506101d86001604060020a03600435811690602435166133f5565b6000805160206148c783398151915281565b600080610aa8611ca1565b90508015801590610ac0575080610abd613547565b10155b91505b5090565b6001604060020a0380831660009081526003602090815260408083205481518083019092526009825260ba60020a681393d7d4105653d5550292820192909252606093869286929190811690831610610ba15760405160e560020a62461bcd0281526004018080602001828103825283818151815260200191508051906020019080838360005b83811015610b66578181015183820152602001610b4e565b50505050905090810190601f168015610b935780820380516001836020036101000a031916815260200191505b509250505060405180910390fd5b50610baa610a9d565b6040805180820190915260148152600080516020614a678339815191526020820152901515610c1e5760405160e560020a62461bcd02815260040180806020018281038252838181518152602001915080519060200190808383600083811015610b66578181015183820152602001610b4e565b506001604060020a038681166000908152600360209081526040808320938916835260019384018252918290206005810180548451600296821615610100026000190190911695909504601f81018490048402860184019094528385529096509190830182828015610cd15780601f10610ca657610100808354040283529160200191610cd1565b820191906000526020600020905b815481529060010190602001808311610cb457829003601f168201915b5050505050935050505092915050565b6040805160008082526020820190925281906000805160206149a783398151915290610d139033908390855b506120ce565b60408051808201909152600f81526000805160206148a78339815191526020820152901515610d875760405160e560020a62461bcd02815260040180806020018281038252838181518152602001915080519060200190808383600083811015610b66578181015183820152602001610b4e565b506000805467ffffffffffffffff19811660016001604060020a03928316908101909216178255808252600360205260409091209093509150610dce6002830189896146ac565b50815460038301859055604060020a60ff021916604060020a8615150217604860020a60e860020a031916604860020a600160a060020a03881602178255604080516001604060020a038516815290517f428000a50296105f0623e1b67d74084ecb653498572d7381b863345b8664bb65916020908290030190a1505095945050505050565b610e5c611ca1565b604080518082019091526018815260008051602061492783398151915260208201529015610ecf5760405160e560020a62461bcd02815260040180806020018281038252838181518152602001915080519060200190808383600083811015610b66578181015183820152602001610b4e565b5060028054600160a060020a031916600160a060020a03841617905560408051808201909152601481526000805160206149e78339815191526020820152620151806001604060020a0383161015610f6c5760405160e560020a62461bcd02815260040180806020018281038252838181518152602001915080519060200190808383600083811015610b66578181015183820152602001610b4e565b5060008054608060020a60c060020a031916608060020a6001604060020a03841602179055610fa1610f9c61354b565b61355d565b506000805467ffffffffffffffff19811660016001604060020a0392831681019092161790915560329055610fd461364d565b5050565b6000610fe261221e565b600160a060020a03166304bf2a7f836040518263ffffffff1660e060020a0281526004018080602001828103825283818151815260200191508051906020019080838360005b83811015611040578181015183820152602001611028565b50505050905090810190601f16801561106d5780820380516001836020036101000a031916815260200191505b5092505050602060405180830381600087803b15801561108c57600080fd5b505af11580156110a0573d6000803e3d6000fd5b505050506040513d60208110156110b657600080fd5b505192915050565b60006110c86130a3565b600160a060020a03166332f0a3b56040518163ffffffff1660e060020a028152600401602060405180830381600087803b15801561110557600080fd5b505af1158015611119573d6000803e3d6000fd5b505050506040513d602081101561112f57600080fd5b505190505b90565b6000611141610a9d565b6040805180820190915260148152600080516020614a6783398151915260208201529015156111b55760405160e560020a62461bcd02815260040180806020018281038252838181518152602001915080519060200190808383600083811015610b66578181015183820152602001610b4e565b506111be6136f1565b905090565b60408051600080825260208201909252600080516020614a47833981519152916111f1913391849190610d0d565b60408051808201909152600f81526000805160206148a783398151915260208201529015156112655760405160e560020a62461bcd02815260040180806020018281038252838181518152602001915080519060200190808383600083811015610b66578181015183820152602001610b4e565b5061127661127161370b565b613711565b604080518082019091526013815260008051602061494783398151915260208201529015156112ea5760405160e560020a62461bcd02815260040180806020018281038252838181518152602001915080519060200190808383600083811015610b66578181015183820152602001610b4e565b5060005460408051808201909152600a815260b260020a691393d7d050d0d3d5539502602082015286916001604060020a03908116908316106113725760405160e560020a62461bcd02815260040180806020018281038252838181518152602001915080519060200190808383600083811015610b66578181015183820152602001610b4e565b506001604060020a03861660009081526003602081905260408220018690558311156113c0576001604060020a03861660009081526003602052604090206113be9060020185856146ac565b505b6001604060020a038616600090815260036020526040902054604060020a900460ff161515611416576001604060020a03861660009081526003602052604090208054604060020a60ff021916604060020a1790555b856001604060020a0316600080516020614a2783398151915286868660016040518085815260200180602001831515151581526020018281038252858582818152602001925080828437604051920182900397509095505050505050a2505050505050565b61148661127161370b565b604080518082019091526013815260008051602061494783398151915260208201529015156114fa5760405160e560020a62461bcd02815260040180806020018281038252838181518152602001915080519060200190808383600083811015610b66578181015183820152602001610b4e565b50604080516000808252602082019092526000805160206148c783398151915291611529913391849190610d0d565b60408051808201909152600f81526000805160206148a7833981519152602082015290151561159d5760405160e560020a62461bcd02815260040180806020018281038252838181518152602001915080519060200190808383600083811015610b66578181015183820152602001610b4e565b5060005460408051808201909152600a815260b260020a691393d7d050d0d3d5539502602082015285916001604060020a03908116908316106116255760405160e560020a62461bcd02815260040180806020018281038252838181518152602001915080519060200190808383600083811015610b66578181015183820152602001610b4e565b506001604060020a038086166000908152600360209081526040918290205482518084019093526009835260ba60020a681393d7d4105653d555029183019190915287928792918116908316106116c15760405160e560020a62461bcd02815260040180806020018281038252838181518152602001915080519060200190808383600083811015610b66578181015183820152602001610b4e565b506116cf87878760006137ca565b5050505050505050565b600080516020614a0783398151915281565b600080516020614a4783398151915281565b60008051602061496783398151915281565b60008060008061171d610a9d565b6040805180820190915260148152600080516020614a6783398151915260208201529015156117915760405160e560020a62461bcd02815260040180806020018281038252838181518152602001915080519060200190808383600083811015610b66578181015183820152602001610b4e565b50600054604080518082019091526009815260ba60020a681393d7d411549253d102602082015286916001604060020a03604060020a90910481169083161061181f5760405160e560020a62461bcd02815260040180806020018281038252838181518152602001915080519060200190808383600083811015610b66578181015183820152602001610b4e565b506001604060020a038616600081815260046020526040902092506118426136f1565b92546001604060020a0393841691909114978184169750604060020a90910490921694509092505050565b60408051600080825260208201909252600080516020614a078339815191529161189b913391849190610d0d565b60408051808201909152600f81526000805160206148a7833981519152602082015290151561190f5760405160e560020a62461bcd02815260040180806020018281038252838181518152602001915080519060200190808383600083811015610b66578181015183820152602001610b4e565b5061191b61127161370b565b6040805180820190915260138152600080516020614947833981519152602082015290151561198f5760405160e560020a62461bcd02815260040180806020018281038252838181518152602001915080519060200190808383600083811015610b66578181015183820152602001610b4e565b5060408051808201909152601481526000805160206149e78339815191526020820152620151806001604060020a0384161015611a115760405160e560020a62461bcd02815260040180806020018281038252838181518152602001915080519060200190808383600083811015610b66578181015183820152602001610b4e565b50600080546001604060020a038416608060020a8102608060020a60c060020a03199092169190911790915560408051918252517fa32389dd0d5a3bf7cc635f8c30fee3b70d06a6c547d6dbf31628378ee267bfc99181900360200190a15050565b60008051602061498783398151915281565b6000805460408051808201909152600a815260b260020a691393d7d050d0d3d553950260208201526060929182918291829187916001604060020a0390811690831610611b175760405160e560020a62461bcd02815260040180806020018281038252838181518152602001915080519060200190808383600083811015610b66578181015183820152602001610b4e565b50611b20610a9d565b6040805180820190915260148152600080516020614a678339815191526020820152901515611b945760405160e560020a62461bcd02815260040180806020018281038252838181518152602001915080519060200190808383600083811015610b66578181015183820152602001610b4e565b506001604060020a0387166000908152600360209081526040918290206002808201805485516001821615610100026000190190911692909204601f8101859004850283018501909552848252919550929091830182828015611c385780601f10611c0d57610100808354040283529160200191611c38565b820191906000526020600020905b815481529060010190602001808311611c1b57829003601f168201915b50508554600390960154939b604860020a8704600160a060020a03169b50604060020a90960460ff1699509297509395505050505050565b50600190565b60006111be7fd625496217aa6a3453eecb9c3489dc5a53e6c67b444329ea2b2cbc9ff547639b613a19565b60006111be6000805160206148e7833981519152613a19565b6000805160206149a783398151915281565b6000806000611cda84611c70565b6040805180820190915260128152607260020a71149150d3d5915497d11254d0531313d5d151026020820152901515611d585760405160e560020a62461bcd02815260040180806020018281038252838181518152602001915080519060200190808383600083811015610b66578181015183820152602001610b4e565b50611d616110be565b9250611d6c83613a21565b60408051808201909152601a81527f5245434f5645525f5641554c545f4e4f545f434f4e54524143540000000000006020820152901515611df25760405160e560020a62461bcd02815260040180806020018281038252838181518152602001915080519060200190808383600083811015610b66578181015183820152602001610b4e565b50600160a060020a0384161515611e435760405130319250600160a060020a0384169083156108fc029084906000818181858888f19350505050158015611e3d573d6000803e3d6000fd5b50611f02565b5082611e5e600160a060020a0382163063ffffffff613a4716565b9150611e7a600160a060020a038216848463ffffffff613b3116565b60408051808201909152601d81527f5245434f5645525f544f4b454e5f5452414e534645525f4641494c45440000006020820152901515611f005760405160e560020a62461bcd02815260040180806020018281038252838181518152602001915080519060200190808383600083811015610b66578181015183820152602001610b4e565b505b83600160a060020a031683600160a060020a03167f596caf56044b55fb8c4ca640089bbc2b63cae3e978b851f5745cbb7c5b288e02846040518082815260200191505060405180910390a350505050565b6001604060020a0380831660009081526003602090815260408083205481518083019092526009825260ba60020a681393d7d4105653d5550292820192909252919283928392839283928992899290811690831610611ff75760405160e560020a62461bcd02815260040180806020018281038252838181518152602001915080519060200190808383600083811015610b66578181015183820152602001610b4e565b50612000610a9d565b6040805180820190915260148152600080516020614a6783398151915260208201529015156120745760405160e560020a62461bcd02815260040180806020018281038252838181518152602001915080519060200190808383600083811015610b66578181015183820152602001610b4e565b5050506001604060020a039687166000908152600360209081526040808320988a1683526001909801905295909520600481015490549097604060020a82048816978281169750608060020a909204909116945092505050565b6000806120d9610a9d565b15156120e85760009150612216565b6120f06130a3565b9050600160a060020a038116151561210b5760009150612216565b80600160a060020a031663fdef910686308761212688613b91565b60405160e060020a63ffffffff8716028152600160a060020a03808616600483019081529085166024830152604482018490526080606483019081528351608484015283519192909160a490910190602085019080838360005b83811015612198578181015183820152602001612180565b50505050905090810190601f1680156121c55780820380516001836020036101000a031916815260200191505b5095505050505050602060405180830381600087803b1580156121e757600080fd5b505af11580156121fb573d6000803e3d6000fd5b505050506040513d602081101561221157600080fd5b505191505b509392505050565b6000806122296130a3565b6040805160e360020a6317c0177b0281527fd6f028ca0e8edb4a8c9757ca4fdccab25fa1e0317da1188108f7d2dee14902fb60048201527fddbcfd564f642ab5627cf68b9b7d374fb4f8a36e941a75d89c87998cef03bd6160248201529051600160a060020a03929092169163be00bbd8916044808201926020929091908290030181600087803b15801561108c57600080fd5b60408051600080825260208201909252600080516020614a47833981519152916122eb913391849190610d0d565b60408051808201909152600f81526000805160206148a7833981519152602082015290151561235f5760405160e560020a62461bcd02815260040180806020018281038252838181518152602001915080519060200190808383600083811015610b66578181015183820152602001610b4e565b5061236b61127161370b565b604080518082019091526013815260008051602061494783398151915260208201529015156123df5760405160e560020a62461bcd02815260040180806020018281038252838181518152602001915080519060200190808383600083811015610b66578181015183820152602001610b4e565b5060005460408051808201909152600a815260b260020a691393d7d050d0d3d5539502602082015285916001604060020a03908116908316106124675760405160e560020a62461bcd02815260040180806020018281038252838181518152602001915080519060200190808383600083811015610b66578181015183820152602001610b4e565b506001604060020a038516600090815260036020819052604082209081018290558054604060020a60ff02191690558311156124c5576001604060020a03851660009081526003602052604090206124c39060020185856146ac565b505b846001604060020a0316600080516020614a278339815191526000868660006040518085815260200180602001831515151581526020018281038252858582818152602001925080828437604051920182900397509095505050505050a25050505050565b6000805160206149c783398151915281565b60008060008061254a610a9d565b6040805180820190915260148152600080516020614a6783398151915260208201529015156125be5760405160e560020a62461bcd02815260040180806020018281038252838181518152602001915080519060200190808383600083811015610b66578181015183820152602001610b4e565b506001604060020a038088166000908152600360209081526040918290205482518084019093526009835260ba60020a681393d7d4105653d5550291830191909152899289929181169083161061265a5760405160e560020a62461bcd02815260040180806020018281038252838181518152602001915080519060200190808383600083811015610b66578181015183820152602001610b4e565b506001604060020a03808a166000908152600360209081526040808320938c168352600190930181529082902060028101548351808501909452600c845260a060020a6b4e4f5f43414e4449444154450292840192909252945088106127055760405160e560020a62461bcd02815260040180806020018281038252838181518152602001915080519060200190808383600083811015610b66578181015183820152602001610b4e565b506002830180548890811061271657fe5b90600052602060002001549550826001018781548110151561273457fe5b600091825260209091200154600384018054600160a060020a039092169650908890811061275e57fe5b90600052602060002090600491828204019190066008029054906101000a90046001604060020a0316935050505093509350939050565b6040805160008082526020820190925281908190600080516020614987833981519152906127c7903390839085610d0d565b60408051808201909152600f81526000805160206148a7833981519152602082015290151561283b5760405160e560020a62461bcd02815260040180806020018281038252838181518152602001915080519060200190808383600083811015610b66578181015183820152602001610b4e565b5061284761127161370b565b604080518082019091526013815260008051602061494783398151915260208201529015156128bb5760405160e560020a62461bcd02815260040180806020018281038252838181518152602001915080519060200190808383600083811015610b66578181015183820152602001610b4e565b508f5160015410156128cc57600080fd5b6001604060020a0389811660009081526003602090815260408083206002548154835160e060020a63e3d670d7028152600160a060020a03604860020a909204821660048201529351929950958e168b0295169363e3d670d793602480850194919392918390030190829087803b15801561294657600080fd5b505af115801561295a573d6000803e3d6000fd5b505050506040513d602081101561297057600080fd5b5051101561297d57600080fd5b6040805180820190915260158152605860020a74524543555252454e4345535f42454c4f575f4f4e4502602082015260006001604060020a038a1611612a085760405160e560020a62461bcd02815260040180806020018281038252838181518152602001915080519060200190808383600083811015610b66578181015183820152602001610b4e565b5082600101600084600001600081819054906101000a90046001604060020a03168092919060010191906101000a8154816001604060020a0302191690836001604060020a031602179055506001604060020a03166001604060020a031681526020019081526020016000209150848260040181905550878260000160086101000a8154816001604060020a0302191690836001604060020a031602179055508f826001019080519060200190612ac0929190614726565b506001886001604060020a03161115612b7a578154608060020a60c060020a031916608060020a6001604060020a0388811682029290921780855560408051808201909152601481526000805160206149e78339815191526020820152926201518092909104161015612b785760405160e560020a62461bcd02815260040180806020018281038252838181518152602001915080519060200190808383600083811015610b66578181015183820152602001610b4e565b505b868260000160006101000a8154816001604060020a0302191690836001604060020a031602179055508e826002019080519060200190612bbb929190614787565b508b51612bd190600584019060208f01906147c2565b508e51612be1600384018261482f565b508254604080516001604060020a038c8116825292831660001901928316602082015281519296507ff17f20ed808fc329cc1f5ed380e822e11abafe342d2a0d81805f372c76b9488c929081900390910190a1612c3c61354b565b6001604060020a0316876001604060020a0316111515612c6257612c608985613b9b565b505b5050509c9b505050505050505050505050565b6000805460408051808201909152600a815260b260020a691393d7d050d0d3d5539502602082015283916001604060020a0390811690831610612cfd5760405160e560020a62461bcd02815260040180806020018281038252838181518152602001915080519060200190808383600083811015610b66578181015183820152602001610b4e565b50612d0783613cbb565b91505b50919050565b612d1b61127161370b565b60408051808201909152601381526000805160206149478339815191526020820152901515612d8f5760405160e560020a62461bcd02815260040180806020018281038252838181518152602001915080519060200190808383600083811015610b66578181015183820152602001610b4e565b50612d98610a9d565b6040805180820190915260148152600080516020614a678339815191526020820152901515612e0c5760405160e560020a62461bcd02815260040180806020018281038252838181518152602001915080519060200190808383600083811015610b66578181015183820152602001610b4e565b5060005460408051808201909152600a815260b260020a691393d7d050d0d3d5539502602082015284916001604060020a0390811690831610612e945760405160e560020a62461bcd02815260040180806020018281038252838181518152602001915080519060200190808383600083811015610b66578181015183820152602001610b4e565b506001604060020a038085166000908152600360209081526040918290205482518084019093526009835260ba60020a681393d7d4105653d55502918301919091528692869291811690831610612f305760405160e560020a62461bcd02815260040180806020018281038252838181518152602001915080519060200190808383600083811015610b66578181015183820152602001610b4e565b506001604060020a03808716600090815260036020908152604080832093891683526001938401909152902001805485908110612f6957fe5b6000918252602091829020015460408051808201909152601681527f43414e4449444154455f4e4f545f52454345495645520000000000000000000092810192909252600160a060020a031633146130065760405160e560020a62461bcd02815260040180806020018281038252838181518152602001915080519060200190808383600083811015610b66578181015183820152602001610b4e565b5061301486868660006137ca565b50505050505050565b613025610a9d565b6040805180820190915260148152600080516020614a6783398151915260208201529015156130995760405160e560020a62461bcd02815260040180806020018281038252838181518152602001915080519060200190808383600083811015610b66578181015183820152602001610b4e565b50610fd481613711565b60006111be7f4172f0f7d2289153072b0a6ca36959e0cbe2efc3afe50fc81636caa96338137b613a19565b604080516000808252602082019092526000805160206149c7833981519152906130fc903390839085610d0d565b60408051808201909152600f81526000805160206148a783398151915260208201529015156131705760405160e560020a62461bcd02815260040180806020018281038252838181518152602001915080519060200190808383600083811015610b66578181015183820152602001610b4e565b5061317c61127161370b565b604080518082019091526013815260008051602061494783398151915260208201529015156131f05760405160e560020a62461bcd02815260040180806020018281038252838181518152602001915080519060200190808383600083811015610b66578181015183820152602001610b4e565b5060005460408051808201909152600a815260b260020a691393d7d050d0d3d5539502602082015285916001604060020a03908116908316106132785760405160e560020a62461bcd02815260040180806020018281038252838181518152602001915080519060200190808383600083811015610b66578181015183820152602001610b4e565b506001604060020a038086166000908152600360209081526040918290205482518084019093526009835260ba60020a681393d7d4105653d555029183019190915287928792918116908316106133145760405160e560020a62461bcd02815260040180806020018281038252838181518152602001915080519060200190808383600083811015610b66578181015183820152602001610b4e565b5061331f8787613b9b565b979650505050505050565b6040805160008082526020820190925260008051602061496783398151915291613358913391849190610d0d565b60408051808201909152600f81526000805160206148a783398151915260208201529015156133cc5760405160e560020a62461bcd02815260040180806020018281038252838181518152602001915080519060200190808383600083811015610b66578181015183820152602001610b4e565b5050600155565b60006000196133e0611ca1565b14905090565b600254600160a060020a031681565b600080613400610a9d565b6040805180820190915260148152600080516020614a6783398151915260208201529015156134745760405160e560020a62461bcd02815260040180806020018281038252838181518152602001915080519060200190808383600083811015610b66578181015183820152602001610b4e565b506001604060020a038085166000908152600360209081526040918290205482518084019093526009835260ba60020a681393d7d4105653d555029183019190915286928692918116908316106135105760405160e560020a62461bcd02815260040180806020018281038252838181518152602001915080519060200190808383600083811015610b66578181015183820152602001610b4e565b5050506001604060020a03938416600090815260036020908152604080832095909616825260019094019093525050206002015490565b4390565b60006111be613558613d6a565b613d6e565b60008054604060020a608060020a03198116604060020a918290046001604060020a03908116600181018216909302919091178355818352600460205260408320805467ffffffffffffffff1916858316908117825584549192608060020a909204821686016000190191821610156135d557506000195b8154604060020a608060020a031916604060020a6001604060020a0383811682029290921780855560408051828516815292909104831660208301528051928616927fe183df4530c4b573af76d47f020d4b86e418cef40ed4c9ce924b563e791b832c9281900390910190a28193505b505050919050565b613655611ca1565b6040805180820190915260188152600080516020614927833981519152602082015290156136c85760405160e560020a62461bcd02815260040180806020018281038252838181518152602001915080519060200190808383600083811015610b66578181015183820152602001610b4e565b506136ef6136d4613547565b6000805160206148e78339815191529063ffffffff613e0116565b565b600054604060020a90046001604060020a03166000190190565b60001990565b600080600080600460006137236136f1565b6001604060020a03166001604060020a03168152602001908152602001600020925084915061375061354b565b90505b82546001604060020a03604060020a909104811690821611156137bf576001604060020a03821615156137895760009350613645565b8254600019909201916137b890610f9c906001604060020a03604060020a90910416600163ffffffff613e0516565b9250613753565b506001949350505050565b6000805460408051808201909152600a815260b260020a691393d7d050d0d3d55395026020820152829182918291829182918b91906001604060020a039081169083161061385d5760405160e560020a62461bcd02815260040180806020018281038252838181518152602001915080519060200190808383600083811015610b66578181015183820152602001610b4e565b506001604060020a03808c166000908152600360209081526040808320938e1683526001840182529182902060028101548351808501909452600c845260a060020a6b4e4f5f43414e4449444154450292840192909252929850919650908a1061390c5760405160e560020a62461bcd02815260040180806020018281038252838181518152602001915080519060200190808383600083811015610b66578181015183820152602001610b4e565b5087935061391985613ea4565b925061395d836139518760040154886002018d81548110151561393857fe5b9060005260206000200154613edd90919063ffffffff16565b9063ffffffff613f7f16565b915081151561396b57613a0b565b61397361354b565b6001604060020a03166139878c8c8c614012565b6001604060020a03161115801561399e5750601484105b15613a07576139ad8b8361411c565b15156139f057604080516001604060020a03808e1682528c1660208201528082018b905290516000805160206149078339815191529181900360600190a1613a07565b600184019350613a028b8b8b866141e8565b61396b565b8396505b505050505050949350505050565b5490565b5490565b600080600160a060020a0383161515613a3d5760009150612d0a565b50506000903b1190565b60408051600160a060020a038316602480830191909152825180830390910181526044909101909152602081018051600160e060020a031660e060020a6370a08231021790526000908180613a9c8684614512565b60408051808201909152601c81527f534146455f4552435f32305f42414c414e43455f52455645525445440000000060208201529193509150821515613b275760405160e560020a62461bcd02815260040180806020018281038252838181518152602001915080519060200190808383600083811015610b66578181015183820152602001610b4e565b5095945050505050565b60408051600160a060020a03841660248201526044808201849052825180830390910181526064909101909152602081018051600160e060020a031660e060020a63a9059cbb02179052600090613b888582614543565b95945050505050565b8051602002815290565b6001604060020a03808316600090815260036020908152604080832093851683526001808501909252822090810154919291600290910190839081905b80836001604060020a03161015613cad5783836001604060020a0316815481101515613c0057fe5b9060005260206000200154600014158015613c475750613c1e61354b565b6001604060020a0316613c3b8989866001604060020a0316614012565b6001604060020a031611155b15613c6857613c618888856001604060020a0316856137ca565b9150613ca2565b604080516001604060020a03808b168252808a16602083015285168183015290516000805160206149078339815191529181900360600190a15b600190920191613bd8565b506001979650505050505050565b6001604060020a0381166000908152600360205260408120805482908190604060020a900460ff161515613cf3576000199350613645565b8260030154915060046000613d066136f1565b6001604060020a039081168252602080830193909352604091820160009081209189168152600190910183528181208654604860020a9004600160a060020a031682529092529020549050818110613d615760009350613645565b90039392505050565b4290565b6040805180820190915260158152605860020a7455494e5436345f4e554d4245525f544f4f5f4249470260208201526000906001604060020a03831115613dfa5760405160e560020a62461bcd02815260040180806020018281038252838181518152602001915080519060200190808383600083811015610b66578181015183820152602001610b4e565b5090919050565b9055565b6040805180820190915260138152606860020a724d41544836345f4144445f4f564552464c4f57026020820152600090838301906001604060020a038086169083161015613e985760405160e560020a62461bcd02815260040180806020018281038252838181518152602001915080519060200190808383600083811015610b66578181015183820152602001610b4e565b508091505b5092915050565b6000805b6002830154811015612d0a5760028301805482908110613ec457fe5b6000918252602090912001549190910190600101613ea8565b600080831515613ef05760009150613e9d565b50828202828482811515613f0057fe5b6040805180820190915260118152607860020a704d4154485f4d554c5f4f564552464c4f570260208201529291900414613e985760405160e560020a62461bcd02815260040180806020018281038252838181518152602001915080519060200190808383600083811015610b66578181015183820152602001610b4e565b60408051808201909152600d8152609860020a6c4d4154485f4449565f5a45524f0260208201526000908190818411613ffd5760405160e560020a62461bcd02815260040180806020018281038252838181518152602001915080519060200190808383600083811015610b66578181015183820152602001610b4e565b50828481151561400957fe5b04949350505050565b6001604060020a03808416600090815260036020818152604080842087861685526001810190925283208054928101805494959294919386938493604060020a9092041691908890811061406257fe5b6000918252602090912060048204015460039091166008026101000a90046001604060020a031610614098576000199450614111565b82546003840180546140ed92608060020a90046001604060020a03169190899081106140c057fe5b6000918252602090912060048204015460039091166008026101000a90046001604060020a031690614591565b835490925061410b906001604060020a03168363ffffffff613e0516565b90508094505b505050509392505050565b6001604060020a03821660009081526003602052604081208261413e85613cbb565b101580156141d4575060025481546040805160e060020a63e3d670d7028152604860020a909204600160a060020a03908116600484015290518693919091169163e3d670d79160248083019260209291908290030181600087803b1580156141a557600080fd5b505af11580156141b9573d6000803e3d6000fd5b505050506040513d60208110156141cf57600080fd5b505110155b80156141e05750600083115b949350505050565b6001604060020a038085166000908152600360209081526040808320938716835260018401909152812060048101546002820180549293928392839261423a9289926139519290918c90811061393857fe5b9250614246898461411c565b6040805180820190915260128152607060020a71494e53554646494349454e545f46554e44530260208201529015156142c45760405160e560020a62461bcd02815260040180806020018281038252838181518152602001915080519060200190808383600083811015610b66578181015183820152602001610b4e565b508454604860020a9004600160a060020a03169150600460006142e56136f1565b6001604060020a03908116825260208083019390935260409182016000908120918d16815260019091018352818120600160a060020a03861682529092529020549050614338818463ffffffff61462716565b600460006143446136f1565b6001604060020a03908116825260208083019390935260409182016000908120918e16815260019182018452828120600160a060020a03881682529093529120919091556003850180546143cb9291908a90811061439e57fe5b6000918252602090912060048204015460039091166008026101000a90046001604060020a031690613e05565b600385018054899081106143db57fe5b90600052602060002090600491828204019190066008026101000a8154816001604060020a0302191690836001604060020a03160217905550600260009054906101000a9004600160a060020a0316600160a060020a031663beabacc883866001018a81548110151561444a57fe5b60009182526020822001546040805160e060020a63ffffffff8716028152600160a060020a039485166004820152939091166024840152604483018890525160648084019382900301818387803b1580156144a457600080fd5b505af11580156144b8573d6000803e3d6000fd5b5050604080516001604060020a03808e1682528c1660208201528082018b905290517f546f5e8f7b905d3ca246e6303079a044a738ad26328593c11c1852b251988e649350908190036060019150a1505050505050505050565b6000806000806040516020818751602089018a5afa9250600083111561453757805191505b50909590945092505050565b6000806040516020818551602087016000895af16000811115614587573d8015614574576020811461457d57614585565b60019350614585565b600183511493505b505b5090949350505050565b6040805180820190915260138152606860020a724d41544836345f4d554c5f4f564552464c4f570260208201526000906001604060020a038481169084160290604060020a8210613e985760405160e560020a62461bcd02815260040180806020018281038252838181518152602001915080519060200190808383600083811015610b66578181015183820152602001610b4e565b6040805180820190915260118152607860020a704d4154485f4144445f4f564552464c4f570260208201526000908383019084821015613e985760405160e560020a62461bcd02815260040180806020018281038252838181518152602001915080519060200190808383600083811015610b66578181015183820152602001610b4e565b828054600181600116156101000203166002900490600052602060002090601f016020900481019282601f106146ed5782800160ff1982351617855561471a565b8280016001018555821561471a579182015b8281111561471a5782358255916020019190600101906146ff565b50610ac3929150614868565b82805482825590600052602060002090810192821561477b579160200282015b8281111561477b5782518254600160a060020a031916600160a060020a03909116178255602090920191600190910190614746565b50610ac3929150614882565b82805482825590600052602060002090810192821561471a579160200282015b8281111561471a5782518255916020019190600101906147a7565b828054600181600116156101000203166002900490600052602060002090601f016020900481019282601f1061480357805160ff191683800117855561471a565b8280016001018555821561471a579182018281111561471a5782518255916020019190600101906147a7565b8154818355818111156148635760030160049004816003016004900483600052602060002091820191016148639190614868565b505050565b61113491905b80821115610ac3576000815560010161486e565b61113491905b80821115610ac3578054600160a060020a031916815560010161488856004150505f415554485f4641494c45440000000000000000000000000000000000a5cf757319c734091fd95cf4b09938ff69ee22637eda897ea92ca59e56f00bcbebb05b386a8d34882b8711d156f463690983dc47815980fb82aeeff1aa43579e4a63d93ebf20dec3ba47ab23da3d8ae3fddaf8e292600a0da9dfceaa7aac1c10494e49545f414c52454144595f494e495449414c495a45440000000000000000434f4d504c4554455f5452414e534954494f4e00000000000000000000000000e593f1908655effa3e2eb1eab075684bd646a51d97f20646bb9ecb2df3e4f2bb8af1e3d6225e5adff5174a4949cb3cc04f0f62937083325a9e302eaf5d07cdf19b9e262b9ea0587fdc5926b22b8ed5837efef4f4cc67bc1a7ee18f68ad83062f1ced0be26d1bb2db7a1a0a01064be22894ce4ca0321b6f4b28d0b1a5ce62e7ea5345545f504552494f445f544f4f5f53484f5254000000000000000000000000d35e458bacdd5343c2f050f574554b2f417a8ea38d6a9a65ce2225dbe8bb9a9d9508b9be0e7d0812b185d681a410f531523c628522224ed90fb7be7cfe28b00dd79730e82bfef7d2f9639b9d10bf37ebb662b22ae2211502a00bdf7b2cc3a23a494e49545f4e4f545f494e495449414c495a4544000000000000000000000000a165627a7a72305820647adb89807b810dd34cbca08cf4fe4347c697ff852822923a09aa90637d1ea80029ebb05b386a8d34882b8711d156f463690983dc47815980fb82aeeff1aa43579e",
  "source": "/*\n * SPDX-License-Identitifer: GPL-3.0-or-later\n */\n\npragma solidity ^0.4.24;\n\nimport \"@aragon/os/contracts/apps/AragonApp.sol\";\n\nimport \"@aragon/os/contracts/lib/math/SafeMath.sol\";\n\nimport \"@aragon/os/contracts/lib/math/SafeMath64.sol\";\n\nimport \"@aragon/apps-vault/contracts/Vault.sol\";\n\n\ncontract Allocations is AragonApp {\n\n    using SafeMath for uint256;\n    using SafeMath64 for uint64;\n    using SafeERC20 for ERC20;\n\n    bytes32 public constant CREATE_ACCOUNT_ROLE = 0x9b9e262b9ea0587fdc5926b22b8ed5837efef4f4cc67bc1a7ee18f68ad83062f;\n    bytes32 public constant CREATE_ALLOCATION_ROLE = 0x8af1e3d6225e5adff5174a4949cb3cc04f0f62937083325a9e302eaf5d07cdf1;\n    bytes32 public constant EXECUTE_ALLOCATION_ROLE = 0x1ced0be26d1bb2db7a1a0a01064be22894ce4ca0321b6f4b28d0b1a5ce62e7ea;\n    bytes32 public constant EXECUTE_PAYOUT_ROLE = 0xa5cf757319c734091fd95cf4b09938ff69ee22637eda897ea92ca59e56f00bcb;\n    bytes32 public constant CHANGE_PERIOD_ROLE = 0xd35e458bacdd5343c2f050f574554b2f417a8ea38d6a9a65ce2225dbe8bb9a9d;\n    bytes32 public constant CHANGE_BUDGETS_ROLE = 0xd79730e82bfef7d2f9639b9d10bf37ebb662b22ae2211502a00bdf7b2cc3a23a;\n    bytes32 public constant SET_MAX_CANDIDATES_ROLE = 0xe593f1908655effa3e2eb1eab075684bd646a51d97f20646bb9ecb2df3e4f2bb;\n\n    uint256 internal constant MAX_UINT256 = uint256(-1);\n    uint64 internal constant MAX_UINT64 = uint64(-1);\n    uint64 internal constant MINIMUM_PERIOD = uint64(1 days);\n    uint256 internal constant MAX_SCHEDULED_PAYOUTS_PER_TX = 20;\n\n    string private constant ERROR_NO_PERIOD = \"NO_PERIOD\";\n    string private constant ERROR_NO_ACCOUNT = \"NO_ACCOUNT\";\n    string private constant ERROR_NO_PAYOUT = \"NO_PAYOUT\";\n    string private constant ERROR_NO_CANDIDATE = \"NO_CANDIDATE\";\n    string private constant ERROR_PERIOD_SHORT = \"SET_PERIOD_TOO_SHORT\";\n    string private constant ERROR_COMPLETE_TRANSITION = \"COMPLETE_TRANSITION\";\n    string private constant ERROR_MIN_RECURRENCE = \"RECURRENCES_BELOW_ONE\";\n    string private constant ERROR_CANDIDATE_NOT_RECEIVER = \"CANDIDATE_NOT_RECEIVER\";\n    string private constant ERROR_INSUFFICIENT_FUNDS = \"INSUFFICIENT_FUNDS\";\n\n    struct Payout {\n        uint64 startTime;\n        uint64 recurrences;\n        uint64 period;\n        address[] candidateAddresses;\n        uint256[] supports;\n        uint64[] executions;\n        uint256 amount;\n        string description;\n    }\n\n    struct Account {\n        uint64 payoutsLength;\n        bool hasBudget;\n        address token;\n        mapping (uint64 => Payout) payouts;\n        string metadata;\n        uint256 budget;\n    }\n\n    struct AccountStatement {\n        mapping(address => uint256) expenses;\n    }\n\n    struct Period {\n        uint64 startTime;\n        uint64 endTime;\n        mapping (uint256 => AccountStatement) accountStatement;\n    }\n\n    uint64 accountsLength;\n    uint64 periodsLength;\n    uint64 periodDuration;\n    uint256 maxCandidates;\n    Vault public vault;\n    mapping (uint64 => Account) accounts;\n    mapping (uint64 => Period) periods;\n    mapping(address => uint) accountProxies; // proxy address -> account Id\n\n    event PayoutExecuted(uint64 accountId, uint64 payoutId, uint candidateId);\n    event NewAccount(uint64 accountId);\n    event NewPeriod(uint64 indexed periodId, uint64 periodStarts, uint64 periodEnds);\n    event FundAccount(uint64 accountId);\n    event SetDistribution(uint64 accountId, uint64 payoutId);\n    event PaymentFailure(uint64 accountId, uint64 payoutId, uint256 candidateId);\n    event SetBudget(uint256 indexed accountId, uint256 amount, string name, bool hasBudget);\n    event ChangePeriodDuration(uint64 newDuration);\n\n    modifier periodExists(uint64 _periodId) {\n        require(_periodId < periodsLength, ERROR_NO_PERIOD);\n        _;\n    }\n\n    modifier accountExists(uint64 _accountId) {\n        require(_accountId < accountsLength, ERROR_NO_ACCOUNT);\n        _;\n    }\n\n    modifier payoutExists(uint64 _accountId, uint64 _payoutId) {\n        require(_payoutId < accounts[_accountId].payoutsLength, ERROR_NO_PAYOUT);\n        _;\n    }\n\n    // Modifier used by all methods that impact accounting to make sure accounting period\n    // is changed before the operation if needed\n    // NOTE: its use **MUST** be accompanied by an initialization check\n    modifier transitionsPeriod {\n        require(\n            _tryTransitionAccountingPeriod(getMaxPeriodTransitions()),\n            ERROR_COMPLETE_TRANSITION\n        );\n        _;\n    }\n\n    /**\n    * @dev On initialization the contract sets a vault, and initializes the periods\n    *      and accounts.\n    * @param _vault The Aragon vault to pull payments from.\n    * @param _periodDuration Base duration of a \"period\" used for value calculations.\n    */\n    function initialize(\n        Vault _vault,\n        uint64 _periodDuration\n    ) external onlyInit\n    {\n        vault = _vault;\n        require(_periodDuration >= MINIMUM_PERIOD, ERROR_PERIOD_SHORT);\n        periodDuration = _periodDuration;\n        _newPeriod(getTimestamp64());\n        accountsLength++;  // position 0 is reserved and unused\n        maxCandidates = 50;\n        initialized();\n    }\n\n///////////////////////\n// Getter functions\n///////////////////////\n    /** @notice Basic getter for accounts.\n    *   @param _accountId The budget ID you'd like to get.\n    */\n    function getAccount(uint64 _accountId) external view accountExists(_accountId) isInitialized\n    returns(string metadata, address token, bool hasBudget, uint256 budget)\n    {\n        Account storage account = accounts[_accountId];\n        metadata = account.metadata;\n        token = account.token;\n        hasBudget = account.hasBudget;\n        budget = account.budget;\n    }\n\n    /** @notice Basic getter for Allocations.\n    *   @param _accountId The ID of the budget.\n    *   @param _payoutId The ID of the allocation within the budget you'd like to retrieve.\n    */\n    function getPayout(uint64 _accountId, uint64 _payoutId) external view payoutExists(_accountId, _payoutId) isInitialized\n    returns(uint amount, uint64 recurrences, uint startTime, uint period)\n    {\n        Payout storage payout = accounts[_accountId].payouts[_payoutId];\n        amount = payout.amount;\n        recurrences = payout.recurrences;\n        startTime = payout.startTime;\n        period = payout.period;\n    }\n\n    /**\n    * @notice get the account's remaining budget for the current period\n    * @param _accountId The account ID of the budget remaining to be calculated\n    */\n    function getRemainingBudget(uint64 _accountId) external view accountExists(_accountId)\n    returns(uint256)\n    {\n        return _getRemainingBudget(_accountId);\n    }\n\n    /** @notice Basic getter for Allocation descriptions.\n    *   @param _accountId The Id of the budget.\n    *   @param _payoutId The Id of the allocation within the budget.\n    */\n    function getPayoutDescription(uint64 _accountId, uint64 _payoutId)\n    external\n    view\n    payoutExists(_accountId, _payoutId)\n    isInitialized\n    returns(string description)\n    {\n        Payout storage payout = accounts[_accountId].payouts[_payoutId];\n        description = payout.description;\n    }\n\n    /** @notice Basic getter for getting the number of options in an Allocation.\n    *   @param _accountId The Id of the budget.\n    *   @param _payoutId The Id of the allocation within the budget.\n    */\n    function getNumberOfCandidates(uint64 _accountId, uint64 _payoutId) external view isInitialized payoutExists(_accountId, _payoutId)\n    returns(uint256 numCandidates)\n    {\n        Payout storage payout = accounts[_accountId].payouts[_payoutId];\n        numCandidates = payout.supports.length;\n    }\n\n    /** @notice Basic getter for Allocation value for a specific recipient.\n    *   @param _accountId The Id of the budget.\n    *   @param _payoutId The Id of the allocation within the budget.\n    *   @param _idx The Id of the specific recipient you'd like to retrieve information for.\n    */\n    function getPayoutDistributionValue(uint64 _accountId, uint64 _payoutId, uint256 _idx)\n    external\n    view\n    isInitialized\n    payoutExists(_accountId, _payoutId)\n    returns(uint256 supports, address candidateAddress, uint64 executions)\n    {\n        Payout storage payout = accounts[_accountId].payouts[_payoutId];\n        require(_idx < payout.supports.length, ERROR_NO_CANDIDATE);\n        supports = payout.supports[_idx];\n        candidateAddress = payout.candidateAddresses[_idx];\n        executions = payout.executions[_idx];\n    }\n\n    /**\n    * @dev We have to check for initialization as periods are only valid after initializing\n    */\n    function getCurrentPeriodId() external view isInitialized returns (uint64) {\n        return _currentPeriodId();\n    }\n\n    /** @notice Basic getter for period information.\n    *   @param _periodId The Id of the period you'd like to receive information for.\n    */\n    function getPeriod(uint64 _periodId)\n    external\n    view\n    isInitialized\n    periodExists(_periodId)\n    returns (\n        bool isCurrent,\n        uint64 startTime,\n        uint64 endTime\n    )\n    {\n        Period storage period = periods[_periodId];\n\n        isCurrent = _currentPeriodId() == _periodId;\n\n        startTime = period.startTime;\n        endTime = period.endTime;\n    }\n\n///////////////////////\n// Allocation functions\n///////////////////////\n    /**\n    * @dev This is the function that sets up a budget for creating allocations.\n    * @notice Create \"`_metadata`\" budget of `@tokenAmount(_token, _budget)` per period.\n    * @param _metadata The budget description\n    * @param _token Token used for account payouts.\n    * @param _hasBudget Whether the account uses budgeting.\n    * @param _budget The budget amount\n    */\n    function newAccount(\n        string _metadata,\n        address _token,\n        bool _hasBudget,\n        uint256 _budget\n    ) external auth(CREATE_ACCOUNT_ROLE) returns(uint64 accountId)\n    {\n        accountId = accountsLength++;\n        Account storage account = accounts[accountId];\n        account.metadata = _metadata;\n        account.hasBudget = _hasBudget;\n        account.budget = _budget;\n        account.token = _token;\n        emit NewAccount(accountId);\n    }\n\n    /**\n    * @notice Change period duration to `@transformTime(_periodDuration)`, effective for next accounting period\n    * @param _periodDuration Duration in seconds for accounting periods\n    */\n    function setPeriodDuration(uint64 _periodDuration)\n        external\n        auth(CHANGE_PERIOD_ROLE)\n        transitionsPeriod\n    {\n        require(_periodDuration >= MINIMUM_PERIOD, ERROR_PERIOD_SHORT);\n        periodDuration = _periodDuration;\n        emit ChangePeriodDuration(_periodDuration);\n    }\n\n    /**\n    * @notice Set the maximum number of candidates that can be paid out in an allocation to `_maxCandidates`.\n    * @param _maxCandidates Maximum number of Candidates\n    */\n    function setMaxCandidates(uint256 _maxCandidates) external auth(SET_MAX_CANDIDATES_ROLE) {\n        maxCandidates = _maxCandidates;\n    }\n\n    /**\n    * @notice `_amount == 0 ? 'Deactivate ' + _metadata + ' budget (#' + _accountId + ')' : 'Update budget #' + _accountId + ' to ' + @tokenAmount(0x0000000000000000000000000000000000000000, _amount, false) + ', effective immediately and optionally update metadata'`\n    * @param _accountId Budget Identifier\n    * @param _amount New budget amount\n    * @param _metadata descriptor for the account (pass in empty string if unchanged)\n    */\n    function setBudget(\n        uint64 _accountId,\n        uint256 _amount,\n        string _metadata\n    )\n        external\n        auth(CHANGE_BUDGETS_ROLE)\n        transitionsPeriod\n        accountExists(_accountId)\n    {\n        accounts[_accountId].budget = _amount;\n        // only access storage if necessary\n        if (bytes(_metadata).length > 0) {\n            accounts[_accountId].metadata = _metadata;\n        }\n        if (!accounts[_accountId].hasBudget) {\n            accounts[_accountId].hasBudget = true;\n        }\n        emit SetBudget(_accountId, _amount, _metadata, true);\n    }\n\n    /**\n    * @notice Remove budget #`_accountId`, effective immediately and optionally update budget name.\n    * @param _accountId Id for the budget.\n    * @param _metadata descriptor for account (pass in empty string if unchanged)\n    */\n    function removeBudget(uint64 _accountId, string _metadata)\n        external\n        auth(CHANGE_BUDGETS_ROLE)\n        transitionsPeriod\n        accountExists(_accountId)\n    {\n        accounts[_accountId].budget = 0;\n        accounts[_accountId].hasBudget = false;\n        // only access storage if necessary\n        if (bytes(_metadata).length > 0) {\n            accounts[_accountId].metadata = _metadata;\n        }\n        emit SetBudget(_accountId, 0, _metadata, false);\n    }\n\n    /**\n    * @notice This transaction will execute the allocation for the senders address for budget #`_accountId`\n    * @param _accountId The Id of the budget you'd like to take action against\n    * @param _payoutId The Id of the allocation within the budget you'd like to execute\n    * @param _candidateId The Candidate whose allocation you'll execute (must be sender)\n    */\n    function candidateExecutePayout(\n        uint64 _accountId,\n        uint64 _payoutId,\n        uint256 _candidateId\n    ) external transitionsPeriod isInitialized accountExists(_accountId) payoutExists(_accountId, _payoutId) // solium-disable-line error-reason\n    {\n        //Payout storage payout = accounts[_accountId].payouts[_payoutId];\n        require(msg.sender == accounts[_accountId].payouts[_payoutId].candidateAddresses[_candidateId], ERROR_CANDIDATE_NOT_RECEIVER);\n        _executePayoutAtLeastOnce(_accountId, _payoutId, _candidateId, 0);\n    }\n\n    /**\n    * @notice This transaction will execute the allocation for candidate `_candidateId` within budget #`_accountId`\n    * @param _accountId The Id of the budget you'd like to take action against\n    * @param _payoutId The Id of the allocation within the budget you'd like to execute\n    * @param _candidateId The Candidate whose allocation you'll execute (must be sender)\n    */\n    function executePayout(\n        uint64 _accountId,\n        uint64 _payoutId,\n        uint256 _candidateId\n    ) external transitionsPeriod auth(EXECUTE_PAYOUT_ROLE) accountExists(_accountId) payoutExists(_accountId, _payoutId)\n    {\n        _executePayoutAtLeastOnce(_accountId, _payoutId, _candidateId, 0);\n    }\n\n    /**\n    * @dev This function distributes the allocations to the candidates in accordance with the distribution values\n    * @notice Distribute allocation #`_payoutId` from budget #`_accountId`.\n    * @param _accountId The Id of the budget you'd like to take action against\n    * @param _payoutId The Id of the allocation within the budget you'd like to execute\n    */\n    function runPayout(uint64 _accountId, uint64 _payoutId)\n    external\n    auth(EXECUTE_ALLOCATION_ROLE)\n    transitionsPeriod\n    accountExists(_accountId)\n    payoutExists(_accountId, _payoutId)\n    returns(bool success)\n    {\n        success = _runPayout(_accountId, _payoutId);\n    }\n\n    /**\n    * @dev This function is provided to circumvent situations where the transition period\n    *      becomes impossible to execute\n    * @param _limit Maximum number of periods to advance in this execution\n    */\n    function advancePeriod(uint64 _limit) external isInitialized {\n        _tryTransitionAccountingPeriod(_limit);\n    }\n\n    /**\n    * @dev This is the function that the DotVote will call. It doesnt need\n    *      to be called by a DotVote (options get weird if it's not)\n    *      but for our use case the CREATE_ALLOCATION_ROLE will be given to\n    *      the DotVote. This function is public for stack-depth reasons\n    * @notice Create an allocation from budget #`_accountId` for \"`_description`\" `(_recurrences > 1) ? 'that will execute ' + _recurrences + ' times': ''`.\n    * @param _candidateAddresses Array of potential addresses receiving a share of the allocation.\n    * @param _supports The Array of all support values for the various candidates. These values are set in dot voting.\n    * @param _description The distribution description\n    * @param _accountId The Id of the budget used for the allocation\n    * @param _recurrences Quantity used to indicate whether this is a recurring or one-time payout\n    * @param _period Time interval between each recurring allocation\n    * @param _amount The quantity of funds to be allocated\n    */\n    function setDistribution(\n        address[] _candidateAddresses,\n        uint256[] _supports,\n        uint256[] /*unused_infoIndices*/,\n        string /*unused_candidateInfo*/,\n        string _description,\n        uint256[] /*unused_level 1 ID - converted to bytes32*/,\n        uint256[] /*unused_level 2 ID - converted to bytes32*/,\n        uint64 _accountId,\n        uint64 _recurrences,\n        uint64 _startTime,\n        uint64 _period,\n        uint256 _amount\n    )\n    public\n    auth(CREATE_ALLOCATION_ROLE)\n    transitionsPeriod\n    returns(uint64 payoutId)\n    {\n        require(maxCandidates >= _candidateAddresses.length); // solium-disable-line error-reason\n        Account storage account = accounts[_accountId];\n        require(vault.balance(account.token) >= _amount * _recurrences); // solium-disable-line error-reason\n        require(_recurrences > 0, ERROR_MIN_RECURRENCE);\n\n        Payout storage payout = account.payouts[account.payoutsLength++];\n\n        payout.amount = _amount;\n        payout.recurrences = _recurrences;\n        payout.candidateAddresses = _candidateAddresses;\n        if (_recurrences > 1) {\n            payout.period = _period;\n            // minimum granularity is a single day\n            require(payout.period >= 1 days, ERROR_PERIOD_SHORT);\n        }\n        payout.startTime = _startTime; // solium-disable-line security/no-block-members\n        payout.supports = _supports;\n        payout.description = _description;\n        payout.executions.length = _supports.length;\n        payoutId = account.payoutsLength - 1;\n        emit SetDistribution(_accountId, payoutId);\n        if (_startTime <= getTimestamp64()) {\n            _runPayout(_accountId, payoutId);\n        }\n    }\n\n    function _executePayoutAtLeastOnce(\n        uint64 _accountId,\n        uint64 _payoutId,\n        uint256 _candidateId,\n        uint256 _paid\n    )\n        internal accountExists(_accountId) returns (uint256)\n    {\n        Account storage account = accounts[_accountId];\n        Payout storage payout = account.payouts[_payoutId];\n        require(_candidateId < payout.supports.length, ERROR_NO_CANDIDATE);\n\n        uint256 paid = _paid;\n        uint256 totalSupport = _getTotalSupport(payout);\n\n        uint256 individualPayout = payout.supports[_candidateId].mul(payout.amount).div(totalSupport);\n        if (individualPayout == 0) {\n            return;\n        }\n        while (_nextPaymentTime(_accountId, _payoutId, _candidateId) <= getTimestamp64() && paid < MAX_SCHEDULED_PAYOUTS_PER_TX) {\n            if (!_canMakePayment(_accountId, individualPayout)) {\n                emit PaymentFailure(_accountId, _payoutId, _candidateId);\n                break;\n            }\n\n            // The while() predicate prevents these two from ever overflowing\n            paid += 1;\n\n            // We've already checked the remaining budget with `_canMakePayment()`\n            _executeCandidatePayout(_accountId, _payoutId, _candidateId, totalSupport);\n        }\n        return paid;\n    }\n\n    function _newPeriod(uint64 _startTime) internal returns (Period storage) {\n        // There should be no way for this to overflow since each period is at least one day\n        uint64 newPeriodId = periodsLength++;\n\n        Period storage period = periods[newPeriodId];\n        period.startTime = _startTime;\n\n        // Be careful here to not overflow; if startTime + periodDuration overflows, we set endTime\n        // to MAX_UINT64 (let's assume that's the end of time for now).\n        uint64 endTime = _startTime + periodDuration - 1;\n        if (endTime < _startTime) { // overflowed\n            endTime = MAX_UINT64;\n        }\n        period.endTime = endTime;\n\n        emit NewPeriod(newPeriodId, period.startTime, period.endTime);\n\n        return period;\n    }\n\n    function _tryTransitionAccountingPeriod(uint64 _maxTransitions) internal returns (bool success) {\n        Period storage currentPeriod = periods[_currentPeriodId()];\n        uint64 maxTransitions = _maxTransitions;\n        uint64 timestamp = getTimestamp64();\n\n        // Transition periods if necessary\n        while (timestamp > currentPeriod.endTime) {\n            if (maxTransitions == 0) {\n                // Required number of transitions is over allowed number, return false indicating\n                // it didn't fully transition\n                return false;\n            }\n            // We're already protected from underflowing above\n            maxTransitions -= 1;\n\n            currentPeriod = _newPeriod(currentPeriod.endTime.add(1));\n        }\n\n        return true;\n    }\n\n    function _currentPeriodId() internal view returns (uint64) {\n        // There is no way for this to overflow if protected by an initialization check\n        return periodsLength - 1;\n    }\n\n    function _canMakePayment(uint64 _accountId, uint256 _amount) internal view returns (bool) {\n        Account storage account = accounts[_accountId];\n        return _getRemainingBudget(_accountId) >= _amount && vault.balance(account.token) >= _amount && _amount > 0;\n    }\n\n    function _getRemainingBudget(uint64 _accountId) internal view returns (uint256) {\n        Account storage account = accounts[_accountId];\n        if (!account.hasBudget) {\n            return MAX_UINT256;\n        }\n\n        uint256 budget = account.budget;\n        uint256 spent = periods[_currentPeriodId()].accountStatement[_accountId].expenses[account.token];\n\n        // A budget decrease can cause the spent amount to be greater than period budget\n        // If so, return 0 to not allow more spending during period\n        if (spent >= budget) {\n            return 0;\n        }\n\n        // We're already protected from the overflow above\n        return budget - spent;\n    }\n\n    function _runPayout(uint64 _accountId, uint64 _payoutId) internal returns(bool success) {\n        Account storage account = accounts[_accountId];\n        uint256[] storage supports = account.payouts[_payoutId].supports;\n        uint64 i;\n        uint256 paid = 0;\n        uint256 length = account.payouts[_payoutId].candidateAddresses.length;\n        //handle vault\n        for (i = 0; i < length; i++) {\n            if (supports[i] != 0 && _nextPaymentTime(_accountId, _payoutId, i) <= getTimestamp64()) {\n                paid = _executePayoutAtLeastOnce(_accountId, _payoutId, i, paid);\n            } else {\n                emit PaymentFailure(_accountId, _payoutId, i);\n            }\n        }\n        success = true;\n    }\n\n    function _getTotalSupport(Payout storage payout) internal view returns (uint256 totalSupport) {\n        for (uint256 i = 0; i < payout.supports.length; i++) {\n            totalSupport += payout.supports[i];\n        }\n    }\n\n    function _nextPaymentTime(uint64 _accountId, uint64 _payoutId, uint256 _candidateIndex) internal view returns (uint64) {\n        Account storage account = accounts[_accountId];\n        Payout storage payout = account.payouts[_payoutId];\n\n        if (payout.executions[_candidateIndex] >= payout.recurrences) {\n            return MAX_UINT64; // re-executes in some billions of years time... should not need to worry\n        }\n\n        // Split in multiple lines to circumvent linter warning\n        uint64 increase = payout.executions[_candidateIndex].mul(payout.period);\n        uint64 nextPayment = payout.startTime.add(increase);\n        return nextPayment;\n    }\n\n    function _executeCandidatePayout(\n        uint64 _accountId,\n        uint64 _payoutId,\n        uint256 _candidateIndex,\n        uint256 _totalSupport\n    ) internal\n    {\n        Account storage account = accounts[_accountId];\n        Payout storage payout = account.payouts[_payoutId];\n        uint256 individualPayout = payout.supports[_candidateIndex].mul(payout.amount).div(_totalSupport);\n        require(_canMakePayment(_accountId, individualPayout), ERROR_INSUFFICIENT_FUNDS);\n\n        address token = account.token;\n        uint256 expenses = periods[_currentPeriodId()].accountStatement[_accountId].expenses[token];\n        periods[_currentPeriodId()].accountStatement[_accountId].expenses[token] = expenses.add(individualPayout);\n        payout.executions[_candidateIndex] = payout.executions[_candidateIndex].add(1);\n        vault.transfer(token, payout.candidateAddresses[_candidateIndex], individualPayout);\n        emit PayoutExecuted(_accountId, _payoutId, _candidateIndex);\n    }\n\n    // Mocked fns (overrided during testing)\n    // Must be view for mocking purposes\n\n    function getMaxPeriodTransitions() internal view returns (uint64) { return MAX_UINT64; }\n}\n",
  "sourcePath": "@autarklabs/apps-allocations/contracts/Allocations.sol",
  "compiler": {
    "name": "solc",
    "version": "0.4.24+commit.e67f0147.Emscripten.clang"
  },
  "schemaVersion": "3.4.2",
  "updatedAt": "2021-10-14T14:14:04.441Z",
  "devdoc": {
    "methods": {
      "advancePeriod(uint64)": {
        "details": "This function is provided to circumvent situations where the transition period     becomes impossible to execute",
        "params": {
          "_limit": "Maximum number of periods to advance in this execution"
        }
      },
      "allowRecoverability(address)": {
        "details": "By default deriving from AragonApp makes it recoverable",
        "params": {
          "token": "Token address that would be recovered"
        },
        "return": "bool whether the app allows the recovery"
      },
      "canPerform(address,bytes32,uint256[])": {
        "details": "Check whether an action can be performed by a sender for a particular role on this app",
        "params": {
          "_params": "Permission params for the role",
          "_role": "Role on this app",
          "_sender": "Sender of the call"
        },
        "return": "Boolean indicating whether the sender has the permissions to perform the action.        Always returns false if the app hasn't been initialized yet."
      },
      "candidateExecutePayout(uint64,uint64,uint256)": {
        "params": {
          "_accountId": "The Id of the budget you'd like to take action against",
          "_candidateId": "The Candidate whose allocation you'll execute (must be sender)",
          "_payoutId": "The Id of the allocation within the budget you'd like to execute"
        }
      },
      "executePayout(uint64,uint64,uint256)": {
        "params": {
          "_accountId": "The Id of the budget you'd like to take action against",
          "_candidateId": "The Candidate whose allocation you'll execute (must be sender)",
          "_payoutId": "The Id of the allocation within the budget you'd like to execute"
        }
      },
      "getAccount(uint64)": {
        "params": {
          "_accountId": "The budget ID you'd like to get."
        }
      },
      "getCurrentPeriodId()": {
        "details": "We have to check for initialization as periods are only valid after initializing"
      },
      "getInitializationBlock()": {
        "return": "Block number in which the contract was initialized"
      },
      "getNumberOfCandidates(uint64,uint64)": {
        "params": {
          "_accountId": "The Id of the budget.",
          "_payoutId": "The Id of the allocation within the budget."
        }
      },
      "getPayout(uint64,uint64)": {
        "params": {
          "_accountId": "The ID of the budget.",
          "_payoutId": "The ID of the allocation within the budget you'd like to retrieve."
        }
      },
      "getPayoutDescription(uint64,uint64)": {
        "params": {
          "_accountId": "The Id of the budget.",
          "_payoutId": "The Id of the allocation within the budget."
        }
      },
      "getPayoutDistributionValue(uint64,uint64,uint256)": {
        "params": {
          "_accountId": "The Id of the budget.",
          "_idx": "The Id of the specific recipient you'd like to retrieve information for.",
          "_payoutId": "The Id of the allocation within the budget."
        }
      },
      "getPeriod(uint64)": {
        "params": {
          "_periodId": "The Id of the period you'd like to receive information for."
        }
      },
      "getRecoveryVault()": {
        "details": "Get the recovery vault for the app",
        "return": "Recovery vault address for the app"
      },
      "getRemainingBudget(uint64)": {
        "params": {
          "_accountId": "The account ID of the budget remaining to be calculated"
        }
      },
      "hasInitialized()": {
        "return": "Whether the contract has been initialized by the time of the current block"
      },
      "initialize(address,uint64)": {
        "details": "On initialization the contract sets a vault, and initializes the periods     and accounts.",
        "params": {
          "_periodDuration": "Base duration of a \"period\" used for value calculations.",
          "_vault": "The Aragon vault to pull payments from."
        }
      },
      "newAccount(string,address,bool,uint256)": {
        "details": "This is the function that sets up a budget for creating allocations.",
        "params": {
          "_budget": "The budget amount",
          "_hasBudget": "Whether the account uses budgeting.",
          "_metadata": "The budget description",
          "_token": "Token used for account payouts."
        }
      },
      "removeBudget(uint64,string)": {
        "params": {
          "_accountId": "Id for the budget.",
          "_metadata": "descriptor for account (pass in empty string if unchanged)"
        }
      },
      "runPayout(uint64,uint64)": {
        "details": "This function distributes the allocations to the candidates in accordance with the distribution values",
        "params": {
          "_accountId": "The Id of the budget you'd like to take action against",
          "_payoutId": "The Id of the allocation within the budget you'd like to execute"
        }
      },
      "setBudget(uint64,uint256,string)": {
        "params": {
          "_accountId": "Budget Identifier",
          "_amount": "New budget amount",
          "_metadata": "descriptor for the account (pass in empty string if unchanged)"
        }
      },
      "setDistribution(address[],uint256[],uint256[],string,string,uint256[],uint256[],uint64,uint64,uint64,uint64,uint256)": {
        "details": "This is the function that the DotVote will call. It doesnt need     to be called by a DotVote (options get weird if it's not)     but for our use case the CREATE_ALLOCATION_ROLE will be given to     the DotVote. This function is public for stack-depth reasons",
        "params": {
          "_accountId": "The Id of the budget used for the allocation",
          "_amount": "The quantity of funds to be allocated",
          "_candidateAddresses": "Array of potential addresses receiving a share of the allocation.",
          "_description": "The distribution description",
          "_period": "Time interval between each recurring allocation",
          "_recurrences": "Quantity used to indicate whether this is a recurring or one-time payout",
          "_supports": "The Array of all support values for the various candidates. These values are set in dot voting."
        }
      },
      "setMaxCandidates(uint256)": {
        "params": {
          "_maxCandidates": "Maximum number of Candidates"
        }
      },
      "setPeriodDuration(uint64)": {
        "params": {
          "_periodDuration": "Duration in seconds for accounting periods"
        }
      },
      "transferToVault(address)": {
        "params": {
          "_token": "Token balance to be sent to recovery vault."
        }
      }
    }
  },
  "userdoc": {
    "methods": {
      "candidateExecutePayout(uint64,uint64,uint256)": {
        "notice": "This transaction will execute the allocation for the senders address for budget #`_accountId`"
      },
      "executePayout(uint64,uint64,uint256)": {
        "notice": "This transaction will execute the allocation for candidate `_candidateId` within budget #`_accountId`"
      },
      "getAccount(uint64)": {
        "notice": "Basic getter for accounts."
      },
      "getNumberOfCandidates(uint64,uint64)": {
        "notice": "Basic getter for getting the number of options in an Allocation."
      },
      "getPayout(uint64,uint64)": {
        "notice": "Basic getter for Allocations."
      },
      "getPayoutDescription(uint64,uint64)": {
        "notice": "Basic getter for Allocation descriptions."
      },
      "getPayoutDistributionValue(uint64,uint64,uint256)": {
        "notice": "Basic getter for Allocation value for a specific recipient."
      },
      "getPeriod(uint64)": {
        "notice": "Basic getter for period information."
      },
      "getRemainingBudget(uint64)": {
        "notice": "get the account's remaining budget for the current period"
      },
      "newAccount(string,address,bool,uint256)": {
        "notice": "Create \"`_metadata`\" budget of `@tokenAmount(_token, _budget)` per period."
      },
      "removeBudget(uint64,string)": {
        "notice": "Remove budget #`_accountId`, effective immediately and optionally update budget name."
      },
      "runPayout(uint64,uint64)": {
        "notice": "Distribute allocation #`_payoutId` from budget #`_accountId`."
      },
      "setBudget(uint64,uint256,string)": {
        "notice": "`_amount == 0 ? 'Deactivate ' + _metadata + ' budget (#' + _accountId + ')' : 'Update budget #' + _accountId + ' to ' + @tokenAmount(0x0000000000000000000000000000000000000000, _amount, false) + ', effective immediately and optionally update metadata'`"
      },
      "setDistribution(address[],uint256[],uint256[],string,string,uint256[],uint256[],uint64,uint64,uint64,uint64,uint256)": {
        "notice": "Create an allocation from budget #`_accountId` for \"`_description`\" `(_recurrences > 1) ? 'that will execute ' + _recurrences + ' times': ''`."
      },
      "setMaxCandidates(uint256)": {
        "notice": "Set the maximum number of candidates that can be paid out in an allocation to `_maxCandidates`."
      },
      "setPeriodDuration(uint64)": {
        "notice": "Change period duration to `@transformTime(_periodDuration)`, effective for next accounting period"
      },
      "transferToVault(address)": {
        "notice": "Send funds to recovery Vault. This contract should never receive funds,        but in case it does, this function allows one to recover them."
      }
    }
  }
}