{
  "contractName": "APMRegistry",
  "abi": [
    {
      "constant": true,
      "inputs": [],
      "name": "hasInitialized",
      "outputs": [
        {
          "name": "",
          "type": "bool"
        }
      ],
      "payable": false,
      "stateMutability": "view",
      "type": "function"
    },
    {
      "constant": true,
      "inputs": [
        {
          "name": "_script",
          "type": "bytes"
        }
      ],
      "name": "getEVMScriptExecutor",
      "outputs": [
        {
          "name": "",
          "type": "address"
        }
      ],
      "payable": false,
      "stateMutability": "view",
      "type": "function"
    },
    {
      "constant": true,
      "inputs": [],
      "name": "registrar",
      "outputs": [
        {
          "name": "",
          "type": "address"
        }
      ],
      "payable": false,
      "stateMutability": "view",
      "type": "function"
    },
    {
      "constant": true,
      "inputs": [],
      "name": "getRecoveryVault",
      "outputs": [
        {
          "name": "",
          "type": "address"
        }
      ],
      "payable": false,
      "stateMutability": "view",
      "type": "function"
    },
    {
      "constant": true,
      "inputs": [],
      "name": "ens",
      "outputs": [
        {
          "name": "",
          "type": "address"
        }
      ],
      "payable": false,
      "stateMutability": "view",
      "type": "function"
    },
    {
      "constant": true,
      "inputs": [],
      "name": "CREATE_REPO_ROLE",
      "outputs": [
        {
          "name": "",
          "type": "bytes32"
        }
      ],
      "payable": false,
      "stateMutability": "view",
      "type": "function"
    },
    {
      "constant": true,
      "inputs": [
        {
          "name": "token",
          "type": "address"
        }
      ],
      "name": "allowRecoverability",
      "outputs": [
        {
          "name": "",
          "type": "bool"
        }
      ],
      "payable": false,
      "stateMutability": "view",
      "type": "function"
    },
    {
      "constant": true,
      "inputs": [],
      "name": "appId",
      "outputs": [
        {
          "name": "",
          "type": "bytes32"
        }
      ],
      "payable": false,
      "stateMutability": "view",
      "type": "function"
    },
    {
      "constant": true,
      "inputs": [],
      "name": "getInitializationBlock",
      "outputs": [
        {
          "name": "",
          "type": "uint256"
        }
      ],
      "payable": false,
      "stateMutability": "view",
      "type": "function"
    },
    {
      "constant": false,
      "inputs": [
        {
          "name": "_token",
          "type": "address"
        }
      ],
      "name": "transferToVault",
      "outputs": [],
      "payable": false,
      "stateMutability": "nonpayable",
      "type": "function"
    },
    {
      "constant": true,
      "inputs": [
        {
          "name": "_sender",
          "type": "address"
        },
        {
          "name": "_role",
          "type": "bytes32"
        },
        {
          "name": "_params",
          "type": "uint256[]"
        }
      ],
      "name": "canPerform",
      "outputs": [
        {
          "name": "",
          "type": "bool"
        }
      ],
      "payable": false,
      "stateMutability": "view",
      "type": "function"
    },
    {
      "constant": true,
      "inputs": [],
      "name": "getEVMScriptRegistry",
      "outputs": [
        {
          "name": "",
          "type": "address"
        }
      ],
      "payable": false,
      "stateMutability": "view",
      "type": "function"
    },
    {
      "constant": false,
      "inputs": [
        {
          "name": "_kernel",
          "type": "address"
        },
        {
          "name": "_appId",
          "type": "bytes32"
        },
        {
          "name": "_initializePayload",
          "type": "bytes"
        }
      ],
      "name": "newAppProxyPinned",
      "outputs": [
        {
          "name": "",
          "type": "address"
        }
      ],
      "payable": false,
      "stateMutability": "nonpayable",
      "type": "function"
    },
    {
      "constant": true,
      "inputs": [],
      "name": "kernel",
      "outputs": [
        {
          "name": "",
          "type": "address"
        }
      ],
      "payable": false,
      "stateMutability": "view",
      "type": "function"
    },
    {
      "constant": true,
      "inputs": [],
      "name": "isPetrified",
      "outputs": [
        {
          "name": "",
          "type": "bool"
        }
      ],
      "payable": false,
      "stateMutability": "view",
      "type": "function"
    },
    {
      "constant": false,
      "inputs": [
        {
          "name": "_kernel",
          "type": "address"
        },
        {
          "name": "_appId",
          "type": "bytes32"
        }
      ],
      "name": "newAppProxy",
      "outputs": [
        {
          "name": "",
          "type": "address"
        }
      ],
      "payable": false,
      "stateMutability": "nonpayable",
      "type": "function"
    },
    {
      "constant": false,
      "inputs": [
        {
          "name": "_kernel",
          "type": "address"
        },
        {
          "name": "_appId",
          "type": "bytes32"
        },
        {
          "name": "_initializePayload",
          "type": "bytes"
        }
      ],
      "name": "newAppProxy",
      "outputs": [
        {
          "name": "",
          "type": "address"
        }
      ],
      "payable": false,
      "stateMutability": "nonpayable",
      "type": "function"
    },
    {
      "constant": false,
      "inputs": [
        {
          "name": "_kernel",
          "type": "address"
        },
        {
          "name": "_appId",
          "type": "bytes32"
        }
      ],
      "name": "newAppProxyPinned",
      "outputs": [
        {
          "name": "",
          "type": "address"
        }
      ],
      "payable": false,
      "stateMutability": "nonpayable",
      "type": "function"
    },
    {
      "anonymous": false,
      "inputs": [
        {
          "indexed": false,
          "name": "id",
          "type": "bytes32"
        },
        {
          "indexed": false,
          "name": "name",
          "type": "string"
        },
        {
          "indexed": false,
          "name": "repo",
          "type": "address"
        }
      ],
      "name": "NewRepo",
      "type": "event"
    },
    {
      "anonymous": false,
      "inputs": [
        {
          "indexed": false,
          "name": "proxy",
          "type": "address"
        },
        {
          "indexed": false,
          "name": "isUpgradeable",
          "type": "bool"
        },
        {
          "indexed": false,
          "name": "appId",
          "type": "bytes32"
        }
      ],
      "name": "NewAppProxy",
      "type": "event"
    },
    {
      "anonymous": false,
      "inputs": [
        {
          "indexed": true,
          "name": "executor",
          "type": "address"
        },
        {
          "indexed": false,
          "name": "script",
          "type": "bytes"
        },
        {
          "indexed": false,
          "name": "input",
          "type": "bytes"
        },
        {
          "indexed": false,
          "name": "returnData",
          "type": "bytes"
        }
      ],
      "name": "ScriptResult",
      "type": "event"
    },
    {
      "anonymous": false,
      "inputs": [
        {
          "indexed": true,
          "name": "vault",
          "type": "address"
        },
        {
          "indexed": true,
          "name": "token",
          "type": "address"
        },
        {
          "indexed": false,
          "name": "amount",
          "type": "uint256"
        }
      ],
      "name": "RecoverToVault",
      "type": "event"
    },
    {
      "constant": false,
      "inputs": [
        {
          "name": "_registrar",
          "type": "address"
        }
      ],
      "name": "initialize",
      "outputs": [],
      "payable": false,
      "stateMutability": "nonpayable",
      "type": "function"
    },
    {
      "constant": false,
      "inputs": [
        {
          "name": "_name",
          "type": "string"
        },
        {
          "name": "_dev",
          "type": "address"
        }
      ],
      "name": "newRepo",
      "outputs": [
        {
          "name": "",
          "type": "address"
        }
      ],
      "payable": false,
      "stateMutability": "nonpayable",
      "type": "function"
    },
    {
      "constant": false,
      "inputs": [
        {
          "name": "_name",
          "type": "string"
        },
        {
          "name": "_dev",
          "type": "address"
        },
        {
          "name": "_initialSemanticVersion",
          "type": "uint16[3]"
        },
        {
          "name": "_contractAddress",
          "type": "address"
        },
        {
          "name": "_contentURI",
          "type": "bytes"
        }
      ],
      "name": "newRepoWithVersion",
      "outputs": [
        {
          "name": "",
          "type": "address"
        }
      ],
      "payable": false,
      "stateMutability": "nonpayable",
      "type": "function"
    }
  ],
  "bytecode": "0x6080604052620000176401000000006200001d810204565b6200023b565b6200003064010000000062000125810204565b60408051808201909152601881527f494e49545f414c52454144595f494e495449414c495a45440000000000000000602082015290156200010c576040517f08c379a00000000000000000000000000000000000000000000000000000000081526004018080602001828103825283818151815260200191508051906020019080838360005b83811015620000d0578181015183820152602001620000b6565b50505050905090810190601f168015620000fe5780820380516001836020036101000a031916815260200191505b509250505060405180910390fd5b506200012360001964010000000062000154810204565b565b60006200014f6000805160206200343683398151915264010000000062001e9d6200023382021704565b905090565b6200016764010000000062000125810204565b60408051808201909152601881527f494e49545f414c52454144595f494e495449414c495a454400000000000000006020820152901562000206576040517f08c379a000000000000000000000000000000000000000000000000000000000815260040180806020018281038252838181518152602001915080519060200190808383600083811015620000d0578181015183820152602001620000b6565b50620002306000805160206200343683398151915282640100000000620021e06200023782021704565b50565b5490565b9055565b6131eb806200024b6000396000f300608060405260043610620001195763ffffffff60e060020a6000350416630803fac081146200011e5780632914b9bd146200014a5780632b20e39714620001c257806332ab6af014620001da57806332f0a3b514620002b95780633f15457f14620002d15780635e1f3fa814620002e95780637e7db6e1146200031357806380afdea814620003375780638b3dd749146200034f5780639d4941d81462000367578063a1658fad146200038d578063a479e50814620003f7578063b0927de7146200040f578063c4d66de81462000476578063d162f8b0146200049a578063d4aae0c41462000506578063de4796ed146200051e578063e156a8f31462000536578063ede658b0146200055d578063ff289fc514620005c9575b600080fd5b3480156200012b57600080fd5b5062000136620005f0565b604080519115158252519081900360200190f35b3480156200015757600080fd5b506040805160206004803580820135601f8101849004840285018401909552848452620001a69436949293602493928401919081908401838280828437509497506200061e9650505050505050565b60408051600160a060020a039092168252519081900360200190f35b348015620001cf57600080fd5b50620001a66200070c565b348015620001e757600080fd5b506040805160206004803580820135601f8101849004840285018401909552848452620001a6943694929360249392840191908190840183828082843750506040805160608181019092529598600160a060020a0388351698909790966080820196509450602001925060039150839083908082843750506040805160208781013589018035601f81018390048302840183018552808452979a8935600160a060020a03169a9099909894019650919450908101925081908401838280828437509497506200071b9650505050505050565b348015620002c657600080fd5b50620001a662000c79565b348015620002de57600080fd5b50620001a662000cf6565b348015620002f657600080fd5b506200030162000d05565b60408051918252519081900360200190f35b3480156200032057600080fd5b5062000136600160a060020a036004351662000d18565b3480156200034457600080fd5b506200030162000d1e565b3480156200035c57600080fd5b506200030162000d50565b3480156200037457600080fd5b506200038b600160a060020a036004351662000d6c565b005b3480156200039a57600080fd5b50604080516020600460443581810135838102808601850190965280855262000136958335600160a060020a0316956024803596369695606495939492019291829185019084908082843750949750620010099650505050505050565b3480156200040457600080fd5b50620001a662001169565b3480156200041c57600080fd5b506040805160206004803580820135601f8101849004840285018401909552848452620001a694369492936024939284019190819084018382808284375094975050509235600160a060020a031693506200120b92505050565b3480156200048357600080fd5b506200038b600160a060020a0360043516620012cf565b348015620004a757600080fd5b50604080516020600460443581810135601f8101849004840285018401909552848452620001a6948235600160a060020a0316946024803595369594606494920191908190840183828082843750949750620017fc9650505050505050565b3480156200051357600080fd5b50620001a6620018f6565b3480156200052b57600080fd5b506200013662001923565b3480156200054357600080fd5b50620001a6600160a060020a036004351660243562001938565b3480156200056a57600080fd5b50604080516020600460443581810135601f8101849004840285018401909552848452620001a6948235600160a060020a03169460248035953695946064949201919081908401838280828437509497506200195e9650505050505050565b348015620005d657600080fd5b50620001a6600160a060020a036004351660243562001a58565b600080620005fd62000d50565b90508015801590620006185750806200061562001a77565b10155b91505090565b60006200062a62001169565b600160a060020a03166304bf2a7f836040518263ffffffff1660e060020a0281526004018080602001828103825283818151815260200191508051906020019080838360005b838110156200068a57818101518382015260200162000670565b50505050905090810190601f168015620006b85780820380516001836020036101000a031916815260200191505b5092505050602060405180830381600087803b158015620006d857600080fd5b505af1158015620006ed573d6000803e3d6000fd5b505050506040513d60208110156200070457600080fd5b505192915050565b600154600160a060020a031681565b60408051600080825260208201909252819081906000805160206200318083398151915290620007529033908390855b5062001009565b60408051808201909152600f8152608a60020a6e10541417d055551217d190525311510260208201529015156200080d5760405160e560020a62461bcd0281526004018080602001828103825283818151815260200191508051906020019080838360005b83811015620007d1578181015183820152602001620007b7565b50505050905090810190601f168015620007ff5780820380516001836020036101000a031916815260200191505b509250505060405180910390fd5b506200081a893062001a7b565b925082600160a060020a031663730534108888886040518463ffffffff1660e060020a0281526004018084600360200280838360005b838110156200086a57818101518382015260200162000850565b5050505090500183600160a060020a0316600160a060020a0316815260200180602001828103825283818151815260200191508051906020019080838360005b83811015620008c4578181015183820152602001620008aa565b50505050905090810190601f168015620008f25780820380516001836020036101000a031916815260200191505b50945050505050600060405180830381600087803b1580156200091457600080fd5b505af115801562000929573d6000803e3d6000fd5b5050505062000937620018f6565b600160a060020a031663de2873596040518163ffffffff1660e060020a028152600401602060405180830381600087803b1580156200097557600080fd5b505af11580156200098a573d6000803e3d6000fd5b505050506040513d6020811015620009a157600080fd5b50516040805160e160020a635530c9250281529051919350600160a060020a0380851692639d0effdb92309288929083169163aa61924a9160048083019260209291908290030181600087803b158015620009fb57600080fd5b505af115801562000a10573d6000803e3d6000fd5b505050506040513d602081101562000a2757600080fd5b50516040805160e060020a63ffffffff8716028152600160a060020a03948516600482015292909316602483015260448201529051606480830192600092919082900301818387803b15801562000a7d57600080fd5b505af115801562000a92573d6000803e3d6000fd5b5050505081600160a060020a0316630a8ed3db898586600160a060020a031663aa61924a6040518163ffffffff1660e060020a028152600401602060405180830381600087803b15801562000ae657600080fd5b505af115801562000afb573d6000803e3d6000fd5b505050506040513d602081101562000b1257600080fd5b50516040805160e060020a63ffffffff8716028152600160a060020a03948516600482015292909316602483015260448201529051606480830192600092919082900301818387803b15801562000b6857600080fd5b505af115801562000b7d573d6000803e3d6000fd5b5050505081600160a060020a031663afd925df898586600160a060020a031663aa61924a6040518163ffffffff1660e060020a028152600401602060405180830381600087803b15801562000bd157600080fd5b505af115801562000be6573d6000803e3d6000fd5b505050506040513d602081101562000bfd57600080fd5b50516040805160e060020a63ffffffff8716028152600160a060020a03948516600482015292909316602483015260448201529051606480830192600092919082900301818387803b15801562000c5357600080fd5b505af115801562000c68573d6000803e3d6000fd5b50949b9a5050505050505050505050565b600062000c85620018f6565b600160a060020a03166332f0a3b56040518163ffffffff1660e060020a028152600401602060405180830381600087803b15801562000cc357600080fd5b505af115801562000cd8573d6000803e3d6000fd5b505050506040513d602081101562000cef57600080fd5b5051905090565b600054600160a060020a031681565b6000805160206200318083398151915281565b50600190565b600062000d4b7fd625496217aa6a3453eecb9c3489dc5a53e6c67b444329ea2b2cbc9ff547639b62001e9d565b905090565b600062000d4b6000805160206200314083398151915262001e9d565b600080600062000d7c8462000d18565b6040805180820190915260128152607260020a71149150d3d5915497d11254d0531313d5d15102602082015290151562000dfd5760405160e560020a62461bcd02815260040180806020018281038252838181518152602001915080519060200190808383600083811015620007d1578181015183820152602001620007b7565b5062000e0862000c79565b925062000e158362001ea5565b60408051808201909152601a81527f5245434f5645525f5641554c545f4e4f545f434f4e5452414354000000000000602082015290151562000e9e5760405160e560020a62461bcd02815260040180806020018281038252838181518152602001915080519060200190808383600083811015620007d1578181015183820152602001620007b7565b50600160a060020a038416151562000ef25760405130319250600160a060020a0384169083156108fc029084906000818181858888f1935050505015801562000eeb573d6000803e3d6000fd5b5062000fb8565b508262000f0f600160a060020a0382163063ffffffff62001ed416565b915062000f2d600160a060020a038216848463ffffffff62001fc316565b60408051808201909152601d81527f5245434f5645525f544f4b454e5f5452414e534645525f4641494c4544000000602082015290151562000fb65760405160e560020a62461bcd02815260040180806020018281038252838181518152602001915080519060200190808383600083811015620007d1578181015183820152602001620007b7565b505b83600160a060020a031683600160a060020a03167f596caf56044b55fb8c4ca640089bbc2b63cae3e978b851f5745cbb7c5b288e02846040518082815260200191505060405180910390a350505050565b60008062001016620005f0565b151562001027576000915062001161565b62001031620018f6565b9050600160a060020a03811615156200104e576000915062001161565b80600160a060020a031663fdef91068630876200106b8862002025565b60405160e060020a63ffffffff8716028152600160a060020a03808616600483019081529085166024830152604482018490526080606483019081528351608484015283519192909160a490910190602085019080838360005b83811015620010df578181015183820152602001620010c5565b50505050905090810190601f1680156200110d5780820380516001836020036101000a031916815260200191505b5095505050505050602060405180830381600087803b1580156200113057600080fd5b505af115801562001145573d6000803e3d6000fd5b505050506040513d60208110156200115c57600080fd5b505191505b509392505050565b60008062001176620018f6565b6040805160e360020a6317c0177b0281527fd6f028ca0e8edb4a8c9757ca4fdccab25fa1e0317da1188108f7d2dee14902fb60048201527fddbcfd564f642ab5627cf68b9b7d374fb4f8a36e941a75d89c87998cef03bd6160248201529051600160a060020a03929092169163be00bbd8916044808201926020929091908290030181600087803b158015620006d857600080fd5b6040805160008082526020820190925260008051602062003180833981519152906200123c9033908390856200074b565b60408051808201909152600f8152608a60020a6e10541417d055551217d19052531151026020820152901515620012ba5760405160e560020a62461bcd02815260040180806020018281038252838181518152602001915080519060200190808383600083811015620007d1578181015183820152602001620007b7565b50620012c7848462001a7b565b949350505050565b6000620012db62000d50565b60408051808201909152601881526000805160206200316083398151915260208201529015620013525760405160e560020a62461bcd02815260040180806020018281038252838181518152602001915080519060200190808383600083811015620007d1578181015183820152602001620007b7565b506200135d6200202f565b60018054600160a060020a031916600160a060020a0384811691909117918290556040805160e060020a633f15457f02815290519290911691633f15457f916004808201926020929091908290030181600087803b158015620013bf57600080fd5b505af1158015620013d4573d6000803e3d6000fd5b505050506040513d6020811015620013eb57600080fd5b505160008054600160a060020a031916600160a060020a039283161781556001546040805160e060020a63db6069310281523060048201529051919093169263db60693192602480830193919282900301818387803b1580156200144e57600080fd5b505af115801562001463573d6000803e3d6000fd5b5050505062001471620018f6565b600160a060020a031663de2873596040518163ffffffff1660e060020a028152600401602060405180830381600087803b158015620014af57600080fd5b505af1158015620014c4573d6000803e3d6000fd5b505050506040513d6020811015620014db57600080fd5b50516001546040805160e360020a631fde8fc70281529051929350600160a060020a0380851693636d6712d8933093921691829163fef47e38916004808201926020929091908290030181600087803b1580156200153857600080fd5b505af11580156200154d573d6000803e3d6000fd5b505050506040513d60208110156200156457600080fd5b50516040805160e060020a63ffffffff8716028152600160a060020a0394851660048201529290931660248301526044820152905160648083019260209291908290030181600087803b158015620015bb57600080fd5b505af1158015620015d0573d6000803e3d6000fd5b505050506040513d6020811015620015e757600080fd5b50516040805180820190915260178152604860020a7641504d5245475f494e49545f5045524d495353494f4e530260208201529015156200166f5760405160e560020a62461bcd02815260040180806020018281038252838181518152602001915080519060200190808383600083811015620007d1578181015183820152602001620007b7565b5080600160a060020a0316636d6712d8308384600160a060020a0316633d6ab68f6040518163ffffffff1660e060020a028152600401602060405180830381600087803b158015620016c057600080fd5b505af1158015620016d5573d6000803e3d6000fd5b505050506040513d6020811015620016ec57600080fd5b50516040805160e060020a63ffffffff8716028152600160a060020a0394851660048201529290931660248301526044820152905160648083019260209291908290030181600087803b1580156200174357600080fd5b505af115801562001758573d6000803e3d6000fd5b505050506040513d60208110156200176f57600080fd5b50516040805180820190915260178152604860020a7641504d5245475f494e49545f5045524d495353494f4e53026020820152901515620017f75760405160e560020a62461bcd02815260040180806020018281038252838181518152602001915080519060200190808383600083811015620007d1578181015183820152602001620007b7565b505050565b6000808484846200180c620023c4565b600160a060020a038416815260208082018490526060604083018181528451918401919091528351909160808401919085019080838360005b838110156200185f57818101518382015260200162001845565b50505050905090810190601f1680156200188d5780820380516001836020036101000a031916815260200191505b50945050505050604051809103906000f080158015620018b1573d6000803e3d6000fd5b5060408051600160a060020a0383168152600060208201528082018790529051919250600080516020620031a0833981519152919081900360600190a1949350505050565b600062000d4b7f4172f0f7d2289153072b0a6ca36959e0cbe2efc3afe50fc81636caa96338137b62001e9d565b60006000196200193262000d50565b14905090565b604080516000808252602082019092526200195790849084906200195e565b9392505050565b6000808484846200196e620023d5565b600160a060020a038416815260208082018490526060604083018181528451918401919091528351909160808401919085019080838360005b83811015620019c1578181015183820152602001620019a7565b50505050905090810190601f168015620019ef5780820380516001836020036101000a031916815260200191505b50945050505050604051809103906000f08015801562001a13573d6000803e3d6000fd5b5060408051600160a060020a0383168152600160208201528082018790529051919250600080516020620031a0833981519152919081900360600190a1949350505050565b60408051600080825260208201909252620019579084908490620017fc565b4390565b600080600080855111604080519081016040528060118152602001607860020a7041504d5245475f454d5054595f4e414d450281525090151562001b065760405160e560020a62461bcd02815260040180806020018281038252838181518152602001915080519060200190808383600083811015620007d1578181015183820152602001620007b7565b5062001b11620020de565b915062001b1d620018f6565b600160a060020a031663de2873596040518163ffffffff1660e060020a028152600401602060405180830381600087803b15801562001b5b57600080fd5b505af115801562001b70573d6000803e3d6000fd5b505050506040513d602081101562001b8757600080fd5b50516040805160e160020a635530c9250281529051600160a060020a039283169263be038478928892879283169163aa61924a9160048083019260209291908290030181600087803b15801562001bdd57600080fd5b505af115801562001bf2573d6000803e3d6000fd5b505050506040513d602081101562001c0957600080fd5b50516040805160e060020a63ffffffff8716028152600160a060020a0394851660048201529284166024840152604483019190915291881660648201529051608480830192600092919082900301818387803b15801562001c6957600080fd5b505af115801562001c7e573d6000803e3d6000fd5b50506001546040518851600160a060020a0390921693506365b0bc85925088916020918201918291908401908083835b6020831062001ccf5780518252601f19909201916020918201910162001cae565b6001836020036101000a0380198251168184511680821785525050505050509050019150506040516020818303038152906040526040518082805190602001908083835b6020831062001d345780518252601f19909201916020918201910162001d13565b51815160209384036101000a60001901801990921691161790526040805192909401829003822063ffffffff881660e060020a0283526004830152600160a060020a038a166024830152925160448083019650939450929083900301905081600087803b15801562001da557600080fd5b505af115801562001dba573d6000803e3d6000fd5b505050506040513d602081101562001dd157600080fd5b505160408051828152600160a060020a038516918101919091526060602082810182815289519284019290925288519394507f526d4ccf8c3d7b6f0b6d4cc0de526d515c87d1ea3bd264ace0b5c2e70d1b22089385938a9388939192909160808401919086019080838360005b8381101562001e5857818101518382015260200162001e3e565b50505050905090810190601f16801562001e865780820380516001836020036101000a031916815260200191505b5094505050505060405180910390a1509392505050565b5490565b5490565b600080600160a060020a038316151562001ec3576000915062001ece565b823b90506000811191505b50919050565b60408051600160a060020a038316602480830191909152825180830390910181526044909101909152602081018051600160e060020a031660e060020a6370a0823102179052600090818062001f2b86846200215b565b60408051808201909152601c81527f534146455f4552435f32305f42414c414e43455f5245564552544544000000006020820152919350915082151562001fb95760405160e560020a62461bcd02815260040180806020018281038252838181518152602001915080519060200190808383600083811015620007d1578181015183820152602001620007b7565b5095945050505050565b60408051600160a060020a03841660248201526044808201849052825180830390910181526064909101909152602081018051600160e060020a031660e060020a63a9059cbb021790526000906200201c85826200218d565b95945050505050565b8051602002815290565b6200203962000d50565b60408051808201909152601881526000805160206200316083398151915260208201529015620020b05760405160e560020a62461bcd02815260040180806020018281038252838181518152602001915080519060200190808383600083811015620007d1578181015183820152602001620007b7565b50620020dc620020bf62001a77565b600080516020620031408339815191529063ffffffff620021e016565b565b6000620020fe620020ee620018f6565b620020f8620021e4565b62001938565b905080600160a060020a0316638129fc1c6040518163ffffffff1660e060020a028152600401600060405180830381600087803b1580156200213f57600080fd5b505af115801562002154573d6000803e3d6000fd5b5050505090565b6000806000806040516020818751602089018a5afa925060008311156200218157805191505b50909590945092505050565b6000806040516020818551602087016000895af16000811115620021d6573d8015620021c25760208114620021cc57620021d4565b60019350620021d4565b600183511493505b505b5090949350505050565b9055565b6001546040805160e360020a631f5fea150281529051600092600160a060020a03169163faff50a891600480830192602092919082900301818787803b1580156200222e57600080fd5b505af115801562002243573d6000803e3d6000fd5b505050506040513d60208110156200225a57600080fd5b5051604080518082018252600880825260c060020a6761706d2d7265706f02602083810191825293519293929092019182918083835b60208310620022b15780518252601f19909201916020918201910162002290565b6001836020036101000a0380198251168184511680821785525050505050509050019150506040516020818303038152906040526040518082805190602001908083835b60208310620023165780518252601f199092019160209182019101620022f5565b51815160209384036101000a6000190180199092169116179052604080519290940182900382208282019790975281840196909652825180820384018152606090910192839052805190959294508493509185019190508083835b60208310620023925780518252601f19909201916020918201910162002371565b6001836020036101000a0380198251168184511680821785525050505050509050019150506040518091039020905090565b6040516106c680620023e783390190565b6040516106938062002aad833901905600608060405234801561001057600080fd5b506040516106c63803806106c68339810160409081528151602083015191830151909201828282600061004b8464010000000061017a810204565b61005d836401000000006101a2810204565b61006f836401000000006101d9810204565b90506000825111156101185761008d816401000000006102a9810204565b151561009857600080fd5b80600160a060020a03168260405180828051906020019080838360005b838110156100cd5781810151838201526020016100b5565b50505050905090810190601f1680156100fa5780820380516001836020036101000a031916815260200191505b50915050600060405180830381855af4915050151561011857600080fd5b50505050610145610137836101d9640100000000026401000000009004565b6401000000006102d6810204565b6101676101596401000000006102fb810204565b6401000000006102a9810204565b151561017257600080fd5b505050610354565b61019f600080516020610686833981519152826401000000006102ef61032682021704565b50565b61019f7fd625496217aa6a3453eecb9c3489dc5a53e6c67b444329ea2b2cbc9ff547639b826401000000006102ef61032682021704565b60006101ec64010000000061032a810204565b604080517fbe00bbd80000000000000000000000000000000000000000000000000000000081527ff1f3eb40f5bc1ad1344716ced8b8a0431d840b5783aea1fd01786bc26f35ac0f6004820152602481018590529051600160a060020a03929092169163be00bbd8916044808201926020929091908290030181600087803b15801561027757600080fd5b505af115801561028b573d6000803e3d6000fd5b505050506040513d60208110156102a157600080fd5b505192915050565b600080600160a060020a03831615156102c557600091506102d0565b823b90506000811191505b50919050565b61019f6000805160206106a6833981519152826401000000006102ef61032682021704565b60006103216000805160206106a683398151915264010000000061028f61035082021704565b905090565b9055565b600061032160008051602061068683398151915264010000000061028f61035082021704565b5490565b610323806103636000396000f3006080604052600436106100535763ffffffff60e060020a6000350416634555d5c9811461011257806348a0c8dd146101395780635c60da1b1461016257806380afdea814610193578063d4aae0c4146101a8575b60006127105a10156100ca5760003411801561006d575036155b151561007857600080fd5b6100806101bd565b151561008b57600080fd5b6040805133815234602082015281517f15eeaa57c7bd188c1388020bcadc2c436ec60d647d36ef5b9eb3c742217ddee1929181900390910190a161010f565b6100d26101ed565b905061010f816000368080601f016020809104026020016040519081016040528093929190818152602001838380828437506101f7945050505050565b50005b34801561011e57600080fd5b50610127610238565b60408051918252519081900360200190f35b34801561014557600080fd5b5061014e6101bd565b604080519115158252519081900360200190f35b34801561016e57600080fd5b506101776101ed565b60408051600160a060020a039092168252519081900360200190f35b34801561019f57600080fd5b5061012761023d565b3480156101b457600080fd5b50610177610268565b60006101e87f665fd576fbbe6f247aff98f5c94a561e3f71ec2d3c988d56f12d342396c50cea61028f565b905090565b60006101e8610293565b6000610202836102be565b151561020d57600080fd5b612710905060008083516020850186855a03f43d604051816000823e828015610234578282f35b8282fd5b600190565b60006101e87fd625496217aa6a3453eecb9c3489dc5a53e6c67b444329ea2b2cbc9ff547639b61028f565b60006101e87f4172f0f7d2289153072b0a6ca36959e0cbe2efc3afe50fc81636caa96338137b5b5490565b60006101e87fdee64df20d65e53d7f51cb6ab6d921a0a6a638a91e942e1d8d02df28e31c038e61028f565b600080600160a060020a03831615156102da57600091506102e5565b823b90506000811191505b50919050565b5490565b9055565b90555600a165627a7a72305820285a43b24043b2883d937c760aaa11e349815dcbb4b7959b31a650edbaa3609a00294172f0f7d2289153072b0a6ca36959e0cbe2efc3afe50fc81636caa96338137bdee64df20d65e53d7f51cb6ab6d921a0a6a638a91e942e1d8d02df28e31c038e608060405234801561001057600080fd5b506040516106933803806106938339810160409081528151602083015191830151909201828282600061004b84640100000000610124810204565b61005d8364010000000061014c810204565b61006f83640100000000610183810204565b90506000825111156101185761008d81640100000000610253810204565b151561009857600080fd5b80600160a060020a03168260405180828051906020019080838360005b838110156100cd5781810151838201526020016100b5565b50505050905090810190601f1680156100fa5780820380516001836020036101000a031916815260200191505b50915050600060405180830381855af4915050151561011857600080fd5b505050505050506102b3565b6101496000805160206106738339815191528264010000000061037d61028082021704565b50565b6101497fd625496217aa6a3453eecb9c3489dc5a53e6c67b444329ea2b2cbc9ff547639b8264010000000061037d61028082021704565b6000610196640100000000610284810204565b604080517fbe00bbd80000000000000000000000000000000000000000000000000000000081527ff1f3eb40f5bc1ad1344716ced8b8a0431d840b5783aea1fd01786bc26f35ac0f6004820152602481018590529051600160a060020a03929092169163be00bbd8916044808201926020929091908290030181600087803b15801561022157600080fd5b505af1158015610235573d6000803e3d6000fd5b505050506040513d602081101561024b57600080fd5b505192915050565b600080600160a060020a038316151561026f576000915061027a565b823b90506000811191505b50919050565b9055565b60006102aa6000805160206106738339815191526401000000006102976102af82021704565b905090565b5490565b6103b1806102c26000396000f3006080604052600436106100535763ffffffff60e060020a6000350416634555d5c9811461011257806348a0c8dd146101395780635c60da1b1461016257806380afdea814610193578063d4aae0c4146101a8575b60006127105a10156100ca5760003411801561006d575036155b151561007857600080fd5b6100806101bd565b151561008b57600080fd5b6040805133815234602082015281517f15eeaa57c7bd188c1388020bcadc2c436ec60d647d36ef5b9eb3c742217ddee1929181900390910190a161010f565b6100d26101ed565b905061010f816000368080601f016020809104026020016040519081016040528093929190818152602001838380828437506101ff945050505050565b50005b34801561011e57600080fd5b50610127610240565b60408051918252519081900360200190f35b34801561014557600080fd5b5061014e6101bd565b604080519115158252519081900360200190f35b34801561016e57600080fd5b506101776101ed565b60408051600160a060020a039092168252519081900360200190f35b34801561019f57600080fd5b50610127610245565b3480156101b457600080fd5b50610177610270565b60006101e87f665fd576fbbe6f247aff98f5c94a561e3f71ec2d3c988d56f12d342396c50cea610297565b905090565b60006101e86101fa610245565b61029b565b600061020a8361034c565b151561021557600080fd5b612710905060008083516020850186855a03f43d604051816000823e82801561023c578282f35b8282fd5b600290565b60006101e87fd625496217aa6a3453eecb9c3489dc5a53e6c67b444329ea2b2cbc9ff547639b610297565b60006101e87f4172f0f7d2289153072b0a6ca36959e0cbe2efc3afe50fc81636caa96338137b5b5490565b60006102a5610270565b6040805160e360020a6317c0177b0281527ff1f3eb40f5bc1ad1344716ced8b8a0431d840b5783aea1fd01786bc26f35ac0f6004820152602481018590529051600160a060020a03929092169163be00bbd8916044808201926020929091908290030181600087803b15801561031a57600080fd5b505af115801561032e573d6000803e3d6000fd5b505050506040513d602081101561034457600080fd5b505192915050565b600080600160a060020a03831615156103685760009150610373565b823b90506000811191505b50919050565b5490565b9055565b90555600a165627a7a72305820668cbb83f1fdb9eee4c295de4e6c0ab2fe5fc9ef5bcf0d9fa8ef88c16b8a5d6f00294172f0f7d2289153072b0a6ca36959e0cbe2efc3afe50fc81636caa96338137bebb05b386a8d34882b8711d156f463690983dc47815980fb82aeeff1aa43579e494e49545f414c52454144595f494e495449414c495a454400000000000000002a9494d64846c9fdbf0158785aa330d8bc9caf45af27fa0e8898eb4d55adcea6d880e726dced8808d727f02dd0e6fdd3a945b24bfee77e13367bcbe61ddbaf47a165627a7a7230582095ee2479772dedd0959d5bc8d37dd78cd68f3c5d75cd69b54131dd1dcb6d32e00029ebb05b386a8d34882b8711d156f463690983dc47815980fb82aeeff1aa43579e",
  "source": "pragma solidity 0.4.24;\n\nimport \"../lib/ens/AbstractENS.sol\";\nimport \"../ens/ENSSubdomainRegistrar.sol\";\nimport \"../factory/AppProxyFactory.sol\";\nimport \"../apps/AragonApp.sol\";\nimport \"../acl/ACL.sol\";\nimport \"./Repo.sol\";\n\n\ncontract APMInternalAppNames {\n    string internal constant APM_APP_NAME = \"apm-registry\";\n    string internal constant REPO_APP_NAME = \"apm-repo\";\n    string internal constant ENS_SUB_APP_NAME = \"apm-enssub\";\n}\n\n\ncontract APMRegistry is AragonApp, AppProxyFactory, APMInternalAppNames {\n    /* Hardcoded constants to save gas\n    bytes32 public constant CREATE_REPO_ROLE = keccak256(\"CREATE_REPO_ROLE\");\n    */\n    bytes32 public constant CREATE_REPO_ROLE = 0x2a9494d64846c9fdbf0158785aa330d8bc9caf45af27fa0e8898eb4d55adcea6;\n\n    string private constant ERROR_INIT_PERMISSIONS = \"APMREG_INIT_PERMISSIONS\";\n    string private constant ERROR_EMPTY_NAME = \"APMREG_EMPTY_NAME\";\n\n    AbstractENS public ens;\n    ENSSubdomainRegistrar public registrar;\n\n    event NewRepo(bytes32 id, string name, address repo);\n\n    /**\n    * NEEDS CREATE_NAME_ROLE and POINT_ROOTNODE_ROLE permissions on registrar\n    * @dev Initialize can only be called once. It saves the block number in which it was initialized\n    * @notice Initialize this APMRegistry instance and set `_registrar` as the ENS subdomain registrar\n    * @param _registrar ENSSubdomainRegistrar instance that holds registry root node ownership\n    */\n    function initialize(ENSSubdomainRegistrar _registrar) public onlyInit {\n        initialized();\n\n        registrar = _registrar;\n        ens = registrar.ens();\n\n        registrar.pointRootNode(this);\n\n        // Check APM has all permissions it needss\n        ACL acl = ACL(kernel().acl());\n        require(acl.hasPermission(this, registrar, registrar.CREATE_NAME_ROLE()), ERROR_INIT_PERMISSIONS);\n        require(acl.hasPermission(this, acl, acl.CREATE_PERMISSIONS_ROLE()), ERROR_INIT_PERMISSIONS);\n    }\n\n    /**\n    * @notice Create new repo in registry with `_name`\n    * @param _name Repo name, must be ununsed\n    * @param _dev Address that will be given permission to create versions\n    */\n    function newRepo(string _name, address _dev) public auth(CREATE_REPO_ROLE) returns (Repo) {\n        return _newRepo(_name, _dev);\n    }\n\n    /**\n    * @notice Create new repo in registry with `_name` and publish a first version with contract `_contractAddress` and content `@fromHex(_contentURI)`\n    * @param _name Repo name\n    * @param _dev Address that will be given permission to create versions\n    * @param _initialSemanticVersion Semantic version for new repo version\n    * @param _contractAddress address for smart contract logic for version (if set to 0, it uses last versions' contractAddress)\n    * @param _contentURI External URI for fetching new version's content\n    */\n    function newRepoWithVersion(\n        string _name,\n        address _dev,\n        uint16[3] _initialSemanticVersion,\n        address _contractAddress,\n        bytes _contentURI\n    ) public auth(CREATE_REPO_ROLE) returns (Repo)\n    {\n        Repo repo = _newRepo(_name, this); // need to have permissions to create version\n        repo.newVersion(_initialSemanticVersion, _contractAddress, _contentURI);\n\n        // Give permissions to _dev\n        ACL acl = ACL(kernel().acl());\n        acl.revokePermission(this, repo, repo.CREATE_VERSION_ROLE());\n        acl.grantPermission(_dev, repo, repo.CREATE_VERSION_ROLE());\n        acl.setPermissionManager(_dev, repo, repo.CREATE_VERSION_ROLE());\n        return repo;\n    }\n\n    function _newRepo(string _name, address _dev) internal returns (Repo) {\n        require(bytes(_name).length > 0, ERROR_EMPTY_NAME);\n\n        Repo repo = newClonedRepo();\n\n        ACL(kernel().acl()).createPermission(_dev, repo, repo.CREATE_VERSION_ROLE(), _dev);\n\n        // Creates [name] subdomain in the rootNode and sets registry as resolver\n        // This will fail if repo name already exists\n        bytes32 node = registrar.createNameAndPoint(keccak256(abi.encodePacked(_name)), repo);\n\n        emit NewRepo(node, _name, repo);\n\n        return repo;\n    }\n\n    function newClonedRepo() internal returns (Repo repo) {\n        repo = Repo(newAppProxy(kernel(), repoAppId()));\n        repo.initialize();\n    }\n\n    function repoAppId() internal view returns (bytes32) {\n        return keccak256(abi.encodePacked(registrar.rootNode(), keccak256(abi.encodePacked(REPO_APP_NAME))));\n    }\n}\n",
  "sourcePath": "@aragon/os/contracts/apm/APMRegistry.sol",
  "compiler": {
    "name": "solc",
    "version": "0.4.24+commit.e67f0147.Emscripten.clang"
  },
  "schemaVersion": "3.4.2",
  "updatedAt": "2021-10-14T14:14:04.163Z",
  "devdoc": {
    "methods": {
      "allowRecoverability(address)": {
        "details": "By default deriving from AragonApp makes it recoverable",
        "params": {
          "token": "Token address that would be recovered"
        },
        "return": "bool whether the app allows the recovery"
      },
      "canPerform(address,bytes32,uint256[])": {
        "details": "Check whether an action can be performed by a sender for a particular role on this app",
        "params": {
          "_params": "Permission params for the role",
          "_role": "Role on this app",
          "_sender": "Sender of the call"
        },
        "return": "Boolean indicating whether the sender has the permissions to perform the action.        Always returns false if the app hasn't been initialized yet."
      },
      "getInitializationBlock()": {
        "return": "Block number in which the contract was initialized"
      },
      "getRecoveryVault()": {
        "details": "Get the recovery vault for the app",
        "return": "Recovery vault address for the app"
      },
      "hasInitialized()": {
        "return": "Whether the contract has been initialized by the time of the current block"
      },
      "initialize(address)": {
        "details": "Initialize can only be called once. It saves the block number in which it was initialized",
        "params": {
          "_registrar": "ENSSubdomainRegistrar instance that holds registry root node ownership"
        }
      },
      "newAppProxy(address,bytes32)": {
        "params": {
          "_appId": "Identifier for app",
          "_kernel": "App's Kernel reference"
        },
        "return": "AppProxyUpgradeable"
      },
      "newAppProxy(address,bytes32,bytes)": {
        "params": {
          "_appId": "Identifier for app",
          "_kernel": "App's Kernel reference"
        },
        "return": "AppProxyUpgradeable"
      },
      "newAppProxyPinned(address,bytes32)": {
        "params": {
          "_appId": "Identifier for app",
          "_kernel": "App's Kernel reference"
        },
        "return": "AppProxyPinned"
      },
      "newAppProxyPinned(address,bytes32,bytes)": {
        "params": {
          "_appId": "Identifier for app",
          "_initializePayload": "Proxy initialization payload",
          "_kernel": "App's Kernel reference"
        },
        "return": "AppProxyPinned"
      },
      "newRepo(string,address)": {
        "params": {
          "_dev": "Address that will be given permission to create versions",
          "_name": "Repo name, must be ununsed"
        }
      },
      "newRepoWithVersion(string,address,uint16[3],address,bytes)": {
        "params": {
          "_contentURI": "External URI for fetching new version's content",
          "_contractAddress": "address for smart contract logic for version (if set to 0, it uses last versions' contractAddress)",
          "_dev": "Address that will be given permission to create versions",
          "_initialSemanticVersion": "Semantic version for new repo version",
          "_name": "Repo name"
        }
      },
      "transferToVault(address)": {
        "params": {
          "_token": "Token balance to be sent to recovery vault."
        }
      }
    }
  },
  "userdoc": {
    "methods": {
      "initialize(address)": {
        "notice": "NEEDS CREATE_NAME_ROLE and POINT_ROOTNODE_ROLE permissions on registrarInitialize this APMRegistry instance and set `_registrar` as the ENS subdomain registrar"
      },
      "newAppProxy(address,bytes32)": {
        "notice": "Create a new upgradeable app instance on `_kernel` with identifier `_appId`"
      },
      "newAppProxy(address,bytes32,bytes)": {
        "notice": "Create a new upgradeable app instance on `_kernel` with identifier `_appId` and initialization payload `_initializePayload`"
      },
      "newAppProxyPinned(address,bytes32)": {
        "notice": "Create a new pinned app instance on `_kernel` with identifier `_appId`"
      },
      "newAppProxyPinned(address,bytes32,bytes)": {
        "notice": "Create a new pinned app instance on `_kernel` with identifier `_appId` and initialization payload `_initializePayload`"
      },
      "newRepo(string,address)": {
        "notice": "Create new repo in registry with `_name`"
      },
      "newRepoWithVersion(string,address,uint16[3],address,bytes)": {
        "notice": "Create new repo in registry with `_name` and publish a first version with contract `_contractAddress` and content `@fromHex(_contentURI)`"
      },
      "transferToVault(address)": {
        "notice": "Send funds to recovery Vault. This contract should never receive funds,        but in case it does, this function allows one to recover them."
      }
    }
  }
}