{
  "contractName": "AppProxyFactory",
  "abi": [
    {
      "anonymous": false,
      "inputs": [
        {
          "indexed": false,
          "name": "proxy",
          "type": "address"
        },
        {
          "indexed": false,
          "name": "isUpgradeable",
          "type": "bool"
        },
        {
          "indexed": false,
          "name": "appId",
          "type": "bytes32"
        }
      ],
      "name": "NewAppProxy",
      "type": "event"
    },
    {
      "constant": false,
      "inputs": [
        {
          "name": "_kernel",
          "type": "address"
        },
        {
          "name": "_appId",
          "type": "bytes32"
        }
      ],
      "name": "newAppProxy",
      "outputs": [
        {
          "name": "",
          "type": "address"
        }
      ],
      "payable": false,
      "stateMutability": "nonpayable",
      "type": "function"
    },
    {
      "constant": false,
      "inputs": [
        {
          "name": "_kernel",
          "type": "address"
        },
        {
          "name": "_appId",
          "type": "bytes32"
        },
        {
          "name": "_initializePayload",
          "type": "bytes"
        }
      ],
      "name": "newAppProxy",
      "outputs": [
        {
          "name": "",
          "type": "address"
        }
      ],
      "payable": false,
      "stateMutability": "nonpayable",
      "type": "function"
    },
    {
      "constant": false,
      "inputs": [
        {
          "name": "_kernel",
          "type": "address"
        },
        {
          "name": "_appId",
          "type": "bytes32"
        },
        {
          "name": "_initializePayload",
          "type": "bytes"
        }
      ],
      "name": "newAppProxyPinned",
      "outputs": [
        {
          "name": "",
          "type": "address"
        }
      ],
      "payable": false,
      "stateMutability": "nonpayable",
      "type": "function"
    },
    {
      "constant": false,
      "inputs": [
        {
          "name": "_kernel",
          "type": "address"
        },
        {
          "name": "_appId",
          "type": "bytes32"
        }
      ],
      "name": "newAppProxyPinned",
      "outputs": [
        {
          "name": "",
          "type": "address"
        }
      ],
      "payable": false,
      "stateMutability": "nonpayable",
      "type": "function"
    }
  ],
  "bytecode": "0x608060405234801561001057600080fd5b5061116f806100206000396000f3006080604052600436106100485763ffffffff60e060020a600035041663d162f8b0811461004d578063e156a8f3146100d2578063ede658b0146100f6578063ff289fc51461015f575b600080fd5b34801561005957600080fd5b50604080516020600460443581810135601f81018490048402850184019095528484526100b6948235600160a060020a03169460248035953695946064949201919081908401838280828437509497506101839650505050505050565b60408051600160a060020a039092168252519081900360200190f35b3480156100de57600080fd5b506100b6600160a060020a0360043516602435610276565b34801561010257600080fd5b50604080516020600460443581810135601f81018490048402850184019095528484526100b6948235600160a060020a031694602480359536959460649492019190819084018382808284375094975061029a9650505050505050565b34801561016b57600080fd5b506100b6600160a060020a036004351660243561038d565b6000808484846101916103aa565b600160a060020a038416815260208082018490526060604083018181528451918401919091528351909160808401919085019080838360005b838110156101e25781810151838201526020016101ca565b50505050905090810190601f16801561020f5780820380516001836020036101000a031916815260200191505b50945050505050604051809103906000f080158015610232573d6000803e3d6000fd5b5060408051600160a060020a0383168152600060208201528082018790529051919250600080516020611124833981519152919081900360600190a1949350505050565b60408051600080825260208201909252610293908490849061029a565b9392505050565b6000808484846102a86103ba565b600160a060020a038416815260208082018490526060604083018181528451918401919091528351909160808401919085019080838360005b838110156102f95781810151838201526020016102e1565b50505050905090810190601f1680156103265780820380516001836020036101000a031916815260200191505b50945050505050604051809103906000f080158015610349573d6000803e3d6000fd5b5060408051600160a060020a0383168152600160208201528082018790529051919250600080516020611124833981519152919081900360600190a1949350505050565b604080516000808252602082019092526102939084908490610183565b6040516106c6806103cb83390190565b60405161069380610a91833901905600608060405234801561001057600080fd5b506040516106c63803806106c68339810160409081528151602083015191830151909201828282600061004b8464010000000061017a810204565b61005d836401000000006101a2810204565b61006f836401000000006101d9810204565b90506000825111156101185761008d816401000000006102a9810204565b151561009857600080fd5b80600160a060020a03168260405180828051906020019080838360005b838110156100cd5781810151838201526020016100b5565b50505050905090810190601f1680156100fa5780820380516001836020036101000a031916815260200191505b50915050600060405180830381855af4915050151561011857600080fd5b50505050610145610137836101d9640100000000026401000000009004565b6401000000006102d6810204565b6101676101596401000000006102fb810204565b6401000000006102a9810204565b151561017257600080fd5b505050610354565b61019f600080516020610686833981519152826401000000006102ef61032682021704565b50565b61019f7fd625496217aa6a3453eecb9c3489dc5a53e6c67b444329ea2b2cbc9ff547639b826401000000006102ef61032682021704565b60006101ec64010000000061032a810204565b604080517fbe00bbd80000000000000000000000000000000000000000000000000000000081527ff1f3eb40f5bc1ad1344716ced8b8a0431d840b5783aea1fd01786bc26f35ac0f6004820152602481018590529051600160a060020a03929092169163be00bbd8916044808201926020929091908290030181600087803b15801561027757600080fd5b505af115801561028b573d6000803e3d6000fd5b505050506040513d60208110156102a157600080fd5b505192915050565b600080600160a060020a03831615156102c557600091506102d0565b823b90506000811191505b50919050565b61019f6000805160206106a6833981519152826401000000006102ef61032682021704565b60006103216000805160206106a683398151915264010000000061028f61035082021704565b905090565b9055565b600061032160008051602061068683398151915264010000000061028f61035082021704565b5490565b610323806103636000396000f3006080604052600436106100535763ffffffff60e060020a6000350416634555d5c9811461011257806348a0c8dd146101395780635c60da1b1461016257806380afdea814610193578063d4aae0c4146101a8575b60006127105a10156100ca5760003411801561006d575036155b151561007857600080fd5b6100806101bd565b151561008b57600080fd5b6040805133815234602082015281517f15eeaa57c7bd188c1388020bcadc2c436ec60d647d36ef5b9eb3c742217ddee1929181900390910190a161010f565b6100d26101ed565b905061010f816000368080601f016020809104026020016040519081016040528093929190818152602001838380828437506101f7945050505050565b50005b34801561011e57600080fd5b50610127610238565b60408051918252519081900360200190f35b34801561014557600080fd5b5061014e6101bd565b604080519115158252519081900360200190f35b34801561016e57600080fd5b506101776101ed565b60408051600160a060020a039092168252519081900360200190f35b34801561019f57600080fd5b5061012761023d565b3480156101b457600080fd5b50610177610268565b60006101e87f665fd576fbbe6f247aff98f5c94a561e3f71ec2d3c988d56f12d342396c50cea61028f565b905090565b60006101e8610293565b6000610202836102be565b151561020d57600080fd5b612710905060008083516020850186855a03f43d604051816000823e828015610234578282f35b8282fd5b600190565b60006101e87fd625496217aa6a3453eecb9c3489dc5a53e6c67b444329ea2b2cbc9ff547639b61028f565b60006101e87f4172f0f7d2289153072b0a6ca36959e0cbe2efc3afe50fc81636caa96338137b5b5490565b60006101e87fdee64df20d65e53d7f51cb6ab6d921a0a6a638a91e942e1d8d02df28e31c038e61028f565b600080600160a060020a03831615156102da57600091506102e5565b823b90506000811191505b50919050565b5490565b9055565b90555600a165627a7a72305820285a43b24043b2883d937c760aaa11e349815dcbb4b7959b31a650edbaa3609a00294172f0f7d2289153072b0a6ca36959e0cbe2efc3afe50fc81636caa96338137bdee64df20d65e53d7f51cb6ab6d921a0a6a638a91e942e1d8d02df28e31c038e608060405234801561001057600080fd5b506040516106933803806106938339810160409081528151602083015191830151909201828282600061004b84640100000000610124810204565b61005d8364010000000061014c810204565b61006f83640100000000610183810204565b90506000825111156101185761008d81640100000000610253810204565b151561009857600080fd5b80600160a060020a03168260405180828051906020019080838360005b838110156100cd5781810151838201526020016100b5565b50505050905090810190601f1680156100fa5780820380516001836020036101000a031916815260200191505b50915050600060405180830381855af4915050151561011857600080fd5b505050505050506102b3565b6101496000805160206106738339815191528264010000000061037d61028082021704565b50565b6101497fd625496217aa6a3453eecb9c3489dc5a53e6c67b444329ea2b2cbc9ff547639b8264010000000061037d61028082021704565b6000610196640100000000610284810204565b604080517fbe00bbd80000000000000000000000000000000000000000000000000000000081527ff1f3eb40f5bc1ad1344716ced8b8a0431d840b5783aea1fd01786bc26f35ac0f6004820152602481018590529051600160a060020a03929092169163be00bbd8916044808201926020929091908290030181600087803b15801561022157600080fd5b505af1158015610235573d6000803e3d6000fd5b505050506040513d602081101561024b57600080fd5b505192915050565b600080600160a060020a038316151561026f576000915061027a565b823b90506000811191505b50919050565b9055565b60006102aa6000805160206106738339815191526401000000006102976102af82021704565b905090565b5490565b6103b1806102c26000396000f3006080604052600436106100535763ffffffff60e060020a6000350416634555d5c9811461011257806348a0c8dd146101395780635c60da1b1461016257806380afdea814610193578063d4aae0c4146101a8575b60006127105a10156100ca5760003411801561006d575036155b151561007857600080fd5b6100806101bd565b151561008b57600080fd5b6040805133815234602082015281517f15eeaa57c7bd188c1388020bcadc2c436ec60d647d36ef5b9eb3c742217ddee1929181900390910190a161010f565b6100d26101ed565b905061010f816000368080601f016020809104026020016040519081016040528093929190818152602001838380828437506101ff945050505050565b50005b34801561011e57600080fd5b50610127610240565b60408051918252519081900360200190f35b34801561014557600080fd5b5061014e6101bd565b604080519115158252519081900360200190f35b34801561016e57600080fd5b506101776101ed565b60408051600160a060020a039092168252519081900360200190f35b34801561019f57600080fd5b50610127610245565b3480156101b457600080fd5b50610177610270565b60006101e87f665fd576fbbe6f247aff98f5c94a561e3f71ec2d3c988d56f12d342396c50cea610297565b905090565b60006101e86101fa610245565b61029b565b600061020a8361034c565b151561021557600080fd5b612710905060008083516020850186855a03f43d604051816000823e82801561023c578282f35b8282fd5b600290565b60006101e87fd625496217aa6a3453eecb9c3489dc5a53e6c67b444329ea2b2cbc9ff547639b610297565b60006101e87f4172f0f7d2289153072b0a6ca36959e0cbe2efc3afe50fc81636caa96338137b5b5490565b60006102a5610270565b6040805160e360020a6317c0177b0281527ff1f3eb40f5bc1ad1344716ced8b8a0431d840b5783aea1fd01786bc26f35ac0f6004820152602481018590529051600160a060020a03929092169163be00bbd8916044808201926020929091908290030181600087803b15801561031a57600080fd5b505af115801561032e573d6000803e3d6000fd5b505050506040513d602081101561034457600080fd5b505192915050565b600080600160a060020a03831615156103685760009150610373565b823b90506000811191505b50919050565b5490565b9055565b90555600a165627a7a72305820668cbb83f1fdb9eee4c295de4e6c0ab2fe5fc9ef5bcf0d9fa8ef88c16b8a5d6f00294172f0f7d2289153072b0a6ca36959e0cbe2efc3afe50fc81636caa96338137bd880e726dced8808d727f02dd0e6fdd3a945b24bfee77e13367bcbe61ddbaf47a165627a7a72305820588ea7882f8306904600b97ce96633140a336ad5ba3e05f393aab73b374240450029",
  "source": "pragma solidity 0.4.24;\n\nimport \"../apps/AppProxyUpgradeable.sol\";\nimport \"../apps/AppProxyPinned.sol\";\n\n\ncontract AppProxyFactory {\n    event NewAppProxy(address proxy, bool isUpgradeable, bytes32 appId);\n\n    /**\n    * @notice Create a new upgradeable app instance on `_kernel` with identifier `_appId`\n    * @param _kernel App's Kernel reference\n    * @param _appId Identifier for app\n    * @return AppProxyUpgradeable\n    */\n    function newAppProxy(IKernel _kernel, bytes32 _appId) public returns (AppProxyUpgradeable) {\n        return newAppProxy(_kernel, _appId, new bytes(0));\n    }\n\n    /**\n    * @notice Create a new upgradeable app instance on `_kernel` with identifier `_appId` and initialization payload `_initializePayload`\n    * @param _kernel App's Kernel reference\n    * @param _appId Identifier for app\n    * @return AppProxyUpgradeable\n    */\n    function newAppProxy(IKernel _kernel, bytes32 _appId, bytes _initializePayload) public returns (AppProxyUpgradeable) {\n        AppProxyUpgradeable proxy = new AppProxyUpgradeable(_kernel, _appId, _initializePayload);\n        emit NewAppProxy(address(proxy), true, _appId);\n        return proxy;\n    }\n\n    /**\n    * @notice Create a new pinned app instance on `_kernel` with identifier `_appId`\n    * @param _kernel App's Kernel reference\n    * @param _appId Identifier for app\n    * @return AppProxyPinned\n    */\n    function newAppProxyPinned(IKernel _kernel, bytes32 _appId) public returns (AppProxyPinned) {\n        return newAppProxyPinned(_kernel, _appId, new bytes(0));\n    }\n\n    /**\n    * @notice Create a new pinned app instance on `_kernel` with identifier `_appId` and initialization payload `_initializePayload`\n    * @param _kernel App's Kernel reference\n    * @param _appId Identifier for app\n    * @param _initializePayload Proxy initialization payload\n    * @return AppProxyPinned\n    */\n    function newAppProxyPinned(IKernel _kernel, bytes32 _appId, bytes _initializePayload) public returns (AppProxyPinned) {\n        AppProxyPinned proxy = new AppProxyPinned(_kernel, _appId, _initializePayload);\n        emit NewAppProxy(address(proxy), false, _appId);\n        return proxy;\n    }\n}\n",
  "sourcePath": "@aragon/os/contracts/factory/AppProxyFactory.sol",
  "compiler": {
    "name": "solc",
    "version": "0.4.24+commit.e67f0147.Emscripten.clang"
  },
  "schemaVersion": "3.4.2",
  "updatedAt": "2021-10-14T14:14:04.284Z",
  "devdoc": {
    "methods": {
      "newAppProxy(address,bytes32)": {
        "params": {
          "_appId": "Identifier for app",
          "_kernel": "App's Kernel reference"
        },
        "return": "AppProxyUpgradeable"
      },
      "newAppProxy(address,bytes32,bytes)": {
        "params": {
          "_appId": "Identifier for app",
          "_kernel": "App's Kernel reference"
        },
        "return": "AppProxyUpgradeable"
      },
      "newAppProxyPinned(address,bytes32)": {
        "params": {
          "_appId": "Identifier for app",
          "_kernel": "App's Kernel reference"
        },
        "return": "AppProxyPinned"
      },
      "newAppProxyPinned(address,bytes32,bytes)": {
        "params": {
          "_appId": "Identifier for app",
          "_initializePayload": "Proxy initialization payload",
          "_kernel": "App's Kernel reference"
        },
        "return": "AppProxyPinned"
      }
    }
  },
  "userdoc": {
    "methods": {
      "newAppProxy(address,bytes32)": {
        "notice": "Create a new upgradeable app instance on `_kernel` with identifier `_appId`"
      },
      "newAppProxy(address,bytes32,bytes)": {
        "notice": "Create a new upgradeable app instance on `_kernel` with identifier `_appId` and initialization payload `_initializePayload`"
      },
      "newAppProxyPinned(address,bytes32)": {
        "notice": "Create a new pinned app instance on `_kernel` with identifier `_appId`"
      },
      "newAppProxyPinned(address,bytes32,bytes)": {
        "notice": "Create a new pinned app instance on `_kernel` with identifier `_appId` and initialization payload `_initializePayload`"
      }
    }
  }
}