{
  "contractName": "AppProxyPinned",
  "abi": [
    {
      "constant": true,
      "inputs": [],
      "name": "isDepositable",
      "outputs": [
        {
          "name": "",
          "type": "bool"
        }
      ],
      "payable": false,
      "stateMutability": "view",
      "type": "function"
    },
    {
      "constant": true,
      "inputs": [],
      "name": "appId",
      "outputs": [
        {
          "name": "",
          "type": "bytes32"
        }
      ],
      "payable": false,
      "stateMutability": "view",
      "type": "function"
    },
    {
      "constant": true,
      "inputs": [],
      "name": "kernel",
      "outputs": [
        {
          "name": "",
          "type": "address"
        }
      ],
      "payable": false,
      "stateMutability": "view",
      "type": "function"
    },
    {
      "inputs": [
        {
          "name": "_kernel",
          "type": "address"
        },
        {
          "name": "_appId",
          "type": "bytes32"
        },
        {
          "name": "_initializePayload",
          "type": "bytes"
        }
      ],
      "payable": false,
      "stateMutability": "nonpayable",
      "type": "constructor"
    },
    {
      "payable": true,
      "stateMutability": "payable",
      "type": "fallback"
    },
    {
      "anonymous": false,
      "inputs": [
        {
          "indexed": false,
          "name": "sender",
          "type": "address"
        },
        {
          "indexed": false,
          "name": "value",
          "type": "uint256"
        }
      ],
      "name": "ProxyDeposit",
      "type": "event"
    },
    {
      "constant": true,
      "inputs": [],
      "name": "implementation",
      "outputs": [
        {
          "name": "",
          "type": "address"
        }
      ],
      "payable": false,
      "stateMutability": "view",
      "type": "function"
    },
    {
      "constant": true,
      "inputs": [],
      "name": "proxyType",
      "outputs": [
        {
          "name": "proxyTypeId",
          "type": "uint256"
        }
      ],
      "payable": false,
      "stateMutability": "pure",
      "type": "function"
    }
  ],
  "bytecode": "0x608060405234801561001057600080fd5b506040516106c63803806106c68339810160409081528151602083015191830151909201828282600061004b8464010000000061017a810204565b61005d836401000000006101a2810204565b61006f836401000000006101d9810204565b90506000825111156101185761008d816401000000006102a9810204565b151561009857600080fd5b80600160a060020a03168260405180828051906020019080838360005b838110156100cd5781810151838201526020016100b5565b50505050905090810190601f1680156100fa5780820380516001836020036101000a031916815260200191505b50915050600060405180830381855af4915050151561011857600080fd5b50505050610145610137836101d9640100000000026401000000009004565b6401000000006102d6810204565b6101676101596401000000006102fb810204565b6401000000006102a9810204565b151561017257600080fd5b505050610354565b61019f600080516020610686833981519152826401000000006102ef61032682021704565b50565b61019f7fd625496217aa6a3453eecb9c3489dc5a53e6c67b444329ea2b2cbc9ff547639b826401000000006102ef61032682021704565b60006101ec64010000000061032a810204565b604080517fbe00bbd80000000000000000000000000000000000000000000000000000000081527ff1f3eb40f5bc1ad1344716ced8b8a0431d840b5783aea1fd01786bc26f35ac0f6004820152602481018590529051600160a060020a03929092169163be00bbd8916044808201926020929091908290030181600087803b15801561027757600080fd5b505af115801561028b573d6000803e3d6000fd5b505050506040513d60208110156102a157600080fd5b505192915050565b600080600160a060020a03831615156102c557600091506102d0565b823b90506000811191505b50919050565b61019f6000805160206106a6833981519152826401000000006102ef61032682021704565b60006103216000805160206106a683398151915264010000000061028f61035082021704565b905090565b9055565b600061032160008051602061068683398151915264010000000061028f61035082021704565b5490565b610323806103636000396000f3006080604052600436106100535763ffffffff60e060020a6000350416634555d5c9811461011257806348a0c8dd146101395780635c60da1b1461016257806380afdea814610193578063d4aae0c4146101a8575b60006127105a10156100ca5760003411801561006d575036155b151561007857600080fd5b6100806101bd565b151561008b57600080fd5b6040805133815234602082015281517f15eeaa57c7bd188c1388020bcadc2c436ec60d647d36ef5b9eb3c742217ddee1929181900390910190a161010f565b6100d26101ed565b905061010f816000368080601f016020809104026020016040519081016040528093929190818152602001838380828437506101f7945050505050565b50005b34801561011e57600080fd5b50610127610238565b60408051918252519081900360200190f35b34801561014557600080fd5b5061014e6101bd565b604080519115158252519081900360200190f35b34801561016e57600080fd5b506101776101ed565b60408051600160a060020a039092168252519081900360200190f35b34801561019f57600080fd5b5061012761023d565b3480156101b457600080fd5b50610177610268565b60006101e87f665fd576fbbe6f247aff98f5c94a561e3f71ec2d3c988d56f12d342396c50cea61028f565b905090565b60006101e8610293565b6000610202836102be565b151561020d57600080fd5b612710905060008083516020850186855a03f43d604051816000823e828015610234578282f35b8282fd5b600190565b60006101e87fd625496217aa6a3453eecb9c3489dc5a53e6c67b444329ea2b2cbc9ff547639b61028f565b60006101e87f4172f0f7d2289153072b0a6ca36959e0cbe2efc3afe50fc81636caa96338137b5b5490565b60006101e87fdee64df20d65e53d7f51cb6ab6d921a0a6a638a91e942e1d8d02df28e31c038e61028f565b600080600160a060020a03831615156102da57600091506102e5565b823b90506000811191505b50919050565b5490565b9055565b90555600a165627a7a72305820285a43b24043b2883d937c760aaa11e349815dcbb4b7959b31a650edbaa3609a00294172f0f7d2289153072b0a6ca36959e0cbe2efc3afe50fc81636caa96338137bdee64df20d65e53d7f51cb6ab6d921a0a6a638a91e942e1d8d02df28e31c038e",
  "source": "pragma solidity 0.4.24;\n\nimport \"../common/UnstructuredStorage.sol\";\nimport \"../common/IsContract.sol\";\nimport \"./AppProxyBase.sol\";\n\n\ncontract AppProxyPinned is IsContract, AppProxyBase {\n    using UnstructuredStorage for bytes32;\n\n    // keccak256(\"aragonOS.appStorage.pinnedCode\")\n    bytes32 internal constant PINNED_CODE_POSITION = 0xdee64df20d65e53d7f51cb6ab6d921a0a6a638a91e942e1d8d02df28e31c038e;\n\n    /**\n    * @dev Initialize AppProxyPinned (makes it an un-upgradeable Aragon app)\n    * @param _kernel Reference to organization kernel for the app\n    * @param _appId Identifier for app\n    * @param _initializePayload Payload for call to be made after setup to initialize\n    */\n    constructor(IKernel _kernel, bytes32 _appId, bytes _initializePayload)\n        AppProxyBase(_kernel, _appId, _initializePayload)\n        public // solium-disable-line visibility-first\n    {\n        setPinnedCode(getAppBase(_appId));\n        require(isContract(pinnedCode()));\n    }\n\n    /**\n     * @dev ERC897, the address the proxy would delegate calls to\n     */\n    function implementation() public view returns (address) {\n        return pinnedCode();\n    }\n\n    /**\n     * @dev ERC897, whether it is a forwarding (1) or an upgradeable (2) proxy\n     */\n    function proxyType() public pure returns (uint256 proxyTypeId) {\n        return FORWARDING;\n    }\n\n    function setPinnedCode(address _pinnedCode) internal {\n        PINNED_CODE_POSITION.setStorageAddress(_pinnedCode);\n    }\n\n    function pinnedCode() internal view returns (address) {\n        return PINNED_CODE_POSITION.getStorageAddress();\n    }\n}\n",
  "sourcePath": "@aragon/os/contracts/apps/AppProxyPinned.sol",
  "compiler": {
    "name": "solc",
    "version": "0.4.24+commit.e67f0147.Emscripten.clang"
  },
  "schemaVersion": "3.4.2",
  "updatedAt": "2021-10-14T14:14:04.182Z",
  "devdoc": {
    "methods": {
      "implementation()": {
        "details": "ERC897, the address the proxy would delegate calls to"
      },
      "proxyType()": {
        "details": "ERC897, whether it is a forwarding (1) or an upgradeable (2) proxy"
      }
    }
  },
  "userdoc": {
    "methods": {}
  }
}