{
  "contractName": "AppStorage",
  "abi": [
    {
      "constant": true,
      "inputs": [],
      "name": "kernel",
      "outputs": [
        {
          "name": "",
          "type": "address"
        }
      ],
      "payable": false,
      "stateMutability": "view",
      "type": "function"
    },
    {
      "constant": true,
      "inputs": [],
      "name": "appId",
      "outputs": [
        {
          "name": "",
          "type": "bytes32"
        }
      ],
      "payable": false,
      "stateMutability": "view",
      "type": "function"
    }
  ],
  "bytecode": "0x608060405234801561001057600080fd5b5061010a806100206000396000f300608060405260043610602f5763ffffffff60e060020a60003504166380afdea881146034578063d4aae0c4146058575b600080fd5b348015603f57600080fd5b5060466086565b60408051918252519081900360200190f35b348015606357600080fd5b50606a60b4565b60408051600160a060020a039092168252519081900360200190f35b600060af7fd625496217aa6a3453eecb9c3489dc5a53e6c67b444329ea2b2cbc9ff547639b60da565b905090565b600060af7f4172f0f7d2289153072b0a6ca36959e0cbe2efc3afe50fc81636caa96338137b5b54905600a165627a7a723058205fb293d6c77cf0249ce49dcbc51395c5088d12912e350ac0912c56de4ed0e8540029",
  "source": "/*\n * SPDX-License-Identitifer:    MIT\n */\n\npragma solidity ^0.4.24;\n\nimport \"../common/UnstructuredStorage.sol\";\nimport \"../kernel/IKernel.sol\";\n\n\ncontract AppStorage {\n    using UnstructuredStorage for bytes32;\n\n    /* Hardcoded constants to save gas\n    bytes32 internal constant KERNEL_POSITION = keccak256(\"aragonOS.appStorage.kernel\");\n    bytes32 internal constant APP_ID_POSITION = keccak256(\"aragonOS.appStorage.appId\");\n    */\n    bytes32 internal constant KERNEL_POSITION = 0x4172f0f7d2289153072b0a6ca36959e0cbe2efc3afe50fc81636caa96338137b;\n    bytes32 internal constant APP_ID_POSITION = 0xd625496217aa6a3453eecb9c3489dc5a53e6c67b444329ea2b2cbc9ff547639b;\n\n    function kernel() public view returns (IKernel) {\n        return IKernel(KERNEL_POSITION.getStorageAddress());\n    }\n\n    function appId() public view returns (bytes32) {\n        return APP_ID_POSITION.getStorageBytes32();\n    }\n\n    function setKernel(IKernel _kernel) internal {\n        KERNEL_POSITION.setStorageAddress(address(_kernel));\n    }\n\n    function setAppId(bytes32 _appId) internal {\n        APP_ID_POSITION.setStorageBytes32(_appId);\n    }\n}\n",
  "sourcePath": "@aragon/os/contracts/apps/AppStorage.sol",
  "compiler": {
    "name": "solc",
    "version": "0.4.24+commit.e67f0147.Emscripten.clang"
  },
  "schemaVersion": "3.4.2",
  "updatedAt": "2021-10-14T14:14:04.186Z",
  "devdoc": {
    "methods": {}
  },
  "userdoc": {
    "methods": {}
  }
}