{
  "contractName": "AragonApp",
  "abi": [
    {
      "constant": true,
      "inputs": [],
      "name": "hasInitialized",
      "outputs": [
        {
          "name": "",
          "type": "bool"
        }
      ],
      "payable": false,
      "stateMutability": "view",
      "type": "function"
    },
    {
      "constant": true,
      "inputs": [
        {
          "name": "_script",
          "type": "bytes"
        }
      ],
      "name": "getEVMScriptExecutor",
      "outputs": [
        {
          "name": "",
          "type": "address"
        }
      ],
      "payable": false,
      "stateMutability": "view",
      "type": "function"
    },
    {
      "constant": true,
      "inputs": [
        {
          "name": "token",
          "type": "address"
        }
      ],
      "name": "allowRecoverability",
      "outputs": [
        {
          "name": "",
          "type": "bool"
        }
      ],
      "payable": false,
      "stateMutability": "view",
      "type": "function"
    },
    {
      "constant": true,
      "inputs": [],
      "name": "appId",
      "outputs": [
        {
          "name": "",
          "type": "bytes32"
        }
      ],
      "payable": false,
      "stateMutability": "view",
      "type": "function"
    },
    {
      "constant": true,
      "inputs": [],
      "name": "getInitializationBlock",
      "outputs": [
        {
          "name": "",
          "type": "uint256"
        }
      ],
      "payable": false,
      "stateMutability": "view",
      "type": "function"
    },
    {
      "constant": false,
      "inputs": [
        {
          "name": "_token",
          "type": "address"
        }
      ],
      "name": "transferToVault",
      "outputs": [],
      "payable": false,
      "stateMutability": "nonpayable",
      "type": "function"
    },
    {
      "constant": true,
      "inputs": [],
      "name": "getEVMScriptRegistry",
      "outputs": [
        {
          "name": "",
          "type": "address"
        }
      ],
      "payable": false,
      "stateMutability": "view",
      "type": "function"
    },
    {
      "constant": true,
      "inputs": [],
      "name": "kernel",
      "outputs": [
        {
          "name": "",
          "type": "address"
        }
      ],
      "payable": false,
      "stateMutability": "view",
      "type": "function"
    },
    {
      "constant": true,
      "inputs": [],
      "name": "isPetrified",
      "outputs": [
        {
          "name": "",
          "type": "bool"
        }
      ],
      "payable": false,
      "stateMutability": "view",
      "type": "function"
    },
    {
      "anonymous": false,
      "inputs": [
        {
          "indexed": true,
          "name": "executor",
          "type": "address"
        },
        {
          "indexed": false,
          "name": "script",
          "type": "bytes"
        },
        {
          "indexed": false,
          "name": "input",
          "type": "bytes"
        },
        {
          "indexed": false,
          "name": "returnData",
          "type": "bytes"
        }
      ],
      "name": "ScriptResult",
      "type": "event"
    },
    {
      "anonymous": false,
      "inputs": [
        {
          "indexed": true,
          "name": "vault",
          "type": "address"
        },
        {
          "indexed": true,
          "name": "token",
          "type": "address"
        },
        {
          "indexed": false,
          "name": "amount",
          "type": "uint256"
        }
      ],
      "name": "RecoverToVault",
      "type": "event"
    },
    {
      "constant": true,
      "inputs": [
        {
          "name": "_sender",
          "type": "address"
        },
        {
          "name": "_role",
          "type": "bytes32"
        },
        {
          "name": "_params",
          "type": "uint256[]"
        }
      ],
      "name": "canPerform",
      "outputs": [
        {
          "name": "",
          "type": "bool"
        }
      ],
      "payable": false,
      "stateMutability": "view",
      "type": "function"
    },
    {
      "constant": true,
      "inputs": [],
      "name": "getRecoveryVault",
      "outputs": [
        {
          "name": "",
          "type": "address"
        }
      ],
      "payable": false,
      "stateMutability": "view",
      "type": "function"
    }
  ],
  "bytecode": "0x6080604052620000176401000000006200001d810204565b6200023b565b6200003064010000000062000125810204565b60408051808201909152601881527f494e49545f414c52454144595f494e495449414c495a45440000000000000000602082015290156200010c576040517f08c379a00000000000000000000000000000000000000000000000000000000081526004018080602001828103825283818151815260200191508051906020019080838360005b83811015620000d0578181015183820152602001620000b6565b50505050905090810190601f168015620000fe5780820380516001836020036101000a031916815260200191505b509250505060405180910390fd5b506200012360001964010000000062000154810204565b565b60006200014f60008051602062000dd28339815191526401000000006200094f6200023382021704565b905090565b6200016764010000000062000125810204565b60408051808201909152601881527f494e49545f414c52454144595f494e495449414c495a454400000000000000006020820152901562000206576040517f08c379a000000000000000000000000000000000000000000000000000000000815260040180806020018281038252838181518152602001915080519060200190808383600083811015620000d0578181015183820152602001620000b6565b506200023060008051602062000dd28339815191528264010000000062000b576200023782021704565b50565b5490565b9055565b610b87806200024b6000396000f3006080604052600436106100955763ffffffff60e060020a6000350416630803fac0811461009a5780632914b9bd146100c357806332f0a3b5146101385780637e7db6e11461014d57806380afdea81461016e5780638b3dd749146101955780639d4941d8146101aa578063a1658fad146101cd578063a479e50814610234578063d4aae0c414610249578063de4796ed1461025e575b600080fd5b3480156100a657600080fd5b506100af610273565b604080519115158252519081900360200190f35b3480156100cf57600080fd5b506040805160206004803580820135601f810184900484028501840190955284845261011c94369492936024939284019190819084018382808284375094975061029c9650505050505050565b60408051600160a060020a039092168252519081900360200190f35b34801561014457600080fd5b5061011c610382565b34801561015957600080fd5b506100af600160a060020a03600435166103fa565b34801561017a57600080fd5b50610183610400565b60408051918252519081900360200190f35b3480156101a157600080fd5b50610183610430565b3480156101b657600080fd5b506101cb600160a060020a036004351661045b565b005b3480156101d957600080fd5b5060408051602060046044358181013583810280860185019096528085526100af958335600160a060020a031695602480359636969560649593949201929182918501908490808284375094975061071e9650505050505050565b34801561024057600080fd5b5061011c61086e565b34801561025557600080fd5b5061011c61090d565b34801561026a57600080fd5b506100af610938565b60008061027e610430565b9050801580159061029657508061029361094b565b10155b91505090565b60006102a661086e565b600160a060020a03166304bf2a7f836040518263ffffffff1660e060020a0281526004018080602001828103825283818151815260200191508051906020019080838360005b838110156103045781810151838201526020016102ec565b50505050905090810190601f1680156103315780820380516001836020036101000a031916815260200191505b5092505050602060405180830381600087803b15801561035057600080fd5b505af1158015610364573d6000803e3d6000fd5b505050506040513d602081101561037a57600080fd5b505192915050565b600061038c61090d565b600160a060020a03166332f0a3b56040518163ffffffff1660e060020a028152600401602060405180830381600087803b1580156103c957600080fd5b505af11580156103dd573d6000803e3d6000fd5b505050506040513d60208110156103f357600080fd5b5051905090565b50600190565b600061042b7fd625496217aa6a3453eecb9c3489dc5a53e6c67b444329ea2b2cbc9ff547639b61094f565b905090565b600061042b7febb05b386a8d34882b8711d156f463690983dc47815980fb82aeeff1aa43579e61094f565b6000806000610469846103fa565b6040805180820190915260128152607260020a71149150d3d5915497d11254d0531313d5d1510260208201529015156105235760405160e560020a62461bcd0281526004018080602001828103825283818151815260200191508051906020019080838360005b838110156104e85781810151838201526020016104d0565b50505050905090810190601f1680156105155780820380516001836020036101000a031916815260200191505b509250505060405180910390fd5b5061052c610382565b925061053783610957565b60408051808201909152601a81527f5245434f5645525f5641554c545f4e4f545f434f4e545241435400000000000060208201529015156105bd5760405160e560020a62461bcd028152600401808060200182810382528381815181526020019150805190602001908083836000838110156104e85781810151838201526020016104d0565b50600160a060020a038416151561060e5760405130319250600160a060020a0384169083156108fc029084906000818181858888f19350505050158015610608573d6000803e3d6000fd5b506106cd565b5082610629600160a060020a0382163063ffffffff61098416565b9150610645600160a060020a038216848463ffffffff610a6e16565b60408051808201909152601d81527f5245434f5645525f544f4b454e5f5452414e534645525f4641494c454400000060208201529015156106cb5760405160e560020a62461bcd028152600401808060200182810382528381815181526020019150805190602001908083836000838110156104e85781810151838201526020016104d0565b505b83600160a060020a031683600160a060020a03167f596caf56044b55fb8c4ca640089bbc2b63cae3e978b851f5745cbb7c5b288e02846040518082815260200191505060405180910390a350505050565b600080610729610273565b15156107385760009150610866565b61074061090d565b9050600160a060020a038116151561075b5760009150610866565b80600160a060020a031663fdef910686308761077688610ace565b60405160e060020a63ffffffff8716028152600160a060020a03808616600483019081529085166024830152604482018490526080606483019081528351608484015283519192909160a490910190602085019080838360005b838110156107e85781810151838201526020016107d0565b50505050905090810190601f1680156108155780820380516001836020036101000a031916815260200191505b5095505050505050602060405180830381600087803b15801561083757600080fd5b505af115801561084b573d6000803e3d6000fd5b505050506040513d602081101561086157600080fd5b505191505b509392505050565b60008061087961090d565b6040805160e360020a6317c0177b0281527fd6f028ca0e8edb4a8c9757ca4fdccab25fa1e0317da1188108f7d2dee14902fb60048201527fddbcfd564f642ab5627cf68b9b7d374fb4f8a36e941a75d89c87998cef03bd6160248201529051600160a060020a03929092169163be00bbd8916044808201926020929091908290030181600087803b15801561035057600080fd5b600061042b7f4172f0f7d2289153072b0a6ca36959e0cbe2efc3afe50fc81636caa96338137b61094f565b6000600019610945610430565b14905090565b4390565b5490565b5490565b600080600160a060020a0383161515610973576000915061097e565b823b90506000811191505b50919050565b60408051600160a060020a038316602480830191909152825180830390910181526044909101909152602081018051600160e060020a031660e060020a6370a082310217905260009081806109d98684610ad8565b60408051808201909152601c81527f534146455f4552435f32305f42414c414e43455f52455645525445440000000060208201529193509150821515610a645760405160e560020a62461bcd028152600401808060200182810382528381815181526020019150805190602001908083836000838110156104e85781810151838201526020016104d0565b5095945050505050565b60408051600160a060020a03841660248201526044808201849052825180830390910181526064909101909152602081018051600160e060020a031660e060020a63a9059cbb02179052600090610ac58582610b09565b95945050505050565b8051602002815290565b6000806000806040516020818751602089018a5afa92506000831115610afd57805191505b50909590945092505050565b6000806040516020818551602087016000895af16000811115610b4d573d8015610b3a5760208114610b4357610b4b565b60019350610b4b565b600183511493505b505b5090949350505050565b90555600a165627a7a7230582005779e970951f627ea8c8d502d4a8c36ec535d39a8d7a35d078c341020e6f07c0029ebb05b386a8d34882b8711d156f463690983dc47815980fb82aeeff1aa43579e",
  "source": "/*\n * SPDX-License-Identitifer:    MIT\n */\n\npragma solidity ^0.4.24;\n\nimport \"./AppStorage.sol\";\nimport \"../acl/ACLSyntaxSugar.sol\";\nimport \"../common/Autopetrified.sol\";\nimport \"../common/ConversionHelpers.sol\";\nimport \"../common/ReentrancyGuard.sol\";\nimport \"../common/VaultRecoverable.sol\";\nimport \"../evmscript/EVMScriptRunner.sol\";\n\n\n// Contracts inheriting from AragonApp are, by default, immediately petrified upon deployment so\n// that they can never be initialized.\n// Unless overriden, this behaviour enforces those contracts to be usable only behind an AppProxy.\n// ReentrancyGuard, EVMScriptRunner, and ACLSyntaxSugar are not directly used by this contract, but\n// are included so that they are automatically usable by subclassing contracts\ncontract AragonApp is AppStorage, Autopetrified, VaultRecoverable, ReentrancyGuard, EVMScriptRunner, ACLSyntaxSugar {\n    string private constant ERROR_AUTH_FAILED = \"APP_AUTH_FAILED\";\n\n    modifier auth(bytes32 _role) {\n        require(canPerform(msg.sender, _role, new uint256[](0)), ERROR_AUTH_FAILED);\n        _;\n    }\n\n    modifier authP(bytes32 _role, uint256[] _params) {\n        require(canPerform(msg.sender, _role, _params), ERROR_AUTH_FAILED);\n        _;\n    }\n\n    /**\n    * @dev Check whether an action can be performed by a sender for a particular role on this app\n    * @param _sender Sender of the call\n    * @param _role Role on this app\n    * @param _params Permission params for the role\n    * @return Boolean indicating whether the sender has the permissions to perform the action.\n    *         Always returns false if the app hasn't been initialized yet.\n    */\n    function canPerform(address _sender, bytes32 _role, uint256[] _params) public view returns (bool) {\n        if (!hasInitialized()) {\n            return false;\n        }\n\n        IKernel linkedKernel = kernel();\n        if (address(linkedKernel) == address(0)) {\n            return false;\n        }\n\n        return linkedKernel.hasPermission(\n            _sender,\n            address(this),\n            _role,\n            ConversionHelpers.dangerouslyCastUintArrayToBytes(_params)\n        );\n    }\n\n    /**\n    * @dev Get the recovery vault for the app\n    * @return Recovery vault address for the app\n    */\n    function getRecoveryVault() public view returns (address) {\n        // Funds recovery via a vault is only available when used with a kernel\n        return kernel().getRecoveryVault(); // if kernel is not set, it will revert\n    }\n}\n",
  "sourcePath": "@aragon/os/contracts/apps/AragonApp.sol",
  "compiler": {
    "name": "solc",
    "version": "0.4.24+commit.e67f0147.Emscripten.clang"
  },
  "schemaVersion": "3.4.2",
  "updatedAt": "2021-10-14T14:14:04.190Z",
  "devdoc": {
    "methods": {
      "allowRecoverability(address)": {
        "details": "By default deriving from AragonApp makes it recoverable",
        "params": {
          "token": "Token address that would be recovered"
        },
        "return": "bool whether the app allows the recovery"
      },
      "canPerform(address,bytes32,uint256[])": {
        "details": "Check whether an action can be performed by a sender for a particular role on this app",
        "params": {
          "_params": "Permission params for the role",
          "_role": "Role on this app",
          "_sender": "Sender of the call"
        },
        "return": "Boolean indicating whether the sender has the permissions to perform the action.        Always returns false if the app hasn't been initialized yet."
      },
      "getInitializationBlock()": {
        "return": "Block number in which the contract was initialized"
      },
      "getRecoveryVault()": {
        "details": "Get the recovery vault for the app",
        "return": "Recovery vault address for the app"
      },
      "hasInitialized()": {
        "return": "Whether the contract has been initialized by the time of the current block"
      },
      "transferToVault(address)": {
        "params": {
          "_token": "Token balance to be sent to recovery vault."
        }
      }
    }
  },
  "userdoc": {
    "methods": {
      "transferToVault(address)": {
        "notice": "Send funds to recovery Vault. This contract should never receive funds,        but in case it does, this function allows one to recover them."
      }
    }
  }
}