{
  "contractName": "Autopetrified",
  "abi": [
    {
      "constant": true,
      "inputs": [],
      "name": "hasInitialized",
      "outputs": [
        {
          "name": "",
          "type": "bool"
        }
      ],
      "payable": false,
      "stateMutability": "view",
      "type": "function"
    },
    {
      "constant": true,
      "inputs": [],
      "name": "getInitializationBlock",
      "outputs": [
        {
          "name": "",
          "type": "uint256"
        }
      ],
      "payable": false,
      "stateMutability": "view",
      "type": "function"
    },
    {
      "constant": true,
      "inputs": [],
      "name": "isPetrified",
      "outputs": [
        {
          "name": "",
          "type": "bool"
        }
      ],
      "payable": false,
      "stateMutability": "view",
      "type": "function"
    },
    {
      "inputs": [],
      "payable": false,
      "stateMutability": "nonpayable",
      "type": "constructor"
    }
  ],
  "bytecode": "0x608060405234801561001057600080fd5b50610022640100000000610027810204565b610230565b610038640100000000610127810204565b60408051808201909152601881527f494e49545f414c52454144595f494e495449414c495a4544000000000000000060208201529015610110576040517f08c379a00000000000000000000000000000000000000000000000000000000081526004018080602001828103825283818151815260200191508051906020019080838360005b838110156100d55781810151838201526020016100bd565b50505050905090810190601f1680156101025780820380516001836020036101000a031916815260200191505b509250505060405180910390fd5b50610125600019640100000000610152810204565b565b600061014d60008051602061038a83398151915264010000000061011761022882021704565b905090565b610163640100000000610127810204565b60408051808201909152601881527f494e49545f414c52454144595f494e495449414c495a45440000000000000000602082015290156101ff576040517f08c379a0000000000000000000000000000000000000000000000000000000008152600401808060200182810382528381815181526020019150805190602001908083836000838110156100d55781810151838201526020016100bd565b5061022560008051602061038a8339815191528264010000000061011b61022c82021704565b50565b5490565b9055565b61014b8061023f6000396000f30060806040526004361061003d5763ffffffff60e060020a6000350416630803fac081146100425780638b3dd7491461006b578063de4796ed14610092575b600080fd5b34801561004e57600080fd5b506100576100a7565b604080519115158252519081900360200190f35b34801561007757600080fd5b506100806100d0565b60408051918252519081900360200190f35b34801561009e57600080fd5b50610057610100565b6000806100b26100d0565b905080158015906100ca5750806100c7610113565b10155b91505090565b60006100fb7febb05b386a8d34882b8711d156f463690983dc47815980fb82aeeff1aa43579e610117565b905090565b600060001961010d6100d0565b14905090565b4390565b5490565b90555600a165627a7a72305820ddb502674e92527a87290c5032761cb97e11e145e67bc87c4a1f9ce85268ec560029ebb05b386a8d34882b8711d156f463690983dc47815980fb82aeeff1aa43579e",
  "source": "/*\n * SPDX-License-Identitifer:    MIT\n */\n\npragma solidity ^0.4.24;\n\nimport \"./Petrifiable.sol\";\n\n\ncontract Autopetrified is Petrifiable {\n    constructor() public {\n        // Immediately petrify base (non-proxy) instances of inherited contracts on deploy.\n        // This renders them uninitializable (and unusable without a proxy).\n        petrify();\n    }\n}\n",
  "sourcePath": "@aragon/os/contracts/common/Autopetrified.sol",
  "compiler": {
    "name": "solc",
    "version": "0.4.24+commit.e67f0147.Emscripten.clang"
  },
  "schemaVersion": "3.4.2",
  "updatedAt": "2021-10-14T14:14:04.193Z",
  "devdoc": {
    "methods": {
      "getInitializationBlock()": {
        "return": "Block number in which the contract was initialized"
      },
      "hasInitialized()": {
        "return": "Whether the contract has been initialized by the time of the current block"
      }
    }
  },
  "userdoc": {
    "methods": {}
  }
}