{
  "contractName": "BiaTemplate",
  "abi": [
    {
      "inputs": [
        {
          "name": "_deployedSetupContracts",
          "type": "address[4]"
        }
      ],
      "payable": false,
      "stateMutability": "nonpayable",
      "type": "constructor"
    },
    {
      "anonymous": false,
      "inputs": [
        {
          "indexed": false,
          "name": "dao",
          "type": "address"
        }
      ],
      "name": "DeployDao",
      "type": "event"
    },
    {
      "anonymous": false,
      "inputs": [
        {
          "indexed": false,
          "name": "token",
          "type": "address"
        }
      ],
      "name": "DeployToken",
      "type": "event"
    },
    {
      "anonymous": false,
      "inputs": [
        {
          "indexed": false,
          "name": "appProxy",
          "type": "address"
        },
        {
          "indexed": false,
          "name": "appId",
          "type": "bytes32"
        }
      ],
      "name": "InstalledApp",
      "type": "event"
    },
    {
      "anonymous": false,
      "inputs": [
        {
          "indexed": false,
          "name": "dao",
          "type": "address"
        }
      ],
      "name": "SetupDao",
      "type": "event"
    },
    {
      "constant": false,
      "inputs": [
        {
          "name": "_id",
          "type": "string"
        },
        {
          "name": "_name1",
          "type": "string"
        },
        {
          "name": "_symbol1",
          "type": "string"
        },
        {
          "name": "_name2",
          "type": "string"
        },
        {
          "name": "_symbol2",
          "type": "string"
        },
        {
          "name": "_votingSettings",
          "type": "uint64[6]"
        },
        {
          "name": "_votingBools",
          "type": "bool[2]"
        }
      ],
      "name": "newTokensAndInstance",
      "outputs": [],
      "payable": false,
      "stateMutability": "nonpayable",
      "type": "function"
    },
    {
      "constant": false,
      "inputs": [
        {
          "name": "_members1",
          "type": "address[]"
        },
        {
          "name": "_stakes1",
          "type": "uint256[]"
        },
        {
          "name": "_members2",
          "type": "address[]"
        },
        {
          "name": "_stakes2",
          "type": "uint256[]"
        }
      ],
      "name": "newTokenManagers",
      "outputs": [],
      "payable": false,
      "stateMutability": "nonpayable",
      "type": "function"
    },
    {
      "constant": false,
      "inputs": [
        {
          "name": "_redemptionsRedeemableTokens",
          "type": "address[]"
        },
        {
          "name": "_tokenRequestAcceptedDepositTokens",
          "type": "address[]"
        },
        {
          "name": "_appSettings",
          "type": "uint64[3]"
        }
      ],
      "name": "finalizeDao",
      "outputs": [],
      "payable": false,
      "stateMutability": "nonpayable",
      "type": "function"
    },
    {
      "constant": false,
      "inputs": [
        {
          "name": "_name1",
          "type": "string"
        },
        {
          "name": "_symbol1",
          "type": "string"
        },
        {
          "name": "_name2",
          "type": "string"
        },
        {
          "name": "_symbol2",
          "type": "string"
        }
      ],
      "name": "newTokens",
      "outputs": [
        {
          "name": "",
          "type": "address"
        },
        {
          "name": "",
          "type": "address"
        }
      ],
      "payable": false,
      "stateMutability": "nonpayable",
      "type": "function"
    }
  ],
  "bytecode": "0x60e06040526000608081815260a082905260c091909152620000269060089060036200042b565b503480156200003457600080fd5b5060405160808062004e36833981016040908152815160208301519183015160608401518493849392909162000073846401000000006200028e810204565b60408051808201909152601d81527f54454d504c4154455f44414f5f4641435f4e4f545f434f4e5452414354000000602082015290151562000150576040517f08c379a00000000000000000000000000000000000000000000000000000000081526004018080602001828103825283818151815260200191508051906020019080838360005b8381101562000114578181015183820152602001620000fa565b50505050905090810190601f168015620001425780820380516001836020036101000a031916815260200191505b509250505060405180910390fd5b5062000165836401000000006200028e810204565b60408051808201909152601981527f54454d504c4154455f454e535f4e4f545f434f4e545241435400000000000000602082015290151562000205576040517f08c379a00000000000000000000000000000000000000000000000000000000081526004018080602001828103825283818151815260200191508051906020019080838360008381101562000114578181015183820152602001620000fa565b5060028054600160a060020a0319908116600160a060020a039384161790915560008054821695831695909517909455600180548516938216939093179092556003805490931691161781556200026d915082906020020151640100000000620002bd810204565b6040810151620002869064010000000062000375810204565b5050620004bf565b600080600160a060020a0383161515620002ac5760009150620002b7565b823b90506000811191505b50919050565b620002d1816401000000006200028e810204565b60408051808201909152601f81527f54454d504c4154455f415241474f4e5f49445f4e4f545f434f4e545241435400602082015290151562000371576040517f08c379a00000000000000000000000000000000000000000000000000000000081526004018080602001828103825283818151815260200191508051906020019080838360008381101562000114578181015183820152602001620000fa565b5050565b62000389816401000000006200028e810204565b6040805190810160405280602081526020017f54454d504c4154455f4d494e494d455f4641435f4e4f545f434f4e545241435481525090151562000371576040517f08c379a00000000000000000000000000000000000000000000000000000000081526004018080602001828103825283818151815260200191508051906020019080838360008381101562000114578181015183820152602001620000fa565b82805482825590600052602060002090810192821562000483579160200282015b82811115620004835782518254600160a060020a031916600160a060020a039091161782556020909201916001909101906200044c565b506200049192915062000495565b5090565b620004bc91905b8082111562000491578054600160a060020a03191681556001016200049c565b90565b61496780620004cf6000396000f3006080604052600436106100485763ffffffff60e060020a600035041663124db3b0811461004d5780636ed8a55e14610186578063a1e1db5914610288578063ffae94b31461033c575b600080fd5b34801561005957600080fd5b506040805160206004803580820135601f810184900484028501840190955284845261016094369492936024939284019190819084018382808284375050604080516020601f89358b018035918201839004830284018301909452808352979a99988101979196509182019450925082915084018382808284375050604080516020601f89358b018035918201839004830284018301909452808352979a99988101979196509182019450925082915084018382808284375050604080516020601f89358b018035918201839004830284018301909452808352979a9998810197919650918201945092508291508401838280828437509497506103919650505050505050565b60408051600160a060020a03938416815291909216602082015281519081900390910190f35b34801561019257600080fd5b506040805160206004803580820135838102808601850190965280855261028695369593946024949385019291829185019084908082843750506040805187358901803560208181028481018201909552818452989b9a998901989297509082019550935083925085019084908082843750506040805187358901803560208181028481018201909552818452989b9a998901989297509082019550935083925085019084908082843750506040805187358901803560208181028481018201909552818452989b9a9989019892975090820195509350839250850190849080828437509497506103cb9650505050505050565b005b34801561029457600080fd5b506040805160206004803580820135838102808601850190965280855261028695369593946024949385019291829185019084908082843750506040805187358901803560208181028481018201909552818452989b9a99890198929750908201955093508392508501908490808284375050604080516060818101909252959897968181019695509350600392508491508390808284375093965061047295505050505050565b34801561034857600080fd5b50610286602460048035828101929082013591813580830192908201359160443580830192908201359160643580830192908201359160843591820191013560a46101646105a1565b6000806000806103a388886012610702565b91506103b186866012610702565b90506103be82823361098c565b9097909650945050505050565b6000806000806000806000806103e18c8c6109cb565b6103eb8a8a6109cb565b6103f433610af6565b975097509750975061040533610b53565b93509350610417878560016000610b90565b9150610427878460016000610b90565b905061043588838e8e610cb6565b61044188828c8c610cb6565b61044e8888888833610e69565b61045984843361098c565b610464828233610ece565b505050505050505050505050565b6000806000806000806000806104866148a7565b61048f33610af6565b98509850985098506104a033610b53565b945094506104ad33610f0d565b600160a060020a038281166101008501528181166101208501528981166060850152881660808401528b5191945092506104ea9089908790610f4a565b600160a060020a0316815261050788878c60016020020151610fd6565b600160a060020a0316602082015261051f8887611059565b600160a060020a03166040820152610539888d89856110d5565b600160a060020a031660a0820152610553888c89856111c5565b600160a060020a031660c0820152610572888b6002602002015161126b565b600160a060020a031660e082015261058b838333610ece565b61059685853361098c565b610464898983611315565b6000806106768c8c8080601f0160208091040260200160405190810160405280939291908181526020018383808284378201915050505050508b8b8080601f0160208091040260200160405190810160405280939291908181526020018383808284378201915050505050508a8a8080601f01602080910402602001604051908101604052809392919081815260200183838082843782019150505050505089898080601f01602080910402602001604051908101604052809392919081815260200183838082843750610391945050505050565b915091506106f28e8e8080601f01602080910402602001604051908101604052809392919081815260200183838082843750506040805160c081810190925294508a935060069250849150839080828437505060408051808201825293508992506002915083908390808284378201915050505050858561157f565b5050505050505050505050505050565b6003546040805180820190915260208082527f54454d504c4154455f4d494e494d455f4641435f4e4f545f50524f564944454490820152600091829190600160a060020a031615156107d55760405160e560020a62461bcd0281526004018080602001828103825283818151815260200191508051906020019080838360005b8381101561079a578181015183820152602001610782565b50505050905090810190601f1680156107c75780820380516001836020036101000a031916815260200191505b509250505060405180910390fd5b5060035460405160e060020a635b7b72c10281526000600482018181526024830182905260ff87166064840152600160a4840181905260c0604485019081528a5160c48601528a51600160a060020a0390961695635b7b72c19585948d948c948e9491939091608482019160e4019060208901908083838d5b8381101561086657818101518382015260200161084e565b50505050905090810190601f1680156108935780820380516001836020036101000a031916815260200191505b50838103825285518152855160209182019187019080838360005b838110156108c65781810151838201526020016108ae565b50505050905090810190601f1680156108f35780820380516001836020036101000a031916815260200191505b5098505050505050505050602060405180830381600087803b15801561091857600080fd5b505af115801561092c573d6000803e3d6000fd5b505050506040513d602081101561094257600080fd5b505160408051600160a060020a038316815290519192507fd18525bc6595a90cc21e9fbd517ada6fc07a7e87b7d2cdb6ee9284c450ebffa4919081900360200190a1949350505050565b600160a060020a0390811660009081526005602052604090208054938216600160a060020a031994851617815560010180549290911691909216179055565b815160408051808201909152601f81527f4f50454e5f454e54455250524953455f4d495353494e475f4d454d4245525300602082015290600010610a545760405160e560020a62461bcd0281526004018080602001828103825283818151815260200191508051906020019080838360008381101561079a578181015183820152602001610782565b508051825160408051606081018252602581527f4f50454e5f454e54455250524953455f4241445f4d454d4245525f5354414b45602082015260d960020a6429afa622a702918101919091529114610af15760405160e560020a62461bcd0281526004018080602001828103825283818151815260200191508051906020019080838360008381101561079a578181015183820152602001610782565b505050565b600160a060020a0390811660009081526004602052604090208054600182018054600284018054600386018054600160a060020a031980881690985587851690955586821690925594831690559184169491841693928316921690565b600160a060020a0390811660009081526005602052604090208054600182018054600160a060020a03198084169094559283169055821692911690565b60008080610bbe877f6b20a3010614eeebf2138ccec99f028a61c811b3b1a3343b6ff635985c75c91f611658565b915081905085600160a060020a0316633cebb823826040518263ffffffff1660e060020a0281526004018082600160a060020a0316600160a060020a03168152602001915050600060405180830381600087803b158015610c1e57600080fd5b505af1158015610c32573d6000803e3d6000fd5b50506040805160e060020a63e37ff29f028152600160a060020a038a811660048301528915156024830152604482018990529151918516935063e37ff29f925060648082019260009290919082900301818387803b158015610c9357600080fd5b505af1158015610ca7573d6000803e3d6000fd5b50929998505050505050505050565b6000610d2c858586600160a060020a031663e9a9c8506040518163ffffffff1660e060020a028152600401602060405180830381600087803b158015610cfb57600080fd5b505af1158015610d0f573d6000803e3d6000fd5b505050506040513d6020811015610d2557600080fd5b505161167c565b5060005b8251811015610dee5783600160a060020a03166340c10f198483815181101515610d5657fe5b906020019060200201518484815181101515610d6e57fe5b906020019060200201516040518363ffffffff1660e060020a0281526004018083600160a060020a0316600160a060020a0316815260200182815260200192505050600060405180830381600087803b158015610dca57600080fd5b505af1158015610dde573d6000803e3d6000fd5b505060019092019150610d309050565b610e62858586600160a060020a031663e9a9c8506040518163ffffffff1660e060020a028152600401602060405180830381600087803b158015610e3157600080fd5b505af1158015610e45573d6000803e3d6000fd5b505050506040513d6020811015610e5b57600080fd5b50516116fe565b5050505050565b600160a060020a0390811660009081526004602052604090208054600160a060020a0319908116968316969096178155600181018054871695831695909517909455600384018054861692821692909217909155600290920180549093169116179055565b600160a060020a0390811660009081526006602052604090208054938216600160a060020a031994851617815560010180549290911691909216179055565b600160a060020a0390811660009081526006602052604090208054600182018054600160a060020a03198084169094559283169055821692911690565b60408051600160a060020a03841660248201526001604060020a038316604480830191909152825180830390910181526064909101909152602081018051600160e060020a031660e060020a631798de8102179052600090610fcd857f370ef8036e8769f293a3d9c1362d0e21bdfa4e0465d2cd9cf196ebd4ba75aa8b836117c6565b95945050505050565b60408051600160a060020a03841660248201526001604060020a038316604480830191909152825180830390910181526064909101909152602081018051600160e060020a031660e060020a631798de8102179052600090610fcd857fbf8491150dafc5dcaee5b861414dca922de09ccffa344964ae167212e8c673ae836117c6565b60408051600160a060020a038316602480830191909152825180830390910181526044909101909152602081018051600160e060020a031660e360020a63189acdbd021790526000906110cd847f3ca69801a60916e9222ceb2fa3089b3f66b4e1b3fc49f4a562043d9ec1e5a00b836117c6565b949350505050565b600080611102867f743bd419d5c9061290b181b19e114f36e9cc9ddb42b4e54fc811edb22eb85e9d6117d5565b60405160e160020a633bd1279b028152600160a060020a03868116600483019081528682166024840152606060448401908152895160648501528951949550918516936377a24f3693899389938c939092608401906020808601910280838360005b8381101561117c578181015183820152602001611164565b50505050905001945050505050600060405180830381600087803b1580156111a357600080fd5b505af11580156111b7573d6000803e3d6000fd5b509298975050505050505050565b6000806111f2867f35202e36ef42162f9847025dfc040c60bfa5d7c5c373cb28e30849e1db16ba776117d5565b60405160e160020a633bd1279b028152600160a060020a03858116600483019081528782166024840152606060448401908152895160648501528951949550918516936377a24f369388938a938c939092608401906020808601910280838360008381101561117c578181015183820152602001611164565b600080611298847f1c2b93ad1c4d4302f0169c8f596ce518e4a3324b1fed90c2d80a549a072bcd4e6117d5565b905080600160a060020a031663eb92db27846040518263ffffffff1660e060020a02815260040180826001604060020a03166001604060020a03168152602001915050600060405180830381600087803b1580156112f557600080fd5b505af1158015611309573d6000803e3d6000fd5b50929695505050505050565b60008060006113258686866118a6565b61132e3361194b565b50509250925061133d33610b53565b5090506113518685600001518585866119a5565b61135c868384611e60565b61136c86856020015184856120ba565b61137c8685602001518485612282565b61138c86856040015184856122d1565b6113a0868560800151866020015130612320565b6113b88685608001518660000151876040015161236f565b6113ce868560a001518485886101200151612523565b85600160a060020a031663be0384788560a0015186606001518760600151600160a060020a031663206b60f96040518163ffffffff1660e060020a028152600401602060405180830381600087803b15801561142957600080fd5b505af115801561143d573d6000803e3d6000fd5b505050506040513d602081101561145357600080fd5b50516040805160e060020a63ffffffff8716028152600160a060020a0394851660048201529284166024840152604483019190915291861660648201529051608480830192600092919082900301818387803b1580156114b257600080fd5b505af11580156114c6573d6000803e3d6000fd5b505050506114da868560c001518485612a87565b6114f0868560e001518485886101200151612da6565b61156d8685608001518660800151600160a060020a031663206b60f96040518163ffffffff1660e060020a028152600401602060405180830381600087803b15801561153b57600080fd5b505af115801561154f573d6000803e3d6000fd5b505050506040513d602081101561156557600080fd5b50518561323e565b611577858361330e565b505050505050565b6000806000806000806115918b61331d565b61159a8a61339f565b6115a26133e7565b955095506115af86613560565b93506115ba866135ba565b89519093506115e29087906115cf57896115d1565b885b8c5160208e015160408f015161365f565b9150611610868a600160200201516115fa57896115fc565b885b60608d015160808e015160a08f01516136fd565b905061161e85848384613790565b885160208a0151611634918491849190336138cf565b6116418587858733610e69565b61164b8b8761393f565b5050505050505050505050565b6040805160008082526020820190925261167590849084906117c6565b9392505050565b6040805160e360020a6317c0708f0281523060048201819052600160a060020a03858116602484015260448301859052606483019190915291519185169163be0384789160848082019260009290919082900301818387803b1580156116e157600080fd5b505af11580156116f5573d6000803e3d6000fd5b50505050505050565b6040805160e060020a639d0effdb028152306004820152600160a060020a03848116602483015260448201849052915191851691639d0effdb9160648082019260009290919082900301818387803b15801561175957600080fd5b505af115801561176d573d6000803e3d6000fd5b50506040805160e160020a635442a845028152600160a060020a038681166004830152602482018690529151918716935063a885508a925060448082019260009290919082900301818387803b1580156116e157600080fd5b60006110cd8484846000613b08565b60008083600160a060020a03166380cd5ac3846117f186613c4d565b6040805160e060020a63ffffffff86160281526004810193909352600160a060020a0390911660248301525160448083019260209291908290030181600087803b15801561183e57600080fd5b505af1158015611852573d6000803e3d6000fd5b505050506040513d602081101561186857600080fd5b505160408051600160a060020a038316815260208101869052815192935060008051602061491c833981519152929081900390910190a19392505050565b6000806000806118b53361194b565b93509350935093506118ce878661010001518586613e2e565b6118df878661012001518530613e2e565b6118f9878660c001518760a0015188610120015187613f6d565b61191b87858461190e57876101000151611915565b8761012001515b8661426e565b61193e8784858461193157886101000151611938565b8861012001515b876143ad565b6116f584848484336138cf565b600160a060020a0390811660009081526007602052604090208054600182018054600160a060020a03198316909355600160b060020a0319831690558216929181169160ff60a060020a830481169260a860020a90041690565b84600160a060020a031663be038478838687600160a060020a0316639b79219a6040518163ffffffff1660e060020a028152600401602060405180830381600087803b1580156119f457600080fd5b505af1158015611a08573d6000803e3d6000fd5b505050506040513d6020811015611a1e57600080fd5b50516040805160e060020a63ffffffff8716028152600160a060020a0394851660048201529284166024840152604483019190915291851660648201529051608480830192600092919082900301818387803b158015611a7d57600080fd5b505af1158015611a91573d6000803e3d6000fd5b5050505084600160a060020a031663be038478838687600160a060020a0316635b14dbc86040518163ffffffff1660e060020a028152600401602060405180830381600087803b158015611ae457600080fd5b505af1158015611af8573d6000803e3d6000fd5b505050506040513d6020811015611b0e57600080fd5b50516040805160e060020a63ffffffff8716028152600160a060020a0394851660048201529284166024840152604483019190915291851660648201529051608480830192600092919082900301818387803b158015611b6d57600080fd5b505af1158015611b81573d6000803e3d6000fd5b5050505084600160a060020a031663be038478848687600160a060020a03166371c2c2a46040518163ffffffff1660e060020a028152600401602060405180830381600087803b158015611bd457600080fd5b505af1158015611be8573d6000803e3d6000fd5b505050506040513d6020811015611bfe57600080fd5b50516040805160e060020a63ffffffff8716028152600160a060020a0394851660048201529284166024840152604483019190915291851660648201529051608480830192600092919082900301818387803b158015611c5d57600080fd5b505af1158015611c71573d6000803e3d6000fd5b5050505084600160a060020a031663be0384786000198687600160a060020a031663ac67d8516040518163ffffffff1660e060020a028152600401602060405180830381600087803b158015611cc657600080fd5b505af1158015611cda573d6000803e3d6000fd5b505050506040513d6020811015611cf057600080fd5b50516040805160e060020a63ffffffff8716028152600160a060020a0394851660048201529284166024840152604483019190915291851660648201529051608480830192600092919082900301818387803b158015611d4f57600080fd5b505af1158015611d63573d6000803e3d6000fd5b5050505084600160a060020a031663be0384786000198687600160a060020a0316630648bb476040518163ffffffff1660e060020a028152600401602060405180830381600087803b158015611db857600080fd5b505af1158015611dcc573d6000803e3d6000fd5b505050506040513d6020811015611de257600080fd5b50516040805160e060020a63ffffffff8716028152600160a060020a0394851660048201529284166024840152604483019190915291851660648201529051608480830192600092919082900301818387803b158015611e4157600080fd5b505af1158015611e55573d6000803e3d6000fd5b505050505050505050565b600083600160a060020a031663a479e5086040518163ffffffff1660e060020a028152600401602060405180830381600087803b158015611ea057600080fd5b505af1158015611eb4573d6000803e3d6000fd5b505050506040513d6020811015611eca57600080fd5b50516040805160e260020a632f63f7870281529051919250600160a060020a038087169263be03847892879286929083169163bd8fde1c9160048083019260209291908290030181600087803b158015611f2357600080fd5b505af1158015611f37573d6000803e3d6000fd5b505050506040513d6020811015611f4d57600080fd5b50516040805160e060020a63ffffffff8716028152600160a060020a0394851660048201529284166024840152604483019190915291861660648201529051608480830192600092919082900301818387803b158015611fac57600080fd5b505af1158015611fc0573d6000803e3d6000fd5b5050505083600160a060020a031663be038478848384600160a060020a03166319f3d10f6040518163ffffffff1660e060020a028152600401602060405180830381600087803b15801561201357600080fd5b505af1158015612027573d6000803e3d6000fd5b505050506040513d602081101561203d57600080fd5b50516040805160e060020a63ffffffff8716028152600160a060020a0394851660048201529284166024840152604483019190915291861660648201529051608480830192600092919082900301818387803b15801561209c57600080fd5b505af11580156120b0573d6000803e3d6000fd5b5050505050505050565b83600160a060020a031663be038478838586600160a060020a031663981cc3426040518163ffffffff1660e060020a028152600401602060405180830381600087803b15801561210957600080fd5b505af115801561211d573d6000803e3d6000fd5b505050506040513d602081101561213357600080fd5b50516040805160e060020a63ffffffff8716028152600160a060020a0394851660048201529284166024840152604483019190915291851660648201529051608480830192600092919082900301818387803b15801561219257600080fd5b505af11580156121a6573d6000803e3d6000fd5b5050505083600160a060020a031663be038478838586600160a060020a031663e94ebac56040518163ffffffff1660e060020a028152600401602060405180830381600087803b1580156121f957600080fd5b505af115801561220d573d6000803e3d6000fd5b505050506040513d602081101561222357600080fd5b50516040805160e060020a63ffffffff8716028152600160a060020a0394851660048201529284166024840152604483019190915291851660648201529051608480830192600092919082900301818387803b15801561209c57600080fd5b83600160a060020a031663be038478838586600160a060020a0316630842ace46040518163ffffffff1660e060020a028152600401602060405180830381600087803b1580156121f957600080fd5b83600160a060020a031663be038478838586600160a060020a031663e70ef4446040518163ffffffff1660e060020a028152600401602060405180830381600087803b1580156121f957600080fd5b83600160a060020a031663be038478838586600160a060020a031663206b60f96040518163ffffffff1660e060020a028152600401602060405180830381600087803b1580156121f957600080fd5b83600160a060020a0316630a8ed3db838586600160a060020a031663206b60f96040518163ffffffff1660e060020a028152600401602060405180830381600087803b1580156123be57600080fd5b505af11580156123d2573d6000803e3d6000fd5b505050506040513d60208110156123e857600080fd5b50516040805160e060020a63ffffffff8716028152600160a060020a03948516600482015292909316602483015260448201529051606480830192600092919082900301818387803b15801561243d57600080fd5b505af1158015612451573d6000803e3d6000fd5b5050505083600160a060020a0316630a8ed3db828586600160a060020a031663206b60f96040518163ffffffff1660e060020a028152600401602060405180830381600087803b1580156124a457600080fd5b505af11580156124b8573d6000803e3d6000fd5b505050506040513d60208110156124ce57600080fd5b50516040805160e060020a63ffffffff8716028152600160a060020a03948516600482015292909316602483015260448201529051606480830192600092919082900301818387803b15801561209c57600080fd5b84600160a060020a031663be038478848687600160a060020a031663e0673c4c6040518163ffffffff1660e060020a028152600401602060405180830381600087803b15801561257257600080fd5b505af1158015612586573d6000803e3d6000fd5b505050506040513d602081101561259c57600080fd5b50516040805160e060020a63ffffffff8716028152600160a060020a03948516600482015292909316602483015260448201523060648201529051608480830192600092919082900301818387803b1580156125f757600080fd5b505af115801561260b573d6000803e3d6000fd5b5050505084600160a060020a0316630a8ed3db828687600160a060020a031663e0673c4c6040518163ffffffff1660e060020a028152600401602060405180830381600087803b15801561265e57600080fd5b505af1158015612672573d6000803e3d6000fd5b505050506040513d602081101561268857600080fd5b50516040805160e060020a63ffffffff8716028152600160a060020a03948516600482015292909316602483015260448201529051606480830192600092919082900301818387803b1580156126dd57600080fd5b505af11580156126f1573d6000803e3d6000fd5b5050505084600160a060020a031663be038478848687600160a060020a031663730d0feb6040518163ffffffff1660e060020a028152600401602060405180830381600087803b15801561274457600080fd5b505af1158015612758573d6000803e3d6000fd5b505050506040513d602081101561276e57600080fd5b50516040805160e060020a63ffffffff8716028152600160a060020a0394851660048201529284166024840152604483019190915291861660648201529051608480830192600092919082900301818387803b1580156127cd57600080fd5b505af11580156127e1573d6000803e3d6000fd5b5050505084600160a060020a031663be0384786000198687600160a060020a031663772576c76040518163ffffffff1660e060020a028152600401602060405180830381600087803b15801561283657600080fd5b505af115801561284a573d6000803e3d6000fd5b505050506040513d602081101561286057600080fd5b50516040805160e060020a63ffffffff8716028152600160a060020a03948516600482015292909316602483015260448201523060648201529051608480830192600092919082900301818387803b1580156128bb57600080fd5b505af11580156128cf573d6000803e3d6000fd5b5050505084600160a060020a031663afd925df838687600160a060020a031663772576c76040518163ffffffff1660e060020a028152600401602060405180830381600087803b15801561292257600080fd5b505af1158015612936573d6000803e3d6000fd5b505050506040513d602081101561294c57600080fd5b50516040805160e060020a63ffffffff8716028152600160a060020a03948516600482015292909316602483015260448201529051606480830192600092919082900301818387803b1580156129a157600080fd5b505af11580156129b5573d6000803e3d6000fd5b5050505084600160a060020a031663afd925df838687600160a060020a031663e0673c4c6040518163ffffffff1660e060020a028152600401602060405180830381600087803b158015612a0857600080fd5b505af1158015612a1c573d6000803e3d6000fd5b505050506040513d6020811015612a3257600080fd5b50516040805160e060020a63ffffffff8716028152600160a060020a03948516600482015292909316602483015260448201529051606480830192600092919082900301818387803b158015611e4157600080fd5b83600160a060020a031663be038478838586600160a060020a03166333fd69bb6040518163ffffffff1660e060020a028152600401602060405180830381600087803b158015612ad657600080fd5b505af1158015612aea573d6000803e3d6000fd5b505050506040513d6020811015612b0057600080fd5b50516040805160e060020a63ffffffff8716028152600160a060020a0394851660048201529284166024840152604483019190915291851660648201529051608480830192600092919082900301818387803b158015612b5f57600080fd5b505af1158015612b73573d6000803e3d6000fd5b5050505083600160a060020a031663be038478838586600160a060020a031663f932e2556040518163ffffffff1660e060020a028152600401602060405180830381600087803b158015612bc657600080fd5b505af1158015612bda573d6000803e3d6000fd5b505050506040513d6020811015612bf057600080fd5b50516040805160e060020a63ffffffff8716028152600160a060020a0394851660048201529284166024840152604483019190915291851660648201529051608480830192600092919082900301818387803b158015612c4f57600080fd5b505af1158015612c63573d6000803e3d6000fd5b5050505083600160a060020a031663be038478838586600160a060020a031663079a317b6040518163ffffffff1660e060020a028152600401602060405180830381600087803b158015612cb657600080fd5b505af1158015612cca573d6000803e3d6000fd5b505050506040513d6020811015612ce057600080fd5b50516040805160e060020a63ffffffff8716028152600160a060020a0394851660048201529284166024840152604483019190915291851660648201529051608480830192600092919082900301818387803b158015612d3f57600080fd5b505af1158015612d53573d6000803e3d6000fd5b5050505083600160a060020a031663be038478838586600160a060020a03166378657caf6040518163ffffffff1660e060020a028152600401602060405180830381600087803b1580156121f957600080fd5b84600160a060020a031663be038478848687600160a060020a0316633df476fe6040518163ffffffff1660e060020a028152600401602060405180830381600087803b158015612df557600080fd5b505af1158015612e09573d6000803e3d6000fd5b505050506040513d6020811015612e1f57600080fd5b50516040805160e060020a63ffffffff8716028152600160a060020a0394851660048201529284166024840152604483019190915291861660648201529051608480830192600092919082900301818387803b158015612e7e57600080fd5b505af1158015612e92573d6000803e3d6000fd5b5050505084600160a060020a031663be038478848687600160a060020a03166316025d976040518163ffffffff1660e060020a028152600401602060405180830381600087803b158015612ee557600080fd5b505af1158015612ef9573d6000803e3d6000fd5b505050506040513d6020811015612f0f57600080fd5b50516040805160e060020a63ffffffff8716028152600160a060020a0394851660048201529284166024840152604483019190915291861660648201529051608480830192600092919082900301818387803b158015612f6e57600080fd5b505af1158015612f82573d6000803e3d6000fd5b5050505084600160a060020a031663be038478828687600160a060020a031663a6e8ef896040518163ffffffff1660e060020a028152600401602060405180830381600087803b158015612fd557600080fd5b505af1158015612fe9573d6000803e3d6000fd5b505050506040513d6020811015612fff57600080fd5b50516040805160e060020a63ffffffff8716028152600160a060020a0394851660048201529284166024840152604483019190915291861660648201529051608480830192600092919082900301818387803b15801561305e57600080fd5b505af1158015613072573d6000803e3d6000fd5b5050505084600160a060020a031663be038478848687600160a060020a03166385cd73316040518163ffffffff1660e060020a028152600401602060405180830381600087803b1580156130c557600080fd5b505af11580156130d9573d6000803e3d6000fd5b505050506040513d60208110156130ef57600080fd5b50516040805160e060020a63ffffffff8716028152600160a060020a0394851660048201529284166024840152604483019190915291861660648201529051608480830192600092919082900301818387803b15801561314e57600080fd5b505af1158015613162573d6000803e3d6000fd5b5050505084600160a060020a031663be038478828687600160a060020a03166394be10a26040518163ffffffff1660e060020a028152600401602060405180830381600087803b1580156131b557600080fd5b505af11580156131c9573d6000803e3d6000fd5b505050506040513d60208110156131df57600080fd5b50516040805160e060020a63ffffffff8716028152600160a060020a0394851660048201529284166024840152604483019190915291861660648201529051608480830192600092919082900301818387803b158015611e4157600080fd5b6040805160e060020a639d0effdb028152306004820152600160a060020a03858116602483015260448201859052915191861691639d0effdb9160648082019260009290919082900301818387803b15801561329957600080fd5b505af11580156132ad573d6000803e3d6000fd5b50506040805160e060020a63afd925df028152600160a060020a0385811660048301528781166024830152604482018790529151918816935063afd925df925060648082019260009290919082900301818387803b15801561209c57600080fd5b6133198282836145dc565b5050565b80516040805180820190915260138152606a60020a72151153541310551157d253959053125117d251026020820152906000106133195760405160e560020a62461bcd0281526004018080602001828103825283818151815260200191508051906020019080838360008381101561079a578181015183820152602001610782565b60408051606081018252602181527f4f50454e5f454e54455250524953455f4241445f564f54455f53455454494e47602082015260f860020a60530291810191909152613319565b600080546040805160e260020a63085a1d1102815230600482015290518392600160a060020a031691632168744491602480830192602092919082900301818787803b15801561343657600080fd5b505af115801561344a573d6000803e3d6000fd5b505050506040513d602081101561346057600080fd5b505160408051600160a060020a038316815290519193507f0b13a9ab90735191cd544fd95ba68d1385144561cbdeb8acb8035de9a86432f5919081900360200190a181600160a060020a031663de2873596040518163ffffffff1660e060020a028152600401602060405180830381600087803b1580156134e057600080fd5b505af11580156134f4573d6000803e3d6000fd5b505050506040513d602081101561350a57600080fd5b50516040805160e060020a638ea8dc9d028152905191925061355c9183918591600160a060020a03831691638ea8dc9d9160048083019260209291908290030181600087803b158015610cfb57600080fd5b9091565b604080516004815260248101909152602081018051600160e060020a031660e260020a63204a7f0702179052600090611675837f7e852e0fcfce6551c13800f1e7476f982525c2b5277ba14b24339c68416336d183614753565b604080516004815260248101909152602081018051600160e060020a031660e260020a63204a7f070217905260009081613603846000805160206148fc83398151915284614753565b6040805160e060020a638c61757d0281526000805160206148fc83398151915260048201529051919250600160a060020a03861691638c61757d9160248082019260009290919082900301818387803b1580156112f557600080fd5b60408051600160a060020a03861660248201526001604060020a038086166044830152808516606483015283166084808301919091528251808303909101815260a4909101909152602081018051600160e060020a031660e460020a6303ee31e7021790526000906136f2877f6bf2b7dbfbb51844d0d6fdc211b014638011261157487ccfef5c2e4fb26b1d7e836117c6565b979650505050505050565b60408051600160a060020a03861660248201526001604060020a038086166044830152808516606483015283166084808301919091528251808303909101815260a4909101909152602081018051600160e060020a031660e060020a63df3d3305021790526000906136f2877f9fa3927f639745e587912d4b0fea7ef9013bf93fb907d29faeab57417ba6e1d4836117c6565b83600160a060020a031663be038478838586600160a060020a0316635fa5e4e66040518163ffffffff1660e060020a028152600401602060405180830381600087803b1580156137df57600080fd5b505af11580156137f3573d6000803e3d6000fd5b505050506040513d602081101561380957600080fd5b50516040805160e060020a63ffffffff8716028152600160a060020a0394851660048201529284166024840152604483019190915291851660648201529051608480830192600092919082900301818387803b15801561386857600080fd5b505af115801561387c573d6000803e3d6000fd5b5050505083600160a060020a031663be038478838586600160a060020a031663368c3c346040518163ffffffff1660e060020a028152600401602060405180830381600087803b1580156121f957600080fd5b600160a060020a0390811660009081526007602052604090208054600160a060020a0319908116968316969096178155600101805490951693169290921760a060020a60ff02191660a060020a911515919091021760a860020a60ff02191660a860020a91151591909102179055565b60025460408051808201909152601f81527f54454d504c4154455f415241474f4e5f49445f4e4f545f50524f564944454400602082015290600160a060020a031615156139d15760405160e560020a62461bcd0281526004018080602001828103825283818151815260200191508051906020019080838360008381101561079a578181015183820152602001610782565b506002546040518351600160a060020a039092169163d22057a99185916020918201918291908401908083835b60208310613a1d5780518252601f1990920191602091820191016139fe565b6001836020036101000a0380198251168184511680821785525050505050509050019150506040516020818303038152906040526040518082805190602001908083835b60208310613a805780518252601f199092019160209182019101613a61565b5181516020939093036101000a60001901801990911692169190911790526040805191909301819003812063ffffffff871660e060020a0282526004820152600160a060020a0388166024820152915160448084019550600094509092839003019050818387803b158015613af457600080fd5b505af1158015611577573d6000803e3d6000fd5b6000806000613b1686613c4d565b60405160e060020a63397edd4102815260048101888152600160a060020a0380841660248401528715156064840152608060448401908152895160848501528951949650908b169363397edd41938b9388938c938c9360a40190602086019080838360005b83811015613b93578181015183820152602001613b7b565b50505050905090810190601f168015613bc05780820380516001836020036101000a031916815260200191505b5095505050505050602060405180830381600087803b158015613be257600080fd5b505af1158015613bf6573d6000803e3d6000fd5b505050506040513d6020811015613c0c57600080fd5b505160408051600160a060020a038316815260208101899052815192935060008051602061491c833981519152929081900390910190a19695505050505050565b6001546040805160e060020a630178b8bf0281526004810184905290516000928392600160a060020a0390911691630178b8bf9160248082019260209290919082900301818787803b158015613ca257600080fd5b505af1158015613cb6573d6000803e3d6000fd5b505050506040513d6020811015613ccc57600080fd5b50516040805160e160020a631d9dabef028152600481018690529051600160a060020a0390921691633b3b57de916024808201926020929091908290030181600087803b158015613d1c57600080fd5b505af1158015613d30573d6000803e3d6000fd5b505050506040513d6020811015613d4657600080fd5b50516040805160e560020a63061b57a30281529051919250600160a060020a0383169163c36af4609160048082019260009290919082900301818387803b158015613d9057600080fd5b505af1158015613da4573d6000803e3d6000fd5b505050506040513d6000823e601f3d908101601f1916820160405260a0811015613dcd57600080fd5b60608201516080830180519192840191849190640100000000811115613df257600080fd5b82016020810184811115613e0557600080fd5b8151640100000000811182820187101715613e1f57600080fd5b50949998505050505050505050565b83600160a060020a031663be038478838586600160a060020a031663e9a9c8506040518163ffffffff1660e060020a028152600401602060405180830381600087803b158015613e7d57600080fd5b505af1158015613e91573d6000803e3d6000fd5b505050506040513d6020811015613ea757600080fd5b50516040805160e060020a63ffffffff8716028152600160a060020a0394851660048201529284166024840152604483019190915291851660648201529051608480830192600092919082900301818387803b158015613f0657600080fd5b505af1158015613f1a573d6000803e3d6000fd5b5050505083600160a060020a031663be038478838586600160a060020a031663b930908f6040518163ffffffff1660e060020a028152600401602060405180830381600087803b1580156121f957600080fd5b84600160a060020a0316630a8ed3db858485600160a060020a031663e9a9c8506040518163ffffffff1660e060020a028152600401602060405180830381600087803b158015613fbc57600080fd5b505af1158015613fd0573d6000803e3d6000fd5b505050506040513d6020811015613fe657600080fd5b50516040805160e060020a63ffffffff8716028152600160a060020a03948516600482015292909316602483015260448201529051606480830192600092919082900301818387803b15801561403b57600080fd5b505af115801561404f573d6000803e3d6000fd5b5050505084600160a060020a0316630a8ed3db848485600160a060020a031663b930908f6040518163ffffffff1660e060020a028152600401602060405180830381600087803b1580156140a257600080fd5b505af11580156140b6573d6000803e3d6000fd5b505050506040513d60208110156140cc57600080fd5b50516040805160e060020a63ffffffff8716028152600160a060020a03948516600482015292909316602483015260448201529051606480830192600092919082900301818387803b15801561412157600080fd5b505af1158015614135573d6000803e3d6000fd5b5050505084600160a060020a031663afd925df828485600160a060020a031663e9a9c8506040518163ffffffff1660e060020a028152600401602060405180830381600087803b15801561418857600080fd5b505af115801561419c573d6000803e3d6000fd5b505050506040513d60208110156141b257600080fd5b50516040805160e060020a63ffffffff8716028152600160a060020a03948516600482015292909316602483015260448201529051606480830192600092919082900301818387803b15801561420757600080fd5b505af115801561421b573d6000803e3d6000fd5b5050505084600160a060020a031663afd925df828485600160a060020a031663b930908f6040518163ffffffff1660e060020a028152600401602060405180830381600087803b158015612a0857600080fd5b83600160a060020a031663be038478838586600160a060020a03166364d6f4e36040518163ffffffff1660e060020a028152600401602060405180830381600087803b1580156142bd57600080fd5b505af11580156142d1573d6000803e3d6000fd5b505050506040513d60208110156142e757600080fd5b50516040805160e060020a63ffffffff8716028152600160a060020a0394851660048201529284166024840152604483019190915291851660648201529051608480830192600092919082900301818387803b15801561434657600080fd5b505af115801561435a573d6000803e3d6000fd5b5050505083600160a060020a031663be038478828586600160a060020a03166359e1c40c6040518163ffffffff1660e060020a028152600401602060405180830381600087803b1580156121f957600080fd5b84600160a060020a031663be038478848687600160a060020a0316633c624c756040518163ffffffff1660e060020a028152600401602060405180830381600087803b1580156143fc57600080fd5b505af1158015614410573d6000803e3d6000fd5b505050506040513d602081101561442657600080fd5b50516040805160e060020a63ffffffff8716028152600160a060020a0394851660048201529284166024840152604483019190915291851660648201529051608480830192600092919082900301818387803b15801561448557600080fd5b505af1158015614499573d6000803e3d6000fd5b5050505084600160a060020a031663be038478848687600160a060020a03166362de7e5a6040518163ffffffff1660e060020a028152600401602060405180830381600087803b1580156144ec57600080fd5b505af1158015614500573d6000803e3d6000fd5b505050506040513d602081101561451657600080fd5b50516040805160e060020a63ffffffff8716028152600160a060020a0394851660048201529284166024840152604483019190915291851660648201529051608480830192600092919082900301818387803b15801561457557600080fd5b505af1158015614589573d6000803e3d6000fd5b5050505084600160a060020a031663be038478838687600160a060020a031663be2c64d46040518163ffffffff1660e060020a028152600401602060405180830381600087803b158015611db857600080fd5b600083600160a060020a031663de2873596040518163ffffffff1660e060020a028152600401602060405180830381600087803b15801561461c57600080fd5b505af1158015614630573d6000803e3d6000fd5b505050506040513d602081101561464657600080fd5b50516040805160e060020a638ea8dc9d02815290519192506146cd91839187918791600160a060020a03841691638ea8dc9d916004808201926020929091908290030181600087803b15801561469b57600080fd5b505af11580156146af573d6000803e3d6000fd5b505050506040513d60208110156146c557600080fd5b505186614762565b61471181828584600160a060020a0316633d6ab68f6040518163ffffffff1660e060020a028152600401602060405180830381600087803b15801561469b57600080fd5b60408051600160a060020a038616815290517f17592627a66846ce06d92a1708275bc653b2a3f34aec855584b819872a8ba4139181900360200190a150505050565b60006110cd8484846001613b08565b6040805160e060020a630a8ed3db028152600160a060020a038581166004830152868116602483015260448201859052915191871691630a8ed3db9160648082019260009290919082900301818387803b1580156147bf57600080fd5b505af11580156147d3573d6000803e3d6000fd5b50506040805160e060020a639d0effdb028152306004820152600160a060020a0388811660248301526044820187905291519189169350639d0effdb925060648082019260009290919082900301818387803b15801561483257600080fd5b505af1158015614846573d6000803e3d6000fd5b50506040805160e060020a63afd925df028152600160a060020a0385811660048301528881166024830152604482018790529151918916935063afd925df925060648082019260009290919082900301818387803b158015611e4157600080fd5b6040805161014081018252600080825260208201819052918101829052606081018290526080810182905260a0810182905260c0810182905260e0810182905261010081018290526101208101919091529056009ac98dc5f995bf0211ed589ef022719d1487e5cb2bab505676f0d084c07cf89a2b183a501d4b1bbd30e6611ebac40ab18a00390e6c6bed324bf92a265c9ce6e3a165627a7a723058208fe9ef8b604e3db2386e7816a32936faf4d0160f75e9e798f645511e604c2d1a0029",
  "source": "pragma solidity 0.4.24;\n\nimport './BaseOEApps.sol';\n\nimport '@1hive/apps-token-request/contracts/TokenRequest.sol';\nimport '@1hive/apps-redemptions/contracts/Redemptions.sol';\nimport '@1hive/delay-app/contracts/Delay.sol';\n\ncontract BiaTemplate is BaseOEApps {\n    string private constant ERROR_MISSING_MEMBERS =\n        'OPEN_ENTERPRISE_MISSING_MEMBERS';\n    string private constant ERROR_BAD_VOTE_SETTINGS =\n        'OPEN_ENTERPRISE_BAD_VOTE_SETTINGS';\n    string private constant ERROR_BAD_DOT_VOTE_SETTINGS =\n        'OPEN_ENTERPRISE_BAD_DOT_VOTE_SETTINGS';\n    string private constant ERROR_BAD_MEMBERS_STAKES_LEN =\n        'OPEN_ENTERPRISE_BAD_MEMBER_STAKES_LEN';\n\n    uint64 private constant DEFAULT_PERIOD = uint64(30 days);\n    uint64 private constant DELAY_PERIOD = uint64(1 days);\n    uint8 private constant TOKEN_DECIMALS = uint8(18);\n    uint256 private constant UNLIMITED_TOKENS = uint256(0);\n    uint256 private constant ONE_TOKEN = uint256(1e18);\n    enum Op {\n        NONE,\n        EQ,\n        NEQ,\n        GT,\n        LT,\n        GTE,\n        LTE,\n        RET,\n        NOT,\n        AND,\n        OR,\n        XOR,\n        IF_ELSE\n    }\n    // bytes32 private constant REDEMPTIONS_APP_ID = apmNamehash('redemptions');\n    bytes32 private constant REDEMPTIONS_APP_ID =\n        0x743bd419d5c9061290b181b19e114f36e9cc9ddb42b4e54fc811edb22eb85e9d;\n    // bytes32 private constant DELAY_APP_ID = apmNamehash('delay');\n    bytes32 private constant DELAY_APP_ID =\n        0x1c2b93ad1c4d4302f0169c8f596ce518e4a3324b1fed90c2d80a549a072bcd4e;\n    // bytes32 private constant TOKEN_REQUEST_APP_ID = apmNamehash('token-request');\n    bytes32 private constant TOKEN_REQUEST_APP_ID =\n        0x35202e36ef42162f9847025dfc040c60bfa5d7c5c373cb28e30849e1db16ba77;\n    uint8 constant ORACLE_PARAM_ID = 203;\n    address constant ANY_ENTITY = address(-1);\n\n    string private constant ERROR_EMPTY_HOLDERS = 'DANDELION_EMPTY_HOLDERS';\n    string private constant ERROR_BAD_HOLDERS_STAKES_LEN =\n        'DANDELION_BAD_HOLDERS_STAKES_LEN';\n    string private constant ERROR_MISSING_DAO_CONTRACT =\n        'DANDELION_MISSING_DAO_CONTRACT';\n    string private constant ERROR_MISSING_FINANCE_CONTRACT =\n        'DANDELION_MISSING_FINANCE_CONTRACT';\n    string private constant ERROR_MISSING_TOKEN_MANAGER_CONTRACT =\n        'DANDELION_MISSING_TOKEN_MANAGER_CONTRACT';\n    string private constant ERROR_MISSING_VAULT_CONTRACT =\n        'DANDELION_MISSING_VAULT_CONTRACT';\n    string private constant ERROR_MISSING_TOKEN_CONTRACT =\n        'DANDELION_MISSING_TOKEN_CONTRACT';\n\n    struct DeployedContracts {\n        address dao;\n        address token;\n        address finance;\n        address tokenManager;\n        address agentOrVault;\n        bool agentAsVault;\n    }\n\n    mapping(address => DeployedContracts) internal deployedContracts;\n\n    struct InstalledAppStruct {\n        // AddressBook addressBook;\n        Allocations allocations;\n        Finance finance;\n        // Projects projects;\n        Rewards rewards;\n        Agent agent;\n        Vault vault;\n        Redemptions redemptions;\n        TokenRequest tokenRequest;\n        Delay delay;\n        TokenManager tokenManager1;\n        TokenManager tokenManager2;\n    }\n\n    /**\n     * @dev Constructor for Open Enterprise Apps DAO\n     * @param _deployedSetupContracts Array of [DaoFactory, ENS, MiniMeTokenFactory, AragonID, StandardBounties]\n     *       required pre-deployed contracts to set up the organization\n     */\n    constructor(address[4] _deployedSetupContracts)\n        public\n        BaseOEApps(_deployedSetupContracts)\n    {}\n\n    /**\n     * @dev Create a new MiniMe token and deploy a Open Enterprise DAO.\n     * @param _id String with the name for org, will assign `[id].aragonid.eth`\n     */\n    function newTokensAndInstance(\n        string _id,\n        string _name1,\n        string _symbol1,\n        string _name2,\n        string _symbol2,\n        uint64[6] _votingSettings,\n        bool[2] _votingBools\n    ) external {\n        (MiniMeToken token1, MiniMeToken token2) = newTokens(\n            _name1,\n            _symbol1,\n            _name2,\n            _symbol2\n        );\n        _newInstance(_id, _votingSettings, _votingBools, token1, token2);\n    }\n\n    /**\n     * @dev Install and configure TokenManager apps for previously created tokens\n     *       related to the tokens settings\n     */\n    function newTokenManagers(\n        address[] _members1,\n        uint256[] _stakes1,\n        address[] _members2,\n        uint256[] _stakes2\n    ) public {\n        _validateTokenSettings(_members1, _stakes1);\n        _validateTokenSettings(_members2, _stakes2);\n\n        (ACL acl, Kernel dao, Agent agent, Vault vault) = _popBaseCache(\n            msg.sender\n        );\n        (MiniMeToken token1, MiniMeToken token2) = _popTokensCache(msg.sender);\n        // Token 1 setup\n        TokenManager tokenManager1 = _installTokenManagerApp(\n            dao,\n            token1,\n            true, // it always needs to be transferable\n            UNLIMITED_TOKENS\n        );\n\n        TokenManager tokenManager2 = _installTokenManagerApp(\n            dao,\n            token2,\n            true,\n            UNLIMITED_TOKENS\n        );\n\n        _mintTokens(acl, tokenManager1, _members1, _stakes1);\n        _mintTokens(acl, tokenManager2, _members2, _stakes2);\n        _cacheBase(acl, dao, agent, vault, msg.sender);\n        _cacheTokens(token1, token2, msg.sender);\n        _cacheTokenManagers(tokenManager1, tokenManager2, msg.sender);\n    }\n\n    function finalizeDao(\n        address[] memory _redemptionsRedeemableTokens,\n        address[] memory _tokenRequestAcceptedDepositTokens,\n        uint64[3] _appSettings\n    ) public {\n        (ACL acl, Kernel dao, Agent agent, Vault vault) = _popBaseCache(\n            msg.sender\n        );\n        (MiniMeToken token1, MiniMeToken token2) = _popTokensCache(msg.sender);\n        (\n            TokenManager tokenManager1,\n            TokenManager tokenManager2\n        ) = _popTokenManagersCache(msg.sender);\n        InstalledAppStruct memory installedAppStruct;\n        installedAppStruct.tokenManager1 = tokenManager1;\n        installedAppStruct.tokenManager2 = tokenManager2;\n        installedAppStruct.agent = agent;\n        installedAppStruct.vault = vault;\n        // installedAppStruct.addressBook = _installAddressBookApp(dao);\n        installedAppStruct.allocations = _installAllocationsApp(\n            dao,\n            token1,\n            _appSettings[0]\n        );\n        installedAppStruct.finance = _installFinanceApp(\n            dao,\n            vault,\n            _appSettings[1]\n        );\n\n        // installedAppStruct.projects = _installProjectsApp(dao, agentOrVault);\n        installedAppStruct.rewards = _installRewardsApp(dao, vault);\n\n        installedAppStruct.redemptions = _installRedemptionsApp(\n            dao,\n            _redemptionsRedeemableTokens,\n            agent,\n            tokenManager2\n        );\n        installedAppStruct.tokenRequest = _installTokenRequestApp(\n            dao,\n            _tokenRequestAcceptedDepositTokens,\n            agent,\n            tokenManager2\n        );\n\n        installedAppStruct.delay = _installDelaysApp(dao, _appSettings[2]);\n        _cacheTokenManagers(tokenManager1, tokenManager2, msg.sender);\n        _cacheTokens(token1, token2, msg.sender);\n        _setupPermissions(acl, dao, installedAppStruct);\n    }\n\n    /**\n     * @dev Create a new MiniMe token and cache it for the user\n     * @param _name1 String with the name for the primary token used by share holders in the organization\n     * @param _name2 String with the name for the reputation token used in the organization\n     * @param _symbol1 String with the symbol for the primary token used by share holders in the organization\n     * @param _symbol2 String with the symbol for the reputation token used in the organization\n     */\n\n    function newTokens(\n        string _name1,\n        string _symbol1,\n        string _name2,\n        string _symbol2\n    ) public returns (MiniMeToken, MiniMeToken) {\n        MiniMeToken token1 = _createToken(_name1, _symbol1, TOKEN_DECIMALS);\n        // MiniMeToken token2 = MiniMeToken(0);\n        // if (keccak256(abi.encodePacked(_symbol2)) != keccak256(abi.encodePacked(\"\"))) {\n        MiniMeToken token2 = _createToken(_name2, _symbol2, TOKEN_DECIMALS);\n        // }\n        _cacheTokens(token1, token2, msg.sender);\n\n        return (token1, token2);\n    }\n\n    /**\n     * @dev Deploy a Open Enterprise DAO using a previously cached MiniMe token\n     * @param _id String with the name for org, will assign `[id].aragonid.eth`\n     * @param _votingBools Array of 2 booleans to select reference for apps:\n     *                     [DotVotingToken, VotingToken] true will select token2 as controller\n     */\n    function _newInstance(\n        string _id,\n        uint64[6] memory _votingSettings,\n        bool[2] memory _votingBools,\n        MiniMeToken _token1,\n        MiniMeToken _token2\n    ) internal {\n        _validateId(_id);\n        _validateVotingSettings(_votingSettings);\n\n        (Kernel dao, ACL acl) = _createDAO();\n        Vault vault = _installVaultApp(dao);\n        Agent agent = _installDefaultAgentApp(dao);\n\n        DotVoting dotVoting = _installDotVotingApp(\n            dao,\n            _votingBools[0] ? _token2 : _token1,\n            _votingSettings[0],\n            _votingSettings[1],\n            _votingSettings[2]\n        );\n        Voting voting = _installVotingApp(\n            dao,\n            _votingBools[1] ? _token2 : _token1,\n            _votingSettings[3],\n            _votingSettings[4],\n            _votingSettings[5]\n        );\n\n        _createAgentPermissions(acl, agent, voting, voting);\n\n        _cacheVotingApps(\n            dotVoting,\n            voting,\n            _votingBools[0],\n            _votingBools[1],\n            msg.sender\n        );\n        _cacheBase(acl, dao, agent, vault, msg.sender);\n        _registerID(_id, dao);\n    }\n\n    function _setupPermissions(\n        ACL _acl,\n        Kernel _dao,\n        InstalledAppStruct _installedAppStruct\n    ) internal {\n        _setupTokenPermissions(_acl, _dao, _installedAppStruct);\n        //\n        (DotVoting dotVoting, Voting voting, , ) = _popVotingAppsCache(\n            msg.sender\n        );\n        (MiniMeToken token1, ) = _popTokensCache(msg.sender);\n\n        // _createAddressBookPermissions(_acl, _installedAppStruct.addressBook, voting, voting);\n        _createAllocationsPermissions(\n            _acl,\n            _installedAppStruct.allocations,\n            dotVoting,\n            voting,\n            voting\n        );\n        _createEvmScriptsRegistryPermissions(_acl, voting, voting);\n        _createFinancePermissions(\n            _acl,\n            _installedAppStruct.finance,\n            voting,\n            voting\n        );\n        _createFinanceCreatePaymentsPermission(\n            _acl,\n            _installedAppStruct.finance,\n            voting,\n            voting\n        );\n        // _createProjectsPermissions(_acl, _installedAppStruct.projects, dotVoting, voting, voting);\n        _createRewardsPermissions(\n            _acl,\n            _installedAppStruct.rewards,\n            voting,\n            voting\n        );\n\n        _createVaultPermissions(\n            _acl,\n            _installedAppStruct.vault,\n            _installedAppStruct.finance,\n            address(this)\n        );\n        _grantVaultPermissions(\n            _acl,\n            _installedAppStruct.vault,\n            _installedAppStruct.allocations,\n            _installedAppStruct.rewards\n        );\n\n        _createRedemptionsPermissions(\n            _acl,\n            _installedAppStruct.redemptions,\n            voting,\n            voting,\n            _installedAppStruct.tokenManager2\n        );\n        // grand some to agent app\n        _acl.createPermission(\n            _installedAppStruct.redemptions,\n            _installedAppStruct.agent,\n            _installedAppStruct.agent.TRANSFER_ROLE(),\n            voting\n        );\n\n        _createTokenRequestPermissions(\n            _acl,\n            _installedAppStruct.tokenRequest,\n            voting,\n            voting\n        );\n\n        _createDelayPermissions(\n            _acl,\n            _installedAppStruct.delay,\n            voting,\n            voting,\n            _installedAppStruct.tokenManager2\n        );\n\n        _transferPermissionFromTemplate(\n            _acl,\n            _installedAppStruct.vault,\n            _installedAppStruct.vault.TRANSFER_ROLE(),\n            voting\n        );\n\n        _transferRootPermissionsFromTemplateAndFinalizeDAO(_dao, voting);\n    }\n\n    function _setupTokenPermissions(\n        ACL _acl,\n        Kernel _dao,\n        InstalledAppStruct _installedAppStruct\n    ) internal {\n        (\n            DotVoting dotVoting,\n            Voting voting,\n            bool secondaryDot,\n            bool secondaryVoting\n        ) = _popVotingAppsCache(msg.sender);\n        // (TokenManager tokenManager1, TokenManager tokenManager2) = _popTokenManagersCache(msg.sender);\n\n        _createTokenManagerPermissions(\n            _acl,\n            _installedAppStruct.tokenManager1,\n            voting,\n            voting\n        );\n        _createTokenManagerPermissions(\n            _acl,\n            _installedAppStruct.tokenManager2,\n            voting,\n            address(this)\n        );\n        _grantTokenManagerPermissions(\n            _acl,\n            _installedAppStruct.tokenRequest,\n            _installedAppStruct.redemptions,\n            _installedAppStruct.tokenManager2,\n            voting\n        );\n\n        _createDotVotingPermissions(\n            _acl,\n            dotVoting,\n            secondaryDot\n                ? _installedAppStruct.tokenManager2\n                : _installedAppStruct.tokenManager1,\n            voting\n        );\n        _createVotingPermissions(\n            _acl,\n            voting,\n            voting,\n            secondaryVoting\n                ? _installedAppStruct.tokenManager2\n                : _installedAppStruct.tokenManager1,\n            voting\n        );\n        _cacheVotingApps(\n            dotVoting,\n            voting,\n            secondaryDot,\n            secondaryVoting,\n            msg.sender\n        );\n    }\n\n    function _grantTokenManagerPermissions(\n        ACL _acl,\n        TokenRequest tokenRequest,\n        Redemptions redemptions,\n        TokenManager tokenManager2,\n        address _manager\n    ) internal {\n        _acl.grantPermission(\n            tokenRequest,\n            tokenManager2,\n            tokenManager2.MINT_ROLE()\n        );\n        _acl.grantPermission(\n            redemptions,\n            tokenManager2,\n            tokenManager2.BURN_ROLE()\n        );\n        _acl.setPermissionManager(\n            _manager,\n            tokenManager2,\n            tokenManager2.MINT_ROLE()\n        );\n        _acl.setPermissionManager(\n            _manager,\n            tokenManager2,\n            tokenManager2.BURN_ROLE()\n        );\n    }\n\n    /* TOKEN REQUEST */\n\n    function _installTokenRequestApp(\n        Kernel _dao,\n        address[] memory _tokenRequestAcceptedDepositTokens,\n        Agent agent,\n        TokenManager tokenManager2\n    ) internal returns (TokenRequest) {\n        TokenRequest tokenRequest = TokenRequest(\n            _registerApp(_dao, TOKEN_REQUEST_APP_ID)\n        );\n        tokenRequest.initialize(\n            tokenManager2,\n            agent,\n            _tokenRequestAcceptedDepositTokens\n        );\n        return tokenRequest;\n    }\n\n    function _installRedemptionsApp(\n        Kernel _dao,\n        address[] memory _redemptionsRedeemableTokens,\n        Agent agent,\n        TokenManager tokenManager2\n    ) internal returns (Redemptions) {\n        Redemptions redemptions = Redemptions(\n            _registerApp(_dao, REDEMPTIONS_APP_ID)\n        );\n        redemptions.initialize(\n            agent,\n            tokenManager2,\n            _redemptionsRedeemableTokens\n        );\n        return redemptions;\n    }\n\n    function _installDelaysApp(Kernel _dao, uint64 _periodDelay)\n        internal\n        returns (Delay)\n    {\n        Delay delay = Delay(_registerApp(_dao, DELAY_APP_ID));\n        delay.initialize(_periodDelay);\n        return delay;\n    }\n\n    function _registerApp(Kernel _dao, bytes32 _appId)\n        private\n        returns (address)\n    {\n        address proxy = _dao.newAppInstance(\n            _appId,\n            _latestVersionAppBase(_appId)\n        );\n        emit InstalledApp(proxy, _appId);\n\n        return proxy;\n    }\n\n    // ORACLE FNS\n    // function _setOracle2(ACL _acl, address _who, address _where, bytes32 _what, address _oracle) private {\n    //     uint256[] memory params = new uint256[](1);\n    //     params[0] = _paramsTo256(ORACLE_PARAM_ID, uint8(Op.EQ), uint240(_oracle));\n\n    //     _acl.grantPermissionP(_who, _where, _what, params);\n    // }\n    // function _paramsTo256(uint8 _id,uint8 _op, uint240 _value) private returns (uint256) {\n    //     return (uint256(_id) << 248) + (uint256(_op) << 240) + _value;\n    // }\n\n    function _createRedemptionsPermissions(\n        ACL _acl,\n        Redemptions _redemptions,\n        address _grantee,\n        address _manager,\n        TokenManager _tokenManager\n    ) internal {\n        _acl.createPermission(\n            _grantee,\n            _redemptions,\n            _redemptions.ADD_TOKEN_ROLE(),\n            address(this)\n        );\n        _acl.grantPermission(\n            _tokenManager,\n            _redemptions,\n            _redemptions.ADD_TOKEN_ROLE()\n        );\n\n        _acl.createPermission(\n            _grantee,\n            _redemptions,\n            _redemptions.REMOVE_TOKEN_ROLE(),\n            _manager\n        );\n        _acl.createPermission(\n            ANY_ENTITY,\n            _redemptions,\n            _redemptions.REDEEM_ROLE(),\n            address(this)\n        );\n\n        _acl.setPermissionManager(\n            _manager,\n            _redemptions,\n            _redemptions.REDEEM_ROLE()\n        );\n        _acl.setPermissionManager(\n            _manager,\n            _redemptions,\n            _redemptions.ADD_TOKEN_ROLE()\n        );\n    }\n\n    function _createTokenRequestPermissions(\n        ACL _acl,\n        TokenRequest _tokenRequest,\n        address _grantee,\n        address _manager\n    ) internal {\n        _acl.createPermission(\n            _grantee,\n            _tokenRequest,\n            _tokenRequest.SET_TOKEN_MANAGER_ROLE(),\n            _manager\n        );\n        _acl.createPermission(\n            _grantee,\n            _tokenRequest,\n            _tokenRequest.SET_VAULT_ROLE(),\n            _manager\n        );\n        _acl.createPermission(\n            _grantee,\n            _tokenRequest,\n            _tokenRequest.MODIFY_TOKENS_ROLE(),\n            _manager\n        );\n        _acl.createPermission(\n            _grantee,\n            _tokenRequest,\n            _tokenRequest.FINALISE_TOKEN_REQUEST_ROLE(),\n            _manager\n        );\n    }\n\n    function _createDelayPermissions(\n        ACL _acl,\n        Delay _delay,\n        address _grantee,\n        address _manager,\n        TokenManager _tokenManager // DotVoting _dotVoting, // Voting _voting, // MiniMeToken _token\n    ) internal {\n        _acl.createPermission(\n            _grantee,\n            _delay,\n            _delay.DELAY_EXECUTION_ROLE(),\n            _manager\n        );\n        _acl.createPermission(\n            _grantee,\n            _delay,\n            _delay.SET_DELAY_ROLE(),\n            _manager\n        );\n        _acl.createPermission(\n            _tokenManager,\n            _delay,\n            _delay.PAUSE_EXECUTION_ROLE(),\n            _manager\n        );\n        _acl.createPermission(\n            _grantee,\n            _delay,\n            _delay.RESUME_EXECUTION_ROLE(),\n            _manager\n        );\n        _acl.createPermission(\n            _tokenManager,\n            _delay,\n            _delay.CANCEL_EXECUTION_ROLE(),\n            _manager\n        );\n    }\n\n    function _validateVotingSettings(uint64[6] memory _votingSettings)\n        private\n        pure\n    {\n        require(_votingSettings.length == 6, ERROR_BAD_VOTE_SETTINGS);\n    }\n\n    function _validateTokenSettings(\n        address[] memory _members,\n        uint256[] memory _stakes\n    ) private pure {\n        require(_members.length > 0, ERROR_MISSING_MEMBERS);\n        require(\n            _members.length == _stakes.length,\n            ERROR_BAD_MEMBERS_STAKES_LEN\n        );\n    }\n}\n",
  "sourcePath": "/home/fanil/open-enterprise/templates/open-enterprise/contracts/BiaTemplate.sol",
  "compiler": {
    "name": "solc",
    "version": "0.4.24+commit.e67f0147.Emscripten.clang"
  },
  "schemaVersion": "3.4.2",
  "updatedAt": "2021-10-14T14:14:04.935Z",
  "devdoc": {
    "methods": {
      "newTokenManagers(address[],uint256[],address[],uint256[])": {
        "details": "Install and configure TokenManager apps for previously created tokens      related to the tokens settings"
      },
      "newTokens(string,string,string,string)": {
        "details": "Create a new MiniMe token and cache it for the user",
        "params": {
          "_name1": "String with the name for the primary token used by share holders in the organization",
          "_name2": "String with the name for the reputation token used in the organization",
          "_symbol1": "String with the symbol for the primary token used by share holders in the organization",
          "_symbol2": "String with the symbol for the reputation token used in the organization"
        }
      },
      "newTokensAndInstance(string,string,string,string,string,uint64[6],bool[2])": {
        "details": "Create a new MiniMe token and deploy a Open Enterprise DAO.",
        "params": {
          "_id": "String with the name for org, will assign `[id].aragonid.eth`"
        }
      }
    }
  },
  "userdoc": {
    "methods": {}
  }
}