{
  "contractName": "Delay",
  "abi": [
    {
      "constant": true,
      "inputs": [],
      "name": "hasInitialized",
      "outputs": [
        {
          "name": "",
          "type": "bool"
        }
      ],
      "payable": false,
      "stateMutability": "view",
      "type": "function"
    },
    {
      "constant": true,
      "inputs": [],
      "name": "SET_DELAY_ROLE",
      "outputs": [
        {
          "name": "",
          "type": "bytes32"
        }
      ],
      "payable": false,
      "stateMutability": "view",
      "type": "function"
    },
    {
      "constant": true,
      "inputs": [
        {
          "name": "_script",
          "type": "bytes"
        }
      ],
      "name": "getEVMScriptExecutor",
      "outputs": [
        {
          "name": "",
          "type": "address"
        }
      ],
      "payable": false,
      "stateMutability": "view",
      "type": "function"
    },
    {
      "constant": true,
      "inputs": [],
      "name": "getRecoveryVault",
      "outputs": [
        {
          "name": "",
          "type": "address"
        }
      ],
      "payable": false,
      "stateMutability": "view",
      "type": "function"
    },
    {
      "constant": true,
      "inputs": [],
      "name": "DELAY_EXECUTION_ROLE",
      "outputs": [
        {
          "name": "",
          "type": "bytes32"
        }
      ],
      "payable": false,
      "stateMutability": "view",
      "type": "function"
    },
    {
      "constant": true,
      "inputs": [
        {
          "name": "token",
          "type": "address"
        }
      ],
      "name": "allowRecoverability",
      "outputs": [
        {
          "name": "",
          "type": "bool"
        }
      ],
      "payable": false,
      "stateMutability": "view",
      "type": "function"
    },
    {
      "constant": true,
      "inputs": [],
      "name": "appId",
      "outputs": [
        {
          "name": "",
          "type": "bytes32"
        }
      ],
      "payable": false,
      "stateMutability": "view",
      "type": "function"
    },
    {
      "constant": true,
      "inputs": [],
      "name": "RESUME_EXECUTION_ROLE",
      "outputs": [
        {
          "name": "",
          "type": "bytes32"
        }
      ],
      "payable": false,
      "stateMutability": "view",
      "type": "function"
    },
    {
      "constant": true,
      "inputs": [],
      "name": "executionDelay",
      "outputs": [
        {
          "name": "",
          "type": "uint64"
        }
      ],
      "payable": false,
      "stateMutability": "view",
      "type": "function"
    },
    {
      "constant": true,
      "inputs": [],
      "name": "getInitializationBlock",
      "outputs": [
        {
          "name": "",
          "type": "uint256"
        }
      ],
      "payable": false,
      "stateMutability": "view",
      "type": "function"
    },
    {
      "constant": true,
      "inputs": [],
      "name": "CANCEL_EXECUTION_ROLE",
      "outputs": [
        {
          "name": "",
          "type": "bytes32"
        }
      ],
      "payable": false,
      "stateMutability": "view",
      "type": "function"
    },
    {
      "constant": false,
      "inputs": [
        {
          "name": "_token",
          "type": "address"
        }
      ],
      "name": "transferToVault",
      "outputs": [],
      "payable": false,
      "stateMutability": "nonpayable",
      "type": "function"
    },
    {
      "constant": true,
      "inputs": [
        {
          "name": "_sender",
          "type": "address"
        },
        {
          "name": "_role",
          "type": "bytes32"
        },
        {
          "name": "_params",
          "type": "uint256[]"
        }
      ],
      "name": "canPerform",
      "outputs": [
        {
          "name": "",
          "type": "bool"
        }
      ],
      "payable": false,
      "stateMutability": "view",
      "type": "function"
    },
    {
      "constant": true,
      "inputs": [],
      "name": "getEVMScriptRegistry",
      "outputs": [
        {
          "name": "",
          "type": "address"
        }
      ],
      "payable": false,
      "stateMutability": "view",
      "type": "function"
    },
    {
      "constant": true,
      "inputs": [],
      "name": "PAUSE_EXECUTION_ROLE",
      "outputs": [
        {
          "name": "",
          "type": "bytes32"
        }
      ],
      "payable": false,
      "stateMutability": "view",
      "type": "function"
    },
    {
      "constant": true,
      "inputs": [],
      "name": "delayedScriptsNewIndex",
      "outputs": [
        {
          "name": "",
          "type": "uint256"
        }
      ],
      "payable": false,
      "stateMutability": "view",
      "type": "function"
    },
    {
      "constant": true,
      "inputs": [],
      "name": "kernel",
      "outputs": [
        {
          "name": "",
          "type": "address"
        }
      ],
      "payable": false,
      "stateMutability": "view",
      "type": "function"
    },
    {
      "constant": true,
      "inputs": [],
      "name": "isPetrified",
      "outputs": [
        {
          "name": "",
          "type": "bool"
        }
      ],
      "payable": false,
      "stateMutability": "view",
      "type": "function"
    },
    {
      "constant": true,
      "inputs": [
        {
          "name": "",
          "type": "uint256"
        }
      ],
      "name": "delayedScripts",
      "outputs": [
        {
          "name": "executionTime",
          "type": "uint64"
        },
        {
          "name": "pausedAt",
          "type": "uint64"
        },
        {
          "name": "evmCallScript",
          "type": "bytes"
        }
      ],
      "payable": false,
      "stateMutability": "view",
      "type": "function"
    },
    {
      "anonymous": false,
      "inputs": [
        {
          "indexed": false,
          "name": "scriptId",
          "type": "uint256"
        }
      ],
      "name": "DelayedScriptStored",
      "type": "event"
    },
    {
      "anonymous": false,
      "inputs": [
        {
          "indexed": false,
          "name": "executionDelay",
          "type": "uint64"
        }
      ],
      "name": "ExecutionDelaySet",
      "type": "event"
    },
    {
      "anonymous": false,
      "inputs": [
        {
          "indexed": false,
          "name": "scriptId",
          "type": "uint256"
        }
      ],
      "name": "ExecutedScript",
      "type": "event"
    },
    {
      "anonymous": false,
      "inputs": [
        {
          "indexed": false,
          "name": "scriptId",
          "type": "uint256"
        }
      ],
      "name": "ExecutionPaused",
      "type": "event"
    },
    {
      "anonymous": false,
      "inputs": [
        {
          "indexed": false,
          "name": "scriptId",
          "type": "uint256"
        }
      ],
      "name": "ExecutionResumed",
      "type": "event"
    },
    {
      "anonymous": false,
      "inputs": [
        {
          "indexed": false,
          "name": "scriptId",
          "type": "uint256"
        }
      ],
      "name": "ExecutionCancelled",
      "type": "event"
    },
    {
      "anonymous": false,
      "inputs": [
        {
          "indexed": true,
          "name": "executor",
          "type": "address"
        },
        {
          "indexed": false,
          "name": "script",
          "type": "bytes"
        },
        {
          "indexed": false,
          "name": "input",
          "type": "bytes"
        },
        {
          "indexed": false,
          "name": "returnData",
          "type": "bytes"
        }
      ],
      "name": "ScriptResult",
      "type": "event"
    },
    {
      "anonymous": false,
      "inputs": [
        {
          "indexed": true,
          "name": "vault",
          "type": "address"
        },
        {
          "indexed": true,
          "name": "token",
          "type": "address"
        },
        {
          "indexed": false,
          "name": "amount",
          "type": "uint256"
        }
      ],
      "name": "RecoverToVault",
      "type": "event"
    },
    {
      "constant": false,
      "inputs": [
        {
          "name": "_executionDelay",
          "type": "uint64"
        }
      ],
      "name": "initialize",
      "outputs": [],
      "payable": false,
      "stateMutability": "nonpayable",
      "type": "function"
    },
    {
      "constant": false,
      "inputs": [
        {
          "name": "_executionDelay",
          "type": "uint64"
        }
      ],
      "name": "setExecutionDelay",
      "outputs": [],
      "payable": false,
      "stateMutability": "nonpayable",
      "type": "function"
    },
    {
      "constant": false,
      "inputs": [
        {
          "name": "_evmCallScript",
          "type": "bytes"
        }
      ],
      "name": "delayExecution",
      "outputs": [
        {
          "name": "",
          "type": "uint256"
        }
      ],
      "payable": false,
      "stateMutability": "nonpayable",
      "type": "function"
    },
    {
      "constant": true,
      "inputs": [],
      "name": "isForwarder",
      "outputs": [
        {
          "name": "",
          "type": "bool"
        }
      ],
      "payable": false,
      "stateMutability": "pure",
      "type": "function"
    },
    {
      "constant": false,
      "inputs": [
        {
          "name": "_delayedScriptId",
          "type": "uint256"
        }
      ],
      "name": "pauseExecution",
      "outputs": [],
      "payable": false,
      "stateMutability": "nonpayable",
      "type": "function"
    },
    {
      "constant": false,
      "inputs": [
        {
          "name": "_delayedScriptId",
          "type": "uint256"
        }
      ],
      "name": "resumeExecution",
      "outputs": [],
      "payable": false,
      "stateMutability": "nonpayable",
      "type": "function"
    },
    {
      "constant": false,
      "inputs": [
        {
          "name": "_delayedScriptId",
          "type": "uint256"
        }
      ],
      "name": "cancelExecution",
      "outputs": [],
      "payable": false,
      "stateMutability": "nonpayable",
      "type": "function"
    },
    {
      "constant": false,
      "inputs": [
        {
          "name": "_delayedScriptId",
          "type": "uint256"
        }
      ],
      "name": "execute",
      "outputs": [],
      "payable": false,
      "stateMutability": "nonpayable",
      "type": "function"
    },
    {
      "constant": true,
      "inputs": [
        {
          "name": "_scriptId",
          "type": "uint256"
        }
      ],
      "name": "canExecute",
      "outputs": [
        {
          "name": "",
          "type": "bool"
        }
      ],
      "payable": false,
      "stateMutability": "view",
      "type": "function"
    },
    {
      "constant": true,
      "inputs": [
        {
          "name": "_sender",
          "type": "address"
        },
        {
          "name": "",
          "type": "bytes"
        }
      ],
      "name": "canForward",
      "outputs": [
        {
          "name": "",
          "type": "bool"
        }
      ],
      "payable": false,
      "stateMutability": "view",
      "type": "function"
    },
    {
      "constant": false,
      "inputs": [
        {
          "name": "_evmCallScript",
          "type": "bytes"
        }
      ],
      "name": "forward",
      "outputs": [],
      "payable": false,
      "stateMutability": "nonpayable",
      "type": "function"
    }
  ],
  "bytecode": "0x608060405260006001556200001c64010000000062000022810204565b62000240565b620000356401000000006200012a810204565b60408051808201909152601881527f494e49545f414c52454144595f494e495449414c495a454400000000000000006020820152901562000111576040517f08c379a00000000000000000000000000000000000000000000000000000000081526004018080602001828103825283818151815260200191508051906020019080838360005b83811015620000d5578181015183820152602001620000bb565b50505050905090810190601f168015620001035780820380516001836020036101000a031916815260200191505b509250505060405180910390fd5b506200012860001964010000000062000159810204565b565b60006200015460008051602062002ae183398151915264010000000062001bbb6200023882021704565b905090565b6200016c6401000000006200012a810204565b60408051808201909152601881527f494e49545f414c52454144595f494e495449414c495a45440000000000000000602082015290156200020b576040517f08c379a000000000000000000000000000000000000000000000000000000000815260040180806020018281038252838181518152602001915080519060200190808383600083811015620000d5578181015183820152602001620000bb565b506200023560008051602062002ae183398151915282640100000000620026cb6200023c82021704565b50565b5490565b9055565b61289180620002506000396000f3006080604052600436106101665763ffffffff60e060020a6000350416630803fac0811461016b57806316025d97146101945780632914b9bd146101bb57806332f0a3b5146102305780633df476fe1461024557806379c01bc01461025a5780637e7db6e11461027a57806380afdea81461029b57806385cd7331146102b05780638b257989146102c55780638b3dd749146102f657806394be10a21461030b5780639d4941d814610320578063a1658fad14610343578063a2d8a997146103aa578063a479e508146103c2578063a6e8ef89146103d7578063a75c626f146103ec578063b792097a14610404578063c0774df314610419578063c175541f14610480578063cc63604a146104a1578063d4aae0c4146104b9578063d948d468146104ce578063de4796ed14610527578063eb92db271461053c578063f513c98a1461055d578063fb52235014610575578063fd64eccb14610637578063fe0d94c11461064c575b600080fd5b34801561017757600080fd5b50610180610664565b604080519115158252519081900360200190f35b3480156101a057600080fd5b506101a961068e565b60408051918252519081900360200190f35b3480156101c757600080fd5b506040805160206004803580820135601f81018490048402850184019095528484526102149436949293602493928401919081908401838280828437509497506106b79650505050505050565b60408051600160a060020a039092168252519081900360200190f35b34801561023c57600080fd5b5061021461079d565b34801561025157600080fd5b506101a9610816565b34801561026657600080fd5b506101a96004803560248101910135610839565b34801561028657600080fd5b50610180600160a060020a0360043516610968565b3480156102a757600080fd5b506101a961096e565b3480156102bc57600080fd5b506101a961099e565b3480156102d157600080fd5b506102da6109ce565b604080516001604060020a039092168252519081900360200190f35b34801561030257600080fd5b506101a96109dd565b34801561031757600080fd5b506101a96109f6565b34801561032c57600080fd5b50610341600160a060020a0360043516610a26565b005b34801561034f57600080fd5b506040805160206004604435818101358381028086018501909652808552610180958335600160a060020a0316956024803596369695606495939492019291829185019084908082843750949750610cad9650505050505050565b3480156103b657600080fd5b50610341600435610dfd565b3480156103ce57600080fd5b50610214610fb8565b3480156103e357600080fd5b506101a9611057565b3480156103f857600080fd5b50610341600435611086565b34801561041057600080fd5b506101a9611292565b34801561042557600080fd5b5060408051602060046024803582810135601f8101859004850286018501909652858552610180958335600160a060020a03169536956044949193909101919081908401838280828437509497506112989650505050505050565b34801561048c57600080fd5b506103416001604060020a03600435166112d6565b3480156104ad57600080fd5b506101806004356113e7565b3480156104c557600080fd5b50610214611432565b3480156104da57600080fd5b506040805160206004803580820135601f810184900484028501840190955284845261034194369492936024939284019190819084018382808284375094975061145d9650505050505050565b34801561053357600080fd5b506101806114f6565b34801561054857600080fd5b506103416001604060020a0360043516611509565b34801561056957600080fd5b506103416004356115af565b34801561058157600080fd5b5061058d60043561180f565b60405180846001604060020a03166001604060020a03168152602001836001604060020a03166001604060020a0316815260200180602001828103825283818151815260200191508051906020019080838360005b838110156105fa5781810151838201526020016105e2565b50505050905090810190601f1680156106275780820380516001836020036101000a031916815260200191505b5094505050505060405180910390f35b34801561064357600080fd5b506101806118c9565b34801561065857600080fd5b506103416004356118ce565b60008061066f6109dd565b90508015801590610687575080610684611ab5565b10155b91505b5090565b60408051609060020a6d5345545f44454c41595f524f4c45028152905190819003600e01902081565b60006106c1610fb8565b600160a060020a03166304bf2a7f836040518263ffffffff1660e060020a0281526004018080602001828103825283818151815260200191508051906020019080838360005b8381101561071f578181015183820152602001610707565b50505050905090810190601f16801561074c5780820380516001836020036101000a031916815260200191505b5092505050602060405180830381600087803b15801561076b57600080fd5b505af115801561077f573d6000803e3d6000fd5b505050506040513d602081101561079557600080fd5b505192915050565b60006107a7611432565b600160a060020a03166332f0a3b56040518163ffffffff1660e060020a028152600401602060405180830381600087803b1580156107e457600080fd5b505af11580156107f8573d6000803e3d6000fd5b505050506040513d602081101561080e57600080fd5b505190505b90565b604080516000805160206128468339815191528152905190819003601401902081565b6040805160008051602061284683398151915281528151908190036014018120600080835260208301909352906108769033908390855b50610cad565b60408051808201909152600f81526000805160206127c683398151915260208201529015156109265760405160e560020a62461bcd0281526004018080602001828103825283818151815260200191508051906020019080838360005b838110156108eb5781810151838201526020016108d3565b50505050905090810190601f1680156109185780820380516001836020036101000a031916815260200191505b509250505060405180910390fd5b5061096084848080601f01602080910402602001604051908101604052809392919081815260200183838082843750611ab9945050505050565b949350505050565b50600190565b60006109997fd625496217aa6a3453eecb9c3489dc5a53e6c67b444329ea2b2cbc9ff547639b611bbb565b905090565b60408051605860020a74524553554d455f455845435554494f4e5f524f4c45028152905190819003601501902081565b6000546001604060020a031681565b60006109996000805160206127e6833981519152611bbb565b60408051605860020a7443414e43454c5f455845435554494f4e5f524f4c45028152905190819003601501902081565b6000806000610a3484610968565b6040805180820190915260128152607260020a71149150d3d5915497d11254d0531313d5d151026020820152901515610ab25760405160e560020a62461bcd028152600401808060200182810382528381815181526020019150805190602001908083836000838110156108eb5781810151838201526020016108d3565b50610abb61079d565b9250610ac683611bc3565b60408051808201909152601a81527f5245434f5645525f5641554c545f4e4f545f434f4e54524143540000000000006020820152901515610b4c5760405160e560020a62461bcd028152600401808060200182810382528381815181526020019150805190602001908083836000838110156108eb5781810151838201526020016108d3565b50600160a060020a0384161515610b9d5760405130319250600160a060020a0384169083156108fc029084906000818181858888f19350505050158015610b97573d6000803e3d6000fd5b50610c5c565b5082610bb8600160a060020a0382163063ffffffff611be916565b9150610bd4600160a060020a038216848463ffffffff611cd316565b60408051808201909152601d81527f5245434f5645525f544f4b454e5f5452414e534645525f4641494c45440000006020820152901515610c5a5760405160e560020a62461bcd028152600401808060200182810382528381815181526020019150805190602001908083836000838110156108eb5781810151838201526020016108d3565b505b83600160a060020a031683600160a060020a03167f596caf56044b55fb8c4ca640089bbc2b63cae3e978b851f5745cbb7c5b288e02846040518082815260200191505060405180910390a350505050565b600080610cb8610664565b1515610cc75760009150610df5565b610ccf611432565b9050600160a060020a0381161515610cea5760009150610df5565b80600160a060020a031663fdef9106863087610d0588611d33565b60405160e060020a63ffffffff8716028152600160a060020a03808616600483019081529085166024830152604482018490526080606483019081528351608484015283519192909160a490910190602085019080838360005b83811015610d77578181015183820152602001610d5f565b50505050905090810190601f168015610da45780820380516001836020036101000a031916815260200191505b5095505050505050602060405180830381600087803b158015610dc657600080fd5b505af1158015610dda573d6000803e3d6000fd5b505050506040513d6020811015610df057600080fd5b505191505b509392505050565b600081815260026020908152604091829020548251808401909352600f8352608a60020a6e111153105657d393d7d4d0d492541502918301919091528291906001604060020a03161515610e965760405160e560020a62461bcd028152600401808060200182810382528381815181526020019150805190602001908083836000838110156108eb5781810151838201526020016108d3565b5060408051605860020a7443414e43454c5f455845435554494f4e5f524f4c45028152815190819003601501812060008083526020830190935291610edf913391849190610870565b60408051808201909152600f81526000805160206127c68339815191526020820152901515610f535760405160e560020a62461bcd028152600401808060200182810382528381815181526020019150805190602001908083836000838110156108eb5781810151838201526020016108d3565b50600083815260026020526040812080546001608060020a031916815590610f7e60018301826126cf565b50506040805184815290517f2a6bef66de603fc0ec07223576486bd905cd9bb6e05364286d9a5cd1be046ae69181900360200190a1505050565b600080610fc3611432565b6040805160e360020a6317c0177b0281527fd6f028ca0e8edb4a8c9757ca4fdccab25fa1e0317da1188108f7d2dee14902fb60048201527fddbcfd564f642ab5627cf68b9b7d374fb4f8a36e941a75d89c87998cef03bd6160248201529051600160a060020a03929092169163be00bbd8916044808201926020929091908290030181600087803b15801561076b57600080fd5b60408051606060020a7350415553455f455845435554494f4e5f524f4c45028152905190819003601401902081565b60408051605860020a74524553554d455f455845435554494f4e5f524f4c45028152815190819003601501812060008083526020830190935282916110cf903390839085610870565b60408051808201909152600f81526000805160206127c683398151915260208201529015156111435760405160e560020a62461bcd028152600401808060200182810382528381815181526020019150805190602001908083836000838110156108eb5781810151838201526020016108d3565b5061114d84611d3d565b6040805180820190915260148152606060020a7344454c41595f43414e5f4e4f545f524553554d450260208201529015156111cd5760405160e560020a62461bcd028152600401808060200182810382528381815181526020019150805190602001908083836000838110156108eb5781810151838201526020016108d3565b506000848152600260205260409020805490935061121290604060020a90046001604060020a03166111fd611dfb565b6001604060020a03169063ffffffff611e0d16565b8354909250611230906001604060020a03168363ffffffff611ea716565b83546001604060020a0319166001604060020a039190911617604060020a608060020a03191683556040805185815290517f8e5cdf7626ae4577d2994bb0fb6c5a94c8efcd110ca927df3ba25613dc27f954916020908290030190a150505050565b60015481565b60006112cf836040518080600080516020612846833981519152815250601401905060405180910390206112ca611f3a565b610cad565b9392505050565b60408051609060020a6d5345545f44454c41595f524f4c45028152815190819003600e01812060008083526020830190935291611317913391849190610870565b60408051808201909152600f81526000805160206127c6833981519152602082015290151561138b5760405160e560020a62461bcd028152600401808060200182810382528381815181526020019150805190602001908083836000838110156108eb5781810151838201526020016108d3565b50600080546001604060020a0319166001604060020a03848116919091179182905560408051929091168252517fe760fe1fa9b1c075b3a99114502282707e7050c0d62634f993d7419f5139d657916020908290030190a15050565b600081815260026020526040812054819081906001604060020a031661140b611dfb565b6001604060020a031611915061142084611d3d565b15905081801561096057509392505050565b60006109997f4172f0f7d2289153072b0a6ca36959e0cbe2efc3afe50fc81636caa96338137b611bbb565b6114673382611298565b6040805180820190915260158152605a60020a74111153105657d0d05397d393d517d193d495d054910260208201529015156114e85760405160e560020a62461bcd028152600401808060200182810382528381815181526020019150805190602001908083836000838110156108eb5781810151838201526020016108d3565b506114f281611ab9565b5050565b60006000196115036109dd565b14905090565b6115116109dd565b6040805180820190915260188152600080516020612806833981519152602082015290156115845760405160e560020a62461bcd028152600401808060200182810382528381815181526020019150805190602001908083836000838110156108eb5781810151838201526020016108d3565b5061158d611f4c565b600080546001604060020a0319166001604060020a0392909216919091179055565b60408051606060020a7350415553455f455845435554494f4e5f524f4c450281528151908190036014018120600080835260208301909352906115f6903390839085610870565b60408051808201909152600f81526000805160206127c6833981519152602082015290151561166a5760405160e560020a62461bcd028152600401808060200182810382528381815181526020019150805190602001908083836000838110156108eb5781810151838201526020016108d3565b506000838152600260205260409020915061168483611d3d565b6040805180820190915260138152606860020a7244454c41595f43414e5f4e4f545f504155534502602082015290156117025760405160e560020a62461bcd028152600401808060200182810382528381815181526020019150805190602001908083836000838110156108eb5781810151838201526020016108d3565b5081546001604060020a0316611716611dfb565b6001604060020a0316106040805190810160405280601d81526020017f44454c41595f5343524950545f455845435554494f4e5f5041535345440000008152509015156117a85760405160e560020a62461bcd028152600401808060200182810382528381815181526020019150805190602001908083836000838110156108eb5781810151838201526020016108d3565b506117b1611dfb565b82546001604060020a0391909116604060020a02604060020a608060020a03199091161782556040805184815290517f530967c73a73486877cad662c33d773448cb2e8836bbd70d69963279e32478be9181900360200190a1505050565b6002602081815260009283526040928390208054600180830180548751601f600019948316156101000294909401909116969096049182018590048502860185019096528085526001604060020a0380831696604060020a909304169492938301828280156118bf5780601f10611894576101008083540402835291602001916118bf565b820191906000526020600020905b8154815290600101906020018083116118a257829003601f168201915b5050505050905083565b600190565b6118d6612716565b6118df826113e7565b6040805180820190915260158152605860020a7444454c41595f43414e5f4e4f545f455845435554450260208201529015156119605760405160e560020a62461bcd028152600401808060200182810382528381815181526020019150805190602001908083836000838110156108eb5781810151838201526020016108d3565b50600082815260026020818152604092839020835160608101855281546001604060020a038082168352604060020a9091041681840152600180830180548751601f6000199483161561010002949094019091169690960491820185900485028601850187528186529195929492860193830182828015611a225780601f106119f757610100808354040283529160200191611a22565b820191906000526020600020905b815481529060010190602001808311611a0557829003601f168201915b50505091909252505050600083815260026020526040812080546001608060020a0319168155919250611a5860018301826126cf565b50506040818101518151600080825260208201908152818401909352611a7d92611ff0565b506040805183815290517f4868cc3f5c927482f2a4c3cc25d5e28f658c968b12284b14aa1c5cb9e7078f199181900360200190a15050565b4390565b60018054808201909155604080516060810190915260008054909291908190611b02906001604060020a0316611aed611dfb565b6001604060020a03169063ffffffff611ea716565b6001604060020a039081168252600060208084018290526040938401889052858252600281529083902084518154868401518516604060020a02604060020a608060020a0319929095166001604060020a031990911617169290921782559183015180519192611b7a92600185019290910190612735565b50506040805183815290517f1136c4e316430898135b65f16a0b67a90250220cda1e2903de655e54833b3fd792509081900360200190a18091505b50919050565b5490565b5490565b600080600160a060020a0383161515611bdf5760009150611bb5565b50506000903b1190565b60408051600160a060020a038316602480830191909152825180830390910181526044909101909152602081018051600160e060020a031660e060020a6370a08231021790526000908180611c3e86846125b5565b60408051808201909152601c81527f534146455f4552435f32305f42414c414e43455f52455645525445440000000060208201529193509150821515611cc95760405160e560020a62461bcd028152600401808060200182810382528381815181526020019150805190602001908083836000838110156108eb5781810151838201526020016108d3565b5095945050505050565b60408051600160a060020a03841660248201526044808201849052825180830390910181526064909101909152602081018051600160e060020a031660e060020a63a9059cbb02179052600090611d2a85826125e6565b95945050505050565b8051602002815290565b6000818152600260209081526040808320548151808301909252600f8252608a60020a6e111153105657d393d7d4d0d4925415029282019290925283916001604060020a03161515611dd45760405160e560020a62461bcd028152600401808060200182810382528381815181526020019150805190602001908083836000838110156108eb5781810151838201526020016108d3565b505050600090815260026020526040902054604060020a90046001604060020a0316151590565b6000610999611e08612634565b612638565b6040805180820190915260148152606060020a734d41544836345f5355425f554e444552464c4f5702602082015260009081906001604060020a038086169085161115611e9f5760405160e560020a62461bcd028152600401808060200182810382528381815181526020019150805190602001908083836000838110156108eb5781810151838201526020016108d3565b505050900390565b6040805180820190915260138152606860020a724d41544836345f4144445f4f564552464c4f57026020820152600090838301906001604060020a038086169083161015610df55760405160e560020a62461bcd028152600401808060200182810382528381815181526020019150805190602001908083836000838110156108eb5781810151838201526020016108d3565b60408051600081526020810190915290565b611f546109dd565b604080518082019091526018815260008051602061280683398151915260208201529015611fc75760405160e560020a62461bcd028152600401808060200182810382528381815181526020019150805190602001908083836000838110156108eb5781810151838201526020016108d3565b50611fee611fd3611ab5565b6000805160206127e68339815191529063ffffffff6126cb16565b565b6060600080606080612000610664565b6040805180820190915260148152606260020a731253925517d393d517d2539255125053125691510260208201529015156120805760405160e560020a62461bcd028152600401808060200182810382528381815181526020019150805190602001908083836000838110156108eb5781810151838201526020016108d3565b5060008061208c611432565b915061209661096e565b90506120a18a6106b7565b60408051808201909152601b81527f45564d52554e5f4558454355544f525f554e415641494c41424c4500000000006020820152909650600160a060020a03871615156121335760405160e560020a62461bcd028152600401808060200182810382528381815181526020019150805190602001908083836000838110156108eb5781810151838201526020016108d3565b506040516060602482019081528b5160848301528b5160e060020a63279cea3502975087928d928d928d9282916044820191606481019160a490910190602089019080838360005b8381101561219357818101518382015260200161217b565b50505050905090810190601f1680156121c05780820380516001836020036101000a031916815260200191505b50848103835286518152865160209182019188019080838360005b838110156121f35781810151838201526020016121db565b50505050905090810190601f1680156122205780820380516001836020036101000a031916815260200191505b508481038252855181528551602091820191808801910280838360005b8381101561225557818101518382015260200161223d565b50505050905001965050505050505060405160208183030381529060405290600160e060020a031916602082018051600160e060020a0383818316178352505050509350600080855160208701895af4604051935080801561231957603f3d1180156122ce5760203d03806020883e8601604052612313565b60e560020a62461bcd02865260206004870152601e60248701527f45564d52554e5f4558454355544f525f494e56414c49445f52455455524e00006044870152606486fd5b50612322565b3d6000863e3d85fd5b505085600160a060020a03167f5229a5dba83a54ae8cb5b51bdd6de9474cacbe9dd332f5185f3a4f4f2e3f4ad98b8b8660405180806020018060200180602001848103845287818151815260200191508051906020019080838360005b8381101561239757818101518382015260200161237f565b50505050905090810190601f1680156123c45780820380516001836020036101000a031916815260200191505b50848103835286518152865160209182019188019080838360005b838110156123f75781810151838201526020016123df565b50505050905090810190601f1680156124245780820380516001836020036101000a031916815260200191505b50848103825285518152855160209182019187019080838360005b8381101561245757818101518382015260200161243f565b50505050905090810190601f1680156124845780820380516001836020036101000a031916815260200191505b50965050505050505060405180910390a282965081600160a060020a03166124aa611432565b600160a060020a0316146040805190810160405280601f815260200160008051602061282683398151915281525090151561252a5760405160e560020a62461bcd028152600401808060200182810382528381815181526020019150805190602001908083836000838110156108eb5781810151838201526020016108d3565b508061253461096e565b60408051808201909152601f8152600080516020612826833981519152602082015291146125a75760405160e560020a62461bcd028152600401808060200182810382528381815181526020019150805190602001908083836000838110156108eb5781810151838201526020016108d3565b505050505050509392505050565b6000806000806040516020818751602089018a5afa925060008311156125da57805191505b50909590945092505050565b6000806040516020818551602087016000895af1600081111561262a573d8015612617576020811461262057612628565b60019350612628565b600183511493505b505b5090949350505050565b4290565b6040805180820190915260158152605860020a7455494e5436345f4e554d4245525f544f4f5f4249470260208201526000906001604060020a038311156126c45760405160e560020a62461bcd028152600401808060200182810382528381815181526020019150805190602001908083836000838110156108eb5781810151838201526020016108d3565b5090919050565b9055565b50805460018160011615610100020316600290046000825580601f106126f55750612713565b601f01602090049060005260206000209081019061271391906127ab565b50565b6040805160608181018352600080835260208301529181019190915290565b828054600181600116156101000203166002900490600052602060002090601f016020900481019282601f1061277657805160ff19168380011785556127a3565b828001600101855582156127a3579182015b828111156127a3578251825591602001919060010190612788565b5061068a9291505b61081391905b8082111561068a57600081556001016127b156004150505f415554485f4641494c45440000000000000000000000000000000000ebb05b386a8d34882b8711d156f463690983dc47815980fb82aeeff1aa43579e494e49545f414c52454144595f494e495449414c495a4544000000000000000045564d52554e5f50524f5445435445445f53544154455f4d4f4449464945440044454c41595f455845435554494f4e5f524f4c45000000000000000000000000a165627a7a72305820a7ecebc548d2f9dacb6df7693274e2f15c42cb24883a55c019f0f0406738a31e0029ebb05b386a8d34882b8711d156f463690983dc47815980fb82aeeff1aa43579e",
  "source": "pragma solidity ^0.4.24;\n\nimport \"@aragon/os/contracts/apps/AragonApp.sol\";\nimport \"@aragon/os/contracts/common/IForwarder.sol\";\nimport \"@aragon/os/contracts/lib/math/SafeMath64.sol\";\n\n\ncontract Delay is AragonApp, IForwarder {\n    using SafeMath64 for uint64;\n\n    bytes32 public constant SET_DELAY_ROLE = keccak256(\"SET_DELAY_ROLE\");\n    bytes32 public constant DELAY_EXECUTION_ROLE = keccak256(\"DELAY_EXECUTION_ROLE\");\n    bytes32 public constant PAUSE_EXECUTION_ROLE = keccak256(\"PAUSE_EXECUTION_ROLE\");\n    bytes32 public constant RESUME_EXECUTION_ROLE = keccak256(\"RESUME_EXECUTION_ROLE\");\n    bytes32 public constant CANCEL_EXECUTION_ROLE = keccak256(\"CANCEL_EXECUTION_ROLE\");\n\n    string private constant ERROR_NO_SCRIPT = \"DELAY_NO_SCRIPT\";\n    string private constant ERROR_CAN_NOT_EXECUTE = \"DELAY_CAN_NOT_EXECUTE\";\n    string private constant ERROR_CAN_NOT_PAUSE = \"DELAY_CAN_NOT_PAUSE\";\n    string private constant ERROR_SCRIPT_EXECUTION_PASSED = \"DELAY_SCRIPT_EXECUTION_PASSED\";\n    string private constant ERROR_CAN_NOT_RESUME = \"DELAY_CAN_NOT_RESUME\";\n    string private constant ERROR_CAN_NOT_FORWARD = \"DELAY_CAN_NOT_FORWARD\";\n\n    struct DelayedScript {\n        uint64 executionTime;\n        uint64 pausedAt;\n        bytes evmCallScript;\n    }\n\n    uint64 public executionDelay;\n    uint256 public delayedScriptsNewIndex = 0;\n    mapping(uint256 => DelayedScript) public delayedScripts;\n\n    event DelayedScriptStored(uint256 scriptId);\n    event ExecutionDelaySet(uint64 executionDelay);\n    event ExecutedScript(uint256 scriptId);\n    event ExecutionPaused(uint256 scriptId);\n    event ExecutionResumed(uint256 scriptId);\n    event ExecutionCancelled(uint256 scriptId);\n\n    modifier scriptExists(uint256 _scriptId) {\n        require(delayedScripts[_scriptId].executionTime != 0, ERROR_NO_SCRIPT);\n        _;\n    }\n\n    /**\n    * @notice Initialize the Delay app\n    * @param _executionDelay The delay in seconds a user will have to wait before executing a script\n    */\n    function initialize(uint64 _executionDelay) external onlyInit {\n        initialized();\n        executionDelay = _executionDelay;\n    }\n\n    /**\n    * @notice Set the execution delay to `_executionDelay`\n    * @param _executionDelay The new execution delay\n    */\n    function setExecutionDelay(uint64 _executionDelay) external auth(SET_DELAY_ROLE) {\n        executionDelay = _executionDelay;\n\n        emit ExecutionDelaySet(executionDelay);\n    }\n\n    /**\n    * @notice Delays execution for `@transformTime(self.executionDelay(): uint)`\n    * @param _evmCallScript The script that can be executed after a delay\n    */\n    function delayExecution(bytes _evmCallScript) external auth(DELAY_EXECUTION_ROLE) returns (uint256) {\n        return _delayExecution(_evmCallScript);\n    }\n\n    function isForwarder() external pure returns (bool) {\n        return true;\n    }\n\n    /**\n    * @notice Pause the script execution with ID `_delayedScriptId`\n    * @param _delayedScriptId The ID of the script execution to pause\n    */\n    function pauseExecution(uint256 _delayedScriptId) external auth(PAUSE_EXECUTION_ROLE) {\n        DelayedScript storage delayedScript = delayedScripts[_delayedScriptId];\n        require(!_isExecutionPaused(_delayedScriptId), ERROR_CAN_NOT_PAUSE);\n        require(getTimestamp64() < delayedScript.executionTime, ERROR_SCRIPT_EXECUTION_PASSED);\n\n        delayedScript.pausedAt = getTimestamp64();\n\n        emit ExecutionPaused(_delayedScriptId);\n    }\n\n    /**\n    * @notice Resume a paused script execution with ID `_delayedScriptId`\n    * @param _delayedScriptId The ID of the script execution to resume\n    */\n    function resumeExecution(uint256 _delayedScriptId) external auth(RESUME_EXECUTION_ROLE) {\n        require(_isExecutionPaused(_delayedScriptId), ERROR_CAN_NOT_RESUME);\n        DelayedScript storage delayedScript = delayedScripts[_delayedScriptId];\n\n        uint64 timePaused = getTimestamp64().sub(delayedScript.pausedAt);\n        delayedScript.executionTime = delayedScript.executionTime.add(timePaused);\n        delayedScript.pausedAt = 0;\n\n        emit ExecutionResumed(_delayedScriptId);\n    }\n\n    /**\n    * @notice Cancel script execution with ID `_delayedScriptId`\n    * @param _delayedScriptId The ID of the script execution to cancel\n    */\n    function cancelExecution(uint256 _delayedScriptId) external scriptExists(_delayedScriptId) auth(CANCEL_EXECUTION_ROLE) {\n        delete delayedScripts[_delayedScriptId];\n\n        emit ExecutionCancelled(_delayedScriptId);\n    }\n\n    /**\n    * @notice Execute the script with ID `_delayedScriptId`\n    * @param _delayedScriptId The ID of the script to execute\n    */\n    function execute(uint256 _delayedScriptId) external {\n        require(canExecute(_delayedScriptId), ERROR_CAN_NOT_EXECUTE);\n\n        DelayedScript memory delayedScript = delayedScripts[_delayedScriptId];\n        delete delayedScripts[_delayedScriptId];\n\n        runScript(delayedScript.evmCallScript, new bytes(0), new address[](0));\n        emit ExecutedScript(_delayedScriptId);\n    }\n\n    /**\n    * @notice Return whether a script with ID #`_scriptId` can be executed\n    * @param _scriptId The ID of the script to execute\n    */\n    function canExecute(uint256 _scriptId) public view returns (bool) {\n        bool withinExecutionWindow = getTimestamp64() > delayedScripts[_scriptId].executionTime;\n        bool isUnpaused = !_isExecutionPaused(_scriptId);\n\n        return withinExecutionWindow && isUnpaused;\n    }\n\n    function canForward(address _sender, bytes) public view returns (bool) {\n        return canPerform(_sender, DELAY_EXECUTION_ROLE, arr());\n    }\n\n    /**\n    * @notice Delays execution for `@transformTime(self.executionDelay(): uint)`\n    * @param _evmCallScript The script that can be executed after a delay\n    */\n    function forward(bytes _evmCallScript) public {\n        require(canForward(msg.sender, _evmCallScript), ERROR_CAN_NOT_FORWARD);\n        _delayExecution(_evmCallScript);\n    }\n\n    function _isExecutionPaused(uint256 _scriptId) internal view scriptExists(_scriptId) returns (bool) {\n        return delayedScripts[_scriptId].pausedAt != 0;\n    }\n\n    function _delayExecution(bytes _evmCallScript) internal returns (uint256) {\n        uint256 delayedScriptIndex = delayedScriptsNewIndex;\n        delayedScriptsNewIndex++;\n\n        delayedScripts[delayedScriptIndex] = DelayedScript(getTimestamp64().add(executionDelay), 0, _evmCallScript);\n\n        emit DelayedScriptStored(delayedScriptIndex);\n\n        return delayedScriptIndex;\n    }\n\n}\n",
  "sourcePath": "@1hive/delay-app/contracts/Delay.sol",
  "compiler": {
    "name": "solc",
    "version": "0.4.24+commit.e67f0147.Emscripten.clang"
  },
  "schemaVersion": "3.4.2",
  "updatedAt": "2021-10-14T14:14:03.786Z",
  "devdoc": {
    "methods": {
      "allowRecoverability(address)": {
        "details": "By default deriving from AragonApp makes it recoverable",
        "params": {
          "token": "Token address that would be recovered"
        },
        "return": "bool whether the app allows the recovery"
      },
      "canExecute(uint256)": {
        "params": {
          "_scriptId": "The ID of the script to execute"
        }
      },
      "canPerform(address,bytes32,uint256[])": {
        "details": "Check whether an action can be performed by a sender for a particular role on this app",
        "params": {
          "_params": "Permission params for the role",
          "_role": "Role on this app",
          "_sender": "Sender of the call"
        },
        "return": "Boolean indicating whether the sender has the permissions to perform the action.        Always returns false if the app hasn't been initialized yet."
      },
      "cancelExecution(uint256)": {
        "params": {
          "_delayedScriptId": "The ID of the script execution to cancel"
        }
      },
      "delayExecution(bytes)": {
        "params": {
          "_evmCallScript": "The script that can be executed after a delay"
        }
      },
      "execute(uint256)": {
        "params": {
          "_delayedScriptId": "The ID of the script to execute"
        }
      },
      "forward(bytes)": {
        "params": {
          "_evmCallScript": "The script that can be executed after a delay"
        }
      },
      "getInitializationBlock()": {
        "return": "Block number in which the contract was initialized"
      },
      "getRecoveryVault()": {
        "details": "Get the recovery vault for the app",
        "return": "Recovery vault address for the app"
      },
      "hasInitialized()": {
        "return": "Whether the contract has been initialized by the time of the current block"
      },
      "initialize(uint64)": {
        "params": {
          "_executionDelay": "The delay in seconds a user will have to wait before executing a script"
        }
      },
      "pauseExecution(uint256)": {
        "params": {
          "_delayedScriptId": "The ID of the script execution to pause"
        }
      },
      "resumeExecution(uint256)": {
        "params": {
          "_delayedScriptId": "The ID of the script execution to resume"
        }
      },
      "setExecutionDelay(uint64)": {
        "params": {
          "_executionDelay": "The new execution delay"
        }
      },
      "transferToVault(address)": {
        "params": {
          "_token": "Token balance to be sent to recovery vault."
        }
      }
    }
  },
  "userdoc": {
    "methods": {
      "canExecute(uint256)": {
        "notice": "Return whether a script with ID #`_scriptId` can be executed"
      },
      "cancelExecution(uint256)": {
        "notice": "Cancel script execution with ID `_delayedScriptId`"
      },
      "delayExecution(bytes)": {
        "notice": "Delays execution for `@transformTime(self.executionDelay(): uint)`"
      },
      "execute(uint256)": {
        "notice": "Execute the script with ID `_delayedScriptId`"
      },
      "forward(bytes)": {
        "notice": "Delays execution for `@transformTime(self.executionDelay(): uint)`"
      },
      "initialize(uint64)": {
        "notice": "Initialize the Delay app"
      },
      "pauseExecution(uint256)": {
        "notice": "Pause the script execution with ID `_delayedScriptId`"
      },
      "resumeExecution(uint256)": {
        "notice": "Resume a paused script execution with ID `_delayedScriptId`"
      },
      "setExecutionDelay(uint64)": {
        "notice": "Set the execution delay to `_executionDelay`"
      },
      "transferToVault(address)": {
        "notice": "Send funds to recovery Vault. This contract should never receive funds,        but in case it does, this function allows one to recover them."
      }
    }
  }
}