{
  "contractName": "DepositableStorage",
  "abi": [
    {
      "constant": true,
      "inputs": [],
      "name": "isDepositable",
      "outputs": [
        {
          "name": "",
          "type": "bool"
        }
      ],
      "payable": false,
      "stateMutability": "view",
      "type": "function"
    }
  ],
  "bytecode": "0x608060405234801561001057600080fd5b5060ae8061001f6000396000f30060806040526004361060255763ffffffff60e060020a60003504166348a0c8dd8114602a575b600080fd5b348015603557600080fd5b50603c6050565b604080519115158252519081900360200190f35b600060797f665fd576fbbe6f247aff98f5c94a561e3f71ec2d3c988d56f12d342396c50cea607e565b905090565b54905600a165627a7a72305820f39ebe48915f15e5663e2ef506ebc08560c0571666a715f2b061e48bb348bbaf0029",
  "source": "pragma solidity 0.4.24;\n\nimport \"./UnstructuredStorage.sol\";\n\n\ncontract DepositableStorage {\n    using UnstructuredStorage for bytes32;\n\n    // keccak256(\"aragonOS.depositableStorage.depositable\")\n    bytes32 internal constant DEPOSITABLE_POSITION = 0x665fd576fbbe6f247aff98f5c94a561e3f71ec2d3c988d56f12d342396c50cea;\n\n    function isDepositable() public view returns (bool) {\n        return DEPOSITABLE_POSITION.getStorageBool();\n    }\n\n    function setDepositable(bool _depositable) internal {\n        DEPOSITABLE_POSITION.setStorageBool(_depositable);\n    }\n}\n",
  "sourcePath": "@aragon/os/contracts/common/DepositableStorage.sol",
  "compiler": {
    "name": "solc",
    "version": "0.4.24+commit.e67f0147.Emscripten.clang"
  },
  "schemaVersion": "3.4.2",
  "updatedAt": "2021-10-14T14:14:04.198Z",
  "devdoc": {
    "methods": {}
  },
  "userdoc": {
    "methods": {}
  }
}