{
  "contractName": "DiscussionApp",
  "abi": [
    {
      "constant": true,
      "inputs": [],
      "name": "EMPTY_ROLE",
      "outputs": [
        {
          "name": "",
          "type": "bytes32"
        }
      ],
      "payable": false,
      "stateMutability": "view",
      "type": "function"
    },
    {
      "constant": true,
      "inputs": [],
      "name": "hasInitialized",
      "outputs": [
        {
          "name": "",
          "type": "bool"
        }
      ],
      "payable": false,
      "stateMutability": "view",
      "type": "function"
    },
    {
      "constant": true,
      "inputs": [
        {
          "name": "_script",
          "type": "bytes"
        }
      ],
      "name": "getEVMScriptExecutor",
      "outputs": [
        {
          "name": "",
          "type": "address"
        }
      ],
      "payable": false,
      "stateMutability": "view",
      "type": "function"
    },
    {
      "constant": true,
      "inputs": [],
      "name": "getRecoveryVault",
      "outputs": [
        {
          "name": "",
          "type": "address"
        }
      ],
      "payable": false,
      "stateMutability": "view",
      "type": "function"
    },
    {
      "constant": true,
      "inputs": [
        {
          "name": "token",
          "type": "address"
        }
      ],
      "name": "allowRecoverability",
      "outputs": [
        {
          "name": "",
          "type": "bool"
        }
      ],
      "payable": false,
      "stateMutability": "view",
      "type": "function"
    },
    {
      "constant": true,
      "inputs": [],
      "name": "appId",
      "outputs": [
        {
          "name": "",
          "type": "bytes32"
        }
      ],
      "payable": false,
      "stateMutability": "view",
      "type": "function"
    },
    {
      "constant": true,
      "inputs": [],
      "name": "getInitializationBlock",
      "outputs": [
        {
          "name": "",
          "type": "uint256"
        }
      ],
      "payable": false,
      "stateMutability": "view",
      "type": "function"
    },
    {
      "constant": false,
      "inputs": [
        {
          "name": "_token",
          "type": "address"
        }
      ],
      "name": "transferToVault",
      "outputs": [],
      "payable": false,
      "stateMutability": "nonpayable",
      "type": "function"
    },
    {
      "constant": true,
      "inputs": [
        {
          "name": "_sender",
          "type": "address"
        },
        {
          "name": "_role",
          "type": "bytes32"
        },
        {
          "name": "_params",
          "type": "uint256[]"
        }
      ],
      "name": "canPerform",
      "outputs": [
        {
          "name": "",
          "type": "bool"
        }
      ],
      "payable": false,
      "stateMutability": "view",
      "type": "function"
    },
    {
      "constant": true,
      "inputs": [],
      "name": "getEVMScriptRegistry",
      "outputs": [
        {
          "name": "",
          "type": "address"
        }
      ],
      "payable": false,
      "stateMutability": "view",
      "type": "function"
    },
    {
      "constant": true,
      "inputs": [
        {
          "name": "",
          "type": "uint256"
        },
        {
          "name": "",
          "type": "uint256"
        }
      ],
      "name": "discussionThreadPosts",
      "outputs": [
        {
          "name": "author",
          "type": "address"
        },
        {
          "name": "postCid",
          "type": "string"
        },
        {
          "name": "discussionThreadId",
          "type": "uint256"
        },
        {
          "name": "id",
          "type": "uint256"
        },
        {
          "name": "createdAt",
          "type": "uint256"
        },
        {
          "name": "show",
          "type": "bool"
        }
      ],
      "payable": false,
      "stateMutability": "view",
      "type": "function"
    },
    {
      "constant": true,
      "inputs": [],
      "name": "kernel",
      "outputs": [
        {
          "name": "",
          "type": "address"
        }
      ],
      "payable": false,
      "stateMutability": "view",
      "type": "function"
    },
    {
      "constant": true,
      "inputs": [],
      "name": "isPetrified",
      "outputs": [
        {
          "name": "",
          "type": "bool"
        }
      ],
      "payable": false,
      "stateMutability": "view",
      "type": "function"
    },
    {
      "anonymous": false,
      "inputs": [
        {
          "indexed": true,
          "name": "author",
          "type": "address"
        },
        {
          "indexed": false,
          "name": "postCid",
          "type": "string"
        },
        {
          "indexed": false,
          "name": "discussionThreadId",
          "type": "uint256"
        },
        {
          "indexed": false,
          "name": "postId",
          "type": "uint256"
        },
        {
          "indexed": false,
          "name": "createdAt",
          "type": "uint256"
        }
      ],
      "name": "Post",
      "type": "event"
    },
    {
      "anonymous": false,
      "inputs": [
        {
          "indexed": true,
          "name": "author",
          "type": "address"
        },
        {
          "indexed": false,
          "name": "revisedPostCid",
          "type": "string"
        },
        {
          "indexed": false,
          "name": "discussionThreadId",
          "type": "uint256"
        },
        {
          "indexed": false,
          "name": "postId",
          "type": "uint256"
        },
        {
          "indexed": false,
          "name": "createdAt",
          "type": "uint256"
        },
        {
          "indexed": false,
          "name": "revisedAt",
          "type": "uint256"
        }
      ],
      "name": "Revise",
      "type": "event"
    },
    {
      "anonymous": false,
      "inputs": [
        {
          "indexed": true,
          "name": "author",
          "type": "address"
        },
        {
          "indexed": false,
          "name": "discussionThreadId",
          "type": "uint256"
        },
        {
          "indexed": false,
          "name": "postId",
          "type": "uint256"
        },
        {
          "indexed": false,
          "name": "hiddenAt",
          "type": "uint256"
        }
      ],
      "name": "Hide",
      "type": "event"
    },
    {
      "anonymous": false,
      "inputs": [
        {
          "indexed": false,
          "name": "actionId",
          "type": "uint256"
        },
        {
          "indexed": false,
          "name": "_evmScript",
          "type": "bytes"
        }
      ],
      "name": "CreateDiscussionThread",
      "type": "event"
    },
    {
      "anonymous": false,
      "inputs": [
        {
          "indexed": true,
          "name": "executor",
          "type": "address"
        },
        {
          "indexed": false,
          "name": "script",
          "type": "bytes"
        },
        {
          "indexed": false,
          "name": "input",
          "type": "bytes"
        },
        {
          "indexed": false,
          "name": "returnData",
          "type": "bytes"
        }
      ],
      "name": "ScriptResult",
      "type": "event"
    },
    {
      "anonymous": false,
      "inputs": [
        {
          "indexed": true,
          "name": "vault",
          "type": "address"
        },
        {
          "indexed": true,
          "name": "token",
          "type": "address"
        },
        {
          "indexed": false,
          "name": "amount",
          "type": "uint256"
        }
      ],
      "name": "RecoverToVault",
      "type": "event"
    },
    {
      "constant": false,
      "inputs": [],
      "name": "initialize",
      "outputs": [],
      "payable": false,
      "stateMutability": "nonpayable",
      "type": "function"
    },
    {
      "constant": false,
      "inputs": [
        {
          "name": "postCid",
          "type": "string"
        },
        {
          "name": "discussionThreadId",
          "type": "uint256"
        }
      ],
      "name": "post",
      "outputs": [],
      "payable": false,
      "stateMutability": "nonpayable",
      "type": "function"
    },
    {
      "constant": false,
      "inputs": [
        {
          "name": "postId",
          "type": "uint256"
        },
        {
          "name": "discussionThreadId",
          "type": "uint256"
        }
      ],
      "name": "hide",
      "outputs": [],
      "payable": false,
      "stateMutability": "nonpayable",
      "type": "function"
    },
    {
      "constant": false,
      "inputs": [
        {
          "name": "revisedPostCid",
          "type": "string"
        },
        {
          "name": "postId",
          "type": "uint256"
        },
        {
          "name": "discussionThreadId",
          "type": "uint256"
        }
      ],
      "name": "revise",
      "outputs": [],
      "payable": false,
      "stateMutability": "nonpayable",
      "type": "function"
    },
    {
      "constant": true,
      "inputs": [],
      "name": "isForwarder",
      "outputs": [
        {
          "name": "",
          "type": "bool"
        }
      ],
      "payable": false,
      "stateMutability": "pure",
      "type": "function"
    },
    {
      "constant": false,
      "inputs": [
        {
          "name": "_evmScript",
          "type": "bytes"
        }
      ],
      "name": "forward",
      "outputs": [],
      "payable": false,
      "stateMutability": "nonpayable",
      "type": "function"
    },
    {
      "constant": true,
      "inputs": [
        {
          "name": "_sender",
          "type": "address"
        },
        {
          "name": "",
          "type": "bytes"
        }
      ],
      "name": "canForward",
      "outputs": [
        {
          "name": "",
          "type": "bool"
        }
      ],
      "payable": false,
      "stateMutability": "view",
      "type": "function"
    }
  ],
  "bytecode": "0x6080604052620000176401000000006200001d810204565b6200023b565b6200003064010000000062000125810204565b60408051808201909152601881527f494e49545f414c52454144595f494e495449414c495a45440000000000000000602082015290156200010c576040517f08c379a00000000000000000000000000000000000000000000000000000000081526004018080602001828103825283818151815260200191508051906020019080838360005b83811015620000d0578181015183820152602001620000b6565b50505050905090810190601f168015620000fe5780820380516001836020036101000a031916815260200191505b509250505060405180910390fd5b506200012360001964010000000062000154810204565b565b60006200014f6000805160206200200b833981519152640100000000620012e46200023382021704565b905090565b6200016764010000000062000125810204565b60408051808201909152601881527f494e49545f414c52454144595f494e495449414c495a454400000000000000006020820152901562000206576040517f08c379a000000000000000000000000000000000000000000000000000000000815260040180806020018281038252838181518152602001915080519060200190808383600083811015620000d0578181015183820152602001620000b6565b50620002306000805160206200200b8339815191528264010000000062001ad46200023782021704565b50565b5490565b9055565b611dc0806200024b6000396000f3006080604052600436106100f85763ffffffff60e060020a6000350416630157f17881146100fd5780630803fac0146101245780632914b9bd1461014d57806332f0a3b5146101c25780634e6c3c95146101d75780637e7db6e1146101fd57806380afdea81461021e5780638129fc1c146102335780638b3dd74914610248578063982172c61461025d5780639d4941d814610284578063a1658fad146102a5578063a479e5081461030c578063ab1bb26114610321578063af4be70b1461033c578063c0774df3146103fe578063d4aae0c414610465578063d948d4681461047a578063de4796ed146104d3578063fd64eccb146104e8575b600080fd5b34801561010957600080fd5b506101126104fd565b60408051918252519081900360200190f35b34801561013057600080fd5b50610139610522565b604080519115158252519081900360200190f35b34801561015957600080fd5b506040805160206004803580820135601f81018490048402850184019095528484526101a694369492936024939284019190819084018382808284375094975061054c9650505050505050565b60408051600160a060020a039092168252519081900360200190f35b3480156101ce57600080fd5b506101a6610632565b3480156101e357600080fd5b506101fb6024600480358281019291013590356106ab565b005b34801561020957600080fd5b50610139600160a060020a036004351661082c565b34801561022a57600080fd5b50610112610832565b34801561023f57600080fd5b506101fb610862565b34801561025457600080fd5b50610112610928565b34801561026957600080fd5b506101fb602460048035828101929101359035604435610941565b34801561029057600080fd5b506101fb600160a060020a0360043516610abe565b3480156102b157600080fd5b506040805160206004604435818101358381028086018501909652808552610139958335600160a060020a0316956024803596369695606495939492019291829185019084908082843750949750610d459650505050505050565b34801561031857600080fd5b506101a6610e95565b34801561032d57600080fd5b506101fb600435602435610f34565b34801561034857600080fd5b5061035760043560243561102b565b60408051600160a060020a0388168152908101859052606081018490526080810183905281151560a082015260c06020808301828152885192840192909252875160e084019189019080838360005b838110156103be5781810151838201526020016103a6565b50505050905090810190601f1680156103eb5780820380516001836020036101000a031916815260200191505b5097505050505050505060405180910390f35b34801561040a57600080fd5b5060408051602060046024803582810135601f8101859004850286018501909652858552610139958335600160a060020a03169536956044949193909101919081908401838280828437509497506111179650505050505050565b34801561047157600080fd5b506101a661111f565b34801561048657600080fd5b506040805160206004803580820135601f81018490048402850184019095528484526101fb94369492936024939284019190819084018382808284375094975061114a9650505050505050565b3480156104df57600080fd5b506101396112c8565b3480156104f457600080fd5b506101396112db565b6040805160b060020a69454d5054595f524f4c45028152905190819003600a01902081565b60008061052d610928565b905080158015906105455750806105426112e0565b10155b91505b5090565b6000610556610e95565b600160a060020a03166304bf2a7f836040518263ffffffff1660e060020a0281526004018080602001828103825283818151815260200191508051906020019080838360005b838110156105b457818101518382015260200161059c565b50505050905090810190601f1680156105e15780820380516001836020036101000a031916815260200191505b5092505050602060405180830381600087803b15801561060057600080fd5b505af1158015610614573d6000803e3d6000fd5b505050506040513d602081101561062a57600080fd5b505192915050565b600061063c61111f565b600160a060020a03166332f0a3b56040518163ffffffff1660e060020a028152600401602060405180830381600087803b15801561067957600080fd5b505af115801561068d573d6000803e3d6000fd5b505050506040513d60208110156106a357600080fd5b505190505b90565b60008054600160a060020a03191633178155806106ca60018686611b57565b5050600280820183905542600483015560058201805460ff191660019081179091556000848152602082815260408220805460038701819055808501808355918452919092208554600783029091018054600160a060020a031916600160a060020a0390921691909117815583860180549295939487949293610760938583019392821615610100026000190190911604611bd1565b50600282810154908201556003808301549082015560048083015490820155600580830154908201805460ff191660ff9092161515919091179055600680830180546107af9284019190611c46565b5050505033600160a060020a03167f08811c5838bf0d8f8f4a7ca61c16aec3c5faad9bcfd62b5d6b587a1e9b0fbedd86868685426040518080602001858152602001848152602001838152602001828103825287878281815260200192508082843760405192018290039850909650505050505050a25050505050565b50600190565b600061085d7fd625496217aa6a3453eecb9c3489dc5a53e6c67b444329ea2b2cbc9ff547639b6112e4565b905090565b61086a610928565b6040805180820190915260188152600080516020611d55833981519152602082015290156109195760405160e560020a62461bcd0281526004018080602001828103825283818151815260200191508051906020019080838360005b838110156108de5781810151838201526020016108c6565b50505050905090810190601f16801561090b5780820380516001836020036101000a031916815260200191505b509250505060405180910390fd5b50600080556109266112e8565b565b600061085d600080516020611d358339815191526112e4565b600081815260016020526040812080548490811061095b57fe5b600091825260209091206007909102018054909150600160a060020a031633146109e7576040805160e560020a62461bcd02815260206004820152602c60248201527f596f752063616e6e6f7420726576697365206120706f737420796f7520646964604482015260a160020a6b103737ba1030baba3437b91702606482015290519081900360840190fd5b6006810180546001818101808455600093845260209093208185018054610a27949290920192909160026101009282161592909202600019011604611bd1565b50610a389050600182018686611b57565b5033600160a060020a03167f9027e01fa45516b7f5fedf2c5951365e8212a1fc6d9f4fa44f178628c40fab5286868587866004015442604051808060200186815260200185815260200184815260200183815260200182810382528888828181526020019250808284376040519201829003995090975050505050505050a25050505050565b6000806000610acc8461082c565b6040805180820190915260128152607260020a71149150d3d5915497d11254d0531313d5d151026020820152901515610b4a5760405160e560020a62461bcd028152600401808060200182810382528381815181526020019150805190602001908083836000838110156108de5781810151838201526020016108c6565b50610b53610632565b9250610b5e8361138e565b60408051808201909152601a81527f5245434f5645525f5641554c545f4e4f545f434f4e54524143540000000000006020820152901515610be45760405160e560020a62461bcd028152600401808060200182810382528381815181526020019150805190602001908083836000838110156108de5781810151838201526020016108c6565b50600160a060020a0384161515610c355760405130319250600160a060020a0384169083156108fc029084906000818181858888f19350505050158015610c2f573d6000803e3d6000fd5b50610cf4565b5082610c50600160a060020a0382163063ffffffff6113bb16565b9150610c6c600160a060020a038216848463ffffffff6114a516565b60408051808201909152601d81527f5245434f5645525f544f4b454e5f5452414e534645525f4641494c45440000006020820152901515610cf25760405160e560020a62461bcd028152600401808060200182810382528381815181526020019150805190602001908083836000838110156108de5781810151838201526020016108c6565b505b83600160a060020a031683600160a060020a03167f596caf56044b55fb8c4ca640089bbc2b63cae3e978b851f5745cbb7c5b288e02846040518082815260200191505060405180910390a350505050565b600080610d50610522565b1515610d5f5760009150610e8d565b610d6761111f565b9050600160a060020a0381161515610d825760009150610e8d565b80600160a060020a031663fdef9106863087610d9d88611505565b60405160e060020a63ffffffff8716028152600160a060020a03808616600483019081529085166024830152604482018490526080606483019081528351608484015283519192909160a490910190602085019080838360005b83811015610e0f578181015183820152602001610df7565b50505050905090810190601f168015610e3c5780820380516001836020036101000a031916815260200191505b5095505050505050602060405180830381600087803b158015610e5e57600080fd5b505af1158015610e72573d6000803e3d6000fd5b505050506040513d6020811015610e8857600080fd5b505191505b509392505050565b600080610ea061111f565b6040805160e360020a6317c0177b0281527fd6f028ca0e8edb4a8c9757ca4fdccab25fa1e0317da1188108f7d2dee14902fb60048201527fddbcfd564f642ab5627cf68b9b7d374fb4f8a36e941a75d89c87998cef03bd6160248201529051600160a060020a03929092169163be00bbd8916044808201926020929091908290030181600087803b15801561060057600080fd5b6000818152600160205260408120805484908110610f4e57fe5b600091825260209091206007909102018054909150600160a060020a03163314610fd8576040805160e560020a62461bcd02815260206004820152602a60248201527f596f752063616e6e6f742068696465206120706f737420796f7520646964206e604482015260b160020a6937ba1030baba3437b91702606482015290519081900360840190fd5b60058101805460ff1916905560408051838152602081018590524281830152905133917f72413a20a4620fb77d92c1e2cdd96f49098fb2be4743bff36f5e7577ca73fbce919081900360600190a2505050565b60016020528160005260406000208181548110151561104657fe5b600091825260209182902060079091020180546001808301805460408051601f6002600019968516156101000296909601909316949094049182018790048702840187019052808352600160a060020a039093169650929450928301828280156110f15780601f106110c6576101008083540402835291602001916110f1565b820191906000526020600020905b8154815290600101906020018083116110d457829003601f168201915b505050506002830154600384015460048501546005909501549394919390925060ff1686565b600192915050565b600061085d7f4172f0f7d2289153072b0a6ca36959e0cbe2efc3afe50fc81636caa96338137b6112e4565b6060806111573384611117565b60408051808201909152601b81527f44495343555353494f4e535f43414e5f4e4f545f464f5257415244000000000060208201529015156111dd5760405160e560020a62461bcd028152600401808060200182810382528381815181526020019150805190602001908083836000838110156108de5781810151838201526020016108c6565b506040805160008152600160208083018281526060840185529295509192909190850190803883390190505090507ff5169fef497a692e8b48f03c449c6cd05431f0ac78d9ac940d9f35696e6cc6f5600054846040518083815260200180602001828103825283818151815260200191508051906020019080838360005b8381101561127357818101518382015260200161125b565b50505050905090810190601f1680156112a05780820380516001836020036101000a031916815260200191505b50935050505060405180910390a16000805460010190556112c283838361150f565b50505050565b60006000196112d5610928565b14905090565b600190565b4390565b5490565b6112f0610928565b6040805180820190915260188152600080516020611d55833981519152602082015290156113635760405160e560020a62461bcd028152600401808060200182810382528381815181526020019150805190602001908083836000838110156108de5781810151838201526020016108c6565b5061092661136f6112e0565b600080516020611d358339815191529063ffffffff611ad416565b5490565b600080600160a060020a03831615156113aa57600091506113b5565b823b90506000811191505b50919050565b60408051600160a060020a038316602480830191909152825180830390910181526044909101909152602081018051600160e060020a031660e060020a6370a082310217905260009081806114108684611ad8565b60408051808201909152601c81527f534146455f4552435f32305f42414c414e43455f5245564552544544000000006020820152919350915082151561149b5760405160e560020a62461bcd028152600401808060200182810382528381815181526020019150805190602001908083836000838110156108de5781810151838201526020016108c6565b5095945050505050565b60408051600160a060020a03841660248201526044808201849052825180830390910181526064909101909152602081018051600160e060020a031660e060020a63a9059cbb021790526000906114fc8582611b09565b95945050505050565b8051602002815290565b606060008060608061151f610522565b6040805180820190915260148152606260020a731253925517d393d517d25392551250531256915102602082015290151561159f5760405160e560020a62461bcd028152600401808060200182810382528381815181526020019150805190602001908083836000838110156108de5781810151838201526020016108c6565b506000806115ab61111f565b91506115b5610832565b90506115c08a61054c565b60408051808201909152601b81527f45564d52554e5f4558454355544f525f554e415641494c41424c4500000000006020820152909650600160a060020a03871615156116525760405160e560020a62461bcd028152600401808060200182810382528381815181526020019150805190602001908083836000838110156108de5781810151838201526020016108c6565b506040516060602482019081528b5160848301528b5160e060020a63279cea3502975087928d928d928d9282916044820191606481019160a490910190602089019080838360005b838110156116b257818101518382015260200161169a565b50505050905090810190601f1680156116df5780820380516001836020036101000a031916815260200191505b50848103835286518152865160209182019188019080838360005b838110156117125781810151838201526020016116fa565b50505050905090810190601f16801561173f5780820380516001836020036101000a031916815260200191505b508481038252855181528551602091820191808801910280838360005b8381101561177457818101518382015260200161175c565b50505050905001965050505050505060405160208183030381529060405290600160e060020a031916602082018051600160e060020a0383818316178352505050509350600080855160208701895af4604051935080801561183857603f3d1180156117ed5760203d03806020883e8601604052611832565b60e560020a62461bcd02865260206004870152601e60248701527f45564d52554e5f4558454355544f525f494e56414c49445f52455455524e00006044870152606486fd5b50611841565b3d6000863e3d85fd5b505085600160a060020a03167f5229a5dba83a54ae8cb5b51bdd6de9474cacbe9dd332f5185f3a4f4f2e3f4ad98b8b8660405180806020018060200180602001848103845287818151815260200191508051906020019080838360005b838110156118b657818101518382015260200161189e565b50505050905090810190601f1680156118e35780820380516001836020036101000a031916815260200191505b50848103835286518152865160209182019188019080838360005b838110156119165781810151838201526020016118fe565b50505050905090810190601f1680156119435780820380516001836020036101000a031916815260200191505b50848103825285518152855160209182019187019080838360005b8381101561197657818101518382015260200161195e565b50505050905090810190601f1680156119a35780820380516001836020036101000a031916815260200191505b50965050505050505060405180910390a282965081600160a060020a03166119c961111f565b600160a060020a0316146040805190810160405280601f8152602001600080516020611d75833981519152815250901515611a495760405160e560020a62461bcd028152600401808060200182810382528381815181526020019150805190602001908083836000838110156108de5781810151838201526020016108c6565b5080611a53610832565b60408051808201909152601f8152600080516020611d7583398151915260208201529114611ac65760405160e560020a62461bcd028152600401808060200182810382528381815181526020019150805190602001908083836000838110156108de5781810151838201526020016108c6565b505050505050509392505050565b9055565b6000806000806040516020818751602089018a5afa92506000831115611afd57805191505b50909590945092505050565b6000806040516020818551602087016000895af16000811115611b4d573d8015611b3a5760208114611b4357611b4b565b60019350611b4b565b600183511493505b505b5090949350505050565b828054600181600116156101000203166002900490600052602060002090601f016020900481019282601f10611b985782800160ff19823516178555611bc5565b82800160010185558215611bc5579182015b82811115611bc5578235825591602001919060010190611baa565b50610548929150611cb0565b828054600181600116156101000203166002900490600052602060002090601f016020900481019282601f10611c0a5780548555611bc5565b82800160010185558215611bc557600052602060002091601f016020900482015b82811115611bc5578254825591600101919060010190611c2b565b828054828255906000526020600020908101928215611ca45760005260206000209182015b82811115611ca45782829080546001816001161561010002031660029004611c94929190611bd1565b5091600101919060010190611c6b565b50610548929150611cca565b6106a891905b808211156105485760008155600101611cb6565b6106a891905b80821115610548576000611ce48282611ced565b50600101611cd0565b50805460018160011615610100020316600290046000825580601f10611d135750611d31565b601f016020900490600052602060002090810190611d319190611cb0565b505600ebb05b386a8d34882b8711d156f463690983dc47815980fb82aeeff1aa43579e494e49545f414c52454144595f494e495449414c495a4544000000000000000045564d52554e5f50524f5445435445445f53544154455f4d4f44494649454400a165627a7a7230582016ea8b04f71a1ced4e0f4a41bdf506fb280c9a0caae2873170f1d17140101a490029ebb05b386a8d34882b8711d156f463690983dc47815980fb82aeeff1aa43579e",
  "source": "pragma solidity ^0.4.24;\n\nimport \"@aragon/os/contracts/apps/AragonApp.sol\";\nimport \"@aragon/os/contracts/lib/math/SafeMath.sol\";\nimport \"@aragon/os/contracts/common/IForwarder.sol\";\n\n\ncontract DiscussionApp is IForwarder, AragonApp {\n    using SafeMath for uint256;\n\n    event Post(address indexed author, string postCid, uint256 discussionThreadId, uint256 postId, uint256 createdAt);\n    event Revise(\n        address indexed author,\n        string revisedPostCid,\n        uint256 discussionThreadId,\n        uint256 postId,\n        uint256 createdAt,\n        uint256 revisedAt\n    );\n    event Hide(address indexed author, uint256 discussionThreadId, uint256 postId, uint256 hiddenAt);\n    event CreateDiscussionThread(uint256 actionId, bytes _evmScript);\n\n    bytes32 public constant EMPTY_ROLE = keccak256(\"EMPTY_ROLE\");\n\n    string private constant ERROR_CAN_NOT_FORWARD = \"DISCUSSIONS_CAN_NOT_FORWARD\";\n\n    struct DiscussionPost {\n        address author;\n        string postCid;\n        uint256 discussionThreadId;\n        uint256 id;\n        uint256 createdAt;\n        bool show;\n        string[] revisionCids;\n    }\n\n    uint256 discussionThreadId;\n\n    mapping(uint256 => DiscussionPost[]) public discussionThreadPosts;\n\n    function initialize() external onlyInit {\n        discussionThreadId = 0;\n        initialized();\n    }\n\n    /**\n     * @notice Create discussion post with an IPFS content hash '`postCid`'.\n     * @param postCid The IPFS content hash of the discussion post data\n     * @param discussionThreadId The thread to post this discussion to\n     */\n    function post(string postCid, uint256 discussionThreadId) external {\n        DiscussionPost storage post;\n        post.author = msg.sender;\n        post.postCid = postCid;\n        post.discussionThreadId = discussionThreadId;\n        post.createdAt = now; // solium-disable-line security/no-block-members\n        post.show = true;\n        uint256 postId = discussionThreadPosts[discussionThreadId].length;\n        post.id = postId;\n        discussionThreadPosts[discussionThreadId].push(post);\n        emit Post(msg.sender, postCid, discussionThreadId, postId, now); // solium-disable-line security/no-block-members\n    }\n\n    /**\n     * @notice Hide a discussion post with ID '`postId`'.\n     * @param postId The postId to hide\n     * @param discussionThreadId The thread to hide this discussion from\n     */\n    function hide(uint256 postId, uint256 discussionThreadId) external {\n        DiscussionPost storage post = discussionThreadPosts[discussionThreadId][postId];\n        require(post.author == msg.sender, \"You cannot hide a post you did not author.\");\n        post.show = false;\n        emit Hide(msg.sender, discussionThreadId, postId, now); // solium-disable-line security/no-block-members\n    }\n\n    /**\n     * @notice Revise a discussion post with ID '`postId`'.\n     * @param revisedPostCid The cid of the pre-revised post\n     * @param postId The postId to revise\n     * @param discussionThreadId The thread to hide this discussion from\n     */\n    function revise(string revisedPostCid, uint256 postId, uint256 discussionThreadId) external {\n        DiscussionPost storage post = discussionThreadPosts[discussionThreadId][postId];\n        require(post.author == msg.sender, \"You cannot revise a post you did not author.\");\n        // add the current post to the revision history\n        // should we limit the number of revisions you can make to save storage?\n        post.revisionCids.push(post.postCid);\n        post.postCid = revisedPostCid;\n        emit Revise(\n            msg.sender,\n            revisedPostCid,\n            discussionThreadId,\n            postId,\n            post.createdAt,\n            now // solium-disable-line security/no-block-members\n        );\n    }\n\n    // Forwarding fns\n\n    /**\n    * @notice Tells whether the Discussion app is a forwarder or not\n    * @dev IForwarder interface conformance\n    * @return Always true\n    */\n    function isForwarder() external pure returns (bool) {\n        return true;\n    }\n\n    /**\n    * @notice Creates a discussion thread around the desired action\n    * @dev IForwarder interface conformance\n    * @param _evmScript Start vote with script\n    */\n    function forward(bytes _evmScript) public {\n        require(canForward(msg.sender, _evmScript), ERROR_CAN_NOT_FORWARD);\n        bytes memory input = new bytes(0); // TODO: Consider input for this\n        address[] memory blacklist = new address[](1);\n        emit CreateDiscussionThread(discussionThreadId, _evmScript);\n        discussionThreadId = discussionThreadId + 1;\n        runScript(_evmScript, input, blacklist);\n    }\n\n    /**\n    * @notice Tells whether `_sender` can forward actions or not\n    * @dev IForwarder interface conformance\n    * @param _sender Address of the account intending to forward an action\n    * @return True (eventually we should return if the given address can create a discussion thread, false otherwise)\n    */\n    function canForward(address _sender, bytes) public view returns (bool) {\n        return true;\n    }\n}\n",
  "sourcePath": "@autarklabs/apps-discussions/contracts/DiscussionApp.sol",
  "compiler": {
    "name": "solc",
    "version": "0.4.24+commit.e67f0147.Emscripten.clang"
  },
  "schemaVersion": "3.4.2",
  "updatedAt": "2021-10-14T13:05:20.018Z",
  "devdoc": {
    "methods": {
      "allowRecoverability(address)": {
        "details": "By default deriving from AragonApp makes it recoverable",
        "params": {
          "token": "Token address that would be recovered"
        },
        "return": "bool whether the app allows the recovery"
      },
      "canForward(address,bytes)": {
        "details": "IForwarder interface conformance",
        "params": {
          "_sender": "Address of the account intending to forward an action"
        },
        "return": "True (eventually we should return if the given address can create a discussion thread, false otherwise)"
      },
      "canPerform(address,bytes32,uint256[])": {
        "details": "Check whether an action can be performed by a sender for a particular role on this app",
        "params": {
          "_params": "Permission params for the role",
          "_role": "Role on this app",
          "_sender": "Sender of the call"
        },
        "return": "Boolean indicating whether the sender has the permissions to perform the action.        Always returns false if the app hasn't been initialized yet."
      },
      "forward(bytes)": {
        "details": "IForwarder interface conformance",
        "params": {
          "_evmScript": "Start vote with script"
        }
      },
      "getInitializationBlock()": {
        "return": "Block number in which the contract was initialized"
      },
      "getRecoveryVault()": {
        "details": "Get the recovery vault for the app",
        "return": "Recovery vault address for the app"
      },
      "hasInitialized()": {
        "return": "Whether the contract has been initialized by the time of the current block"
      },
      "hide(uint256,uint256)": {
        "params": {
          "discussionThreadId": "The thread to hide this discussion from",
          "postId": "The postId to hide"
        }
      },
      "isForwarder()": {
        "details": "IForwarder interface conformance",
        "return": "Always true"
      },
      "post(string,uint256)": {
        "params": {
          "discussionThreadId": "The thread to post this discussion to",
          "postCid": "The IPFS content hash of the discussion post data"
        }
      },
      "revise(string,uint256,uint256)": {
        "params": {
          "discussionThreadId": "The thread to hide this discussion from",
          "postId": "The postId to revise",
          "revisedPostCid": "The cid of the pre-revised post"
        }
      },
      "transferToVault(address)": {
        "params": {
          "_token": "Token balance to be sent to recovery vault."
        }
      }
    }
  },
  "userdoc": {
    "methods": {
      "canForward(address,bytes)": {
        "notice": "Tells whether `_sender` can forward actions or not"
      },
      "forward(bytes)": {
        "notice": "Creates a discussion thread around the desired action"
      },
      "hide(uint256,uint256)": {
        "notice": "Hide a discussion post with ID '`postId`'."
      },
      "isForwarder()": {
        "notice": "Tells whether the Discussion app is a forwarder or not"
      },
      "post(string,uint256)": {
        "notice": "Create discussion post with an IPFS content hash '`postCid`'."
      },
      "revise(string,uint256,uint256)": {
        "notice": "Revise a discussion post with ID '`postId`'."
      },
      "transferToVault(address)": {
        "notice": "Send funds to recovery Vault. This contract should never receive funds,        but in case it does, this function allows one to recover them."
      }
    }
  }
}