{
  "contractName": "DotVoting",
  "abi": [
    {
      "constant": true,
      "inputs": [],
      "name": "DESCRIPTION_PARAM_LOC",
      "outputs": [
        {
          "name": "",
          "type": "uint256"
        }
      ],
      "payable": false,
      "stateMutability": "view",
      "type": "function"
    },
    {
      "constant": true,
      "inputs": [],
      "name": "hasInitialized",
      "outputs": [
        {
          "name": "",
          "type": "bool"
        }
      ],
      "payable": false,
      "stateMutability": "view",
      "type": "function"
    },
    {
      "constant": true,
      "inputs": [
        {
          "name": "_actionId",
          "type": "uint256"
        },
        {
          "name": "_optionIndex",
          "type": "uint256"
        }
      ],
      "name": "getOption",
      "outputs": [
        {
          "name": "optionAddress",
          "type": "address"
        },
        {
          "name": "actionSupport",
          "type": "uint256"
        },
        {
          "name": "metadata",
          "type": "string"
        },
        {
          "name": "externalId1",
          "type": "bytes32"
        },
        {
          "name": "externalId2",
          "type": "bytes32"
        }
      ],
      "payable": false,
      "stateMutability": "view",
      "type": "function"
    },
    {
      "constant": true,
      "inputs": [
        {
          "name": "_script",
          "type": "bytes"
        }
      ],
      "name": "getEVMScriptExecutor",
      "outputs": [
        {
          "name": "",
          "type": "address"
        }
      ],
      "payable": false,
      "stateMutability": "view",
      "type": "function"
    },
    {
      "constant": true,
      "inputs": [],
      "name": "getRecoveryVault",
      "outputs": [
        {
          "name": "",
          "type": "address"
        }
      ],
      "payable": false,
      "stateMutability": "view",
      "type": "function"
    },
    {
      "constant": true,
      "inputs": [],
      "name": "ROLE_ADD_CANDIDATES",
      "outputs": [
        {
          "name": "",
          "type": "bytes32"
        }
      ],
      "payable": false,
      "stateMutability": "view",
      "type": "function"
    },
    {
      "constant": true,
      "inputs": [],
      "name": "ROLE_CREATE_VOTES",
      "outputs": [
        {
          "name": "",
          "type": "bytes32"
        }
      ],
      "payable": false,
      "stateMutability": "view",
      "type": "function"
    },
    {
      "constant": true,
      "inputs": [],
      "name": "EX_ID1_PARAM_LOC",
      "outputs": [
        {
          "name": "",
          "type": "uint256"
        }
      ],
      "payable": false,
      "stateMutability": "view",
      "type": "function"
    },
    {
      "constant": true,
      "inputs": [],
      "name": "globalMinQuorum",
      "outputs": [
        {
          "name": "",
          "type": "uint256"
        }
      ],
      "payable": false,
      "stateMutability": "view",
      "type": "function"
    },
    {
      "constant": true,
      "inputs": [],
      "name": "ROLE_MODIFY_CANDIDATE_SUPPORT",
      "outputs": [
        {
          "name": "",
          "type": "bytes32"
        }
      ],
      "payable": false,
      "stateMutability": "view",
      "type": "function"
    },
    {
      "constant": true,
      "inputs": [],
      "name": "OPTION_SUPPORT_PARAM_LOC",
      "outputs": [
        {
          "name": "",
          "type": "uint256"
        }
      ],
      "payable": false,
      "stateMutability": "view",
      "type": "function"
    },
    {
      "constant": true,
      "inputs": [],
      "name": "OPTION_ADDR_PARAM_LOC",
      "outputs": [
        {
          "name": "",
          "type": "uint256"
        }
      ],
      "payable": false,
      "stateMutability": "view",
      "type": "function"
    },
    {
      "constant": true,
      "inputs": [
        {
          "name": "token",
          "type": "address"
        }
      ],
      "name": "allowRecoverability",
      "outputs": [
        {
          "name": "",
          "type": "bool"
        }
      ],
      "payable": false,
      "stateMutability": "view",
      "type": "function"
    },
    {
      "constant": true,
      "inputs": [],
      "name": "globalCandidateSupportPct",
      "outputs": [
        {
          "name": "",
          "type": "uint256"
        }
      ],
      "payable": false,
      "stateMutability": "view",
      "type": "function"
    },
    {
      "constant": true,
      "inputs": [],
      "name": "appId",
      "outputs": [
        {
          "name": "",
          "type": "bytes32"
        }
      ],
      "payable": false,
      "stateMutability": "view",
      "type": "function"
    },
    {
      "constant": true,
      "inputs": [],
      "name": "getInitializationBlock",
      "outputs": [
        {
          "name": "",
          "type": "uint256"
        }
      ],
      "payable": false,
      "stateMutability": "view",
      "type": "function"
    },
    {
      "constant": true,
      "inputs": [
        {
          "name": "_actionId",
          "type": "uint256"
        }
      ],
      "name": "getOptionLength",
      "outputs": [
        {
          "name": "totalOptions",
          "type": "uint256"
        }
      ],
      "payable": false,
      "stateMutability": "view",
      "type": "function"
    },
    {
      "constant": true,
      "inputs": [],
      "name": "ROLE_MODIFY_QUORUM",
      "outputs": [
        {
          "name": "",
          "type": "bytes32"
        }
      ],
      "payable": false,
      "stateMutability": "view",
      "type": "function"
    },
    {
      "constant": false,
      "inputs": [
        {
          "name": "_token",
          "type": "address"
        }
      ],
      "name": "transferToVault",
      "outputs": [],
      "payable": false,
      "stateMutability": "nonpayable",
      "type": "function"
    },
    {
      "constant": true,
      "inputs": [
        {
          "name": "_sender",
          "type": "address"
        },
        {
          "name": "_role",
          "type": "bytes32"
        },
        {
          "name": "_params",
          "type": "uint256[]"
        }
      ],
      "name": "canPerform",
      "outputs": [
        {
          "name": "",
          "type": "bool"
        }
      ],
      "payable": false,
      "stateMutability": "view",
      "type": "function"
    },
    {
      "constant": true,
      "inputs": [],
      "name": "getEVMScriptRegistry",
      "outputs": [
        {
          "name": "",
          "type": "address"
        }
      ],
      "payable": false,
      "stateMutability": "view",
      "type": "function"
    },
    {
      "constant": true,
      "inputs": [],
      "name": "OPTION_INFO_PARAM_LOC",
      "outputs": [
        {
          "name": "",
          "type": "uint256"
        }
      ],
      "payable": false,
      "stateMutability": "view",
      "type": "function"
    },
    {
      "constant": true,
      "inputs": [],
      "name": "INDICIES_PARAM_LOC",
      "outputs": [
        {
          "name": "",
          "type": "uint256"
        }
      ],
      "payable": false,
      "stateMutability": "view",
      "type": "function"
    },
    {
      "constant": true,
      "inputs": [],
      "name": "TOTAL_DYNAMIC_PARAMS",
      "outputs": [
        {
          "name": "",
          "type": "uint256"
        }
      ],
      "payable": false,
      "stateMutability": "view",
      "type": "function"
    },
    {
      "constant": true,
      "inputs": [],
      "name": "voteTime",
      "outputs": [
        {
          "name": "",
          "type": "uint64"
        }
      ],
      "payable": false,
      "stateMutability": "view",
      "type": "function"
    },
    {
      "constant": true,
      "inputs": [],
      "name": "kernel",
      "outputs": [
        {
          "name": "",
          "type": "address"
        }
      ],
      "payable": false,
      "stateMutability": "view",
      "type": "function"
    },
    {
      "constant": true,
      "inputs": [],
      "name": "isPetrified",
      "outputs": [
        {
          "name": "",
          "type": "bool"
        }
      ],
      "payable": false,
      "stateMutability": "view",
      "type": "function"
    },
    {
      "constant": true,
      "inputs": [],
      "name": "EX_ID2_PARAM_LOC",
      "outputs": [
        {
          "name": "",
          "type": "uint256"
        }
      ],
      "payable": false,
      "stateMutability": "view",
      "type": "function"
    },
    {
      "constant": true,
      "inputs": [],
      "name": "token",
      "outputs": [
        {
          "name": "",
          "type": "address"
        }
      ],
      "payable": false,
      "stateMutability": "view",
      "type": "function"
    },
    {
      "constant": true,
      "inputs": [],
      "name": "PCT_BASE",
      "outputs": [
        {
          "name": "",
          "type": "uint256"
        }
      ],
      "payable": false,
      "stateMutability": "view",
      "type": "function"
    },
    {
      "anonymous": false,
      "inputs": [
        {
          "indexed": true,
          "name": "voteId",
          "type": "uint256"
        }
      ],
      "name": "StartVote",
      "type": "event"
    },
    {
      "anonymous": false,
      "inputs": [
        {
          "indexed": true,
          "name": "voteId",
          "type": "uint256"
        }
      ],
      "name": "CastVote",
      "type": "event"
    },
    {
      "anonymous": false,
      "inputs": [
        {
          "indexed": true,
          "name": "candidateKey",
          "type": "string"
        },
        {
          "indexed": false,
          "name": "support",
          "type": "uint256"
        }
      ],
      "name": "UpdateCandidateSupport",
      "type": "event"
    },
    {
      "anonymous": false,
      "inputs": [
        {
          "indexed": true,
          "name": "voteId",
          "type": "uint256"
        }
      ],
      "name": "ExecuteVote",
      "type": "event"
    },
    {
      "anonymous": false,
      "inputs": [
        {
          "indexed": false,
          "name": "script",
          "type": "bytes"
        },
        {
          "indexed": false,
          "name": "data",
          "type": "uint256"
        }
      ],
      "name": "ExecutionScript",
      "type": "event"
    },
    {
      "anonymous": false,
      "inputs": [
        {
          "indexed": true,
          "name": "voteId",
          "type": "uint256"
        },
        {
          "indexed": false,
          "name": "addr",
          "type": "address"
        },
        {
          "indexed": false,
          "name": "funcSig",
          "type": "bytes32"
        }
      ],
      "name": "ExternalContract",
      "type": "event"
    },
    {
      "anonymous": false,
      "inputs": [
        {
          "indexed": false,
          "name": "voteId",
          "type": "uint256"
        },
        {
          "indexed": false,
          "name": "candidate",
          "type": "address"
        },
        {
          "indexed": false,
          "name": "length",
          "type": "uint256"
        }
      ],
      "name": "AddCandidate",
      "type": "event"
    },
    {
      "anonymous": false,
      "inputs": [
        {
          "indexed": false,
          "name": "metadata",
          "type": "string"
        }
      ],
      "name": "Metadata",
      "type": "event"
    },
    {
      "anonymous": false,
      "inputs": [
        {
          "indexed": false,
          "name": "currentLocation",
          "type": "uint256"
        }
      ],
      "name": "Location",
      "type": "event"
    },
    {
      "anonymous": false,
      "inputs": [
        {
          "indexed": false,
          "name": "candidate",
          "type": "address"
        }
      ],
      "name": "Address",
      "type": "event"
    },
    {
      "anonymous": false,
      "inputs": [
        {
          "indexed": false,
          "name": "numberOfCandidates",
          "type": "uint256"
        }
      ],
      "name": "CandidateQty",
      "type": "event"
    },
    {
      "anonymous": false,
      "inputs": [
        {
          "indexed": false,
          "name": "quorum",
          "type": "uint256"
        }
      ],
      "name": "UpdateQuorum",
      "type": "event"
    },
    {
      "anonymous": false,
      "inputs": [
        {
          "indexed": false,
          "name": "minSupport",
          "type": "uint256"
        }
      ],
      "name": "UpdateMinimumSupport",
      "type": "event"
    },
    {
      "anonymous": false,
      "inputs": [
        {
          "indexed": true,
          "name": "executor",
          "type": "address"
        },
        {
          "indexed": false,
          "name": "script",
          "type": "bytes"
        },
        {
          "indexed": false,
          "name": "input",
          "type": "bytes"
        },
        {
          "indexed": false,
          "name": "returnData",
          "type": "bytes"
        }
      ],
      "name": "ScriptResult",
      "type": "event"
    },
    {
      "anonymous": false,
      "inputs": [
        {
          "indexed": true,
          "name": "vault",
          "type": "address"
        },
        {
          "indexed": true,
          "name": "token",
          "type": "address"
        },
        {
          "indexed": false,
          "name": "amount",
          "type": "uint256"
        }
      ],
      "name": "RecoverToVault",
      "type": "event"
    },
    {
      "anonymous": false,
      "inputs": [
        {
          "indexed": false,
          "name": "actionId",
          "type": "uint256"
        },
        {
          "indexed": false,
          "name": "optionAddress",
          "type": "address"
        },
        {
          "indexed": false,
          "name": "optionQty",
          "type": "uint256"
        }
      ],
      "name": "AddOption",
      "type": "event"
    },
    {
      "anonymous": false,
      "inputs": [
        {
          "indexed": false,
          "name": "qty",
          "type": "uint256"
        }
      ],
      "name": "OptionQty",
      "type": "event"
    },
    {
      "anonymous": false,
      "inputs": [
        {
          "indexed": false,
          "name": "script",
          "type": "bytes"
        }
      ],
      "name": "OrigScript",
      "type": "event"
    },
    {
      "constant": false,
      "inputs": [
        {
          "name": "_token",
          "type": "address"
        },
        {
          "name": "_minQuorum",
          "type": "uint256"
        },
        {
          "name": "_candidateSupportPct",
          "type": "uint256"
        },
        {
          "name": "_voteTime",
          "type": "uint64"
        }
      ],
      "name": "initialize",
      "outputs": [],
      "payable": false,
      "stateMutability": "nonpayable",
      "type": "function"
    },
    {
      "constant": false,
      "inputs": [
        {
          "name": "_executionScript",
          "type": "bytes"
        },
        {
          "name": "_metadata",
          "type": "string"
        }
      ],
      "name": "newVote",
      "outputs": [
        {
          "name": "voteId",
          "type": "uint256"
        }
      ],
      "payable": false,
      "stateMutability": "nonpayable",
      "type": "function"
    },
    {
      "constant": false,
      "inputs": [
        {
          "name": "_voteId",
          "type": "uint256"
        },
        {
          "name": "_supports",
          "type": "uint256[]"
        }
      ],
      "name": "vote",
      "outputs": [],
      "payable": false,
      "stateMutability": "nonpayable",
      "type": "function"
    },
    {
      "constant": false,
      "inputs": [
        {
          "name": "_voteId",
          "type": "uint256"
        }
      ],
      "name": "executeVote",
      "outputs": [],
      "payable": false,
      "stateMutability": "nonpayable",
      "type": "function"
    },
    {
      "constant": true,
      "inputs": [
        {
          "name": "_voteId",
          "type": "uint256"
        },
        {
          "name": "_candidateIndex",
          "type": "uint256"
        }
      ],
      "name": "getCandidate",
      "outputs": [
        {
          "name": "candidateAddress",
          "type": "address"
        },
        {
          "name": "voteSupport",
          "type": "uint256"
        },
        {
          "name": "metadata",
          "type": "string"
        },
        {
          "name": "externalId1",
          "type": "bytes32"
        },
        {
          "name": "externalId2",
          "type": "bytes32"
        }
      ],
      "payable": false,
      "stateMutability": "view",
      "type": "function"
    },
    {
      "constant": false,
      "inputs": [
        {
          "name": "_globalCandidateSupportPct",
          "type": "uint256"
        }
      ],
      "name": "setglobalCandidateSupportPct",
      "outputs": [],
      "payable": false,
      "stateMutability": "nonpayable",
      "type": "function"
    },
    {
      "constant": false,
      "inputs": [
        {
          "name": "_minQuorum",
          "type": "uint256"
        }
      ],
      "name": "setGlobalQuorum",
      "outputs": [],
      "payable": false,
      "stateMutability": "nonpayable",
      "type": "function"
    },
    {
      "constant": false,
      "inputs": [
        {
          "name": "_voteId",
          "type": "uint256"
        },
        {
          "name": "_metadata",
          "type": "string"
        },
        {
          "name": "_description",
          "type": "address"
        },
        {
          "name": "_eId1",
          "type": "bytes32"
        },
        {
          "name": "_eId2",
          "type": "bytes32"
        }
      ],
      "name": "addCandidate",
      "outputs": [],
      "payable": false,
      "stateMutability": "nonpayable",
      "type": "function"
    },
    {
      "constant": true,
      "inputs": [],
      "name": "isForwarder",
      "outputs": [
        {
          "name": "",
          "type": "bool"
        }
      ],
      "payable": false,
      "stateMutability": "pure",
      "type": "function"
    },
    {
      "constant": true,
      "inputs": [
        {
          "name": "_sender",
          "type": "address"
        },
        {
          "name": "",
          "type": "bytes"
        }
      ],
      "name": "canForward",
      "outputs": [
        {
          "name": "",
          "type": "bool"
        }
      ],
      "payable": false,
      "stateMutability": "view",
      "type": "function"
    },
    {
      "constant": false,
      "inputs": [
        {
          "name": "_evmScript",
          "type": "bytes"
        }
      ],
      "name": "forward",
      "outputs": [],
      "payable": false,
      "stateMutability": "nonpayable",
      "type": "function"
    },
    {
      "constant": true,
      "inputs": [
        {
          "name": "_voteId",
          "type": "uint256"
        },
        {
          "name": "_voter",
          "type": "address"
        }
      ],
      "name": "canVote",
      "outputs": [
        {
          "name": "",
          "type": "bool"
        }
      ],
      "payable": false,
      "stateMutability": "view",
      "type": "function"
    },
    {
      "constant": true,
      "inputs": [
        {
          "name": "_voteId",
          "type": "uint256"
        }
      ],
      "name": "canExecute",
      "outputs": [
        {
          "name": "",
          "type": "bool"
        }
      ],
      "payable": false,
      "stateMutability": "view",
      "type": "function"
    },
    {
      "constant": true,
      "inputs": [
        {
          "name": "_voteId",
          "type": "uint256"
        }
      ],
      "name": "getVote",
      "outputs": [
        {
          "name": "open",
          "type": "bool"
        },
        {
          "name": "creator",
          "type": "address"
        },
        {
          "name": "startDate",
          "type": "uint64"
        },
        {
          "name": "snapshotBlock",
          "type": "uint256"
        },
        {
          "name": "candidateSupport",
          "type": "uint256"
        },
        {
          "name": "totalVoters",
          "type": "uint256"
        },
        {
          "name": "totalParticipation",
          "type": "uint256"
        },
        {
          "name": "externalId",
          "type": "uint256"
        },
        {
          "name": "executionScript",
          "type": "bytes"
        },
        {
          "name": "executed",
          "type": "bool"
        },
        {
          "name": "voteDescription",
          "type": "string"
        }
      ],
      "payable": false,
      "stateMutability": "view",
      "type": "function"
    },
    {
      "constant": true,
      "inputs": [
        {
          "name": "_voteId",
          "type": "uint256"
        }
      ],
      "name": "getCandidateLength",
      "outputs": [
        {
          "name": "totalCandidates",
          "type": "uint256"
        }
      ],
      "payable": false,
      "stateMutability": "view",
      "type": "function"
    },
    {
      "constant": true,
      "inputs": [
        {
          "name": "_voteId",
          "type": "uint256"
        }
      ],
      "name": "getVoteMetadata",
      "outputs": [
        {
          "name": "",
          "type": "string"
        }
      ],
      "payable": false,
      "stateMutability": "view",
      "type": "function"
    },
    {
      "constant": true,
      "inputs": [
        {
          "name": "_voteId",
          "type": "uint256"
        },
        {
          "name": "_voter",
          "type": "address"
        }
      ],
      "name": "getVoterState",
      "outputs": [
        {
          "name": "",
          "type": "uint256[]"
        }
      ],
      "payable": false,
      "stateMutability": "view",
      "type": "function"
    }
  ],
  "bytecode": "0x608060405260006002556200001c64010000000062000022810204565b62000240565b620000356401000000006200012a810204565b60408051808201909152601881527f494e49545f414c52454144595f494e495449414c495a454400000000000000006020820152901562000111576040517f08c379a00000000000000000000000000000000000000000000000000000000081526004018080602001828103825283818151815260200191508051906020019080838360005b83811015620000d5578181015183820152602001620000bb565b50505050905090810190601f168015620001035780820380516001836020036101000a031916815260200191505b509250505060405180910390fd5b506200012860001964010000000062000159810204565b565b6000620001546000805160206200546a83398151915264010000000062002fac6200023882021704565b905090565b6200016c6401000000006200012a810204565b60408051808201909152601881527f494e49545f414c52454144595f494e495449414c495a45440000000000000000602082015290156200020b576040517f08c379a000000000000000000000000000000000000000000000000000000000815260040180806020018281038252838181518152602001915080519060200190808383600083811015620000d5578181015183820152602001620000bb565b50620002356000805160206200546a833981519152826401000000006200381e6200023c82021704565b50565b5490565b9055565b61521a80620002506000396000f3006080604052600436106102215763ffffffff60e060020a60003504166305e5eb6181146102265780630803fac01461024d5780631ce30927146102765780632914b9bd1461033257806332f0a3b5146103a75780633ee31e70146103bc5780634b12311c146103f15780634bd464481461046557806359e1c40c146104805780635a55c1f01461049557806364d6f4e3146105f657806367e201101461060b5780636c90e818146106205780636e84920f146106355780637055d3681461064d57806371db310e1461067157806372e8b9b1146106865780637c7e752d1461069b5780637e7db6e1146106b05780637f49f022146106d157806380afdea8146106e65780638b3dd749146106fb5780639758919c1461071057806398b2373a146107285780639d4941d81461073d578063a1658fad1461075e578063a479e508146107c5578063af0cfe90146107da578063b0c9b3f6146107ef578063b73cb80f14610804578063ba5d49a514610819578063bcf93dd61461088c578063c05218c6146108bd578063c0774df31461094a578063cbd74b3a146109b1578063cc63604a146109c9578063cdb2867b146109e1578063d4aae0c414610a05578063d5db2c8014610a1a578063d948d46814610a46578063de4796ed14610a9f578063e158ab4c14610804578063e4962d2a14610ab4578063f98a4eca14610acc578063fc0c546a14610ae4578063fc157cb414610af9578063fd64eccb14610b0e575b600080fd5b34801561023257600080fd5b5061023b610b23565b60408051918252519081900360200190f35b34801561025957600080fd5b50610262610b28565b604080519115158252519081900360200190f35b34801561028257600080fd5b50610291600435602435610b52565b60408051600160a060020a03871681526020808201879052606082018590526080820184905260a0928201838152865193830193909352855191929160c084019187019080838360005b838110156102f35781810151838201526020016102db565b50505050905090810190601f1680156103205780820380516001836020036101000a031916815260200191505b50965050505050505060405180910390f35b34801561033e57600080fd5b506040805160206004803580820135601f810184900484028501840190955284845261038b943694929360249392840191908190840183828082843750949750610c8f9650505050505050565b60408051600160a060020a039092168252519081900360200190f35b3480156103b357600080fd5b5061038b610d75565b3480156103c857600080fd5b506103ef600160a060020a03600435166024356044356001604060020a0360643516610dee565b005b3480156103fd57600080fd5b50610415600435600160a060020a0360243516611081565b60408051602080825283518183015283519192839290830191858101910280838360005b83811015610451578181015183820152602001610439565b505050509050019250505060405180910390f35b34801561047157600080fd5b506102916004356024356111ed565b34801561048c57600080fd5b5061023b61144c565b3480156104a157600080fd5b506104ad60043561145e565b604051808c1515151581526020018b600160a060020a0316600160a060020a031681526020018a6001604060020a03166001604060020a03168152602001898152602001888152602001878152602001868152602001858152602001806020018415151515815260200180602001838103835286818151815260200191508051906020019080838360005b83811015610550578181015183820152602001610538565b50505050905090810190601f16801561057d5780820380516001836020036101000a031916815260200191505b50838103825284518152845160209182019186019080838360005b838110156105b0578181015183820152602001610598565b50505050905090810190601f1680156105dd5780820380516001836020036101000a031916815260200191505b509d505050505050505050505050505060405180910390f35b34801561060257600080fd5b5061023b6117c0565b34801561061757600080fd5b5061023b6117d2565b34801561062c57600080fd5b5061023b6117d7565b34801561064157600080fd5b506103ef6004356117dd565b34801561065957600080fd5b506103ef6004803590602480359081019101356118d4565b34801561067d57600080fd5b5061023b611a14565b34801561069257600080fd5b5061023b611a26565b3480156106a757600080fd5b5061023b611a2b565b3480156106bc57600080fd5b50610262600160a060020a0360043516611a30565b3480156106dd57600080fd5b5061023b611a36565b3480156106f257600080fd5b5061023b611a3c565b34801561070757600080fd5b5061023b611a6c565b34801561071c57600080fd5b5061023b600435611a85565b34801561073457600080fd5b5061023b611a9a565b34801561074957600080fd5b506103ef600160a060020a0360043516611aac565b34801561076a57600080fd5b506040805160206004604435818101358381028086018501909652808552610262958335600160a060020a0316956024803596369695606495939492019291829185019084908082843750949750611d339650505050505050565b3480156107d157600080fd5b5061038b611e83565b3480156107e657600080fd5b5061023b611f22565b3480156107fb57600080fd5b5061023b611f27565b34801561081057600080fd5b5061023b611f2c565b34801561082557600080fd5b5060408051602060046024803582810135601f81018590048502860185019096528585526103ef95833595369560449491939091019190819084018382808284375094975050508335600160a060020a031694505050602082013591604001359050611f31565b34801561089857600080fd5b506108a16120a3565b604080516001604060020a039092168252519081900360200190f35b3480156108c957600080fd5b506108d56004356120b2565b6040805160208082528351818301528351919283929083019185019080838360005b8381101561090f5781810151838201526020016108f7565b50505050905090810190601f16801561093c5780820380516001836020036101000a031916815260200191505b509250505060405180910390f35b34801561095657600080fd5b5060408051602060046024803582810135601f8101859004850286018501909652858552610262958335600160a060020a03169536956044949193909101919081908401838280828437509497506122489650505050505050565b3480156109bd57600080fd5b506103ef600435612271565b3480156109d557600080fd5b50610262600435612388565b3480156109ed57600080fd5b50610262600435600160a060020a0360243516612502565b348015610a1157600080fd5b5061038b6126b3565b348015610a2657600080fd5b5061023b60246004803582810192908201359181359182019101356126de565b348015610a5257600080fd5b506040805160206004803580820135601f81018490048402850184019095528484526103ef9436949293602493928401919081908401838280828437509497506127f99650505050505050565b348015610aab57600080fd5b5061026261282c565b348015610ac057600080fd5b5061023b60043561283f565b348015610ad857600080fd5b506103ef60043561295d565b348015610af057600080fd5b5061038b612a6a565b348015610b0557600080fd5b5061023b612a79565b348015610b1a57600080fd5b50610262612a85565b600581565b600080610b33611a6c565b90508015801590610b4b575080610b48612a8a565b10155b91505b5090565b6000828152600160205260408120600581018054839260609284928392918391600684019183918b908110610b8357fe5b60009182526020808320909101548352820192909252604001812060058401805491935082918b908110610bb357fe5b600091825260208083209091015483528281019390935260409182019020546003840154600185810180548551601f600294831615610100026000190190921693909304908101879004870283018701909552848252600160a060020a039093169b5090995092909190830182828015610c6e5780601f10610c4357610100808354040283529160200191610c6e565b820191906000526020600020905b815481529060010190602001808311610c5157829003601f168201915b50505050509450806004015493508060050154925050509295509295909350565b6000610c99611e83565b600160a060020a03166304bf2a7f836040518263ffffffff1660e060020a0281526004018080602001828103825283818151815260200191508051906020019080838360005b83811015610cf7578181015183820152602001610cdf565b50505050905090810190601f168015610d245780820380516001836020036101000a031916815260200191505b5092505050602060405180830381600087803b158015610d4357600080fd5b505af1158015610d57573d6000803e3d6000fd5b505050506040513d6020811015610d6d57600080fd5b505192915050565b6000610d7f6126b3565b600160a060020a03166332f0a3b56040518163ffffffff1660e060020a028152600401602060405180830381600087803b158015610dbc57600080fd5b505af1158015610dd0573d6000803e3d6000fd5b505050506040513d6020811015610de657600080fd5b505190505b90565b610df6611a6c565b60408051808201909152601881526000805160206150ef83398151915260208201529015610ea55760405160e560020a62461bcd0281526004018080602001828103825283818151815260200191508051906020019080838360005b83811015610e6a578181015183820152602001610e52565b50505050905090810190601f168015610e975780820380516001836020036101000a031916815260200191505b509250505060405180910390fd5b50610eae612a8e565b6040805180820190915260108152608060020a6f4552524f525f4d494e5f51554f52554d02602082015260008411610f2b5760405160e560020a62461bcd02815260040180806020018281038252838181518152602001915080519060200190808383600083811015610e6a578181015183820152602001610e52565b506040805180820190915260108152608060020a6f4552524f525f4d494e5f51554f52554d026020820152670de0b6b3a7640000841115610fb15760405160e560020a62461bcd02815260040180806020018281038252838181518152602001915080519060200190808383600083811015610e6a578181015183820152602001610e52565b506040805180820190915260108152608060020a6f4552524f525f4d494e5f51554f52554d0260208201528284101561102f5760405160e560020a62461bcd02815260040180806020018281038252838181518152602001915080519060200190808383600083811015610e6a578181015183820152602001610e52565b5060038054600160a060020a031916600160a060020a0395909516949094179093556005919091556004556006805467ffffffffffffffff19166001604060020a039092169190911790556001600755565b606061108b610b28565b60408051808201909152601481526000805160206151cf83398151915260208201529015156110ff5760405160e560020a62461bcd02815260040180806020018281038252838181518152602001915080519060200190808383600083811015610e6a578181015183820152602001610e52565b50600754604080518082019091526011815260008051602061512f83398151915260208201529084106111775760405160e560020a62461bcd02815260040180806020018281038252838181518152602001915080519060200190808383600083811015610e6a578181015183820152602001610e52565b506000838152600860209081526040808320600160a060020a0386168452600701825291829020805483518184028101840190945280845290918301828280156111e057602002820191906000526020600020905b8154815260200190600101908083116111cc575b5050505050905092915050565b6000806060600080600080600080611203610b28565b60408051808201909152601481526000805160206151cf83398151915260208201529015156112775760405160e560020a62461bcd02815260040180806020018281038252838181518152602001915080519060200190808383600083811015610e6a578181015183820152602001610e52565b50600754604080518082019091526011815260008051602061512f8339815191526020820152908c106112ef5760405160e560020a62461bcd02815260040180806020018281038252838181518152602001915080519060200190808383600083811015610e6a578181015183820152602001610e52565b5060008b81526008602081815260408084209092015480845260019091529120600581015491955093509150818a1061132757600080fd5b826006016000846005018c81548110151561133e57fe5b60009182526020808320909101548352820192909252604001812060058501805491935082918d90811061136e57fe5b600091825260208083209091015483528281019390935260409182019020546003840154600185810180548551601f600294831615610100026000190190921693909304908101879004870283018701909552848252600160a060020a039093169d50909b50929091908301828280156114295780601f106113fe57610100808354040283529160200191611429565b820191906000526020600020905b81548152906001019060200180831161140c57829003601f168201915b505050505096508060040154955080600501549450505050509295509295909350565b60008051602061508f83398151915281565b600080600080600080600080606060006060600061147a614f87565b611482610b28565b60408051808201909152601481526000805160206151cf83398151915260208201529015156114f65760405160e560020a62461bcd02815260040180806020018281038252838181518152602001915080519060200190808383600083811015610e6a578181015183820152602001610e52565b50600754604080518082019091526011815260008051602061512f8339815191526020820152908f1061156e5760405160e560020a62461bcd02815260040180806020018281038252838181518152602001915080519060200190808383600083811015610e6a578181015183820152602001610e52565b5060008e8152600860208181526040808420928301548452600180835293819020815160c0810183528154815281860180548451600298821615610100026000190190911697909704601f810186900486028801860190945283875294975094909385840193919290918301828280156116295780601f106115fe57610100808354040283529160200191611629565b820191906000526020600020905b81548152906001019060200180831161160c57829003601f168201915b505050918352505060028281015460208084019190915260038401805460408051601f600019610100600186161502019093169590950491820184900484028501840181528185529094019390918301828280156116c85780601f1061169d576101008083540402835291602001916116c8565b820191906000526020600020905b8154815290600101906020018083116116ab57829003601f168201915b5050509183525050600482015460ff161515602080830191909152600583018054604080518285028101850182528281529401939283018282801561172d57602002820191906000526020600020905b81548152600190910190602001808311611718575b505050505081525050905061174182612b32565b9c508160010160009054906101000a9004600160a060020a03169b508160010160149054906101000a90046001604060020a03169a508160020154995081600301549850816005015497508160060154965080606001519450806080015193508060000151955080602001519250505091939597999b90929496989a50565b60008051602061510f83398151915281565b600681565b60055481565b6040805160008082526020820190925260008051602061518f8339815191529161180d9133918491905b50611d33565b60408051808201909152600f8152608a60020a6e10541417d055551217d190525311510260208201529015156118885760405160e560020a62461bcd02815260040180806020018281038252838181518152602001915080519060200190808383600083811015610e6a578181015183820152602001610e52565b5060055482111561189857600080fd5b60048290556040805183815290517f1e8e7e728c32e51e8bc446f3c29daf8f883e0d299d78019f80bce06ec243320d9181900360200190a15050565b6118dc610b28565b60408051808201909152601481526000805160206151cf83398151915260208201529015156119505760405160e560020a62461bcd02815260040180806020018281038252838181518152602001915080519060200190808383600083811015610e6a578181015183820152602001610e52565b5061195b8333612502565b60408051808201909152600e8152609060020a6d4552524f525f43414e5f564f54450260208201529015156119d55760405160e560020a62461bcd02815260040180806020018281038252838181518152602001915080519060200190808383600083811015610e6a578181015183820152602001610e52565b50611a0f8383838080602002602001604051908101604052809392919081815260200183836020028082843750339450612b9f9350505050565b505050565b60008051602061518f83398151915281565b600281565b600181565b50600190565b60045481565b6000611a677fd625496217aa6a3453eecb9c3489dc5a53e6c67b444329ea2b2cbc9ff547639b612fac565b905090565b6000611a676000805160206150af833981519152612fac565b60009081526001602052604090206005015490565b6000805160206150cf83398151915281565b6000806000611aba84611a30565b6040805180820190915260128152607260020a71149150d3d5915497d11254d0531313d5d151026020820152901515611b385760405160e560020a62461bcd02815260040180806020018281038252838181518152602001915080519060200190808383600083811015610e6a578181015183820152602001610e52565b50611b41610d75565b9250611b4c83612fb4565b60408051808201909152601a81527f5245434f5645525f5641554c545f4e4f545f434f4e54524143540000000000006020820152901515611bd25760405160e560020a62461bcd02815260040180806020018281038252838181518152602001915080519060200190808383600083811015610e6a578181015183820152602001610e52565b50600160a060020a0384161515611c235760405130319250600160a060020a0384169083156108fc029084906000818181858888f19350505050158015611c1d573d6000803e3d6000fd5b50611ce2565b5082611c3e600160a060020a0382163063ffffffff612fda16565b9150611c5a600160a060020a038216848463ffffffff6130c416565b60408051808201909152601d81527f5245434f5645525f544f4b454e5f5452414e534645525f4641494c45440000006020820152901515611ce05760405160e560020a62461bcd02815260040180806020018281038252838181518152602001915080519060200190808383600083811015610e6a578181015183820152602001610e52565b505b83600160a060020a031683600160a060020a03167f596caf56044b55fb8c4ca640089bbc2b63cae3e978b851f5745cbb7c5b288e02846040518082815260200191505060405180910390a350505050565b600080611d3e610b28565b1515611d4d5760009150611e7b565b611d556126b3565b9050600160a060020a0381161515611d705760009150611e7b565b80600160a060020a031663fdef9106863087611d8b88613124565b60405160e060020a63ffffffff8716028152600160a060020a03808616600483019081529085166024830152604482018490526080606483019081528351608484015283519192909160a490910190602085019080838360005b83811015611dfd578181015183820152602001611de5565b50505050905090810190601f168015611e2a5780820380516001836020036101000a031916815260200191505b5095505050505050602060405180830381600087803b158015611e4c57600080fd5b505af1158015611e60573d6000803e3d6000fd5b505050506040513d6020811015611e7657600080fd5b505191505b509392505050565b600080611e8e6126b3565b6040805160e360020a6317c0177b0281527fd6f028ca0e8edb4a8c9757ca4fdccab25fa1e0317da1188108f7d2dee14902fb60048201527fddbcfd564f642ab5627cf68b9b7d374fb4f8a36e941a75d89c87998cef03bd6160248201529051600160a060020a03929092169163be00bbd8916044808201926020929091908290030181600087803b158015610d4357600080fd5b600481565b600381565b600781565b6040805160008082526020820190925260008051602061508f83398151915290611f5f903390839085611807565b60408051808201909152600f8152608a60020a6e10541417d055551217d19052531151026020820152901515611fda5760405160e560020a62461bcd02815260040180806020018281038252838181518152602001915080519060200190808383600083811015610e6a578181015183820152602001610e52565b5060008781526008602090815260409182902060075483518085019094526011845260008051602061512f83398151915292840192909252935088106120655760405160e560020a62461bcd02815260040180806020018281038252838181518152602001915080519060200190808383600083811015610e6a578181015183820152602001610e52565b5061206f82612b32565b151561207a57600080fd5b6000878152600860208190526040909120015461209a908787878761312e565b50505050505050565b6006546001604060020a031681565b60606120bc610b28565b60408051808201909152601481526000805160206151cf83398151915260208201529015156121305760405160e560020a62461bcd02815260040180806020018281038252838181518152602001915080519060200190808383600083811015610e6a578181015183820152602001610e52565b50600754604080518082019091526011815260008051602061512f83398151915260208201529083106121a85760405160e560020a62461bcd02815260040180806020018281038252838181518152602001915080519060200190808383600083811015610e6a578181015183820152602001610e52565b5060008281526008602090815260409182902080548351601f60026000196101006001861615020190931692909204918201849004840281018401909452808452909183018282801561223c5780601f106122115761010080835404028352916020019161223c565b820191906000526020600020905b81548152906001019060200180831161221f57829003601f168201915b50505050509050919050565b600061226a8360008051602061510f8339815191526122656132e5565b611d33565b9392505050565b604080516000808252602082019092526000805160206150cf8339815191529161229f913391849190611807565b60408051808201909152600f8152608a60020a6e10541417d055551217d1905253115102602082015290151561231a5760405160e560020a62461bcd02815260040180806020018281038252838181518152602001915080519060200190808383600083811015610e6a578181015183820152602001610e52565b506000821161232857600080fd5b670de0b6b3a764000082111561233d57600080fd5b60045482101561234c57600080fd5b60058290556040805183815290517f5cb3f38de4dd795897ed02809e482378027c600f566d6e4bd14dfe3a44a6d7379181900360200190a15050565b6000806000612395610b28565b60408051808201909152601481526000805160206151cf83398151915260208201529015156124095760405160e560020a62461bcd02815260040180806020018281038252838181518152602001915080519060200190808383600083811015610e6a578181015183820152602001610e52565b50600754604080518082019091526011815260008051602061512f83398151915260208201529085106124815760405160e560020a62461bcd02815260040180806020018281038252838181518152602001915080519060200190808383600083811015610e6a578181015183820152602001610e52565b50505060008281526008602081815260408084209283015484526001909152909120600481015460ff16156124b957600092506124fb565b6124c282612b32565b156124d057600092506124fb565b6124e78260060154836005015484600401546132f7565b15156124f657600092506124fb565b600192505b5050919050565b60008061250d610b28565b60408051808201909152601481526000805160206151cf83398151915260208201529015156125815760405160e560020a62461bcd02815260040180806020018281038252838181518152602001915080519060200190808383600083811015610e6a578181015183820152602001610e52565b50600754604080518082019091526011815260008051602061512f83398151915260208201529085106125f95760405160e560020a62461bcd02815260040180806020018281038252838181518152602001915080519060200190808383600083811015610e6a578181015183820152602001610e52565b5050600083815260086020526040902061261281612b32565b80156126a9575060035460028201546040805160e160020a63277166bf028152600160a060020a038781166004830152602482019390935290516000939290921691634ee2cd7e9160448082019260209290919082900301818787803b15801561267b57600080fd5b505af115801561268f573d6000803e3d6000fd5b505050506040513d60208110156126a557600080fd5b5051115b91505b5092915050565b6000611a677f4172f0f7d2289153072b0a6ca36959e0cbe2efc3afe50fc81636caa96338137b612fac565b6040805160008082526020820190925260008051602061510f8339815191529061270c903390839085611807565b60408051808201909152600f8152608a60020a6e10541417d055551217d190525311510260208201529015156127875760405160e560020a62461bcd02815260040180806020018281038252838181518152602001915080519060200190808383600083811015610e6a578181015183820152602001610e52565b506127ef86868080601f0160208091040260200160405190810160405280939291908181526020018383808284375050604080516020601f8c018190048102820181019092528a815294508a935089925082915084018382808284375061335f945050505050565b9695505050505050565b6128033382612248565b151561280e57600080fd5b61282881602060405190810160405280600081525061335f565b5050565b6000600019612839611a6c565b14905090565b60008061284a610b28565b60408051808201909152601481526000805160206151cf83398151915260208201529015156128be5760405160e560020a62461bcd02815260040180806020018281038252838181518152602001915080519060200190808383600083811015610e6a578181015183820152602001610e52565b50600754604080518082019091526011815260008051602061512f83398151915260208201529084106129365760405160e560020a62461bcd02815260040180806020018281038252838181518152602001915080519060200190808383600083811015610e6a578181015183820152602001610e52565b50505060009081526008602081815260408084209092015483526001905290206005015490565b612965610b28565b60408051808201909152601481526000805160206151cf83398151915260208201529015156129d95760405160e560020a62461bcd02815260040180806020018281038252838181518152602001915080519060200190808383600083811015610e6a578181015183820152602001610e52565b506129e381612388565b60408051808201909152600e8152609060020a6d4552524f525f43414e5f564f5445026020820152901515612a5d5760405160e560020a62461bcd02815260040180806020018281038252838181518152602001915080519060200190808383600083811015610e6a578181015183820152602001610e52565b50612a6781613657565b50565b600354600160a060020a031681565b670de0b6b3a764000081565b600190565b4390565b612a96611a6c565b60408051808201909152601881526000805160206150ef83398151915260208201529015612b095760405160e560020a62461bcd02815260040180806020018281038252838181518152602001915080519060200190808383600083811015610e6a578181015183820152602001610e52565b50612b30612b15612a8a565b6000805160206150af8339815191529063ffffffff61381e16565b565b60065460018201546000918291612b5c916001604060020a0360a060020a90920482169116613822565b6001604060020a0316426001604060020a0316109050808015612b965750600883015460009081526001602052604090206004015460ff16155b91505b50919050565b60008060008060008060008060008060006007548e1060408051908101604052806011815260200160008051602061512f833981519152815250901515612c2b5760405160e560020a62461bcd02815260040180806020018281038252838181518152602001915080519060200190808383600083811015610e6a578181015183820152602001610e52565b50600860008f81526020019081526020016000209a50600160008c6008015481526020019081526020016000209950600360009054906101000a9004600160a060020a0316600160a060020a0316634ee2cd7e8d8d600201546040518363ffffffff1660e060020a0281526004018083600160a060020a0316600160a060020a0316815260200182815260200192505050602060405180830381600087803b158015612cd657600080fd5b505af1158015612cea573d6000803e3d6000fd5b505050506040513d6020811015612d0057600080fd5b5051604051909950600098508e907f19521eeca6c8dbe11aaac343418679d144493d16ba51e317ec4139963f015310908a90a233600090815260078c01602052604090208d51815460068e015460058e018054949a509850919650945092508414612d6a57600080fd5b83831115612d7757600080fd5b612d818d8a6138b5565b5060005b82811015612eb2578960060160008683815481101515612da157fe5b906000526020600020015460001916600019168152602001908152602001600020600301549650612df38682815481101515612dd957fe5b90600052602060002001548361390290919063ffffffff16565b9150612e208682815481101515612e0657fe5b90600052602060002001548861390290919063ffffffff16565b9650612e4a8d82815181101515612e3357fe5b60209081029091010151889063ffffffff61398e16565b9650612e748d82815181101515612e5d57fe5b60209081029091010151839063ffffffff61398e16565b9150868a60060160008784815481101515612e8b57fe5b60009182526020808320909101548352820192909252604001902060030155600101612d85565b83811015612f57578960060160008683815481101515612ece57fe5b906000526020600020015460001916600019168152602001908152602001600020600301549650612f068d82815181101515612e3357fe5b9650612f198d82815181101515612e5d57fe5b9150868a60060160008784815481101515612f3057fe5b60009182526020808320909101548352820192909252604001902060030155600101612eb2565b818b600601819055508c8b600701600033600160a060020a0316600160a060020a031681526020019081526020016000209080519060200190612f9b929190614fc0565b505050505050505050505050505050565b5490565b5490565b600080600160a060020a0383161515612fd05760009150612b99565b50506000903b1190565b60408051600160a060020a038316602480830191909152825180830390910181526044909101909152602081018051600160e060020a031660e060020a6370a0823102179052600090818061302f8684613a13565b60408051808201909152601c81527f534146455f4552435f32305f42414c414e43455f524556455254454400000000602082015291935091508215156130ba5760405160e560020a62461bcd02815260040180806020018281038252838181518152602001915080519060200190808383600083811015610e6a578181015183820152602001610e52565b5095945050505050565b60408051600160a060020a03841660248201526044808201849052825180830390910181526064909101909152602081018051600160e060020a031660e060020a63a9059cbb0217905260009061311b8582613a44565b95945050505050565b8051602002815290565b60008581526001602090815260408083208151606060020a600160a060020a0389160281850152825180820360140181526034909101928390528051919460058601949093849390918291908401908083835b602083106131a05780518252601f199092019160209182019101613181565b51815160209384036101000a60001901801990921691161790526040805192909401829003909120600081815260068b01909252929020805492965094505060ff161591506131f0905057600080fd5b825460ff116131fe57600080fd5b8054600160ff1991821681178355845460028401805490931660ff9091161790915588516132339183019060208b0190615007565b506004810186905560058082018690556000838152602081815260408083208054600160a060020a031916600160a060020a038d81169190911782558854600181018a55898652848620018890558d5160028b018054909101905593879052549388015481518e8152949093169184019190915282810191909152517f32c91541b5fcc1677647f08b7cb86e2af576068cd699604a6f46b6a6bf18ab2a916060908290030190a1505050505050505050565b60408051600081526020810190915290565b60008080851580156133095750600085115b156133175760009250613356565b613327858563ffffffff613a9216565b9150670de0b6b3a764000082049050670de0b6b3a764000082061561334e57808611613353565b808610155b92505b50509392505050565b600080600061336c610b28565b60408051808201909152601481526000805160206151cf83398151915260208201529015156133e05760405160e560020a62461bcd02815260040180806020018281038252838181518152602001915080519060200190808383600083811015610e6a578181015183820152602001610e52565b506133f285600063ffffffff613b3416565b63ffffffff16600114151561340657600080fd5b61340f85613b5b565b60078054600180820190925560008181526008602090815260409091209283018054600160a060020a03191633179055875191965092945090925061345991839190870190615007565b50600881018290556001808201805460a060020a60e060020a03191660a060020a426001604060020a031602179055613490612a8a565b03600282018190556003546040805160e460020a630981b24d028152600481019390935251600160a060020a039091169163981b24d09160248083019260209291908290030181600087803b1580156134e857600080fd5b505af11580156134fc573d6000803e3d6000fd5b505050506040513d602081101561351257600080fd5b505160058083019190915560048054600384015590548183015583907f8033f57b451f7a45f9badca19aca6af806ba6788af549c9b2e16367a6c2700479061356190889063ffffffff613c6b16565b61357288600063ffffffff613c9216565b60408051600160a060020a03909316835260208301919091528051918290030190a260405183907f33c2d6285ba1442f7dd954820743aacec7468bc52e1671024b948f48f132264090600090a260008051602061516f8339815191528560006040518080602001838152602001828103825284818151815260200191508051906020019080838360005b838110156136145781810151838201526020016135fc565b50505050905090810190601f1680156136415780820380516001836020036101000a031916815260200191505b50935050505060405180910390a1505092915050565b6000806000806060600754861060408051908101604052806011815260200160008051602061512f8339815191528152509015156136da5760405160e560020a62461bcd02815260040180806020018281038252838181518152602001915080519060200190808383600083811015610e6a578181015183820152602001610e52565b506000868152600860208181526040808420928301548085526001909252832060038301549298509096509450925082111561371a5761371a8683613c9a565b6137278560080154613e27565b905060008051602061516f8339815191528160006040518080602001838152602001828103825284818151815260200191508051906020019080838360005b8381101561377e578181015183820152602001613766565b50505050905090810190601f1680156137ab5780820380516001836020036101000a031916815260200191505b50935050505060405180910390a160048301805460ff19166001179055604080516000808252602082019081528183019092526137ea91839190614213565b5060405186907fbf8e2b108bb7c980e08903a8a46527699d5e84905a082d56dacb4150725c8cab90600090a2505050505050565b9055565b6040805180820190915260138152606860020a724d41544836345f4144445f4f564552464c4f57026020820152600090838301906001604060020a038086169083161015611e7b5760405160e560020a62461bcd02815260040180806020018281038252838181518152602001915080519060200190808383600083811015610e6a578181015183820152602001610e52565b6000805b8351816001604060020a031610156138ef576138e584826001604060020a0316815181101515612e5d57fe5b91506001016138b9565b828211156138fc57600080fd5b50505050565b6040805180820190915260128152607060020a714d4154485f5355425f554e444552464c4f570260208201526000908190848411156139865760405160e560020a62461bcd02815260040180806020018281038252838181518152602001915080519060200190808383600083811015610e6a578181015183820152602001610e52565b505050900390565b6040805180820190915260118152607860020a704d4154485f4144445f4f564552464c4f570260208201526000908383019084821015611e7b5760405160e560020a62461bcd02815260040180806020018281038252838181518152602001915080519060200190808383600083811015610e6a578181015183820152602001610e52565b6000806000806040516020818751602089018a5afa92506000831115613a3857805191505b50909590945092505050565b6000806040516020818551602087016000895af16000811115613a88573d8015613a755760208114613a7e57613a86565b60019350613a86565b600183511493505b505b5090949350505050565b600080831515613aa557600091506126ac565b50828202828482811515613ab557fe5b6040805180820190915260118152607860020a704d4154485f4d554c5f4f564552464c4f570260208201529291900414611e7b5760405160e560020a62461bcd02815260040180806020018281038252838181518152602001915080519060200190808383600083811015610e6a578181015183820152602001610e52565b600080613b418484613c92565b60e060020a600160e060020a031990911604949350505050565b6002805460018082019092556000818152602092835260409020835191929091613b8d91600384019190860190615007565b50600060028201819055613ba890849063ffffffff613b3416565b63ffffffff166001141515613bbc57600080fd5b8251600414613bcf57613bcf83836147cc565b6020613bdc600885614899565b03815560408051602080825285518183015285516000805160206151af833981519152938793928392918301919085019080838360005b83811015613c2b578181015183820152602001613c13565b50505050905090810190601f168015613c585780820380516001836020036101000a031916815260200191505b509250505060405180910390a150919050565b600080613c788484613c92565b606060020a6001606060020a031990911604949350505050565b016020015190565b600080600060606000806000806007548a1060408051908101604052806011815260200160008051602061512f833981519152815250901515613d225760405160e560020a62461bcd02815260040180806020018281038252838181518152602001915080519060200190808383600083811015610e6a578181015183820152602001610e52565b5060008a8152600860208181526040808420928301548085526001835293819020600581018054835181860281018601909452808452949d50949b509950929190830182828015613d9357602002820191906000526020600020905b81548152600190910190602001808311613d7e575b5050505050945084519350600092505b83831015613e1b578483815181101515613db957fe5b602090810290910181015160008181526006808a0190935260409020600380820154938c0154908c0154929550909350613df392916132f7565b1515613e105760038101805460068a018054919091039055600090555b600190920191613da3565b50505050505050505050565b600081815260016020908152604080832060058101548251848152808401909352606094919390928592918291829182918691829184918181016104008038833950505060038b01805460408051602060026001851615610100026000190190941693909304601f8101849004840282018401909252818152939b5090830182828015613ef55780601f10613eca57610100808354040283529160200191613ef5565b820191906000526020600020905b815481529060010190602001808311613ed857829003601f168201915b50505050509750613f10602089613c9290919063ffffffff16565b9650896002015495508960010180546001816001161561010002031660029004905094508860a0028760e401019350602086811515613f4b57fe5b0615613f58576020613f5b565b60005b60ff16602087046020020184019350602085811515613f7657fe5b0615613f83576020613f86565b60005b60408051602080825281830190925260ff9290921681880482020195909501948082016104008038833901905050925083602084015283601c016040519080825280601f01601f191660200182016040528015613fed578160200160208202803883390190505b509150614010613ffc89610deb565b83906020016000606063ffffffff6148be16565b61403261401c83610deb565b60380161402885610deb565b603c0160046148d6565b61403f82888b89896148f4565b5061406561404c89610deb565b83906101200161010060df198b0163ffffffff6148be16565b6140718c838b8a614998565b905061407e600383614899565b602001905061408f8c838b84614a8e565b905061409c600583614899565b6020019050848183015261416061414e8b6001018054600181600116156101000203166002900480601f0160208091040260200160405190810160405280929190818152602001828054600181600116156101000203166002900480156141445780601f1061411957610100808354040283529160200191614144565b820191906000526020600020905b81548152906001019060200180831161412757829003601f168201915b5050505050610deb565b8390602001838863ffffffff6148be16565b61416b600683614899565b602001905061417c8c838b84614c52565b506000805160206151af833981519152886040518080602001828103825283818151815260200191508051906020019080838360005b838110156141ca5781810151838201526020016141b2565b50505050905090810190601f1680156141f75780820380516001836020036101000a031916815260200191505b509250505060405180910390a1509a9950505050505050505050565b6060600080606080614223610b28565b60408051808201909152601481526000805160206151cf83398151915260208201529015156142975760405160e560020a62461bcd02815260040180806020018281038252838181518152602001915080519060200190808383600083811015610e6a578181015183820152602001610e52565b506000806142a36126b3565b91506142ad611a3c565b90506142b88a610c8f565b60408051808201909152601b81527f45564d52554e5f4558454355544f525f554e415641494c41424c4500000000006020820152909650600160a060020a038716151561434a5760405160e560020a62461bcd02815260040180806020018281038252838181518152602001915080519060200190808383600083811015610e6a578181015183820152602001610e52565b506040516060602482019081528b5160848301528b5160e060020a63279cea3502975087928d928d928d9282916044820191606481019160a490910190602089019080838360005b838110156143aa578181015183820152602001614392565b50505050905090810190601f1680156143d75780820380516001836020036101000a031916815260200191505b50848103835286518152865160209182019188019080838360005b8381101561440a5781810151838201526020016143f2565b50505050905090810190601f1680156144375780820380516001836020036101000a031916815260200191505b508481038252855181528551602091820191808801910280838360005b8381101561446c578181015183820152602001614454565b50505050905001965050505050505060405160208183030381529060405290600160e060020a031916602082018051600160e060020a0383818316178352505050509350600080855160208701895af4604051935080801561453057603f3d1180156144e55760203d03806020883e860160405261452a565b60e560020a62461bcd02865260206004870152601e60248701527f45564d52554e5f4558454355544f525f494e56414c49445f52455455524e00006044870152606486fd5b50614539565b3d6000863e3d85fd5b505085600160a060020a03167f5229a5dba83a54ae8cb5b51bdd6de9474cacbe9dd332f5185f3a4f4f2e3f4ad98b8b8660405180806020018060200180602001848103845287818151815260200191508051906020019080838360005b838110156145ae578181015183820152602001614596565b50505050905090810190601f1680156145db5780820380516001836020036101000a031916815260200191505b50848103835286518152865160209182019188019080838360005b8381101561460e5781810151838201526020016145f6565b50505050905090810190601f16801561463b5780820380516001836020036101000a031916815260200191505b50848103825285518152855160209182019187019080838360005b8381101561466e578181015183820152602001614656565b50505050905090810190601f16801561469b5780820380516001836020036101000a031916815260200191505b50965050505050505060405180910390a282965081600160a060020a03166146c16126b3565b600160a060020a0316146040805190810160405280601f815260200160008051602061514f8339815191528152509015156147415760405160e560020a62461bcd02815260040180806020018281038252838181518152602001915080519060200190808383600083811015610e6a578181015183820152602001610e52565b508061474b611a3c565b60408051808201909152601f815260008051602061514f833981519152602082015291146147be5760405160e560020a62461bcd02815260040180806020018281038252838181518152602001915080519060200190808383600083811015610e6a578181015183820152602001610e52565b505050505050509392505050565b600081815260016020526040812090808080808080806147f38b601863ffffffff613b3416565b63ffffffff169750601c965061480a60018c614899565b955061481760058c614899565b8b519095508694508789011461482c57600080fd5b61483c8b8563ffffffff613c9216565b92508360200193506148508a8c8686614d46565b6020850191506148668b8663ffffffff613c9216565b820190506148758b8383614e9b565b805161488b9160018c0191602090910190615007565b505050505050505050505050565b60006148b4826020600019860181020163ffffffff613c9216565b6020019392505050565b8382016020016148cf818584614f39565b5050505050565b905182516020929092036101000a6000190180199091169116179052565b60606020848102868101918201918101604081019101830160008080601f891615614920576040614923565b60205b60ff1660208a04602002850101925060208881151561493e57fe5b061561494b57604061494e565b60205b60608d0196909652505060808a019290925260a089015260c0880181905260209384900484020160ff919091160160e0870181905293820290930101610100850152509192915050565b8281016040018290526060810160008080805b86841015614a0d5760008981526001602052604090206005018054859081106149d057fe5b6000918252602080832090910154808352828252604090922054600160a060020a03168a88018190529601956001959095019490935091506149ab565b8685890152602085019450600093505b86841015614a825760008981526001602052604081206005810180546006909201929187908110614a4a57fe5b600091825260208083209091015483528281019390935260409091019020600301548987018190529501946001909401939050614a1d565b50505050949350505050565b600084815260016020908152604080832060028101548251818152601f8201601f191681019094019092529160609081908590819081908190878015614ade578160200160208202803883390190505b508c8b018c905260208b0199509550600092508291505b8a821015614bfd5760058801805483908110614b0d57fe5b600091825260208083209091015480835260068b018252604092839020600190810180548551601f600261010095841615959095026000190190921693909304908101859004850283018501909552848252919450929091830182828015614bb65780601f10614b8b57610100808354040283529160200191614bb6565b820191906000526020600020905b815481529060010190602001808311614b9957829003601f168201915b50505050509450614bde614bc986610deb565b8651889160200190869063ffffffff6148be16565b84518c8a01819052602090990198935091830191600190910190614af5565b86898d0152614c20614c0e87610deb565b8d906020018b8a63ffffffff6148be16565b6020870615614c30576020614c33565b60005b60ff166020880460200201890198505050505050505050949350505050565b82810182905260208101600080805b85831015614cc65760008881526001602052604081206005810180546006909201929186908110614c8e57fe5b600091825260208083209091015483528281019390935260409091019020600401548886018190529401936001909301929150614c61565b8584880152602084019350600092505b85831015614d3b5760008881526001602052604081206005810180546006909201929186908110614d0357fe5b600091825260208083209091015483528281019390935260409091019020600501548886018190529401936001909301929050614cd6565b505050949350505050565b8160006060818080808080614d5c60048d614899565b60200191507fa6f5ca59c8d7f3969df492e08f9e2d4e4f5f0507a68107f79380d2d5dd3bb6e68a6040518082815260200191505060405180910390a15060005b89811015614e8c57614db78c600c8b0163ffffffff613c6b16565b60408051600160a060020a038316815290519199507febfb412ded3f9cdb15b75308503b279416e74d382f6ce86eedee0ef3130fa9e3919081900360200190a1614e0f8c604060018d01028b0163ffffffff613c9216565b82019550614e1e8c8388614e9b565b965088602001985085915080600101602002614e3b60068e614899565b019250614e4e8c8463ffffffff613c9216565b945060206001820102614e6260078e614899565b019250614e758c8463ffffffff613c9216565b9350614e848d888a888861312e565b600101614d9c565b50505050505050505050505050565b60608060008484036040519080825280601f01601f191660200182016040528015614ed0578160200160208202803883390190505b5091508490505b83811015614f30578581815181101515614eed57fe5b90602001015160f860020a900460f860020a0282868303815181101515614f1057fe5b906020010190600160f860020a031916908160001a905350600101614ed7565b50949350505050565b81838260005b60208210614f61578351835260209384019390920191601f1990910190614f3f565b6001826020036101000a0390508019845116818451168181178552505050505050505050565b60c06040519081016040528060008152602001606081526020016000815260200160608152602001600015158152602001606081525090565b828054828255906000526020600020908101928215614ffb579160200282015b82811115614ffb578251825591602001919060010190614fe0565b50610b4e929150615074565b828054600181600116156101000203166002900490600052602060002090601f016020900481019282601f1061504857805160ff1916838001178555614ffb565b82800160010185558215614ffb5791820182811115614ffb578251825591602001919060010190614fe0565b610deb91905b80821115610b4e576000815560010161507a5600a71d8ae250b03a7b4831d7ee658104bf1ee3193c61256a07e2008fdfb75c5fa9ebb05b386a8d34882b8711d156f463690983dc47815980fb82aeeff1aa43579eaa42a0cff9103a0165dffb0f5652f3a480d3fb6edf2c364f5e2110629719a5a7494e49545f414c52454144595f494e495449414c495a4544000000000000000059036cbdc6597a5655363d74de8211c9fcba4dd9204c466ef593666e56a6e5744552524f525f564f54455f4c454e47544800000000000000000000000000000045564d52554e5f50524f5445435445445f53544154455f4d4f4449464945440043de064ee766a7dd3c2a3f3e78edd544b37a6dcd2e2ed21902389b59af43a36abd671bb523f136ed8ffc557fe00fbb016a7f9f856a4b550bb6366d356dcb8c746fefc11702576d3aaefc31909175bef2935e41280e373b60b1ad6f67d30a60a8494e49545f4e4f545f494e495449414c495a4544000000000000000000000000a165627a7a72305820d17993279094c2e5df5b914e6755643b3e601d0d9edb883c378367b4673b752b0029ebb05b386a8d34882b8711d156f463690983dc47815980fb82aeeff1aa43579e",
  "source": "/*\n * SPDX-License-Identitifer: GPL-3.0-or-later\n */\n\npragma solidity 0.4.24;\n\nimport \"@aragon/os/contracts/apps/AragonApp.sol\";\nimport \"@aragon/apps-shared-minime/contracts/MiniMeToken.sol\";\n\n// TODO: Revert import path when changes get merged into aragon/os\n// import \"@aragon/os/contracts/common/ADynamicForwarder.sol\";\nimport \"@autarklabs/test-helpers/contracts/common/ADynamicForwarder.sol\";\n\n\ncontract DotVoting is ADynamicForwarder, AragonApp {\n\n    MiniMeToken public token;\n    uint256 public globalCandidateSupportPct;\n    uint256 public globalMinQuorum;\n    uint64 public voteTime;\n    uint256 voteLength;\n\n    uint256 constant public PCT_BASE = 10 ** 18; // 0% = 0; 1% = 10^16; 100% = 10^18\n\n\n    // bytes32 constant public ROLE_ADD_CANDIDATES = keccak256(\"ROLE_ADD_CANDIDATES\");\n    bytes32 constant public ROLE_ADD_CANDIDATES = 0xa71d8ae250b03a7b4831d7ee658104bf1ee3193c61256a07e2008fdfb75c5fa9;\n    // bytes32 constant public ROLE_CREATE_VOTES = keccak256(\"ROLE_CREATE_VOTES\");\n    bytes32 constant public ROLE_CREATE_VOTES = 0x59036cbdc6597a5655363d74de8211c9fcba4dd9204c466ef593666e56a6e574;\n    // bytes32 constant public ROLE_MODIFY_QUORUM = keccak256(\"ROLE_MODIFY_QUORUM\");\n    bytes32 constant public ROLE_MODIFY_QUORUM = 0xaa42a0cff9103a0165dffb0f5652f3a480d3fb6edf2c364f5e2110629719a5a7;\n    // bytes32 constant public ROLE_MODIFY_CANDIDATE_SUPPORT = keccak256(\"ROLE_MODIFY_CANDIDATE_SUPPORT\");\n    bytes32 constant public ROLE_MODIFY_CANDIDATE_SUPPORT = 0xbd671bb523f136ed8ffc557fe00fbb016a7f9f856a4b550bb6366d356dcb8c74;\n\n    string private constant ERROR_CAN_VOTE = \"ERROR_CAN_VOTE\";\n    string private constant ERROR_MIN_QUORUM = \"ERROR_MIN_QUORUM\";\n    string private constant ERROR_VOTE_LENGTH = \"ERROR_VOTE_LENGTH\";\n\n    struct Vote {\n        string metadata;\n        address creator;\n        uint64 startDate;\n        uint256 snapshotBlock;\n        uint256 candidateSupportPct;\n        uint256 minQuorum;\n        uint256 totalVoters;\n        uint256 totalParticipation;\n        mapping (address => uint256[]) voters;\n        uint256 actionId;\n    }\n\n    mapping (uint256 => Vote) votes;\n\n    event StartVote(uint256 indexed voteId);\n    event CastVote(uint256 indexed voteId);\n    event UpdateCandidateSupport(string indexed candidateKey, uint256 support);\n    event ExecuteVote(uint256 indexed voteId);\n    event ExecutionScript(bytes script, uint256 data);\n    // Add hash info\n    event ExternalContract(uint256 indexed voteId, address addr, bytes32 funcSig);\n    event AddCandidate(uint256 voteId, address candidate, uint length);\n    event Metadata(string metadata);\n    event Location(uint256 currentLocation);\n    event Address(address candidate);\n    event CandidateQty(uint256 numberOfCandidates);\n    event UpdateQuorum(uint256 quorum);\n    event UpdateMinimumSupport(uint256 minSupport);\n\n////////////////\n// Constructor\n////////////////\n\n   /**\n    * @notice Initializes DotVoting app with `_token.symbol(): string` for\n    *         governance, minimum quorum of\n    *         `(_minQuorum - _minQuorum % 10^14)\n    *         / 10^16`, minimal candidate acceptance of\n    *         `(_candidateSupportPct - _candidateSupportPct % 10^14) / 10^16`\n    *         and vote duations of `(_voteTime - _voteTime % 86400) / 86400`\n    *         day `_voteTime >= 172800 ? 's' : ''`\n    * @param _token MiniMeToken address that will be used as governance token\n    * @param _minQuorum Percentage of voters that must participate in\n    *        a dot vote for it to succeed (expressed as a 10^18 percentage,\n    *        (eg 10^16 = 1%, 10^18 = 100%)\n    * @param _candidateSupportPct Percentage of votes cast that must\n    *        support a voting option for it to be valid (expressed as a 10^18\n    *        percentage, (eg 10^16 = 1%, 10^18 = 100%)\n    * @param _voteTime Seconds that a vote will be open for tokenholders to\n    *        vote (unless it is impossible for the fate of the vote to change)\n    */\n    function initialize(\n        MiniMeToken _token,\n        uint256 _minQuorum,\n        uint256 _candidateSupportPct,\n        uint64 _voteTime\n    ) external onlyInit\n    {\n        initialized();\n        require(_minQuorum > 0, ERROR_MIN_QUORUM);\n        require(_minQuorum <= PCT_BASE, ERROR_MIN_QUORUM);\n        require(_minQuorum >= _candidateSupportPct, ERROR_MIN_QUORUM);\n        token = _token;\n        globalMinQuorum = _minQuorum;\n        globalCandidateSupportPct = _candidateSupportPct;\n        voteTime = _voteTime;\n        voteLength = 1;\n    }\n\n///////////////////////\n// Voting functions\n///////////////////////\n\n\n    /**\n    * @notice Create a new dot vote for \"`_metadata`\". \n    * @param _executionScript EVM script to be executed on approval\n    * @param _metadata Vote metadata\n    * @return voteId Id for newly created vote\n    */\n    function newVote(bytes _executionScript, string _metadata)\n        external auth(ROLE_CREATE_VOTES) returns (uint256 voteId)\n    {\n        voteId = _newVote(_executionScript, _metadata);\n    }\n\n    /**\n    * @notice Cast a dot vote.\n    * @param _voteId id for vote structure this 'ballot action' is connected to\n    * @param _supports Array of support weights in order of their order in\n    *                  `votes[_voteId].candidateKeys`, sum of all supports\n    *                  must be less than `token.balance[msg.sender]`.\n    */\n    function vote(uint256 _voteId, uint256[] _supports)  external isInitialized {\n        require(canVote(_voteId, msg.sender), ERROR_CAN_VOTE);\n        _vote(_voteId, _supports, msg.sender);\n    }\n\n    /**\n    * @notice Execute dot vote #`_voteId`.\n    * @param _voteId Id for vote\n    */\n    function executeVote(uint256 _voteId) external isInitialized {\n        require(canExecute(_voteId), ERROR_CAN_VOTE);\n        _executeVote(_voteId);\n    }\n\n    /**\n    * @notice `getCandidate` serves as a basic getter using the description\n    *         to return the struct data.\n    * @param _voteId id for vote structure this 'ballot action' is connected to\n    * @param _candidateIndex The candidate descrciption of the candidate.\n    */\n    function getCandidate(uint256 _voteId, uint256 _candidateIndex)\n    external view isInitialized returns(address candidateAddress, uint256 voteSupport, string metadata, bytes32 externalId1, bytes32 externalId2)\n    {\n        require(_voteId < voteLength, ERROR_VOTE_LENGTH); // \"Vote ID outside of current vote range\");\n        uint256 actionId = votes[_voteId].actionId;\n        Action storage action = actions[actionId];\n        uint256 candidateLength = action.optionKeys.length;\n        require(_candidateIndex < candidateLength); // solium-disable-line error-reason\n        OptionState storage candidate = action.options[action.optionKeys[_candidateIndex]];\n        candidateAddress = optionAddresses[action.optionKeys[_candidateIndex]];\n        voteSupport = candidate.actionSupport;\n        metadata = candidate.metadata;\n        externalId1 = candidate.externalId1;\n        externalId2 = candidate.externalId2;\n    }\n\n    /**\n    * @notice Global parameter change: A dot voting option will require at least `@formatPct(_globalCandidateSupportPct)`% of the votes for it to be considered valid.\n    * @param _globalCandidateSupportPct Percentage of votes cast that must support\n    *        a voting option for it to be valid (expressed as a 10^18 percentage,\n    *        e.g. 10^16 = 1%, 10^18 = 100%)\n    */\n    function setglobalCandidateSupportPct(uint256 _globalCandidateSupportPct)\n    external auth(ROLE_MODIFY_CANDIDATE_SUPPORT)\n    {\n        require(globalMinQuorum >= _globalCandidateSupportPct); // solium-disable-line error-reason\n        globalCandidateSupportPct = _globalCandidateSupportPct;\n        emit UpdateMinimumSupport(globalCandidateSupportPct);\n    }\n\n    /**\n    * @notice Global parameter change: A dot vote will require a minimum participation from `@formatPct(_minQuorum)`% of the total token supply for the proposal to be considered valid.\n    * @param _minQuorum Percentage of voters that must participate in a vote for it\n    *        to be considered valid (expressed as a 10^18 percentage, e.g. 10^16 = 1%,\n    *        10^18 = 100%)\n    */\n    function setGlobalQuorum(uint256 _minQuorum)\n    external auth(ROLE_MODIFY_QUORUM)\n    {\n        require(_minQuorum > 0); // solium-disable-line error-reason\n        require(_minQuorum <= PCT_BASE); // solium-disable-line error-reason\n        require(_minQuorum >= globalCandidateSupportPct); // solium-disable-line error-reason\n        globalMinQuorum = _minQuorum;\n        emit UpdateQuorum(globalMinQuorum);\n    }\n\n    /**\n    * @dev `addCandidate` allows the `ROLE_ADD_CANDIDATES` to add candidates\n    *      (aka voting options) to an open dot vote.\n    * @notice Add voting option \"`_description`\" to dot vote #`_voteId` for the purpose of `_metadata`.\n    * @param _voteId id for vote structure this 'ballot action' is connected to\n    * @param _metadata Any additional information about the candidate.\n    *        Base implementation does not use this parameter.\n    * @param _description This is the address that will be displayed along the\n    *        option when voting\n    * @param _eId1 External ID 1, can be used for basic candidate information\n    * @param _eId2 External ID 2, can be used for basic candidate information\n    */\n    function addCandidate(uint256 _voteId, string _metadata, address _description, bytes32 _eId1, bytes32 _eId2)\n    public auth(ROLE_ADD_CANDIDATES)\n    {\n        Vote storage voteInstance = votes[_voteId];\n        require(_voteId < voteLength, ERROR_VOTE_LENGTH);\n        require(_isVoteOpen(voteInstance)); // solium-disable-line error-reason\n        addOption(votes[_voteId].actionId, _metadata, _description, _eId1, _eId2);\n    }\n\n///////////////////////\n// IForwarder functions\n///////////////////////\n\n    /**\n    * @notice `isForwarder` is a basic helper function used to determine\n    *         if a function implements the IForwarder interface\n    * @dev IForwarder interface conformance\n    * @return always returns true\n    */\n    function isForwarder() public pure returns (bool) {\n        return true;\n    }\n\n    /**\n    * @notice Used to ensure that the permissions are being handled properly\n    *         for the dot vote forwarding\n    * @dev IForwarder interface conformance\n    * @param _sender Address of the entity trying to forward\n    * @return True is `_sender` has correct permissions\n    */\n    function canForward(address _sender, bytes /*_evmCallScript*/) public view returns (bool) {\n        return canPerform(_sender, ROLE_CREATE_VOTES, arr());\n    }\n\n    // * @param _evmCallScript Not used in this implementation\n\n        /**\n    * @notice Creates a vote to execute the desired action\n    * @dev IForwarder interface conformance\n    * @param _evmScript Start vote with script\n    */\n    function forward(bytes _evmScript) public { // solium-disable-line function-order\n        require(canForward(msg.sender, _evmScript)); // solium-disable-line error-reason\n        _newVote(_evmScript, \"\");\n    }\n\n///////////////////////\n// View state functions\n///////////////////////\n\n    /**\n    * @notice `canVote` is used to check whether an address is elligible to\n    *         cast a dot vote in a given dot vote action.\n    * @param _voteId The ID of the Vote on which the vote would be cast.\n    * @param _voter The address of the entity trying to vote\n    * @return True is `_voter` has a vote token balance and vote is open\n    */\n    function canVote(uint256 _voteId, address _voter) public view isInitialized returns (bool) {\n        require(_voteId < voteLength, ERROR_VOTE_LENGTH);\n        Vote storage voteInstance = votes[_voteId];\n        return _isVoteOpen(voteInstance) && token.balanceOfAt(_voter, voteInstance.snapshotBlock) > 0;\n    }\n\n    /**\n    * @notice `canExecute` is used to check that the participation has been met\n    *         and the vote has reached it's end before the execute function is\n    *         called.\n    * @param _voteId id for vote structure this 'ballot action' is connected to\n    * @return True if the vote is elligible for execution.\n    */\n    function canExecute(uint256 _voteId) public view isInitialized returns (bool) {\n        require(_voteId < voteLength, ERROR_VOTE_LENGTH);\n        Vote storage voteInstance = votes[_voteId];\n        Action storage action = actions[voteInstance.actionId];\n        if (action.executed)\n            return false;\n         // vote ended?\n        if (_isVoteOpen(voteInstance))\n          return false;\n         // has minimum participation threshold been reached?\n        if (!_isValuePct(voteInstance.totalParticipation, voteInstance.totalVoters, voteInstance.minQuorum))\n            return false;\n        return true;\n    }\n\n    /**\n    * @notice `getVote` splits all of the data elements out of a vote\n    *         struct and returns the individual values.\n    * @param _voteId The ID of the Vote struct in the `votes` array\n    */\n    function getVote(uint256 _voteId) public view isInitialized returns\n    (\n        bool open,\n        address creator,\n        uint64 startDate,\n        uint256 snapshotBlock,\n        uint256 candidateSupport,\n        uint256 totalVoters,\n        uint256 totalParticipation,\n        uint256 externalId,\n        bytes executionScript, // script,\n        bool executed,\n        string voteDescription\n    ) { // solium-disable-line lbrace\n        require(_voteId < voteLength, ERROR_VOTE_LENGTH);\n        Vote storage voteInstance = votes[_voteId];\n        Action memory action = actions[voteInstance.actionId];\n        open = _isVoteOpen(voteInstance);\n        creator = voteInstance.creator;\n        startDate = voteInstance.startDate;\n        snapshotBlock = voteInstance.snapshotBlock;\n        candidateSupport = voteInstance.candidateSupportPct;\n        totalVoters = voteInstance.totalVoters;\n        totalParticipation = voteInstance.totalParticipation;\n        executionScript = action.executionScript;\n        executed = action.executed;\n        externalId = action.externalId;\n        voteDescription = action.description;\n    }\n\n        /**\n    * @notice `getCandidateLength` returns the total number of voting options for\n    *         a given dot vote.\n    * @param _voteId The ID of the Vote struct in the `votes` array\n    */\n    function getCandidateLength(uint256 _voteId) public view isInitialized returns\n    ( uint totalCandidates ) { // solium-disable-line lbrace\n        require(_voteId < voteLength, ERROR_VOTE_LENGTH);\n        uint256 actionId = votes[_voteId].actionId;\n        totalCandidates = actions[actionId].optionKeys.length;\n    }\n\n    /**\n    * @notice `getVoteMetadata` returns the vote metadata for a given dot vote.\n    * @param _voteId The ID of the Vote struct in the `votes` array\n    */\n    function getVoteMetadata(uint256 _voteId) public view isInitialized returns (string) {\n        require(_voteId < voteLength, ERROR_VOTE_LENGTH);\n        return votes[_voteId].metadata;\n    }\n\n    /**\n    * @notice `getVoterState` returns the voting power for a given voter.\n    * @param _voteId The ID of the Vote struct in the `votes` array.\n    * @param _voter The voter whose weights will be returned\n    */\n    function getVoterState(uint256 _voteId, address _voter) public view isInitialized returns (uint256[]) {\n        require(_voteId < voteLength, ERROR_VOTE_LENGTH);\n        return votes[_voteId].voters[_voter];\n    }\n\n///////////////////////\n// Internal functions\n///////////////////////\n\n    /**\n    * @notice `_newVote` starts a new vote and adds it to the votes array.\n    *         votes are not started with a vote from the caller, as candidates\n    *         and candidate weights need to be supplied.\n    * @param _executionScript The script that will be executed when\n    *        this vote closes. Script is of the following form:\n    *            [ specId (uint32: 4 bytes) ] many calls with this structure ->\n    *            [ to (address: 20 bytes) ]\n    *            [calldataLength (uint32: 4 bytes) ]\n    *            [ function hash (uint32: 4 bytes) ]\n    *            [ calldata (calldataLength bytes) ]\n    *        In order to work with a dot vote the execution script must contain\n    *        Arrays as its first six parameters. Non-string array lengths must all equal candidateLength\n    *        The first Array is generally a list of identifiers (address)\n    *        The second array will be composed of support value (uint256).\n    *        The third array will be end index for each candidates Information within the infoString (optional uint256)\n    *        The fourth array is a string of concatenated candidate information, the infoString (optional string)\n    *        The fifth array is used for description params (optional string)\n    *        The sixth array is an array of identification keys (optional uint256)\n    *        The seventh array is a second array of identification keys, usually mapping to a second level (optional uint256)\n    *        The eigth parameter is used as the identifier for this vote. (uint256)\n    *        See ExecutionTarget.sol in the test folder for an example  forwarded function (setSignal)\n    * @param _metadata The metadata or vote information attached to the vote.\n    * @return voteId The ID(or index) of this vote in the votes array.\n    */\n    function _newVote(bytes _executionScript, string _metadata) internal\n    isInitialized returns (uint256 voteId)\n    {\n        require(_executionScript.uint32At(0x0) == 1); // solium-disable-line error-reason\n        uint256 actionId = parseScript(_executionScript);\n        voteId = voteLength++;\n        Vote storage voteInstance = votes[voteId];\n        voteInstance.creator = msg.sender;\n        voteInstance.metadata = _metadata;\n        voteInstance.actionId = actionId;\n        voteInstance.startDate = uint64(block.timestamp); // solium-disable-line security/no-block-members\n        voteInstance.snapshotBlock = getBlockNumber() - 1; // avoid double voting in this very block\n        voteInstance.totalVoters = token.totalSupplyAt(voteInstance.snapshotBlock);\n        voteInstance.candidateSupportPct = globalCandidateSupportPct;\n        voteInstance.minQuorum = globalMinQuorum;\n        // First Static Parameter in script parsed for the externalId\n        emit ExternalContract(voteId, _executionScript.addressAt(0x4),_executionScript.bytes32At(0x0));\n        emit StartVote(voteId);\n        emit ExecutionScript(_executionScript, 0);\n    }\n\n    /**\n    * @dev `_vote` is the internal function that allows a token holder to\n    *         caste a vote on the current options.\n    * @param _voteId id for vote structure this 'ballot action' is connected to\n    * @param _supports Array of support weights in order of their order in\n    *        `votes[_voteId].candidateKeys`, sum of all supports must be less\n    *        than `token.balance[msg.sender]`.\n    * @param _voter The address of the entity \"casting\" this vote action.\n    */\n    function _vote(\n        uint256 _voteId,\n        uint256[] _supports,\n        address _voter\n    ) internal\n    {\n        require(_voteId < voteLength, ERROR_VOTE_LENGTH);\n        Vote storage voteInstance = votes[_voteId];\n        Action storage action = actions[voteInstance.actionId];\n\n        // this could re-enter, though we can asume the\n        // governance token is not maliciuous\n        uint256 voterStake = token.balanceOfAt(_voter, voteInstance.snapshotBlock);\n        uint256 totalSupport = 0;\n\n        emit CastVote(_voteId);\n\n\n        uint256 voteSupport;\n        uint256[] storage oldVoteSupport = voteInstance.voters[msg.sender];\n        bytes32[] storage cKeys = action.optionKeys;\n        uint256 supportsLength = _supports.length;\n        uint256 oldSupportLength = oldVoteSupport.length;\n        uint256 totalParticipation = voteInstance.totalParticipation;\n        require(cKeys.length == supportsLength); // solium-disable-line error-reason\n        require(oldSupportLength <= supportsLength); // solium-disable-line error-reason\n        _checkTotalSupport(_supports, voterStake);\n        uint256 i = 0;\n        // This is going to cost a lot of gas... it'd be cool if there was\n        // a better way to do this.\n        //totalParticipation = _syncOldSupports(oldSupportLength, )\n        for (i; i < oldSupportLength; i++) {\n            voteSupport = action.options[cKeys[i]].actionSupport;\n            totalParticipation = totalParticipation.sub(oldVoteSupport[i]);\n            voteSupport = voteSupport.sub(oldVoteSupport[i]);\n            voteSupport = voteSupport.add(_supports[i]);\n            totalParticipation = totalParticipation.add(_supports[i]);\n            action.options[cKeys[i]].actionSupport = voteSupport;\n        }\n        for (i; i < supportsLength; i++) {\n            voteSupport = action.options[cKeys[i]].actionSupport;\n            voteSupport = voteSupport.add(_supports[i]);\n            totalParticipation = totalParticipation.add(_supports[i]);\n            action.options[cKeys[i]].actionSupport = voteSupport;\n        }\n        voteInstance.totalParticipation = totalParticipation;\n        voteInstance.voters[msg.sender] = _supports;\n    }\n\n    function _checkTotalSupport(uint256[] _supports, uint256 _voterStake) internal {\n        uint256 totalSupport;\n        for (uint64 i = 0; i < _supports.length; i++) {\n            totalSupport = totalSupport.add(_supports[i]);\n        }\n        require(totalSupport <= _voterStake); // solium-disable-line error-reason\n    }\n\n    /**\n    * @notice `_pruneVotes` trims out options that don't meet the minimum support pct.\n    */\n    function _pruneVotes(uint256 _voteId, uint256 _candidateSupportPct) internal {\n        require(_voteId < voteLength, ERROR_VOTE_LENGTH);\n        Vote storage voteInstance = votes[_voteId];\n        uint256 actionId = voteInstance.actionId;\n        Action storage action = actions[actionId];\n        bytes32[] memory candidateKeys = actions[actionId].optionKeys;\n        uint256 candidateLength = candidateKeys.length;\n        for (uint256 i = 0; i < candidateLength; i++) {\n            bytes32 key = candidateKeys[i];\n            OptionState storage candidateState = action.options[key];\n            if (!_isValuePct(candidateState.actionSupport, voteInstance.totalParticipation, voteInstance.candidateSupportPct)) {\n                voteInstance.totalParticipation -= candidateState.actionSupport;\n                candidateState.actionSupport = 0;\n            }\n        }\n    }\n\n    /**\n    * @notice `_executeVote` executes the provided script for this vote and\n    *         passes along the candidate data to the next function.\n    * @return voteId The ID(or index) of this vote in the votes array.\n    */\n    function _executeVote(uint256 _voteId) internal {\n        require(_voteId < voteLength, ERROR_VOTE_LENGTH);\n        Vote storage voteInstance = votes[_voteId];\n        uint256 actionId = voteInstance.actionId;\n        Action storage action = actions[actionId];\n        uint256 candidateSupportPct = voteInstance.candidateSupportPct;\n        if (candidateSupportPct > 0) {\n            _pruneVotes(_voteId, candidateSupportPct);\n        }\n        bytes memory script = encodeInput(voteInstance.actionId);\n        emit ExecutionScript(script, 0);\n        action.executed = true;\n        runScript(script, new bytes(0), new address[](0));\n        emit ExecuteVote(_voteId);\n    }\n\n    /**\n    * @dev Checks whether vote time has passed and whether vote has executed\n    */\n    function _isVoteOpen(Vote storage voteArg) internal view returns (bool) {\n        bool voteWithinTime = uint64(block.timestamp) < (voteArg.startDate.add(voteTime)); // solium-disable-line security/no-block-members\n        return voteWithinTime && !actions[voteArg.actionId].executed;\n    }\n\n    /**\n    * @dev Calculates whether `_value` is at least a percentage `_pct` of `_total`\n    */\n    function _isValuePct(uint256 _value, uint256 _total, uint256 _pct)\n        internal pure returns (bool)\n    {\n        // if (_total == 0) {\n        if (_value == 0 && _total > 0)\n            return false;\n        // }\n\n        uint256 m = _total.mul(_pct);\n        uint256 v = m / PCT_BASE;\n        // uint256 computedPct = _value.mul(PCT_BASE) / _total;\n\n        // return computedPct >= _pct;\n\n        // If division is exact, allow same value,\n        // otherwise require value to be greater\n        return m % PCT_BASE == 0 ? _value >= v : _value > v;\n    }\n}\n",
  "sourcePath": "@autarklabs/apps-dot-voting/contracts/DotVoting.sol",
  "compiler": {
    "name": "solc",
    "version": "0.4.24+commit.e67f0147.Emscripten.clang"
  },
  "schemaVersion": "3.4.2",
  "updatedAt": "2021-10-14T14:14:04.498Z",
  "devdoc": {
    "methods": {
      "addCandidate(uint256,string,address,bytes32,bytes32)": {
        "details": "`addCandidate` allows the `ROLE_ADD_CANDIDATES` to add candidates     (aka voting options) to an open dot vote.",
        "params": {
          "_description": "This is the address that will be displayed along the       option when voting",
          "_eId1": "External ID 1, can be used for basic candidate information",
          "_eId2": "External ID 2, can be used for basic candidate information",
          "_metadata": "Any additional information about the candidate.       Base implementation does not use this parameter.",
          "_voteId": "id for vote structure this 'ballot action' is connected to"
        }
      },
      "allowRecoverability(address)": {
        "details": "By default deriving from AragonApp makes it recoverable",
        "params": {
          "token": "Token address that would be recovered"
        },
        "return": "bool whether the app allows the recovery"
      },
      "canExecute(uint256)": {
        "params": {
          "_voteId": "id for vote structure this 'ballot action' is connected to"
        },
        "return": "True if the vote is elligible for execution."
      },
      "canForward(address,bytes)": {
        "details": "IForwarder interface conformance",
        "params": {
          "_sender": "Address of the entity trying to forward"
        },
        "return": "True is `_sender` has correct permissions"
      },
      "canPerform(address,bytes32,uint256[])": {
        "details": "Check whether an action can be performed by a sender for a particular role on this app",
        "params": {
          "_params": "Permission params for the role",
          "_role": "Role on this app",
          "_sender": "Sender of the call"
        },
        "return": "Boolean indicating whether the sender has the permissions to perform the action.        Always returns false if the app hasn't been initialized yet."
      },
      "canVote(uint256,address)": {
        "params": {
          "_voteId": "The ID of the Vote on which the vote would be cast.",
          "_voter": "The address of the entity trying to vote"
        },
        "return": "True is `_voter` has a vote token balance and vote is open"
      },
      "executeVote(uint256)": {
        "params": {
          "_voteId": "Id for vote"
        }
      },
      "forward(bytes)": {
        "details": "IForwarder interface conformance",
        "params": {
          "_evmScript": "Start vote with script"
        }
      },
      "getCandidate(uint256,uint256)": {
        "params": {
          "_candidateIndex": "The candidate descrciption of the candidate.",
          "_voteId": "id for vote structure this 'ballot action' is connected to"
        }
      },
      "getCandidateLength(uint256)": {
        "params": {
          "_voteId": "The ID of the Vote struct in the `votes` array"
        }
      },
      "getInitializationBlock()": {
        "return": "Block number in which the contract was initialized"
      },
      "getOption(uint256,uint256)": {
        "params": {
          "_actionId": "id for action structure this 'ballot action' is connected to",
          "_optionIndex": "The option descrciption of the option."
        }
      },
      "getOptionLength(uint256)": {
        "params": {
          "_actionId": "The ID of the Action struct in the `actions` array"
        }
      },
      "getRecoveryVault()": {
        "details": "Get the recovery vault for the app",
        "return": "Recovery vault address for the app"
      },
      "getVote(uint256)": {
        "params": {
          "_voteId": "The ID of the Vote struct in the `votes` array"
        }
      },
      "getVoteMetadata(uint256)": {
        "params": {
          "_voteId": "The ID of the Vote struct in the `votes` array"
        }
      },
      "getVoterState(uint256,address)": {
        "params": {
          "_voteId": "The ID of the Vote struct in the `votes` array.",
          "_voter": "The voter whose weights will be returned"
        }
      },
      "hasInitialized()": {
        "return": "Whether the contract has been initialized by the time of the current block"
      },
      "initialize(address,uint256,uint256,uint64)": {
        "params": {
          "_candidateSupportPct": "Percentage of votes cast that must       support a voting option for it to be valid (expressed as a 10^18       percentage, (eg 10^16 = 1%, 10^18 = 100%)",
          "_minQuorum": "Percentage of voters that must participate in       a dot vote for it to succeed (expressed as a 10^18 percentage,       (eg 10^16 = 1%, 10^18 = 100%)",
          "_token": "MiniMeToken address that will be used as governance token",
          "_voteTime": "Seconds that a vote will be open for tokenholders to       vote (unless it is impossible for the fate of the vote to change)"
        }
      },
      "isForwarder()": {
        "details": "IForwarder interface conformance",
        "return": "always returns true"
      },
      "newVote(bytes,string)": {
        "params": {
          "_executionScript": "EVM script to be executed on approval",
          "_metadata": "Vote metadata"
        },
        "return": "voteId Id for newly created vote"
      },
      "setGlobalQuorum(uint256)": {
        "params": {
          "_minQuorum": "Percentage of voters that must participate in a vote for it       to be considered valid (expressed as a 10^18 percentage, e.g. 10^16 = 1%,       10^18 = 100%)"
        }
      },
      "setglobalCandidateSupportPct(uint256)": {
        "params": {
          "_globalCandidateSupportPct": "Percentage of votes cast that must support       a voting option for it to be valid (expressed as a 10^18 percentage,       e.g. 10^16 = 1%, 10^18 = 100%)"
        }
      },
      "transferToVault(address)": {
        "params": {
          "_token": "Token balance to be sent to recovery vault."
        }
      },
      "vote(uint256,uint256[])": {
        "params": {
          "_supports": "Array of support weights in order of their order in                 `votes[_voteId].candidateKeys`, sum of all supports                 must be less than `token.balance[msg.sender]`.",
          "_voteId": "id for vote structure this 'ballot action' is connected to"
        }
      }
    }
  },
  "userdoc": {
    "methods": {
      "addCandidate(uint256,string,address,bytes32,bytes32)": {
        "notice": "Add voting option \"`_description`\" to dot vote #`_voteId` for the purpose of `_metadata`."
      },
      "canExecute(uint256)": {
        "notice": "`canExecute` is used to check that the participation has been met        and the vote has reached it's end before the execute function is        called."
      },
      "canForward(address,bytes)": {
        "notice": "Used to ensure that the permissions are being handled properly        for the dot vote forwarding"
      },
      "canVote(uint256,address)": {
        "notice": "`canVote` is used to check whether an address is elligible to        cast a dot vote in a given dot vote action."
      },
      "executeVote(uint256)": {
        "notice": "Execute dot vote #`_voteId`."
      },
      "forward(bytes)": {
        "notice": "Creates a vote to execute the desired action"
      },
      "getCandidate(uint256,uint256)": {
        "notice": "`getCandidate` serves as a basic getter using the description        to return the struct data."
      },
      "getCandidateLength(uint256)": {
        "notice": "`getCandidateLength` returns the total number of voting options for        a given dot vote."
      },
      "getOption(uint256,uint256)": {
        "notice": "`getOption` serves as a basic getter using the description        to return the struct data."
      },
      "getOptionLength(uint256)": {
        "notice": "`getOptionLength` returns the total number of options for        a given action."
      },
      "getVote(uint256)": {
        "notice": "`getVote` splits all of the data elements out of a vote        struct and returns the individual values."
      },
      "getVoteMetadata(uint256)": {
        "notice": "`getVoteMetadata` returns the vote metadata for a given dot vote."
      },
      "getVoterState(uint256,address)": {
        "notice": "`getVoterState` returns the voting power for a given voter."
      },
      "initialize(address,uint256,uint256,uint64)": {
        "notice": "Initializes DotVoting app with `_token.symbol(): string` for        governance, minimum quorum of        `(_minQuorum - _minQuorum % 10^14)        / 10^16`, minimal candidate acceptance of        `(_candidateSupportPct - _candidateSupportPct % 10^14) / 10^16`        and vote duations of `(_voteTime - _voteTime % 86400) / 86400`        day `_voteTime >= 172800 ? 's' : ''`"
      },
      "isForwarder()": {
        "notice": "`isForwarder` is a basic helper function used to determine        if a function implements the IForwarder interface"
      },
      "newVote(bytes,string)": {
        "notice": "Create a new dot vote for \"`_metadata`\". "
      },
      "setGlobalQuorum(uint256)": {
        "notice": "Global parameter change: A dot vote will require a minimum participation from `@formatPct(_minQuorum)`% of the total token supply for the proposal to be considered valid."
      },
      "setglobalCandidateSupportPct(uint256)": {
        "notice": "Global parameter change: A dot voting option will require at least `@formatPct(_globalCandidateSupportPct)`% of the votes for it to be considered valid."
      },
      "transferToVault(address)": {
        "notice": "Send funds to recovery Vault. This contract should never receive funds,        but in case it does, this function allows one to recover them."
      },
      "vote(uint256,uint256[])": {
        "notice": "Cast a dot vote."
      }
    }
  }
}