{
  "contractName": "DynamicScriptHelpers",
  "abi": [
    {
      "constant": true,
      "inputs": [
        {
          "name": "_a",
          "type": "bytes"
        },
        {
          "name": "_b",
          "type": "bytes"
        },
        {
          "name": "_c",
          "type": "address[]"
        }
      ],
      "name": "abiEncode",
      "outputs": [
        {
          "name": "d",
          "type": "bytes"
        }
      ],
      "payable": false,
      "stateMutability": "pure",
      "type": "function"
    }
  ],
  "bytecode": "0x61032e610030600b82828239805160001a6073146000811461002057610022565bfe5b5030600052607381538281f300730000000000000000000000000000000000000000301460806040526004361061003e5763ffffffff60e060020a600035041663137d70268114610043575b600080fd5b6040805160206004803580820135601f810184900484028501840190955284845261010694369492936024939284019190819084018382808284375050604080516020601f89358b018035918201839004830284018301909452808352979a999881019791965091820194509250829150840183828082843750506040805187358901803560208181028481018201909552818452989b9a99890198929750908201955093508392508501908490808284375094975061017b9650505050505050565b6040805160208082528351818301528351919283929083019185019080838360005b83811015610140578181015183820152602001610128565b50505050905090810190601f16801561016d5780820380516001836020036101000a031916815260200191505b509250505060405180910390f35b6060610188848484610190565b949350505050565b606080600080806101a088610257565b602002840192506101b087610257565b602002830191506101c086610292565b60200282019050806040519080825280601f01601f1916602001820160405280156101f5578160200160208202803883390190505b50945083602086015282604086015281606086015261021f856102178a610299565b868b5161029c565b6102348561022c89610299565b858a5161029c565b61024c8561024188610299565b84895160200261029c565b505050509392505050565b6000806020835181151561026757fe5b0611610274576000610277565b60015b60ff166020835181151561028757fe5b040160010192915050565b5160010190565b90565b8382016020016102ad8185846102b4565b5050505050565b81838260005b602082106102dc578351835260209384019390920191601f19909101906102ba565b6001826020036101000a03905080198451168184511681811785525050505050505050505600a165627a7a7230582018cb40783df7981db0e9d9de9f029b700f7dd85684b7d773cafa0a2ac040227a0029",
  "source": "/*\n * SPDX-License-Identitifer:    MIT\n */\n\npragma solidity ^0.4.18;\n\n\nlibrary DynamicScriptHelpers {\n    // To test with JS and compare with actual encoder. Maintaining for reference.\n    // t = function() { return IEVMScriptExecutor.at('0x4bcdd59d6c77774ee7317fc1095f69ec84421e49').contract.execScript.getData(...[].slice.call(arguments)).slice(10).match(/.{1,64}/g) }\n    // run = function() { return ScriptHelpers.new().then(sh => { sh.abiEncode.call(...[].slice.call(arguments)).then(a => console.log(a.slice(2).match(/.{1,64}/g)) ) }) }\n    // This is truly not beautiful but lets no daydream to the day solidity gets reflection features\n\n    function abiEncode(bytes _a, bytes _b, address[] _c) public pure returns (bytes d) {\n        return encode(_a, _b, _c);\n    }\n\n    function encode(bytes memory _a, bytes memory _b, address[] memory _c) internal pure returns (bytes memory d) {\n        // A is positioned after the 3 position words\n        uint256 aPosition = 0x60;\n        uint256 bPosition = aPosition + 32 * abiLength(_a);\n        uint256 cPosition = bPosition + 32 * abiLength(_b);\n        uint256 length = cPosition + 32 * abiLength(_c);\n\n        d = new bytes(length);\n        assembly {\n            // Store positions\n            mstore(add(d, 0x20), aPosition)\n            mstore(add(d, 0x40), bPosition)\n            mstore(add(d, 0x60), cPosition)\n        }\n\n        // Copy memory to correct position\n        copy(d, getPtr(_a), aPosition, _a.length);\n        copy(d, getPtr(_b), bPosition, _b.length);\n        copy(d, getPtr(_c), cPosition, _c.length * 32); // 1 word per address\n    }\n\n    function abiLength(bytes memory _a) internal pure returns (uint256) {\n        // 1 for length +\n        // memory words + 1 if not divisible for 32 to offset word\n        return 1 + (_a.length / 32) + (_a.length % 32 > 0 ? 1 : 0);\n    }\n\n    function abiLength(address[] _a) internal pure returns (uint256) {\n        // 1 for length + 1 per item\n        return 1 + _a.length;\n    }\n\n    function copy(bytes _d, uint256 _src, uint256 _pos, uint256 _length) internal pure {\n        uint dest;\n        assembly {\n            dest := add(add(_d, 0x20), _pos)\n        }\n        memcpy(dest, _src, _length);\n    }\n\n    function getPtr(bytes memory _x) internal pure returns (uint256 ptr) {\n        assembly {\n            ptr := _x\n        }\n    }\n\n    function getPtr(address[] memory _x) internal pure returns (uint256 ptr) {\n        assembly {\n            ptr := _x\n        }\n    }\n\n    function getSpecId(bytes _script) internal pure returns (uint32) {\n        return uint32At(_script, 0);\n    }\n\n    function uint256At(bytes _data, uint256 _location) internal pure returns (uint256 result) {\n        assembly {\n            result := mload(add(_data, add(0x20, _location)))\n        }\n    }\n\n    function bytes32At(bytes _data, uint256 _location) internal pure returns (bytes32 result) {\n        assembly {\n            result := mload(add(_data, add(0x20, _location)))\n        }\n    }\n\n    function addressAt(bytes _data, uint256 _location) internal pure returns (address result) {\n        uint256 word = uint256At(_data, _location);\n\n        assembly {\n            result := div(and(word, 0xffffffffffffffffffffffffffffffffffffffff000000000000000000000000),\n            0x1000000000000000000000000)\n        }\n    }\n\n    function uint32At(bytes _data, uint256 _location) internal pure returns (uint32 result) {\n        uint256 word = uint256At(_data, _location);\n\n        assembly {\n            result := div(and(word, 0xffffffff00000000000000000000000000000000000000000000000000000000),\n            0x100000000000000000000000000000000000000000000000000000000)\n        }\n    }\n\n    function locationOf(bytes _data, uint256 _location) internal pure returns (uint256 result) {\n        assembly {\n            result := add(_data, add(0x20, _location))\n        }\n    }\n\n    function toBytes(bytes4 _sig) internal pure returns (bytes) {\n        bytes memory payload = new bytes(4);\n        assembly { mstore(add(payload, 0x20), _sig) }\n        return payload;\n    }\n\n    function memcpy(uint _dest, uint _src, uint _len) internal pure {\n        uint256 src = _src;\n        uint256 dest = _dest;\n        uint256 len = _len;\n\n        // Copy word-length chunks while possible\n        for (; len >= 32; len -= 32) {\n            assembly {\n                mstore(dest, mload(src))\n            }\n            dest += 32;\n            src += 32;\n        }\n\n        // Copy remaining bytes\n        uint mask = 256 ** (32 - len) - 1;\n        assembly {\n            let srcpart := and(mload(src), not(mask))\n            let destpart := and(mload(dest), mask)\n            mstore(dest, or(destpart, srcpart))\n        }\n    }\n}\n",
  "sourcePath": "@autarklabs/test-helpers/contracts/evmscript/DynamicScriptHelpers.sol",
  "compiler": {
    "name": "solc",
    "version": "0.4.24+commit.e67f0147.Emscripten.clang"
  },
  "schemaVersion": "3.4.2",
  "updatedAt": "2021-10-14T14:14:04.864Z",
  "devdoc": {
    "methods": {}
  },
  "userdoc": {
    "methods": {}
  }
}