{
  "contractName": "ENS",
  "abi": [
    {
      "inputs": [],
      "payable": false,
      "stateMutability": "nonpayable",
      "type": "constructor"
    },
    {
      "anonymous": false,
      "inputs": [
        {
          "indexed": true,
          "name": "_node",
          "type": "bytes32"
        },
        {
          "indexed": true,
          "name": "_label",
          "type": "bytes32"
        },
        {
          "indexed": false,
          "name": "_owner",
          "type": "address"
        }
      ],
      "name": "NewOwner",
      "type": "event"
    },
    {
      "anonymous": false,
      "inputs": [
        {
          "indexed": true,
          "name": "_node",
          "type": "bytes32"
        },
        {
          "indexed": false,
          "name": "_owner",
          "type": "address"
        }
      ],
      "name": "Transfer",
      "type": "event"
    },
    {
      "anonymous": false,
      "inputs": [
        {
          "indexed": true,
          "name": "_node",
          "type": "bytes32"
        },
        {
          "indexed": false,
          "name": "_resolver",
          "type": "address"
        }
      ],
      "name": "NewResolver",
      "type": "event"
    },
    {
      "anonymous": false,
      "inputs": [
        {
          "indexed": true,
          "name": "_node",
          "type": "bytes32"
        },
        {
          "indexed": false,
          "name": "_ttl",
          "type": "uint64"
        }
      ],
      "name": "NewTTL",
      "type": "event"
    },
    {
      "constant": true,
      "inputs": [
        {
          "name": "node",
          "type": "bytes32"
        }
      ],
      "name": "owner",
      "outputs": [
        {
          "name": "",
          "type": "address"
        }
      ],
      "payable": false,
      "stateMutability": "view",
      "type": "function"
    },
    {
      "constant": true,
      "inputs": [
        {
          "name": "node",
          "type": "bytes32"
        }
      ],
      "name": "resolver",
      "outputs": [
        {
          "name": "",
          "type": "address"
        }
      ],
      "payable": false,
      "stateMutability": "view",
      "type": "function"
    },
    {
      "constant": true,
      "inputs": [
        {
          "name": "node",
          "type": "bytes32"
        }
      ],
      "name": "ttl",
      "outputs": [
        {
          "name": "",
          "type": "uint64"
        }
      ],
      "payable": false,
      "stateMutability": "view",
      "type": "function"
    },
    {
      "constant": false,
      "inputs": [
        {
          "name": "node",
          "type": "bytes32"
        },
        {
          "name": "owner",
          "type": "address"
        }
      ],
      "name": "setOwner",
      "outputs": [],
      "payable": false,
      "stateMutability": "nonpayable",
      "type": "function"
    },
    {
      "constant": false,
      "inputs": [
        {
          "name": "node",
          "type": "bytes32"
        },
        {
          "name": "label",
          "type": "bytes32"
        },
        {
          "name": "owner",
          "type": "address"
        }
      ],
      "name": "setSubnodeOwner",
      "outputs": [],
      "payable": false,
      "stateMutability": "nonpayable",
      "type": "function"
    },
    {
      "constant": false,
      "inputs": [
        {
          "name": "node",
          "type": "bytes32"
        },
        {
          "name": "resolver",
          "type": "address"
        }
      ],
      "name": "setResolver",
      "outputs": [],
      "payable": false,
      "stateMutability": "nonpayable",
      "type": "function"
    },
    {
      "constant": false,
      "inputs": [
        {
          "name": "node",
          "type": "bytes32"
        },
        {
          "name": "ttl",
          "type": "uint64"
        }
      ],
      "name": "setTTL",
      "outputs": [],
      "payable": false,
      "stateMutability": "nonpayable",
      "type": "function"
    }
  ],
  "bytecode": "0x608060405234801561001057600080fd5b5060008080526020527fad3228b676f7d3cd4284a5443f17f1962b36e491b30a40b2405849e597ba5fb58054600160a060020a03191633179055610484806100596000396000f3006080604052600436106100695763ffffffff60e060020a6000350416630178b8bf811461006e57806302571be3146100a257806306ab5923146100ba57806314ab9038146100e357806316a25cbd146101075780631896f70a1461013b5780635b0fc9c31461015f575b600080fd5b34801561007a57600080fd5b50610086600435610183565b60408051600160a060020a039092168252519081900360200190f35b3480156100ae57600080fd5b506100866004356101a1565b3480156100c657600080fd5b506100e1600435602435600160a060020a03604435166101bc565b005b3480156100ef57600080fd5b506100e16004356001604060020a0360243516610269565b34801561011357600080fd5b5061011f60043561030a565b604080516001604060020a039092168252519081900360200190f35b34801561014757600080fd5b506100e1600435600160a060020a036024351661032f565b34801561016b57600080fd5b506100e1600435600160a060020a03602435166103c5565b600090815260208190526040902060010154600160a060020a031690565b600090815260208190526040902054600160a060020a031690565b6000838152602081905260408120548490600160a060020a031633146101e157600080fd5b60408051868152602080820187905282519182900383018220600160a060020a03871683529251929450869288927fce0457fe73731f824cc272376169235128c118b49d344817417c6d108d155e8292908290030190a35060009081526020819052604090208054600160a060020a031916600160a060020a03929092169190911790555050565b6000828152602081905260409020548290600160a060020a0316331461028e57600080fd5b604080516001604060020a0384168152905184917f1d4f9bbfc9cab89d66e1a1562f2233ccbf1308cb4f63de2ead5787adddb8fa68919081900360200190a25060009182526020829052604090912060010180546001604060020a0390921660a060020a0260a060020a60e060020a0319909216919091179055565b60009081526020819052604090206001015460a060020a90046001604060020a031690565b6000828152602081905260409020548290600160a060020a0316331461035457600080fd5b60408051600160a060020a0384168152905184917f335721b01866dc23fbee8b6b2c7b1e14d6f05c28cd35a2c934239f94095602a0919081900360200190a2506000918252602082905260409091206001018054600160a060020a031916600160a060020a03909216919091179055565b6000828152602081905260409020548290600160a060020a031633146103ea57600080fd5b60408051600160a060020a0384168152905184917fd4735d920b0f87494915f556dd9b54c8f309026070caea5c737245152564d266919081900360200190a2506000918252602082905260409091208054600160a060020a031916600160a060020a039092169190911790555600a165627a7a72305820e404a943531814aa17b94bcefe795d22211610b6824d272955512a29c7f86f3f0029",
  "source": "// See https://github.com/ensdomains/ens/blob/7e377df83f/contracts/ENS.sol\n\npragma solidity ^0.4.0;\n\n\nimport \"./AbstractENS.sol\";\n\n/**\n * The ENS registry contract.\n */\ncontract ENS is AbstractENS {\n    struct Record {\n        address owner;\n        address resolver;\n        uint64 ttl;\n    }\n\n    mapping(bytes32=>Record) records;\n\n    // Permits modifications only by the owner of the specified node.\n    modifier only_owner(bytes32 node) {\n        if (records[node].owner != msg.sender) throw;\n        _;\n    }\n\n    /**\n     * Constructs a new ENS registrar.\n     */\n    function ENS() public {\n        records[0].owner = msg.sender;\n    }\n\n    /**\n     * Returns the address that owns the specified node.\n     */\n    function owner(bytes32 node) public constant returns (address) {\n        return records[node].owner;\n    }\n\n    /**\n     * Returns the address of the resolver for the specified node.\n     */\n    function resolver(bytes32 node) public constant returns (address) {\n        return records[node].resolver;\n    }\n\n    /**\n     * Returns the TTL of a node, and any records associated with it.\n     */\n    function ttl(bytes32 node) public constant returns (uint64) {\n        return records[node].ttl;\n    }\n\n    /**\n     * Transfers ownership of a node to a new address. May only be called by the current\n     * owner of the node.\n     * @param node The node to transfer ownership of.\n     * @param owner The address of the new owner.\n     */\n    function setOwner(bytes32 node, address owner) only_owner(node) public {\n        Transfer(node, owner);\n        records[node].owner = owner;\n    }\n\n    /**\n     * Transfers ownership of a subnode keccak256(node, label) to a new address. May only be\n     * called by the owner of the parent node.\n     * @param node The parent node.\n     * @param label The hash of the label specifying the subnode.\n     * @param owner The address of the new owner.\n     */\n    function setSubnodeOwner(bytes32 node, bytes32 label, address owner) only_owner(node) public {\n        var subnode = keccak256(node, label);\n        NewOwner(node, label, owner);\n        records[subnode].owner = owner;\n    }\n\n    /**\n     * Sets the resolver address for the specified node.\n     * @param node The node to update.\n     * @param resolver The address of the resolver.\n     */\n    function setResolver(bytes32 node, address resolver) only_owner(node) public {\n        NewResolver(node, resolver);\n        records[node].resolver = resolver;\n    }\n\n    /**\n     * Sets the TTL for the specified node.\n     * @param node The node to update.\n     * @param ttl The TTL in seconds.\n     */\n    function setTTL(bytes32 node, uint64 ttl) only_owner(node) public {\n        NewTTL(node, ttl);\n        records[node].ttl = ttl;\n    }\n}\n",
  "sourcePath": "@aragon/os/contracts/lib/ens/ENS.sol",
  "compiler": {
    "name": "solc",
    "version": "0.4.24+commit.e67f0147.Emscripten.clang"
  },
  "schemaVersion": "3.4.2",
  "updatedAt": "2021-10-14T14:14:04.378Z",
  "devdoc": {
    "methods": {
      "setOwner(bytes32,address)": {
        "params": {
          "node": "The node to transfer ownership of.",
          "owner": "The address of the new owner."
        }
      },
      "setResolver(bytes32,address)": {
        "params": {
          "node": "The node to update.",
          "resolver": "The address of the resolver."
        }
      },
      "setSubnodeOwner(bytes32,bytes32,address)": {
        "params": {
          "label": "The hash of the label specifying the subnode.",
          "node": "The parent node.",
          "owner": "The address of the new owner."
        }
      },
      "setTTL(bytes32,uint64)": {
        "params": {
          "node": "The node to update.",
          "ttl": "The TTL in seconds."
        }
      }
    }
  },
  "userdoc": {
    "methods": {
      "owner(bytes32)": {
        "notice": "Returns the address that owns the specified node."
      },
      "resolver(bytes32)": {
        "notice": "Returns the address of the resolver for the specified node."
      },
      "setOwner(bytes32,address)": {
        "notice": "Transfers ownership of a node to a new address. May only be called by the current owner of the node."
      },
      "setResolver(bytes32,address)": {
        "notice": "Sets the resolver address for the specified node."
      },
      "setSubnodeOwner(bytes32,bytes32,address)": {
        "notice": "Transfers ownership of a subnode keccak256(node, label) to a new address. May only be called by the owner of the parent node."
      },
      "setTTL(bytes32,uint64)": {
        "notice": "Sets the TTL for the specified node."
      },
      "ttl(bytes32)": {
        "notice": "Returns the TTL of a node, and any records associated with it."
      }
    }
  }
}