{
  "contractName": "ENSFactory",
  "abi": [
    {
      "anonymous": false,
      "inputs": [
        {
          "indexed": false,
          "name": "ens",
          "type": "address"
        }
      ],
      "name": "DeployENS",
      "type": "event"
    },
    {
      "constant": false,
      "inputs": [
        {
          "name": "_owner",
          "type": "address"
        }
      ],
      "name": "newENS",
      "outputs": [
        {
          "name": "",
          "type": "address"
        }
      ],
      "payable": false,
      "stateMutability": "nonpayable",
      "type": "function"
    }
  ],
  "bytecode": "0x608060405234801561001057600080fd5b50611a65806100206000396000f3006080604052600436106100275763ffffffff60e060020a600035041663e9358b01811461002c575b600080fd5b34801561003857600080fd5b5061004d600160a060020a0360043516610069565b60408051600160a060020a039092168252519081900360200190f35b6000806000610076610417565b604051809103906000f080158015610092573d6000803e3d6000fd5b506040805160e060020a6306ab59230281526000600482018190527f4f5b812789fc606be1b3b16908db13fc7a9adf7ca72641f84d75b47069d3d7f060248301523060448301529151929450600160a060020a038516926306ab59239260648084019391929182900301818387803b15801561010d57600080fd5b505af1158015610121573d6000803e3d6000fd5b505050508161012e610427565b600160a060020a03909116815260405190819003602001906000f08015801561015b573d6000803e3d6000fd5b506040805160e060020a6306ab59230281526000805160206119fa83398151915260048201527f329539a1d23af1810c48a07fe7fc66a3b34fbc8b37e9b3cdb97bb88ceab7e4bf60248201523060448201529051919250600160a060020a038416916306ab59239160648082019260009290919082900301818387803b1580156101e457600080fd5b505af11580156101f8573d6000803e3d6000fd5b50506040805160e160020a630c4b7b85028152600080516020611a1a8339815191526004820152600160a060020a03858116602483015291519186169350631896f70a925060448082019260009290919082900301818387803b15801561025e57600080fd5b505af1158015610272573d6000803e3d6000fd5b50506040805160e860020a62d5fa2b028152600080516020611a1a8339815191526004820152600160a060020a03851660248201819052915191935063d5fa2b00925060448082019260009290919082900301818387803b1580156102d657600080fd5b505af11580156102ea573d6000803e3d6000fd5b50506040805160e060020a635b0fc9c30281526000805160206119fa8339815191526004820152600160a060020a03888116602483015291519186169350635b0fc9c3925060448082019260009290919082900301818387803b15801561035057600080fd5b505af1158015610364573d6000803e3d6000fd5b50506040805160e060020a635b0fc9c3028152600060048201819052600160a060020a03898116602484015292519287169450635b0fc9c39350604480830193919282900301818387803b1580156103bb57600080fd5b505af11580156103cf573d6000803e3d6000fd5b505060408051600160a060020a038616815290517fdbfb5ababf63f86424e8df6053dfb90f8b63ea26d7e1e8f68407af4fb2d2c4f29350908190036020019150a15092915050565b6040516104dd8061043883390190565b6040516110e580610915833901905600608060405234801561001057600080fd5b5060008080526020527fad3228b676f7d3cd4284a5443f17f1962b36e491b30a40b2405849e597ba5fb58054600160a060020a03191633179055610484806100596000396000f3006080604052600436106100695763ffffffff60e060020a6000350416630178b8bf811461006e57806302571be3146100a257806306ab5923146100ba57806314ab9038146100e357806316a25cbd146101075780631896f70a1461013b5780635b0fc9c31461015f575b600080fd5b34801561007a57600080fd5b50610086600435610183565b60408051600160a060020a039092168252519081900360200190f35b3480156100ae57600080fd5b506100866004356101a1565b3480156100c657600080fd5b506100e1600435602435600160a060020a03604435166101bc565b005b3480156100ef57600080fd5b506100e16004356001604060020a0360243516610269565b34801561011357600080fd5b5061011f60043561030a565b604080516001604060020a039092168252519081900360200190f35b34801561014757600080fd5b506100e1600435600160a060020a036024351661032f565b34801561016b57600080fd5b506100e1600435600160a060020a03602435166103c5565b600090815260208190526040902060010154600160a060020a031690565b600090815260208190526040902054600160a060020a031690565b6000838152602081905260408120548490600160a060020a031633146101e157600080fd5b60408051868152602080820187905282519182900383018220600160a060020a03871683529251929450869288927fce0457fe73731f824cc272376169235128c118b49d344817417c6d108d155e8292908290030190a35060009081526020819052604090208054600160a060020a031916600160a060020a03929092169190911790555050565b6000828152602081905260409020548290600160a060020a0316331461028e57600080fd5b604080516001604060020a0384168152905184917f1d4f9bbfc9cab89d66e1a1562f2233ccbf1308cb4f63de2ead5787adddb8fa68919081900360200190a25060009182526020829052604090912060010180546001604060020a0390921660a060020a0260a060020a60e060020a0319909216919091179055565b60009081526020819052604090206001015460a060020a90046001604060020a031690565b6000828152602081905260409020548290600160a060020a0316331461035457600080fd5b60408051600160a060020a0384168152905184917f335721b01866dc23fbee8b6b2c7b1e14d6f05c28cd35a2c934239f94095602a0919081900360200190a2506000918252602082905260409091206001018054600160a060020a031916600160a060020a03909216919091179055565b6000828152602081905260409020548290600160a060020a031633146103ea57600080fd5b60408051600160a060020a0384168152905184917fd4735d920b0f87494915f556dd9b54c8f309026070caea5c737245152564d266919081900360200190a2506000918252602082905260409091208054600160a060020a031916600160a060020a039092169190911790555600a165627a7a72305820e404a943531814aa17b94bcefe795d22211610b6824d272955512a29c7f86f3f0029608060405234801561001057600080fd5b506040516020806110e5833981016040525160008054600160a060020a03909216600160a060020a0319909216919091179055611093806100526000396000f3006080604052600436106100ab5763ffffffff60e060020a60003504166301ffc9a781146100b057806310f13a8c146100e65780632203ab561461018457806329cd62ea1461021e5780632dff69411461023c5780633b3b57de1461026657806359d1d43c1461029a578063623195b01461036d578063691f3431146103cd57806377372213146103e5578063c3d014d614610443578063c86902331461045e578063d5fa2b001461048f575b600080fd5b3480156100bc57600080fd5b506100d2600160e060020a0319600435166104b3565b604080519115158252519081900360200190f35b3480156100f257600080fd5b5060408051602060046024803582810135601f810185900485028601850190965285855261018295833595369560449491939091019190819084018382808284375050604080516020601f89358b018035918201839004830284018301909452808352979a9998810197919650918201945092508291508401838280828437509497506105869650505050505050565b005b34801561019057600080fd5b5061019f600435602435610796565b6040518083815260200180602001828103825283818151815260200191508051906020019080838360005b838110156101e25781810151838201526020016101ca565b50505050905090810190601f16801561020f5780820380516001836020036101000a031916815260200191505b50935050505060405180910390f35b34801561022a57600080fd5b506101826004356024356044356108a2565b34801561024857600080fd5b506102546004356109a2565b60408051918252519081900360200190f35b34801561027257600080fd5b5061027e6004356109b8565b60408051600160a060020a039092168252519081900360200190f35b3480156102a657600080fd5b5060408051602060046024803582810135601f81018590048502860185019096528585526102f89583359536956044949193909101919081908401838280828437509497506109d39650505050505050565b6040805160208082528351818301528351919283929083019185019080838360005b8381101561033257818101518382015260200161031a565b50505050905090810190601f16801561035f5780820380516001836020036101000a031916815260200191505b509250505060405180910390f35b34801561037957600080fd5b50604080516020600460443581810135601f8101849004840285018401909552848452610182948235946024803595369594606494920191908190840183828082843750949750610adc9650505050505050565b3480156103d957600080fd5b506102f8600435610bdd565b3480156103f157600080fd5b5060408051602060046024803582810135601f8101859004850286018501909652858552610182958335953695604494919390910191908190840183828082843750949750610c819650505050505050565b34801561044f57600080fd5b50610182600435602435610dd7565b34801561046a57600080fd5b50610476600435610eb8565b6040805192835260208301919091528051918290030190f35b34801561049b57600080fd5b50610182600435600160a060020a0360243516610ed5565b6000600160e060020a0319821660e160020a631d9dabef0214806104ea5750600160e060020a0319821660e060020a63d8389dc502145b806105085750600160e060020a0319821660e060020a63691f343102145b806105265750600160e060020a0319821660e160020a631101d5ab02145b806105445750600160e060020a0319821660e060020a63c869023302145b806105625750600160e060020a0319821660e260020a631674750f02145b806105805750600160e060020a0319821660e060020a6301ffc9a702145b92915050565b600080546040805160e060020a6302571be302815260048101879052905186933393600160a060020a0316926302571be39260248083019360209383900390910190829087803b1580156105d957600080fd5b505af11580156105ed573d6000803e3d6000fd5b505050506040513d602081101561060357600080fd5b5051600160a060020a03161461061857600080fd5b6000848152600160209081526040918290209151855185936005019287929182918401908083835b6020831061065f5780518252601f199092019160209182019101610640565b51815160209384036101000a600019018019909216911617905292019485525060405193849003810190932084516106a09591949190910192509050610fcc565b50826040518082805190602001908083835b602083106106d15780518252601f1990920191602091820191016106b2565b51815160209384036101000a60001901801990921691161790526040805192909401829003822081835289518383015289519096508a95507fd8c9334b1a9c2f9da342a0a2b32629c1a229b6445dad78947f674b44444a7550948a94508392908301919085019080838360005b8381101561075657818101518382015260200161073e565b50505050905090810190601f1680156107835780820380516001836020036101000a031916815260200191505b509250505060405180910390a350505050565b60008281526001602081905260409091206060905b83831161089557828416158015906107e45750600083815260068201602052604081205460026000196101006001841615020190911604115b1561088a57600083815260068201602090815260409182902080548351601f60026000196101006001861615020190931692909204918201849004840281018401909452808452909183018282801561087e5780601f106108535761010080835404028352916020019161087e565b820191906000526020600020905b81548152906001019060200180831161086157829003601f168201915b5050505050915061089a565b6002909202916107ab565b600092505b509250929050565b600080546040805160e060020a6302571be302815260048101879052905186933393600160a060020a0316926302571be39260248083019360209383900390910190829087803b1580156108f557600080fd5b505af1158015610909573d6000803e3d6000fd5b505050506040513d602081101561091f57600080fd5b5051600160a060020a03161461093457600080fd5b604080518082018252848152602080820185815260008881526001835284902092516003840155516004909201919091558151858152908101849052815186927f1d6f5e03d3f63eb58751986629a5439baee5079ff04f345becb66e23eb154e46928290030190a250505050565b6000908152600160208190526040909120015490565b600090815260016020526040902054600160a060020a031690565b600082815260016020908152604091829020915183516060936005019285929182918401908083835b60208310610a1b5780518252601f1990920191602091820191016109fc565b518151600019602094850361010090810a820192831692199390931691909117909252949092019687526040805197889003820188208054601f6002600183161590980290950116959095049283018290048202880182019052818752929450925050830182828015610acf5780601f10610aa457610100808354040283529160200191610acf565b820191906000526020600020905b815481529060010190602001808311610ab257829003601f168201915b5050505050905092915050565b600080546040805160e060020a6302571be302815260048101879052905186933393600160a060020a0316926302571be39260248083019360209383900390910190829087803b158015610b2f57600080fd5b505af1158015610b43573d6000803e3d6000fd5b505050506040513d6020811015610b5957600080fd5b5051600160a060020a031614610b6e57600080fd5b6000198301831615610b7f57600080fd5b600084815260016020908152604080832086845260060182529091208351610ba992850190610fcc565b50604051839085907faa121bbeef5f32f5961a2a28966e769023910fc9479059ee3495d4c1a696efe390600090a350505050565b6000818152600160208181526040928390206002908101805485516000199582161561010002959095011691909104601f81018390048302840183019094528383526060939091830182828015610c755780601f10610c4a57610100808354040283529160200191610c75565b820191906000526020600020905b815481529060010190602001808311610c5857829003601f168201915b50505050509050919050565b600080546040805160e060020a6302571be302815260048101869052905185933393600160a060020a0316926302571be39260248083019360209383900390910190829087803b158015610cd457600080fd5b505af1158015610ce8573d6000803e3d6000fd5b505050506040513d6020811015610cfe57600080fd5b5051600160a060020a031614610d1357600080fd5b60008381526001602090815260409091208351610d3892600290920191850190610fcc565b50604080516020808252845181830152845186937fb7d29e911041e8d9b843369e890bcb72c9388692ba48b65ac54e7214c4c348f79387939092839283019185019080838360005b83811015610d98578181015183820152602001610d80565b50505050905090810190601f168015610dc55780820380516001836020036101000a031916815260200191505b509250505060405180910390a2505050565b600080546040805160e060020a6302571be302815260048101869052905185933393600160a060020a0316926302571be39260248083019360209383900390910190829087803b158015610e2a57600080fd5b505af1158015610e3e573d6000803e3d6000fd5b505050506040513d6020811015610e5457600080fd5b5051600160a060020a031614610e6957600080fd5b6000838152600160208181526040928390209091018490558151848152915185927f0424b6fe0d9c3bdbece0e7879dc241bb0c22e900be8b6c168b4ee08bd9bf83bc92908290030190a2505050565b600090815260016020526040902060038101546004909101549091565b600080546040805160e060020a6302571be302815260048101869052905185933393600160a060020a0316926302571be39260248083019360209383900390910190829087803b158015610f2857600080fd5b505af1158015610f3c573d6000803e3d6000fd5b505050506040513d6020811015610f5257600080fd5b5051600160a060020a031614610f6757600080fd5b6000838152600160209081526040918290208054600160a060020a031916600160a060020a0386169081179091558251908152915185927f52d7d861f09ab3d26239d492e8968629f95e9e318cf0b73bfddc441522a15fd292908290030190a2505050565b828054600181600116156101000203166002900490600052602060002090601f016020900481019282601f1061100d57805160ff191683800117855561103a565b8280016001018555821561103a579182015b8281111561103a57825182559160200191906001019061101f565b5061104692915061104a565b5090565b61106491905b808211156110465760008155600101611050565b905600a165627a7a72305820fab1dbd2e4a4d827fb08aee346db2bb5a1c43e711cd9287c3fa6b63b8a24291b002993cdeb708b7545dc668eb9280176169d1c33cfd8ed6f04690a0bcc88a93fc4aefdd5d5de6dd63db72bbc2d487944ba13bf775b50a80805fe6fcaba9b0fba88f5a165627a7a72305820f21dc231d54316d9bebf98a93bcfff4809a8bea0804c6bcf9cc73774e0d2c4740029",
  "source": "pragma solidity 0.4.24;\n\nimport \"../lib/ens/ENS.sol\";\nimport \"../lib/ens/PublicResolver.sol\";\nimport \"../ens/ENSConstants.sol\";\n\n\n// WARNING: This is an incredibly trustful ENS deployment, do NOT use in production!\n// This contract is NOT meant to be deployed to a live network.\n// Its only purpose is to easily create ENS instances for testing aragonPM.\ncontract ENSFactory is ENSConstants {\n    event DeployENS(address ens);\n\n    /**\n    * @notice Create a new ENS and set `_owner` as the owner of the top level domain.\n    * @param _owner Owner of .eth\n    * @return ENS\n    */\n    function newENS(address _owner) public returns (ENS) {\n        ENS ens = new ENS();\n\n        // Setup .eth TLD\n        ens.setSubnodeOwner(ENS_ROOT, ETH_TLD_LABEL, this);\n\n        // Setup public resolver\n        PublicResolver resolver = new PublicResolver(ens);\n        ens.setSubnodeOwner(ETH_TLD_NODE, PUBLIC_RESOLVER_LABEL, this);\n        ens.setResolver(PUBLIC_RESOLVER_NODE, resolver);\n        resolver.setAddr(PUBLIC_RESOLVER_NODE, resolver);\n\n        ens.setOwner(ETH_TLD_NODE, _owner);\n        ens.setOwner(ENS_ROOT, _owner);\n\n        emit DeployENS(ens);\n\n        return ens;\n    }\n}\n",
  "sourcePath": "@aragon/os/contracts/factory/ENSFactory.sol",
  "compiler": {
    "name": "solc",
    "version": "0.4.24+commit.e67f0147.Emscripten.clang"
  },
  "schemaVersion": "3.4.2",
  "updatedAt": "2021-10-14T14:14:04.292Z",
  "devdoc": {
    "methods": {
      "newENS(address)": {
        "params": {
          "_owner": "Owner of .eth"
        },
        "return": "ENS"
      }
    }
  },
  "userdoc": {
    "methods": {
      "newENS(address)": {
        "notice": "Create a new ENS and set `_owner` as the owner of the top level domain."
      }
    }
  }
}