{
  "contractName": "ENSSubdomainRegistrar",
  "abi": [
    {
      "constant": true,
      "inputs": [],
      "name": "hasInitialized",
      "outputs": [
        {
          "name": "",
          "type": "bool"
        }
      ],
      "payable": false,
      "stateMutability": "view",
      "type": "function"
    },
    {
      "constant": true,
      "inputs": [
        {
          "name": "_script",
          "type": "bytes"
        }
      ],
      "name": "getEVMScriptExecutor",
      "outputs": [
        {
          "name": "",
          "type": "address"
        }
      ],
      "payable": false,
      "stateMutability": "view",
      "type": "function"
    },
    {
      "constant": true,
      "inputs": [],
      "name": "POINT_ROOTNODE_ROLE",
      "outputs": [
        {
          "name": "",
          "type": "bytes32"
        }
      ],
      "payable": false,
      "stateMutability": "view",
      "type": "function"
    },
    {
      "constant": true,
      "inputs": [],
      "name": "getRecoveryVault",
      "outputs": [
        {
          "name": "",
          "type": "address"
        }
      ],
      "payable": false,
      "stateMutability": "view",
      "type": "function"
    },
    {
      "constant": true,
      "inputs": [],
      "name": "ens",
      "outputs": [
        {
          "name": "",
          "type": "address"
        }
      ],
      "payable": false,
      "stateMutability": "view",
      "type": "function"
    },
    {
      "constant": true,
      "inputs": [
        {
          "name": "token",
          "type": "address"
        }
      ],
      "name": "allowRecoverability",
      "outputs": [
        {
          "name": "",
          "type": "bool"
        }
      ],
      "payable": false,
      "stateMutability": "view",
      "type": "function"
    },
    {
      "constant": true,
      "inputs": [],
      "name": "appId",
      "outputs": [
        {
          "name": "",
          "type": "bytes32"
        }
      ],
      "payable": false,
      "stateMutability": "view",
      "type": "function"
    },
    {
      "constant": true,
      "inputs": [],
      "name": "getInitializationBlock",
      "outputs": [
        {
          "name": "",
          "type": "uint256"
        }
      ],
      "payable": false,
      "stateMutability": "view",
      "type": "function"
    },
    {
      "constant": false,
      "inputs": [
        {
          "name": "_token",
          "type": "address"
        }
      ],
      "name": "transferToVault",
      "outputs": [],
      "payable": false,
      "stateMutability": "nonpayable",
      "type": "function"
    },
    {
      "constant": true,
      "inputs": [
        {
          "name": "_sender",
          "type": "address"
        },
        {
          "name": "_role",
          "type": "bytes32"
        },
        {
          "name": "_params",
          "type": "uint256[]"
        }
      ],
      "name": "canPerform",
      "outputs": [
        {
          "name": "",
          "type": "bool"
        }
      ],
      "payable": false,
      "stateMutability": "view",
      "type": "function"
    },
    {
      "constant": true,
      "inputs": [],
      "name": "getEVMScriptRegistry",
      "outputs": [
        {
          "name": "",
          "type": "address"
        }
      ],
      "payable": false,
      "stateMutability": "view",
      "type": "function"
    },
    {
      "constant": true,
      "inputs": [],
      "name": "DELETE_NAME_ROLE",
      "outputs": [
        {
          "name": "",
          "type": "bytes32"
        }
      ],
      "payable": false,
      "stateMutability": "view",
      "type": "function"
    },
    {
      "constant": true,
      "inputs": [],
      "name": "kernel",
      "outputs": [
        {
          "name": "",
          "type": "address"
        }
      ],
      "payable": false,
      "stateMutability": "view",
      "type": "function"
    },
    {
      "constant": true,
      "inputs": [],
      "name": "isPetrified",
      "outputs": [
        {
          "name": "",
          "type": "bool"
        }
      ],
      "payable": false,
      "stateMutability": "view",
      "type": "function"
    },
    {
      "constant": true,
      "inputs": [],
      "name": "rootNode",
      "outputs": [
        {
          "name": "",
          "type": "bytes32"
        }
      ],
      "payable": false,
      "stateMutability": "view",
      "type": "function"
    },
    {
      "constant": true,
      "inputs": [],
      "name": "CREATE_NAME_ROLE",
      "outputs": [
        {
          "name": "",
          "type": "bytes32"
        }
      ],
      "payable": false,
      "stateMutability": "view",
      "type": "function"
    },
    {
      "anonymous": false,
      "inputs": [
        {
          "indexed": true,
          "name": "node",
          "type": "bytes32"
        },
        {
          "indexed": true,
          "name": "label",
          "type": "bytes32"
        }
      ],
      "name": "NewName",
      "type": "event"
    },
    {
      "anonymous": false,
      "inputs": [
        {
          "indexed": true,
          "name": "node",
          "type": "bytes32"
        },
        {
          "indexed": true,
          "name": "label",
          "type": "bytes32"
        }
      ],
      "name": "DeleteName",
      "type": "event"
    },
    {
      "anonymous": false,
      "inputs": [
        {
          "indexed": true,
          "name": "executor",
          "type": "address"
        },
        {
          "indexed": false,
          "name": "script",
          "type": "bytes"
        },
        {
          "indexed": false,
          "name": "input",
          "type": "bytes"
        },
        {
          "indexed": false,
          "name": "returnData",
          "type": "bytes"
        }
      ],
      "name": "ScriptResult",
      "type": "event"
    },
    {
      "anonymous": false,
      "inputs": [
        {
          "indexed": true,
          "name": "vault",
          "type": "address"
        },
        {
          "indexed": true,
          "name": "token",
          "type": "address"
        },
        {
          "indexed": false,
          "name": "amount",
          "type": "uint256"
        }
      ],
      "name": "RecoverToVault",
      "type": "event"
    },
    {
      "constant": false,
      "inputs": [
        {
          "name": "_ens",
          "type": "address"
        },
        {
          "name": "_rootNode",
          "type": "bytes32"
        }
      ],
      "name": "initialize",
      "outputs": [],
      "payable": false,
      "stateMutability": "nonpayable",
      "type": "function"
    },
    {
      "constant": false,
      "inputs": [
        {
          "name": "_label",
          "type": "bytes32"
        },
        {
          "name": "_owner",
          "type": "address"
        }
      ],
      "name": "createName",
      "outputs": [
        {
          "name": "node",
          "type": "bytes32"
        }
      ],
      "payable": false,
      "stateMutability": "nonpayable",
      "type": "function"
    },
    {
      "constant": false,
      "inputs": [
        {
          "name": "_label",
          "type": "bytes32"
        },
        {
          "name": "_target",
          "type": "address"
        }
      ],
      "name": "createNameAndPoint",
      "outputs": [
        {
          "name": "node",
          "type": "bytes32"
        }
      ],
      "payable": false,
      "stateMutability": "nonpayable",
      "type": "function"
    },
    {
      "constant": false,
      "inputs": [
        {
          "name": "_label",
          "type": "bytes32"
        }
      ],
      "name": "deleteName",
      "outputs": [],
      "payable": false,
      "stateMutability": "nonpayable",
      "type": "function"
    },
    {
      "constant": false,
      "inputs": [
        {
          "name": "_target",
          "type": "address"
        }
      ],
      "name": "pointRootNode",
      "outputs": [],
      "payable": false,
      "stateMutability": "nonpayable",
      "type": "function"
    }
  ],
  "bytecode": "0x6080604052620000176401000000006200001d810204565b6200023b565b6200003064010000000062000125810204565b60408051808201909152601881527f494e49545f414c52454144595f494e495449414c495a45440000000000000000602082015290156200010c576040517f08c379a00000000000000000000000000000000000000000000000000000000081526004018080602001828103825283818151815260200191508051906020019080838360005b83811015620000d0578181015183820152602001620000b6565b50505050905090810190601f168015620000fe5780820380516001836020036101000a031916815260200191505b509250505060405180910390fd5b506200012360001964010000000062000154810204565b565b60006200014f60008051602062001c63833981519152640100000000620015126200023382021704565b905090565b6200016764010000000062000125810204565b60408051808201909152601881527f494e49545f414c52454144595f494e495449414c495a454400000000000000006020820152901562000206576040517f08c379a000000000000000000000000000000000000000000000000000000000815260040180806020018281038252838181518152602001915080519060200190808383600083811015620000d0578181015183820152602001620000b6565b506200023060008051602062001c6383398151915282640100000000620019486200023782021704565b50565b5490565b9055565b611a18806200024b6000396000f3006080604052600436106101035763ffffffff60e060020a6000350416630803fac081146101085780632914b9bd14610131578063307482cf146101a657806332f0a3b5146101cd5780633f15457f146101e257806365b0bc85146101f75780636b62cb1b1461021b5780637e7db6e11461023f57806380afdea8146102605780638b3dd749146102755780639d4941d81461028a578063a1658fad146102ad578063a479e50814610314578063bdbf7d4c14610329578063be13f47c1461033e578063d4aae0c414610362578063db60693114610377578063dc371e5414610398578063de4796ed146103b0578063faff50a8146103c5578063fef47e38146103da575b600080fd5b34801561011457600080fd5b5061011d6103ef565b604080519115158252519081900360200190f35b34801561013d57600080fd5b506040805160206004803580820135601f810184900484028501840190955284845261018a9436949293602493928401919081908401838280828437509497506104189650505050505050565b60408051600160a060020a039092168252519081900360200190f35b3480156101b257600080fd5b506101bb6104fe565b60408051918252519081900360200190f35b3480156101d957600080fd5b5061018a610510565b3480156101ee57600080fd5b5061018a610588565b34801561020357600080fd5b506101bb600435600160a060020a0360243516610597565b34801561022757600080fd5b506101bb600435600160a060020a036024351661069c565b34801561024b57600080fd5b5061011d600160a060020a0360043516610758565b34801561026c57600080fd5b506101bb61075e565b34801561028157600080fd5b506101bb61078e565b34801561029657600080fd5b506102ab600160a060020a03600435166107a7565b005b3480156102b957600080fd5b50604080516020600460443581810135838102808601850190965280855261011d958335600160a060020a0316956024803596369695606495939492019291829185019084908082843750949750610a2e9650505050505050565b34801561032057600080fd5b5061018a610b7e565b34801561033557600080fd5b506101bb610c1d565b34801561034a57600080fd5b506102ab600160a060020a0360043516602435610c2f565b34801561036e57600080fd5b5061018a610de5565b34801561038357600080fd5b506102ab600160a060020a0360043516610e10565b3480156103a457600080fd5b506102ab600435610eca565b3480156103bc57600080fd5b5061011d61121a565b3480156103d157600080fd5b506101bb61122d565b3480156103e657600080fd5b506101bb611233565b6000806103fa61078e565b9050801580159061041257508061040f611245565b10155b91505090565b6000610422610b7e565b600160a060020a03166304bf2a7f836040518263ffffffff1660e060020a0281526004018080602001828103825283818151815260200191508051906020019080838360005b83811015610480578181015183820152602001610468565b50505050905090810190601f1680156104ad5780820380516001836020036101000a031916815260200191505b5092505050602060405180830381600087803b1580156104cc57600080fd5b505af11580156104e0573d6000803e3d6000fd5b505050506040513d60208110156104f657600080fd5b505192915050565b6000805160206119ad83398151915281565b600061051a610de5565b600160a060020a03166332f0a3b56040518163ffffffff1660e060020a028152600401602060405180830381600087803b15801561055757600080fd5b505af115801561056b573d6000803e3d6000fd5b505050506040513d602081101561058157600080fd5b5051905090565b600054600160a060020a031681565b6040805160008082526020820190925260008051602061194d833981519152906105c79033908390855b50610a2e565b60408051808201909152600f8152608a60020a6e10541417d055551217d1905253115102602082015290151561067e5760405160e560020a62461bcd0281526004018080602001828103825283818151815260200191508051906020019080838360005b8381101561064357818101518382015260200161062b565b50505050905090810190601f1680156106705780820380516001836020036101000a031916815260200191505b509250505060405180910390fd5b506106898430611249565b91506106958284611406565b5092915050565b6040805160008082526020820190925260008051602061194d833981519152906106ca9033908390856105c1565b60408051808201909152600f8152608a60020a6e10541417d055551217d190525311510260208201529015156107455760405160e560020a62461bcd0281526004018080602001828103825283818151815260200191508051906020019080838360008381101561064357818101518382015260200161062b565b506107508484611249565b949350505050565b50600190565b60006107897fd625496217aa6a3453eecb9c3489dc5a53e6c67b444329ea2b2cbc9ff547639b611512565b905090565b600061078960008051602061196d833981519152611512565b60008060006107b584610758565b6040805180820190915260128152607260020a71149150d3d5915497d11254d0531313d5d1510260208201529015156108335760405160e560020a62461bcd0281526004018080602001828103825283818151815260200191508051906020019080838360008381101561064357818101518382015260200161062b565b5061083c610510565b92506108478361151a565b60408051808201909152601a81527f5245434f5645525f5641554c545f4e4f545f434f4e545241435400000000000060208201529015156108cd5760405160e560020a62461bcd0281526004018080602001828103825283818151815260200191508051906020019080838360008381101561064357818101518382015260200161062b565b50600160a060020a038416151561091e5760405130319250600160a060020a0384169083156108fc029084906000818181858888f19350505050158015610918573d6000803e3d6000fd5b506109dd565b5082610939600160a060020a0382163063ffffffff61154716565b9150610955600160a060020a038216848463ffffffff61163116565b60408051808201909152601d81527f5245434f5645525f544f4b454e5f5452414e534645525f4641494c454400000060208201529015156109db5760405160e560020a62461bcd0281526004018080602001828103825283818151815260200191508051906020019080838360008381101561064357818101518382015260200161062b565b505b83600160a060020a031683600160a060020a03167f596caf56044b55fb8c4ca640089bbc2b63cae3e978b851f5745cbb7c5b288e02846040518082815260200191505060405180910390a350505050565b600080610a396103ef565b1515610a485760009150610b76565b610a50610de5565b9050600160a060020a0381161515610a6b5760009150610b76565b80600160a060020a031663fdef9106863087610a8688611691565b60405160e060020a63ffffffff8716028152600160a060020a03808616600483019081529085166024830152604482018490526080606483019081528351608484015283519192909160a490910190602085019080838360005b83811015610af8578181015183820152602001610ae0565b50505050905090810190601f168015610b255780820380516001836020036101000a031916815260200191505b5095505050505050602060405180830381600087803b158015610b4757600080fd5b505af1158015610b5b573d6000803e3d6000fd5b505050506040513d6020811015610b7157600080fd5b505191505b509392505050565b600080610b89610de5565b6040805160e360020a6317c0177b0281527fd6f028ca0e8edb4a8c9757ca4fdccab25fa1e0317da1188108f7d2dee14902fb60048201527fddbcfd564f642ab5627cf68b9b7d374fb4f8a36e941a75d89c87998cef03bd6160248201529051600160a060020a03929092169163be00bbd8916044808201926020929091908290030181600087803b1580156104cc57600080fd5b6000805160206119cd83398151915281565b610c3761078e565b604080518082019091526018815260008051602061198d83398151915260208201529015610caa5760405160e560020a62461bcd0281526004018080602001828103825283818151815260200191508051906020019080838360008381101561064357818101518382015260200161062b565b50610cb361169b565b6040805160e060020a6302571be30281526004810183905290513091600160a060020a038516916302571be3916024808201926020929091908290030181600087803b158015610d0257600080fd5b505af1158015610d16573d6000803e3d6000fd5b505050506040513d6020811015610d2c57600080fd5b505160408051808201909152601881527f454e535355425f4e4f5f4e4f44455f4f574e4552534849500000000000000000602082015291600160a060020a0390911614610dbe5760405160e560020a62461bcd0281526004018080602001828103825283818151815260200191508051906020019080838360008381101561064357818101518382015260200161062b565b5060008054600160a060020a031916600160a060020a039390931692909217909155600155565b60006107897f4172f0f7d2289153072b0a6ca36959e0cbe2efc3afe50fc81636caa96338137b611512565b604080516000808252602082019092526000805160206119ad83398151915291610e3e9133918491906105c1565b60408051808201909152600f8152608a60020a6e10541417d055551217d19052531151026020820152901515610eb95760405160e560020a62461bcd0281526004018080602001828103825283818151815260200191508051906020019080838360008381101561064357818101518382015260200161062b565b50610ec660015483611406565b5050565b6040805160008082526020820190925281906000805160206119cd83398151915290610efa9033908390856105c1565b60408051808201909152600f8152608a60020a6e10541417d055551217d19052531151026020820152901515610f755760405160e560020a62461bcd0281526004018080602001828103825283818151815260200191508051906020019080838360008381101561064357818101518382015260200161062b565b50610f7f8461173f565b600080546040805160e060020a6302571be3028152600481018590529051939650600160a060020a03909116926302571be392602480840193602093929083900390910190829087803b158015610fd557600080fd5b505af1158015610fe9573d6000803e3d6000fd5b505050506040513d6020811015610fff57600080fd5b50516040805180820190915260138152606a60020a72115394d4d55097d113d154d39517d1561254d5026020820152909250600160a060020a038316151561108c5760405160e560020a62461bcd0281526004018080602001828103825283818151815260200191508051906020019080838360008381101561064357818101518382015260200161062b565b50600160a060020a038216301461111157600080546001546040805160e060020a6306ab592302815260048101929092526024820188905230604483015251600160a060020a03909216926306ab59239260648084019382900301818387803b1580156110f857600080fd5b505af115801561110c573d6000803e3d6000fd5b505050505b600080546040805160e160020a630c4b7b8502815260048101879052602481018490529051600160a060020a0390921692631896f70a9260448084019382900301818387803b15801561116357600080fd5b505af1158015611177573d6000803e3d6000fd5b5050600080546040805160e060020a635b0fc9c302815260048101899052602481018490529051600160a060020a039092169450635b0fc9c39350604480820193929182900301818387803b1580156111cf57600080fd5b505af11580156111e3573d6000803e3d6000fd5b50506040518692508591507f49a4cd9bb38e10e402c44a680c5e13f710666ed683cb9cbbc131f7dc9f8b9d6090600090a350505050565b600060001961122761078e565b14905090565b60015481565b60008051602061194d83398151915281565b4390565b60006112548361173f565b600080546040805160e060020a6302571be30281526004810185905290519394509192600160a060020a03909116916302571be391602480830192602092919082900301818787803b1580156112a957600080fd5b505af11580156112bd573d6000803e3d6000fd5b505050506040513d60208110156112d357600080fd5b50516040805180820190915260128152607060020a71454e535355425f4e414d455f45584953545302602082015291600160a060020a039091161461135d5760405160e560020a62461bcd0281526004018080602001828103825283818151815260200191508051906020019080838360008381101561064357818101518382015260200161062b565b50600080546001546040805160e060020a6306ab5923028152600481019290925260248201879052600160a060020a03868116604484015290519216926306ab59239260648084019382900301818387803b1580156113bb57600080fd5b505af11580156113cf573d6000803e3d6000fd5b50506040518592508391507f8f858576a6066f5ecb4d2f49d40fac9db317ff8d5f7610d58b616b657d7044cf90600090a392915050565b60006114317ffdd5d5de6dd63db72bbc2d487944ba13bf775b50a80805fe6fcaba9b0fba88f56117ca565b600080546040805160e160020a630c4b7b8502815260048101889052600160a060020a0380861660248301529151949550911692631896f70a9260448084019391929182900301818387803b15801561148957600080fd5b505af115801561149d573d6000803e3d6000fd5b50506040805160e860020a62d5fa2b02815260048101879052600160a060020a0386811660248301529151918516935063d5fa2b00925060448082019260009290919082900301818387803b1580156114f557600080fd5b505af1158015611509573d6000803e3d6000fd5b50505050505050565b5490565b5490565b600080600160a060020a03831615156115365760009150611541565b823b90506000811191505b50919050565b60408051600160a060020a038316602480830191909152825180830390910181526044909101909152602081018051600160e060020a031660e060020a6370a0823102179052600090818061159c86846118c9565b60408051808201909152601c81527f534146455f4552435f32305f42414c414e43455f524556455254454400000000602082015291935091508215156116275760405160e560020a62461bcd0281526004018080602001828103825283818151815260200191508051906020019080838360008381101561064357818101518382015260200161062b565b5095945050505050565b60408051600160a060020a03841660248201526044808201849052825180830390910181526064909101909152602081018051600160e060020a031660e060020a63a9059cbb0217905260009061168885826118fa565b95945050505050565b8051602002815290565b6116a361078e565b604080518082019091526018815260008051602061198d833981519152602082015290156117165760405160e560020a62461bcd0281526004018080602001828103825283818151815260200191508051906020019080838360008381101561064357818101518382015260200161062b565b5061173d611722611245565b60008051602061196d8339815191529063ffffffff61194816565b565b6001546040805160208082019390935280820184905281518082038301815260609091019182905280516000939192918291908401908083835b602083106117985780518252601f199092019160209182019101611779565b5181516020939093036101000a6000190180199091169216919091179052604051920182900390912095945050505050565b600080546040805160e060020a630178b8bf0281526004810185905290518392600160a060020a031691630178b8bf91602480830192602092919082900301818787803b15801561181a57600080fd5b505af115801561182e573d6000803e3d6000fd5b505050506040513d602081101561184457600080fd5b50516040805160e160020a631d9dabef028152600481018690529051919250600160a060020a03831691633b3b57de916024808201926020929091908290030181600087803b15801561189657600080fd5b505af11580156118aa573d6000803e3d6000fd5b505050506040513d60208110156118c057600080fd5b50519392505050565b6000806000806040516020818751602089018a5afa925060008311156118ee57805191505b50909590945092505050565b6000806040516020818551602087016000895af1600081111561193e573d801561192b57602081146119345761193c565b6001935061193c565b600183511493505b505b5090949350505050565b90555600f86bc2abe0919ab91ef714b2bec7c148d94f61fdb069b91a6cfe9ecdee1799baebb05b386a8d34882b8711d156f463690983dc47815980fb82aeeff1aa43579e494e49545f414c52454144595f494e495449414c495a454400000000000000009ecd0e7bddb2e241c41b595a436c4ea4fd33c9fa0caa8056acf084fc3aa3bfbe03d74c8724218ad4a99859bcb2d846d39999449fd18013dd8d69096627e68622a165627a7a72305820a19324ec28866e05c6917cac231cacf034d7662f9a381e05668270806936ede20029ebb05b386a8d34882b8711d156f463690983dc47815980fb82aeeff1aa43579e",
  "source": "pragma solidity 0.4.24;\n\nimport \"../lib/ens/AbstractENS.sol\";\nimport \"../lib/ens/PublicResolver.sol\";\nimport \"./ENSConstants.sol\";\n\nimport \"../apps/AragonApp.sol\";\n\n\n/* solium-disable function-order */\n// Allow public initialize() to be first\ncontract ENSSubdomainRegistrar is AragonApp, ENSConstants {\n    /* Hardcoded constants to save gas\n    bytes32 public constant CREATE_NAME_ROLE = keccak256(\"CREATE_NAME_ROLE\");\n    bytes32 public constant DELETE_NAME_ROLE = keccak256(\"DELETE_NAME_ROLE\");\n    bytes32 public constant POINT_ROOTNODE_ROLE = keccak256(\"POINT_ROOTNODE_ROLE\");\n    */\n    bytes32 public constant CREATE_NAME_ROLE = 0xf86bc2abe0919ab91ef714b2bec7c148d94f61fdb069b91a6cfe9ecdee1799ba;\n    bytes32 public constant DELETE_NAME_ROLE = 0x03d74c8724218ad4a99859bcb2d846d39999449fd18013dd8d69096627e68622;\n    bytes32 public constant POINT_ROOTNODE_ROLE = 0x9ecd0e7bddb2e241c41b595a436c4ea4fd33c9fa0caa8056acf084fc3aa3bfbe;\n\n    string private constant ERROR_NO_NODE_OWNERSHIP = \"ENSSUB_NO_NODE_OWNERSHIP\";\n    string private constant ERROR_NAME_EXISTS = \"ENSSUB_NAME_EXISTS\";\n    string private constant ERROR_NAME_DOESNT_EXIST = \"ENSSUB_DOESNT_EXIST\";\n\n    AbstractENS public ens;\n    bytes32 public rootNode;\n\n    event NewName(bytes32 indexed node, bytes32 indexed label);\n    event DeleteName(bytes32 indexed node, bytes32 indexed label);\n\n    /**\n    * @dev Initialize can only be called once. It saves the block number in which it was initialized. This contract must be the owner of the `_rootNode` node so that it can create subdomains.\n    * @notice Initialize this ENSSubdomainRegistrar instance with `_ens` as the root ENS registry and `_rootNode` as the node to allocate subdomains under\n    * @param _ens Address of ENS registry\n    * @param _rootNode Node to allocate subdomains under\n    */\n    function initialize(AbstractENS _ens, bytes32 _rootNode) public onlyInit {\n        initialized();\n\n        // We need ownership to create subnodes\n        require(_ens.owner(_rootNode) == address(this), ERROR_NO_NODE_OWNERSHIP);\n\n        ens = _ens;\n        rootNode = _rootNode;\n    }\n\n    /**\n    * @notice Create a new ENS subdomain record for `_label` and assign ownership to `_owner`\n    * @param _label Label of new subdomain\n    * @param _owner Owner of new subdomain\n    * @return node Hash of created node\n    */\n    function createName(bytes32 _label, address _owner) external auth(CREATE_NAME_ROLE) returns (bytes32 node) {\n        return _createName(_label, _owner);\n    }\n\n    /**\n    * @notice Create a new ENS subdomain record for `_label` that resolves to `_target` and is owned by this ENSSubdomainRegistrar\n    * @param _label Label of new subdomain\n    * @param _target Ethereum address this new subdomain label will point to\n    * @return node Hash of created node\n    */\n    function createNameAndPoint(bytes32 _label, address _target) external auth(CREATE_NAME_ROLE) returns (bytes32 node) {\n        node = _createName(_label, this);\n        _pointToResolverAndResolve(node, _target);\n    }\n\n    /**\n    * @notice Deregister ENS subdomain record for `_label`\n    * @param _label Label of subdomain to deregister\n    */\n    function deleteName(bytes32 _label) external auth(DELETE_NAME_ROLE) {\n        bytes32 node = getNodeForLabel(_label);\n\n        address currentOwner = ens.owner(node);\n\n        require(currentOwner != address(0), ERROR_NAME_DOESNT_EXIST); // fail if deleting unset name\n\n        if (currentOwner != address(this)) { // needs to reclaim ownership so it can set resolver\n            ens.setSubnodeOwner(rootNode, _label, this);\n        }\n\n        ens.setResolver(node, address(0)); // remove resolver so it ends resolving\n        ens.setOwner(node, address(0));\n\n        emit DeleteName(node, _label);\n    }\n\n    /**\n    * @notice Resolve this ENSSubdomainRegistrar's root node to `_target`\n    * @param _target Ethereum address root node will point to\n    */\n    function pointRootNode(address _target) external auth(POINT_ROOTNODE_ROLE) {\n        _pointToResolverAndResolve(rootNode, _target);\n    }\n\n    function _createName(bytes32 _label, address _owner) internal returns (bytes32 node) {\n        node = getNodeForLabel(_label);\n        require(ens.owner(node) == address(0), ERROR_NAME_EXISTS); // avoid name reset\n\n        ens.setSubnodeOwner(rootNode, _label, _owner);\n\n        emit NewName(node, _label);\n\n        return node;\n    }\n\n    function _pointToResolverAndResolve(bytes32 _node, address _target) internal {\n        address publicResolver = getAddr(PUBLIC_RESOLVER_NODE);\n        ens.setResolver(_node, publicResolver);\n\n        PublicResolver(publicResolver).setAddr(_node, _target);\n    }\n\n    function getAddr(bytes32 node) internal view returns (address) {\n        address resolver = ens.resolver(node);\n        return PublicResolver(resolver).addr(node);\n    }\n\n    function getNodeForLabel(bytes32 _label) internal view returns (bytes32) {\n        return keccak256(abi.encodePacked(rootNode, _label));\n    }\n}\n",
  "sourcePath": "@aragon/os/contracts/ens/ENSSubdomainRegistrar.sol",
  "compiler": {
    "name": "solc",
    "version": "0.4.24+commit.e67f0147.Emscripten.clang"
  },
  "schemaVersion": "3.4.2",
  "updatedAt": "2021-10-14T14:14:04.226Z",
  "devdoc": {
    "methods": {
      "allowRecoverability(address)": {
        "details": "By default deriving from AragonApp makes it recoverable",
        "params": {
          "token": "Token address that would be recovered"
        },
        "return": "bool whether the app allows the recovery"
      },
      "canPerform(address,bytes32,uint256[])": {
        "details": "Check whether an action can be performed by a sender for a particular role on this app",
        "params": {
          "_params": "Permission params for the role",
          "_role": "Role on this app",
          "_sender": "Sender of the call"
        },
        "return": "Boolean indicating whether the sender has the permissions to perform the action.        Always returns false if the app hasn't been initialized yet."
      },
      "createName(bytes32,address)": {
        "params": {
          "_label": "Label of new subdomain",
          "_owner": "Owner of new subdomain"
        },
        "return": "node Hash of created node"
      },
      "createNameAndPoint(bytes32,address)": {
        "params": {
          "_label": "Label of new subdomain",
          "_target": "Ethereum address this new subdomain label will point to"
        },
        "return": "node Hash of created node"
      },
      "deleteName(bytes32)": {
        "params": {
          "_label": "Label of subdomain to deregister"
        }
      },
      "getInitializationBlock()": {
        "return": "Block number in which the contract was initialized"
      },
      "getRecoveryVault()": {
        "details": "Get the recovery vault for the app",
        "return": "Recovery vault address for the app"
      },
      "hasInitialized()": {
        "return": "Whether the contract has been initialized by the time of the current block"
      },
      "initialize(address,bytes32)": {
        "details": "Initialize can only be called once. It saves the block number in which it was initialized. This contract must be the owner of the `_rootNode` node so that it can create subdomains.",
        "params": {
          "_ens": "Address of ENS registry",
          "_rootNode": "Node to allocate subdomains under"
        }
      },
      "pointRootNode(address)": {
        "params": {
          "_target": "Ethereum address root node will point to"
        }
      },
      "transferToVault(address)": {
        "params": {
          "_token": "Token balance to be sent to recovery vault."
        }
      }
    }
  },
  "userdoc": {
    "methods": {
      "createName(bytes32,address)": {
        "notice": "Create a new ENS subdomain record for `_label` and assign ownership to `_owner`"
      },
      "createNameAndPoint(bytes32,address)": {
        "notice": "Create a new ENS subdomain record for `_label` that resolves to `_target` and is owned by this ENSSubdomainRegistrar"
      },
      "deleteName(bytes32)": {
        "notice": "Deregister ENS subdomain record for `_label`"
      },
      "initialize(address,bytes32)": {
        "notice": "Initialize this ENSSubdomainRegistrar instance with `_ens` as the root ENS registry and `_rootNode` as the node to allocate subdomains under"
      },
      "pointRootNode(address)": {
        "notice": "Resolve this ENSSubdomainRegistrar's root node to `_target`"
      },
      "transferToVault(address)": {
        "notice": "Send funds to recovery Vault. This contract should never receive funds,        but in case it does, this function allows one to recover them."
      }
    }
  }
}