{
  "contractName": "EVMScriptRunner",
  "abi": [
    {
      "constant": true,
      "inputs": [],
      "name": "hasInitialized",
      "outputs": [
        {
          "name": "",
          "type": "bool"
        }
      ],
      "payable": false,
      "stateMutability": "view",
      "type": "function"
    },
    {
      "constant": true,
      "inputs": [],
      "name": "appId",
      "outputs": [
        {
          "name": "",
          "type": "bytes32"
        }
      ],
      "payable": false,
      "stateMutability": "view",
      "type": "function"
    },
    {
      "constant": true,
      "inputs": [],
      "name": "getInitializationBlock",
      "outputs": [
        {
          "name": "",
          "type": "uint256"
        }
      ],
      "payable": false,
      "stateMutability": "view",
      "type": "function"
    },
    {
      "constant": true,
      "inputs": [],
      "name": "kernel",
      "outputs": [
        {
          "name": "",
          "type": "address"
        }
      ],
      "payable": false,
      "stateMutability": "view",
      "type": "function"
    },
    {
      "anonymous": false,
      "inputs": [
        {
          "indexed": true,
          "name": "executor",
          "type": "address"
        },
        {
          "indexed": false,
          "name": "script",
          "type": "bytes"
        },
        {
          "indexed": false,
          "name": "input",
          "type": "bytes"
        },
        {
          "indexed": false,
          "name": "returnData",
          "type": "bytes"
        }
      ],
      "name": "ScriptResult",
      "type": "event"
    },
    {
      "constant": true,
      "inputs": [
        {
          "name": "_script",
          "type": "bytes"
        }
      ],
      "name": "getEVMScriptExecutor",
      "outputs": [
        {
          "name": "",
          "type": "address"
        }
      ],
      "payable": false,
      "stateMutability": "view",
      "type": "function"
    },
    {
      "constant": true,
      "inputs": [],
      "name": "getEVMScriptRegistry",
      "outputs": [
        {
          "name": "",
          "type": "address"
        }
      ],
      "payable": false,
      "stateMutability": "view",
      "type": "function"
    }
  ],
  "bytecode": "0x608060405234801561001057600080fd5b506103cf806100206000396000f30060806040526004361061005e5763ffffffff60e060020a6000350416630803fac081146100635780632914b9bd1461008c57806380afdea8146101015780638b3dd74914610128578063a479e5081461013d578063d4aae0c414610152575b600080fd5b34801561006f57600080fd5b50610078610167565b604080519115158252519081900360200190f35b34801561009857600080fd5b506040805160206004803580820135601f81018490048402850184019095528484526100e59436949293602493928401919081908401838280828437509497506101909650505050505050565b60408051600160a060020a039092168252519081900360200190f35b34801561010d57600080fd5b50610116610276565b60408051918252519081900360200190f35b34801561013457600080fd5b506101166102a6565b34801561014957600080fd5b506100e56102d1565b34801561015e57600080fd5b506100e5610370565b6000806101726102a6565b9050801580159061018a57508061018761039b565b10155b91505090565b600061019a6102d1565b600160a060020a03166304bf2a7f836040518263ffffffff1660e060020a0281526004018080602001828103825283818151815260200191508051906020019080838360005b838110156101f85781810151838201526020016101e0565b50505050905090810190601f1680156102255780820380516001836020036101000a031916815260200191505b5092505050602060405180830381600087803b15801561024457600080fd5b505af1158015610258573d6000803e3d6000fd5b505050506040513d602081101561026e57600080fd5b505192915050565b60006102a17fd625496217aa6a3453eecb9c3489dc5a53e6c67b444329ea2b2cbc9ff547639b61039f565b905090565b60006102a17febb05b386a8d34882b8711d156f463690983dc47815980fb82aeeff1aa43579e61039f565b6000806102dc610370565b6040805160e360020a6317c0177b0281527fd6f028ca0e8edb4a8c9757ca4fdccab25fa1e0317da1188108f7d2dee14902fb60048201527fddbcfd564f642ab5627cf68b9b7d374fb4f8a36e941a75d89c87998cef03bd6160248201529051600160a060020a03929092169163be00bbd8916044808201926020929091908290030181600087803b15801561024457600080fd5b60006102a17f4172f0f7d2289153072b0a6ca36959e0cbe2efc3afe50fc81636caa96338137b61039f565b4390565b54905600a165627a7a72305820f5c4fcc21fdc951f8cae37d83363453b22d32466953b80db7313b118a212498a0029",
  "source": "/*\n * SPDX-License-Identitifer:    MIT\n */\n\npragma solidity ^0.4.24;\n\nimport \"./IEVMScriptExecutor.sol\";\nimport \"./IEVMScriptRegistry.sol\";\n\nimport \"../apps/AppStorage.sol\";\nimport \"../kernel/KernelConstants.sol\";\nimport \"../common/Initializable.sol\";\n\n\ncontract EVMScriptRunner is AppStorage, Initializable, EVMScriptRegistryConstants, KernelNamespaceConstants {\n    string private constant ERROR_EXECUTOR_UNAVAILABLE = \"EVMRUN_EXECUTOR_UNAVAILABLE\";\n    string private constant ERROR_PROTECTED_STATE_MODIFIED = \"EVMRUN_PROTECTED_STATE_MODIFIED\";\n\n    /* This is manually crafted in assembly\n    string private constant ERROR_EXECUTOR_INVALID_RETURN = \"EVMRUN_EXECUTOR_INVALID_RETURN\";\n    */\n\n    event ScriptResult(address indexed executor, bytes script, bytes input, bytes returnData);\n\n    function getEVMScriptExecutor(bytes _script) public view returns (IEVMScriptExecutor) {\n        return IEVMScriptExecutor(getEVMScriptRegistry().getScriptExecutor(_script));\n    }\n\n    function getEVMScriptRegistry() public view returns (IEVMScriptRegistry) {\n        address registryAddr = kernel().getApp(KERNEL_APP_ADDR_NAMESPACE, EVMSCRIPT_REGISTRY_APP_ID);\n        return IEVMScriptRegistry(registryAddr);\n    }\n\n    function runScript(bytes _script, bytes _input, address[] _blacklist)\n        internal\n        isInitialized\n        protectState\n        returns (bytes)\n    {\n        IEVMScriptExecutor executor = getEVMScriptExecutor(_script);\n        require(address(executor) != address(0), ERROR_EXECUTOR_UNAVAILABLE);\n\n        bytes4 sig = executor.execScript.selector;\n        bytes memory data = abi.encodeWithSelector(sig, _script, _input, _blacklist);\n\n        bytes memory output;\n        assembly {\n            let success := delegatecall(\n                gas,                // forward all gas\n                executor,           // address\n                add(data, 0x20),    // calldata start\n                mload(data),        // calldata length\n                0,                  // don't write output (we'll handle this ourselves)\n                0                   // don't write output\n            )\n\n            output := mload(0x40) // free mem ptr get\n\n            switch success\n            case 0 {\n                // If the call errored, forward its full error data\n                returndatacopy(output, 0, returndatasize)\n                revert(output, returndatasize)\n            }\n            default {\n                switch gt(returndatasize, 0x3f)\n                case 0 {\n                    // Need at least 0x40 bytes returned for properly ABI-encoded bytes values,\n                    // revert with \"EVMRUN_EXECUTOR_INVALID_RETURN\"\n                    // See remix: doing a `revert(\"EVMRUN_EXECUTOR_INVALID_RETURN\")` always results in\n                    // this memory layout\n                    mstore(output, 0x08c379a000000000000000000000000000000000000000000000000000000000)         // error identifier\n                    mstore(add(output, 0x04), 0x0000000000000000000000000000000000000000000000000000000000000020) // starting offset\n                    mstore(add(output, 0x24), 0x000000000000000000000000000000000000000000000000000000000000001e) // reason length\n                    mstore(add(output, 0x44), 0x45564d52554e5f4558454355544f525f494e56414c49445f52455455524e0000) // reason\n\n                    revert(output, 100) // 100 = 4 + 3 * 32 (error identifier + 3 words for the ABI encoded error)\n                }\n                default {\n                    // Copy result\n                    //\n                    // Needs to perform an ABI decode for the expected `bytes` return type of\n                    // `executor.execScript()` as solidity will automatically ABI encode the returned bytes as:\n                    //    [ position of the first dynamic length return value = 0x20 (32 bytes) ]\n                    //    [ output length (32 bytes) ]\n                    //    [ output content (N bytes) ]\n                    //\n                    // Perform the ABI decode by ignoring the first 32 bytes of the return data\n                    let copysize := sub(returndatasize, 0x20)\n                    returndatacopy(output, 0x20, copysize)\n\n                    mstore(0x40, add(output, copysize)) // free mem ptr set\n                }\n            }\n        }\n\n        emit ScriptResult(address(executor), _script, _input, output);\n\n        return output;\n    }\n\n    modifier protectState {\n        address preKernel = address(kernel());\n        bytes32 preAppId = appId();\n        _; // exec\n        require(address(kernel()) == preKernel, ERROR_PROTECTED_STATE_MODIFIED);\n        require(appId() == preAppId, ERROR_PROTECTED_STATE_MODIFIED);\n    }\n}\n",
  "sourcePath": "@aragon/os/contracts/evmscript/EVMScriptRunner.sol",
  "compiler": {
    "name": "solc",
    "version": "0.4.24+commit.e67f0147.Emscripten.clang"
  },
  "schemaVersion": "3.4.2",
  "updatedAt": "2021-10-14T14:14:04.240Z",
  "devdoc": {
    "methods": {
      "getInitializationBlock()": {
        "return": "Block number in which the contract was initialized"
      },
      "hasInitialized()": {
        "return": "Whether the contract has been initialized by the time of the current block"
      }
    }
  },
  "userdoc": {
    "methods": {}
  }
}