{
  "contractName": "EVMScriptRegistry",
  "abi": [
    {
      "constant": true,
      "inputs": [],
      "name": "hasInitialized",
      "outputs": [
        {
          "name": "",
          "type": "bool"
        }
      ],
      "payable": false,
      "stateMutability": "view",
      "type": "function"
    },
    {
      "constant": true,
      "inputs": [],
      "name": "REGISTRY_ADD_EXECUTOR_ROLE",
      "outputs": [
        {
          "name": "",
          "type": "bytes32"
        }
      ],
      "payable": false,
      "stateMutability": "view",
      "type": "function"
    },
    {
      "constant": true,
      "inputs": [
        {
          "name": "_script",
          "type": "bytes"
        }
      ],
      "name": "getEVMScriptExecutor",
      "outputs": [
        {
          "name": "",
          "type": "address"
        }
      ],
      "payable": false,
      "stateMutability": "view",
      "type": "function"
    },
    {
      "constant": true,
      "inputs": [],
      "name": "getRecoveryVault",
      "outputs": [
        {
          "name": "",
          "type": "address"
        }
      ],
      "payable": false,
      "stateMutability": "view",
      "type": "function"
    },
    {
      "constant": true,
      "inputs": [
        {
          "name": "token",
          "type": "address"
        }
      ],
      "name": "allowRecoverability",
      "outputs": [
        {
          "name": "",
          "type": "bool"
        }
      ],
      "payable": false,
      "stateMutability": "view",
      "type": "function"
    },
    {
      "constant": true,
      "inputs": [],
      "name": "appId",
      "outputs": [
        {
          "name": "",
          "type": "bytes32"
        }
      ],
      "payable": false,
      "stateMutability": "view",
      "type": "function"
    },
    {
      "constant": true,
      "inputs": [],
      "name": "getInitializationBlock",
      "outputs": [
        {
          "name": "",
          "type": "uint256"
        }
      ],
      "payable": false,
      "stateMutability": "view",
      "type": "function"
    },
    {
      "constant": false,
      "inputs": [
        {
          "name": "_token",
          "type": "address"
        }
      ],
      "name": "transferToVault",
      "outputs": [],
      "payable": false,
      "stateMutability": "nonpayable",
      "type": "function"
    },
    {
      "constant": true,
      "inputs": [
        {
          "name": "_sender",
          "type": "address"
        },
        {
          "name": "_role",
          "type": "bytes32"
        },
        {
          "name": "_params",
          "type": "uint256[]"
        }
      ],
      "name": "canPerform",
      "outputs": [
        {
          "name": "",
          "type": "bool"
        }
      ],
      "payable": false,
      "stateMutability": "view",
      "type": "function"
    },
    {
      "constant": true,
      "inputs": [],
      "name": "getEVMScriptRegistry",
      "outputs": [
        {
          "name": "",
          "type": "address"
        }
      ],
      "payable": false,
      "stateMutability": "view",
      "type": "function"
    },
    {
      "constant": true,
      "inputs": [],
      "name": "REGISTRY_MANAGER_ROLE",
      "outputs": [
        {
          "name": "",
          "type": "bytes32"
        }
      ],
      "payable": false,
      "stateMutability": "view",
      "type": "function"
    },
    {
      "constant": true,
      "inputs": [],
      "name": "kernel",
      "outputs": [
        {
          "name": "",
          "type": "address"
        }
      ],
      "payable": false,
      "stateMutability": "view",
      "type": "function"
    },
    {
      "constant": true,
      "inputs": [],
      "name": "isPetrified",
      "outputs": [
        {
          "name": "",
          "type": "bool"
        }
      ],
      "payable": false,
      "stateMutability": "view",
      "type": "function"
    },
    {
      "constant": true,
      "inputs": [
        {
          "name": "",
          "type": "uint256"
        }
      ],
      "name": "executors",
      "outputs": [
        {
          "name": "executor",
          "type": "address"
        },
        {
          "name": "enabled",
          "type": "bool"
        }
      ],
      "payable": false,
      "stateMutability": "view",
      "type": "function"
    },
    {
      "anonymous": false,
      "inputs": [
        {
          "indexed": true,
          "name": "executorId",
          "type": "uint256"
        },
        {
          "indexed": true,
          "name": "executorAddress",
          "type": "address"
        }
      ],
      "name": "EnableExecutor",
      "type": "event"
    },
    {
      "anonymous": false,
      "inputs": [
        {
          "indexed": true,
          "name": "executorId",
          "type": "uint256"
        },
        {
          "indexed": true,
          "name": "executorAddress",
          "type": "address"
        }
      ],
      "name": "DisableExecutor",
      "type": "event"
    },
    {
      "anonymous": false,
      "inputs": [
        {
          "indexed": true,
          "name": "executor",
          "type": "address"
        },
        {
          "indexed": false,
          "name": "script",
          "type": "bytes"
        },
        {
          "indexed": false,
          "name": "input",
          "type": "bytes"
        },
        {
          "indexed": false,
          "name": "returnData",
          "type": "bytes"
        }
      ],
      "name": "ScriptResult",
      "type": "event"
    },
    {
      "anonymous": false,
      "inputs": [
        {
          "indexed": true,
          "name": "vault",
          "type": "address"
        },
        {
          "indexed": true,
          "name": "token",
          "type": "address"
        },
        {
          "indexed": false,
          "name": "amount",
          "type": "uint256"
        }
      ],
      "name": "RecoverToVault",
      "type": "event"
    },
    {
      "constant": false,
      "inputs": [],
      "name": "initialize",
      "outputs": [],
      "payable": false,
      "stateMutability": "nonpayable",
      "type": "function"
    },
    {
      "constant": false,
      "inputs": [
        {
          "name": "_executor",
          "type": "address"
        }
      ],
      "name": "addScriptExecutor",
      "outputs": [
        {
          "name": "id",
          "type": "uint256"
        }
      ],
      "payable": false,
      "stateMutability": "nonpayable",
      "type": "function"
    },
    {
      "constant": false,
      "inputs": [
        {
          "name": "_executorId",
          "type": "uint256"
        }
      ],
      "name": "disableScriptExecutor",
      "outputs": [],
      "payable": false,
      "stateMutability": "nonpayable",
      "type": "function"
    },
    {
      "constant": false,
      "inputs": [
        {
          "name": "_executorId",
          "type": "uint256"
        }
      ],
      "name": "enableScriptExecutor",
      "outputs": [],
      "payable": false,
      "stateMutability": "nonpayable",
      "type": "function"
    },
    {
      "constant": true,
      "inputs": [
        {
          "name": "_script",
          "type": "bytes"
        }
      ],
      "name": "getScriptExecutor",
      "outputs": [
        {
          "name": "",
          "type": "address"
        }
      ],
      "payable": false,
      "stateMutability": "view",
      "type": "function"
    }
  ],
  "bytecode": "0x6080604052620000176401000000006200001d810204565b6200023b565b6200003064010000000062000125810204565b60408051808201909152601881527f494e49545f414c52454144595f494e495449414c495a45440000000000000000602082015290156200010c576040517f08c379a00000000000000000000000000000000000000000000000000000000081526004018080602001828103825283818151815260200191508051906020019080838360005b83811015620000d0578181015183820152602001620000b6565b50505050905090810190601f168015620000fe5780820380516001836020036101000a031916815260200191505b509250505060405180910390fd5b506200012360001964010000000062000154810204565b565b60006200014f6000805160206200179d833981519152640100000000620011a76200023382021704565b905090565b6200016764010000000062000125810204565b60408051808201909152601881527f494e49545f414c52454144595f494e495449414c495a454400000000000000006020820152901562000206576040517f08c379a000000000000000000000000000000000000000000000000000000000815260040180806020018281038252838181518152602001915080519060200190808383600083811015620000d0578181015183820152602001620000b6565b50620002306000805160206200179d83398151915282640100000000620013fb6200023782021704565b50565b5490565b9055565b611552806200024b6000396000f3006080604052600436106100ed5763ffffffff60e060020a60003504166304bf2a7f81146100f25780630803fac01461016757806319f3d10f146101905780632914b9bd146101b757806332f0a3b5146102105780635ca4d4bb146102255780637e7db6e11461023f57806380afdea8146102605780638129fc1c1461027557806387a16f121461028a5780638b3dd749146102ab5780639d4941d8146102c0578063a1658fad146102e1578063a479e50814610348578063bd8fde1c1461035d578063cff606a014610372578063d4aae0c41461038a578063de4796ed1461039f578063f97a05df146103b4575b600080fd5b3480156100fe57600080fd5b506040805160206004803580820135601f810184900484028501840190955284845261014b9436949293602493928401919081908401838280828437509497506103ef9650505050505050565b60408051600160a060020a039092168252519081900360200190f35b34801561017357600080fd5b5061017c61050c565b604080519115158252519081900360200190f35b34801561019c57600080fd5b506101a5610535565b60408051918252519081900360200190f35b3480156101c357600080fd5b506040805160206004803580820135601f810184900484028501840190955284845261014b9436949293602493928401919081908401838280828437509497506105479650505050505050565b34801561021c57600080fd5b5061014b61062d565b34801561023157600080fd5b5061023d6004356106a5565b005b34801561024b57600080fd5b5061017c600160a060020a0360043516610838565b34801561026c57600080fd5b506101a561083e565b34801561028157600080fd5b5061023d61086e565b34801561029657600080fd5b506101a5600160a060020a03600435166108f9565b3480156102b757600080fd5b506101a5610a29565b3480156102cc57600080fd5b5061023d600160a060020a0360043516610a42565b3480156102ed57600080fd5b50604080516020600460443581810135838102808601850190965280855261017c958335600160a060020a0316956024803596369695606495939492019291829185019084908082843750949750610cc99650505050505050565b34801561035457600080fd5b5061014b610e19565b34801561036957600080fd5b506101a5610eb8565b34801561037e57600080fd5b5061023d600435610eca565b34801561039657600080fd5b5061014b6110ea565b3480156103ab57600080fd5b5061017c611115565b3480156103c057600080fd5b506103cc600435611128565b60408051600160a060020a03909316835290151560208301528051918290030190f35b60008060006004845110156040805190810160405280601e81526020017f45564d5245475f5343524950545f4c454e4754485f544f4f5f53484f525400008152509015156104be5760405160e560020a62461bcd0281526004018080602001828103825283818151815260200191508051906020019080838360005b8381101561048357818101518382015260200161046b565b50505050905090810190601f1680156104b05780820380516001836020036101000a031916815260200191505b509250505060405180910390fd5b506104c88461114f565b63ffffffff1660008181526001602052604090208054919350915060a060020a900460ff166104f8576000610504565b8054600160a060020a03165b949350505050565b600080610517610a29565b9050801580159061052f57508061052c611162565b10155b91505090565b6000805160206114e783398151915281565b6000610551610e19565b600160a060020a03166304bf2a7f836040518263ffffffff1660e060020a0281526004018080602001828103825283818151815260200191508051906020019080838360005b838110156105af578181015183820152602001610597565b50505050905090810190601f1680156105dc5780820380516001836020036101000a031916815260200191505b5092505050602060405180830381600087803b1580156105fb57600080fd5b505af115801561060f573d6000803e3d6000fd5b505050506040513d602081101561062557600080fd5b505192915050565b60006106376110ea565b600160a060020a03166332f0a3b56040518163ffffffff1660e060020a028152600401602060405180830381600087803b15801561067457600080fd5b505af1158015610688573d6000803e3d6000fd5b505050506040513d602081101561069e57600080fd5b5051905090565b60006000805160206114a78339815191526106bf83611166565b6106ca338383610cc9565b60408051808201909152600f8152608a60020a6e10541417d055551217d190525311510260208201529015156107455760405160e560020a62461bcd0281526004018080602001828103825283818151815260200191508051906020019080838360008381101561048357818101518382015260200161046b565b5060008481526001602090815260409182902080548351808501909452601884527f45564d5245475f4558454355544f525f44495341424c4544000000000000000092840192909252945060a060020a900460ff1615156107eb5760405160e560020a62461bcd0281526004018080602001828103825283818151815260200191508051906020019080838360008381101561048357818101518382015260200161046b565b50825460a060020a60ff021981168455604051600160a060020a039091169085907fc13cd9238f8ab1e5ab1f95cde77e89288fe5c328d04739adffd57b144b408fd190600090a350505050565b50600190565b60006108697fd625496217aa6a3453eecb9c3489dc5a53e6c67b444329ea2b2cbc9ff547639b6111a7565b905090565b610876610a29565b60408051808201909152601881526000805160206114c7833981519152602082015290156108e95760405160e560020a62461bcd0281526004018080602001828103825283818151815260200191508051906020019080838360008381101561048357818101518382015260200161046b565b506108f26111ab565b6001600055565b6040805160008082526020820190925281906000805160206114e7833981519152906109289033908390610cc9565b60408051808201909152600f8152608a60020a6e10541417d055551217d190525311510260208201529015156109a35760405160e560020a62461bcd0281526004018080602001828103825283818151815260200191508051906020019080838360008381101561048357818101518382015260200161046b565b506000805460018082018355604080518082018252600160a060020a03808a168083526020808401868152878952959052838720925183549551151560a060020a0260a060020a60ff021991909316600160a060020a03199096169590951794909416179055519194509184916000805160206115078339815191529190a35092915050565b60006108696000805160206114878339815191526111a7565b6000806000610a5084610838565b6040805180820190915260128152607260020a71149150d3d5915497d11254d0531313d5d151026020820152901515610ace5760405160e560020a62461bcd0281526004018080602001828103825283818151815260200191508051906020019080838360008381101561048357818101518382015260200161046b565b50610ad761062d565b9250610ae283611253565b60408051808201909152601a81527f5245434f5645525f5641554c545f4e4f545f434f4e54524143540000000000006020820152901515610b685760405160e560020a62461bcd0281526004018080602001828103825283818151815260200191508051906020019080838360008381101561048357818101518382015260200161046b565b50600160a060020a0384161515610bb95760405130319250600160a060020a0384169083156108fc029084906000818181858888f19350505050158015610bb3573d6000803e3d6000fd5b50610c78565b5082610bd4600160a060020a0382163063ffffffff61128016565b9150610bf0600160a060020a038216848463ffffffff61136a16565b60408051808201909152601d81527f5245434f5645525f544f4b454e5f5452414e534645525f4641494c45440000006020820152901515610c765760405160e560020a62461bcd0281526004018080602001828103825283818151815260200191508051906020019080838360008381101561048357818101518382015260200161046b565b505b83600160a060020a031683600160a060020a03167f596caf56044b55fb8c4ca640089bbc2b63cae3e978b851f5745cbb7c5b288e02846040518082815260200191505060405180910390a350505050565b600080610cd461050c565b1515610ce35760009150610e11565b610ceb6110ea565b9050600160a060020a0381161515610d065760009150610e11565b80600160a060020a031663fdef9106863087610d21886113ca565b60405160e060020a63ffffffff8716028152600160a060020a03808616600483019081529085166024830152604482018490526080606483019081528351608484015283519192909160a490910190602085019080838360005b83811015610d93578181015183820152602001610d7b565b50505050905090810190601f168015610dc05780820380516001836020036101000a031916815260200191505b5095505050505050602060405180830381600087803b158015610de257600080fd5b505af1158015610df6573d6000803e3d6000fd5b505050506040513d6020811015610e0c57600080fd5b505191505b509392505050565b600080610e246110ea565b6040805160e360020a6317c0177b0281527fd6f028ca0e8edb4a8c9757ca4fdccab25fa1e0317da1188108f7d2dee14902fb60048201527fddbcfd564f642ab5627cf68b9b7d374fb4f8a36e941a75d89c87998cef03bd6160248201529051600160a060020a03929092169163be00bbd8916044808201926020929091908290030181600087803b1580156105fb57600080fd5b6000805160206114a783398151915281565b60006000805160206114a7833981519152610ee483611166565b610eef338383610cc9565b60408051808201909152600f8152608a60020a6e10541417d055551217d19052531151026020820152901515610f6a5760405160e560020a62461bcd0281526004018080602001828103825283818151815260200191508051906020019080838360008381101561048357818101518382015260200161046b565b5083600081118015610f7d575060005481105b60408051808201909152601a81527f45564d5245475f494e4558495354454e545f4558454355544f5200000000000060208201529015156110035760405160e560020a62461bcd0281526004018080602001828103825283818151815260200191508051906020019080838360008381101561048357818101518382015260200161046b565b5060008581526001602090815260409182902080548351808501909452601784527f45564d5245475f4558454355544f525f454e41424c454400000000000000000092840192909252955060a060020a900460ff16156110a85760405160e560020a62461bcd0281526004018080602001828103825283818151815260200191508051906020019080838360008381101561048357818101518382015260200161046b565b50835460a060020a60ff02191660a060020a17808555604051600160a060020a0390911690869060008051602061150783398151915290600090a35050505050565b60006108697f4172f0f7d2289153072b0a6ca36959e0cbe2efc3afe50fc81636caa96338137b6111a7565b6000600019611122610a29565b14905090565b600160205260009081526040902054600160a060020a0381169060a060020a900460ff1682565b600061115c8260006113d4565b92915050565b4390565b604080516001808252818301909252606091602080830190803883390190505090508181600081518110151561119857fe5b60209081029091010152919050565b5490565b6111b3610a29565b60408051808201909152601881526000805160206114c7833981519152602082015290156112265760405160e560020a62461bcd0281526004018080602001828103825283818151815260200191508051906020019080838360008381101561048357818101518382015260200161046b565b5061124d611232611162565b6000805160206114878339815191529063ffffffff6113fb16565b565b5490565b600080600160a060020a038316151561126f576000915061127a565b823b90506000811191505b50919050565b60408051600160a060020a038316602480830191909152825180830390910181526044909101909152602081018051600160e060020a031660e060020a6370a082310217905260009081806112d586846113ff565b60408051808201909152601c81527f534146455f4552435f32305f42414c414e43455f524556455254454400000000602082015291935091508215156113605760405160e560020a62461bcd0281526004018080602001828103825283818151815260200191508051906020019080838360008381101561048357818101518382015260200161046b565b5095945050505050565b60408051600160a060020a03841660248201526044808201849052825180830390910181526064909101909152602081018051600160e060020a031660e060020a63a9059cbb021790526000906113c18582611430565b95945050505050565b8051602002815290565b6000806113e1848461147e565b60e060020a600160e060020a031990911604949350505050565b9055565b6000806000806040516020818751602089018a5afa9250600083111561142457805191505b50909590945092505050565b6000806040516020818551602087016000895af16000811115611474573d8015611461576020811461146a57611472565b60019350611472565b600183511493505b505b5090949350505050565b0160200151905600ebb05b386a8d34882b8711d156f463690983dc47815980fb82aeeff1aa43579ef7a450ef335e1892cb42c8ca72e7242359d7711924b75db5717410da3f614aa3494e49545f414c52454144595f494e495449414c495a45440000000000000000c4e90f38eea8c4212a009ca7b8947943ba4d4a58d19b683417f65291d1cd9ed27697fa3288629310075a63816e294207c84f3cfc18ccf8e18eb917ec0bb56699a165627a7a723058209355d61d11aa26dc94db5554b50ffe2c351e39896f17873cb8b1ae19901b35810029ebb05b386a8d34882b8711d156f463690983dc47815980fb82aeeff1aa43579e",
  "source": "pragma solidity 0.4.24;\n\nimport \"../apps/AragonApp.sol\";\nimport \"./ScriptHelpers.sol\";\nimport \"./IEVMScriptExecutor.sol\";\nimport \"./IEVMScriptRegistry.sol\";\n\n\n/* solium-disable function-order */\n// Allow public initialize() to be first\ncontract EVMScriptRegistry is IEVMScriptRegistry, EVMScriptRegistryConstants, AragonApp {\n    using ScriptHelpers for bytes;\n\n    /* Hardcoded constants to save gas\n    bytes32 public constant REGISTRY_ADD_EXECUTOR_ROLE = keccak256(\"REGISTRY_ADD_EXECUTOR_ROLE\");\n    bytes32 public constant REGISTRY_MANAGER_ROLE = keccak256(\"REGISTRY_MANAGER_ROLE\");\n    */\n    bytes32 public constant REGISTRY_ADD_EXECUTOR_ROLE = 0xc4e90f38eea8c4212a009ca7b8947943ba4d4a58d19b683417f65291d1cd9ed2;\n    // WARN: Manager can censor all votes and the like happening in an org\n    bytes32 public constant REGISTRY_MANAGER_ROLE = 0xf7a450ef335e1892cb42c8ca72e7242359d7711924b75db5717410da3f614aa3;\n\n    uint256 internal constant SCRIPT_START_LOCATION = 4;\n\n    string private constant ERROR_INEXISTENT_EXECUTOR = \"EVMREG_INEXISTENT_EXECUTOR\";\n    string private constant ERROR_EXECUTOR_ENABLED = \"EVMREG_EXECUTOR_ENABLED\";\n    string private constant ERROR_EXECUTOR_DISABLED = \"EVMREG_EXECUTOR_DISABLED\";\n    string private constant ERROR_SCRIPT_LENGTH_TOO_SHORT = \"EVMREG_SCRIPT_LENGTH_TOO_SHORT\";\n\n    struct ExecutorEntry {\n        IEVMScriptExecutor executor;\n        bool enabled;\n    }\n\n    uint256 private executorsNextIndex;\n    mapping (uint256 => ExecutorEntry) public executors;\n\n    event EnableExecutor(uint256 indexed executorId, address indexed executorAddress);\n    event DisableExecutor(uint256 indexed executorId, address indexed executorAddress);\n\n    modifier executorExists(uint256 _executorId) {\n        require(_executorId > 0 && _executorId < executorsNextIndex, ERROR_INEXISTENT_EXECUTOR);\n        _;\n    }\n\n    /**\n    * @notice Initialize the registry\n    */\n    function initialize() public onlyInit {\n        initialized();\n        // Create empty record to begin executor IDs at 1\n        executorsNextIndex = 1;\n    }\n\n    /**\n    * @notice Add a new script executor with address `_executor` to the registry\n    * @param _executor Address of the IEVMScriptExecutor that will be added to the registry\n    * @return id Identifier of the executor in the registry\n    */\n    function addScriptExecutor(IEVMScriptExecutor _executor) external auth(REGISTRY_ADD_EXECUTOR_ROLE) returns (uint256 id) {\n        uint256 executorId = executorsNextIndex++;\n        executors[executorId] = ExecutorEntry(_executor, true);\n        emit EnableExecutor(executorId, _executor);\n        return executorId;\n    }\n\n    /**\n    * @notice Disable script executor with ID `_executorId`\n    * @param _executorId Identifier of the executor in the registry\n    */\n    function disableScriptExecutor(uint256 _executorId)\n        external\n        authP(REGISTRY_MANAGER_ROLE, arr(_executorId))\n    {\n        // Note that we don't need to check for an executor's existence in this case, as only\n        // existing executors can be enabled\n        ExecutorEntry storage executorEntry = executors[_executorId];\n        require(executorEntry.enabled, ERROR_EXECUTOR_DISABLED);\n        executorEntry.enabled = false;\n        emit DisableExecutor(_executorId, executorEntry.executor);\n    }\n\n    /**\n    * @notice Enable script executor with ID `_executorId`\n    * @param _executorId Identifier of the executor in the registry\n    */\n    function enableScriptExecutor(uint256 _executorId)\n        external\n        authP(REGISTRY_MANAGER_ROLE, arr(_executorId))\n        executorExists(_executorId)\n    {\n        ExecutorEntry storage executorEntry = executors[_executorId];\n        require(!executorEntry.enabled, ERROR_EXECUTOR_ENABLED);\n        executorEntry.enabled = true;\n        emit EnableExecutor(_executorId, executorEntry.executor);\n    }\n\n    /**\n    * @dev Get the script executor that can execute a particular script based on its first 4 bytes\n    * @param _script EVMScript being inspected\n    */\n    function getScriptExecutor(bytes _script) public view returns (IEVMScriptExecutor) {\n        require(_script.length >= SCRIPT_START_LOCATION, ERROR_SCRIPT_LENGTH_TOO_SHORT);\n        uint256 id = _script.getSpecId();\n\n        // Note that we don't need to check for an executor's existence in this case, as only\n        // existing executors can be enabled\n        ExecutorEntry storage entry = executors[id];\n        return entry.enabled ? entry.executor : IEVMScriptExecutor(0);\n    }\n}\n",
  "sourcePath": "@aragon/os/contracts/evmscript/EVMScriptRegistry.sol",
  "compiler": {
    "name": "solc",
    "version": "0.4.24+commit.e67f0147.Emscripten.clang"
  },
  "schemaVersion": "3.4.2",
  "updatedAt": "2021-10-14T14:14:04.235Z",
  "devdoc": {
    "methods": {
      "addScriptExecutor(address)": {
        "params": {
          "_executor": "Address of the IEVMScriptExecutor that will be added to the registry"
        },
        "return": "id Identifier of the executor in the registry"
      },
      "allowRecoverability(address)": {
        "details": "By default deriving from AragonApp makes it recoverable",
        "params": {
          "token": "Token address that would be recovered"
        },
        "return": "bool whether the app allows the recovery"
      },
      "canPerform(address,bytes32,uint256[])": {
        "details": "Check whether an action can be performed by a sender for a particular role on this app",
        "params": {
          "_params": "Permission params for the role",
          "_role": "Role on this app",
          "_sender": "Sender of the call"
        },
        "return": "Boolean indicating whether the sender has the permissions to perform the action.        Always returns false if the app hasn't been initialized yet."
      },
      "disableScriptExecutor(uint256)": {
        "params": {
          "_executorId": "Identifier of the executor in the registry"
        }
      },
      "enableScriptExecutor(uint256)": {
        "params": {
          "_executorId": "Identifier of the executor in the registry"
        }
      },
      "getInitializationBlock()": {
        "return": "Block number in which the contract was initialized"
      },
      "getRecoveryVault()": {
        "details": "Get the recovery vault for the app",
        "return": "Recovery vault address for the app"
      },
      "getScriptExecutor(bytes)": {
        "details": "Get the script executor that can execute a particular script based on its first 4 bytes",
        "params": {
          "_script": "EVMScript being inspected"
        }
      },
      "hasInitialized()": {
        "return": "Whether the contract has been initialized by the time of the current block"
      },
      "transferToVault(address)": {
        "params": {
          "_token": "Token balance to be sent to recovery vault."
        }
      }
    }
  },
  "userdoc": {
    "methods": {
      "addScriptExecutor(address)": {
        "notice": "Add a new script executor with address `_executor` to the registry"
      },
      "disableScriptExecutor(uint256)": {
        "notice": "Disable script executor with ID `_executorId`"
      },
      "enableScriptExecutor(uint256)": {
        "notice": "Enable script executor with ID `_executorId`"
      },
      "initialize()": {
        "notice": "Initialize the registry"
      },
      "transferToVault(address)": {
        "notice": "Send funds to recovery Vault. This contract should never receive funds,        but in case it does, this function allows one to recover them."
      }
    }
  }
}