{
  "contractName": "EVMScriptRegistryFactory",
  "abi": [
    {
      "constant": true,
      "inputs": [],
      "name": "baseReg",
      "outputs": [
        {
          "name": "",
          "type": "address"
        }
      ],
      "payable": false,
      "stateMutability": "view",
      "type": "function"
    },
    {
      "constant": true,
      "inputs": [],
      "name": "baseCallScript",
      "outputs": [
        {
          "name": "",
          "type": "address"
        }
      ],
      "payable": false,
      "stateMutability": "view",
      "type": "function"
    },
    {
      "inputs": [],
      "payable": false,
      "stateMutability": "nonpayable",
      "type": "constructor"
    },
    {
      "constant": false,
      "inputs": [
        {
          "name": "_dao",
          "type": "address"
        }
      ],
      "name": "newEVMScriptRegistry",
      "outputs": [
        {
          "name": "reg",
          "type": "address"
        }
      ],
      "payable": false,
      "stateMutability": "nonpayable",
      "type": "function"
    }
  ],
  "bytecode": "0x608060405234801561001057600080fd5b506100196100a0565b604051809103906000f080158015610035573d6000803e3d6000fd5b5060008054600160a060020a031916600160a060020a039290921691909117905561005e6100b0565b604051809103906000f08015801561007a573d6000803e3d6000fd5b5060018054600160a060020a031916600160a060020a03929092169190911790556100c0565b6040516117bd806106c183390190565b60405161095e80611e7e83390190565b6105f2806100cf6000396000f30060806040526004361061003d5763ffffffff60e060020a600035041663127d679c811461004257806333404143146100735780634de50a3a14610094575b600080fd5b34801561004e57600080fd5b506100576100a9565b60408051600160a060020a039092168252519081900360200190f35b34801561007f57600080fd5b50610057600160a060020a03600435166100b8565b3480156100a057600080fd5b506100576105b7565b600054600160a060020a031681565b60408051600480825260248083018452602083018051600160e060020a031660e260020a63204a7f070217815260008054955160e160020a63602853d30281527fddbcfd564f642ab5627cf68b9b7d374fb4f8a36e941a75d89c87998cef03bd61948101858152600160a060020a0397881694820185905260016064830181905260806044840190815288516084850152885194998a98908c169763c050a7a697919690958b95939260a4909101918083838e5b8381101561018457818101518382015260200161016c565b50505050905090810190601f1680156101b15780820380516001836020036101000a031916815260200191505b5095505050505050602060405180830381600087803b1580156101d357600080fd5b505af11580156101e7573d6000803e3d6000fd5b505050506040513d60208110156101fd57600080fd5b50516040805160e060020a63de2873590281529051919450600160a060020a0386169163de287359916004808201926020929091908290030181600087803b15801561024857600080fd5b505af115801561025c573d6000803e3d6000fd5b505050506040513d602081101561027257600080fd5b50516040805160e060020a6319f3d10f0281529051919250600160a060020a038084169263be0384789230928892908316916319f3d10f9160048083019260209291908290030181600087803b1580156102cb57600080fd5b505af11580156102df573d6000803e3d6000fd5b505050506040513d60208110156102f557600080fd5b50516040805160e060020a63ffffffff8716028152600160a060020a03948516600482015292909316602483015260448201523060648201529051608480830192600092919082900301818387803b15801561035057600080fd5b505af1158015610364573d6000803e3d6000fd5b50506001546040805160e160020a6343d0b789028152600160a060020a039283166004820152905191871693506387a16f1292506024808201926020929091908290030181600087803b1580156103ba57600080fd5b505af11580156103ce573d6000803e3d6000fd5b505050506040513d60208110156103e457600080fd5b50506040805160e060020a6319f3d10f0281529051600160a060020a0380841692639d0effdb9230928892908316916319f3d10f916004808201926020929091908290030181600087803b15801561043b57600080fd5b505af115801561044f573d6000803e3d6000fd5b505050506040513d602081101561046557600080fd5b50516040805160e060020a63ffffffff8716028152600160a060020a03948516600482015292909316602483015260448201529051606480830192600092919082900301818387803b1580156104ba57600080fd5b505af11580156104ce573d6000803e3d6000fd5b5050505080600160a060020a031663a885508a8485600160a060020a03166319f3d10f6040518163ffffffff1660e060020a028152600401602060405180830381600087803b15801561052057600080fd5b505af1158015610534573d6000803e3d6000fd5b505050506040513d602081101561054a57600080fd5b50516040805160e060020a63ffffffff8616028152600160a060020a039093166004840152602483019190915251604480830192600092919082900301818387803b15801561059857600080fd5b505af11580156105ac573d6000803e3d6000fd5b505050505050919050565b600154600160a060020a0316815600a165627a7a72305820c8cb93028fd41aa8906ca259feb0a5755350104fac839f593c4b78776875c31200296080604052620000176401000000006200001d810204565b6200023b565b6200003064010000000062000125810204565b60408051808201909152601881527f494e49545f414c52454144595f494e495449414c495a45440000000000000000602082015290156200010c576040517f08c379a00000000000000000000000000000000000000000000000000000000081526004018080602001828103825283818151815260200191508051906020019080838360005b83811015620000d0578181015183820152602001620000b6565b50505050905090810190601f168015620000fe5780820380516001836020036101000a031916815260200191505b509250505060405180910390fd5b506200012360001964010000000062000154810204565b565b60006200014f6000805160206200179d833981519152640100000000620011a76200023382021704565b905090565b6200016764010000000062000125810204565b60408051808201909152601881527f494e49545f414c52454144595f494e495449414c495a454400000000000000006020820152901562000206576040517f08c379a000000000000000000000000000000000000000000000000000000000815260040180806020018281038252838181518152602001915080519060200190808383600083811015620000d0578181015183820152602001620000b6565b50620002306000805160206200179d83398151915282640100000000620013fb6200023782021704565b50565b5490565b9055565b611552806200024b6000396000f3006080604052600436106100ed5763ffffffff60e060020a60003504166304bf2a7f81146100f25780630803fac01461016757806319f3d10f146101905780632914b9bd146101b757806332f0a3b5146102105780635ca4d4bb146102255780637e7db6e11461023f57806380afdea8146102605780638129fc1c1461027557806387a16f121461028a5780638b3dd749146102ab5780639d4941d8146102c0578063a1658fad146102e1578063a479e50814610348578063bd8fde1c1461035d578063cff606a014610372578063d4aae0c41461038a578063de4796ed1461039f578063f97a05df146103b4575b600080fd5b3480156100fe57600080fd5b506040805160206004803580820135601f810184900484028501840190955284845261014b9436949293602493928401919081908401838280828437509497506103ef9650505050505050565b60408051600160a060020a039092168252519081900360200190f35b34801561017357600080fd5b5061017c61050c565b604080519115158252519081900360200190f35b34801561019c57600080fd5b506101a5610535565b60408051918252519081900360200190f35b3480156101c357600080fd5b506040805160206004803580820135601f810184900484028501840190955284845261014b9436949293602493928401919081908401838280828437509497506105479650505050505050565b34801561021c57600080fd5b5061014b61062d565b34801561023157600080fd5b5061023d6004356106a5565b005b34801561024b57600080fd5b5061017c600160a060020a0360043516610838565b34801561026c57600080fd5b506101a561083e565b34801561028157600080fd5b5061023d61086e565b34801561029657600080fd5b506101a5600160a060020a03600435166108f9565b3480156102b757600080fd5b506101a5610a29565b3480156102cc57600080fd5b5061023d600160a060020a0360043516610a42565b3480156102ed57600080fd5b50604080516020600460443581810135838102808601850190965280855261017c958335600160a060020a0316956024803596369695606495939492019291829185019084908082843750949750610cc99650505050505050565b34801561035457600080fd5b5061014b610e19565b34801561036957600080fd5b506101a5610eb8565b34801561037e57600080fd5b5061023d600435610eca565b34801561039657600080fd5b5061014b6110ea565b3480156103ab57600080fd5b5061017c611115565b3480156103c057600080fd5b506103cc600435611128565b60408051600160a060020a03909316835290151560208301528051918290030190f35b60008060006004845110156040805190810160405280601e81526020017f45564d5245475f5343524950545f4c454e4754485f544f4f5f53484f525400008152509015156104be5760405160e560020a62461bcd0281526004018080602001828103825283818151815260200191508051906020019080838360005b8381101561048357818101518382015260200161046b565b50505050905090810190601f1680156104b05780820380516001836020036101000a031916815260200191505b509250505060405180910390fd5b506104c88461114f565b63ffffffff1660008181526001602052604090208054919350915060a060020a900460ff166104f8576000610504565b8054600160a060020a03165b949350505050565b600080610517610a29565b9050801580159061052f57508061052c611162565b10155b91505090565b6000805160206114e783398151915281565b6000610551610e19565b600160a060020a03166304bf2a7f836040518263ffffffff1660e060020a0281526004018080602001828103825283818151815260200191508051906020019080838360005b838110156105af578181015183820152602001610597565b50505050905090810190601f1680156105dc5780820380516001836020036101000a031916815260200191505b5092505050602060405180830381600087803b1580156105fb57600080fd5b505af115801561060f573d6000803e3d6000fd5b505050506040513d602081101561062557600080fd5b505192915050565b60006106376110ea565b600160a060020a03166332f0a3b56040518163ffffffff1660e060020a028152600401602060405180830381600087803b15801561067457600080fd5b505af1158015610688573d6000803e3d6000fd5b505050506040513d602081101561069e57600080fd5b5051905090565b60006000805160206114a78339815191526106bf83611166565b6106ca338383610cc9565b60408051808201909152600f8152608a60020a6e10541417d055551217d190525311510260208201529015156107455760405160e560020a62461bcd0281526004018080602001828103825283818151815260200191508051906020019080838360008381101561048357818101518382015260200161046b565b5060008481526001602090815260409182902080548351808501909452601884527f45564d5245475f4558454355544f525f44495341424c4544000000000000000092840192909252945060a060020a900460ff1615156107eb5760405160e560020a62461bcd0281526004018080602001828103825283818151815260200191508051906020019080838360008381101561048357818101518382015260200161046b565b50825460a060020a60ff021981168455604051600160a060020a039091169085907fc13cd9238f8ab1e5ab1f95cde77e89288fe5c328d04739adffd57b144b408fd190600090a350505050565b50600190565b60006108697fd625496217aa6a3453eecb9c3489dc5a53e6c67b444329ea2b2cbc9ff547639b6111a7565b905090565b610876610a29565b60408051808201909152601881526000805160206114c7833981519152602082015290156108e95760405160e560020a62461bcd0281526004018080602001828103825283818151815260200191508051906020019080838360008381101561048357818101518382015260200161046b565b506108f26111ab565b6001600055565b6040805160008082526020820190925281906000805160206114e7833981519152906109289033908390610cc9565b60408051808201909152600f8152608a60020a6e10541417d055551217d190525311510260208201529015156109a35760405160e560020a62461bcd0281526004018080602001828103825283818151815260200191508051906020019080838360008381101561048357818101518382015260200161046b565b506000805460018082018355604080518082018252600160a060020a03808a168083526020808401868152878952959052838720925183549551151560a060020a0260a060020a60ff021991909316600160a060020a03199096169590951794909416179055519194509184916000805160206115078339815191529190a35092915050565b60006108696000805160206114878339815191526111a7565b6000806000610a5084610838565b6040805180820190915260128152607260020a71149150d3d5915497d11254d0531313d5d151026020820152901515610ace5760405160e560020a62461bcd0281526004018080602001828103825283818151815260200191508051906020019080838360008381101561048357818101518382015260200161046b565b50610ad761062d565b9250610ae283611253565b60408051808201909152601a81527f5245434f5645525f5641554c545f4e4f545f434f4e54524143540000000000006020820152901515610b685760405160e560020a62461bcd0281526004018080602001828103825283818151815260200191508051906020019080838360008381101561048357818101518382015260200161046b565b50600160a060020a0384161515610bb95760405130319250600160a060020a0384169083156108fc029084906000818181858888f19350505050158015610bb3573d6000803e3d6000fd5b50610c78565b5082610bd4600160a060020a0382163063ffffffff61128016565b9150610bf0600160a060020a038216848463ffffffff61136a16565b60408051808201909152601d81527f5245434f5645525f544f4b454e5f5452414e534645525f4641494c45440000006020820152901515610c765760405160e560020a62461bcd0281526004018080602001828103825283818151815260200191508051906020019080838360008381101561048357818101518382015260200161046b565b505b83600160a060020a031683600160a060020a03167f596caf56044b55fb8c4ca640089bbc2b63cae3e978b851f5745cbb7c5b288e02846040518082815260200191505060405180910390a350505050565b600080610cd461050c565b1515610ce35760009150610e11565b610ceb6110ea565b9050600160a060020a0381161515610d065760009150610e11565b80600160a060020a031663fdef9106863087610d21886113ca565b60405160e060020a63ffffffff8716028152600160a060020a03808616600483019081529085166024830152604482018490526080606483019081528351608484015283519192909160a490910190602085019080838360005b83811015610d93578181015183820152602001610d7b565b50505050905090810190601f168015610dc05780820380516001836020036101000a031916815260200191505b5095505050505050602060405180830381600087803b158015610de257600080fd5b505af1158015610df6573d6000803e3d6000fd5b505050506040513d6020811015610e0c57600080fd5b505191505b509392505050565b600080610e246110ea565b6040805160e360020a6317c0177b0281527fd6f028ca0e8edb4a8c9757ca4fdccab25fa1e0317da1188108f7d2dee14902fb60048201527fddbcfd564f642ab5627cf68b9b7d374fb4f8a36e941a75d89c87998cef03bd6160248201529051600160a060020a03929092169163be00bbd8916044808201926020929091908290030181600087803b1580156105fb57600080fd5b6000805160206114a783398151915281565b60006000805160206114a7833981519152610ee483611166565b610eef338383610cc9565b60408051808201909152600f8152608a60020a6e10541417d055551217d19052531151026020820152901515610f6a5760405160e560020a62461bcd0281526004018080602001828103825283818151815260200191508051906020019080838360008381101561048357818101518382015260200161046b565b5083600081118015610f7d575060005481105b60408051808201909152601a81527f45564d5245475f494e4558495354454e545f4558454355544f5200000000000060208201529015156110035760405160e560020a62461bcd0281526004018080602001828103825283818151815260200191508051906020019080838360008381101561048357818101518382015260200161046b565b5060008581526001602090815260409182902080548351808501909452601784527f45564d5245475f4558454355544f525f454e41424c454400000000000000000092840192909252955060a060020a900460ff16156110a85760405160e560020a62461bcd0281526004018080602001828103825283818151815260200191508051906020019080838360008381101561048357818101518382015260200161046b565b50835460a060020a60ff02191660a060020a17808555604051600160a060020a0390911690869060008051602061150783398151915290600090a35050505050565b60006108697f4172f0f7d2289153072b0a6ca36959e0cbe2efc3afe50fc81636caa96338137b6111a7565b6000600019611122610a29565b14905090565b600160205260009081526040902054600160a060020a0381169060a060020a900460ff1682565b600061115c8260006113d4565b92915050565b4390565b604080516001808252818301909252606091602080830190803883390190505090508181600081518110151561119857fe5b60209081029091010152919050565b5490565b6111b3610a29565b60408051808201909152601881526000805160206114c7833981519152602082015290156112265760405160e560020a62461bcd0281526004018080602001828103825283818151815260200191508051906020019080838360008381101561048357818101518382015260200161046b565b5061124d611232611162565b6000805160206114878339815191529063ffffffff6113fb16565b565b5490565b600080600160a060020a038316151561126f576000915061127a565b823b90506000811191505b50919050565b60408051600160a060020a038316602480830191909152825180830390910181526044909101909152602081018051600160e060020a031660e060020a6370a082310217905260009081806112d586846113ff565b60408051808201909152601c81527f534146455f4552435f32305f42414c414e43455f524556455254454400000000602082015291935091508215156113605760405160e560020a62461bcd0281526004018080602001828103825283818151815260200191508051906020019080838360008381101561048357818101518382015260200161046b565b5095945050505050565b60408051600160a060020a03841660248201526044808201849052825180830390910181526064909101909152602081018051600160e060020a031660e060020a63a9059cbb021790526000906113c18582611430565b95945050505050565b8051602002815290565b6000806113e1848461147e565b60e060020a600160e060020a031990911604949350505050565b9055565b6000806000806040516020818751602089018a5afa9250600083111561142457805191505b50909590945092505050565b6000806040516020818551602087016000895af16000811115611474573d8015611461576020811461146a57611472565b60019350611472565b600183511493505b505b5090949350505050565b0160200151905600ebb05b386a8d34882b8711d156f463690983dc47815980fb82aeeff1aa43579ef7a450ef335e1892cb42c8ca72e7242359d7711924b75db5717410da3f614aa3494e49545f414c52454144595f494e495449414c495a45440000000000000000c4e90f38eea8c4212a009ca7b8947943ba4d4a58d19b683417f65291d1cd9ed27697fa3288629310075a63816e294207c84f3cfc18ccf8e18eb917ec0bb56699a165627a7a723058209355d61d11aa26dc94db5554b50ffe2c351e39896f17873cb8b1ae19901b35810029ebb05b386a8d34882b8711d156f463690983dc47815980fb82aeeff1aa43579e608060405261001564010000000061001a810204565b610223565b61002b64010000000061011a810204565b60408051808201909152601881527f494e49545f414c52454144595f494e495449414c495a4544000000000000000060208201529015610103576040517f08c379a00000000000000000000000000000000000000000000000000000000081526004018080602001828103825283818151815260200191508051906020019080838360005b838110156100c85781810151838201526020016100b0565b50505050905090810190601f1680156100f55780820380516001836020036101000a031916815260200191505b509250505060405180910390fd5b50610118600019640100000000610145810204565b565b600061014060008051602061093e8339815191526401000000006106d061021b82021704565b905090565b61015664010000000061011a810204565b60408051808201909152601881527f494e49545f414c52454144595f494e495449414c495a45440000000000000000602082015290156101f2576040517f08c379a0000000000000000000000000000000000000000000000000000000008152600401808060200182810382528381815181526020019150805190602001908083836000838110156100c85781810151838201526020016100b0565b5061021860008051602061093e833981519152826401000000006106dc61021f82021704565b50565b5490565b9055565b61070c806102326000396000f3006080604052600436106100535763ffffffff60e060020a6000350416630803fac08114610058578063279cea35146100815780638333d9b21461012e5780638b3dd74914610155578063de4796ed1461016a575b600080fd5b34801561006457600080fd5b5061006d61017f565b604080519115158252519081900360200190f35b34801561008d57600080fd5b506100b960246004803582810192908201359181358083019290820135916044359182019101356101a8565b6040805160208082528351818301528351919283929083019185019080838360005b838110156100f35781810151838201526020016100db565b50505050905090810190601f1680156101205780820380516001836020036101000a031916815260200191505b509250505060405180910390f35b34801561013a57600080fd5b50610143610610565b60408051918252519081900360200190f35b34801561016157600080fd5b50610143610634565b34801561017657600080fd5b5061006d610664565b60008061018a610634565b905080158015906101a257508061019f610677565b10155b91505090565b606060008060008060008060006101bd61017f565b6040805180820190915260148152606260020a731253925517d393d517d2539255125053125691510260208201529015156102795760405160e560020a62461bcd0281526004018080602001828103825283818151815260200191508051906020019080838360005b8381101561023e578181015183820152602001610226565b50505050905090810190601f16801561026b5780820380516001836020036101000a031916815260200191505b509250505060405180910390fd5b50600496505b8c8710156105ff576040805180820190915260178152604b60020a7608aac9a86829898a6be929cac82989288be988a9c8ea890260208201526018888f03101561030e5760405160e560020a62461bcd0281526004018080602001828103825283818151815260200191508051906020019080838360008381101561023e578181015183820152602001610226565b50610352878f8f8080601f01602080910402602001604051908101604052809392919081815260200183838082843750949594505063ffffffff61067b1692505050565b9550600094505b888510156104265789898681811061036d57fe5b90506020020135600160a060020a0316600160a060020a031686600160a060020a031614156040805190810160405280601981526020017f45564d43414c4c535f424c41434b4c49535445445f43414c4c0000000000000081525090151561041a5760405160e560020a62461bcd0281526004018080602001828103825283818151815260200191508051906020019080838360008381101561023e578181015183820152602001610226565b50600190940193610359565b604051600160a060020a03871690309033907f9dcff9d94fbfdb4622d11edb383005f95e78efb446c72d92f8e615c6025c470390600090a46104a4876014018f8f8080601f01602080910402602001604051908101604052809392919081815260200183838082843750949594505063ffffffff6106a21692505050565b63ffffffff1693508660140160040192506104f8838f8f8080601f01602080910402602001604051908101604052809392919081815260200183838082843750949594505063ffffffff6106c91692505050565b6040805180820190915260178152604b60020a7608aac9a86829898a6be929cac82989288be988a9c8ea8902602082015284860198509092508d8811156105845760405160e560020a62461bcd0281526004018080602001828103825283818151815260200191508051906020019080838360008381101561023e578181015183820152602001610226565b50600080858460008a6113885a03f190508080156105a1576105f9565b6040513d80156105b4573d6000833e3d82fd5b60e560020a62461bcd02825260206004830152601660248301527f45564d43414c4c535f43414c4c5f5245564552544544000000000000000000006044830152606482fd5b5061027f565b505050505050509695505050505050565b7f2dc858a00f3e417be1394b87c07158e989ec681ce8cc68a9093680ac1a87030290565b600061065f7febb05b386a8d34882b8711d156f463690983dc47815980fb82aeeff1aa43579e6106d0565b905090565b6000600019610671610634565b14905090565b4390565b60008061068884846106d4565b606060020a6001606060020a031990911604949350505050565b6000806106af84846106d4565b60e060020a600160e060020a031990911604949350505050565b0160200190565b5490565b016020015190565b90555600a165627a7a723058201b17642d2f9be11013393765f00a6f6d932dc95eb2922cec6ab6861deda448670029ebb05b386a8d34882b8711d156f463690983dc47815980fb82aeeff1aa43579e",
  "source": "pragma solidity 0.4.24;\n\nimport \"../evmscript/IEVMScriptExecutor.sol\";\nimport \"../evmscript/EVMScriptRegistry.sol\";\n\nimport \"../evmscript/executors/CallsScript.sol\";\n\nimport \"../kernel/Kernel.sol\";\nimport \"../acl/ACL.sol\";\n\n\ncontract EVMScriptRegistryFactory is EVMScriptRegistryConstants {\n    EVMScriptRegistry public baseReg;\n    IEVMScriptExecutor public baseCallScript;\n\n    /**\n    * @notice Create a new EVMScriptRegistryFactory.\n    */\n    constructor() public {\n        baseReg = new EVMScriptRegistry();\n        baseCallScript = IEVMScriptExecutor(new CallsScript());\n    }\n\n    /**\n    * @notice Install a new pinned instance of EVMScriptRegistry on `_dao`.\n    * @param _dao Kernel\n    * @return Installed EVMScriptRegistry\n    */\n    function newEVMScriptRegistry(Kernel _dao) public returns (EVMScriptRegistry reg) {\n        bytes memory initPayload = abi.encodeWithSelector(reg.initialize.selector);\n        reg = EVMScriptRegistry(_dao.newPinnedAppInstance(EVMSCRIPT_REGISTRY_APP_ID, baseReg, initPayload, true));\n\n        ACL acl = ACL(_dao.acl());\n\n        acl.createPermission(this, reg, reg.REGISTRY_ADD_EXECUTOR_ROLE(), this);\n\n        reg.addScriptExecutor(baseCallScript);     // spec 1 = CallsScript\n\n        // Clean up the permissions\n        acl.revokePermission(this, reg, reg.REGISTRY_ADD_EXECUTOR_ROLE());\n        acl.removePermissionManager(reg, reg.REGISTRY_ADD_EXECUTOR_ROLE());\n\n        return reg;\n    }\n}\n",
  "sourcePath": "@aragon/os/contracts/factory/EVMScriptRegistryFactory.sol",
  "compiler": {
    "name": "solc",
    "version": "0.4.24+commit.e67f0147.Emscripten.clang"
  },
  "schemaVersion": "3.4.2",
  "updatedAt": "2021-10-14T14:14:04.294Z",
  "devdoc": {
    "methods": {
      "newEVMScriptRegistry(address)": {
        "params": {
          "_dao": "Kernel"
        },
        "return": "Installed EVMScriptRegistry"
      }
    }
  },
  "userdoc": {
    "methods": {
      "newEVMScriptRegistry(address)": {
        "notice": "Install a new pinned instance of EVMScriptRegistry on `_dao`."
      }
    }
  }
}