{
  "contractName": "FIFSResolvingRegistrar",
  "abi": [
    {
      "constant": true,
      "inputs": [],
      "name": "rootNode",
      "outputs": [
        {
          "name": "",
          "type": "bytes32"
        }
      ],
      "payable": false,
      "stateMutability": "view",
      "type": "function"
    },
    {
      "inputs": [
        {
          "name": "_ensAddr",
          "type": "address"
        },
        {
          "name": "_defaultResolver",
          "type": "address"
        },
        {
          "name": "_node",
          "type": "bytes32"
        }
      ],
      "payable": false,
      "stateMutability": "nonpayable",
      "type": "constructor"
    },
    {
      "anonymous": false,
      "inputs": [
        {
          "indexed": true,
          "name": "subnode",
          "type": "bytes32"
        },
        {
          "indexed": true,
          "name": "owner",
          "type": "address"
        },
        {
          "indexed": true,
          "name": "resolver",
          "type": "address"
        }
      ],
      "name": "ClaimSubdomain",
      "type": "event"
    },
    {
      "constant": false,
      "inputs": [
        {
          "name": "_subnode",
          "type": "bytes32"
        },
        {
          "name": "_owner",
          "type": "address"
        }
      ],
      "name": "register",
      "outputs": [],
      "payable": false,
      "stateMutability": "nonpayable",
      "type": "function"
    },
    {
      "constant": false,
      "inputs": [
        {
          "name": "_subnode",
          "type": "bytes32"
        },
        {
          "name": "_owner",
          "type": "address"
        },
        {
          "name": "_resolver",
          "type": "address"
        }
      ],
      "name": "registerWithResolver",
      "outputs": [],
      "payable": false,
      "stateMutability": "nonpayable",
      "type": "function"
    }
  ],
  "bytecode": "0x608060405234801561001057600080fd5b506040516060806104ac83398101604090815281516020830151919092015160018054600160a060020a03948516600160a060020a0319918216179091556002805494909316931692909217905560005561043c806100706000396000f30060806040526004361061003d5763ffffffff60e060020a600035041663d22057a98114610042578063f858fc0b14610068578063faff50a814610092575b600080fd5b34801561004e57600080fd5b50610066600435600160a060020a03602435166100b9565b005b34801561007457600080fd5b50610066600435600160a060020a03602435811690604435166100d6565b34801561009e57600080fd5b506100a761040a565b60408051918252519081900360200190f35b6002546100d29083908390600160a060020a03166100d6565b5050565b600080546040805191825260208083018790528151928390038201832060015460e060020a6302571be3028552600485018290529251909493600160a060020a03909316926302571be392602480830193919282900301818787803b15801561013e57600080fd5b505af1158015610152573d6000803e3d6000fd5b505050506040513d602081101561016857600080fd5b50519050600160a060020a0381161561018057600080fd5b600154600080546040805160e060020a6306ab592302815260048101929092526024820189905230604483015251600160a060020a03909316926306ab59239260648084019391929182900301818387803b1580156101de57600080fd5b505af11580156101f2573d6000803e3d6000fd5b50506001546040805160e160020a630c4b7b8502815260048101879052600160a060020a0388811660248301529151919092169350631896f70a9250604480830192600092919082900301818387803b15801561024e57600080fd5b505af1158015610262573d6000803e3d6000fd5b50506040805160e060020a6301ffc9a702815260e160020a631d9dabef0260048201529051600160a060020a03871693506301ffc9a7925060248083019260209291908290030181600087803b1580156102bb57600080fd5b505af11580156102cf573d6000803e3d6000fd5b505050506040513d60208110156102e557600080fd5b505115610359576040805160e860020a62d5fa2b02815260048101849052600160a060020a03868116602483015291519185169163d5fa2b009160448082019260009290919082900301818387803b15801561034057600080fd5b505af1158015610354573d6000803e3d6000fd5b505050505b6001546040805160e060020a635b0fc9c302815260048101859052600160a060020a03878116602483015291519190921691635b0fc9c391604480830192600092919082900301818387803b1580156103b157600080fd5b505af11580156103c5573d6000803e3d6000fd5b5050604051600160a060020a0380871693508716915087907fe27a5a369e0d2c5056ccfcbd5f83f145f43350142d42aaf46ff9a9e461d543df90600090a45050505050565b600054815600a165627a7a723058208ceea9af6c5bbca37fcf716d518f07d7403419d2828d4574c37f722cc13253ba0029",
  "source": "pragma solidity 0.4.24;\n\nimport \"@aragon/os/contracts/lib/ens/AbstractENS.sol\";\nimport \"./ens/IPublicResolver.sol\";\nimport \"./IFIFSResolvingRegistrar.sol\";\n\n\n/**\n * A registrar that allocates subdomains and sets resolvers to the first person to claim them.\n *\n * Adapted from ENS' FIFSRegistrar:\n *   https://github.com/ethereum/ens/blob/master/contracts/FIFSRegistrar.sol\n */\ncontract FIFSResolvingRegistrar is IFIFSResolvingRegistrar {\n    bytes32 public rootNode;\n    AbstractENS internal ens;\n    IPublicResolver internal defaultResolver;\n\n    bytes4 private constant ADDR_INTERFACE_ID = 0x3b3b57de;\n\n    event ClaimSubdomain(bytes32 indexed subnode, address indexed owner, address indexed resolver);\n\n    /**\n     * Constructor.\n     * @param _ensAddr The address of the ENS registry.\n     * @param _defaultResolver The address of the default resolver to use for subdomains.\n     * @param _node The node that this registrar administers.\n     */\n    constructor(AbstractENS _ensAddr, IPublicResolver _defaultResolver, bytes32 _node)\n        public\n    {\n        ens = _ensAddr;\n        defaultResolver = _defaultResolver;\n        rootNode = _node;\n    }\n\n    /**\n     * Register a subdomain with the default resolver if it hasn't been claimed yet.\n     * @param _subnode The hash of the label to register.\n     * @param _owner The address of the new owner.\n     */\n    function register(bytes32 _subnode, address _owner) external {\n        registerWithResolver(_subnode, _owner, defaultResolver);\n    }\n\n    /**\n     * Register a subdomain if it hasn't been claimed yet.\n     * @param _subnode The hash of the label to register.\n     * @param _owner The address of the new owner.\n     * @param _resolver The address of the resolver.\n     *                  If the resolver supports the address interface, the subdomain's address will\n     *                  be set to the new owner.\n     */\n    function registerWithResolver(bytes32 _subnode, address _owner, IPublicResolver _resolver) public {\n        bytes32 node = keccak256(rootNode, _subnode);\n        address currentOwner = ens.owner(node);\n        require(currentOwner == address(0));\n\n        ens.setSubnodeOwner(rootNode, _subnode, address(this));\n        ens.setResolver(node, _resolver);\n        if (_resolver.supportsInterface(ADDR_INTERFACE_ID)) {\n            _resolver.setAddr(node, _owner);\n        }\n\n        // Give ownership to the claimer\n        ens.setOwner(node, _owner);\n\n        emit ClaimSubdomain(_subnode, _owner, address(_resolver));\n    }\n}\n",
  "sourcePath": "@aragon/id/contracts/FIFSResolvingRegistrar.sol",
  "compiler": {
    "name": "solc",
    "version": "0.4.24+commit.e67f0147.Emscripten.clang"
  },
  "schemaVersion": "3.4.2",
  "updatedAt": "2021-10-14T14:14:04.073Z",
  "devdoc": {
    "methods": {
      "register(bytes32,address)": {
        "params": {
          "_owner": "The address of the new owner.",
          "_subnode": "The hash of the label to register."
        }
      },
      "registerWithResolver(bytes32,address,address)": {
        "params": {
          "_owner": "The address of the new owner.",
          "_resolver": "The address of the resolver.                 If the resolver supports the address interface, the subdomain's address will                 be set to the new owner.",
          "_subnode": "The hash of the label to register."
        }
      }
    }
  },
  "userdoc": {
    "methods": {
      "register(bytes32,address)": {
        "notice": "Register a subdomain with the default resolver if it hasn't been claimed yet."
      },
      "registerWithResolver(bytes32,address,address)": {
        "notice": "Register a subdomain if it hasn't been claimed yet."
      }
    }
  }
}