{
  "contractName": "Initializable",
  "abi": [
    {
      "constant": true,
      "inputs": [],
      "name": "getInitializationBlock",
      "outputs": [
        {
          "name": "",
          "type": "uint256"
        }
      ],
      "payable": false,
      "stateMutability": "view",
      "type": "function"
    },
    {
      "constant": true,
      "inputs": [],
      "name": "hasInitialized",
      "outputs": [
        {
          "name": "",
          "type": "bool"
        }
      ],
      "payable": false,
      "stateMutability": "view",
      "type": "function"
    }
  ],
  "bytecode": "0x608060405234801561001057600080fd5b50610104806100206000396000f300608060405260043610602f5763ffffffff60e060020a6000350416630803fac0811460345780638b3dd74914605a575b600080fd5b348015603f57600080fd5b506046607e565b604080519115158252519081900360200190f35b348015606557600080fd5b50606c60a2565b60408051918252519081900360200190f35b600080608760a2565b90508015801590609c575080609960d0565b10155b91505090565b600060cb7febb05b386a8d34882b8711d156f463690983dc47815980fb82aeeff1aa43579e60d4565b905090565b4390565b54905600a165627a7a723058206d22cbef671da526f0d179bc6cc7b80bb12b526927440c6151c406b8fbddf3600029",
  "source": "/*\n * SPDX-License-Identitifer:    MIT\n */\n\npragma solidity ^0.4.24;\n\nimport \"./TimeHelpers.sol\";\nimport \"./UnstructuredStorage.sol\";\n\n\ncontract Initializable is TimeHelpers {\n    using UnstructuredStorage for bytes32;\n\n    // keccak256(\"aragonOS.initializable.initializationBlock\")\n    bytes32 internal constant INITIALIZATION_BLOCK_POSITION = 0xebb05b386a8d34882b8711d156f463690983dc47815980fb82aeeff1aa43579e;\n\n    string private constant ERROR_ALREADY_INITIALIZED = \"INIT_ALREADY_INITIALIZED\";\n    string private constant ERROR_NOT_INITIALIZED = \"INIT_NOT_INITIALIZED\";\n\n    modifier onlyInit {\n        require(getInitializationBlock() == 0, ERROR_ALREADY_INITIALIZED);\n        _;\n    }\n\n    modifier isInitialized {\n        require(hasInitialized(), ERROR_NOT_INITIALIZED);\n        _;\n    }\n\n    /**\n    * @return Block number in which the contract was initialized\n    */\n    function getInitializationBlock() public view returns (uint256) {\n        return INITIALIZATION_BLOCK_POSITION.getStorageUint256();\n    }\n\n    /**\n    * @return Whether the contract has been initialized by the time of the current block\n    */\n    function hasInitialized() public view returns (bool) {\n        uint256 initializationBlock = getInitializationBlock();\n        return initializationBlock != 0 && getBlockNumber() >= initializationBlock;\n    }\n\n    /**\n    * @dev Function to be called by top level contract after initialization has finished.\n    */\n    function initialized() internal onlyInit {\n        INITIALIZATION_BLOCK_POSITION.setStorageUint256(getBlockNumber());\n    }\n\n    /**\n    * @dev Function to be called by top level contract after initialization to enable the contract\n    *      at a future block number rather than immediately.\n    */\n    function initializedAt(uint256 _blockNumber) internal onlyInit {\n        INITIALIZATION_BLOCK_POSITION.setStorageUint256(_blockNumber);\n    }\n}\n",
  "sourcePath": "@aragon/os/contracts/common/Initializable.sol",
  "compiler": {
    "name": "solc",
    "version": "0.4.24+commit.e67f0147.Emscripten.clang"
  },
  "schemaVersion": "3.4.2",
  "updatedAt": "2021-10-14T14:14:04.203Z",
  "devdoc": {
    "methods": {
      "getInitializationBlock()": {
        "return": "Block number in which the contract was initialized"
      },
      "hasInitialized()": {
        "return": "Whether the contract has been initialized by the time of the current block"
      }
    }
  },
  "userdoc": {
    "methods": {}
  }
}