{
  "contractName": "Kernel",
  "abi": [
    {
      "constant": true,
      "inputs": [],
      "name": "hasInitialized",
      "outputs": [
        {
          "name": "",
          "type": "bool"
        }
      ],
      "payable": false,
      "stateMutability": "view",
      "type": "function"
    },
    {
      "constant": true,
      "inputs": [
        {
          "name": "",
          "type": "bytes32"
        },
        {
          "name": "",
          "type": "bytes32"
        }
      ],
      "name": "apps",
      "outputs": [
        {
          "name": "",
          "type": "address"
        }
      ],
      "payable": false,
      "stateMutability": "view",
      "type": "function"
    },
    {
      "constant": true,
      "inputs": [
        {
          "name": "token",
          "type": "address"
        }
      ],
      "name": "allowRecoverability",
      "outputs": [
        {
          "name": "",
          "type": "bool"
        }
      ],
      "payable": false,
      "stateMutability": "view",
      "type": "function"
    },
    {
      "constant": true,
      "inputs": [],
      "name": "recoveryVaultAppId",
      "outputs": [
        {
          "name": "",
          "type": "bytes32"
        }
      ],
      "payable": false,
      "stateMutability": "view",
      "type": "function"
    },
    {
      "constant": true,
      "inputs": [],
      "name": "getInitializationBlock",
      "outputs": [
        {
          "name": "",
          "type": "uint256"
        }
      ],
      "payable": false,
      "stateMutability": "view",
      "type": "function"
    },
    {
      "constant": true,
      "inputs": [],
      "name": "APP_MANAGER_ROLE",
      "outputs": [
        {
          "name": "",
          "type": "bytes32"
        }
      ],
      "payable": false,
      "stateMutability": "view",
      "type": "function"
    },
    {
      "constant": false,
      "inputs": [
        {
          "name": "_token",
          "type": "address"
        }
      ],
      "name": "transferToVault",
      "outputs": [],
      "payable": false,
      "stateMutability": "nonpayable",
      "type": "function"
    },
    {
      "constant": false,
      "inputs": [
        {
          "name": "_kernel",
          "type": "address"
        },
        {
          "name": "_appId",
          "type": "bytes32"
        },
        {
          "name": "_initializePayload",
          "type": "bytes"
        }
      ],
      "name": "newAppProxyPinned",
      "outputs": [
        {
          "name": "",
          "type": "address"
        }
      ],
      "payable": false,
      "stateMutability": "nonpayable",
      "type": "function"
    },
    {
      "constant": true,
      "inputs": [],
      "name": "isPetrified",
      "outputs": [
        {
          "name": "",
          "type": "bool"
        }
      ],
      "payable": false,
      "stateMutability": "view",
      "type": "function"
    },
    {
      "constant": false,
      "inputs": [
        {
          "name": "_kernel",
          "type": "address"
        },
        {
          "name": "_appId",
          "type": "bytes32"
        }
      ],
      "name": "newAppProxy",
      "outputs": [
        {
          "name": "",
          "type": "address"
        }
      ],
      "payable": false,
      "stateMutability": "nonpayable",
      "type": "function"
    },
    {
      "constant": false,
      "inputs": [
        {
          "name": "_kernel",
          "type": "address"
        },
        {
          "name": "_appId",
          "type": "bytes32"
        },
        {
          "name": "_initializePayload",
          "type": "bytes"
        }
      ],
      "name": "newAppProxy",
      "outputs": [
        {
          "name": "",
          "type": "address"
        }
      ],
      "payable": false,
      "stateMutability": "nonpayable",
      "type": "function"
    },
    {
      "constant": false,
      "inputs": [
        {
          "name": "_kernel",
          "type": "address"
        },
        {
          "name": "_appId",
          "type": "bytes32"
        }
      ],
      "name": "newAppProxyPinned",
      "outputs": [
        {
          "name": "",
          "type": "address"
        }
      ],
      "payable": false,
      "stateMutability": "nonpayable",
      "type": "function"
    },
    {
      "inputs": [
        {
          "name": "_shouldPetrify",
          "type": "bool"
        }
      ],
      "payable": false,
      "stateMutability": "nonpayable",
      "type": "constructor"
    },
    {
      "anonymous": false,
      "inputs": [
        {
          "indexed": false,
          "name": "proxy",
          "type": "address"
        },
        {
          "indexed": false,
          "name": "isUpgradeable",
          "type": "bool"
        },
        {
          "indexed": false,
          "name": "appId",
          "type": "bytes32"
        }
      ],
      "name": "NewAppProxy",
      "type": "event"
    },
    {
      "anonymous": false,
      "inputs": [
        {
          "indexed": true,
          "name": "vault",
          "type": "address"
        },
        {
          "indexed": true,
          "name": "token",
          "type": "address"
        },
        {
          "indexed": false,
          "name": "amount",
          "type": "uint256"
        }
      ],
      "name": "RecoverToVault",
      "type": "event"
    },
    {
      "anonymous": false,
      "inputs": [
        {
          "indexed": true,
          "name": "namespace",
          "type": "bytes32"
        },
        {
          "indexed": true,
          "name": "appId",
          "type": "bytes32"
        },
        {
          "indexed": false,
          "name": "app",
          "type": "address"
        }
      ],
      "name": "SetApp",
      "type": "event"
    },
    {
      "constant": false,
      "inputs": [
        {
          "name": "_baseAcl",
          "type": "address"
        },
        {
          "name": "_permissionsCreator",
          "type": "address"
        }
      ],
      "name": "initialize",
      "outputs": [],
      "payable": false,
      "stateMutability": "nonpayable",
      "type": "function"
    },
    {
      "constant": false,
      "inputs": [
        {
          "name": "_appId",
          "type": "bytes32"
        },
        {
          "name": "_appBase",
          "type": "address"
        },
        {
          "name": "_initializePayload",
          "type": "bytes"
        },
        {
          "name": "_setDefault",
          "type": "bool"
        }
      ],
      "name": "newAppInstance",
      "outputs": [
        {
          "name": "appProxy",
          "type": "address"
        }
      ],
      "payable": false,
      "stateMutability": "nonpayable",
      "type": "function"
    },
    {
      "constant": false,
      "inputs": [
        {
          "name": "_appId",
          "type": "bytes32"
        },
        {
          "name": "_appBase",
          "type": "address"
        }
      ],
      "name": "newAppInstance",
      "outputs": [
        {
          "name": "appProxy",
          "type": "address"
        }
      ],
      "payable": false,
      "stateMutability": "nonpayable",
      "type": "function"
    },
    {
      "constant": false,
      "inputs": [
        {
          "name": "_appId",
          "type": "bytes32"
        },
        {
          "name": "_appBase",
          "type": "address"
        }
      ],
      "name": "newPinnedAppInstance",
      "outputs": [
        {
          "name": "appProxy",
          "type": "address"
        }
      ],
      "payable": false,
      "stateMutability": "nonpayable",
      "type": "function"
    },
    {
      "constant": false,
      "inputs": [
        {
          "name": "_appId",
          "type": "bytes32"
        },
        {
          "name": "_appBase",
          "type": "address"
        },
        {
          "name": "_initializePayload",
          "type": "bytes"
        },
        {
          "name": "_setDefault",
          "type": "bool"
        }
      ],
      "name": "newPinnedAppInstance",
      "outputs": [
        {
          "name": "appProxy",
          "type": "address"
        }
      ],
      "payable": false,
      "stateMutability": "nonpayable",
      "type": "function"
    },
    {
      "constant": false,
      "inputs": [
        {
          "name": "_namespace",
          "type": "bytes32"
        },
        {
          "name": "_appId",
          "type": "bytes32"
        },
        {
          "name": "_app",
          "type": "address"
        }
      ],
      "name": "setApp",
      "outputs": [],
      "payable": false,
      "stateMutability": "nonpayable",
      "type": "function"
    },
    {
      "constant": false,
      "inputs": [
        {
          "name": "_recoveryVaultAppId",
          "type": "bytes32"
        }
      ],
      "name": "setRecoveryVaultAppId",
      "outputs": [],
      "payable": false,
      "stateMutability": "nonpayable",
      "type": "function"
    },
    {
      "constant": true,
      "inputs": [],
      "name": "CORE_NAMESPACE",
      "outputs": [
        {
          "name": "",
          "type": "bytes32"
        }
      ],
      "payable": false,
      "stateMutability": "pure",
      "type": "function"
    },
    {
      "constant": true,
      "inputs": [],
      "name": "APP_BASES_NAMESPACE",
      "outputs": [
        {
          "name": "",
          "type": "bytes32"
        }
      ],
      "payable": false,
      "stateMutability": "pure",
      "type": "function"
    },
    {
      "constant": true,
      "inputs": [],
      "name": "APP_ADDR_NAMESPACE",
      "outputs": [
        {
          "name": "",
          "type": "bytes32"
        }
      ],
      "payable": false,
      "stateMutability": "pure",
      "type": "function"
    },
    {
      "constant": true,
      "inputs": [],
      "name": "KERNEL_APP_ID",
      "outputs": [
        {
          "name": "",
          "type": "bytes32"
        }
      ],
      "payable": false,
      "stateMutability": "pure",
      "type": "function"
    },
    {
      "constant": true,
      "inputs": [],
      "name": "DEFAULT_ACL_APP_ID",
      "outputs": [
        {
          "name": "",
          "type": "bytes32"
        }
      ],
      "payable": false,
      "stateMutability": "pure",
      "type": "function"
    },
    {
      "constant": true,
      "inputs": [
        {
          "name": "_namespace",
          "type": "bytes32"
        },
        {
          "name": "_appId",
          "type": "bytes32"
        }
      ],
      "name": "getApp",
      "outputs": [
        {
          "name": "",
          "type": "address"
        }
      ],
      "payable": false,
      "stateMutability": "view",
      "type": "function"
    },
    {
      "constant": true,
      "inputs": [],
      "name": "getRecoveryVault",
      "outputs": [
        {
          "name": "",
          "type": "address"
        }
      ],
      "payable": false,
      "stateMutability": "view",
      "type": "function"
    },
    {
      "constant": true,
      "inputs": [],
      "name": "acl",
      "outputs": [
        {
          "name": "",
          "type": "address"
        }
      ],
      "payable": false,
      "stateMutability": "view",
      "type": "function"
    },
    {
      "constant": true,
      "inputs": [
        {
          "name": "_who",
          "type": "address"
        },
        {
          "name": "_where",
          "type": "address"
        },
        {
          "name": "_what",
          "type": "bytes32"
        },
        {
          "name": "_how",
          "type": "bytes"
        }
      ],
      "name": "hasPermission",
      "outputs": [
        {
          "name": "",
          "type": "bool"
        }
      ],
      "payable": false,
      "stateMutability": "view",
      "type": "function"
    }
  ],
  "bytecode": "0x60806040523480156200001157600080fd5b5060405160208062002b7d833981016040525180156200003e576200003e64010000000062000045810204565b5062000263565b620000586401000000006200014d810204565b60408051808201909152601881527f494e49545f414c52454144595f494e495449414c495a454400000000000000006020820152901562000134576040517f08c379a00000000000000000000000000000000000000000000000000000000081526004018080602001828103825283818151815260200191508051906020019080838360005b83811015620000f8578181015183820152602001620000de565b50505050905090810190601f168015620001265780820380516001836020036101000a031916815260200191505b509250505060405180910390fd5b506200014b6000196401000000006200017c810204565b565b60006200017760008051602062002b5d833981519152640100000000620017e26200025b82021704565b905090565b6200018f6401000000006200014d810204565b60408051808201909152601881527f494e49545f414c52454144595f494e495449414c495a45440000000000000000602082015290156200022e576040517f08c379a000000000000000000000000000000000000000000000000000000000815260040180806020018281038252838181518152602001915080519060200190808383600083811015620000f8578181015183820152602001620000de565b506200025860008051602062002b5d83398151915282640100000000620019ba6200025f82021704565b50565b5490565b9055565b6128ea80620002736000396000f3006080604052600436106200016d5763ffffffff60e060020a6000350416630803fac08114620001725780631113ed0d146200019e578063178e607914620001c857806332f0a3b514620001e0578063397edd4114620002145780634558850c1462000284578063485cc95514620002a2578063756f604914620002ce5780637e7db6e114620002e657806380cd5ac3146200030a57806386070cfe14620003315780638b3dd74914620003495780638c61757d14620003615780638ea8dc9d146200037c578063958fde8214620003945780639d4941d814620003bb578063ae5b254014620003df578063be00bbd81462000409578063c050a7a61462000427578063d162f8b01462000497578063db8a61d41462000503578063de287359146200051b578063de4796ed1462000533578063e156a8f3146200054b578063e8187ff01462000572578063ede658b0146200058a578063fdef910614620005f6578063ff289fc51462000668575b600080fd5b3480156200017f57600080fd5b506200018a6200068f565b604080519115158252519081900360200190f35b348015620001ab57600080fd5b50620001b6620006bd565b60408051918252519081900360200190f35b348015620001d557600080fd5b50620001b6620006e1565b348015620001ed57600080fd5b50620001f8620006f4565b60408051600160a060020a039092168252519081900360200190f35b3480156200022157600080fd5b50604080516020600460443581810135601f8101849004840285018401909552848452620001f89482359460248035600160a060020a03169536959460649492019190819084018382808284375094975050505091351515925062000731915050565b3480156200029157600080fd5b50620001f860043560243562000884565b348015620002af57600080fd5b50620002cc600160a060020a0360043581169060243516620008a7565b005b348015620002db57600080fd5b50620001b662000a49565b348015620002f357600080fd5b506200018a600160a060020a036004351662000a6d565b3480156200031757600080fd5b50620001f8600435600160a060020a036024351662000a73565b3480156200033e57600080fd5b50620001b662000b53565b3480156200035657600080fd5b50620001b662000b59565b3480156200036e57600080fd5b50620002cc60043562000b7a565b3480156200038957600080fd5b50620001b662000c37565b348015620003a157600080fd5b50620001f8600435600160a060020a036024351662000c4a565b348015620003c857600080fd5b50620002cc600160a060020a036004351662000d21565b348015620003ec57600080fd5b50620002cc600435602435600160a060020a036044351662000fbe565b3480156200041657600080fd5b50620001f860043560243562001079565b3480156200043457600080fd5b50604080516020600460443581810135601f8101849004840285018401909552848452620001f89482359460248035600160a060020a0316953695946064949201919081908401838280828437509497505050509135151592506200109d915050565b348015620004a457600080fd5b50604080516020600460443581810135601f8101849004840285018401909552848452620001f8948235600160a060020a0316946024803595369594606494920191908190840183828082843750949750620011799650505050505050565b3480156200051057600080fd5b50620001b662001273565b3480156200052857600080fd5b50620001f862001286565b3480156200054057600080fd5b506200018a620012b2565b3480156200055857600080fd5b50620001f8600160a060020a0360043516602435620012c7565b3480156200057f57600080fd5b50620001b6620012ed565b3480156200059757600080fd5b50604080516020600460443581810135601f8101849004840285018401909552848452620001f8948235600160a060020a0316946024803595369594606494920191908190840183828082843750949750620013009650505050505050565b3480156200060357600080fd5b50604080516020601f6064356004818101359283018490048402850184019095528184526200018a94600160a060020a038135811695602480359092169560443595369560849401918190840183828082843750949750620013fa9650505050505050565b3480156200067557600080fd5b50620001f8600160a060020a036004351660243562001527565b6000806200069c62000b59565b90508015801590620006b7575080620006b462001546565b10155b91505090565b7f3b4bf6bf3ad5000ecf0f989d5befde585c6860fea3e574a4fab4c49d1c177d9c90565b6000805160206200287f83398151915290565b60015460009081527f9e3eae70920eeef6013879bf9155b985893698c145361c31365929723678b2576020526040902054600160a060020a031690565b6000600080516020620027df8339815191526200075e600080516020620027ff833981519152876200154a565b62000776333084620007708562001558565b620013fa565b60408051808201909152601281526000805160206200285f83398151915260208201529015156200082b5760405160e560020a62461bcd0281526004018080602001828103825283818151815260200191508051906020019080838360005b83811015620007ef578181015183820152602001620007d5565b50505050905090810190601f1680156200081d5780820380516001836020036101000a031916815260200191505b509250505060405180910390fd5b5062000848600080516020620027ff833981519152888862001562565b6200085530888762001300565b925083156200087a576200087a6000805160206200287f833981519152888562000fbe565b5050949350505050565b6000602081815292815260408082209093529081522054600160a060020a031681565b6000620008b362000b59565b60408051808201909152601881526000805160206200281f833981519152602082015290156200092a5760405160e560020a62461bcd02815260040180806020018281038252838181518152602001915080519060200190808383600083811015620007ef578181015183820152602001620007d5565b506200093562001631565b62000960600080516020620027ff8339815191526000805160206200283f83398151915285620016e0565b6200097b306000805160206200283f833981519152620012c7565b905080600160a060020a031663c4d66de8836040518263ffffffff1660e060020a0281526004018082600160a060020a0316600160a060020a03168152602001915050600060405180830381600087803b158015620009d957600080fd5b505af1158015620009ee573d6000803e3d6000fd5b5062000a2092506000805160206200287f83398151915291506000805160206200283f833981519152905083620016e0565b50507f7e852e0fcfce6551c13800f1e7476f982525c2b5277ba14b24339c68416336d160015550565b7fc681a85306374a5ab27f0bbc385296a54bcd314a1948b6cf61c4ea1bc44bb9f890565b50600190565b6000600080516020620027df83398151915262000aa0600080516020620027ff833981519152856200154a565b62000ab2333084620007708562001558565b60408051808201909152601281526000805160206200285f833981519152602082015290151562000b2a5760405160e560020a62461bcd02815260040180806020018281038252838181518152602001915080519060200190808383600083811015620007ef578181015183820152602001620007d5565b506040805160008082526020820190925262000b4a918791879162000731565b95945050505050565b60015481565b600062000b75600080516020620027bf833981519152620017e2565b905090565b600080516020620027df83398151915262000ba56000805160206200287f833981519152836200154a565b62000bb7333084620007708562001558565b60408051808201909152601281526000805160206200285f833981519152602082015290151562000c2f5760405160e560020a62461bcd02815260040180806020018281038252838181518152602001915080519060200190808383600083811015620007ef578181015183820152602001620007d5565b505050600155565b600080516020620027df83398151915281565b6000600080516020620027df83398151915262000c77600080516020620027ff833981519152856200154a565b62000c89333084620007708562001558565b60408051808201909152601281526000805160206200285f833981519152602082015290151562000d015760405160e560020a62461bcd02815260040180806020018281038252838181518152602001915080519060200190808383600083811015620007ef578181015183820152602001620007d5565b506040805160008082526020820190925262000b4a91879187916200109d565b600080600062000d318462000a6d565b6040805180820190915260128152607260020a71149150d3d5915497d11254d0531313d5d15102602082015290151562000db25760405160e560020a62461bcd02815260040180806020018281038252838181518152602001915080519060200190808383600083811015620007ef578181015183820152602001620007d5565b5062000dbd620006f4565b925062000dca83620017e6565b60408051808201909152601a81527f5245434f5645525f5641554c545f4e4f545f434f4e5452414354000000000000602082015290151562000e535760405160e560020a62461bcd02815260040180806020018281038252838181518152602001915080519060200190808383600083811015620007ef578181015183820152602001620007d5565b50600160a060020a038416151562000ea75760405130319250600160a060020a0384169083156108fc029084906000818181858888f1935050505015801562000ea0573d6000803e3d6000fd5b5062000f6d565b508262000ec4600160a060020a0382163063ffffffff6200181516565b915062000ee2600160a060020a038216848463ffffffff6200190416565b60408051808201909152601d81527f5245434f5645525f544f4b454e5f5452414e534645525f4641494c4544000000602082015290151562000f6b5760405160e560020a62461bcd02815260040180806020018281038252838181518152602001915080519060200190808383600083811015620007ef578181015183820152602001620007d5565b505b83600160a060020a031683600160a060020a03167f596caf56044b55fb8c4ca640089bbc2b63cae3e978b851f5745cbb7c5b288e02846040518082815260200191505060405180910390a350505050565b600080516020620027df83398151915262000fda84846200154a565b62000fec333084620007708562001558565b60408051808201909152601281526000805160206200285f8339815191526020820152901515620010645760405160e560020a62461bcd02815260040180806020018281038252838181518152602001915080519060200190808383600083811015620007ef578181015183820152602001620007d5565b5062001072858585620016e0565b5050505050565b600091825260208281526040808420928452919052902054600160a060020a031690565b6000600080516020620027df833981519152620010ca600080516020620027ff833981519152876200154a565b620010dc333084620007708562001558565b60408051808201909152601281526000805160206200285f8339815191526020820152901515620011545760405160e560020a62461bcd02815260040180806020018281038252838181518152602001915080519060200190808383600083811015620007ef578181015183820152602001620007d5565b5062001171600080516020620027ff833981519152888862001562565b620008553088875b6000808484846200118962001a43565b600160a060020a038416815260208082018490526060604083018181528451918401919091528351909160808401919085019080838360005b83811015620011dc578181015183820152602001620011c2565b50505050905090810190601f1680156200120a5780820380516001836020036101000a031916815260200191505b50945050505050604051809103906000f0801580156200122e573d6000803e3d6000fd5b5060408051600160a060020a03831681526000602082015280820187905290519192506000805160206200289f833981519152919081900360600190a1949350505050565b600080516020620027ff83398151915290565b600062000b756000805160206200287f8339815191526000805160206200283f83398151915262001079565b6000600019620012c162000b59565b14905090565b60408051600080825260208201909252620012e6908490849062001300565b9392505050565b6000805160206200283f83398151915290565b6000808484846200131062001a54565b600160a060020a038416815260208082018490526060604083018181528451918401919091528351909160808401919085019080838360005b838110156200136357818101518382015260200162001349565b50505050905090810190601f168015620013915780820380516001836020036101000a031916815260200191505b50945050505050604051809103906000f080158015620013b5573d6000803e3d6000fd5b5060408051600160a060020a03831681526001602082015280820187905290519192506000805160206200289f833981519152919081900360600190a1949350505050565b6000806200140762001286565b9050600160a060020a038116158015906200151d575060405160e160020a637ef7c883028152600160a060020a03878116600483019081528782166024840152604483018790526080606484019081528651608485015286519285169363fdef9106938b938b938b938b9360a490910190602085019080838360005b838110156200149d57818101518382015260200162001483565b50505050905090810190601f168015620014cb5780820380516001836020036101000a031916815260200191505b5095505050505050602060405180830381600087803b158015620014ee57600080fd5b505af115801562001503573d6000803e3d6000fd5b505050506040513d60208110156200151a57600080fd5b50515b9695505050505050565b60408051600080825260208201909252620012e6908490849062001179565b4390565b6060620012e683836200195d565b8051602002815290565b600062001570848462001079565b9050600160a060020a038116156200161e5760408051808201909152601981527f4b45524e454c5f494e56414c49445f4150505f4348414e4745000000000000006020820152600160a060020a0382811690841614620016175760405160e560020a62461bcd02815260040180806020018281038252838181518152602001915080519060200190808383600083811015620007ef578181015183820152602001620007d5565b506200162b565b6200162b848484620016e0565b50505050565b6200163b62000b59565b60408051808201909152601881526000805160206200281f83398151915260208201529015620016b25760405160e560020a62461bcd02815260040180806020018281038252838181518152602001915080519060200190808383600083811015620007ef578181015183820152602001620007d5565b50620016de620016c162001546565b600080516020620027bf8339815191529063ffffffff620019ba16565b565b620016eb81620017e6565b60408051808201909152601781527f4b45524e454c5f4150505f4e4f545f434f4e54524143540000000000000000006020820152901515620017745760405160e560020a62461bcd02815260040180806020018281038252838181518152602001915080519060200190808383600083811015620007ef578181015183820152602001620007d5565b506000838152602081815260408083208584528252918290208054600160a060020a031916600160a060020a03851690811790915582519081529151849286927f2ec1ae0a449b7ae354b9dacfb3ade6b6332ba26b7fcbb935835fa39dd7263b2392918290030190a3505050565b5490565b600080600160a060020a03831615156200180457600091506200180f565b823b90506000811191505b50919050565b60408051600160a060020a038316602480830191909152825180830390910181526044909101909152602081018051600160e060020a031660e060020a6370a082310217905260009081806200186c8684620019be565b60408051808201909152601c81527f534146455f4552435f32305f42414c414e43455f52455645525445440000000060208201529193509150821515620018fa5760405160e560020a62461bcd02815260040180806020018281038252838181518152602001915080519060200190808383600083811015620007ef578181015183820152602001620007d5565b5095945050505050565b60408051600160a060020a03841660248201526044808201849052825180830390910181526064909101909152602081018051600160e060020a031660e060020a63a9059cbb0217905260009062000b4a8582620019f0565b6040805160028082526060808301845292602083019080388339019050509050828160008151811015156200198e57fe5b602090810290910101528051829082906001908110620019aa57fe5b6020908102909101015292915050565b9055565b6000806000806040516020818751602089018a5afa92506000831115620019e457805191505b50909590945092505050565b6000806040516020818551602087016000895af1600081111562001a39573d801562001a25576020811462001a2f5762001a37565b6001935062001a37565b600183511493505b505b5090949350505050565b6040516106c68062001a6683390190565b604051610693806200212c833901905600608060405234801561001057600080fd5b506040516106c63803806106c68339810160409081528151602083015191830151909201828282600061004b8464010000000061017a810204565b61005d836401000000006101a2810204565b61006f836401000000006101d9810204565b90506000825111156101185761008d816401000000006102a9810204565b151561009857600080fd5b80600160a060020a03168260405180828051906020019080838360005b838110156100cd5781810151838201526020016100b5565b50505050905090810190601f1680156100fa5780820380516001836020036101000a031916815260200191505b50915050600060405180830381855af4915050151561011857600080fd5b50505050610145610137836101d9640100000000026401000000009004565b6401000000006102d6810204565b6101676101596401000000006102fb810204565b6401000000006102a9810204565b151561017257600080fd5b505050610354565b61019f600080516020610686833981519152826401000000006102ef61032682021704565b50565b61019f7fd625496217aa6a3453eecb9c3489dc5a53e6c67b444329ea2b2cbc9ff547639b826401000000006102ef61032682021704565b60006101ec64010000000061032a810204565b604080517fbe00bbd80000000000000000000000000000000000000000000000000000000081527ff1f3eb40f5bc1ad1344716ced8b8a0431d840b5783aea1fd01786bc26f35ac0f6004820152602481018590529051600160a060020a03929092169163be00bbd8916044808201926020929091908290030181600087803b15801561027757600080fd5b505af115801561028b573d6000803e3d6000fd5b505050506040513d60208110156102a157600080fd5b505192915050565b600080600160a060020a03831615156102c557600091506102d0565b823b90506000811191505b50919050565b61019f6000805160206106a6833981519152826401000000006102ef61032682021704565b60006103216000805160206106a683398151915264010000000061028f61035082021704565b905090565b9055565b600061032160008051602061068683398151915264010000000061028f61035082021704565b5490565b610323806103636000396000f3006080604052600436106100535763ffffffff60e060020a6000350416634555d5c9811461011257806348a0c8dd146101395780635c60da1b1461016257806380afdea814610193578063d4aae0c4146101a8575b60006127105a10156100ca5760003411801561006d575036155b151561007857600080fd5b6100806101bd565b151561008b57600080fd5b6040805133815234602082015281517f15eeaa57c7bd188c1388020bcadc2c436ec60d647d36ef5b9eb3c742217ddee1929181900390910190a161010f565b6100d26101ed565b905061010f816000368080601f016020809104026020016040519081016040528093929190818152602001838380828437506101f7945050505050565b50005b34801561011e57600080fd5b50610127610238565b60408051918252519081900360200190f35b34801561014557600080fd5b5061014e6101bd565b604080519115158252519081900360200190f35b34801561016e57600080fd5b506101776101ed565b60408051600160a060020a039092168252519081900360200190f35b34801561019f57600080fd5b5061012761023d565b3480156101b457600080fd5b50610177610268565b60006101e87f665fd576fbbe6f247aff98f5c94a561e3f71ec2d3c988d56f12d342396c50cea61028f565b905090565b60006101e8610293565b6000610202836102be565b151561020d57600080fd5b612710905060008083516020850186855a03f43d604051816000823e828015610234578282f35b8282fd5b600190565b60006101e87fd625496217aa6a3453eecb9c3489dc5a53e6c67b444329ea2b2cbc9ff547639b61028f565b60006101e87f4172f0f7d2289153072b0a6ca36959e0cbe2efc3afe50fc81636caa96338137b5b5490565b60006101e87fdee64df20d65e53d7f51cb6ab6d921a0a6a638a91e942e1d8d02df28e31c038e61028f565b600080600160a060020a03831615156102da57600091506102e5565b823b90506000811191505b50919050565b5490565b9055565b90555600a165627a7a72305820285a43b24043b2883d937c760aaa11e349815dcbb4b7959b31a650edbaa3609a00294172f0f7d2289153072b0a6ca36959e0cbe2efc3afe50fc81636caa96338137bdee64df20d65e53d7f51cb6ab6d921a0a6a638a91e942e1d8d02df28e31c038e608060405234801561001057600080fd5b506040516106933803806106938339810160409081528151602083015191830151909201828282600061004b84640100000000610124810204565b61005d8364010000000061014c810204565b61006f83640100000000610183810204565b90506000825111156101185761008d81640100000000610253810204565b151561009857600080fd5b80600160a060020a03168260405180828051906020019080838360005b838110156100cd5781810151838201526020016100b5565b50505050905090810190601f1680156100fa5780820380516001836020036101000a031916815260200191505b50915050600060405180830381855af4915050151561011857600080fd5b505050505050506102b3565b6101496000805160206106738339815191528264010000000061037d61028082021704565b50565b6101497fd625496217aa6a3453eecb9c3489dc5a53e6c67b444329ea2b2cbc9ff547639b8264010000000061037d61028082021704565b6000610196640100000000610284810204565b604080517fbe00bbd80000000000000000000000000000000000000000000000000000000081527ff1f3eb40f5bc1ad1344716ced8b8a0431d840b5783aea1fd01786bc26f35ac0f6004820152602481018590529051600160a060020a03929092169163be00bbd8916044808201926020929091908290030181600087803b15801561022157600080fd5b505af1158015610235573d6000803e3d6000fd5b505050506040513d602081101561024b57600080fd5b505192915050565b600080600160a060020a038316151561026f576000915061027a565b823b90506000811191505b50919050565b9055565b60006102aa6000805160206106738339815191526401000000006102976102af82021704565b905090565b5490565b6103b1806102c26000396000f3006080604052600436106100535763ffffffff60e060020a6000350416634555d5c9811461011257806348a0c8dd146101395780635c60da1b1461016257806380afdea814610193578063d4aae0c4146101a8575b60006127105a10156100ca5760003411801561006d575036155b151561007857600080fd5b6100806101bd565b151561008b57600080fd5b6040805133815234602082015281517f15eeaa57c7bd188c1388020bcadc2c436ec60d647d36ef5b9eb3c742217ddee1929181900390910190a161010f565b6100d26101ed565b905061010f816000368080601f016020809104026020016040519081016040528093929190818152602001838380828437506101ff945050505050565b50005b34801561011e57600080fd5b50610127610240565b60408051918252519081900360200190f35b34801561014557600080fd5b5061014e6101bd565b604080519115158252519081900360200190f35b34801561016e57600080fd5b506101776101ed565b60408051600160a060020a039092168252519081900360200190f35b34801561019f57600080fd5b50610127610245565b3480156101b457600080fd5b50610177610270565b60006101e87f665fd576fbbe6f247aff98f5c94a561e3f71ec2d3c988d56f12d342396c50cea610297565b905090565b60006101e86101fa610245565b61029b565b600061020a8361034c565b151561021557600080fd5b612710905060008083516020850186855a03f43d604051816000823e82801561023c578282f35b8282fd5b600290565b60006101e87fd625496217aa6a3453eecb9c3489dc5a53e6c67b444329ea2b2cbc9ff547639b610297565b60006101e87f4172f0f7d2289153072b0a6ca36959e0cbe2efc3afe50fc81636caa96338137b5b5490565b60006102a5610270565b6040805160e360020a6317c0177b0281527ff1f3eb40f5bc1ad1344716ced8b8a0431d840b5783aea1fd01786bc26f35ac0f6004820152602481018590529051600160a060020a03929092169163be00bbd8916044808201926020929091908290030181600087803b15801561031a57600080fd5b505af115801561032e573d6000803e3d6000fd5b505050506040513d602081101561034457600080fd5b505192915050565b600080600160a060020a03831615156103685760009150610373565b823b90506000811191505b50919050565b5490565b9055565b90555600a165627a7a72305820668cbb83f1fdb9eee4c295de4e6c0ab2fe5fc9ef5bcf0d9fa8ef88c16b8a5d6f00294172f0f7d2289153072b0a6ca36959e0cbe2efc3afe50fc81636caa96338137bebb05b386a8d34882b8711d156f463690983dc47815980fb82aeeff1aa43579eb6d92708f3d4817afc106147d969e229ced5c46e65e0a5002a0d391287762bd0f1f3eb40f5bc1ad1344716ced8b8a0431d840b5783aea1fd01786bc26f35ac0f494e49545f414c52454144595f494e495449414c495a45440000000000000000e3262375f45a6e2026b7e7b18c2b807434f2508fe1a2a3dfb493c7df8f4aad6a4b45524e454c5f415554485f4641494c45440000000000000000000000000000d6f028ca0e8edb4a8c9757ca4fdccab25fa1e0317da1188108f7d2dee14902fbd880e726dced8808d727f02dd0e6fdd3a945b24bfee77e13367bcbe61ddbaf47a165627a7a723058203893deff65c5ce685ed1f089675c5f03f611827159e1c0b7416a7cb28de77df80029ebb05b386a8d34882b8711d156f463690983dc47815980fb82aeeff1aa43579e",
  "source": "pragma solidity 0.4.24;\n\nimport \"./IKernel.sol\";\nimport \"./KernelConstants.sol\";\nimport \"./KernelStorage.sol\";\nimport \"../acl/IACL.sol\";\nimport \"../acl/ACLSyntaxSugar.sol\";\nimport \"../common/ConversionHelpers.sol\";\nimport \"../common/IsContract.sol\";\nimport \"../common/Petrifiable.sol\";\nimport \"../common/VaultRecoverable.sol\";\nimport \"../factory/AppProxyFactory.sol\";\nimport \"../lib/misc/ERCProxy.sol\";\n\n\n// solium-disable-next-line max-len\ncontract Kernel is IKernel, KernelStorage, KernelAppIds, KernelNamespaceConstants, Petrifiable, IsContract, VaultRecoverable, AppProxyFactory, ACLSyntaxSugar {\n    /* Hardcoded constants to save gas\n    bytes32 public constant APP_MANAGER_ROLE = keccak256(\"APP_MANAGER_ROLE\");\n    */\n    bytes32 public constant APP_MANAGER_ROLE = 0xb6d92708f3d4817afc106147d969e229ced5c46e65e0a5002a0d391287762bd0;\n\n    string private constant ERROR_APP_NOT_CONTRACT = \"KERNEL_APP_NOT_CONTRACT\";\n    string private constant ERROR_INVALID_APP_CHANGE = \"KERNEL_INVALID_APP_CHANGE\";\n    string private constant ERROR_AUTH_FAILED = \"KERNEL_AUTH_FAILED\";\n\n    /**\n    * @dev Constructor that allows the deployer to choose if the base instance should be petrified immediately.\n    * @param _shouldPetrify Immediately petrify this instance so that it can never be initialized\n    */\n    constructor(bool _shouldPetrify) public {\n        if (_shouldPetrify) {\n            petrify();\n        }\n    }\n\n    /**\n    * @dev Initialize can only be called once. It saves the block number in which it was initialized.\n    * @notice Initialize this kernel instance along with its ACL and set `_permissionsCreator` as the entity that can create other permissions\n    * @param _baseAcl Address of base ACL app\n    * @param _permissionsCreator Entity that will be given permission over createPermission\n    */\n    function initialize(IACL _baseAcl, address _permissionsCreator) public onlyInit {\n        initialized();\n\n        // Set ACL base\n        _setApp(KERNEL_APP_BASES_NAMESPACE, KERNEL_DEFAULT_ACL_APP_ID, _baseAcl);\n\n        // Create ACL instance and attach it as the default ACL app\n        IACL acl = IACL(newAppProxy(this, KERNEL_DEFAULT_ACL_APP_ID));\n        acl.initialize(_permissionsCreator);\n        _setApp(KERNEL_APP_ADDR_NAMESPACE, KERNEL_DEFAULT_ACL_APP_ID, acl);\n\n        recoveryVaultAppId = KERNEL_DEFAULT_VAULT_APP_ID;\n    }\n\n    /**\n    * @dev Create a new instance of an app linked to this kernel\n    * @notice Create a new upgradeable instance of `_appId` app linked to the Kernel, setting its code to `_appBase`\n    * @param _appId Identifier for app\n    * @param _appBase Address of the app's base implementation\n    * @return AppProxy instance\n    */\n    function newAppInstance(bytes32 _appId, address _appBase)\n        public\n        auth(APP_MANAGER_ROLE, arr(KERNEL_APP_BASES_NAMESPACE, _appId))\n        returns (ERCProxy appProxy)\n    {\n        return newAppInstance(_appId, _appBase, new bytes(0), false);\n    }\n\n    /**\n    * @dev Create a new instance of an app linked to this kernel and set its base\n    *      implementation if it was not already set\n    * @notice Create a new upgradeable instance of `_appId` app linked to the Kernel, setting its code to `_appBase`. `_setDefault ? 'Also sets it as the default app instance.':''`\n    * @param _appId Identifier for app\n    * @param _appBase Address of the app's base implementation\n    * @param _initializePayload Payload for call made by the proxy during its construction to initialize\n    * @param _setDefault Whether the app proxy app is the default one.\n    *        Useful when the Kernel needs to know of an instance of a particular app,\n    *        like Vault for escape hatch mechanism.\n    * @return AppProxy instance\n    */\n    function newAppInstance(bytes32 _appId, address _appBase, bytes _initializePayload, bool _setDefault)\n        public\n        auth(APP_MANAGER_ROLE, arr(KERNEL_APP_BASES_NAMESPACE, _appId))\n        returns (ERCProxy appProxy)\n    {\n        _setAppIfNew(KERNEL_APP_BASES_NAMESPACE, _appId, _appBase);\n        appProxy = newAppProxy(this, _appId, _initializePayload);\n        // By calling setApp directly and not the internal functions, we make sure the params are checked\n        // and it will only succeed if sender has permissions to set something to the namespace.\n        if (_setDefault) {\n            setApp(KERNEL_APP_ADDR_NAMESPACE, _appId, appProxy);\n        }\n    }\n\n    /**\n    * @dev Create a new pinned instance of an app linked to this kernel\n    * @notice Create a new non-upgradeable instance of `_appId` app linked to the Kernel, setting its code to `_appBase`.\n    * @param _appId Identifier for app\n    * @param _appBase Address of the app's base implementation\n    * @return AppProxy instance\n    */\n    function newPinnedAppInstance(bytes32 _appId, address _appBase)\n        public\n        auth(APP_MANAGER_ROLE, arr(KERNEL_APP_BASES_NAMESPACE, _appId))\n        returns (ERCProxy appProxy)\n    {\n        return newPinnedAppInstance(_appId, _appBase, new bytes(0), false);\n    }\n\n    /**\n    * @dev Create a new pinned instance of an app linked to this kernel and set\n    *      its base implementation if it was not already set\n    * @notice Create a new non-upgradeable instance of `_appId` app linked to the Kernel, setting its code to `_appBase`. `_setDefault ? 'Also sets it as the default app instance.':''`\n    * @param _appId Identifier for app\n    * @param _appBase Address of the app's base implementation\n    * @param _initializePayload Payload for call made by the proxy during its construction to initialize\n    * @param _setDefault Whether the app proxy app is the default one.\n    *        Useful when the Kernel needs to know of an instance of a particular app,\n    *        like Vault for escape hatch mechanism.\n    * @return AppProxy instance\n    */\n    function newPinnedAppInstance(bytes32 _appId, address _appBase, bytes _initializePayload, bool _setDefault)\n        public\n        auth(APP_MANAGER_ROLE, arr(KERNEL_APP_BASES_NAMESPACE, _appId))\n        returns (ERCProxy appProxy)\n    {\n        _setAppIfNew(KERNEL_APP_BASES_NAMESPACE, _appId, _appBase);\n        appProxy = newAppProxyPinned(this, _appId, _initializePayload);\n        // By calling setApp directly and not the internal functions, we make sure the params are checked\n        // and it will only succeed if sender has permissions to set something to the namespace.\n        if (_setDefault) {\n            setApp(KERNEL_APP_ADDR_NAMESPACE, _appId, appProxy);\n        }\n    }\n\n    /**\n    * @dev Set the resolving address of an app instance or base implementation\n    * @notice Set the resolving address of `_appId` in namespace `_namespace` to `_app`\n    * @param _namespace App namespace to use\n    * @param _appId Identifier for app\n    * @param _app Address of the app instance or base implementation\n    * @return ID of app\n    */\n    function setApp(bytes32 _namespace, bytes32 _appId, address _app)\n        public\n        auth(APP_MANAGER_ROLE, arr(_namespace, _appId))\n    {\n        _setApp(_namespace, _appId, _app);\n    }\n\n    /**\n    * @dev Set the default vault id for the escape hatch mechanism\n    * @param _recoveryVaultAppId Identifier of the recovery vault app\n    */\n    function setRecoveryVaultAppId(bytes32 _recoveryVaultAppId)\n        public\n        auth(APP_MANAGER_ROLE, arr(KERNEL_APP_ADDR_NAMESPACE, _recoveryVaultAppId))\n    {\n        recoveryVaultAppId = _recoveryVaultAppId;\n    }\n\n    // External access to default app id and namespace constants to mimic default getters for constants\n    /* solium-disable function-order, mixedcase */\n    function CORE_NAMESPACE() external pure returns (bytes32) { return KERNEL_CORE_NAMESPACE; }\n    function APP_BASES_NAMESPACE() external pure returns (bytes32) { return KERNEL_APP_BASES_NAMESPACE; }\n    function APP_ADDR_NAMESPACE() external pure returns (bytes32) { return KERNEL_APP_ADDR_NAMESPACE; }\n    function KERNEL_APP_ID() external pure returns (bytes32) { return KERNEL_CORE_APP_ID; }\n    function DEFAULT_ACL_APP_ID() external pure returns (bytes32) { return KERNEL_DEFAULT_ACL_APP_ID; }\n    /* solium-enable function-order, mixedcase */\n\n    /**\n    * @dev Get the address of an app instance or base implementation\n    * @param _namespace App namespace to use\n    * @param _appId Identifier for app\n    * @return Address of the app\n    */\n    function getApp(bytes32 _namespace, bytes32 _appId) public view returns (address) {\n        return apps[_namespace][_appId];\n    }\n\n    /**\n    * @dev Get the address of the recovery Vault instance (to recover funds)\n    * @return Address of the Vault\n    */\n    function getRecoveryVault() public view returns (address) {\n        return apps[KERNEL_APP_ADDR_NAMESPACE][recoveryVaultAppId];\n    }\n\n    /**\n    * @dev Get the installed ACL app\n    * @return ACL app\n    */\n    function acl() public view returns (IACL) {\n        return IACL(getApp(KERNEL_APP_ADDR_NAMESPACE, KERNEL_DEFAULT_ACL_APP_ID));\n    }\n\n    /**\n    * @dev Function called by apps to check ACL on kernel or to check permission status\n    * @param _who Sender of the original call\n    * @param _where Address of the app\n    * @param _what Identifier for a group of actions in app\n    * @param _how Extra data for ACL auth\n    * @return Boolean indicating whether the ACL allows the role or not.\n    *         Always returns false if the kernel hasn't been initialized yet.\n    */\n    function hasPermission(address _who, address _where, bytes32 _what, bytes _how) public view returns (bool) {\n        IACL defaultAcl = acl();\n        return address(defaultAcl) != address(0) && // Poor man's initialization check (saves gas)\n            defaultAcl.hasPermission(_who, _where, _what, _how);\n    }\n\n    function _setApp(bytes32 _namespace, bytes32 _appId, address _app) internal {\n        require(isContract(_app), ERROR_APP_NOT_CONTRACT);\n        apps[_namespace][_appId] = _app;\n        emit SetApp(_namespace, _appId, _app);\n    }\n\n    function _setAppIfNew(bytes32 _namespace, bytes32 _appId, address _app) internal {\n        address app = getApp(_namespace, _appId);\n        if (app != address(0)) {\n            // The only way to set an app is if it passes the isContract check, so no need to check it again\n            require(app == _app, ERROR_INVALID_APP_CHANGE);\n        } else {\n            _setApp(_namespace, _appId, _app);\n        }\n    }\n\n    modifier auth(bytes32 _role, uint256[] memory _params) {\n        require(\n            hasPermission(msg.sender, address(this), _role, ConversionHelpers.dangerouslyCastUintArrayToBytes(_params)),\n            ERROR_AUTH_FAILED\n        );\n        _;\n    }\n}\n",
  "sourcePath": "@aragon/os/contracts/kernel/Kernel.sol",
  "compiler": {
    "name": "solc",
    "version": "0.4.24+commit.e67f0147.Emscripten.clang"
  },
  "schemaVersion": "3.4.2",
  "updatedAt": "2021-10-14T14:14:04.324Z",
  "devdoc": {
    "methods": {
      "acl()": {
        "details": "Get the installed ACL app",
        "return": "ACL app"
      },
      "allowRecoverability(address)": {
        "details": "By default deriving from AragonApp makes it recoverable",
        "params": {
          "token": "Token address that would be recovered"
        },
        "return": "bool whether the app allows the recovery"
      },
      "getApp(bytes32,bytes32)": {
        "details": "Get the address of an app instance or base implementation",
        "params": {
          "_appId": "Identifier for app",
          "_namespace": "App namespace to use"
        },
        "return": "Address of the app"
      },
      "getInitializationBlock()": {
        "return": "Block number in which the contract was initialized"
      },
      "getRecoveryVault()": {
        "details": "Get the address of the recovery Vault instance (to recover funds)",
        "return": "Address of the Vault"
      },
      "hasInitialized()": {
        "return": "Whether the contract has been initialized by the time of the current block"
      },
      "hasPermission(address,address,bytes32,bytes)": {
        "details": "Function called by apps to check ACL on kernel or to check permission status",
        "params": {
          "_how": "Extra data for ACL auth",
          "_what": "Identifier for a group of actions in app",
          "_where": "Address of the app",
          "_who": "Sender of the original call"
        },
        "return": "Boolean indicating whether the ACL allows the role or not.        Always returns false if the kernel hasn't been initialized yet."
      },
      "initialize(address,address)": {
        "details": "Initialize can only be called once. It saves the block number in which it was initialized.",
        "params": {
          "_baseAcl": "Address of base ACL app",
          "_permissionsCreator": "Entity that will be given permission over createPermission"
        }
      },
      "newAppInstance(bytes32,address)": {
        "details": "Create a new instance of an app linked to this kernel",
        "params": {
          "_appBase": "Address of the app's base implementation",
          "_appId": "Identifier for app"
        },
        "return": "AppProxy instance"
      },
      "newAppInstance(bytes32,address,bytes,bool)": {
        "details": "Create a new instance of an app linked to this kernel and set its base     implementation if it was not already set",
        "params": {
          "_appBase": "Address of the app's base implementation",
          "_appId": "Identifier for app",
          "_initializePayload": "Payload for call made by the proxy during its construction to initialize",
          "_setDefault": "Whether the app proxy app is the default one.       Useful when the Kernel needs to know of an instance of a particular app,       like Vault for escape hatch mechanism."
        },
        "return": "AppProxy instance"
      },
      "newAppProxy(address,bytes32)": {
        "params": {
          "_appId": "Identifier for app",
          "_kernel": "App's Kernel reference"
        },
        "return": "AppProxyUpgradeable"
      },
      "newAppProxy(address,bytes32,bytes)": {
        "params": {
          "_appId": "Identifier for app",
          "_kernel": "App's Kernel reference"
        },
        "return": "AppProxyUpgradeable"
      },
      "newAppProxyPinned(address,bytes32)": {
        "params": {
          "_appId": "Identifier for app",
          "_kernel": "App's Kernel reference"
        },
        "return": "AppProxyPinned"
      },
      "newAppProxyPinned(address,bytes32,bytes)": {
        "params": {
          "_appId": "Identifier for app",
          "_initializePayload": "Proxy initialization payload",
          "_kernel": "App's Kernel reference"
        },
        "return": "AppProxyPinned"
      },
      "newPinnedAppInstance(bytes32,address)": {
        "details": "Create a new pinned instance of an app linked to this kernel",
        "params": {
          "_appBase": "Address of the app's base implementation",
          "_appId": "Identifier for app"
        },
        "return": "AppProxy instance"
      },
      "newPinnedAppInstance(bytes32,address,bytes,bool)": {
        "details": "Create a new pinned instance of an app linked to this kernel and set     its base implementation if it was not already set",
        "params": {
          "_appBase": "Address of the app's base implementation",
          "_appId": "Identifier for app",
          "_initializePayload": "Payload for call made by the proxy during its construction to initialize",
          "_setDefault": "Whether the app proxy app is the default one.       Useful when the Kernel needs to know of an instance of a particular app,       like Vault for escape hatch mechanism."
        },
        "return": "AppProxy instance"
      },
      "setApp(bytes32,bytes32,address)": {
        "details": "Set the resolving address of an app instance or base implementation",
        "params": {
          "_app": "Address of the app instance or base implementation",
          "_appId": "Identifier for app",
          "_namespace": "App namespace to use"
        },
        "return": "ID of app"
      },
      "setRecoveryVaultAppId(bytes32)": {
        "details": "Set the default vault id for the escape hatch mechanism",
        "params": {
          "_recoveryVaultAppId": "Identifier of the recovery vault app"
        }
      },
      "transferToVault(address)": {
        "params": {
          "_token": "Token balance to be sent to recovery vault."
        }
      }
    }
  },
  "userdoc": {
    "methods": {
      "initialize(address,address)": {
        "notice": "Initialize this kernel instance along with its ACL and set `_permissionsCreator` as the entity that can create other permissions"
      },
      "newAppInstance(bytes32,address)": {
        "notice": "Create a new upgradeable instance of `_appId` app linked to the Kernel, setting its code to `_appBase`"
      },
      "newAppInstance(bytes32,address,bytes,bool)": {
        "notice": "Create a new upgradeable instance of `_appId` app linked to the Kernel, setting its code to `_appBase`. `_setDefault ? 'Also sets it as the default app instance.':''`"
      },
      "newAppProxy(address,bytes32)": {
        "notice": "Create a new upgradeable app instance on `_kernel` with identifier `_appId`"
      },
      "newAppProxy(address,bytes32,bytes)": {
        "notice": "Create a new upgradeable app instance on `_kernel` with identifier `_appId` and initialization payload `_initializePayload`"
      },
      "newAppProxyPinned(address,bytes32)": {
        "notice": "Create a new pinned app instance on `_kernel` with identifier `_appId`"
      },
      "newAppProxyPinned(address,bytes32,bytes)": {
        "notice": "Create a new pinned app instance on `_kernel` with identifier `_appId` and initialization payload `_initializePayload`"
      },
      "newPinnedAppInstance(bytes32,address)": {
        "notice": "Create a new non-upgradeable instance of `_appId` app linked to the Kernel, setting its code to `_appBase`."
      },
      "newPinnedAppInstance(bytes32,address,bytes,bool)": {
        "notice": "Create a new non-upgradeable instance of `_appId` app linked to the Kernel, setting its code to `_appBase`. `_setDefault ? 'Also sets it as the default app instance.':''`"
      },
      "setApp(bytes32,bytes32,address)": {
        "notice": "Set the resolving address of `_appId` in namespace `_namespace` to `_app`"
      },
      "transferToVault(address)": {
        "notice": "Send funds to recovery Vault. This contract should never receive funds,        but in case it does, this function allows one to recover them."
      }
    }
  }
}