{
  "contractName": "KernelStorage",
  "abi": [
    {
      "constant": true,
      "inputs": [
        {
          "name": "",
          "type": "bytes32"
        },
        {
          "name": "",
          "type": "bytes32"
        }
      ],
      "name": "apps",
      "outputs": [
        {
          "name": "",
          "type": "address"
        }
      ],
      "payable": false,
      "stateMutability": "view",
      "type": "function"
    },
    {
      "constant": true,
      "inputs": [],
      "name": "recoveryVaultAppId",
      "outputs": [
        {
          "name": "",
          "type": "bytes32"
        }
      ],
      "payable": false,
      "stateMutability": "view",
      "type": "function"
    }
  ],
  "bytecode": "0x608060405234801561001057600080fd5b5060e18061001f6000396000f300608060405260043610602f5763ffffffff60e060020a6000350416634558850c8114603457806386070cfe146068575b600080fd5b348015603f57600080fd5b50604c600435602435608c565b60408051600160a060020a039092168252519081900360200190f35b348015607357600080fd5b50607a60af565b60408051918252519081900360200190f35b6000602081815292815260408082209093529081522054600160a060020a031681565b600154815600a165627a7a72305820428d58f85997c891a9ef0415c4b86246a051d366a454c0e556efd94bf6f8c7380029",
  "source": "pragma solidity 0.4.24;\n\n\ncontract KernelStorage {\n    // namespace => app id => address\n    mapping (bytes32 => mapping (bytes32 => address)) public apps;\n    bytes32 public recoveryVaultAppId;\n}\n",
  "sourcePath": "@aragon/os/contracts/kernel/KernelStorage.sol",
  "compiler": {
    "name": "solc",
    "version": "0.4.24+commit.e67f0147.Emscripten.clang"
  },
  "schemaVersion": "3.4.2",
  "updatedAt": "2021-10-14T14:14:04.361Z",
  "devdoc": {
    "methods": {}
  },
  "userdoc": {
    "methods": {}
  }
}