{
  "contractName": "Petrifiable",
  "abi": [
    {
      "constant": true,
      "inputs": [],
      "name": "hasInitialized",
      "outputs": [
        {
          "name": "",
          "type": "bool"
        }
      ],
      "payable": false,
      "stateMutability": "view",
      "type": "function"
    },
    {
      "constant": true,
      "inputs": [],
      "name": "getInitializationBlock",
      "outputs": [
        {
          "name": "",
          "type": "uint256"
        }
      ],
      "payable": false,
      "stateMutability": "view",
      "type": "function"
    },
    {
      "constant": true,
      "inputs": [],
      "name": "isPetrified",
      "outputs": [
        {
          "name": "",
          "type": "bool"
        }
      ],
      "payable": false,
      "stateMutability": "view",
      "type": "function"
    }
  ],
  "bytecode": "0x608060405234801561001057600080fd5b50610147806100206000396000f30060806040526004361061003d5763ffffffff60e060020a6000350416630803fac081146100425780638b3dd7491461006b578063de4796ed14610092575b600080fd5b34801561004e57600080fd5b506100576100a7565b604080519115158252519081900360200190f35b34801561007757600080fd5b506100806100d0565b60408051918252519081900360200190f35b34801561009e57600080fd5b50610057610100565b6000806100b26100d0565b905080158015906100ca5750806100c7610113565b10155b91505090565b60006100fb7febb05b386a8d34882b8711d156f463690983dc47815980fb82aeeff1aa43579e610117565b905090565b600060001961010d6100d0565b14905090565b4390565b54905600a165627a7a72305820c476713043b51452ec9e55de33c5d5931aa95d01407b75e038d106007f3739520029",
  "source": "/*\n * SPDX-License-Identitifer:    MIT\n */\n\npragma solidity ^0.4.24;\n\nimport \"./Initializable.sol\";\n\n\ncontract Petrifiable is Initializable {\n    // Use block UINT256_MAX (which should be never) as the initializable date\n    uint256 internal constant PETRIFIED_BLOCK = uint256(-1);\n\n    function isPetrified() public view returns (bool) {\n        return getInitializationBlock() == PETRIFIED_BLOCK;\n    }\n\n    /**\n    * @dev Function to be called by top level contract to prevent being initialized.\n    *      Useful for freezing base contracts when they're used behind proxies.\n    */\n    function petrify() internal onlyInit {\n        initializedAt(PETRIFIED_BLOCK);\n    }\n}\n",
  "sourcePath": "@aragon/os/contracts/common/Petrifiable.sol",
  "compiler": {
    "name": "solc",
    "version": "0.4.24+commit.e67f0147.Emscripten.clang"
  },
  "schemaVersion": "3.4.2",
  "updatedAt": "2021-10-14T14:14:04.206Z",
  "devdoc": {
    "methods": {
      "getInitializationBlock()": {
        "return": "Block number in which the contract was initialized"
      },
      "hasInitialized()": {
        "return": "Whether the contract has been initialized by the time of the current block"
      }
    }
  },
  "userdoc": {
    "methods": {}
  }
}