{
  "contractName": "Projects",
  "abi": [
    {
      "constant": true,
      "inputs": [],
      "name": "hasInitialized",
      "outputs": [
        {
          "name": "",
          "type": "bool"
        }
      ],
      "payable": false,
      "stateMutability": "view",
      "type": "function"
    },
    {
      "constant": true,
      "inputs": [],
      "name": "REMOVE_ISSUES_ROLE",
      "outputs": [
        {
          "name": "",
          "type": "bytes32"
        }
      ],
      "payable": false,
      "stateMutability": "view",
      "type": "function"
    },
    {
      "constant": true,
      "inputs": [],
      "name": "WORK_REVIEW_ROLE",
      "outputs": [
        {
          "name": "",
          "type": "bytes32"
        }
      ],
      "payable": false,
      "stateMutability": "view",
      "type": "function"
    },
    {
      "constant": true,
      "inputs": [],
      "name": "ADD_REPO_ROLE",
      "outputs": [
        {
          "name": "",
          "type": "bytes32"
        }
      ],
      "payable": false,
      "stateMutability": "view",
      "type": "function"
    },
    {
      "constant": true,
      "inputs": [],
      "name": "FUND_OPEN_ISSUES_ROLE",
      "outputs": [
        {
          "name": "",
          "type": "bytes32"
        }
      ],
      "payable": false,
      "stateMutability": "view",
      "type": "function"
    },
    {
      "constant": true,
      "inputs": [
        {
          "name": "_script",
          "type": "bytes"
        }
      ],
      "name": "getEVMScriptExecutor",
      "outputs": [
        {
          "name": "",
          "type": "address"
        }
      ],
      "payable": false,
      "stateMutability": "view",
      "type": "function"
    },
    {
      "constant": true,
      "inputs": [],
      "name": "getRecoveryVault",
      "outputs": [
        {
          "name": "",
          "type": "address"
        }
      ],
      "payable": false,
      "stateMutability": "view",
      "type": "function"
    },
    {
      "constant": true,
      "inputs": [],
      "name": "CHANGE_SETTINGS_ROLE",
      "outputs": [
        {
          "name": "",
          "type": "bytes32"
        }
      ],
      "payable": false,
      "stateMutability": "view",
      "type": "function"
    },
    {
      "constant": true,
      "inputs": [],
      "name": "REVIEW_APPLICATION_ROLE",
      "outputs": [
        {
          "name": "",
          "type": "bytes32"
        }
      ],
      "payable": false,
      "stateMutability": "view",
      "type": "function"
    },
    {
      "constant": true,
      "inputs": [],
      "name": "isDepositable",
      "outputs": [
        {
          "name": "",
          "type": "bool"
        }
      ],
      "payable": false,
      "stateMutability": "view",
      "type": "function"
    },
    {
      "constant": true,
      "inputs": [],
      "name": "bountiesRegistry",
      "outputs": [
        {
          "name": "",
          "type": "address"
        }
      ],
      "payable": false,
      "stateMutability": "view",
      "type": "function"
    },
    {
      "constant": true,
      "inputs": [],
      "name": "REMOVE_REPO_ROLE",
      "outputs": [
        {
          "name": "",
          "type": "bytes32"
        }
      ],
      "payable": false,
      "stateMutability": "view",
      "type": "function"
    },
    {
      "constant": true,
      "inputs": [
        {
          "name": "token",
          "type": "address"
        }
      ],
      "name": "allowRecoverability",
      "outputs": [
        {
          "name": "",
          "type": "bool"
        }
      ],
      "payable": false,
      "stateMutability": "view",
      "type": "function"
    },
    {
      "constant": true,
      "inputs": [],
      "name": "appId",
      "outputs": [
        {
          "name": "",
          "type": "bytes32"
        }
      ],
      "payable": false,
      "stateMutability": "view",
      "type": "function"
    },
    {
      "constant": true,
      "inputs": [],
      "name": "getInitializationBlock",
      "outputs": [
        {
          "name": "",
          "type": "uint256"
        }
      ],
      "payable": false,
      "stateMutability": "view",
      "type": "function"
    },
    {
      "constant": true,
      "inputs": [],
      "name": "CREATE_ISSUES_ROLE",
      "outputs": [
        {
          "name": "",
          "type": "bytes32"
        }
      ],
      "payable": false,
      "stateMutability": "view",
      "type": "function"
    },
    {
      "constant": false,
      "inputs": [
        {
          "name": "_token",
          "type": "address"
        }
      ],
      "name": "transferToVault",
      "outputs": [],
      "payable": false,
      "stateMutability": "nonpayable",
      "type": "function"
    },
    {
      "constant": true,
      "inputs": [
        {
          "name": "_sender",
          "type": "address"
        },
        {
          "name": "_role",
          "type": "bytes32"
        },
        {
          "name": "_params",
          "type": "uint256[]"
        }
      ],
      "name": "canPerform",
      "outputs": [
        {
          "name": "",
          "type": "bool"
        }
      ],
      "payable": false,
      "stateMutability": "view",
      "type": "function"
    },
    {
      "constant": true,
      "inputs": [],
      "name": "getEVMScriptRegistry",
      "outputs": [
        {
          "name": "",
          "type": "address"
        }
      ],
      "payable": false,
      "stateMutability": "view",
      "type": "function"
    },
    {
      "constant": true,
      "inputs": [],
      "name": "FUND_ISSUES_ROLE",
      "outputs": [
        {
          "name": "",
          "type": "bytes32"
        }
      ],
      "payable": false,
      "stateMutability": "view",
      "type": "function"
    },
    {
      "constant": true,
      "inputs": [],
      "name": "CURATE_ISSUES_ROLE",
      "outputs": [
        {
          "name": "",
          "type": "bytes32"
        }
      ],
      "payable": false,
      "stateMutability": "view",
      "type": "function"
    },
    {
      "constant": true,
      "inputs": [],
      "name": "kernel",
      "outputs": [
        {
          "name": "",
          "type": "address"
        }
      ],
      "payable": false,
      "stateMutability": "view",
      "type": "function"
    },
    {
      "constant": true,
      "inputs": [],
      "name": "isPetrified",
      "outputs": [
        {
          "name": "",
          "type": "bool"
        }
      ],
      "payable": false,
      "stateMutability": "view",
      "type": "function"
    },
    {
      "constant": true,
      "inputs": [],
      "name": "settings",
      "outputs": [
        {
          "name": "baseRate",
          "type": "uint256"
        },
        {
          "name": "bountyDeadline",
          "type": "uint256"
        },
        {
          "name": "bountyCurrency",
          "type": "address"
        }
      ],
      "payable": false,
      "stateMutability": "view",
      "type": "function"
    },
    {
      "constant": true,
      "inputs": [],
      "name": "UPDATE_BOUNTIES_ROLE",
      "outputs": [
        {
          "name": "",
          "type": "bytes32"
        }
      ],
      "payable": false,
      "stateMutability": "view",
      "type": "function"
    },
    {
      "constant": true,
      "inputs": [],
      "name": "vault",
      "outputs": [
        {
          "name": "",
          "type": "address"
        }
      ],
      "payable": false,
      "stateMutability": "view",
      "type": "function"
    },
    {
      "anonymous": false,
      "inputs": [
        {
          "indexed": true,
          "name": "repoId",
          "type": "bytes32"
        },
        {
          "indexed": false,
          "name": "index",
          "type": "uint256"
        },
        {
          "indexed": false,
          "name": "decoupled",
          "type": "bool"
        }
      ],
      "name": "RepoAdded",
      "type": "event"
    },
    {
      "anonymous": false,
      "inputs": [
        {
          "indexed": true,
          "name": "repoId",
          "type": "bytes32"
        },
        {
          "indexed": false,
          "name": "index",
          "type": "uint256"
        },
        {
          "indexed": false,
          "name": "repoData",
          "type": "string"
        }
      ],
      "name": "RepoUpdated",
      "type": "event"
    },
    {
      "anonymous": false,
      "inputs": [
        {
          "indexed": true,
          "name": "repoId",
          "type": "bytes32"
        },
        {
          "indexed": false,
          "name": "index",
          "type": "uint256"
        }
      ],
      "name": "RepoRemoved",
      "type": "event"
    },
    {
      "anonymous": false,
      "inputs": [
        {
          "indexed": false,
          "name": "repoId",
          "type": "bytes32"
        },
        {
          "indexed": false,
          "name": "issueNumber",
          "type": "uint256"
        },
        {
          "indexed": false,
          "name": "bountySize",
          "type": "uint256"
        },
        {
          "indexed": false,
          "name": "registryId",
          "type": "uint256"
        },
        {
          "indexed": false,
          "name": "ipfsHash",
          "type": "string"
        }
      ],
      "name": "IssueUpdated",
      "type": "event"
    },
    {
      "anonymous": false,
      "inputs": [
        {
          "indexed": false,
          "name": "repoId",
          "type": "bytes32"
        },
        {
          "indexed": false,
          "name": "issueNumber",
          "type": "uint256"
        },
        {
          "indexed": false,
          "name": "oldBountySize",
          "type": "uint256"
        }
      ],
      "name": "BountyRemoved",
      "type": "event"
    },
    {
      "anonymous": false,
      "inputs": [
        {
          "indexed": false,
          "name": "repoId",
          "type": "bytes32"
        }
      ],
      "name": "IssueCurated",
      "type": "event"
    },
    {
      "anonymous": false,
      "inputs": [],
      "name": "BountySettingsChanged",
      "type": "event"
    },
    {
      "anonymous": false,
      "inputs": [
        {
          "indexed": true,
          "name": "repoId",
          "type": "bytes32"
        },
        {
          "indexed": false,
          "name": "issueNumber",
          "type": "uint256"
        }
      ],
      "name": "AssignmentRequested",
      "type": "event"
    },
    {
      "anonymous": false,
      "inputs": [
        {
          "indexed": false,
          "name": "applicant",
          "type": "address"
        },
        {
          "indexed": true,
          "name": "repoId",
          "type": "bytes32"
        },
        {
          "indexed": false,
          "name": "issueNumber",
          "type": "uint256"
        }
      ],
      "name": "AssignmentApproved",
      "type": "event"
    },
    {
      "anonymous": false,
      "inputs": [
        {
          "indexed": false,
          "name": "applicant",
          "type": "address"
        },
        {
          "indexed": true,
          "name": "repoId",
          "type": "bytes32"
        },
        {
          "indexed": false,
          "name": "issueNumber",
          "type": "uint256"
        }
      ],
      "name": "AssignmentRejected",
      "type": "event"
    },
    {
      "anonymous": false,
      "inputs": [
        {
          "indexed": false,
          "name": "submissionNumber",
          "type": "uint256"
        },
        {
          "indexed": false,
          "name": "repoId",
          "type": "bytes32"
        },
        {
          "indexed": false,
          "name": "issueNumber",
          "type": "uint256"
        }
      ],
      "name": "SubmissionAccepted",
      "type": "event"
    },
    {
      "anonymous": false,
      "inputs": [
        {
          "indexed": false,
          "name": "submissionNumber",
          "type": "uint256"
        },
        {
          "indexed": false,
          "name": "repoId",
          "type": "bytes32"
        },
        {
          "indexed": false,
          "name": "issueNumber",
          "type": "uint256"
        }
      ],
      "name": "SubmissionRejected",
      "type": "event"
    },
    {
      "anonymous": false,
      "inputs": [
        {
          "indexed": false,
          "name": "repoId",
          "type": "bytes32"
        },
        {
          "indexed": false,
          "name": "issueNumber",
          "type": "uint256"
        }
      ],
      "name": "AwaitingSubmissions",
      "type": "event"
    },
    {
      "anonymous": false,
      "inputs": [
        {
          "indexed": true,
          "name": "executor",
          "type": "address"
        },
        {
          "indexed": false,
          "name": "script",
          "type": "bytes"
        },
        {
          "indexed": false,
          "name": "input",
          "type": "bytes"
        },
        {
          "indexed": false,
          "name": "returnData",
          "type": "bytes"
        }
      ],
      "name": "ScriptResult",
      "type": "event"
    },
    {
      "anonymous": false,
      "inputs": [
        {
          "indexed": true,
          "name": "vault",
          "type": "address"
        },
        {
          "indexed": true,
          "name": "token",
          "type": "address"
        },
        {
          "indexed": false,
          "name": "amount",
          "type": "uint256"
        }
      ],
      "name": "RecoverToVault",
      "type": "event"
    },
    {
      "constant": false,
      "inputs": [
        {
          "name": "_bountiesAddr",
          "type": "address"
        },
        {
          "name": "_vault",
          "type": "address"
        }
      ],
      "name": "initialize",
      "outputs": [],
      "payable": false,
      "stateMutability": "nonpayable",
      "type": "function"
    },
    {
      "constant": false,
      "inputs": [
        {
          "name": "_expMultipliers",
          "type": "uint256[]"
        },
        {
          "name": "_expLevels",
          "type": "bytes32[]"
        },
        {
          "name": "_baseRate",
          "type": "uint256"
        },
        {
          "name": "_bountyDeadline",
          "type": "uint256"
        },
        {
          "name": "_bountyCurrency",
          "type": "address"
        },
        {
          "name": "_bountyAllocator",
          "type": "address"
        }
      ],
      "name": "changeBountySettings",
      "outputs": [],
      "payable": false,
      "stateMutability": "nonpayable",
      "type": "function"
    },
    {
      "constant": true,
      "inputs": [
        {
          "name": "_repoId",
          "type": "bytes32"
        },
        {
          "name": "_issueNumber",
          "type": "uint256"
        }
      ],
      "name": "getIssue",
      "outputs": [
        {
          "name": "standardBountyId",
          "type": "uint256"
        },
        {
          "name": "fulfilled",
          "type": "uint256"
        },
        {
          "name": "balance",
          "type": "uint256"
        },
        {
          "name": "assignee",
          "type": "address"
        },
        {
          "name": "data",
          "type": "string"
        }
      ],
      "payable": false,
      "stateMutability": "view",
      "type": "function"
    },
    {
      "constant": true,
      "inputs": [],
      "name": "getReposCount",
      "outputs": [
        {
          "name": "count",
          "type": "uint256"
        }
      ],
      "payable": false,
      "stateMutability": "view",
      "type": "function"
    },
    {
      "constant": true,
      "inputs": [
        {
          "name": "_repoId",
          "type": "bytes32"
        }
      ],
      "name": "getRepo",
      "outputs": [
        {
          "name": "index",
          "type": "uint256"
        },
        {
          "name": "openIssueCount",
          "type": "uint256"
        },
        {
          "name": "decoupled",
          "type": "bool"
        },
        {
          "name": "repoData",
          "type": "string"
        }
      ],
      "payable": false,
      "stateMutability": "view",
      "type": "function"
    },
    {
      "constant": true,
      "inputs": [],
      "name": "getSettings",
      "outputs": [
        {
          "name": "expMultipliers",
          "type": "uint256[]"
        },
        {
          "name": "expLevels",
          "type": "bytes32[]"
        },
        {
          "name": "baseRate",
          "type": "uint256"
        },
        {
          "name": "bountyDeadline",
          "type": "uint256"
        },
        {
          "name": "bountyCurrency",
          "type": "address"
        },
        {
          "name": "bountyAllocator",
          "type": "address"
        }
      ],
      "payable": false,
      "stateMutability": "view",
      "type": "function"
    },
    {
      "constant": false,
      "inputs": [
        {
          "name": "_repoId",
          "type": "bytes32"
        },
        {
          "name": "_decoupled",
          "type": "bool"
        },
        {
          "name": "_projectData",
          "type": "string"
        }
      ],
      "name": "setRepo",
      "outputs": [],
      "payable": false,
      "stateMutability": "nonpayable",
      "type": "function"
    },
    {
      "constant": false,
      "inputs": [
        {
          "name": "_repoId",
          "type": "bytes32"
        },
        {
          "name": "_issueNumber",
          "type": "uint256"
        },
        {
          "name": "_issueData",
          "type": "string"
        }
      ],
      "name": "setIssue",
      "outputs": [],
      "payable": false,
      "stateMutability": "nonpayable",
      "type": "function"
    },
    {
      "constant": false,
      "inputs": [
        {
          "name": "_repoId",
          "type": "bytes32"
        }
      ],
      "name": "removeRepo",
      "outputs": [],
      "payable": false,
      "stateMutability": "nonpayable",
      "type": "function"
    },
    {
      "constant": false,
      "inputs": [
        {
          "name": "_repoId",
          "type": "bytes32"
        },
        {
          "name": "_issueNumber",
          "type": "uint256"
        },
        {
          "name": "_application",
          "type": "string"
        }
      ],
      "name": "requestAssignment",
      "outputs": [],
      "payable": false,
      "stateMutability": "nonpayable",
      "type": "function"
    },
    {
      "constant": false,
      "inputs": [
        {
          "name": "_repoId",
          "type": "bytes32"
        },
        {
          "name": "_issueNumber",
          "type": "uint256"
        },
        {
          "name": "_requestor",
          "type": "address"
        },
        {
          "name": "_updatedApplication",
          "type": "string"
        },
        {
          "name": "_approved",
          "type": "bool"
        }
      ],
      "name": "reviewApplication",
      "outputs": [],
      "payable": false,
      "stateMutability": "nonpayable",
      "type": "function"
    },
    {
      "constant": false,
      "inputs": [
        {
          "name": "_repoId",
          "type": "bytes32"
        },
        {
          "name": "_issueNumber",
          "type": "uint256"
        },
        {
          "name": "_submissionNumber",
          "type": "uint256"
        },
        {
          "name": "_approved",
          "type": "bool"
        },
        {
          "name": "_updatedSubmissionHash",
          "type": "string"
        },
        {
          "name": "_tokenAmounts",
          "type": "uint256[]"
        }
      ],
      "name": "reviewSubmission",
      "outputs": [],
      "payable": false,
      "stateMutability": "nonpayable",
      "type": "function"
    },
    {
      "constant": false,
      "inputs": [
        {
          "name": "_repoId",
          "type": "bytes32"
        },
        {
          "name": "_issueNumber",
          "type": "uint256"
        },
        {
          "name": "_data",
          "type": "string"
        },
        {
          "name": "_deadline",
          "type": "uint256"
        },
        {
          "name": "_description",
          "type": "string"
        }
      ],
      "name": "updateBounty",
      "outputs": [],
      "payable": false,
      "stateMutability": "nonpayable",
      "type": "function"
    },
    {
      "constant": false,
      "inputs": [
        {
          "name": "_repoIds",
          "type": "bytes32[]"
        },
        {
          "name": "_issueNumbers",
          "type": "uint256[]"
        },
        {
          "name": "_description",
          "type": "string"
        }
      ],
      "name": "removeBounties",
      "outputs": [],
      "payable": false,
      "stateMutability": "nonpayable",
      "type": "function"
    },
    {
      "constant": true,
      "inputs": [
        {
          "name": "_sender",
          "type": "address"
        },
        {
          "name": "_bountyId",
          "type": "uint256"
        },
        {
          "name": "_fulfillers",
          "type": "address[]"
        },
        {
          "name": "_data",
          "type": "string"
        }
      ],
      "name": "fulfillBounty",
      "outputs": [],
      "payable": false,
      "stateMutability": "pure",
      "type": "function"
    },
    {
      "constant": true,
      "inputs": [
        {
          "name": "_repoId",
          "type": "bytes32"
        },
        {
          "name": "_issueNumber",
          "type": "uint256"
        }
      ],
      "name": "getApplicantsLength",
      "outputs": [
        {
          "name": "applicantQty",
          "type": "uint256"
        }
      ],
      "payable": false,
      "stateMutability": "view",
      "type": "function"
    },
    {
      "constant": true,
      "inputs": [
        {
          "name": "_repoId",
          "type": "bytes32"
        },
        {
          "name": "_issueNumber",
          "type": "uint256"
        },
        {
          "name": "_idx",
          "type": "uint256"
        }
      ],
      "name": "getApplicant",
      "outputs": [
        {
          "name": "applicant",
          "type": "address"
        },
        {
          "name": "application",
          "type": "string"
        },
        {
          "name": "status",
          "type": "uint8"
        }
      ],
      "payable": false,
      "stateMutability": "view",
      "type": "function"
    },
    {
      "constant": false,
      "inputs": [
        {
          "name": "_repoIds",
          "type": "bytes32[]"
        },
        {
          "name": "_issueNumbers",
          "type": "uint256[]"
        },
        {
          "name": "_bountySizes",
          "type": "uint256[]"
        },
        {
          "name": "_deadlines",
          "type": "uint256[]"
        },
        {
          "name": "_tokenTypes",
          "type": "uint256[]"
        },
        {
          "name": "_tokenContracts",
          "type": "address[]"
        },
        {
          "name": "_ipfsAddresses",
          "type": "string"
        },
        {
          "name": "_description",
          "type": "string"
        }
      ],
      "name": "addBounties",
      "outputs": [],
      "payable": true,
      "stateMutability": "payable",
      "type": "function"
    },
    {
      "constant": false,
      "inputs": [
        {
          "name": "_repoIds",
          "type": "bytes32[]"
        },
        {
          "name": "_issueNumbers",
          "type": "uint256[]"
        },
        {
          "name": "_bountySizes",
          "type": "uint256[]"
        },
        {
          "name": "_deadlines",
          "type": "uint256[]"
        },
        {
          "name": "_tokenTypes",
          "type": "uint256[]"
        },
        {
          "name": "_tokenContracts",
          "type": "address[]"
        },
        {
          "name": "_ipfsAddresses",
          "type": "string"
        },
        {
          "name": "_description",
          "type": "string"
        }
      ],
      "name": "addBountiesNoAssignment",
      "outputs": [],
      "payable": true,
      "stateMutability": "payable",
      "type": "function"
    },
    {
      "constant": false,
      "inputs": [
        {
          "name": "",
          "type": "address[]"
        },
        {
          "name": "issuePriorities",
          "type": "uint256[]"
        },
        {
          "name": "issueDescriptionIndices",
          "type": "uint256[]"
        },
        {
          "name": "",
          "type": "string"
        },
        {
          "name": "_description",
          "type": "string"
        },
        {
          "name": "issueRepos",
          "type": "uint256[]"
        },
        {
          "name": "issueNumbers",
          "type": "uint256[]"
        },
        {
          "name": "",
          "type": "uint256"
        }
      ],
      "name": "curateIssues",
      "outputs": [],
      "payable": false,
      "stateMutability": "nonpayable",
      "type": "function"
    },
    {
      "constant": true,
      "inputs": [
        {
          "name": "_repoId",
          "type": "bytes32"
        }
      ],
      "name": "isRepoAdded",
      "outputs": [
        {
          "name": "isAdded",
          "type": "bool"
        }
      ],
      "payable": false,
      "stateMutability": "view",
      "type": "function"
    }
  ],
  "bytecode": "0x6080604052620000176401000000006200001d810204565b6200023b565b6200003064010000000062000125810204565b60408051808201909152601881527f494e49545f414c52454144595f494e495449414c495a45440000000000000000602082015290156200010c576040517f08c379a00000000000000000000000000000000000000000000000000000000081526004018080602001828103825283818151815260200191508051906020019080838360005b83811015620000d0578181015183820152602001620000b6565b50505050905090810190601f168015620000fe5780820380516001836020036101000a031916815260200191505b509250505060405180910390fd5b506200012360001964010000000062000154810204565b565b60006200014f60008051602062005d69833981519152640100000000620045c86200023382021704565b905090565b6200016764010000000062000125810204565b60408051808201909152601881527f494e49545f414c52454144595f494e495449414c495a454400000000000000006020820152901562000206576040517f08c379a000000000000000000000000000000000000000000000000000000000815260040180806020018281038252838181518152602001915080519060200190808383600083811015620000d0578181015183820152602001620000b6565b506200023060008051602062005d698339815191528264010000000062004e356200023782021704565b50565b5490565b9055565b615b1e806200024b6000396000f3006080604052600436106102215763ffffffff60e060020a6000350416630803fac081146102265780630a98bdb11461024f5780630aa844de146103105780630e8ef96a14610337578063114b8a4d1461034c57806315e6bfcd146103665780631924195b1461037b5780631bb51075146103b957806321935aa6146103f15780632914b9bd146104065780632e22467f1461047b57806332f0a3b5146104a35780633426ddd5146104b85780633a215537146104cd5780633fb6463c14610576578063450b75ad1461058e578063485cc955146105a357806348a0c8dd146105ca5780634a27ae83146105df5780635a3c9476146105f457806366b5c4391461060f5780637c078a94146106245780637e7db6e1146106e857806380afdea81461070957806385b4bb531461071e5780638b11cfb4146107f15780638b3dd749146109d25780638e619b07146109e75780638edf6be514610a215780638f28475414610a3657806397d7666514610a4b5780639d4941d814610a88578063a1658fad14610aa9578063a479e50814610b10578063a691701014610b25578063ae3f0a3c14610d06578063b0f42b1414610d1b578063b3670f9e14610d5f578063b7995ce714610f16578063cfc6159214610f2b578063d4aae0c414610f63578063d7b0e1a814610f78578063de4796ed14610fa0578063e06174e414610fb5578063ea907d6214610ff1578063eb254b1814611006578063fbfa77cf14611030575b600080fd5b34801561023257600080fd5b5061023b611045565b604080519115158252519081900360200190f35b34801561025b57600080fd5b5061026a60043560243561106f565b6040518086815260200185815260200184815260200183600160a060020a0316600160a060020a0316815260200180602001828103825283818151815260200191508051906020019080838360005b838110156102d15781810151838201526020016102b9565b50505050905090810190601f1680156102fe5780820380516001836020036101000a031916815260200191505b50965050505050505060405180910390f35b34801561031c57600080fd5b50610325611210565b60408051918252519081900360200190f35b34801561034357600080fd5b5061032561123d565b34801561035857600080fd5b50610364600435611268565b005b34801561037257600080fd5b506103256114d4565b34801561038757600080fd5b50610364600480359060248035916044359160643515159160843580830192908201359160a4359182019101356114fc565b3480156103c557600080fd5b50610364600480359060248035916044358083019290820135916064359160843590810191013561191c565b3480156103fd57600080fd5b50610325611bb4565b34801561041257600080fd5b506040805160206004803580820135601f810184900484028501840190955284845261045f943694929360249392840191908190840183828082843750949750611be49650505050505050565b60408051600160a060020a039092168252519081900360200190f35b34801561048757600080fd5b5061036460048035906024803591604435918201910135611cca565b3480156104af57600080fd5b5061045f611dcb565b3480156104c457600080fd5b50610325611e44565b3480156104d957600080fd5b506104e5600435611e73565b604051808581526020018481526020018315151515815260200180602001828103825283818151815260200191508051906020019080838360005b83811015610538578181015183820152602001610520565b50505050905090810190601f1680156105655780820380516001836020036101000a031916815260200191505b509550505050505060405180910390f35b34801561058257600080fd5b5061023b60043561203e565b34801561059a57600080fd5b50610325612119565b3480156105af57600080fd5b50610364600160a060020a036004358116906024351661214b565b3480156105d657600080fd5b5061023b61237c565b3480156105eb57600080fd5b5061045f61239a565b34801561060057600080fd5b506103256004356024356123a9565b34801561061b57600080fd5b5061032561244d565b34801561063057600080fd5b50610642600435602435604435612478565b6040518084600160a060020a0316600160a060020a031681526020018060200183600281111561066e57fe5b60ff168152602001828103825284818151815260200191508051906020019080838360005b838110156106ab578181015183820152602001610693565b50505050905090810190601f1680156106d85780820380516001836020036101000a031916815260200191505b5094505050505060405180910390f35b3480156106f457600080fd5b5061023b600160a060020a0360043516612610565b34801561071557600080fd5b50610325612616565b34801561072a57600080fd5b50610733612641565b6040805190810185905260608101849052600160a060020a038084166080830152821660a082015260c08082528751908201528651819060208083019160e08401918b8101910280838360005b83811015610798578181015183820152602001610780565b50505050905001838103825288818151815260200191508051906020019060200280838360005b838110156107d75781810151838201526020016107bf565b505050509050019850505050505050505060405180910390f35b6040805160206004803580820135838102808601850190965280855261036495369593946024949385019291829185019084908082843750506040805187358901803560208181028481018201909552818452989b9a998901989297509082019550935083925085019084908082843750506040805187358901803560208181028481018201909552818452989b9a998901989297509082019550935083925085019084908082843750506040805187358901803560208181028481018201909552818452989b9a998901989297509082019550935083925085019084908082843750506040805187358901803560208181028481018201909552818452989b9a998901989297509082019550935083925085019084908082843750506040805187358901803560208181028481018201909552818452989b9a99890198929750908201955093508392508501908490808284375050604080516020601f89358b018035918201839004830284018301909452808352979a99988101979196509182019450925082915084018382808284375050604080516020601f89358b018035918201839004830284018301909452808352979a9998810197919650918201945092508291508401838280828437509497506127a79650505050505050565b3480156109de57600080fd5b5061032561287c565b3480156109f357600080fd5b5061036460048035906024803591600160a060020a0360443516916064359081019101356084351515612895565b348015610a2d57600080fd5b50610325612c52565b348015610a4257600080fd5b50610325612cd8565b348015610a5757600080fd5b5061036460048035600160a060020a0316906024803591604435808301929082013591606435918201910135610221565b348015610a9457600080fd5b50610364600160a060020a0360043516612d05565b348015610ab557600080fd5b50604080516020600460443581810135838102808601850190965280855261023b958335600160a060020a0316956024803596369695606495939492019291829185019084908082843750949750612f8c9650505050505050565b348015610b1c57600080fd5b5061045f6130dc565b6040805160206004803580820135838102808601850190965280855261036495369593946024949385019291829185019084908082843750506040805187358901803560208181028481018201909552818452989b9a998901989297509082019550935083925085019084908082843750506040805187358901803560208181028481018201909552818452989b9a998901989297509082019550935083925085019084908082843750506040805187358901803560208181028481018201909552818452989b9a998901989297509082019550935083925085019084908082843750506040805187358901803560208181028481018201909552818452989b9a998901989297509082019550935083925085019084908082843750506040805187358901803560208181028481018201909552818452989b9a99890198929750908201955093508392508501908490808284375050604080516020601f89358b018035918201839004830284018301909452808352979a99988101979196509182019450925082915084018382808284375050604080516020601f89358b018035918201839004830284018301909452808352979a99988101979196509182019450925082915084018382808284375094975061317b9650505050505050565b348015610d1257600080fd5b5061032561324a565b348015610d2757600080fd5b506103646024600480358281019290820135918135918201910135604435606435600160a060020a0360843581169060a43516613275565b348015610d6b57600080fd5b506040805160206004803580820135838102808601850190965280855261036495369593946024949385019291829185019084908082843750506040805187358901803560208181028481018201909552818452989b9a998901989297509082019550935083925085019084908082843750506040805187358901803560208181028481018201909552818452989b9a99890198929750908201955093508392508501908490808284375050604080516020601f89358b018035918201839004830284018301909452808352979a99988101979196509182019450925082915084018382808284375050604080516020601f89358b018035918201839004830284018301909452808352979a999881019791965091820194509250829150840183828082843750506040805187358901803560208181028481018201909552818452989b9a998901989297509082019550935083925085019084908082843750506040805187358901803560208181028481018201909552818452989b9a99890198929750908201955093508392508501908490808284375094975050933594506134b19350505050565b348015610f2257600080fd5b50610325613768565b348015610f3757600080fd5b506103646024600480358281019290820135918135808301929082013591604435918201910135613795565b348015610f6f57600080fd5b5061045f613a29565b348015610f8457600080fd5b5061036460048035906024803591604435918201910135613a54565b348015610fac57600080fd5b5061023b613e46565b348015610fc157600080fd5b50610fca613e59565b604080519384526020840192909252600160a060020a031682820152519081900360600190f35b348015610ffd57600080fd5b50610325613e6e565b34801561101257600080fd5b50610364600480359060248035151591604435918201910135613e9d565b34801561103c57600080fd5b5061045f613f8d565b60008061105061287c565b90508015801590611068575080611065613f9c565b10155b91505b5090565b60008060008060606000611081611045565b6040805180820190915260148152600080516020615ad383398151915260208201529015156111315760405160e560020a62461bcd0281526004018080602001828103825283818151815260200191508051906020019080838360005b838110156110f65781810151838201526020016110de565b50505050905090810190601f1680156111235780820380516001836020036101000a031916815260200191505b509250505060405180910390fd5b505060008781526007602081815260408084208a85526001908101835293819020600481015460068201546003830154958301546008840180548651601f60029b83161561010002600019019092169a909a0490810188900488028a018801909652858952919c50919a50949850600160a060020a031696509392918301828280156111fe5780601f106111d3576101008083540402835291602001916111fe565b820191906000526020600020905b8154815290600101906020018083116111e157829003601f168201915b50505050509150509295509295909350565b60408051607060020a7152454d4f56455f4953535545535f524f4c45028152905190819003601201902081565b60408051608060020a6f574f524b5f5245564945575f524f4c45028152905190819003601001902081565b60408051608060020a6f52454d4f56455f5245504f5f524f4c45028152815190819003601001812060008083526020830190935282916112ae9033908390855b50612f8c565b60408051808201909152600f8152600080516020615a1383398151915260208201529015156113225760405160e560020a62461bcd028152600401808060200182810382528381815181526020019150805190602001908083836000838110156110f65781810151838201526020016110de565b5061132c8461203e565b60408051808201909152600e8152609260020a6d14915413d7d393d517d0511111510260208201529015156113a65760405160e560020a62461bcd028152600401808060200182810382528381815181526020019150805190602001908083836000838110156110f65781810151838201526020016110de565b50600084815260086020908152604091829020548251808401909352601983527f5245504f5f4841535f50454e44494e475f424f554e5449455300000000000000918301919091521561143e5760405160e560020a62461bcd028152600401808060200182810382528381815181526020019150805190602001908083836000838110156110f65781810151838201526020016110de565b50600084815260076020526040902054600a5490935060011461148e57600a5460001901600090815260096020908152604080832054868452818420819055808452600790925290912084905591505b600a805460001901905560408051848152905185917fea7e9caf6c1298bf8a56912e5f5c00e0fedaa151fa69142d1efb1703360c1952919081900360200190a250505050565b60408051609860020a6c4144445f5245504f5f524f4c45028152905190819003600d01902081565b60408051608060020a6f574f524b5f5245564945575f524f4c45028152815190819003601001812060008083526020830190935282916115409033908390856112a8565b60408051808201909152600f8152600080516020615a1383398151915260208201529015156115b45760405160e560020a62461bcd028152600401808060200182810382528381815181526020019150805190602001908083836000838110156110f65781810151838201526020016110de565b5060008b81526007602081815260408084208e855260010182529283902091820154835180850190945260108452608060020a6f49535355455f4e4f545f4143544956450291840191909152909450600160a060020a0316151561165d5760405160e560020a62461bcd028152600401808060200182810382528381815181526020019150805190602001908083836000838110156110f65781810151838201526020016110de565b50871561183657600091505b838210156116f75761169a85858481811061168057fe5b905060200201358460040154613fa090919063ffffffff16565b600484015560038301548585848181106116b057fe5b9050602002013511156116c957600060038401556116ec565b8484838181106116d557fe5b600386018054602090920293909301359003909155505b600190910190611669565b6000809054906101000a9004600160a060020a0316600160a060020a031662f27e383085600601548c60008a8a6040518763ffffffff1660e060020a0281526004018087600160a060020a0316600160a060020a031681526020018681526020018581526020018481526020018060200182810382528484828181526020019250602002808284378201915050975050505050505050600060405180830381600087803b1580156117a757600080fd5b505af11580156117bb573d6000803e3d6000fd5b50505060008c8152600860205260409020546117df9150600163ffffffff61402516565b60008c8152600860209081526040918290209290925580518b81529182018d90528181018c9052517f637bdd118871cb8fc364a3c202df62eecf153a88f4ff066b9224606dce0151549181900360600190a1611877565b604080518a8152602081018d90528082018c905290517f24590ee91b9a287795d6a39b6d28fdf9327748d07f90873e01e5a400a43ad2e89181900360600190a15b600054600684015460405160e160020a632562712d028152306004820181815260248301849052606060448401908152606484018c9052600160a060020a0390951694634ac4e25a9492938d928d929091608401848480828437820191505095505050505050600060405180830381600087803b1580156118f757600080fd5b505af115801561190b573d6000803e3d6000fd5b505050505050505050505050505050565b60408051606060020a735550444154455f424f554e544945535f524f4c450281528151908190036014018120600080835260208301909352906119639033908390856112a8565b60408051808201909152600f8152600080516020615a1383398151915260208201529015156119d75760405160e560020a62461bcd028152600401808060200182810382528381815181526020019150805190602001908083836000838110156110f65781810151838201526020016110de565b5060008981526007602090815260408083208b845260010182528083206003810154825180840190935260108352608060020a6f49535355455f4e4f545f414354495645029383019390935294509110611a765760405160e560020a62461bcd028152600401808060200182810382528381815181526020019150805190602001908083836000838110156110f65781810151838201526020016110de565b50611a85600883018888615847565b5060008054600684015460405160e260020a631fbe084f02815230600482018181526024830184905260448301869052608060648401908152608484018d9052600160a060020a0390951695637ef8213c9592949390928e928e9290919060a40184848082843782019150509650505050505050600060405180830381600087803b158015611b1357600080fd5b505af1158015611b27573d6000803e3d6000fd5b50506000805460068601546040805160e060020a63aa17aaef028152306004820152602481019290925260448201849052606482018b905251600160a060020a03909216945063aa17aaef9350608480820193929182900301818387803b158015611b9157600080fd5b505af1158015611ba5573d6000803e3d6000fd5b50505050505050505050505050565b60408051605860020a7446554e445f4f50454e5f4953535545535f524f4c45028152905190819003601501902081565b6000611bee6130dc565b600160a060020a03166304bf2a7f836040518263ffffffff1660e060020a0281526004018080602001828103825283818151815260200191508051906020019080838360005b83811015611c4c578181015183820152602001611c34565b50505050905090810190601f168015611c795780820380516001836020036101000a031916815260200191505b5092505050602060405180830381600087803b158015611c9857600080fd5b505af1158015611cac573d6000803e3d6000fd5b505050506040513d6020811015611cc257600080fd5b505192915050565b60408051607060020a714352454154455f4953535545535f524f4c45028152815190819003601201812060008083526020830190935291611d0f9133918491906112a8565b60408051808201909152600f8152600080516020615a138339815191526020820152901515611d835760405160e560020a62461bcd028152600401808060200182810382528381815181526020019150805190602001908083836000838110156110f65781810151838201526020016110de565b50611dc48585600080600088888080601f016020809104026020016040519081016040528093929190818152602001838380828437506140b1945050505050565b5050505050565b6000611dd5613a29565b600160a060020a03166332f0a3b56040518163ffffffff1660e060020a028152600401602060405180830381600087803b158015611e1257600080fd5b505af1158015611e26573d6000803e3d6000fd5b505050506040513d6020811015611e3c57600080fd5b505190505b90565b60408051606060020a734348414e47455f53455454494e47535f524f4c45028152905190819003601401902081565b60008060006060611e82611045565b6040805180820190915260148152600080516020615ad38339815191526020820152901515611ef65760405160e560020a62461bcd028152600401808060200182810382528381815181526020019150805190602001908083836000838110156110f65781810151838201526020016110de565b50611f008561203e565b60408051808201909152600e8152609260020a6d14915413d7d393d517d051111151026020820152901515611f7a5760405160e560020a62461bcd028152600401808060200182810382528381815181526020019150805190602001908083836000838110156110f65781810151838201526020016110de565b50600085815260076020818152604080842080546008845294829020549383526002808201546003909201805484516000196101006001841615020190911692909204601f810186900486028301860190945283825295995093975060ff169550919291908301828280156120305780601f1061200557610100808354040283529160200191612030565b820191906000526020600020905b81548152906001019060200180831161201357829003601f168201915b505050505090509193509193565b600080612049611045565b6040805180820190915260148152600080516020615ad383398151915260208201529015156120bd5760405160e560020a62461bcd028152600401808060200182810382528381815181526020019150805190602001908083836000838110156110f65781810151838201526020016110de565b5050600082815260076020526040902054600a5415156120e05760009150612113565b600a5481106120f25760009150612113565b60008381526007602090815260408083205483526009909152902054831491505b50919050565b60408051604860020a765245564945575f4150504c49434154494f4e5f524f4c45028152905190819003601701902081565b61215361287c565b6040805180820190915260188152600080516020615a53833981519152602082015290156121c65760405160e560020a62461bcd028152600401808060200182810382528381815181526020019150805190602001908083836000838110156110f65781810151838201526020016110de565b506121d081614414565b60408051808201909152601b81527f50524f4a454354535f5641554c545f4e4f545f434f4e5452414354000000000060208201529015156122565760405160e560020a62461bcd028152600401808060200182810382528381815181526020019150805190602001908083836000838110156110f65781810151838201526020016110de565b5061226082614414565b60408051808201909152601e81526000805160206159f383398151915260208201529015156122d45760405160e560020a62461bcd028152600401808060200182810382528381815181526020019150805190602001908083836000838110156110f65781810151838201526020016110de565b5060068054600160a060020a03808416600160a060020a031992831617909255600080549285169290911691909117905561231e606460c160020a672132b3b4b73732b90261443a565b61233c61012c60a060020a6b496e7465726d6564696174650261443a565b6123566101f460c260020a6710591d985b98d9590261443a565b612366600061015060008561449c565b6123706001614503565b612378614524565b5050565b6000612395600080516020615a938339815191526145c8565b905090565b600054600160a060020a031681565b60006123b3611045565b6040805180820190915260148152600080516020615ad383398151915260208201529015156124275760405160e560020a62461bcd028152600401808060200182810382528381815181526020019150805190602001908083836000838110156110f65781810151838201526020016110de565b505060009182526007602090815260408084209284526001909201905290206009015490565b60408051608060020a6f52454d4f56455f5245504f5f524f4c45028152905190819003601001902081565b60006060600080612487611045565b6040805180820190915260148152600080516020615ad383398151915260208201529015156124fb5760405160e560020a62461bcd028152600401808060200182810382528381815181526020019150805190602001908083836000838110156110f65781810151838201526020016110de565b5050600086815260076020908152604080832088845260010190915290206009810180548690811061252957fe5b6000918252602080832090910154600160a060020a0316808352600a84018252604092839020600190810180548551601f6002600019958416156101000295909501909216939093049081018590048502830185019095528482529197509290918301828280156125db5780601f106125b0576101008083540402835291602001916125db565b820191906000526020600020905b8154815290600101906020018083116125be57829003601f168201915b505050600160a060020a0387166000908152600a9094016020525050604090912054939790965060ff90931694509192505050565b50600190565b60006123957fd625496217aa6a3453eecb9c3489dc5a53e6c67b444329ea2b2cbc9ff547639b6145c8565b606080600080600080612652611045565b6040805180820190915260148152600080516020615ad383398151915260208201529015156126c65760405160e560020a62461bcd028152600401808060200182810382528381815181526020019150805190602001908083836000838110156110f65781810151838201526020016110de565b506003546004546005546000546001805460408051602080840282018101909252828152929660029690959094600160a060020a0391821694911692909188919083018282801561273657602002820191906000526020600020905b815481526020019060010190808311612722575b505050505095508480548060200260200160405190810160405280929190818152602001828054801561278957602002820191906000526020600020905b81548152600190910190602001808311612774575b50505050509450809050955095509550955095509550909192939495565b60408051608060020a6f46554e445f4953535545535f524f4c450281528151908190036010018120600080835260208301909352916127ea9133918491906112a8565b60408051808201909152600f8152600080516020615a13833981519152602082015290151561285e5760405160e560020a62461bcd028152600401808060200182810382528381815181526020019150805190602001908083836000838110156110f65781810151838201526020016110de565b50612871898989898989898960006145cc565b505050505050505050565b6000612395600080516020615a338339815191526145c8565b60408051604860020a765245564945575f4150504c49434154494f4e5f524f4c450281528151908190036017018120600080835260208301909352906128df9033908390856112a8565b60408051808201909152600f8152600080516020615a1383398151915260208201529015156129535760405160e560020a62461bcd028152600401808060200182810382528381815181526020019150805190602001908083836000838110156110f65781810151838201526020016110de565b5060008881526007602081815260408084208b855260010182529283902091820154835180850190945260198452600080516020615ab383398151915291840191909152909350600160a060020a0390811614156129f65760405160e560020a62461bcd028152600401808060200182810382528381815181526020019150805190602001908083836000838110156110f65781810151838201526020016110de565b50600160a060020a0386166000908152600a83016020908152604091829020600201548251808401909352601883527f555345525f4150504c49434154494f4e5f4d495353494e4700000000000000009183019190915260ff161515600114612aa45760405160e560020a62461bcd028152600401808060200182810382528381815181526020019150805190602001908083836000838110156110f65781810151838201526020016110de565b50600160a060020a0386166000908152600a830160205260409020612acd906001018686615847565b508215612b4f57600782018054600160a060020a031916600160a060020a0388169081179091556000818152600a84016020908152604091829020805460ff191660011790558151928352820189905280518a927fb42727f68fc0c71ee163cf95faf2ffc489291b86831700a045cb016dc07f3a4b92908290030190a2612bb0565b600160a060020a0386166000818152600a84016020908152604091829020805460ff191660021790558151928352820189905280518a927ffdd3d8e33e3897ba5845545fcbae8503b310c2a8c5a8bd06ee1eed1593f41f3392908290030190a25b600054600683015460405160e160020a632562712d028152306004820181815260248301849052606060448401908152606484018a9052600160a060020a0390951694634ac4e25a9492938b928b929091608401848480828437820191505095505050505050600060405180830381600087803b158015612c3057600080fd5b505af1158015612c44573d6000803e3d6000fd5b505050505050505050505050565b6000612c5c611045565b6040805180820190915260148152600080516020615ad38339815191526020820152901515612cd05760405160e560020a62461bcd028152600401808060200182810382528381815181526020019150805190602001908083836000838110156110f65781810151838201526020016110de565b5050600a5490565b60408051607060020a714352454154455f4953535545535f524f4c45028152905190819003601201902081565b6000806000612d1384612610565b6040805180820190915260128152607260020a71149150d3d5915497d11254d0531313d5d151026020820152901515612d915760405160e560020a62461bcd028152600401808060200182810382528381815181526020019150805190602001908083836000838110156110f65781810151838201526020016110de565b50612d9a611dcb565b9250612da583614414565b60408051808201909152601a81527f5245434f5645525f5641554c545f4e4f545f434f4e54524143540000000000006020820152901515612e2b5760405160e560020a62461bcd028152600401808060200182810382528381815181526020019150805190602001908083836000838110156110f65781810151838201526020016110de565b50600160a060020a0384161515612e7c5760405130319250600160a060020a0384169083156108fc029084906000818181858888f19350505050158015612e76573d6000803e3d6000fd5b50612f3b565b5082612e97600160a060020a0382163063ffffffff61484c16565b9150612eb3600160a060020a038216848463ffffffff61493616565b60408051808201909152601d81527f5245434f5645525f544f4b454e5f5452414e534645525f4641494c45440000006020820152901515612f395760405160e560020a62461bcd028152600401808060200182810382528381815181526020019150805190602001908083836000838110156110f65781810151838201526020016110de565b505b83600160a060020a031683600160a060020a03167f596caf56044b55fb8c4ca640089bbc2b63cae3e978b851f5745cbb7c5b288e02846040518082815260200191505060405180910390a350505050565b600080612f97611045565b1515612fa657600091506130d4565b612fae613a29565b9050600160a060020a0381161515612fc957600091506130d4565b80600160a060020a031663fdef9106863087612fe488614996565b60405160e060020a63ffffffff8716028152600160a060020a03808616600483019081529085166024830152604482018490526080606483019081528351608484015283519192909160a490910190602085019080838360005b8381101561305657818101518382015260200161303e565b50505050905090810190601f1680156130835780820380516001836020036101000a031916815260200191505b5095505050505050602060405180830381600087803b1580156130a557600080fd5b505af11580156130b9573d6000803e3d6000fd5b505050506040513d60208110156130cf57600080fd5b505191505b509392505050565b6000806130e7613a29565b6040805160e360020a6317c0177b0281527fd6f028ca0e8edb4a8c9757ca4fdccab25fa1e0317da1188108f7d2dee14902fb60048201527fddbcfd564f642ab5627cf68b9b7d374fb4f8a36e941a75d89c87998cef03bd6160248201529051600160a060020a03929092169163be00bbd8916044808201926020929091908290030181600087803b158015611c9857600080fd5b60408051605860020a7446554e445f4f50454e5f4953535545535f524f4c450281528151908190036015018120600080835260208301909352916131c39133918491906112a8565b60408051808201909152600f8152600080516020615a1383398151915260208201529015156132375760405160e560020a62461bcd028152600401808060200182810382528381815181526020019150805190602001908083836000838110156110f65781810151838201526020016110de565b50612871898989898989898960016145cc565b60408051608060020a6f46554e445f4953535545535f524f4c45028152905190819003601001902081565b60408051606060020a734348414e47455f53455454494e47535f524f4c450281528151908190036014018120600080835260208301909352906132bc9033908390856112a8565b60408051808201909152600f8152600080516020615a1383398151915260208201529015156133305760405160e560020a62461bcd028152600401808060200182810382528381815181526020019150805190602001908083836000838110156110f65781810151838201526020016110de565b506040805180820190915260158152605b60020a74082a4a482b2be988a9c8ea890be9a92a69a82a88690260208201528988146133b25760405160e560020a62461bcd028152600401808060200182810382528381815181526020019150805190602001908083836000838110156110f65781810151838201526020016110de565b506133bc83614414565b60408051808201909152601e81526000805160206159f383398151915260208201529015156134305760405160e560020a62461bcd028152600401808060200182810382528381815181526020019150805190602001908083836000838110156110f65781810151838201526020016110de565b50600061343e6002826158c1565b50600061344c6001826158c1565b50600091505b868210156134995761348e8a8a8481811061346957fe5b90506020020135898985818110151561347e57fe5b905060200201356000191661443a565b600190910190613452565b6134a58686868661449c565b50505050505050505050565b60408051607060020a714355524154455f4953535545535f524f4c45028152815190819003601201812060008083526020830190935282918291906134fa9033908390856112a8565b60408051808201909152600f8152600080516020615a13833981519152602082015290151561356e5760405160e560020a62461bcd028152600401808060200182810382528381815181526020019150805190602001908083836000838110156110f65781810151838201526020016110de565b508a518a5190935083146135e0576040805160e560020a62461bcd0281526020600482015260376024820152600080516020615a7383398151915260448201527f616e642069737375654465736372697074696f6e496478000000000000000000606482015290519081900360840190fd5b86518314613640576040805160e560020a62461bcd02815260206004820152602e6024820152600080516020615a738339815191526044820152609060020a6d616e642069737375655265706f7302606482015290519081900360840190fd5b855183146136a2576040805160e560020a62461bcd0281526020600482015260306024820152600080516020615a738339815191526044820152608060020a6f616e642069737375654e756d6265727302606482015290519081900360840190fd5b600091505b82821015612c445786828151811015156136bd57fe5b9060200190602002015160010293508a828151811015156136da57fe5b602090810290910181015160008681526007909252604082208851919260019091019189908690811061370957fe5b6020908102909101810151825281810192909252604090810160002060050192909255815186815291517fcadf18ba4669996d34d491d937085807eeb901ce26e37409149600d41a2af91a9281900390910190a16001909101906136a7565b60408051607060020a714355524154455f4953535545535f524f4c45028152905190819003601201902081565b60408051607060020a7152454d4f56455f4953535545535f524f4c450281528151908190036012018120600080835260208301909352906137da9033908390856112a8565b60408051808201909152600f8152600080516020615a13833981519152602082015290151561384e5760405160e560020a62461bcd028152600401808060200182810382528381815181526020019150805190602001908083836000838110156110f65781810151838201526020016110de565b5060408051808201909152600f8152608a60020a6e13115391d51217d15610d15151115102602082015261010088106138cc5760405160e560020a62461bcd028152600401808060200182810382528381815181526020019150805190602001908083836000838110156110f65781810151838201526020016110de565b5060408051808201909152600f8152608a60020a6e13115391d51217d15610d151511151026020820152610100861061394a5760405160e560020a62461bcd028152600401808060200182810382528381815181526020019150805190602001908083836000838110156110f65781810151838201526020016110de565b506040805180820190915260158152605b60020a74082a4a482b2be988a9c8ea890be9a92a69a82a88690260208201528786146139cc5760405160e560020a62461bcd028152600401808060200182810382528381815181526020019150805190602001908083836000838110156110f65781810151838201526020016110de565b50600091505b60ff8216851115613a1f57613a14888860ff85168181106139ef57fe5b60200291909101359050878760ff8616818110613a0857fe5b905060200201356149a0565b6001909101906139d2565b5050505050505050565b60006123957f4172f0f7d2289153072b0a6ca36959e0cbe2efc3afe50fc81636caa96338137b6145c8565b6000613a5e611045565b6040805180820190915260148152600080516020615ad38339815191526020820152901515613ad25760405160e560020a62461bcd028152600401808060200182810382528381815181526020019150805190602001908083836000838110156110f65781810151838201526020016110de565b5050600084815260076020908152604080832086845260010182528083206003810154825180840190935260108352608060020a6f49535355455f4e4f545f414354495645029383019390935292909111613b725760405160e560020a62461bcd028152600401808060200182810382528381815181526020019150805190602001908083836000838110156110f65781810151838201526020016110de565b5060078101546040805180820190915260198152600080516020615ab3833981519152602082015290600160a060020a039081161415613bf75760405160e560020a62461bcd028152600401808060200182810382528381815181526020019150805190602001908083836000838110156110f65781810151838201526020016110de565b50336000908152600a8201602090815260409182902060020154825180840190935260148352606260020a731554d15497d053149150511657d0541413125151029183019190915260ff1615613c925760405160e560020a62461bcd028152600401808060200182810382528381815181526020019150805190602001908083836000838110156110f65781810151838201526020016110de565b50600981018054600181018255600091825260208220018054600160a060020a031916331790556040805160608101909152908190815260200184848080601f016020809104026020016040519081016040528093929190818152602001838380828437505050928452505060016020928301819052336000908152600a86019093526040909220835181549193909250839160ff191690836002811115613d3657fe5b02179055506020828101518051613d5392600185019201906158e5565b50604091820151600291909101805460ff19169115159190911790556000546006830154915160e160020a632562712d02815230600482018181526024830185905260606044840190815260648401889052600160a060020a0390941694634ac4e25a949293909289928992909190608401848480828437820191505095505050505050600060405180830381600087803b158015613df157600080fd5b505af1158015613e05573d6000803e3d6000fd5b50506040805187815290518893507f3684340f8de1ffd1c11fd5e00e9357d8657eaa35744b51c711512f6cd7c2ca8892509081900360200190a25050505050565b6000600019613e5361287c565b14905090565b600354600454600554600160a060020a031683565b60408051606060020a735550444154455f424f554e544945535f524f4c45028152905190819003601401902081565b60408051609860020a6c4144445f5245504f5f524f4c45028152815190819003600d01812060008083526020830190935291613edd9133918491906112a8565b60408051808201909152600f8152600080516020615a138339815191526020820152901515613f515760405160e560020a62461bcd028152600401808060200182810382528381815181526020019150805190602001908083836000838110156110f65781810151838201526020016110de565b50611dc4858585858080601f01602080910402602001604051908101604052809392919081815260200183838082843750614ca8945050505050565b600654600160a060020a031681565b4390565b6040805180820190915260118152607860020a704d4154485f4144445f4f564552464c4f5702602082015260009083830190848210156130d45760405160e560020a62461bcd028152600401808060200182810382528381815181526020019150805190602001908083836000838110156110f65781810151838201526020016110de565b6040805180820190915260128152607060020a714d4154485f5355425f554e444552464c4f570260208201526000908190848411156140a95760405160e560020a62461bcd028152600401808060200182810382528381815181526020019150805190602001908083836000838110156110f65781810151838201526020016110de565b505050900390565b6040805160008152602081019091526140c98761203e565b60408051808201909152600e8152609260020a6d14915413d7d393d517d0511111510260208201529015156141435760405160e560020a62461bcd028152600401808060200182810382528381815181526020019150805190602001908083836000838110156110f65781810151838201526020016110de565b50600087815260076020908152604080832089845260010182529182902060030154825180840190935260108352608060020a6f49535355455f4841535f424f554e54590291830191909152156141df5760405160e560020a62461bcd028152600401808060200182810382528381815181526020019150805190602001908083836000838110156110f65781810151838201526020016110de565b50610140604051908101604052808860001916815260200187815260200185600160a060020a03168152602001848152602001600081526020016103e781526020018681526020016000600160a060020a03168152602001838152602001828152506007600089600019166000191681526020019081526020016000206001016000888152602001908152602001600020600082015181600001906000191690556020820151816001015560408201518160020160006101000a815481600160a060020a030219169083600160a060020a03160217905550606082015181600301556080820151816004015560a0820151816005015560c0820151816006015560e08201518160070160006101000a815481600160a060020a030219169083600160a060020a031602179055506101008201518160080190805190602001906143299291906158e5565b506101208201518051614346916009840191602090910190615953565b509050507fde8a80d141086331324a493140a3243113902a3bb1ffab911a5343bc257098c8878785888660405180866000191660001916815260200185815260200184815260200183815260200180602001828103825283818151815260200191508051906020019080838360005b838110156143cd5781810151838201526020016143b5565b50505050905090810190601f1680156143fa5780820380516001836020036101000a031916815260200191505b50965050505050505060405180910390a150505050505050565b600080600160a060020a03831615156144305760009150612113565b50506000903b1190565b6001805480820182557fb10e2d527612073b26eecdfd717e6a320cf44b4afac2b0732d9fcbe2b7fa0cf601929092556002805492830181556000527f405787fa12a823e0f2b7631cc41b3ba8828b3321ca811111fa75cd3aa3bb5ace90910155565b6003849055600483905560058054600160a060020a03808516600160a060020a03199283161790925560008054928416929091169190911781556040517fc06f93a1c677079c95fcdc3366e2ea20fcabd48e59ef90ba885dfa265693a33f9190a150505050565b614521600080516020615a938339815191528263ffffffff614e3516565b50565b61452c61287c565b6040805180820190915260188152600080516020615a538339815191526020820152901561459f5760405160e560020a62461bcd028152600401808060200182810382528381815181526020019150805190602001908083836000838110156110f65781810151838201526020016110de565b506145c66145ab613f9c565b600080516020615a338339815191529063ffffffff614e3516565b565b5490565b60606000808951602e02865114604080519081016040528060158152602001605b60020a74092a08ca6be828888a48aa6a68aa6be988a9c8ea890281525090151561465c5760405160e560020a62461bcd028152600401808060200182810382528381815181526020019150805190602001908083836000838110156110f65781810151838201526020016110de565b50600090505b8951811015612c44576146758682614e3d565b92506146e0838a8381518110151561468957fe5b9060200190602002015189848151811015156146a157fe5b906020019060200201518b858151811015156146b957fe5b906020019060200201518e868151811015156146d157fe5b90602001906020020151614eb7565b915061474c8c828151811015156146f357fe5b906020019060200201518c8381518110151561470b57fe5b90602001906020020151848a8581518110151561472457fe5b906020019060200201518e8681518110151561473c57fe5b90602001906020020151886155b4565b831561484057600019600760008e8481518110151561476757fe5b906020019060200201516000191660001916815260200190815260200160002060010160008d8481518110151561479a57fe5b90602001906020020151815260200190815260200160002060070160006101000a815481600160a060020a030219169083600160a060020a031602179055507f9a28d451f2ee412279e05e31bcecc68ed06f7f248f7018088abe26989bd245708c8281518110151561480857fe5b906020019060200201518c8381518110151561482057fe5b602090810290910181015160408051938452918301528051918290030190a15b600101614662565b5490565b60408051600160a060020a038316602480830191909152825180830390910181526044909101909152602081018051600160e060020a031660e060020a6370a082310217905260009081806148a186846155f9565b60408051808201909152601c81527f534146455f4552435f32305f42414c414e43455f5245564552544544000000006020820152919350915082151561492c5760405160e560020a62461bcd028152600401808060200182810382528381815181526020019150805190602001908083836000838110156110f65781810151838201526020016110de565b5095945050505050565b60408051600160a060020a03841660248201526044808201849052825180830390910181526064909101909152602081018051600160e060020a031660e060020a63a9059cbb0217905260009061498d858261562a565b95945050505050565b8051602002815290565b6000828152600760209081526040808320848452600101825280832060038101548251808401909352600e8352609260020a6d1093d553951657d4915353d5915102938301939093529260609211614a3d5760405160e560020a62461bcd028152600401808060200182810382528381815181526020019150805190602001908083836000838110156110f65781810151838201526020016110de565b5060408051600180825281830190925290602080830190803883390190505090508160030154816000815181101515614a7257fe5b602090810290910181019190915260008054600685015460405160e360020a6306eade7902815230600482018181526024830184905260448301869052608060648401908152885160848501528851600160a060020a0390961697633756f3c897939693948a9460a4909101918581019102808383895b83811015614b01578181015183820152602001614ae9565b5050505090500195505050505050600060405180830381600087803b158015614b2957600080fd5b505af1158015614b3d573d6000803e3d6000fd5b50505050614b70816000815181101515614b5357fe5b602090810290910101516002840154600160a060020a0316615678565b60006003830181905580546006840154600160a060020a039091169163aa17aaef913091614b9c615843565b6040518563ffffffff1660e060020a0281526004018085600160a060020a0316600160a060020a03168152602001848152602001838152602001828152602001945050505050600060405180830381600087803b158015614bfc57600080fd5b505af1158015614c10573d6000803e3d6000fd5b505050600085815260086020526040902054614c349150600163ffffffff61402516565b60008581526008602052604081209190915581517f06d40b5be58b1949fb2314826d99e965d2d883eeb246c7a1936e2974c7a31335918691869185918110614c7857fe5b6020908102909101810151604080519485529184019290925282810191909152519081900360600190a150505050565b60008381526007602090815260409091208251614ccd926003909201918401906158e5565b50614cd78361203e565b1515614d7a57600a8054600090815260096020908152604080832087905592548683526007909152919020819055614d1690600163ffffffff613fa016565b600a5560008381526007602090815260409182902060028101805460ff19168615159081179091559054835190815291820152815185927fd647e71d0578942a24acd40986caa9a411d893f7255e9267bf3f87d4cfd3e427928290030190a2614e30565b6000838152600760209081526040808320548151818152808401838152865193820193909352855188957fa41cd7553c8db245a81b31b08c2495f3cd84f0502312876e36736c081374d4ef959394889490926060850192918601918190849084905b83811015614df4578181015183820152602001614ddc565b50505050905090810190601f168015614e215780820380516001836020036101000a031916815260200191505b50935050505060405180910390a25b505050565b9055565b9055565b60408051602e8082526060808301909352838102918282019186918591600091829182918291602082016105c0803883395050509588016020818101518189015260409182015191880180516000199b909a0382039091016101000a99909901978816971916969096179096525091979650505050505050565b6040805180820190915260118152607960020a7022a921af9b9918afa327a92124a22222a702602082015260009081906060906102d1861415614f3f5760405160e560020a62461bcd028152600401808060200182810382528381815181526020019150805190602001908083836000838110156110f65781810151838201526020016110de565b50841515614fd35760408051808201909152600f8152608960020a6e2ba927a723afa2aa242faa27a5a2a7026020820152600160a060020a03871615614fca5760405160e560020a62461bcd028152600401808060200182810382528381815181526020019150805190602001908083836000838110156110f65781810151838201526020016110de565b5084915061506d565b84600114156150695760408051808201909152600f8152608960020a6e2ba927a723afa2aa242faa27a5a2a7026020820152600160a060020a0387161561505f5760405160e560020a62461bcd028152600401808060200182810382528381815181526020019150805190602001908083836000838110156110f65781810151838201526020016110de565b506000915061506d565b8491505b60408051600180825281830190925290602080830190803883390190505090503081600081518110151561509d57fe5b600160a060020a039092166020928302909101909101526000851115615211576006546040805160e360020a6317d57599028152600160a060020a038981166004830152306024830152604482018890529151919092169163beabacc891606480830192600092919082900301818387803b15801561511b57600080fd5b505af115801561512f573d6000803e3d6000fd5b505083159150615211905057600080546040805160e060020a63095ea7b3028152600160a060020a0392831660048201526024810188905290519189169263095ea7b3926044808401936020939083900390910190829087803b15801561519557600080fd5b505af11580156151a9573d6000803e3d6000fd5b505050506040513d60208110156151bf57600080fd5b50511515615211576040805160e560020a62461bcd0281526020600482015260146024820152606160020a7322a92927a92fa2a92199182faa2920a729a322a902604482015290519081900360640190fd5b8115156153e3576000809054906101000a9004600160a060020a0316600160a060020a03166306060ae3853084858d8d8d8a8d6040518a63ffffffff1660e060020a0281526004018089600160a060020a0316600160a060020a0316815260200180602001806020018060200188815260200187600160a060020a0316600160a060020a0316815260200186815260200185815260200184810384528b818151815260200191508051906020019060200280838360005b838110156152e05781810151838201526020016152c8565b5050505090500184810383528a818151815260200191508051906020019060200280838360005b8381101561531f578181015183820152602001615307565b50505050905001848103825289818151815260200191508051906020019080838360005b8381101561535b578181015183820152602001615343565b50505050905090810190601f1680156153885780820380516001836020036101000a031916815260200191505b509b5050505050505050505050506020604051808303818588803b1580156153af57600080fd5b505af11580156153c3573d6000803e3d6000fd5b50505050506040513d60208110156153da57600080fd5b505192506155a9565b6000809054906101000a9004600160a060020a0316600160a060020a03166306060ae33083848c8c8c898c6040518963ffffffff1660e060020a0281526004018089600160a060020a0316600160a060020a0316815260200180602001806020018060200188815260200187600160a060020a0316600160a060020a0316815260200186815260200185815260200184810384528b818151815260200191508051906020019060200280838360005b838110156154aa578181015183820152602001615492565b5050505090500184810383528a818151815260200191508051906020019060200280838360005b838110156154e95781810151838201526020016154d1565b50505050905001848103825289818151815260200191508051906020019080838360005b8381101561552557818101518382015260200161550d565b50505050905090810190601f1680156155525780820380516001836020036101000a031916815260200191505b509b505050505050505050505050602060405180830381600087803b15801561557a57600080fd5b505af115801561558e573d6000803e3d6000fd5b505050506040513d60208110156155a457600080fd5b505192505b505095945050505050565b6000868152600860205260409020546155d490600163ffffffff613fa016565b6000878152600860205260409020556155f18686868686866140b1565b505050505050565b6000806000806040516020818751602089018a5afa9250600083111561561e57805191505b50909590945092505050565b6000806040516020818551602087016000895af1600081111561566e573d801561565b57602081146156645761566c565b6001935061566c565b600183511493505b505b5090949350505050565b600160a060020a0381161515615701576006546040805160e260020a6311f9fbc9028152600160a060020a03848116600483015260248201869052915191909216916347e7ef2491859160448082019260009290919082900301818588803b1580156156e357600080fd5b505af11580156156f7573d6000803e3d6000fd5b5050505050612378565b6006546040805160e060020a63095ea7b3028152600160a060020a0392831660048201526024810185905290519183169163095ea7b3916044808201926020929091908290030181600087803b15801561575a57600080fd5b505af115801561576e573d6000803e3d6000fd5b505050506040513d602081101561578457600080fd5b505115156157d7576040805160e560020a62461bcd0281526020600482015260156024820152605a60020a7411549493d497d15490cc8c17d7d054141493d5905302604482015290519081900360640190fd5b6006546040805160e260020a6311f9fbc9028152600160a060020a03848116600483015260248201869052915191909216916347e7ef2491604480830192600092919082900301818387803b15801561582f57600080fd5b505af11580156155f1573d6000803e3d6000fd5b4290565b828054600181600116156101000203166002900490600052602060002090601f016020900481019282601f106158885782800160ff198235161785556158b5565b828001600101855582156158b5579182015b828111156158b557823582559160200191906001019061589a565b5061106b9291506159b4565b815481835581811115614e3057600083815260209020614e309181019083016159b4565b828054600181600116156101000203166002900490600052602060002090601f016020900481019282601f1061592657805160ff19168380011785556158b5565b828001600101855582156158b5579182015b828111156158b5578251825591602001919060010190615938565b8280548282559060005260206000209081019282156159a8579160200282015b828111156159a85782518254600160a060020a031916600160a060020a03909116178255602090920191600190910190615973565b5061106b9291506159ce565b611e4191905b8082111561106b57600081556001016159ba565b611e4191905b8082111561106b578054600160a060020a03191681556001016159d456005354414e444152445f424f554e544945535f4e4f545f434f4e545241435400004150505f415554485f4641494c45440000000000000000000000000000000000ebb05b386a8d34882b8711d156f463690983dc47815980fb82aeeff1aa43579e494e49545f414c52454144595f494e495449414c495a454400000000000000004c454e4754485f4d49534d415443483a2069737375655072696f726974657320665fd576fbbe6f247aff98f5c94a561e3f71ec2d3c988d56f12d342396c50cea43414e4e4f545f41535349474e5f4f50454e5f424f554e545900000000000000494e49545f4e4f545f494e495449414c495a4544000000000000000000000000a165627a7a7230582054cf8d132a4f8eaf9f5d25f1f4a39ba1239cf8c50e58e8cd50ec01a6d328a11d0029ebb05b386a8d34882b8711d156f463690983dc47815980fb82aeeff1aa43579e",
  "source": "/*\n * SPDX-License-Identitifer: GPL-3.0-or-later\n */\n\npragma solidity 0.4.24;\n\nimport \"@aragon/os/contracts/apps/AragonApp.sol\";\nimport \"@aragon/apps-vault/contracts/Vault.sol\";\nimport \"@aragon/os/contracts/common/EtherTokenConstant.sol\";\nimport \"@aragon/os/contracts/lib/math/SafeMath.sol\";\n\n/**\n  * @title Bounties Interface\n  * @dev Defines a minimal interface blueprint for the StandardBounties contract\n  */\ninterface Bounties {\n    function issueBounty(\n        address sender,\n        address[] _issuers,\n        address[] _approvers,\n        string _data,\n        uint _deadline,\n        address _token,\n        uint _tokenVersion\n    ) external returns (uint);\n\n    function contribute(\n        address _sender,\n        uint _bountyId,\n        uint _amount\n    ) external payable;\n\n    function issueAndContribute(\n        address sender,\n        address[] _issuers,\n        address[] _approvers,\n        string _data,\n        uint _deadline,\n        address _token,\n        uint _tokenVersion,\n        uint _depositAmount\n    ) external payable returns (uint);\n\n    function performAction(\n        address _sender,\n        uint _bountyId,\n        string _data\n    ) external;\n\n    function acceptFulfillment(\n        address _sender,\n        uint _bountyId,\n        uint _fulfillmentId,\n        uint _approverId,\n        uint[] _tokenAmounts\n    ) external;\n\n    function drainBounty(\n        address _sender,\n        uint _bountyId,\n        uint _issuerId,\n        uint[] _amounts\n    ) external;\n\n    function changeDeadline(\n        address _sender,\n        uint _bountyId,\n        uint _issuerId,\n        uint _deadline\n    ) external;\n\n    function changeData(\n        address _sender,\n        uint _bountyId,\n        uint _issuerId,\n        string _data\n    ) external;\n}\n\n/**\n  * @title ERC20 Interface\n  * @dev Defines a minimal interface blueprint for ERC20 tokens interaction\n  */\ninterface ERC20Token {\n    function approve(address _spender, uint256 _value) external returns (bool success);\n    function transfer(address to, uint tokens) external returns (bool success);\n}\n\n\n/**\n  * @title Projects App\n  * @author Autark\n  * @dev Defines a registry for project tasks in addition to\n  * applying bounties in bulk and accepting fulfillment via this contract\n  */\ncontract Projects is AragonApp, DepositableStorage {\n\n    using SafeMath for uint256;\n\n    Bounties public bountiesRegistry;\n    BountySettings public settings;\n    Vault public vault;\n    // Auth roles\n    bytes32 public constant CREATE_ISSUES_ROLE =  keccak256(\"CREATE_ISSUES_ROLE\");\n    bytes32 public constant FUND_ISSUES_ROLE =  keccak256(\"FUND_ISSUES_ROLE\");\n    bytes32 public constant REMOVE_ISSUES_ROLE = keccak256(\"REMOVE_ISSUES_ROLE\");\n    bytes32 public constant ADD_REPO_ROLE = keccak256(\"ADD_REPO_ROLE\");\n    bytes32 public constant CHANGE_SETTINGS_ROLE =  keccak256(\"CHANGE_SETTINGS_ROLE\");\n    bytes32 public constant CURATE_ISSUES_ROLE = keccak256(\"CURATE_ISSUES_ROLE\");\n    bytes32 public constant REMOVE_REPO_ROLE =  keccak256(\"REMOVE_REPO_ROLE\");\n    bytes32 public constant REVIEW_APPLICATION_ROLE = keccak256(\"REVIEW_APPLICATION_ROLE\");\n    bytes32 public constant WORK_REVIEW_ROLE = keccak256(\"WORK_REVIEW_ROLE\");\n    bytes32 public constant FUND_OPEN_ISSUES_ROLE = keccak256(\"FUND_OPEN_ISSUES_ROLE\");\n    bytes32 public constant UPDATE_BOUNTIES_ROLE = keccak256(\"UPDATE_BOUNTIES_ROLE\");\n\n    string private constant ERROR_PROJECTS_VAULT_NOT_CONTRACT = \"PROJECTS_VAULT_NOT_CONTRACT\";\n    string private constant ERROR_STANDARD_BOUNTIES_NOT_CONTRACT = \"STANDARD_BOUNTIES_NOT_CONTRACT\";\n    string private constant ERROR_LENGTH_EXCEEDED = \"LENGTH_EXCEEDED\";\n    string private constant ERROR_LENGTH_MISMATCH = \"ARRAY_LENGTH_MISMATCH\";\n    string private constant ERROR_CID_LENGTH = \"IPFS_ADDRESSES_LENGTH\";\n    string private constant ERROR_ISSUE_INACTIVE = \"ISSUE_NOT_ACTIVE\";\n    string private constant ERROR_ISSUE_ACTIVE = \"ISSUE_HAS_BOUNTY\";\n    string private constant ERROR_BOUNTY_FULFILLED = \"BOUNTY_FULFILLED\";\n    string private constant ERROR_BOUNTY_REMOVED = \"BOUNTY_REMOVED\";\n    string private constant ERROR_INVALID_AMOUNT = \"INVALID_TOKEN_AMOUNT\";\n    string private constant ERROR_ETH_CONTRACT = \"WRONG_ETH_TOKEN\";\n    string private constant ERROR_REPO_MISSING = \"REPO_NOT_ADDED\";\n    string private constant ERROR_USER_APPLIED = \"USER_ALREADY_APPLIED\";\n    string private constant ERROR_NO_APPLICATION = \"USER_APPLICATION_MISSING\";\n    string private constant ERROR_NO_ERC721 = \"ERC_721_FORBIDDEN\";\n    string private constant ERROR_PENDING_BOUNTIES = \"REPO_HAS_PENDING_BOUNTIES\";\n    string private constant ERROR_OPEN_BOUNTY = \"CANNOT_ASSIGN_OPEN_BOUNTY\";\n\n\n    // IPFS length const\n    uint256 private constant CID_LENGTH = 46;\n\n    // The entries in the repos registry.\n    mapping(bytes32 => Repo) private repos;\n    // issue counter to track how many open issues a repo has\n    mapping (bytes32 => uint256) openBounties;\n    // Gives us a repos array-like contruct so we can both \"iterate\" and upgrade gracefully\n    mapping(uint256 => bytes32) private repoIndex;\n    uint256 private repoIndexLength;\n    enum SubmissionStatus { Unreviewed, Accepted, Rejected }  // 0: unreviewed 1: Accepted 2: Rejected\n\n    // Structs\n    struct BountySettings {\n        uint256[] expMultipliers;\n        bytes32[] expLevels;\n        uint256 baseRate;\n        uint256 bountyDeadline;\n        address bountyCurrency;\n    }\n\n    struct Repo {\n        uint index;\n        mapping(uint256 => Issue) issues;\n        bool decoupled;\n        string repoData;\n    }\n\n    struct AssignmentRequest {\n        SubmissionStatus status;\n        string requestHash; //IPFS hash of the application data\n        bool exists;\n    }\n\n    struct Issue {\n        bytes32 repo;  // This is the internal repo identifier\n        uint256 number; // May be redundant tracking this\n        address tokenContract;\n        uint256 bountySize;\n        uint256 fulfilledAmount;\n        uint256 priority;\n        uint standardBountyId;\n        address assignee;\n        string issueData;\n        address[] applicants;\n        //uint256 submissionQty;\n        mapping(address => AssignmentRequest) assignmentRequests;\n    }\n\n    // Fired when a repository is added to the registry.\n    event RepoAdded(bytes32 indexed repoId, uint index, bool decoupled);\n    event RepoUpdated(bytes32 indexed repoId, uint index, string repoData);\n    // Fired when a repository is removed from the registry.\n    event RepoRemoved(bytes32 indexed repoId, uint index);\n    // Fired when a bounty is added to a repo\n    event IssueUpdated(bytes32 repoId, uint256 issueNumber, uint256 bountySize, uint256 registryId, string ipfsHash);\n    // Fired when a bounty is removed\n    event BountyRemoved(bytes32 repoId, uint256 issueNumber, uint256 oldBountySize);\n    // Fired when an issue is curated\n    event IssueCurated(bytes32 repoId);\n    // Fired when settings are changed\n    event BountySettingsChanged();\n    // Fired when user requests issue assignment\n    event AssignmentRequested(bytes32 indexed repoId, uint256 issueNumber);\n    // Fired when Task Manager approves assignment request\n    event AssignmentApproved(address applicant, bytes32 indexed repoId, uint256 issueNumber);\n    // Fired when Task Manager rejects assignment request\n    event AssignmentRejected(address applicant, bytes32 indexed repoId, uint256 issueNumber);\n    // Fired when a reviewer accepts accepts a submission\n    event SubmissionAccepted(uint256 submissionNumber, bytes32 repoId, uint256 issueNumber);\n    // Fired when a reviewer rejects a submission\n    event SubmissionRejected(uint256 submissionNumber, bytes32 repoId, uint256 issueNumber);\n    // Fired when a bounty is opened up to work submissions from anyone\n    event AwaitingSubmissions(bytes32 repoId, uint256 issueNumber);\n\n\n    /**\n     * @notice Initialize Projects app for StandardBounties at `_bountiesAddr`\n     * @dev Initializes the Projects app, this is the Aragon custom constructor\n     * @param _bountiesAddr Address of the StandardBounties deployed instance Projects will rely on (changeable)\n     * @param _vault Address of the vault Projects will rely on (non changeable)\n     */\n    function initialize(\n        address _bountiesAddr,\n        Vault _vault\n    ) external onlyInit\n    {\n        require(isContract(_vault), ERROR_PROJECTS_VAULT_NOT_CONTRACT);\n        require(isContract(_bountiesAddr), ERROR_STANDARD_BOUNTIES_NOT_CONTRACT);\n\n        vault = _vault;\n\n        bountiesRegistry = Bounties(_bountiesAddr); // Standard Bounties instance\n\n        _addExperienceLevel(100, bytes32(\"Beginner\"));\n        _addExperienceLevel(300, bytes32(\"Intermediate\"));\n        _addExperienceLevel(500, bytes32(\"Advanced\"));\n\n        _changeBountySettings(\n            0, // baseRate\n            336, // bountyDeadline\n            ETH, // default bounty currency inits to ETH\n            _bountiesAddr // bountyAllocator\n        );\n\n        setDepositable(true);\n        initialized();\n    }\n\n///////////////////////\n// Set state functions\n///////////////////////\n\n\n    /**\n     * @notice Update settings for the Projects app\n     */\n    function changeBountySettings(\n        uint256[] _expMultipliers,\n        bytes32[] _expLevels,\n        uint256 _baseRate,\n        uint256 _bountyDeadline,\n        address _bountyCurrency,\n        address _bountyAllocator\n    ) external auth(CHANGE_SETTINGS_ROLE)\n    {\n        require(_expMultipliers.length == _expLevels.length, ERROR_LENGTH_MISMATCH);\n        require(isContract(_bountyAllocator), ERROR_STANDARD_BOUNTIES_NOT_CONTRACT);\n        settings.expLevels.length = 0;\n        settings.expMultipliers.length = 0;\n        for (uint i = 0; i < _expLevels.length; i++) {\n            _addExperienceLevel(_expMultipliers[i], _expLevels[i]);\n        }\n        _changeBountySettings(_baseRate, _bountyDeadline, _bountyCurrency, _bountyAllocator);\n    }\n\n///////////////////////\n// View state functions\n///////////////////////\n\n    /**\n     * @notice Get issue data from the registry.\n     * @param _repoId The id of the repo in the projects registry\n     * @param _issueNumber The issue number used to uniquely identify the issue within the repo\n     */\n    function getIssue(bytes32 _repoId, uint256 _issueNumber) external view isInitialized\n    returns(uint standardBountyId, uint256 fulfilled, uint balance, address assignee, string data)\n    {\n        Issue storage issue = repos[_repoId].issues[_issueNumber];\n        fulfilled = issue.fulfilledAmount;\n        standardBountyId = issue.standardBountyId;\n        balance = issue.bountySize;\n        assignee = issue.assignee;\n        data = issue.issueData;\n    }\n\n    /**\n     * @notice Get registry size.\n     */\n    function getReposCount() external view isInitialized returns (uint count) {\n        return repoIndexLength;\n    }\n\n    /**\n     * @notice Get an entry from the registry.\n     * @param _repoId The id of the repo in the projects registry\n     * @return index: The index value of the repo\n     * @return openIssueCount: number of currently open issues\n     * @return decoupled: whether or not the repo is linked to an external repository\n     * @return repoData: ipfs hash containing information about the repo\n     */\n    function getRepo(bytes32 _repoId) external view isInitialized\n    returns (uint256 index, uint256 openIssueCount, bool decoupled, string repoData)\n    {\n        require(isRepoAdded(_repoId), ERROR_REPO_MISSING);\n        index = repos[_repoId].index;\n        openIssueCount = openBounties[_repoId];\n        decoupled = repos[_repoId].decoupled;\n        repoData = repos[_repoId].repoData;\n    }\n\n    /**\n     * @notice Get general settings.\n     * @return BountySettings\n     */\n\n    function getSettings() external view isInitialized returns (\n        uint256[] expMultipliers,\n        bytes32[] expLevels,\n        uint256 baseRate,\n        uint256 bountyDeadline,\n        address bountyCurrency,\n        address bountyAllocator\n        //address bountyArbiter\n    )\n    {\n        return (\n            settings.expMultipliers,\n            settings.expLevels,\n            settings.baseRate,\n            settings.bountyDeadline,\n            settings.bountyCurrency,\n            bountiesRegistry\n            //settings.bountyArbiter\n        );\n    }\n\n///////////////////////\n// Repository functions\n///////////////////////\n    /**\n     * @notice Add or Update Project: `_projectData`.\n     * @param _repoId The id of the repo in the projects registry\n     * @param _decoupled Whether or not the repo is decoupled from a centralized repository\n     * @param _projectData The metadata of the repository\n     */\n    function setRepo(\n        bytes32 _repoId,\n        bool _decoupled,\n        string _projectData\n    ) external auth(ADD_REPO_ROLE)\n    {\n        _setRepo(_repoId, _decoupled, _projectData);\n    }\n\n    /**\n     * @notice Add or update Issue: `_issueData`\n     * @param _repoId The id of the repo in the projects registry\n     * @param _issueNumber the number uniquely identifying the issue within the repo\n     * @param _issueData The metadata of the issue\n     */\n    function setIssue(\n        bytes32 _repoId,\n        uint256 _issueNumber,\n        string _issueData\n    ) external auth(CREATE_ISSUES_ROLE)\n    {\n        _setIssue(_repoId, _issueNumber, 0, address(0), 0, _issueData);\n    }\n\n    /**\n     * @notice Remove repository\n     * @param _repoId The id of the repo in the projects registry\n     */\n    function removeRepo(\n        bytes32 _repoId\n    ) external auth(REMOVE_REPO_ROLE)\n    {\n        require(isRepoAdded(_repoId), ERROR_REPO_MISSING);\n        require(openBounties[_repoId] == 0, ERROR_PENDING_BOUNTIES);\n        uint rowToDelete = repos[_repoId].index;\n\n        if (repoIndexLength != 1) {\n            bytes32 repoToMove = repoIndex[repoIndexLength - 1];\n            repoIndex[rowToDelete] = repoToMove;\n            repos[repoToMove].index = rowToDelete;\n        }\n        // no need for SafeMath here since existence is verufed a above\n        repoIndexLength--;\n        emit RepoRemoved(_repoId, rowToDelete);\n    }\n\n///////////////////\n// External Bounty functions\n///////////////////\n\n    /**\n     * @notice Submit application for issue `_issueNumber` with application `_application`\n     * @param _repoId the repo id of the issue\n     * @param _issueNumber the issue up for assignment\n     * @param _application IPFS hash for the applicant's proposed timeline and strategy\n     */\n    function requestAssignment(\n        bytes32 _repoId,\n        uint256 _issueNumber,\n        string _application\n    ) external isInitialized\n    {\n        Issue storage issue = repos[_repoId].issues[_issueNumber];\n\n        require(issue.bountySize > 0, ERROR_ISSUE_INACTIVE);\n        require(issue.assignee != address(-1), ERROR_OPEN_BOUNTY);\n        require(issue.assignmentRequests[msg.sender].exists == false, ERROR_USER_APPLIED);\n\n        issue.applicants.push(msg.sender);\n        issue.assignmentRequests[msg.sender] = AssignmentRequest(\n            SubmissionStatus.Unreviewed,\n            _application,\n            true\n        );\n        bountiesRegistry.performAction(\n            address(this),\n            issue.standardBountyId,\n            _application\n        );\n        emit AssignmentRequested(_repoId, _issueNumber);\n    }\n\n    /**\n     * @notice `_approved ? 'Accept' : 'Reject'` `_requestor` for issue `_issueNumber`\n     * @param _repoId the repo id of the issue\n     * @param _issueNumber the issue up for assignment\n     * @param _requestor address of user that will be assigned the issue\n     * @param _updatedApplication IPFS hash of the application containing optional feedback\n     */\n    function reviewApplication(\n        bytes32 _repoId,\n        uint256 _issueNumber,\n        address _requestor,\n        string _updatedApplication,\n        bool _approved\n    ) external auth(REVIEW_APPLICATION_ROLE)\n    {\n        Issue storage issue = repos[_repoId].issues[_issueNumber];\n        require(issue.assignee != address(-1), ERROR_OPEN_BOUNTY);\n        require(issue.assignmentRequests[_requestor].exists == true, ERROR_NO_APPLICATION);\n        issue.assignmentRequests[_requestor].requestHash = _updatedApplication;\n\n        if (_approved) {\n            issue.assignee = _requestor;\n            issue.assignmentRequests[_requestor].status = SubmissionStatus.Accepted;\n            emit AssignmentApproved(_requestor, _repoId, _issueNumber);\n        } else {\n            issue.assignmentRequests[_requestor].status = SubmissionStatus.Rejected;\n            emit AssignmentRejected(_requestor, _repoId, _issueNumber);\n        }\n        bountiesRegistry.performAction(\n            address(this),\n            issue.standardBountyId,\n            _updatedApplication\n        );\n\n    }\n\n    /**\n     * @notice `_approved ? 'Accept' : 'Reject'` work for issue `_issueNumber` with info: `_updatedSubmissionHash`\n     * @dev add a submission to local state after it's been added to StandardBounties.sol\n     * @param _repoId the repo id of the issue\n     * @param _issueNumber the issue up for resolution\n     * @param _submissionNumber submission index of the submitted work for review\n     * @param _approved decision to accept the contribution\n     * @param _updatedSubmissionHash IPFS hash of the submission containing optional feedback\n     * @param _tokenAmounts array of amounts???\n     */\n    function reviewSubmission(\n        bytes32 _repoId,\n        uint256 _issueNumber,\n        uint256 _submissionNumber,\n        bool _approved,\n        string _updatedSubmissionHash,\n        uint256[] _tokenAmounts\n    ) external auth(WORK_REVIEW_ROLE)\n    {\n        Issue storage issue = repos[_repoId].issues[_issueNumber];\n\n        require(issue.assignee != address(0), ERROR_ISSUE_INACTIVE);\n\n        if (_approved) {\n            for (uint256 i = 0; i < _tokenAmounts.length; i++) {\n                issue.fulfilledAmount = issue.fulfilledAmount.add(_tokenAmounts[i]);\n                if (_tokenAmounts[i] > issue.bountySize) {\n                    // This condition exists to allow for the bounty total beyond the initial size\n                    // to be awarded, so the \"full\" bounty can be awarded when 3rd parties have contributed.\n                    // The standard bounties contract will revert if the amount exceeds the total bounty\n                    issue.bountySize = 0;\n                } else {\n                    // don't need safemath because of the condition check\n                    issue.bountySize -= _tokenAmounts[i];\n                }\n            }\n\n            bountiesRegistry.acceptFulfillment(\n                address(this),\n                issue.standardBountyId,\n                _submissionNumber,\n                0,\n                _tokenAmounts\n            );\n            openBounties[_repoId] = openBounties[_repoId].sub(1);\n            emit SubmissionAccepted(_submissionNumber, _repoId, _issueNumber);\n        } else {\n            emit SubmissionRejected(_submissionNumber, _repoId, _issueNumber);\n        }\n\n        bountiesRegistry.performAction(\n            address(this),\n            issue.standardBountyId,\n            _updatedSubmissionHash\n        );\n    }\n\n    /**\n     * @notice Update bounty for issue `_issueNumber`: `_description`\n     * @param _repoId The id of the repos in the projects registry\n     * @param _issueNumber issue number the bounty is assigned to\n     * @param _data Information hash stored in the bounty\n     * @param _deadline new deadline for bounty fulfillments\n     * @param _description Utilized when forwarded to give background to the\n     *                     issues up for removal\n     */\n    function updateBounty(\n        bytes32 _repoId,\n        uint256 _issueNumber,\n        string _data,\n        uint256 _deadline,\n        string _description\n    ) external auth(UPDATE_BOUNTIES_ROLE)\n    {\n        Issue storage issue = repos[_repoId].issues[_issueNumber];\n\n        require(issue.bountySize > 0, ERROR_ISSUE_INACTIVE);\n        issue.issueData = _data;\n        bountiesRegistry.changeData(\n            address(this),\n            issue.standardBountyId,\n            0,\n            _data\n        );\n        bountiesRegistry.changeDeadline(\n            address(this),\n            issue.standardBountyId,\n            0,\n            _deadline\n        );\n    }\n\n    /**\n     * @notice Remove funding from issues: `_description`\n     * @param _repoIds The ids of the repos in the projects registry\n     * @param _issueNumbers an array of bounty indexes\n     * @param _description Utilized when forwarded to give background to the\n     *                     issues up for removal\n     */\n    function removeBounties(\n        bytes32[] _repoIds,\n        uint256[] _issueNumbers,\n        string _description\n    ) external auth(REMOVE_ISSUES_ROLE)\n    {\n        require(_repoIds.length < 256, ERROR_LENGTH_EXCEEDED);\n        require(_issueNumbers.length < 256, ERROR_LENGTH_EXCEEDED);\n        require(_repoIds.length == _issueNumbers.length, ERROR_LENGTH_MISMATCH);\n        for (uint8 i = 0; i < _issueNumbers.length; i++) {\n            _removeBounty(_repoIds[i], _issueNumbers[i]);\n        }\n    }\n\n    /**\n     * @notice Submit a fulfillment for bounty #`_bountyId` with the following info: `_data`\n     * @dev This is a noop function implemented so the client can display the radspec\n     *      for this external contract call. It should never execute because it serves no\n     *      functional purpose here.\n     * @param _sender address of the user submitting the fulfillment\n     * @param _bountyId Standard Bounty Identifier\n     * @param _fulfillers array of users who contributed to the fulfillment of the bounty\n     * @param _data the provided proof of fulfillment\n     */\n    function fulfillBounty(\n        address _sender,\n        uint _bountyId,\n        address[] _fulfillers,\n        string _data\n    ) external pure\n    {\n        revert();\n    }\n\n///////////////////////\n// External utility functions\n///////////////////////\n\n    /**\n     * @notice Returns Applicant array length\n     * @param _repoId the repo id of the issue\n     * @param _issueNumber the issue up for assignmen\n     * @return  array length of the applicants array\n     */\n    function getApplicantsLength(\n        bytes32 _repoId,\n        uint256 _issueNumber\n    ) external view isInitialized returns(uint256 applicantQty)\n    {\n        applicantQty = repos[_repoId].issues[_issueNumber].applicants.length;\n    }\n\n    /**\n     * @notice Returns Applicant Address\n     * @param _repoId The repo id of the issue\n     * @param _issueNumber The issue up for assignment\n     * @param _idx The applicant's position in the array\n     * @return  applicant address\n     */\n    function getApplicant(\n        bytes32 _repoId,\n        uint256 _issueNumber,\n        uint256 _idx\n    ) external view isInitialized returns(address applicant, string application, SubmissionStatus status)\n    {\n        Issue storage issue = repos[_repoId].issues[_issueNumber];\n        applicant = issue.applicants[_idx];\n        application = issue.assignmentRequests[applicant].requestHash;\n        status = issue.assignmentRequests[applicant].status;\n    }\n\n///////////////////\n// Public Bounty functions\n///////////////////\n\n    /**\n     * @notice Fund issues: `_description`\n     * @param _repoIds The ids of the repos in the projects registry\n     * @param _issueNumbers An array of bounty indexes\n     * @param _bountySizes An array of bounty sizes\n     * @param _deadlines An array of bounty deadlines\n     * @param _tokenTypes An array of currency types: 0=ETH from user's wallet, 1=ETH from vault, 20=ERC20 token from vault\n     * @param _tokenContracts An array of token contracts\n     * @param _ipfsAddresses A string of IPFS addresses\n     * @param _description parsed and display to user when this function is forwarded\n     */\n    function addBounties(\n        bytes32[] _repoIds,\n        uint256[] _issueNumbers,\n        uint256[] _bountySizes,\n        uint256[] _deadlines,\n        uint256[] _tokenTypes,\n        address[] _tokenContracts,\n        string _ipfsAddresses,\n        string _description\n    ) public payable auth(FUND_ISSUES_ROLE)\n    {\n        _addBounties(\n            _repoIds,\n            _issueNumbers,\n            _bountySizes,\n            _deadlines,\n            _tokenTypes,\n            _tokenContracts,\n            _ipfsAddresses,\n            _description,\n            false\n        );\n    }\n\n    /**\n     * @notice Fund open-submission issues: `_description`\n     * @param _repoIds The ids of the repos in the projects registry\n     * @param _issueNumbers an array of bounty indexes\n     * @param _bountySizes an array of bounty sizes\n     * @param _deadlines an array of bounty deadlines\n     * @param _tokenTypes array of currency types: 0=ETH, 20=ERC20\n     * @param _tokenContracts an array of token contracts\n     * @param _ipfsAddresses a string of ipfs addresses\n     * @param _description parsed and display to user when this function is forwarded\n     */\n    function addBountiesNoAssignment(\n        bytes32[] _repoIds,\n        uint256[] _issueNumbers,\n        uint256[] _bountySizes,\n        uint256[] _deadlines,\n        uint256[] _tokenTypes,\n        address[] _tokenContracts,\n        string _ipfsAddresses,\n        string _description\n    ) public payable auth(FUND_OPEN_ISSUES_ROLE)\n    {\n        _addBounties(\n            _repoIds,\n            _issueNumbers,\n            _bountySizes,\n            _deadlines,\n            _tokenTypes,\n            _tokenContracts,\n            _ipfsAddresses,\n            _description,\n            true\n        );\n    }\n\n    /**\n     * @notice Issue curation: `_description`\n     * @dev curateIssues(): This function conforms to the upcoming\n     *                      specId 2 forwarder interface\n     *                      and it is meant to be forwarded to a dot\n     *                      voting app instance or another voting app\n     *                      that utilizes dynamic forwarding.\n     *                      The unused parameters are in place to conform\n     *                      to the above specification.\n     * @param _description The description of the issue curation\n     */\n    function curateIssues(\n        address[] /*unused_Addresses*/,\n        uint256[] issuePriorities,\n        uint256[] issueDescriptionIndices,\n        string /* unused_issueDescriptions*/,\n        string _description,\n        uint256[] issueRepos,\n        uint256[] issueNumbers,\n        uint256 /* unused_curationId */\n    ) public auth(CURATE_ISSUES_ROLE)\n    {\n        bytes32 repoId;\n        uint256 issueLength = issuePriorities.length;\n        require(issueLength == issueDescriptionIndices.length, \"LENGTH_MISMATCH: issuePriorites and issueDescriptionIdx\");\n        require(issueLength == issueRepos.length, \"LENGTH_MISMATCH: issuePriorites and issueRepos\");\n        require(issueLength == issueNumbers.length, \"LENGTH_MISMATCH: issuePriorites and issueNumbers\");\n\n        for (uint256 i = 0; i < issueLength; i++) {\n            repoId = bytes32(issueRepos[i]);\n            repos[repoId].issues[uint256(issueNumbers[i])].priority = issuePriorities[i];\n            emit IssueCurated(repoId);\n        }\n    }\n\n///////////////////////\n// Public utility functions\n///////////////////////\n\n    /**\n     * @notice Checks if a repo exists in the registry\n     * @param _repoId The repo id to check\n     * @return _repoId Id for newly added repo\n     */\n    function isRepoAdded(bytes32 _repoId) public view isInitialized returns(bool isAdded) {\n        uint256 repoIdxVal = repos[_repoId].index;\n        if (repoIndexLength == 0)\n            return false;\n        if (repoIdxVal >= repoIndexLength)\n            return false;\n        return (repoIndex[repos[_repoId].index] == _repoId);\n    }\n\n///////////////////////\n// Internal functions\n///////////////////////\n\n    function _setRepo(\n        bytes32 _repoId,\n        bool _decoupled,\n        string _repoData\n    ) internal\n    {\n        repos[_repoId].repoData = _repoData;\n        if (!isRepoAdded(_repoId)) {\n            repoIndex[repoIndexLength] = _repoId;\n            repos[_repoId].index = repoIndexLength;\n            repoIndexLength = repoIndexLength.add(1);\n            repos[_repoId].decoupled = _decoupled;\n            emit RepoAdded(_repoId, repos[_repoId].index, _decoupled);\n        } else {\n            emit RepoUpdated(_repoId, repos[_repoId].index, _repoData);\n        }\n    }\n\n    function _addBounties(\n        bytes32[] _repoIds,\n        uint256[] _issueNumbers,\n        uint256[] _bountySizes,\n        uint256[] _deadlines,\n        uint256[] _tokenTypes,\n        address[] _tokenContracts,\n        string _ipfsAddresses,\n        string _description,\n        bool _open\n    ) internal\n    {\n        string memory ipfsHash;\n        uint standardBountyId;\n        require(bytes(_ipfsAddresses).length == (CID_LENGTH * _bountySizes.length), ERROR_CID_LENGTH);\n\n        for (uint i = 0; i < _bountySizes.length; i++) {\n            ipfsHash = getHash(_ipfsAddresses, i);\n\n            // submit the bounty to the StandardBounties contract\n            standardBountyId = _issueBounty(\n                ipfsHash,\n                _deadlines[i],\n                _tokenContracts[i],\n                _tokenTypes[i],\n                _bountySizes[i]\n            );\n\n            //Add bounty to local registry\n            _addBounty(\n                _repoIds[i],\n                _issueNumbers[i],\n                standardBountyId,\n                _tokenContracts[i],\n                _bountySizes[i],\n                ipfsHash\n            );\n\n            if (_open) {\n                repos[_repoIds[i]].issues[_issueNumbers[i]].assignee = address(-1);\n                emit AwaitingSubmissions(_repoIds[i], _issueNumbers[i]);\n            }\n        }\n    }\n\n    /**\n     * @notice Update bounty setting values\n     * @dev _changeBountySettings(): update app settings by changing contract setting state\n     */\n    function _changeBountySettings(\n        uint256 _baseRate,\n        uint256 _bountyDeadline,\n        address _bountyCurrency,\n        address _bountyAllocator\n    ) internal\n    {\n        settings.baseRate = _baseRate;\n        settings.bountyDeadline = _bountyDeadline;\n        settings.bountyCurrency = _bountyCurrency;\n        bountiesRegistry = Bounties(_bountyAllocator);\n\n        emit BountySettingsChanged();\n    }\n\n    /**\n     * @notice create a new experience level containing the multiplier and description\n     * @dev _addExperienceLevel():  Push new entries into the expMultiplier and expLevel\n     *                              arrays\n     */\n    function _addExperienceLevel(\n        uint _multiplier,\n        bytes32 _description\n    ) internal\n    {\n        settings.expMultipliers.push(_multiplier);\n        settings.expLevels.push(_description);\n    }\n\n    /**\n     * @notice passes provided info to the linked Standard Bounties contract\n     * @dev _issueBounty(): There are three forms of the contribute call.\n     *                      The first is used if ETH from the user is used as the bounty contribution\n     *                      The second is used if ETH from the vault is the bounty currency\n     *                      The third is used if an ERC20 token from the vault is the bounty currency\n     */\n    function _issueBounty(\n        string _ipfsHash,\n        uint256 _deadline,\n        address _tokenContract,\n        uint256 _tokenType,\n        uint256 _bountySize\n    ) internal returns (uint256 bountyId)\n    {\n        require(_tokenType != 721, ERROR_NO_ERC721);\n        uint256 registryTokenType;\n        if (_tokenType == 0) {\n            require(_tokenContract == ETH, ERROR_ETH_CONTRACT);\n            registryTokenType = _tokenType;\n        } else if (_tokenType == 1) {\n            require(_tokenContract == ETH, ERROR_ETH_CONTRACT);\n            registryTokenType = 0;\n        } else {\n            registryTokenType = _tokenType;\n        }\n\n        address[] memory issuers = new address[](1);\n        issuers[0] = address(this);\n\n        if (_tokenType > 0) {\n            vault.transfer(_tokenContract, this, _bountySize);\n            if (registryTokenType != 0) {\n                require(ERC20Token(_tokenContract).approve(bountiesRegistry, _bountySize), \"ERROR_ERC20_TRANSFER\");\n            }\n        }\n\n        if (registryTokenType == 0) {\n            bountyId = bountiesRegistry.issueAndContribute.value(_bountySize)(\n                address(this),      // address payable _sender\n                issuers,            // address payable [] memory _issuers\n                issuers,            // address [] memory _approvers\n                _ipfsHash,          // string memory _data\n                _deadline,          // uint _deadline\n                _tokenContract,     // address _token\n                registryTokenType,   // uint _tokenVersion\n                _bountySize\n            );\n        } else {\n            bountyId = bountiesRegistry.issueAndContribute(\n                address(this),      // address payable _sender\n                issuers,            // address payable [] memory _issuers\n                issuers,            // address [] memory _approvers\n                _ipfsHash,          // string memory _data\n                _deadline,          // uint _deadline\n                _tokenContract,     // address _token\n                registryTokenType,   // uint _tokenVersion\n                _bountySize\n            );\n        }\n    }\n\n    /**\n     * @notice internal function that adds the bounty info to contract state\n     * @dev _addBounty():   Creates a new Issue instance in the specified Repo\n     *                      and initializes the the state parameters that aren't\n     *                      passed in\n     */\n    function _addBounty(\n        bytes32 _repoId,\n        uint256 _issueNumber,\n        uint _standardBountyId,\n        address _tokenContract,\n        uint256 _bountySize,\n        string _ipfsHash\n    ) internal\n    {\n        openBounties[_repoId] = openBounties[_repoId].add(1);\n\n        _setIssue(\n            _repoId,\n            _issueNumber,\n            _standardBountyId,\n            _tokenContract,\n            _bountySize,\n            _ipfsHash\n        );\n    }\n\n    function _setIssue(\n        bytes32 _repoId,\n        uint256 _issueNumber,\n        uint _standardBountyId,\n        address _tokenContract,\n        uint256 _bountySize,\n        string _ipfsHash\n    ) internal\n    {\n        address[] memory emptyAddressArray = new address[](0);\n        require(isRepoAdded(_repoId), ERROR_REPO_MISSING);\n        require(repos[_repoId].issues[_issueNumber].bountySize == 0, ERROR_ISSUE_ACTIVE);\n\n        repos[_repoId].issues[_issueNumber] = Issue(\n            _repoId,\n            _issueNumber,\n            _tokenContract,\n            _bountySize,\n            0,\n            999,\n            _standardBountyId,\n            ETH,\n            _ipfsHash,\n            emptyAddressArray\n        );\n        emit IssueUpdated(\n            _repoId,\n            _issueNumber,\n            _bountySize,\n            _standardBountyId,\n            _ipfsHash\n        );\n    }\n\n    /**\n     * @notice remove bounty from StandardBounties and local registry\n     * @dev _removeBounty():    First transfers the bounty value from\n     *                          the StandardBounties registry back\n     *                          to the Project's integrated vault.\n     *                          Next resets the issue's contract state.\n     * @param _repoId the repo id of the issue\n     * @param _issueNumber the issue up for assignment\n     */\n    function _removeBounty(\n        bytes32 _repoId,\n        uint256 _issueNumber\n    ) internal\n    {\n        Issue storage issue = repos[_repoId].issues[_issueNumber];\n        require(issue.bountySize > 0, ERROR_BOUNTY_REMOVED);\n        uint256[] memory originalAmount = new uint256[](1);\n        originalAmount[0] = issue.bountySize;\n        bountiesRegistry.drainBounty(\n            address(this),\n            issue.standardBountyId,\n            0,\n            originalAmount\n        );\n        _returnValueToVault(originalAmount[0], issue.tokenContract);\n        issue.bountySize = 0;\n        bountiesRegistry.changeDeadline(\n            address(this),\n            issue.standardBountyId,\n            0,\n            getTimestamp()\n        );\n        openBounties[_repoId] = openBounties[_repoId].sub(1);\n        emit BountyRemoved(\n            _repoId,\n            _issueNumber,\n            originalAmount[0]\n        );\n    }\n\n    function _returnValueToVault(uint256 _amount, address _token) internal {\n        if (_token == ETH)\n            vault.deposit.value(_amount)(_token, _amount);\n        else {\n            require(ERC20Token(_token).approve(vault, _amount), \"ERROR_ERC20__APPROVAL\");\n            vault.deposit(_token, _amount);\n        }\n    }\n\n    /**\n     * @notice parses InfoStrings for the CID hash\n     * @dev getHash():  First copies over the first 32 bytes.\n     *                  Next copies the remaining 14 bytes and\n     *                  and masks the remainder of the word\n     * @param _str The raw string to be parsed by the function\n     * @param _hashIndex The index of the hash to be parsed from\n     *                   the string of combined hashes\n     */\n    function getHash(\n        string _str,\n        uint256 _hashIndex\n    ) internal pure returns (string)\n    {\n        // first char is at location 0\n        //IPFS addresses span from 0 (startindex) to 46 (endIndex)\n        uint256 startIndex = _hashIndex * CID_LENGTH;\n        uint256 endIndex = startIndex + CID_LENGTH;\n        bytes memory strBytes = bytes(_str);\n        bytes memory result = new bytes(endIndex-startIndex);\n        uint256 length = endIndex - startIndex;\n        // destination in memory for the returned hash\n        uint256 dest;\n        // source location in memory for the returned hash\n        uint256 src;\n        // need to offset by 0x20 (32 bytes) to account for the first\n        // 32 \"header\" bytes\n        // then copy the first 32 bytes of the hash into the destination location\n        // solium-disable-next-line security/no-inline-assembly\n        assembly {\n            dest := add(result,0x20)\n            src := add(strBytes,add(0x20,startIndex))\n            mstore(dest, mload(src))\n        }\n        // copy the remaining 14 bytes and ensure the remaining\n        // 18 bytes of the word are set to \"00\" using a mask\n        src += 32;\n        dest += 32;\n        length -= 32;\n        uint mask = 256 ** (32 - length) - 1;\n        // solium-disable-next-line security/no-inline-assembly\n        assembly {\n            let srcpart := and(mload(src), not(mask))\n            let destpart := and(mload(dest), mask)\n            mstore(dest, or(destpart, srcpart))\n        }\n\n        return string(result);\n    }\n\n}\n",
  "sourcePath": "@autarklabs/apps-projects/contracts/Projects.sol",
  "compiler": {
    "name": "solc",
    "version": "0.4.24+commit.e67f0147.Emscripten.clang"
  },
  "schemaVersion": "3.4.2",
  "updatedAt": "2021-10-14T14:14:04.729Z",
  "devdoc": {
    "author": "Autark",
    "methods": {
      "addBounties(bytes32[],uint256[],uint256[],uint256[],uint256[],address[],string,string)": {
        "params": {
          "_bountySizes": "An array of bounty sizes",
          "_deadlines": "An array of bounty deadlines",
          "_description": "parsed and display to user when this function is forwarded",
          "_ipfsAddresses": "A string of IPFS addresses",
          "_issueNumbers": "An array of bounty indexes",
          "_repoIds": "The ids of the repos in the projects registry",
          "_tokenContracts": "An array of token contracts",
          "_tokenTypes": "An array of currency types: 0=ETH from user's wallet, 1=ETH from vault, 20=ERC20 token from vault"
        }
      },
      "addBountiesNoAssignment(bytes32[],uint256[],uint256[],uint256[],uint256[],address[],string,string)": {
        "params": {
          "_bountySizes": "an array of bounty sizes",
          "_deadlines": "an array of bounty deadlines",
          "_description": "parsed and display to user when this function is forwarded",
          "_ipfsAddresses": "a string of ipfs addresses",
          "_issueNumbers": "an array of bounty indexes",
          "_repoIds": "The ids of the repos in the projects registry",
          "_tokenContracts": "an array of token contracts",
          "_tokenTypes": "array of currency types: 0=ETH, 20=ERC20"
        }
      },
      "allowRecoverability(address)": {
        "details": "By default deriving from AragonApp makes it recoverable",
        "params": {
          "token": "Token address that would be recovered"
        },
        "return": "bool whether the app allows the recovery"
      },
      "canPerform(address,bytes32,uint256[])": {
        "details": "Check whether an action can be performed by a sender for a particular role on this app",
        "params": {
          "_params": "Permission params for the role",
          "_role": "Role on this app",
          "_sender": "Sender of the call"
        },
        "return": "Boolean indicating whether the sender has the permissions to perform the action.        Always returns false if the app hasn't been initialized yet."
      },
      "curateIssues(address[],uint256[],uint256[],string,string,uint256[],uint256[],uint256)": {
        "details": "curateIssues(): This function conforms to the upcoming                     specId 2 forwarder interface                     and it is meant to be forwarded to a dot                     voting app instance or another voting app                     that utilizes dynamic forwarding.                     The unused parameters are in place to conform                     to the above specification.",
        "params": {
          "_description": "The description of the issue curation"
        }
      },
      "fulfillBounty(address,uint256,address[],string)": {
        "details": "This is a noop function implemented so the client can display the radspec     for this external contract call. It should never execute because it serves no     functional purpose here.",
        "params": {
          "_bountyId": "Standard Bounty Identifier",
          "_data": "the provided proof of fulfillment",
          "_fulfillers": "array of users who contributed to the fulfillment of the bounty",
          "_sender": "address of the user submitting the fulfillment"
        }
      },
      "getApplicant(bytes32,uint256,uint256)": {
        "params": {
          "_idx": "The applicant's position in the array",
          "_issueNumber": "The issue up for assignment",
          "_repoId": "The repo id of the issue"
        },
        "return": "applicant address"
      },
      "getApplicantsLength(bytes32,uint256)": {
        "params": {
          "_issueNumber": "the issue up for assignmen",
          "_repoId": "the repo id of the issue"
        },
        "return": "array length of the applicants array"
      },
      "getInitializationBlock()": {
        "return": "Block number in which the contract was initialized"
      },
      "getIssue(bytes32,uint256)": {
        "params": {
          "_issueNumber": "The issue number used to uniquely identify the issue within the repo",
          "_repoId": "The id of the repo in the projects registry"
        }
      },
      "getRecoveryVault()": {
        "details": "Get the recovery vault for the app",
        "return": "Recovery vault address for the app"
      },
      "getRepo(bytes32)": {
        "params": {
          "_repoId": "The id of the repo in the projects registry"
        },
        "return": "index: The index value of the repoopenIssueCount: number of currently open issuesdecoupled: whether or not the repo is linked to an external repositoryrepoData: ipfs hash containing information about the repo"
      },
      "getSettings()": {
        "return": "BountySettings"
      },
      "hasInitialized()": {
        "return": "Whether the contract has been initialized by the time of the current block"
      },
      "initialize(address,address)": {
        "details": "Initializes the Projects app, this is the Aragon custom constructor",
        "params": {
          "_bountiesAddr": "Address of the StandardBounties deployed instance Projects will rely on (changeable)",
          "_vault": "Address of the vault Projects will rely on (non changeable)"
        }
      },
      "isRepoAdded(bytes32)": {
        "params": {
          "_repoId": "The repo id to check"
        },
        "return": "_repoId Id for newly added repo"
      },
      "removeBounties(bytes32[],uint256[],string)": {
        "params": {
          "_description": "Utilized when forwarded to give background to the                    issues up for removal",
          "_issueNumbers": "an array of bounty indexes",
          "_repoIds": "The ids of the repos in the projects registry"
        }
      },
      "removeRepo(bytes32)": {
        "params": {
          "_repoId": "The id of the repo in the projects registry"
        }
      },
      "requestAssignment(bytes32,uint256,string)": {
        "params": {
          "_application": "IPFS hash for the applicant's proposed timeline and strategy",
          "_issueNumber": "the issue up for assignment",
          "_repoId": "the repo id of the issue"
        }
      },
      "reviewApplication(bytes32,uint256,address,string,bool)": {
        "params": {
          "_issueNumber": "the issue up for assignment",
          "_repoId": "the repo id of the issue",
          "_requestor": "address of user that will be assigned the issue",
          "_updatedApplication": "IPFS hash of the application containing optional feedback"
        }
      },
      "reviewSubmission(bytes32,uint256,uint256,bool,string,uint256[])": {
        "details": "add a submission to local state after it's been added to StandardBounties.sol",
        "params": {
          "_approved": "decision to accept the contribution",
          "_issueNumber": "the issue up for resolution",
          "_repoId": "the repo id of the issue",
          "_submissionNumber": "submission index of the submitted work for review",
          "_tokenAmounts": "array of amounts???",
          "_updatedSubmissionHash": "IPFS hash of the submission containing optional feedback"
        }
      },
      "setIssue(bytes32,uint256,string)": {
        "params": {
          "_issueData": "The metadata of the issue",
          "_issueNumber": "the number uniquely identifying the issue within the repo",
          "_repoId": "The id of the repo in the projects registry"
        }
      },
      "setRepo(bytes32,bool,string)": {
        "params": {
          "_decoupled": "Whether or not the repo is decoupled from a centralized repository",
          "_projectData": "The metadata of the repository",
          "_repoId": "The id of the repo in the projects registry"
        }
      },
      "transferToVault(address)": {
        "params": {
          "_token": "Token balance to be sent to recovery vault."
        }
      },
      "updateBounty(bytes32,uint256,string,uint256,string)": {
        "params": {
          "_data": "Information hash stored in the bounty",
          "_deadline": "new deadline for bounty fulfillments",
          "_description": "Utilized when forwarded to give background to the                    issues up for removal",
          "_issueNumber": "issue number the bounty is assigned to",
          "_repoId": "The id of the repos in the projects registry"
        }
      }
    },
    "title": "Projects App"
  },
  "userdoc": {
    "methods": {
      "addBounties(bytes32[],uint256[],uint256[],uint256[],uint256[],address[],string,string)": {
        "notice": "Fund issues: `_description`"
      },
      "addBountiesNoAssignment(bytes32[],uint256[],uint256[],uint256[],uint256[],address[],string,string)": {
        "notice": "Fund open-submission issues: `_description`"
      },
      "changeBountySettings(uint256[],bytes32[],uint256,uint256,address,address)": {
        "notice": "Update settings for the Projects app"
      },
      "curateIssues(address[],uint256[],uint256[],string,string,uint256[],uint256[],uint256)": {
        "notice": "Issue curation: `_description`"
      },
      "fulfillBounty(address,uint256,address[],string)": {
        "notice": "Submit a fulfillment for bounty #`_bountyId` with the following info: `_data`"
      },
      "getApplicant(bytes32,uint256,uint256)": {
        "notice": "Returns Applicant Address"
      },
      "getApplicantsLength(bytes32,uint256)": {
        "notice": "Returns Applicant array length"
      },
      "getIssue(bytes32,uint256)": {
        "notice": "Get issue data from the registry."
      },
      "getRepo(bytes32)": {
        "notice": "Get an entry from the registry."
      },
      "getReposCount()": {
        "notice": "Get registry size."
      },
      "getSettings()": {
        "notice": "Get general settings."
      },
      "initialize(address,address)": {
        "notice": "Initialize Projects app for StandardBounties at `_bountiesAddr`"
      },
      "isRepoAdded(bytes32)": {
        "notice": "Checks if a repo exists in the registry"
      },
      "removeBounties(bytes32[],uint256[],string)": {
        "notice": "Remove funding from issues: `_description`"
      },
      "removeRepo(bytes32)": {
        "notice": "Remove repository"
      },
      "requestAssignment(bytes32,uint256,string)": {
        "notice": "Submit application for issue `_issueNumber` with application `_application`"
      },
      "reviewApplication(bytes32,uint256,address,string,bool)": {
        "notice": "`_approved ? 'Accept' : 'Reject'` `_requestor` for issue `_issueNumber`"
      },
      "reviewSubmission(bytes32,uint256,uint256,bool,string,uint256[])": {
        "notice": "`_approved ? 'Accept' : 'Reject'` work for issue `_issueNumber` with info: `_updatedSubmissionHash`"
      },
      "setIssue(bytes32,uint256,string)": {
        "notice": "Add or update Issue: `_issueData`"
      },
      "setRepo(bytes32,bool,string)": {
        "notice": "Add or Update Project: `_projectData`."
      },
      "transferToVault(address)": {
        "notice": "Send funds to recovery Vault. This contract should never receive funds,        but in case it does, this function allows one to recover them."
      },
      "updateBounty(bytes32,uint256,string,uint256,string)": {
        "notice": "Update bounty for issue `_issueNumber`: `_description`"
      }
    }
  }
}