{
  "contractName": "Redemptions",
  "abi": [
    {
      "constant": true,
      "inputs": [],
      "name": "hasInitialized",
      "outputs": [
        {
          "name": "",
          "type": "bool"
        }
      ],
      "payable": false,
      "stateMutability": "view",
      "type": "function"
    },
    {
      "constant": true,
      "inputs": [
        {
          "name": "_script",
          "type": "bytes"
        }
      ],
      "name": "getEVMScriptExecutor",
      "outputs": [
        {
          "name": "",
          "type": "address"
        }
      ],
      "payable": false,
      "stateMutability": "view",
      "type": "function"
    },
    {
      "constant": true,
      "inputs": [],
      "name": "tokenManager",
      "outputs": [
        {
          "name": "",
          "type": "address"
        }
      ],
      "payable": false,
      "stateMutability": "view",
      "type": "function"
    },
    {
      "constant": true,
      "inputs": [
        {
          "name": "",
          "type": "address"
        }
      ],
      "name": "redeemableTokenAdded",
      "outputs": [
        {
          "name": "",
          "type": "bool"
        }
      ],
      "payable": false,
      "stateMutability": "view",
      "type": "function"
    },
    {
      "constant": true,
      "inputs": [],
      "name": "getRecoveryVault",
      "outputs": [
        {
          "name": "",
          "type": "address"
        }
      ],
      "payable": false,
      "stateMutability": "view",
      "type": "function"
    },
    {
      "constant": true,
      "inputs": [],
      "name": "REMOVE_TOKEN_ROLE",
      "outputs": [
        {
          "name": "",
          "type": "bytes32"
        }
      ],
      "payable": false,
      "stateMutability": "view",
      "type": "function"
    },
    {
      "constant": true,
      "inputs": [],
      "name": "REDEEM_ROLE",
      "outputs": [
        {
          "name": "",
          "type": "bytes32"
        }
      ],
      "payable": false,
      "stateMutability": "view",
      "type": "function"
    },
    {
      "constant": true,
      "inputs": [
        {
          "name": "token",
          "type": "address"
        }
      ],
      "name": "allowRecoverability",
      "outputs": [
        {
          "name": "",
          "type": "bool"
        }
      ],
      "payable": false,
      "stateMutability": "view",
      "type": "function"
    },
    {
      "constant": true,
      "inputs": [],
      "name": "appId",
      "outputs": [
        {
          "name": "",
          "type": "bytes32"
        }
      ],
      "payable": false,
      "stateMutability": "view",
      "type": "function"
    },
    {
      "constant": true,
      "inputs": [],
      "name": "getInitializationBlock",
      "outputs": [
        {
          "name": "",
          "type": "uint256"
        }
      ],
      "payable": false,
      "stateMutability": "view",
      "type": "function"
    },
    {
      "constant": false,
      "inputs": [
        {
          "name": "_token",
          "type": "address"
        }
      ],
      "name": "transferToVault",
      "outputs": [],
      "payable": false,
      "stateMutability": "nonpayable",
      "type": "function"
    },
    {
      "constant": true,
      "inputs": [
        {
          "name": "_sender",
          "type": "address"
        },
        {
          "name": "_role",
          "type": "bytes32"
        },
        {
          "name": "_params",
          "type": "uint256[]"
        }
      ],
      "name": "canPerform",
      "outputs": [
        {
          "name": "",
          "type": "bool"
        }
      ],
      "payable": false,
      "stateMutability": "view",
      "type": "function"
    },
    {
      "constant": true,
      "inputs": [],
      "name": "getEVMScriptRegistry",
      "outputs": [
        {
          "name": "",
          "type": "address"
        }
      ],
      "payable": false,
      "stateMutability": "view",
      "type": "function"
    },
    {
      "constant": true,
      "inputs": [],
      "name": "REDEEMABLE_TOKENS_MAX_SIZE",
      "outputs": [
        {
          "name": "",
          "type": "uint256"
        }
      ],
      "payable": false,
      "stateMutability": "view",
      "type": "function"
    },
    {
      "constant": true,
      "inputs": [],
      "name": "kernel",
      "outputs": [
        {
          "name": "",
          "type": "address"
        }
      ],
      "payable": false,
      "stateMutability": "view",
      "type": "function"
    },
    {
      "constant": true,
      "inputs": [],
      "name": "isPetrified",
      "outputs": [
        {
          "name": "",
          "type": "bool"
        }
      ],
      "payable": false,
      "stateMutability": "view",
      "type": "function"
    },
    {
      "constant": true,
      "inputs": [],
      "name": "ADD_TOKEN_ROLE",
      "outputs": [
        {
          "name": "",
          "type": "bytes32"
        }
      ],
      "payable": false,
      "stateMutability": "view",
      "type": "function"
    },
    {
      "constant": true,
      "inputs": [],
      "name": "vault",
      "outputs": [
        {
          "name": "",
          "type": "address"
        }
      ],
      "payable": false,
      "stateMutability": "view",
      "type": "function"
    },
    {
      "anonymous": false,
      "inputs": [
        {
          "indexed": true,
          "name": "token",
          "type": "address"
        }
      ],
      "name": "AddRedeemableToken",
      "type": "event"
    },
    {
      "anonymous": false,
      "inputs": [
        {
          "indexed": true,
          "name": "token",
          "type": "address"
        }
      ],
      "name": "RemoveRedeemableToken",
      "type": "event"
    },
    {
      "anonymous": false,
      "inputs": [
        {
          "indexed": true,
          "name": "redeemer",
          "type": "address"
        },
        {
          "indexed": false,
          "name": "amount",
          "type": "uint256"
        }
      ],
      "name": "Redeem",
      "type": "event"
    },
    {
      "anonymous": false,
      "inputs": [
        {
          "indexed": true,
          "name": "executor",
          "type": "address"
        },
        {
          "indexed": false,
          "name": "script",
          "type": "bytes"
        },
        {
          "indexed": false,
          "name": "input",
          "type": "bytes"
        },
        {
          "indexed": false,
          "name": "returnData",
          "type": "bytes"
        }
      ],
      "name": "ScriptResult",
      "type": "event"
    },
    {
      "anonymous": false,
      "inputs": [
        {
          "indexed": true,
          "name": "vault",
          "type": "address"
        },
        {
          "indexed": true,
          "name": "token",
          "type": "address"
        },
        {
          "indexed": false,
          "name": "amount",
          "type": "uint256"
        }
      ],
      "name": "RecoverToVault",
      "type": "event"
    },
    {
      "constant": false,
      "inputs": [
        {
          "name": "_vault",
          "type": "address"
        },
        {
          "name": "_tokenManager",
          "type": "address"
        },
        {
          "name": "_redeemableTokens",
          "type": "address[]"
        }
      ],
      "name": "initialize",
      "outputs": [],
      "payable": false,
      "stateMutability": "nonpayable",
      "type": "function"
    },
    {
      "constant": false,
      "inputs": [
        {
          "name": "_token",
          "type": "address"
        }
      ],
      "name": "addRedeemableToken",
      "outputs": [],
      "payable": false,
      "stateMutability": "nonpayable",
      "type": "function"
    },
    {
      "constant": false,
      "inputs": [
        {
          "name": "_token",
          "type": "address"
        }
      ],
      "name": "removeRedeemableToken",
      "outputs": [],
      "payable": false,
      "stateMutability": "nonpayable",
      "type": "function"
    },
    {
      "constant": false,
      "inputs": [
        {
          "name": "_burnableAmount",
          "type": "uint256"
        }
      ],
      "name": "redeem",
      "outputs": [],
      "payable": false,
      "stateMutability": "nonpayable",
      "type": "function"
    },
    {
      "constant": true,
      "inputs": [],
      "name": "getRedeemableTokens",
      "outputs": [
        {
          "name": "",
          "type": "address[]"
        }
      ],
      "payable": false,
      "stateMutability": "view",
      "type": "function"
    },
    {
      "constant": true,
      "inputs": [],
      "name": "getToken",
      "outputs": [
        {
          "name": "",
          "type": "address"
        }
      ],
      "payable": false,
      "stateMutability": "view",
      "type": "function"
    },
    {
      "constant": true,
      "inputs": [],
      "name": "getETHAddress",
      "outputs": [
        {
          "name": "",
          "type": "address"
        }
      ],
      "payable": false,
      "stateMutability": "view",
      "type": "function"
    }
  ],
  "bytecode": "0x6080604052620000176401000000006200001d810204565b6200023b565b6200003064010000000062000125810204565b60408051808201909152601881527f494e49545f414c52454144595f494e495449414c495a45440000000000000000602082015290156200010c576040517f08c379a00000000000000000000000000000000000000000000000000000000081526004018080602001828103825283818151815260200191508051906020019080838360005b83811015620000d0578181015183820152602001620000b6565b50505050905090810190601f168015620000fe5780820380516001836020036101000a031916815260200191505b509250505060405180910390fd5b506200012360001964010000000062000154810204565b565b60006200014f6000805160206200258f83398151915264010000000062001cce6200023382021704565b905090565b6200016764010000000062000125810204565b60408051808201909152601881527f494e49545f414c52454144595f494e495449414c495a454400000000000000006020820152901562000206576040517f08c379a000000000000000000000000000000000000000000000000000000000815260040180806020018281038252838181518152602001915080519060200190808383600083811015620000d0578181015183820152602001620000b6565b50620002306000805160206200258f833981519152826401000000006200210e6200023782021704565b50565b5490565b9055565b612344806200024b6000396000f30060806040526004361061012f5763ffffffff60e060020a6000350416630803fac0811461013457806321df0da71461015d5780632914b9bd1461018e5780632a709b14146101e75780632dc7e95f146101fc57806332f0a3b51461021d578063730d0feb14610232578063772576c71461025957806377a24f361461026e5780637e7db6e1146102a557806380afdea8146102c657806380bb2b88146102db5780638b3dd749146102fc5780638fa73933146103115780639d4941d814610332578063a1658fad14610353578063a479e508146103ba578063b07cb066146103cf578063bb321790146103e4578063c280558f146103f9578063d4aae0c41461045e578063db006a7514610473578063de4796ed1461048b578063e0673c4c146104a0578063fbfa77cf146104b5575b600080fd5b34801561014057600080fd5b506101496104ca565b604080519115158252519081900360200190f35b34801561016957600080fd5b506101726104f4565b60408051600160a060020a039092168252519081900360200190f35b34801561019a57600080fd5b506040805160206004803580820135601f810184900484028501840190955284845261017294369492936024939284019190819084018382808284375094975061056f9650505050505050565b3480156101f357600080fd5b50610172610655565b34801561020857600080fd5b50610149600160a060020a0360043516610664565b34801561022957600080fd5b50610172610679565b34801561023e57600080fd5b506102476106c0565b60408051918252519081900360200190f35b34801561026557600080fd5b506102476106ec565b34801561027a57600080fd5b506102a3600160a060020a03600480358216916024803590911691604435918201910135610712565b005b3480156102b157600080fd5b50610149600160a060020a0360043516610b75565b3480156102d257600080fd5b50610247610b7b565b3480156102e757600080fd5b506102a3600160a060020a0360043516610bab565b34801561030857600080fd5b50610247610eb7565b34801561031d57600080fd5b506102a3600160a060020a0360043516610ed0565b34801561033e57600080fd5b506102a3600160a060020a03600435166110a0565b34801561035f57600080fd5b506040805160206004604435818101358381028086018501909652808552610149958335600160a060020a03169560248035963696956064959394920192918291850190849080828437509497506113279650505050505050565b3480156103c657600080fd5b50610172611477565b3480156103db57600080fd5b50610172611516565b3480156103f057600080fd5b5061024761151b565b34801561040557600080fd5b5061040e611520565b60408051602080825283518183015283519192839290830191858101910280838360005b8381101561044a578181015183820152602001610432565b505050509050019250505060405180910390f35b34801561046a57600080fd5b50610172611582565b34801561047f57600080fd5b506102a36004356115ad565b34801561049757600080fd5b50610149611bae565b3480156104ac57600080fd5b50610247611bc1565b3480156104c157600080fd5b50610172611bea565b6000806104d5610eb7565b905080158015906104ed5750806104ea611bf9565b10155b91505b5090565b6001546040805160e160020a637e062a350281529051600092600160a060020a03169163fc0c546a91600480830192602092919082900301818787803b15801561053d57600080fd5b505af1158015610551573d6000803e3d6000fd5b505050506040513d602081101561056757600080fd5b505190505b90565b6000610579611477565b600160a060020a03166304bf2a7f836040518263ffffffff1660e060020a0281526004018080602001828103825283818151815260200191508051906020019080838360005b838110156105d75781810151838201526020016105bf565b50505050905090810190601f1680156106045780820380516001836020036101000a031916815260200191505b5092505050602060405180830381600087803b15801561062357600080fd5b505af1158015610637573d6000803e3d6000fd5b505050506040513d602081101561064d57600080fd5b505192915050565b600154600160a060020a031681565b60026020526000908152604090205460ff1681565b6000610683611582565b600160a060020a03166332f0a3b56040518163ffffffff1660e060020a028152600401602060405180830381600087803b15801561053d57600080fd5b60408051607860020a7052454d4f56455f544f4b454e5f524f4c45028152905190819003601101902081565b6040805160a860020a6a52454445454d5f524f4c45028152905190819003600b01902081565b60008061071d610eb7565b60408051808201909152601881526000805160206122d9833981519152602082015290156107cc5760405160e560020a62461bcd0281526004018080602001828103825283818151815260200191508051906020019080838360005b83811015610791578181015183820152602001610779565b50505050905090810190601f1680156107be5780820380516001836020036101000a031916815260200191505b509250505060405180910390fd5b506107d5611bfd565b6107de86611ca1565b60408051808201909152601e81527f524544454d5054494f4e535f5641554c545f4e4f545f434f4e5452414354000060208201529015156108645760405160e560020a62461bcd02815260040180806020018281038252838181518152602001915080519060200190808383600083811015610791578181015183820152602001610779565b5061086e85611ca1565b606060405190810160405280602681526020017f524544454d5054494f4e535f544f4b454e5f4d414e414745525f4e4f545f434f815260200160d260020a651395149050d5028152509015156109095760405160e560020a62461bcd02815260040180806020018281038252838181518152602001915080519060200190808383600083811015610791578181015183820152602001610779565b506040805160608101825260268152600080516020612299833981519152602082015260d260020a651517d19553130291810191909152601e8411156109945760405160e560020a62461bcd02815260040180806020018281038252838181518152602001915080519060200190808383600083811015610791578181015183820152602001610779565b50600091505b82821015610b30578383838181106109ae57fe5b60209081029290920135600160a060020a0316600081815260028452604090819020548151606081018352602681527f524544454d5054494f4e535f4455504c49434154455f52454445454d41424c459581019590955260d160020a652faa27a5a2a7029185019190915290935060ff16159050610a715760405160e560020a62461bcd02815260040180806020018281038252838181518152602001915080519060200190808383600083811015610791578181015183820152602001610779565b50600160a060020a03811615610b0057610a8a81611ca1565b60408051808201909152601e81526000805160206122f98339815191526020820152901515610afe5760405160e560020a62461bcd02815260040180806020018281038252838181518152602001915080519060200190808383600083811015610791578181015183820152602001610779565b505b600160a060020a0381166000908152600260205260409020805460ff19166001908117909155919091019061099a565b60008054600160a060020a03808916600160a060020a0319928316179092556001805492881692909116919091179055610b6c600385856121d2565b50505050505050565b50600190565b6000610ba67fd625496217aa6a3453eecb9c3489dc5a53e6c67b444329ea2b2cbc9ff547639b611cce565b905090565b60408051609060020a6d4144445f544f4b454e5f524f4c45028152815190819003600e01812060008083526020830190935291610bee9133918491905b50611327565b60408051808201909152600f8152608a60020a6e10541417d055551217d19052531151026020820152901515610c695760405160e560020a62461bcd02815260040180806020018281038252838181518152602001915080519060200190808383600083811015610791578181015183820152602001610779565b506003546040805160608101825260268152600080516020612299833981519152602082015260d260020a651517d1955313029181019190915290601e11610cf65760405160e560020a62461bcd02815260040180806020018281038252838181518152602001915080519060200190808383600083811015610791578181015183820152602001610779565b50600160a060020a038216600090815260026020908152604091829020548251808401909352601f83527f524544454d5054494f4e535f544f4b454e5f414c52454144595f4144444544009183019190915260ff1615610d9b5760405160e560020a62461bcd02815260040180806020018281038252838181518152602001915080519060200190808383600083811015610791578181015183820152602001610779565b50600160a060020a03821615610e2a57610db482611ca1565b60408051808201909152601e81526000805160206122f98339815191526020820152901515610e285760405160e560020a62461bcd02815260040180806020018281038252838181518152602001915080519060200190808383600083811015610791578181015183820152602001610779565b505b600160a060020a038216600081815260026020526040808220805460ff1916600190811790915560038054918201815583527fc2575a0e9e593c00f959f8c92f12db2869c3395a3b0502d05e2516446f71f85b018054600160a060020a03191684179055517f3baddd3b2eedbf433fdfd0bb5903c1f7172339996f8d9319fd0e9f5a47c484039190a25050565b6000610ba66000805160206122b9833981519152611cce565b60408051607860020a7052454d4f56455f544f4b454e5f524f4c45028152815190819003601101812060008083526020830190935291610f14913391849190610be8565b60408051808201909152600f8152608a60020a6e10541417d055551217d19052531151026020820152901515610f8f5760405160e560020a62461bcd02815260040180806020018281038252838181518152602001915080519060200190808383600083811015610791578181015183820152602001610779565b50600160a060020a038216600090815260026020908152604091829020548251808401909352601b83527f524544454d5054494f4e535f544f4b454e5f4e4f545f414444454400000000009183019190915260ff1615156110355760405160e560020a62461bcd02815260040180806020018281038252838181518152602001915080519060200190808383600083811015610791578181015183820152602001610779565b50600160a060020a0382166000908152600260205260409020805460ff1916905561106760038363ffffffff611cd616565b50604051600160a060020a038316907fc17d350898bd8a2308c1a5ee14fda9b3e5214bac6ff5b8c63092eec23e91ef7490600090a25050565b60008060006110ae84610b75565b6040805180820190915260128152607260020a71149150d3d5915497d11254d0531313d5d15102602082015290151561112c5760405160e560020a62461bcd02815260040180806020018281038252838181518152602001915080519060200190808383600083811015610791578181015183820152602001610779565b50611135610679565b925061114083611ca1565b60408051808201909152601a81527f5245434f5645525f5641554c545f4e4f545f434f4e545241435400000000000060208201529015156111c65760405160e560020a62461bcd02815260040180806020018281038252838181518152602001915080519060200190808383600083811015610791578181015183820152602001610779565b50600160a060020a03841615156112175760405130319250600160a060020a0384169083156108fc029084906000818181858888f19350505050158015611211573d6000803e3d6000fd5b506112d6565b5082611232600160a060020a0382163063ffffffff611dda16565b915061124e600160a060020a038216848463ffffffff611ec416565b60408051808201909152601d81527f5245434f5645525f544f4b454e5f5452414e534645525f4641494c454400000060208201529015156112d45760405160e560020a62461bcd02815260040180806020018281038252838181518152602001915080519060200190808383600083811015610791578181015183820152602001610779565b505b83600160a060020a031683600160a060020a03167f596caf56044b55fb8c4ca640089bbc2b63cae3e978b851f5745cbb7c5b288e02846040518082815260200191505060405180910390a350505050565b6000806113326104ca565b1515611341576000915061146f565b611349611582565b9050600160a060020a0381161515611364576000915061146f565b80600160a060020a031663fdef910686308761137f88611f24565b60405160e060020a63ffffffff8716028152600160a060020a03808616600483019081529085166024830152604482018490526080606483019081528351608484015283519192909160a490910190602085019080838360005b838110156113f15781810151838201526020016113d9565b50505050905090810190601f16801561141e5780820380516001836020036101000a031916815260200191505b5095505050505050602060405180830381600087803b15801561144057600080fd5b505af1158015611454573d6000803e3d6000fd5b505050506040513d602081101561146a57600080fd5b505191505b509392505050565b600080611482611582565b6040805160e360020a6317c0177b0281527fd6f028ca0e8edb4a8c9757ca4fdccab25fa1e0317da1188108f7d2dee14902fb60048201527fddbcfd564f642ab5627cf68b9b7d374fb4f8a36e941a75d89c87998cef03bd6160248201529051600160a060020a03929092169163be00bbd8916044808201926020929091908290030181600087803b15801561062357600080fd5b600090565b601e81565b6060600380548060200260200160405190810160405280929190818152602001828054801561157857602002820191906000526020600020905b8154600160a060020a0316815260019091019060200180831161155a575b5050505050905090565b6000610ba67f4172f0f7d2289153072b0a6ca36959e0cbe2efc3afe50fc81636caa96338137b611cce565b6000806000806000604051808060a860020a6a52454445454d5f524f4c4502815250600b01905060405180910390206115e533611f2e565b6115f0338383611327565b60408051808201909152600f8152608a60020a6e10541417d055551217d1905253115102602082015290151561166b5760405160e560020a62461bcd02815260040180806020018281038252838181518152602001915080519060200190808383600083811015610791578181015183820152602001610779565b5060408051808201909152601c81527f524544454d5054494f4e535f43414e4e4f545f4255524e5f5a45524f000000006020820152600089116116f35760405160e560020a62461bcd02815260040180806020018281038252838181518152602001915080519060200190808383600083811015610791578181015183820152602001610779565b506001546040805160e060020a630f8f8b8302815233600482015290518a92600160a060020a031691630f8f8b839160248083019260209291908290030181600087803b15801561174357600080fd5b505af1158015611757573d6000803e3d6000fd5b505050506040513d602081101561176d57600080fd5b50516040805180820190915260208082527f524544454d5054494f4e535f494e53554646494349454e545f42414c414e4345908201529111156117f55760405160e560020a62461bcd02815260040180806020018281038252838181518152602001915080519060200190808383600083811015610791578181015183820152602001610779565b50600160009054906101000a9004600160a060020a0316600160a060020a031663fc0c546a6040518163ffffffff1660e060020a028152600401602060405180830381600087803b15801561184957600080fd5b505af115801561185d573d6000803e3d6000fd5b505050506040513d602081101561187357600080fd5b50516040805160e060020a6318160ddd0281529051600160a060020a03909216916318160ddd916004808201926020929091908290030181600087803b1580156118bc57600080fd5b505af11580156118d0573d6000803e3d6000fd5b505050506040513d60208110156118e657600080fd5b50519350600092505b600354831015611a785760005460038054600160a060020a039092169163e3d670d791908690811061191d57fe5b60009182526020808320909101546040805160e060020a63ffffffff8716028152600160a060020a0390921660048301525160248083019491928390030190829087803b15801561196d57600080fd5b505af1158015611981573d6000803e3d6000fd5b505050506040513d602081101561199757600080fd5b505194506119bb846119af8a8863ffffffff611f4816565b9063ffffffff611ff616565b96506119cd868863ffffffff61208916565b95506000871115611a6d5760005460038054600160a060020a039092169163beabacc89190869081106119fc57fe5b60009182526020822001546040805160e060020a63ffffffff8616028152600160a060020a039092166004830152336024830152604482018c9052516064808301939282900301818387803b158015611a5457600080fd5b505af1158015611a68573d6000803e3d6000fd5b505050505b6001909201916118ef565b60408051808201909152601e81527f524544454d5054494f4e535f43414e4e4f545f52454445454d5f5a45524f0000602082015260008711611aff5760405160e560020a62461bcd02815260040180806020018281038252838181518152602001915080519060200190808383600083811015610791578181015183820152602001610779565b506001546040805160e260020a632770a7eb028152336004820152602481018b90529051600160a060020a0390921691639dc29fac9160448082019260009290919082900301818387803b158015611b5657600080fd5b505af1158015611b6a573d6000803e3d6000fd5b5050604080518b815290513393507f222838db2794d11532d940e8dec38ae307ed0b63cd97c233322e221f998767a692509081900360200190a25050505050505050565b6000600019611bbb610eb7565b14905090565b60408051609060020a6d4144445f544f4b454e5f524f4c45028152905190819003600e01902081565b600054600160a060020a031681565b4390565b611c05610eb7565b60408051808201909152601881526000805160206122d983398151915260208201529015611c785760405160e560020a62461bcd02815260040180806020018281038252838181518152602001915080519060200190808383600083811015610791578181015183820152602001610779565b50611c9f611c84611bf9565b6000805160206122b98339815191529063ffffffff61210e16565b565b600080600160a060020a0383161515611cbd5760009150611cc8565b823b90506000811191505b50919050565b5490565b5490565b815460009081805b82821015611dd15784600160a060020a03168683815481101515611cfe57fe5b600091825260209091200154600160a060020a03161415611dc65750845460001901818114611d8a578581815481101515611d3557fe5b6000918252602090912001548654600160a060020a0390911690879084908110611d5b57fe5b9060005260206000200160006101000a815481600160a060020a030219169083600160a060020a031602179055505b8581815481101515611d9857fe5b60009182526020909120018054600160a060020a031916905580611dbc8782612231565b5060019350611dd1565b600190910190611cde565b50505092915050565b60408051600160a060020a038316602480830191909152825180830390910181526044909101909152602081018051600160e060020a031660e060020a6370a08231021790526000908180611e2f8684612112565b60408051808201909152601c81527f534146455f4552435f32305f42414c414e43455f52455645525445440000000060208201529193509150821515611eba5760405160e560020a62461bcd02815260040180806020018281038252838181518152602001915080519060200190808383600083811015610791578181015183820152602001610779565b5095945050505050565b60408051600160a060020a03841660248201526044808201849052825180830390910181526064909101909152602081018051600160e060020a031660e060020a63a9059cbb02179052600090611f1b8582612143565b95945050505050565b8051602002815290565b6060611f4282600160a060020a0316612191565b92915050565b600080831515611f5b5760009150611fef565b50828202828482811515611f6b57fe5b6040805180820190915260118152607860020a704d4154485f4d554c5f4f564552464c4f570260208201529291900414611fea5760405160e560020a62461bcd02815260040180806020018281038252838181518152602001915080519060200190808383600083811015610791578181015183820152602001610779565b508091505b5092915050565b60408051808201909152600d8152609860020a6c4d4154485f4449565f5a45524f02602082015260009081908184116120745760405160e560020a62461bcd02815260040180806020018281038252838181518152602001915080519060200190808383600083811015610791578181015183820152602001610779565b50828481151561208057fe5b04949350505050565b6040805180820190915260118152607860020a704d4154485f4144445f4f564552464c4f570260208201526000908383019084821015611fea5760405160e560020a62461bcd02815260040180806020018281038252838181518152602001915080519060200190808383600083811015610791578181015183820152602001610779565b9055565b6000806000806040516020818751602089018a5afa9250600083111561213757805191505b50909590945092505050565b6000806040516020818551602087016000895af16000811115612187573d8015612174576020811461217d57612185565b60019350612185565b600183511493505b505b5090949350505050565b60408051600180825281830190925260609160208083019080388339019050509050818160008151811015156121c357fe5b60209081029091010152919050565b828054828255906000526020600020908101928215612225579160200282015b82811115612225578154600160a060020a031916600160a060020a038435161782556020909201916001909101906121f2565b506104f092915061225a565b8154818355818111156122555760008381526020902061225591810190830161227e565b505050565b61056c91905b808211156104f0578054600160a060020a0319168155600101612260565b61056c91905b808211156104f057600081556001016122845600524544454d5054494f4e535f52454445454d41424c455f544f4b454e5f4c4953ebb05b386a8d34882b8711d156f463690983dc47815980fb82aeeff1aa43579e494e49545f414c52454144595f494e495449414c495a45440000000000000000524544454d5054494f4e535f544f4b454e5f4e4f545f434f4e54524143540000a165627a7a723058200e5b671a4f59b6ac759aa6bdb4c33c6b1104521c158d02ceb6cf9c843692981c0029ebb05b386a8d34882b8711d156f463690983dc47815980fb82aeeff1aa43579e",
  "source": "pragma solidity ^0.4.24;\n\nimport \"@aragon/os/contracts/apps/AragonApp.sol\";\nimport \"@aragon/apps-token-manager/contracts/TokenManager.sol\";\n// import \"@autarklabs/apps-token-manager-custom/contracts/TokenManager.sol\";\n\nimport \"@aragon/apps-shared-minime/contracts/MiniMeToken.sol\";\nimport \"@aragon/apps-vault/contracts/Vault.sol\";\nimport \"@aragon/os/contracts/lib/math/SafeMath.sol\";\nimport \"@aragon/os/contracts/common/EtherTokenConstant.sol\";\nimport \"./lib/ArrayUtils.sol\";\n\n\ncontract Redemptions is AragonApp {\n    using SafeMath for uint256;\n    using ArrayUtils for address[];\n\n    bytes32 constant public REDEEM_ROLE = keccak256(\"REDEEM_ROLE\");\n    bytes32 constant public ADD_TOKEN_ROLE = keccak256(\"ADD_TOKEN_ROLE\");\n    bytes32 constant public REMOVE_TOKEN_ROLE = keccak256(\"REMOVE_TOKEN_ROLE\");\n\n    string private constant ERROR_VAULT_IS_NOT_CONTRACT = \"REDEMPTIONS_VAULT_NOT_CONTRACT\";\n    string private constant ERROR_TOKEN_MANAGER_IS_NOT_CONTRACT = \"REDEMPTIONS_TOKEN_MANAGER_NOT_CONTRACT\";\n    string private constant ERROR_REDEEMABLE_TOKEN_LIST_FULL = \"REDEMPTIONS_REDEEMABLE_TOKEN_LIST_FULL\";\n    string private constant ERROR_DUPLICATE_REDEEMABLE_TOKEN = \"REDEMPTIONS_DUPLICATE_REDEEMABLE_TOKEN\";\n    string private constant ERROR_TOKEN_ALREADY_ADDED = \"REDEMPTIONS_TOKEN_ALREADY_ADDED\";\n    string private constant ERROR_TOKEN_NOT_CONTRACT = \"REDEMPTIONS_TOKEN_NOT_CONTRACT\";\n    string private constant ERROR_TOKEN_NOT_ADDED = \"REDEMPTIONS_TOKEN_NOT_ADDED\";\n    string private constant ERROR_CANNOT_BURN_ZERO = \"REDEMPTIONS_CANNOT_BURN_ZERO\";\n    string private constant ERROR_INSUFFICIENT_BALANCE = \"REDEMPTIONS_INSUFFICIENT_BALANCE\";\n    string private constant ERROR_CANNOT_REDEEM_ZERO = \"REDEMPTIONS_CANNOT_REDEEM_ZERO\";\n\n    uint256 constant public REDEEMABLE_TOKENS_MAX_SIZE = 30;\n\n    Vault public vault;\n    TokenManager public tokenManager;\n\n    mapping(address => bool) public redeemableTokenAdded;\n    address[] internal redeemableTokens;\n\n    event AddRedeemableToken(address indexed token);\n    event RemoveRedeemableToken(address indexed token);\n    event Redeem(address indexed redeemer, uint256 amount);\n\n    /**\n    * @notice Initialize Redemptions app contract\n    * @param _vault Vault address\n    * @param _tokenManager TokenManager address\n    * @param _redeemableTokens Unique list of redeemable tokens\n    */\n    function initialize(Vault _vault, TokenManager _tokenManager, address[] _redeemableTokens) external onlyInit {\n        initialized();\n\n        require(isContract(_vault), ERROR_VAULT_IS_NOT_CONTRACT);\n        require(isContract(_tokenManager), ERROR_TOKEN_MANAGER_IS_NOT_CONTRACT);\n        require(_redeemableTokens.length <= REDEEMABLE_TOKENS_MAX_SIZE, ERROR_REDEEMABLE_TOKEN_LIST_FULL);\n\n        for (uint256 i = 0; i < _redeemableTokens.length; i++) {\n            address token = _redeemableTokens[i];\n            require(redeemableTokenAdded[token] == false, ERROR_DUPLICATE_REDEEMABLE_TOKEN);\n            if (token != ETH) {\n                require(isContract(token), ERROR_TOKEN_NOT_CONTRACT);\n            }\n            redeemableTokenAdded[token] = true;\n        }\n\n        vault = _vault;\n        tokenManager = _tokenManager;\n        redeemableTokens = _redeemableTokens;\n    }\n\n    /**\n    * @notice Add `_token == self.getETHAddress(): address ? 'ETH' : _token.symbol(): string` token to the redeemable tokens\n    * @param _token Token address\n    */\n    function addRedeemableToken(address _token) external auth(ADD_TOKEN_ROLE) {\n        require(redeemableTokens.length < REDEEMABLE_TOKENS_MAX_SIZE, ERROR_REDEEMABLE_TOKEN_LIST_FULL);\n        require(!redeemableTokenAdded[_token], ERROR_TOKEN_ALREADY_ADDED);\n\n        if (_token != ETH) {\n            require(isContract(_token), ERROR_TOKEN_NOT_CONTRACT);\n        }\n\n        redeemableTokenAdded[_token] = true;\n        redeemableTokens.push(_token);\n\n        emit AddRedeemableToken(_token);\n    }\n\n    /**\n    * @notice Remove `_token == self.getETHAddress(): address ? 'ETH' : _token.symbol(): string` token from the redeemable tokens\n    * @param _token Token address\n    */\n    function removeRedeemableToken(address _token) external auth(REMOVE_TOKEN_ROLE) {\n        require(redeemableTokenAdded[_token], ERROR_TOKEN_NOT_ADDED);\n\n        redeemableTokenAdded[_token] = false;\n        redeemableTokens.deleteItem(_token);\n\n        emit RemoveRedeemableToken(_token);\n    }\n\n    /**\n    * @dev The redeem function is intended to be used directly, using a forwarder will not work see: https://github.com/1Hive/redemptions-app/issues/78\n    * @notice Burn `@tokenAmount(self.getToken(): address, _burnableAmount, true)` in exchange for redeemable tokens.\n    * @param _burnableAmount Amount of burnable token to be exchanged for redeemable tokens\n    */\n    function redeem(uint256 _burnableAmount) external authP(REDEEM_ROLE, arr(msg.sender)) {\n        require(_burnableAmount > 0, ERROR_CANNOT_BURN_ZERO);\n        require(tokenManager.spendableBalanceOf(msg.sender) >= _burnableAmount, ERROR_INSUFFICIENT_BALANCE);\n\n        uint256 redemptionAmount;\n        uint256 totalRedemptionAmount;\n        uint256 vaultTokenBalance;\n        uint256 burnableTokenTotalSupply = tokenManager.token().totalSupply();\n\n        for (uint256 i = 0; i < redeemableTokens.length; i++) {\n            vaultTokenBalance = vault.balance(redeemableTokens[i]);\n\n            redemptionAmount = _burnableAmount.mul(vaultTokenBalance).div(burnableTokenTotalSupply);\n            totalRedemptionAmount = totalRedemptionAmount.add(redemptionAmount);\n\n            if (redemptionAmount > 0) {\n                vault.transfer(redeemableTokens[i], msg.sender, redemptionAmount);\n            }\n        }\n\n        require(totalRedemptionAmount > 0, ERROR_CANNOT_REDEEM_ZERO);\n\n        tokenManager.burn(msg.sender, _burnableAmount);\n\n        emit Redeem(msg.sender, _burnableAmount);\n    }\n\n    /**\n    * @notice Get tokens from redemption list\n    * @return token addresses\n    */\n    function getRedeemableTokens() external view returns (address[]) {\n        return redeemableTokens;\n    }\n\n    /**\n    * @dev Convenience functions for radspec\n    */\n    function getToken() external view returns (address) {\n        return tokenManager.token();\n    }\n\n    function getETHAddress() external view returns(address) {\n        return ETH;\n    }\n}\n",
  "sourcePath": "@1hive/apps-redemptions/contracts/Redemptions.sol",
  "compiler": {
    "name": "solc",
    "version": "0.4.24+commit.e67f0147.Emscripten.clang"
  },
  "schemaVersion": "3.4.2",
  "updatedAt": "2021-10-14T14:14:03.750Z",
  "devdoc": {
    "methods": {
      "addRedeemableToken(address)": {
        "params": {
          "_token": "Token address"
        }
      },
      "allowRecoverability(address)": {
        "details": "By default deriving from AragonApp makes it recoverable",
        "params": {
          "token": "Token address that would be recovered"
        },
        "return": "bool whether the app allows the recovery"
      },
      "canPerform(address,bytes32,uint256[])": {
        "details": "Check whether an action can be performed by a sender for a particular role on this app",
        "params": {
          "_params": "Permission params for the role",
          "_role": "Role on this app",
          "_sender": "Sender of the call"
        },
        "return": "Boolean indicating whether the sender has the permissions to perform the action.        Always returns false if the app hasn't been initialized yet."
      },
      "getInitializationBlock()": {
        "return": "Block number in which the contract was initialized"
      },
      "getRecoveryVault()": {
        "details": "Get the recovery vault for the app",
        "return": "Recovery vault address for the app"
      },
      "getRedeemableTokens()": {
        "return": "token addresses"
      },
      "getToken()": {
        "details": "Convenience functions for radspec"
      },
      "hasInitialized()": {
        "return": "Whether the contract has been initialized by the time of the current block"
      },
      "initialize(address,address,address[])": {
        "params": {
          "_redeemableTokens": "Unique list of redeemable tokens",
          "_tokenManager": "TokenManager address",
          "_vault": "Vault address"
        }
      },
      "redeem(uint256)": {
        "details": "The redeem function is intended to be used directly, using a forwarder will not work see: https://github.com/1Hive/redemptions-app/issues/78",
        "params": {
          "_burnableAmount": "Amount of burnable token to be exchanged for redeemable tokens"
        }
      },
      "removeRedeemableToken(address)": {
        "params": {
          "_token": "Token address"
        }
      },
      "transferToVault(address)": {
        "params": {
          "_token": "Token balance to be sent to recovery vault."
        }
      }
    }
  },
  "userdoc": {
    "methods": {
      "addRedeemableToken(address)": {
        "notice": "Add `_token == self.getETHAddress(): address ? 'ETH' : _token.symbol(): string` token to the redeemable tokens"
      },
      "getRedeemableTokens()": {
        "notice": "Get tokens from redemption list"
      },
      "initialize(address,address,address[])": {
        "notice": "Initialize Redemptions app contract"
      },
      "redeem(uint256)": {
        "notice": "Burn `@tokenAmount(self.getToken(): address, _burnableAmount, true)` in exchange for redeemable tokens."
      },
      "removeRedeemableToken(address)": {
        "notice": "Remove `_token == self.getETHAddress(): address ? 'ETH' : _token.symbol(): string` token from the redeemable tokens"
      },
      "transferToVault(address)": {
        "notice": "Send funds to recovery Vault. This contract should never receive funds,        but in case it does, this function allows one to recover them."
      }
    }
  }
}