{
  "contractName": "Repo",
  "abi": [
    {
      "constant": true,
      "inputs": [],
      "name": "hasInitialized",
      "outputs": [
        {
          "name": "",
          "type": "bool"
        }
      ],
      "payable": false,
      "stateMutability": "view",
      "type": "function"
    },
    {
      "constant": true,
      "inputs": [
        {
          "name": "_script",
          "type": "bytes"
        }
      ],
      "name": "getEVMScriptExecutor",
      "outputs": [
        {
          "name": "",
          "type": "address"
        }
      ],
      "payable": false,
      "stateMutability": "view",
      "type": "function"
    },
    {
      "constant": true,
      "inputs": [],
      "name": "getRecoveryVault",
      "outputs": [
        {
          "name": "",
          "type": "address"
        }
      ],
      "payable": false,
      "stateMutability": "view",
      "type": "function"
    },
    {
      "constant": true,
      "inputs": [
        {
          "name": "token",
          "type": "address"
        }
      ],
      "name": "allowRecoverability",
      "outputs": [
        {
          "name": "",
          "type": "bool"
        }
      ],
      "payable": false,
      "stateMutability": "view",
      "type": "function"
    },
    {
      "constant": true,
      "inputs": [],
      "name": "appId",
      "outputs": [
        {
          "name": "",
          "type": "bytes32"
        }
      ],
      "payable": false,
      "stateMutability": "view",
      "type": "function"
    },
    {
      "constant": true,
      "inputs": [],
      "name": "getInitializationBlock",
      "outputs": [
        {
          "name": "",
          "type": "uint256"
        }
      ],
      "payable": false,
      "stateMutability": "view",
      "type": "function"
    },
    {
      "constant": false,
      "inputs": [
        {
          "name": "_token",
          "type": "address"
        }
      ],
      "name": "transferToVault",
      "outputs": [],
      "payable": false,
      "stateMutability": "nonpayable",
      "type": "function"
    },
    {
      "constant": true,
      "inputs": [
        {
          "name": "_sender",
          "type": "address"
        },
        {
          "name": "_role",
          "type": "bytes32"
        },
        {
          "name": "_params",
          "type": "uint256[]"
        }
      ],
      "name": "canPerform",
      "outputs": [
        {
          "name": "",
          "type": "bool"
        }
      ],
      "payable": false,
      "stateMutability": "view",
      "type": "function"
    },
    {
      "constant": true,
      "inputs": [],
      "name": "getEVMScriptRegistry",
      "outputs": [
        {
          "name": "",
          "type": "address"
        }
      ],
      "payable": false,
      "stateMutability": "view",
      "type": "function"
    },
    {
      "constant": true,
      "inputs": [],
      "name": "CREATE_VERSION_ROLE",
      "outputs": [
        {
          "name": "",
          "type": "bytes32"
        }
      ],
      "payable": false,
      "stateMutability": "view",
      "type": "function"
    },
    {
      "constant": true,
      "inputs": [],
      "name": "kernel",
      "outputs": [
        {
          "name": "",
          "type": "address"
        }
      ],
      "payable": false,
      "stateMutability": "view",
      "type": "function"
    },
    {
      "constant": true,
      "inputs": [],
      "name": "isPetrified",
      "outputs": [
        {
          "name": "",
          "type": "bool"
        }
      ],
      "payable": false,
      "stateMutability": "view",
      "type": "function"
    },
    {
      "anonymous": false,
      "inputs": [
        {
          "indexed": false,
          "name": "versionId",
          "type": "uint256"
        },
        {
          "indexed": false,
          "name": "semanticVersion",
          "type": "uint16[3]"
        }
      ],
      "name": "NewVersion",
      "type": "event"
    },
    {
      "anonymous": false,
      "inputs": [
        {
          "indexed": true,
          "name": "executor",
          "type": "address"
        },
        {
          "indexed": false,
          "name": "script",
          "type": "bytes"
        },
        {
          "indexed": false,
          "name": "input",
          "type": "bytes"
        },
        {
          "indexed": false,
          "name": "returnData",
          "type": "bytes"
        }
      ],
      "name": "ScriptResult",
      "type": "event"
    },
    {
      "anonymous": false,
      "inputs": [
        {
          "indexed": true,
          "name": "vault",
          "type": "address"
        },
        {
          "indexed": true,
          "name": "token",
          "type": "address"
        },
        {
          "indexed": false,
          "name": "amount",
          "type": "uint256"
        }
      ],
      "name": "RecoverToVault",
      "type": "event"
    },
    {
      "constant": false,
      "inputs": [],
      "name": "initialize",
      "outputs": [],
      "payable": false,
      "stateMutability": "nonpayable",
      "type": "function"
    },
    {
      "constant": false,
      "inputs": [
        {
          "name": "_newSemanticVersion",
          "type": "uint16[3]"
        },
        {
          "name": "_contractAddress",
          "type": "address"
        },
        {
          "name": "_contentURI",
          "type": "bytes"
        }
      ],
      "name": "newVersion",
      "outputs": [],
      "payable": false,
      "stateMutability": "nonpayable",
      "type": "function"
    },
    {
      "constant": true,
      "inputs": [],
      "name": "getLatest",
      "outputs": [
        {
          "name": "semanticVersion",
          "type": "uint16[3]"
        },
        {
          "name": "contractAddress",
          "type": "address"
        },
        {
          "name": "contentURI",
          "type": "bytes"
        }
      ],
      "payable": false,
      "stateMutability": "view",
      "type": "function"
    },
    {
      "constant": true,
      "inputs": [
        {
          "name": "_contractAddress",
          "type": "address"
        }
      ],
      "name": "getLatestForContractAddress",
      "outputs": [
        {
          "name": "semanticVersion",
          "type": "uint16[3]"
        },
        {
          "name": "contractAddress",
          "type": "address"
        },
        {
          "name": "contentURI",
          "type": "bytes"
        }
      ],
      "payable": false,
      "stateMutability": "view",
      "type": "function"
    },
    {
      "constant": true,
      "inputs": [
        {
          "name": "_semanticVersion",
          "type": "uint16[3]"
        }
      ],
      "name": "getBySemanticVersion",
      "outputs": [
        {
          "name": "semanticVersion",
          "type": "uint16[3]"
        },
        {
          "name": "contractAddress",
          "type": "address"
        },
        {
          "name": "contentURI",
          "type": "bytes"
        }
      ],
      "payable": false,
      "stateMutability": "view",
      "type": "function"
    },
    {
      "constant": true,
      "inputs": [
        {
          "name": "_versionId",
          "type": "uint256"
        }
      ],
      "name": "getByVersionId",
      "outputs": [
        {
          "name": "semanticVersion",
          "type": "uint16[3]"
        },
        {
          "name": "contractAddress",
          "type": "address"
        },
        {
          "name": "contentURI",
          "type": "bytes"
        }
      ],
      "payable": false,
      "stateMutability": "view",
      "type": "function"
    },
    {
      "constant": true,
      "inputs": [],
      "name": "getVersionsCount",
      "outputs": [
        {
          "name": "",
          "type": "uint256"
        }
      ],
      "payable": false,
      "stateMutability": "view",
      "type": "function"
    },
    {
      "constant": true,
      "inputs": [
        {
          "name": "_oldVersion",
          "type": "uint16[3]"
        },
        {
          "name": "_newVersion",
          "type": "uint16[3]"
        }
      ],
      "name": "isValidBump",
      "outputs": [
        {
          "name": "",
          "type": "bool"
        }
      ],
      "payable": false,
      "stateMutability": "pure",
      "type": "function"
    }
  ],
  "bytecode": "0x6080604052620000176401000000006200001d810204565b6200023b565b6200003064010000000062000125810204565b60408051808201909152601881527f494e49545f414c52454144595f494e495449414c495a45440000000000000000602082015290156200010c576040517f08c379a00000000000000000000000000000000000000000000000000000000081526004018080602001828103825283818151815260200191508051906020019080838360005b83811015620000d0578181015183820152602001620000b6565b50505050905090810190601f168015620000fe5780820380516001836020036101000a031916815260200191505b509250505060405180910390fd5b506200012360001964010000000062000154810204565b565b60006200014f60008051602062001b5d833981519152640100000000620014726200023382021704565b905090565b6200016764010000000062000125810204565b60408051808201909152601881527f494e49545f414c52454144595f494e495449414c495a454400000000000000006020820152901562000206576040517f08c379a000000000000000000000000000000000000000000000000000000000815260040180806020018281038252838181518152602001915080519060200190808383600083811015620000d0578181015183820152602001620000b6565b506200023060008051602062001b5d833981519152826401000000006200169f6200023782021704565b50565b5490565b9055565b611912806200024b6000396000f3006080604052600436106100f85763ffffffff60e060020a6000350416630803fac081146100fd5780632914b9bd1461012657806332f0a3b51461019b5780634c3ba268146101b057806373053410146102ad578063737e7d4f1461033d5780637e7db6e11461035557806380afdea8146103765780638129fc1c1461039d5780638b3dd749146103b25780639a6fe50c146103c75780639d4941d8146103e8578063a1658fad14610409578063a479e50814610470578063a7bdf16e14610485578063aa61924a146104ee578063c36af46014610503578063c6d48e0d14610518578063d4aae0c41461052d578063de4796ed14610542575b600080fd5b34801561010957600080fd5b50610112610557565b604080519115158252519081900360200190f35b34801561013257600080fd5b506040805160206004803580820135601f810184900484028501840190955284845261017f9436949293602493928401919081908401838280828437509497506105819650505050505050565b60408051600160a060020a039092168252519081900360200190f35b3480156101a757600080fd5b5061017f610667565b3480156101bc57600080fd5b506040805160608181019092526101f39136916004916064919083906003908390839080828437509396506106e095505050505050565b6040518084606080838360005b83811015610218578181015183820152602001610200565b5050505090500183600160a060020a0316600160a060020a0316815260200180602001828103825283818151815260200191508051906020019080838360005b83811015610270578181015183820152602001610258565b50505050905090810190601f16801561029d5780820380516001836020036101000a031916815260200191505b5094505050505060405180910390f35b3480156102b957600080fd5b5060408051606081810190925261033b913691600491606491908390600390839083908082843750506040805160208781013589018035601f81018390048302840183018552808452979a8935600160a060020a03169a90999098940196509194509081019250819084018382808284375094975061071f9650505050505050565b005b34801561034957600080fd5b506101f3600435610b1b565b34801561036157600080fd5b50610112600160a060020a0360043516610cda565b34801561038257600080fd5b5061038b610ce0565b60408051918252519081900360200190f35b3480156103a957600080fd5b5061033b610d10565b3480156103be57600080fd5b5061038b610d9b565b3480156103d357600080fd5b506101f3600160a060020a0360043516610db4565b3480156103f457600080fd5b5061033b600160a060020a0360043516610de1565b34801561041557600080fd5b506040805160206004604435818101358381028086018501909652808552610112958335600160a060020a03169560248035963696956064959394920192918291850190849080828437509497506110689650505050505050565b34801561047c57600080fd5b5061017f6111b8565b34801561049157600080fd5b50604080516060818101909252610112913691600491606491908390600390839083908082843750506040805160608181019092529497969581810195945092506003915083908390808284375093965061125795505050505050565b3480156104fa57600080fd5b5061038b611346565b34801561050f57600080fd5b506101f3611358565b34801561052457600080fd5b5061038b61137d565b34801561053957600080fd5b5061017f611387565b34801561054e57600080fd5b506101126113b2565b600080610562610d9b565b9050801580159061057a5750806105776113c5565b10155b91505b5090565b600061058b6111b8565b600160a060020a03166304bf2a7f836040518263ffffffff1660e060020a0281526004018080602001828103825283818151815260200191508051906020019080838360005b838110156105e95781810151838201526020016105d1565b50505050905090810190601f1680156106165780820380516001836020036101000a031916815260200191505b5092505050602060405180830381600087803b15801561063557600080fd5b505af1158015610649573d6000803e3d6000fd5b505050506040513d602081101561065f57600080fd5b505192915050565b6000610671611387565b600160a060020a03166332f0a3b56040518163ffffffff1660e060020a028152600401602060405180830381600087803b1580156106ae57600080fd5b505af11580156106c2573d6000803e3d6000fd5b505050506040513d60208110156106d857600080fd5b505190505b90565b6106e8611722565b60006060610712600260006106fc876113c9565b8152602081019190915260400160002054610b1b565b9250925092509193909250565b60008061072a611722565b6040805160008082526020820190925281906000805160206118c7833981519152906107599033908390611068565b60408051808201909152600f8152608a60020a6e10541417d055551217d190525311510260208201529015156108105760405160e560020a62461bcd0281526004018080602001828103825283818151815260200191508051906020019080838360005b838110156107d55781810151838201526020016107bd565b50505050905090810190601f1680156108025780820380516001836020036101000a031916815260200191505b509250505060405180910390fd5b508795506001600054039450600085111561095557600085815260016020526040808220815160608101928390529095509185916003918390855b82829054906101000a900461ffff1661ffff168152602001906002019060208260010104928301926001038202915080841161084b5790505093975050505050600160a060020a03861615156108ac576001830154600160a060020a031695505b6001830154600160a060020a03878116911614806108d357508254895161ffff9182169116115b6040805180820190915260148152606160020a732922a827afa4a72b20a624a22fab22a929a4a7a70260208201529015156109535760405160e560020a62461bcd028152600401808060200182810382528381815181526020019150805190602001908083836000838110156107d55781810151838201526020016107bd565b505b61095f848a611257565b6040805180820190915260118152607c60020a7005245504f5f494e56414c49445f42554d50260208201529015156109dc5760405160e560020a62461bcd028152600401808060200182810382528381815181526020019150805190602001908083836000838110156107d55781810151838201526020016107bd565b506000805460018082018355604080516060810182528d8152600160a060020a038b166020808301919091528183018d905284865292909252909220825191945090610a2b9082906003611741565b50602082810151600183018054600160a060020a031916600160a060020a0390921691909117905560408301518051610a6a92600285019201906117d3565b509050508160026000610a7c8c6113c9565b81526020808201929092526040908101600090812093909355600160a060020a038916835260038252808320859055518481527e3aea8189d1a0aa3ebdb05219cd4c2a663166706e949e9d6e8aa63718ca43fd9285928d92919082019083906060908190849084905b83811015610afd578181015183820152602001610ae5565b505050509050019250505060405180910390a1505050505050505050565b610b23611722565b6000606060008085118015610b39575060005485105b60408051808201909152601781527f5245504f5f494e4558495354454e545f56455253494f4e0000000000000000006020820152901515610bbf5760405160e560020a62461bcd028152600401808060200182810382528381815181526020019150805190602001908083836000838110156107d55781810151838201526020016107bd565b50506000848152600160208190526040808320918201548151606081019283905292938493600160a060020a039092169260028501929185916003918390855b82829054906101000a900461ffff1661ffff1681526020019060020190602082600101049283019260010382029150808411610bff575050855460408051602060026001851615610100026000190190941693909304601f8101849004840282018401909252818152969950879550935085019150839050828015610cc55780601f10610c9a57610100808354040283529160200191610cc5565b820191906000526020600020905b815481529060010190602001808311610ca857829003601f168201915b50505050509050935093509350509193909250565b50600190565b6000610d0b7fd625496217aa6a3453eecb9c3489dc5a53e6c67b444329ea2b2cbc9ff547639b611472565b905090565b610d18610d9b565b60408051808201909152601881526000805160206118a783398151915260208201529015610d8b5760405160e560020a62461bcd028152600401808060200182810382528381815181526020019150805190602001908083836000838110156107d55781810151838201526020016107bd565b50610d94611476565b6001600055565b6000610d0b600080516020611887833981519152611472565b610dbc611722565b600160a060020a03821660009081526003602052604081205460609061071290610b1b565b6000806000610def84610cda565b6040805180820190915260128152607260020a71149150d3d5915497d11254d0531313d5d151026020820152901515610e6d5760405160e560020a62461bcd028152600401808060200182810382528381815181526020019150805190602001908083836000838110156107d55781810151838201526020016107bd565b50610e76610667565b9250610e818361151e565b60408051808201909152601a81527f5245434f5645525f5641554c545f4e4f545f434f4e54524143540000000000006020820152901515610f075760405160e560020a62461bcd028152600401808060200182810382528381815181526020019150805190602001908083836000838110156107d55781810151838201526020016107bd565b50600160a060020a0384161515610f585760405130319250600160a060020a0384169083156108fc029084906000818181858888f19350505050158015610f52573d6000803e3d6000fd5b50611017565b5082610f73600160a060020a0382163063ffffffff61154b16565b9150610f8f600160a060020a038216848463ffffffff61163516565b60408051808201909152601d81527f5245434f5645525f544f4b454e5f5452414e534645525f4641494c454400000060208201529015156110155760405160e560020a62461bcd028152600401808060200182810382528381815181526020019150805190602001908083836000838110156107d55781810151838201526020016107bd565b505b83600160a060020a031683600160a060020a03167f596caf56044b55fb8c4ca640089bbc2b63cae3e978b851f5745cbb7c5b288e02846040518082815260200191505060405180910390a350505050565b600080611073610557565b151561108257600091506111b0565b61108a611387565b9050600160a060020a03811615156110a557600091506111b0565b80600160a060020a031663fdef91068630876110c088611695565b60405160e060020a63ffffffff8716028152600160a060020a03808616600483019081529085166024830152604482018490526080606483019081528351608484015283519192909160a490910190602085019080838360005b8381101561113257818101518382015260200161111a565b50505050905090810190601f16801561115f5780820380516001836020036101000a031916815260200191505b5095505050505050602060405180830381600087803b15801561118157600080fd5b505af1158015611195573d6000803e3d6000fd5b505050506040513d60208110156111ab57600080fd5b505191505b509392505050565b6000806111c3611387565b6040805160e360020a6317c0177b0281527fd6f028ca0e8edb4a8c9757ca4fdccab25fa1e0317da1188108f7d2dee14902fb60048201527fddbcfd564f642ab5627cf68b9b7d374fb4f8a36e941a75d89c87998cef03bd6160248201529051600160a060020a03929092169163be00bbd8916044808201926020929091908290030181600087803b15801561063557600080fd5b600080805b600381101561133a5781156112935783816003811061127757fe5b602002015161ffff161561128e576000925061133e565b611332565b84816003811061129f57fe5b602002015161ffff168482600381106112b457fe5b602002015161ffff1614611332578381600381106112ce57fe5b602002015161ffff168582600381106112e357fe5b602002015161ffff16118061131f57508481600381106112ff57fe5b602002015184826003811061131057fe5b60200201510361ffff16600114155b1561132d576000925061133e565b600191505b60010161125c565b8192505b505092915050565b6000805160206118c783398151915281565b611360611722565b60006060611372600160005403610b1b565b925092509250909192565b6000546000190190565b6000610d0b7f4172f0f7d2289153072b0a6ca36959e0cbe2efc3afe50fc81636caa96338137b611472565b60006000196113bf610d9b565b14905090565b4390565b8051602080830151604080850151815160f060020a61ffff9687168102828701529386168402602282015294169091026024840152805160068185030181526026909301908190528251600093928291908401908083835b602083106114405780518252601f199092019160209182019101611421565b5181516020939093036101000a6000190180199091169216919091179052604051920182900390912095945050505050565b5490565b61147e610d9b565b60408051808201909152601881526000805160206118a7833981519152602082015290156114f15760405160e560020a62461bcd028152600401808060200182810382528381815181526020019150805190602001908083836000838110156107d55781810151838201526020016107bd565b506115186114fd6113c5565b6000805160206118878339815191529063ffffffff61169f16565b565b5490565b600080600160a060020a038316151561153a5760009150611545565b823b90506000811191505b50919050565b60408051600160a060020a038316602480830191909152825180830390910181526044909101909152602081018051600160e060020a031660e060020a6370a082310217905260009081806115a086846116a3565b60408051808201909152601c81527f534146455f4552435f32305f42414c414e43455f5245564552544544000000006020820152919350915082151561162b5760405160e560020a62461bcd028152600401808060200182810382528381815181526020019150805190602001908083836000838110156107d55781810151838201526020016107bd565b5095945050505050565b60408051600160a060020a03841660248201526044808201849052825180830390910181526064909101909152602081018051600160e060020a031660e060020a63a9059cbb0217905260009061168c85826116d4565b95945050505050565b8051602002815290565b9055565b6000806000806040516020818751602089018a5afa925060008311156116c857805191505b50909590945092505050565b6000806040516020818551602087016000895af16000811115611718573d8015611705576020811461170e57611716565b60019350611716565b600183511493505b505b5090949350505050565b6060604051908101604052806003906020820280388339509192915050565b6001830191839082156117c75791602002820160005b8382111561179757835183826101000a81548161ffff021916908361ffff1602179055509260200192600201602081600101049283019260010302611757565b80156117c55782816101000a81549061ffff0219169055600201602081600101049283019260010302611797565b505b5061057d92915061184d565b828054600181600116156101000203166002900490600052602060002090601f016020900481019282601f1061181457805160ff1916838001178555611841565b82800160010185558215611841579182015b82811115611841578251825591602001919060010190611826565b5061057d92915061186c565b6106dd91905b8082111561057d57805461ffff19168155600101611853565b6106dd91905b8082111561057d57600081556001016118725600ebb05b386a8d34882b8711d156f463690983dc47815980fb82aeeff1aa43579e494e49545f414c52454144595f494e495449414c495a454400000000000000001f56cfecd3595a2e6cc1a7e6cb0b20df84cdbd92eff2fee554e70e4e45a9a7d8a165627a7a72305820a8d23e9ac1820946bd68ccb1c4901ea69b986455798a3db7ef879e2bee8f17c70029ebb05b386a8d34882b8711d156f463690983dc47815980fb82aeeff1aa43579e",
  "source": "pragma solidity 0.4.24;\n\nimport \"../apps/AragonApp.sol\";\n\n\n/* solium-disable function-order */\n// Allow public initialize() to be first\ncontract Repo is AragonApp {\n    /* Hardcoded constants to save gas\n    bytes32 public constant CREATE_VERSION_ROLE = keccak256(\"CREATE_VERSION_ROLE\");\n    */\n    bytes32 public constant CREATE_VERSION_ROLE = 0x1f56cfecd3595a2e6cc1a7e6cb0b20df84cdbd92eff2fee554e70e4e45a9a7d8;\n\n    string private constant ERROR_INVALID_BUMP = \"REPO_INVALID_BUMP\";\n    string private constant ERROR_INVALID_VERSION = \"REPO_INVALID_VERSION\";\n    string private constant ERROR_INEXISTENT_VERSION = \"REPO_INEXISTENT_VERSION\";\n\n    struct Version {\n        uint16[3] semanticVersion;\n        address contractAddress;\n        bytes contentURI;\n    }\n\n    uint256 internal versionsNextIndex;\n    mapping (uint256 => Version) internal versions;\n    mapping (bytes32 => uint256) internal versionIdForSemantic;\n    mapping (address => uint256) internal latestVersionIdForContract;\n\n    event NewVersion(uint256 versionId, uint16[3] semanticVersion);\n\n    /**\n    * @dev Initialize can only be called once. It saves the block number in which it was initialized.\n    * @notice Initialize this Repo\n    */\n    function initialize() public onlyInit {\n        initialized();\n        versionsNextIndex = 1;\n    }\n\n    /**\n    * @notice Create new version with contract `_contractAddress` and content `@fromHex(_contentURI)`\n    * @param _newSemanticVersion Semantic version for new repo version\n    * @param _contractAddress address for smart contract logic for version (if set to 0, it uses last versions' contractAddress)\n    * @param _contentURI External URI for fetching new version's content\n    */\n    function newVersion(\n        uint16[3] _newSemanticVersion,\n        address _contractAddress,\n        bytes _contentURI\n    ) public auth(CREATE_VERSION_ROLE)\n    {\n        address contractAddress = _contractAddress;\n        uint256 lastVersionIndex = versionsNextIndex - 1;\n\n        uint16[3] memory lastSematicVersion;\n\n        if (lastVersionIndex > 0) {\n            Version storage lastVersion = versions[lastVersionIndex];\n            lastSematicVersion = lastVersion.semanticVersion;\n\n            if (contractAddress == address(0)) {\n                contractAddress = lastVersion.contractAddress;\n            }\n            // Only allows smart contract change on major version bumps\n            require(\n                lastVersion.contractAddress == contractAddress || _newSemanticVersion[0] > lastVersion.semanticVersion[0],\n                ERROR_INVALID_VERSION\n            );\n        }\n\n        require(isValidBump(lastSematicVersion, _newSemanticVersion), ERROR_INVALID_BUMP);\n\n        uint256 versionId = versionsNextIndex++;\n        versions[versionId] = Version(_newSemanticVersion, contractAddress, _contentURI);\n        versionIdForSemantic[semanticVersionHash(_newSemanticVersion)] = versionId;\n        latestVersionIdForContract[contractAddress] = versionId;\n\n        emit NewVersion(versionId, _newSemanticVersion);\n    }\n\n    function getLatest() public view returns (uint16[3] semanticVersion, address contractAddress, bytes contentURI) {\n        return getByVersionId(versionsNextIndex - 1);\n    }\n\n    function getLatestForContractAddress(address _contractAddress)\n        public\n        view\n        returns (uint16[3] semanticVersion, address contractAddress, bytes contentURI)\n    {\n        return getByVersionId(latestVersionIdForContract[_contractAddress]);\n    }\n\n    function getBySemanticVersion(uint16[3] _semanticVersion)\n        public\n        view\n        returns (uint16[3] semanticVersion, address contractAddress, bytes contentURI)\n    {\n        return getByVersionId(versionIdForSemantic[semanticVersionHash(_semanticVersion)]);\n    }\n\n    function getByVersionId(uint _versionId) public view returns (uint16[3] semanticVersion, address contractAddress, bytes contentURI) {\n        require(_versionId > 0 && _versionId < versionsNextIndex, ERROR_INEXISTENT_VERSION);\n        Version storage version = versions[_versionId];\n        return (version.semanticVersion, version.contractAddress, version.contentURI);\n    }\n\n    function getVersionsCount() public view returns (uint256) {\n        return versionsNextIndex - 1;\n    }\n\n    function isValidBump(uint16[3] _oldVersion, uint16[3] _newVersion) public pure returns (bool) {\n        bool hasBumped;\n        uint i = 0;\n        while (i < 3) {\n            if (hasBumped) {\n                if (_newVersion[i] != 0) {\n                    return false;\n                }\n            } else if (_newVersion[i] != _oldVersion[i]) {\n                if (_oldVersion[i] > _newVersion[i] || _newVersion[i] - _oldVersion[i] != 1) {\n                    return false;\n                }\n                hasBumped = true;\n            }\n            i++;\n        }\n        return hasBumped;\n    }\n\n    function semanticVersionHash(uint16[3] version) internal pure returns (bytes32) {\n        return keccak256(abi.encodePacked(version[0], version[1], version[2]));\n    }\n}\n",
  "sourcePath": "@aragon/os/contracts/apm/Repo.sol",
  "compiler": {
    "name": "solc",
    "version": "0.4.24+commit.e67f0147.Emscripten.clang"
  },
  "schemaVersion": "3.4.2",
  "updatedAt": "2021-10-14T14:14:04.173Z",
  "devdoc": {
    "methods": {
      "allowRecoverability(address)": {
        "details": "By default deriving from AragonApp makes it recoverable",
        "params": {
          "token": "Token address that would be recovered"
        },
        "return": "bool whether the app allows the recovery"
      },
      "canPerform(address,bytes32,uint256[])": {
        "details": "Check whether an action can be performed by a sender for a particular role on this app",
        "params": {
          "_params": "Permission params for the role",
          "_role": "Role on this app",
          "_sender": "Sender of the call"
        },
        "return": "Boolean indicating whether the sender has the permissions to perform the action.        Always returns false if the app hasn't been initialized yet."
      },
      "getInitializationBlock()": {
        "return": "Block number in which the contract was initialized"
      },
      "getRecoveryVault()": {
        "details": "Get the recovery vault for the app",
        "return": "Recovery vault address for the app"
      },
      "hasInitialized()": {
        "return": "Whether the contract has been initialized by the time of the current block"
      },
      "initialize()": {
        "details": "Initialize can only be called once. It saves the block number in which it was initialized."
      },
      "newVersion(uint16[3],address,bytes)": {
        "params": {
          "_contentURI": "External URI for fetching new version's content",
          "_contractAddress": "address for smart contract logic for version (if set to 0, it uses last versions' contractAddress)",
          "_newSemanticVersion": "Semantic version for new repo version"
        }
      },
      "transferToVault(address)": {
        "params": {
          "_token": "Token balance to be sent to recovery vault."
        }
      }
    }
  },
  "userdoc": {
    "methods": {
      "initialize()": {
        "notice": "Initialize this Repo"
      },
      "newVersion(uint16[3],address,bytes)": {
        "notice": "Create new version with contract `_contractAddress` and content `@fromHex(_contentURI)`"
      },
      "transferToVault(address)": {
        "notice": "Send funds to recovery Vault. This contract should never receive funds,        but in case it does, this function allows one to recover them."
      }
    }
  }
}