{
  "contractName": "TokenRequest",
  "abi": [
    {
      "constant": true,
      "inputs": [],
      "name": "MODIFY_TOKENS_ROLE",
      "outputs": [
        {
          "name": "",
          "type": "bytes32"
        }
      ],
      "payable": false,
      "stateMutability": "view",
      "type": "function"
    },
    {
      "constant": true,
      "inputs": [],
      "name": "hasInitialized",
      "outputs": [
        {
          "name": "",
          "type": "bool"
        }
      ],
      "payable": false,
      "stateMutability": "view",
      "type": "function"
    },
    {
      "constant": true,
      "inputs": [
        {
          "name": "_script",
          "type": "bytes"
        }
      ],
      "name": "getEVMScriptExecutor",
      "outputs": [
        {
          "name": "",
          "type": "address"
        }
      ],
      "payable": false,
      "stateMutability": "view",
      "type": "function"
    },
    {
      "constant": true,
      "inputs": [],
      "name": "tokenManager",
      "outputs": [
        {
          "name": "",
          "type": "address"
        }
      ],
      "payable": false,
      "stateMutability": "view",
      "type": "function"
    },
    {
      "constant": true,
      "inputs": [],
      "name": "getRecoveryVault",
      "outputs": [
        {
          "name": "",
          "type": "address"
        }
      ],
      "payable": false,
      "stateMutability": "view",
      "type": "function"
    },
    {
      "constant": true,
      "inputs": [],
      "name": "SET_TOKEN_MANAGER_ROLE",
      "outputs": [
        {
          "name": "",
          "type": "bytes32"
        }
      ],
      "payable": false,
      "stateMutability": "view",
      "type": "function"
    },
    {
      "constant": true,
      "inputs": [],
      "name": "MAX_ACCEPTED_DEPOSIT_TOKENS",
      "outputs": [
        {
          "name": "",
          "type": "uint256"
        }
      ],
      "payable": false,
      "stateMutability": "view",
      "type": "function"
    },
    {
      "constant": true,
      "inputs": [
        {
          "name": "",
          "type": "uint256"
        }
      ],
      "name": "tokenRequests",
      "outputs": [
        {
          "name": "requesterAddress",
          "type": "address"
        },
        {
          "name": "depositToken",
          "type": "address"
        },
        {
          "name": "depositAmount",
          "type": "uint256"
        },
        {
          "name": "requestAmount",
          "type": "uint256"
        },
        {
          "name": "status",
          "type": "uint8"
        }
      ],
      "payable": false,
      "stateMutability": "view",
      "type": "function"
    },
    {
      "constant": true,
      "inputs": [
        {
          "name": "",
          "type": "uint256"
        }
      ],
      "name": "acceptedDepositTokens",
      "outputs": [
        {
          "name": "",
          "type": "address"
        }
      ],
      "payable": false,
      "stateMutability": "view",
      "type": "function"
    },
    {
      "constant": true,
      "inputs": [],
      "name": "nextTokenRequestId",
      "outputs": [
        {
          "name": "",
          "type": "uint256"
        }
      ],
      "payable": false,
      "stateMutability": "view",
      "type": "function"
    },
    {
      "constant": true,
      "inputs": [],
      "name": "FINALISE_TOKEN_REQUEST_ROLE",
      "outputs": [
        {
          "name": "",
          "type": "bytes32"
        }
      ],
      "payable": false,
      "stateMutability": "view",
      "type": "function"
    },
    {
      "constant": true,
      "inputs": [
        {
          "name": "token",
          "type": "address"
        }
      ],
      "name": "allowRecoverability",
      "outputs": [
        {
          "name": "",
          "type": "bool"
        }
      ],
      "payable": false,
      "stateMutability": "view",
      "type": "function"
    },
    {
      "constant": true,
      "inputs": [],
      "name": "appId",
      "outputs": [
        {
          "name": "",
          "type": "bytes32"
        }
      ],
      "payable": false,
      "stateMutability": "view",
      "type": "function"
    },
    {
      "constant": true,
      "inputs": [],
      "name": "getInitializationBlock",
      "outputs": [
        {
          "name": "",
          "type": "uint256"
        }
      ],
      "payable": false,
      "stateMutability": "view",
      "type": "function"
    },
    {
      "constant": false,
      "inputs": [
        {
          "name": "_token",
          "type": "address"
        }
      ],
      "name": "transferToVault",
      "outputs": [],
      "payable": false,
      "stateMutability": "nonpayable",
      "type": "function"
    },
    {
      "constant": true,
      "inputs": [
        {
          "name": "_sender",
          "type": "address"
        },
        {
          "name": "_role",
          "type": "bytes32"
        },
        {
          "name": "_params",
          "type": "uint256[]"
        }
      ],
      "name": "canPerform",
      "outputs": [
        {
          "name": "",
          "type": "bool"
        }
      ],
      "payable": false,
      "stateMutability": "view",
      "type": "function"
    },
    {
      "constant": true,
      "inputs": [],
      "name": "getEVMScriptRegistry",
      "outputs": [
        {
          "name": "",
          "type": "address"
        }
      ],
      "payable": false,
      "stateMutability": "view",
      "type": "function"
    },
    {
      "constant": true,
      "inputs": [],
      "name": "kernel",
      "outputs": [
        {
          "name": "",
          "type": "address"
        }
      ],
      "payable": false,
      "stateMutability": "view",
      "type": "function"
    },
    {
      "constant": true,
      "inputs": [],
      "name": "isPetrified",
      "outputs": [
        {
          "name": "",
          "type": "bool"
        }
      ],
      "payable": false,
      "stateMutability": "view",
      "type": "function"
    },
    {
      "constant": true,
      "inputs": [],
      "name": "SET_VAULT_ROLE",
      "outputs": [
        {
          "name": "",
          "type": "bytes32"
        }
      ],
      "payable": false,
      "stateMutability": "view",
      "type": "function"
    },
    {
      "constant": true,
      "inputs": [],
      "name": "vault",
      "outputs": [
        {
          "name": "",
          "type": "address"
        }
      ],
      "payable": false,
      "stateMutability": "view",
      "type": "function"
    },
    {
      "anonymous": false,
      "inputs": [
        {
          "indexed": false,
          "name": "tokenManager",
          "type": "address"
        }
      ],
      "name": "SetTokenManager",
      "type": "event"
    },
    {
      "anonymous": false,
      "inputs": [
        {
          "indexed": false,
          "name": "vault",
          "type": "address"
        }
      ],
      "name": "SetVault",
      "type": "event"
    },
    {
      "anonymous": false,
      "inputs": [
        {
          "indexed": true,
          "name": "token",
          "type": "address"
        }
      ],
      "name": "TokenAdded",
      "type": "event"
    },
    {
      "anonymous": false,
      "inputs": [
        {
          "indexed": true,
          "name": "token",
          "type": "address"
        }
      ],
      "name": "TokenRemoved",
      "type": "event"
    },
    {
      "anonymous": false,
      "inputs": [
        {
          "indexed": false,
          "name": "requestId",
          "type": "uint256"
        },
        {
          "indexed": false,
          "name": "requesterAddress",
          "type": "address"
        },
        {
          "indexed": false,
          "name": "depositToken",
          "type": "address"
        },
        {
          "indexed": false,
          "name": "depositAmount",
          "type": "uint256"
        },
        {
          "indexed": false,
          "name": "requestAmount",
          "type": "uint256"
        },
        {
          "indexed": false,
          "name": "reference",
          "type": "string"
        }
      ],
      "name": "TokenRequestCreated",
      "type": "event"
    },
    {
      "anonymous": false,
      "inputs": [
        {
          "indexed": false,
          "name": "requestId",
          "type": "uint256"
        },
        {
          "indexed": false,
          "name": "refundToAddress",
          "type": "address"
        },
        {
          "indexed": false,
          "name": "refundToken",
          "type": "address"
        },
        {
          "indexed": false,
          "name": "refundAmount",
          "type": "uint256"
        }
      ],
      "name": "TokenRequestRefunded",
      "type": "event"
    },
    {
      "anonymous": false,
      "inputs": [
        {
          "indexed": false,
          "name": "requestId",
          "type": "uint256"
        },
        {
          "indexed": false,
          "name": "requester",
          "type": "address"
        },
        {
          "indexed": false,
          "name": "depositToken",
          "type": "address"
        },
        {
          "indexed": false,
          "name": "depositAmount",
          "type": "uint256"
        },
        {
          "indexed": false,
          "name": "requestAmount",
          "type": "uint256"
        }
      ],
      "name": "TokenRequestFinalised",
      "type": "event"
    },
    {
      "anonymous": false,
      "inputs": [
        {
          "indexed": true,
          "name": "executor",
          "type": "address"
        },
        {
          "indexed": false,
          "name": "script",
          "type": "bytes"
        },
        {
          "indexed": false,
          "name": "input",
          "type": "bytes"
        },
        {
          "indexed": false,
          "name": "returnData",
          "type": "bytes"
        }
      ],
      "name": "ScriptResult",
      "type": "event"
    },
    {
      "anonymous": false,
      "inputs": [
        {
          "indexed": true,
          "name": "vault",
          "type": "address"
        },
        {
          "indexed": true,
          "name": "token",
          "type": "address"
        },
        {
          "indexed": false,
          "name": "amount",
          "type": "uint256"
        }
      ],
      "name": "RecoverToVault",
      "type": "event"
    },
    {
      "constant": false,
      "inputs": [
        {
          "name": "_tokenManager",
          "type": "address"
        },
        {
          "name": "_vault",
          "type": "address"
        },
        {
          "name": "_acceptedDepositTokens",
          "type": "address[]"
        }
      ],
      "name": "initialize",
      "outputs": [],
      "payable": false,
      "stateMutability": "nonpayable",
      "type": "function"
    },
    {
      "constant": false,
      "inputs": [
        {
          "name": "_tokenManager",
          "type": "address"
        }
      ],
      "name": "setTokenManager",
      "outputs": [],
      "payable": false,
      "stateMutability": "nonpayable",
      "type": "function"
    },
    {
      "constant": false,
      "inputs": [
        {
          "name": "_vault",
          "type": "address"
        }
      ],
      "name": "setVault",
      "outputs": [],
      "payable": false,
      "stateMutability": "nonpayable",
      "type": "function"
    },
    {
      "constant": false,
      "inputs": [
        {
          "name": "_token",
          "type": "address"
        }
      ],
      "name": "addToken",
      "outputs": [],
      "payable": false,
      "stateMutability": "nonpayable",
      "type": "function"
    },
    {
      "constant": false,
      "inputs": [
        {
          "name": "_token",
          "type": "address"
        }
      ],
      "name": "removeToken",
      "outputs": [],
      "payable": false,
      "stateMutability": "nonpayable",
      "type": "function"
    },
    {
      "constant": false,
      "inputs": [
        {
          "name": "_depositToken",
          "type": "address"
        },
        {
          "name": "_depositAmount",
          "type": "uint256"
        },
        {
          "name": "_requestAmount",
          "type": "uint256"
        },
        {
          "name": "_reference",
          "type": "string"
        }
      ],
      "name": "createTokenRequest",
      "outputs": [
        {
          "name": "",
          "type": "uint256"
        }
      ],
      "payable": true,
      "stateMutability": "payable",
      "type": "function"
    },
    {
      "constant": false,
      "inputs": [
        {
          "name": "_tokenRequestId",
          "type": "uint256"
        }
      ],
      "name": "refundTokenRequest",
      "outputs": [],
      "payable": false,
      "stateMutability": "nonpayable",
      "type": "function"
    },
    {
      "constant": false,
      "inputs": [
        {
          "name": "_tokenRequestId",
          "type": "uint256"
        }
      ],
      "name": "finaliseTokenRequest",
      "outputs": [],
      "payable": false,
      "stateMutability": "nonpayable",
      "type": "function"
    },
    {
      "constant": true,
      "inputs": [],
      "name": "getAcceptedDepositTokens",
      "outputs": [
        {
          "name": "",
          "type": "address[]"
        }
      ],
      "payable": false,
      "stateMutability": "view",
      "type": "function"
    },
    {
      "constant": true,
      "inputs": [
        {
          "name": "_tokenRequestId",
          "type": "uint256"
        }
      ],
      "name": "getTokenRequest",
      "outputs": [
        {
          "name": "requesterAddress",
          "type": "address"
        },
        {
          "name": "depositToken",
          "type": "address"
        },
        {
          "name": "depositAmount",
          "type": "uint256"
        },
        {
          "name": "requestAmount",
          "type": "uint256"
        }
      ],
      "payable": false,
      "stateMutability": "view",
      "type": "function"
    },
    {
      "constant": false,
      "inputs": [],
      "name": "getToken",
      "outputs": [
        {
          "name": "",
          "type": "address"
        }
      ],
      "payable": false,
      "stateMutability": "nonpayable",
      "type": "function"
    }
  ],
  "bytecode": "0x6080604052620000176401000000006200001d810204565b6200023b565b6200003064010000000062000125810204565b60408051808201909152601881527f494e49545f414c52454144595f494e495449414c495a45440000000000000000602082015290156200010c576040517f08c379a00000000000000000000000000000000000000000000000000000000081526004018080602001828103825283818151815260200191508051906020019080838360005b83811015620000d0578181015183820152602001620000b6565b50505050905090810190601f168015620000fe5780820380516001836020036101000a031916815260200191505b509250505060405180910390fd5b506200012360001964010000000062000154810204565b565b60006200014f6000805160206200302f833981519152640100000000620028a96200023382021704565b905090565b6200016764010000000062000125810204565b60408051808201909152601881527f494e49545f414c52454144595f494e495449414c495a454400000000000000006020820152901562000206576040517f08c379a000000000000000000000000000000000000000000000000000000000815260040180806020018281038252838181518152602001915080519060200190808383600083811015620000d0578181015183820152602001620000b6565b50620002306000805160206200302f8339815191528264010000000062002acb6200023782021704565b50565b5490565b9055565b612de4806200024b6000396000f30060806040526004361061017c5763ffffffff60e060020a600035041663079a317b81146101815780630803fac0146101a857806321df0da7146101d15780632914b9bd146102025780632a709b141461025b57806332f0a3b51461027057806333fd69bb14610285578063407b29c71461029a5780635e124dcf146102af5780635fa7b5841461031457806366844205146103375780636817031b1461038157806374be8a48146103a257806377a24f36146103ba57806377e08008146103ef57806378657caf146104045780637cb2b79c146104195780637e7db6e11461043a57806380afdea81461045b57806385fc7e2c146104705780638b3dd749146104985780639d4941d8146104ad578063a1658fad146104ce578063a479e50814610535578063bf6eec161461054a578063c9d87cae14610562578063d48bfca71461057a578063d4aae0c41461059b578063de4796ed146105b0578063eeaba51e146105c5578063f932e2551461062a578063fbfa77cf1461063f575b600080fd5b34801561018d57600080fd5b50610196610654565b60408051918252519081900360200190f35b3480156101b457600080fd5b506101bd610681565b604080519115158252519081900360200190f35b3480156101dd57600080fd5b506101e66106ab565b60408051600160a060020a039092168252519081900360200190f35b34801561020e57600080fd5b506040805160206004803580820135601f81018490048402850184019095528484526101e69436949293602493928401919081908401838280828437509497506107319650505050505050565b34801561026757600080fd5b506101e6610817565b34801561027c57600080fd5b506101e6610826565b34801561029157600080fd5b5061019661086d565b3480156102a657600080fd5b5061019661089e565b3480156102bb57600080fd5b506102c76004356108a3565b60408051600160a060020a0380881682528616602082015290810184905260608101839052608081018260028111156102fc57fe5b60ff1681526020019550505050505060405180910390f35b34801561032057600080fd5b50610335600160a060020a03600435166108e2565b005b34801561034357600080fd5b5061034f600435610a9a565b60408051600160a060020a03958616815293909416602084015282840191909152606082015290519081900360800190f35b34801561038d57600080fd5b50610335600160a060020a0360043516610ace565b3480156103ae57600080fd5b506101e6600435610bd9565b3480156103c657600080fd5b50610335600160a060020a03600480358216916024803590911691604435918201910135610c01565b3480156103fb57600080fd5b50610196610fbf565b34801561041057600080fd5b50610196610fc5565b34801561042557600080fd5b50610335600160a060020a0360043516610fe8565b34801561044657600080fd5b506101bd600160a060020a036004351661118a565b34801561046757600080fd5b50610196611190565b61019660048035600160a060020a0316906024803591604435916064359081019101356111c0565b3480156104a457600080fd5b506101966114f2565b3480156104b957600080fd5b50610335600160a060020a036004351661150b565b3480156104da57600080fd5b5060408051602060046044358181013583810280860185019096528085526101bd958335600160a060020a03169560248035963696956064959394920192918291850190849080828437509497506117929650505050505050565b34801561054157600080fd5b506101e66118e2565b34801561055657600080fd5b50610335600435611981565b34801561056e57600080fd5b50610335600435611e8d565b34801561058657600080fd5b50610335600160a060020a03600435166122eb565b3480156105a757600080fd5b506101e66125f3565b3480156105bc57600080fd5b506101bd61261e565b3480156105d157600080fd5b506105da612631565b60408051602080825283518183015283519192839290830191858101910280838360005b838110156106165781810151838201526020016105fe565b505050509050019250505060405180910390f35b34801561063657600080fd5b50610196612693565b34801561064b57600080fd5b506101e66126bc565b60408051607060020a714d4f444946595f544f4b454e535f524f4c45028152905190819003601201902081565b60008061068c6114f2565b905080158015906106a45750806106a16126cb565b10155b91505b5090565b60008060009054906101000a9004600160a060020a0316600160a060020a031663fc0c546a6040518163ffffffff1660e060020a028152600401602060405180830381600087803b1580156106ff57600080fd5b505af1158015610713573d6000803e3d6000fd5b505050506040513d602081101561072957600080fd5b505190505b90565b600061073b6118e2565b600160a060020a03166304bf2a7f836040518263ffffffff1660e060020a0281526004018080602001828103825283818151815260200191508051906020019080838360005b83811015610799578181015183820152602001610781565b50505050905090810190601f1680156107c65780820380516001836020036101000a031916815260200191505b5092505050602060405180830381600087803b1580156107e557600080fd5b505af11580156107f9573d6000803e3d6000fd5b505050506040513d602081101561080f57600080fd5b505192915050565b600054600160a060020a031681565b60006108306125f3565b600160a060020a03166332f0a3b56040518163ffffffff1660e060020a028152600401602060405180830381600087803b1580156106ff57600080fd5b60408051605060020a755345545f544f4b454e5f4d414e414745525f524f4c45028152905190819003601601902081565b606481565b600460208190526000918252604090912080546001820154600283015460038401549390940154600160a060020a039283169492909116929060ff1685565b60408051607060020a714d4f444946595f544f4b454e535f524f4c450281528151908190036012018120600080835260208301909352916109299133918491905b50611792565b60408051808201909152600f8152600080516020612c3983398151915260208201529015156109d95760405160e560020a62461bcd0281526004018080602001828103825283818151815260200191508051906020019080838360005b8381101561099e578181015183820152602001610986565b50505050905090810190601f1680156109cb5780820380516001836020036101000a031916815260200191505b509250505060405180910390fd5b506109eb60028363ffffffff6126cf16565b604080519081016040528060208152602001600080516020612c79833981519152815250901515610a615760405160e560020a62461bcd0281526004018080602001828103825283818151815260200191508051906020019080838360008381101561099e578181015183820152602001610986565b50604051600160a060020a038316907f4c910b69fe65a61f7531b9c5042b2329ca7179c77290aa7e2eb3afa3c8511fd390600090a25050565b6000908152600460205260409020805460018201546002830154600390930154600160a060020a0392831694929091169291565b60408051609060020a6d5345545f5641554c545f524f4c45028152815190819003600e01812060008083526020830190935291610b0f913391849190610923565b60408051808201909152600f8152600080516020612c398339815191526020820152901515610b835760405160e560020a62461bcd0281526004018080602001828103825283818151815260200191508051906020019080838360008381101561099e578181015183820152602001610986565b5060018054600160a060020a038416600160a060020a0319909116811790915560408051918252517fd459c7242e23d490831b5676a611c4342d899d28f342d89ae80793e56a930f309181900360200190a15050565b6002805482908110610be757fe5b600091825260209091200154600160a060020a0316905081565b600080610c0c6114f2565b6040805180820190915260188152600080516020612cf983398151915260208201529015610c7f5760405160e560020a62461bcd0281526004018080602001828103825283818151815260200191508051906020019080838360008381101561099e578181015183820152602001610986565b50610c89866127d8565b60606040519081016040528060228152602001600080516020612cb9833981519152815260200160f260020a6110d502815250901515610d0e5760405160e560020a62461bcd0281526004018080602001828103825283818151815260200191508051906020019080838360008381101561099e578181015183820152602001610986565b506040805160608101825260268152600080516020612d39833981519152602082015260d060020a65544f4b454e5302918101919091526064841115610d995760405160e560020a62461bcd0281526004018080602001828103825283818151815260200191508051906020019080838360008381101561099e578181015183820152602001610986565b50600091505b82821015610f7257838383818110610db357fe5b90506020020135600160a060020a031690506000600160a060020a031681600160a060020a0316141515610e7157610dea816127d8565b60606040519081016040528060228152602001600080516020612cb9833981519152815260200160f260020a6110d502815250901515610e6f5760405160e560020a62461bcd0281526004018080602001828103825283818151815260200191508051906020019080838360008381101561099e578181015183820152602001610986565b505b60018210610f6757838383818110610e8557fe5b90506020020135600160a060020a0316600160a060020a03168484600185038181101515610eaf57fe5b90506020020135600160a060020a0316600160a060020a031610606060405190810160405280602781526020017f544f4b454e5f524551554553545f41434345505445445f544f4b454e535f4d41815260200160ca60020a66131193d493515102815250901515610f655760405160e560020a62461bcd0281526004018080602001828103825283818151815260200191508051906020019080838360008381101561099e578181015183820152602001610986565b505b600190910190610d9f565b60008054600160a060020a03808916600160a060020a0319928316179092556001805492881692909116919091179055610fae60028585612b52565b50610fb7612805565b505050505050565b60035481565b60408051600080516020612d198339815191528152905190819003601b01902081565b60408051605060020a755345545f544f4b454e5f4d414e414745525f524f4c45028152815190819003601601812060008083526020830190935291611031913391849190610923565b60408051808201909152600f8152600080516020612c3983398151915260208201529015156110a55760405160e560020a62461bcd0281526004018080602001828103825283818151815260200191508051906020019080838360008381101561099e578181015183820152602001610986565b506110af826127d8565b60606040519081016040528060228152602001600080516020612cb9833981519152815260200160f260020a6110d5028152509015156111345760405160e560020a62461bcd0281526004018080602001828103825283818151815260200191508051906020019080838360008381101561099e578181015183820152602001610986565b5060008054600160a060020a038416600160a060020a0319909116811790915560408051918252517f14ccd19762dcb2e95cb5d5f03e6a65fe77574ee2ad223f806bf06ad1fe5201e29181900360200190a15050565b50600190565b60006111bb7fd625496217aa6a3453eecb9c3489dc5a53e6c67b444329ea2b2cbc9ff547639b6128a9565b905090565b6000806111d460028863ffffffff6128ad16565b604080519081016040528060208152602001600080516020612c7983398151915281525090151561124a5760405160e560020a62461bcd0281526004018080602001828103825283818151815260200191508051906020019080838360008381101561099e578181015183820152602001610986565b50600160a060020a03871615156112e7576040805180820190915260208082527f544f4b454e5f524551554553545f4554485f56414c55455f4d49534d41544348908201523487146112e15760405160e560020a62461bcd0281526004018080602001828103825283818151815260200191508051906020019080838360008381101561099e578181015183820152602001610986565b5061138c565b611302600160a060020a03881633308963ffffffff61290a16565b60606040519081016040528060258152602001600080516020612d79833981519152815260200160da60020a6411549511510281525090151561138a5760405160e560020a62461bcd0281526004018080602001828103825283818151815260200191508051906020019080838360008381101561099e578181015183820152602001610986565b505b5060038054600181019091556040805160a081018252338152600160a060020a038916602082015290810187905260608101869052608081016000905260008281526004602081815260409283902084518154600160a060020a03918216600160a060020a031991821617835592860151600180840180549290931691909416179055928401516002808501919091556060850151600385015560808501519284018054909260ff1990911691849081111561144457fe5b02179055509050507fda5e8aabe47f19748ad72a97345a7cf7fb917c9a838237d34b2ab6f1fdfa373a813389898989896040518088815260200187600160a060020a0316600160a060020a0316815260200186600160a060020a0316600160a060020a0316815260200185815260200184815260200180602001828103825284848281815260200192508082843760405192018290039a509098505050505050505050a19695505050505050565b60006111bb600080516020612c998339815191526128a9565b60008060006115198461118a565b6040805180820190915260128152607260020a71149150d3d5915497d11254d0531313d5d1510260208201529015156115975760405160e560020a62461bcd0281526004018080602001828103825283818151815260200191508051906020019080838360008381101561099e578181015183820152602001610986565b506115a0610826565b92506115ab836127d8565b60408051808201909152601a81527f5245434f5645525f5641554c545f4e4f545f434f4e545241435400000000000060208201529015156116315760405160e560020a62461bcd0281526004018080602001828103825283818151815260200191508051906020019080838360008381101561099e578181015183820152602001610986565b50600160a060020a03841615156116825760405130319250600160a060020a0384169083156108fc029084906000818181858888f1935050505015801561167c573d6000803e3d6000fd5b50611741565b508261169d600160a060020a0382163063ffffffff61297716565b91506116b9600160a060020a038216848463ffffffff612a6116565b60408051808201909152601d81527f5245434f5645525f544f4b454e5f5452414e534645525f4641494c4544000000602082015290151561173f5760405160e560020a62461bcd0281526004018080602001828103825283818151815260200191508051906020019080838360008381101561099e578181015183820152602001610986565b505b83600160a060020a031683600160a060020a03167f596caf56044b55fb8c4ca640089bbc2b63cae3e978b851f5745cbb7c5b288e02846040518082815260200191505060405180910390a350505050565b60008061179d610681565b15156117ac57600091506118da565b6117b46125f3565b9050600160a060020a03811615156117cf57600091506118da565b80600160a060020a031663fdef91068630876117ea88612ac1565b60405160e060020a63ffffffff8716028152600160a060020a03808616600483019081529085166024830152604482018490526080606483019081528351608484015283519192909160a490910190602085019080838360005b8381101561185c578181015183820152602001611844565b50505050905090810190601f1680156118895780820380516001836020036101000a031916815260200191505b5095505050505050602060405180830381600087803b1580156118ab57600080fd5b505af11580156118bf573d6000803e3d6000fd5b505050506040513d60208110156118d557600080fd5b505191505b509392505050565b6000806118ed6125f3565b6040805160e360020a6317c0177b0281527fd6f028ca0e8edb4a8c9757ca4fdccab25fa1e0317da1188108f7d2dee14902fb60048201527fddbcfd564f642ab5627cf68b9b7d374fb4f8a36e941a75d89c87998cef03bd6160248201529051600160a060020a03929092169163be00bbd8916044808201926020929091908290030181600087803b1580156107e557600080fd5b6000808080808061199f600080516020612d998339815191526128a9565b6040805180820190915260198152600080516020612cd983398151915260208201529015611a125760405160e560020a62461bcd0281526004018080602001828103825283818151815260200191508051906020019080838360008381101561099e578181015183820152602001610986565b50611a32600080516020612d99833981519152600163ffffffff612acb16565b6003546040805180820190915260188152600080516020612d59833981519152602082015288918210611aaa5760405160e560020a62461bcd0281526004018080602001828103825283818151815260200191508051906020019080838360008381101561099e578181015183820152602001610986565b5060408051600080516020612d198339815191528152815190819003601b01812060008083526020830190935291611ae6913391849190610923565b60408051808201909152600f8152600080516020612c398339815191526020820152901515611b5a5760405160e560020a62461bcd0281526004018080602001828103825283818151815260200191508051906020019080838360008381101561099e578181015183820152602001610986565b5060008981526004602052604081209850600489015460ff166002811115611b7e57fe5b6040805180820190915260198152600080516020612c1983398151915260208201529114611bf15760405160e560020a62461bcd0281526004018080602001828103825283818151815260200191508051906020019080838360008381101561099e578181015183820152602001610986565b5060048801805460ff19166002908117909155885460018a0154918a015460038b0154600160a060020a039283169a5091909216975090955093506000851115611d9d57600160a060020a0386161515611cf357600154604051600160a060020a03909116908690600081818185875af19250505092508260606040519081016040528060218152602001600080516020612c59833981519152815260200160fa60020a601102815250901515611ced5760405160e560020a62461bcd0281526004018080602001828103825283818151815260200191508051906020019080838360008381101561099e578181015183820152602001610986565b50611d9d565b600154611d1390600160a060020a0388811691168763ffffffff612a6116565b60606040519081016040528060258152602001600080516020612d79833981519152815260200160da60020a64115495115102815250901515611d9b5760405160e560020a62461bcd0281526004018080602001828103825283818151815260200191508051906020019080838360008381101561099e578181015183820152602001610986565b505b600080546040805160e060020a6340c10f19028152600160a060020a038b8116600483015260248201899052915191909216926340c10f19926044808201939182900301818387803b158015611df257600080fd5b505af1158015611e06573d6000803e3d6000fd5b5050604080518c8152600160a060020a03808c1660208301528a1681830152606081018990526080810188905290517fe9c89dbcf184f595339ef4e6eb22ead6357e7cbc42aaa264fc7d47b4090c32e193509081900360a0019150a150611e849050600080516020612d99833981519152600063ffffffff612acb16565b50505050505050565b600080808080611eaa600080516020612d998339815191526128a9565b6040805180820190915260198152600080516020612cd983398151915260208201529015611f1d5760405160e560020a62461bcd0281526004018080602001828103825283818151815260200191508051906020019080838360008381101561099e578181015183820152602001610986565b50611f3d600080516020612d99833981519152600163ffffffff612acb16565b6003546040805180820190915260188152600080516020612d59833981519152602082015287918210611fb55760405160e560020a62461bcd0281526004018080602001828103825283818151815260200191508051906020019080838360008381101561099e578181015183820152602001610986565b5060008781526004602090815260409182902080548351808501909452601784527f544f4b454e5f524551554553545f4e4f545f4f574e4552000000000000000000928401929092529750600160a060020a0316331461205a5760405160e560020a62461bcd0281526004018080602001828103825283818151815260200191508051906020019080838360008381101561099e578181015183820152602001610986565b506000600487015460ff16600281111561207057fe5b6040805180820190915260198152600080516020612c19833981519152602082015291146120e35760405160e560020a62461bcd0281526004018080602001828103825283818151815260200191508051906020019080838360008381101561099e578181015183820152602001610986565b5060048601805460ff191660019081179091558654908701546002880154600160a060020a039283169750911694509250600083111561227b57600160a060020a03841615156121d757604051600160a060020a038616908490600081818185875af19250505091508160606040519081016040528060218152602001600080516020612c59833981519152815260200160fa60020a6011028152509015156121d15760405160e560020a62461bcd0281526004018080602001828103825283818151815260200191508051906020019080838360008381101561099e578181015183820152602001610986565b5061227b565b6121f1600160a060020a038516868563ffffffff612a6116565b60606040519081016040528060258152602001600080516020612d79833981519152815260200160da60020a641154951151028152509015156122795760405160e560020a62461bcd0281526004018080602001828103825283818151815260200191508051906020019080838360008381101561099e578181015183820152602001610986565b505b60408051888152600160a060020a0380881660208301528616818301526060810185905290517f77402a11d48fa8b6e88f001146c5721b5f549572dbe731791b2c24b335fb92299181900360800190a150610fb7600080516020612d99833981519152600063ffffffff612acb16565b60408051607060020a714d4f444946595f544f4b454e535f524f4c45028152815190819003601201812060008083526020830190935291612330913391849190610923565b60408051808201909152600f8152600080516020612c3983398151915260208201529015156123a45760405160e560020a62461bcd0281526004018080602001828103825283818151815260200191508051906020019080838360008381101561099e578181015183820152602001610986565b506123b660028363ffffffff6128ad16565b60408051606081018252602481527f544f4b454e5f524551554553545f544f4b454e5f414c52454144595f41434345602082015260e260020a63141511510291810191909152901561244d5760405160e560020a62461bcd0281526004018080602001828103825283818151815260200191508051906020019080838360008381101561099e578181015183820152602001610986565b506002546040805160608101825260268152600080516020612d39833981519152602082015260d060020a65544f4b454e530291810191909152906064116124da5760405160e560020a62461bcd0281526004018080602001828103825283818151815260200191508051906020019080838360008381101561099e578181015183820152602001610986565b50600160a060020a0382161561257a576124f3826127d8565b60606040519081016040528060228152602001600080516020612cb9833981519152815260200160f260020a6110d5028152509015156125785760405160e560020a62461bcd0281526004018080602001828103825283818151815260200191508051906020019080838360008381101561099e578181015183820152602001610986565b505b6002805460018101825560009182527f405787fa12a823e0f2b7631cc41b3ba8828b3321ca811111fa75cd3aa3bb5ace018054600160a060020a031916600160a060020a03851690811790915560405190917f784c8f4dbf0ffedd6e72c76501c545a70f8b203b30a26ce542bf92ba87c248a491a25050565b60006111bb7f4172f0f7d2289153072b0a6ca36959e0cbe2efc3afe50fc81636caa96338137b6128a9565b600060001961262b6114f2565b14905090565b6060600280548060200260200160405190810160405280929190818152602001828054801561268957602002820191906000526020600020905b8154600160a060020a0316815260019091019060200180831161266b575b5050505050905090565b60408051609060020a6d5345545f5641554c545f524f4c45028152905190819003600e01902081565b600154600160a060020a031681565b4390565b815460009081805b828210156127ca5784600160a060020a031686838154811015156126f757fe5b600091825260209091200154600160a060020a031614156127bf575084546000190181811461278357858181548110151561272e57fe5b6000918252602090912001548654600160a060020a039091169087908490811061275457fe5b9060005260206000200160006101000a815481600160a060020a030219169083600160a060020a031602179055505b858181548110151561279157fe5b60009182526020909120018054600160a060020a0319169055806127b58782612bb1565b50600193506127cf565b6001909101906126d7565b600093505b50505092915050565b600080600160a060020a03831615156127f457600091506127ff565b823b90506000811191505b50919050565b61280d6114f2565b6040805180820190915260188152600080516020612cf9833981519152602082015290156128805760405160e560020a62461bcd0281526004018080602001828103825283818151815260200191508051906020019080838360008381101561099e578181015183820152602001610986565b506128a761288c6126cb565b600080516020612c998339815191529063ffffffff612acb16565b565b5490565b6000805b83548110156128fe5782600160a060020a031684828154811015156128d257fe5b600091825260209091200154600160a060020a031614156128f65760019150612903565b6001016128b1565b600091505b5092915050565b60408051600160a060020a038581166024830152841660448201526064808201849052825180830390910181526084909101909152602081018051600160e060020a031660e060020a6323b872dd021790526000906129698682612ad3565b9695505050505050565b5490565b60408051600160a060020a038316602480830191909152825180830390910181526044909101909152602081018051600160e060020a031660e060020a6370a082310217905260009081806129cc8684612b21565b60408051808201909152601c81527f534146455f4552435f32305f42414c414e43455f52455645525445440000000060208201529193509150821515612a575760405160e560020a62461bcd0281526004018080602001828103825283818151815260200191508051906020019080838360008381101561099e578181015183820152602001610986565b5095945050505050565b60408051600160a060020a03841660248201526044808201849052825180830390910181526064909101909152602081018051600160e060020a031660e060020a63a9059cbb02179052600090612ab88582612ad3565b95945050505050565b8051602002815290565b9055565b9055565b6000806040516020818551602087016000895af16000811115612b17573d8015612b045760208114612b0d57612b15565b60019350612b15565b600183511493505b505b5090949350505050565b6000806000806040516020818751602089018a5afa92506000831115612b4657805191505b50909590945092505050565b828054828255906000526020600020908101928215612ba5579160200282015b82811115612ba5578154600160a060020a031916600160a060020a03843516178255602090920191600190910190612b72565b506106a7929150612bda565b815481835581811115612bd557600083815260209020612bd5918101908301612bfe565b505050565b61072e91905b808211156106a7578054600160a060020a0319168155600101612be0565b61072e91905b808211156106a75760008155600101612c045600544f4b454e5f524551554553545f4e4f545f50454e44494e47000000000000004150505f415554485f4641494c45440000000000000000000000000000000000544f4b454e5f524551554553545f4554485f5452414e534645525f4641494c45544f4b454e5f524551554553545f544f4b454e5f4e4f545f4143434550544544ebb05b386a8d34882b8711d156f463690983dc47815980fb82aeeff1aa43579e544f4b454e5f524551554553545f414444524553535f4e4f545f434f4e5452415245454e5452414e43595f5245454e5452414e545f43414c4c00000000000000494e49545f414c52454144595f494e495449414c495a4544000000000000000046494e414c4953455f544f4b454e5f524551554553545f524f4c450000000000544f4b454e5f524551554553545f544f4f5f4d414e595f41434345505445445f544f4b454e5f524551554553545f4e4f5f524551554553540000000000000000544f4b454e5f524551554553545f544f4b454e5f5452414e534645525f524556e855346402235fdd185c890e68d2c4ecad599b88587635ee285bce2fda58dacba165627a7a7230582055a4effd9a2d0dce0330426a14fbf9fdc20928ec89baa589a786e874397fd7870029ebb05b386a8d34882b8711d156f463690983dc47815980fb82aeeff1aa43579e",
  "source": "pragma solidity ^0.4.24;\n\nimport \"@aragon/os/contracts/apps/AragonApp.sol\";\nimport \"@aragon/os/contracts/common/EtherTokenConstant.sol\";\nimport \"@aragon/os/contracts/common/SafeERC20.sol\";\nimport \"@aragon/os/contracts/lib/token/ERC20.sol\";\nimport \"@aragon/apps-token-manager/contracts/TokenManager.sol\";\n// import \"@autarklabs/apps-token-manager-custom/contracts/TokenManager.sol\";\nimport \"./lib/UintArrayLib.sol\";\nimport \"./lib/AddressArrayLib.sol\";\n\n/**\n* The expected use of this app requires the FINALISE_TOKEN_REQUEST_ROLE permission be given exclusively to a forwarder.\n* A user can then request tokens by calling createTokenRequest() to deposit funds and then calling finaliseTokenRequest()\n* which will be called via the forwarder if forwarding is successful, minting the user tokens.\n*/\ncontract TokenRequest is AragonApp {\n\n    using SafeERC20 for ERC20;\n    using UintArrayLib for uint256[];\n    using AddressArrayLib for address[];\n\n    bytes32 constant public SET_TOKEN_MANAGER_ROLE = keccak256(\"SET_TOKEN_MANAGER_ROLE\");\n    bytes32 constant public SET_VAULT_ROLE = keccak256(\"SET_VAULT_ROLE\");\n    bytes32 constant public FINALISE_TOKEN_REQUEST_ROLE = keccak256(\"FINALISE_TOKEN_REQUEST_ROLE\");\n    bytes32 constant public MODIFY_TOKENS_ROLE = keccak256(\"MODIFY_TOKENS_ROLE\");\n\n    string private constant ERROR_TOO_MANY_ACCEPTED_TOKENS = \"TOKEN_REQUEST_TOO_MANY_ACCEPTED_TOKENS\";\n    string private constant ERROR_ADDRESS_NOT_CONTRACT = \"TOKEN_REQUEST_ADDRESS_NOT_CONTRACT\";\n    string private constant ERROR_ACCEPTED_TOKENS_MALFORMED = \"TOKEN_REQUEST_ACCEPTED_TOKENS_MALFORMED\";\n    string private constant ERROR_TOKEN_ALREADY_ACCEPTED = \"TOKEN_REQUEST_TOKEN_ALREADY_ACCEPTED\";\n    string private constant ERROR_TOKEN_NOT_ACCEPTED = \"TOKEN_REQUEST_TOKEN_NOT_ACCEPTED\";\n    string private constant ERROR_NOT_OWNER = \"TOKEN_REQUEST_NOT_OWNER\";\n    string private constant ERROR_NOT_PENDING = \"TOKEN_REQUEST_NOT_PENDING\";\n    string private constant ERROR_ETH_VALUE_MISMATCH = \"TOKEN_REQUEST_ETH_VALUE_MISMATCH\";\n    string private constant ERROR_ETH_TRANSFER_FAILED = \"TOKEN_REQUEST_ETH_TRANSFER_FAILED\";\n    string private constant ERROR_TOKEN_TRANSFER_REVERTED = \"TOKEN_REQUEST_TOKEN_TRANSFER_REVERTED\";\n    string private constant ERROR_NO_REQUEST = \"TOKEN_REQUEST_NO_REQUEST\";\n\n    uint256 public constant MAX_ACCEPTED_DEPOSIT_TOKENS = 100;\n\n    enum Status { Pending, Refunded, Finalised }\n\n    struct TokenRequest {\n        address requesterAddress;\n        address depositToken;\n        uint256 depositAmount;\n        uint256 requestAmount;\n        Status status;\n    }\n\n    TokenManager public tokenManager;\n    address public vault;\n\n    address[] public acceptedDepositTokens;\n\n    uint256 public nextTokenRequestId;\n    mapping(uint256 => TokenRequest) public tokenRequests; // ID => TokenRequest\n\n    event SetTokenManager(address tokenManager);\n    event SetVault(address vault);\n    event TokenAdded(address indexed token);\n    event TokenRemoved(address indexed token);\n    event TokenRequestCreated(uint256 requestId, address requesterAddress, address depositToken, uint256 depositAmount, uint256 requestAmount, string reference);\n    event TokenRequestRefunded(uint256 requestId, address refundToAddress, address refundToken, uint256 refundAmount);\n    event TokenRequestFinalised(uint256 requestId, address requester, address depositToken, uint256 depositAmount, uint256 requestAmount);\n\n    modifier tokenRequestExists(uint256 _tokenRequestId) {\n        require(_tokenRequestId < nextTokenRequestId, ERROR_NO_REQUEST);\n        _;\n    }\n\n    /**\n    * @notice Initialize TokenRequest app contract\n    * @param _tokenManager TokenManager address\n    * @param _vault Vault address\n    * @param _acceptedDepositTokens Unique list of redeemable tokens is ascending order\n    */\n    function initialize(address _tokenManager, address _vault, address[] _acceptedDepositTokens) external onlyInit {\n        require(isContract(_tokenManager), ERROR_ADDRESS_NOT_CONTRACT);\n        require(_acceptedDepositTokens.length <= MAX_ACCEPTED_DEPOSIT_TOKENS, ERROR_TOO_MANY_ACCEPTED_TOKENS);\n\n        for (uint256 i = 0; i < _acceptedDepositTokens.length; i++) {\n            address acceptedDepositToken = _acceptedDepositTokens[i];\n            if (acceptedDepositToken != ETH) {\n                require(isContract(acceptedDepositToken), ERROR_ADDRESS_NOT_CONTRACT);\n            }\n            if (i >= 1) {\n                require(_acceptedDepositTokens[i - 1] < _acceptedDepositTokens[i], ERROR_ACCEPTED_TOKENS_MALFORMED);\n            }\n        }\n\n        tokenManager = TokenManager(_tokenManager);\n        vault = _vault;\n        acceptedDepositTokens = _acceptedDepositTokens;\n\n        initialized();\n    }\n\n    /**\n    * @notice Set the Token Manager to `_tokenManager`.\n    * @param _tokenManager The new token manager address\n    */\n    function setTokenManager(address _tokenManager) external auth(SET_TOKEN_MANAGER_ROLE) {\n        require(isContract(_tokenManager), ERROR_ADDRESS_NOT_CONTRACT);\n\n        tokenManager = TokenManager(_tokenManager);\n        emit SetTokenManager(_tokenManager);\n    }\n\n    /**\n    * @notice Set the Vault to `_vault`.\n    * @param _vault The new vault address\n    */\n    function setVault(address _vault) external auth(SET_VAULT_ROLE) {\n        vault = _vault;\n        emit SetVault(_vault);\n    }\n\n    /**\n    * @notice Add `_token.symbol(): string` to the accepted deposit token request tokens\n    * @param _token token address\n    */\n    function addToken(address _token) external auth(MODIFY_TOKENS_ROLE) {\n        require(!acceptedDepositTokens.contains(_token), ERROR_TOKEN_ALREADY_ACCEPTED);\n        require(acceptedDepositTokens.length < MAX_ACCEPTED_DEPOSIT_TOKENS, ERROR_TOO_MANY_ACCEPTED_TOKENS);\n\n        if (_token != ETH) {\n            require(isContract(_token), ERROR_ADDRESS_NOT_CONTRACT);\n        }\n\n        acceptedDepositTokens.push(_token);\n\n        emit TokenAdded(_token);\n    }\n\n    /**\n    * @notice Remove `_token.symbol(): string` from the accepted deposit token request tokens\n    * @param _token token address\n    */\n    function removeToken(address _token) external auth(MODIFY_TOKENS_ROLE) {\n        require(acceptedDepositTokens.deleteItem(_token), ERROR_TOKEN_NOT_ACCEPTED);\n\n        emit TokenRemoved(_token);\n    }\n\n    /**\n    * @notice Create a token request depositing `@tokenAmount(_depositToken, _depositAmount, true)` in exchange for `@tokenAmount(self.getToken(): address, _requestAmount, true)`\n    * @param _depositToken Address of the token being deposited\n    * @param _depositAmount Amount of the token being deposited\n    * @param _requestAmount Amount of the token being requested\n    * @param _reference String detailing request reason\n    */\n    function createTokenRequest(address _depositToken, uint256 _depositAmount, uint256 _requestAmount, string _reference)\n    external\n    payable\n    returns (uint256)\n    {\n        require(acceptedDepositTokens.contains(_depositToken), ERROR_TOKEN_NOT_ACCEPTED);\n\n        if (_depositToken == ETH) {\n            require(msg.value == _depositAmount, ERROR_ETH_VALUE_MISMATCH);\n        } else {\n            require(ERC20(_depositToken).safeTransferFrom(msg.sender, address(this), _depositAmount), ERROR_TOKEN_TRANSFER_REVERTED);\n        }\n\n        uint256 tokenRequestId = nextTokenRequestId;\n        nextTokenRequestId++;\n\n        tokenRequests[tokenRequestId] = TokenRequest(msg.sender, _depositToken, _depositAmount, _requestAmount, Status.Pending);\n\n        emit TokenRequestCreated(tokenRequestId, msg.sender, _depositToken, _depositAmount, _requestAmount, _reference);\n\n        return tokenRequestId;\n    }\n\n    /**\n    * @notice Refund `@tokenAmount(self.getTokenRequest(_tokenRequestId): (address, <address>), self.getTokenRequest(_tokenRequestId): (address, address, <uint>, uint))` to `self.getTokenRequest(_tokenRequestId): address`, this will invalidate the request for `@tokenAmount(self.getToken(): address, self.getTokenRequest(_tokenRequestId): (address, address, uint, <uint>))`\n    * @param _tokenRequestId ID of the Token Request\n    */\n    function refundTokenRequest(uint256 _tokenRequestId) external nonReentrant tokenRequestExists(_tokenRequestId) {\n        TokenRequest storage tokenRequest = tokenRequests[_tokenRequestId];\n        require(tokenRequest.requesterAddress == msg.sender, ERROR_NOT_OWNER);\n        require(tokenRequest.status == Status.Pending, ERROR_NOT_PENDING);\n\n        tokenRequest.status = Status.Refunded;\n\n        address refundToAddress = tokenRequest.requesterAddress;\n        address refundToken = tokenRequest.depositToken;\n        uint256 refundAmount = tokenRequest.depositAmount;\n\n        if (refundAmount > 0) {\n            if (refundToken == ETH) {\n                (bool success, ) = refundToAddress.call.value(refundAmount)();\n                require(success, ERROR_ETH_TRANSFER_FAILED);\n            } else {\n                require(ERC20(refundToken).safeTransfer(refundToAddress, refundAmount), ERROR_TOKEN_TRANSFER_REVERTED);\n            }\n        }\n\n        emit TokenRequestRefunded(_tokenRequestId, refundToAddress, refundToken, refundAmount);\n    }\n\n    /**\n    * @notice Approve  `self.getTokenRequest(_tokenRequestId): address`'s request for `@tokenAmount(self.getToken(): address, self.getTokenRequest(_tokenRequestId): (address, address, uint, <uint>))` in exchange for `@tokenAmount(self.getTokenRequest(_tokenRequestId): (address, <address>), self.getTokenRequest(_tokenRequestId): (address, address, <uint>, uint))`\n    * @dev This function's FINALISE_TOKEN_REQUEST_ROLE permission is typically given exclusively to a forwarder.\n    *      This function requires the MINT_ROLE permission on the TokenManager specified.\n    * @param _tokenRequestId ID of the Token Request\n    */\n    function finaliseTokenRequest(uint256 _tokenRequestId)\n        external\n        nonReentrant\n        tokenRequestExists(_tokenRequestId)\n        auth(FINALISE_TOKEN_REQUEST_ROLE)\n    {\n        TokenRequest storage tokenRequest = tokenRequests[_tokenRequestId];\n        require(tokenRequest.status == Status.Pending, ERROR_NOT_PENDING);\n\n        tokenRequest.status = Status.Finalised;\n\n        address requesterAddress = tokenRequest.requesterAddress;\n        address depositToken = tokenRequest.depositToken;\n        uint256 depositAmount = tokenRequest.depositAmount;\n        uint256 requestAmount = tokenRequest.requestAmount;\n\n        if (depositAmount > 0) {\n            if (depositToken == ETH) {\n                (bool success, ) = vault.call.value(depositAmount)();\n                require(success, ERROR_ETH_TRANSFER_FAILED);\n            } else {\n                require(ERC20(depositToken).safeTransfer(vault, depositAmount), ERROR_TOKEN_TRANSFER_REVERTED);\n            }\n        }\n\n        tokenManager.mint(requesterAddress, requestAmount);\n\n        emit TokenRequestFinalised(_tokenRequestId, requesterAddress, depositToken, depositAmount, requestAmount);\n    }\n\n    function getAcceptedDepositTokens() public view returns (address[]) {\n        return acceptedDepositTokens;\n    }\n\n    function getTokenRequest(uint256 _tokenRequestId) public view\n    returns (\n        address requesterAddress,\n        address depositToken,\n        uint256 depositAmount,\n        uint256 requestAmount\n    )\n    {\n        TokenRequest storage tokenRequest = tokenRequests[_tokenRequestId];\n\n        requesterAddress = tokenRequest.requesterAddress;\n        depositToken = tokenRequest.depositToken;\n        depositAmount = tokenRequest.depositAmount;\n        requestAmount = tokenRequest.requestAmount;\n    }\n\n    /**\n    * @dev Convenience function for getting the token request token in a radspec string\n    */\n    function getToken() public returns (address) {\n        return tokenManager.token();\n    }\n\n}\n",
  "sourcePath": "@1hive/apps-token-request/contracts/TokenRequest.sol",
  "compiler": {
    "name": "solc",
    "version": "0.4.24+commit.e67f0147.Emscripten.clang"
  },
  "schemaVersion": "3.4.2",
  "updatedAt": "2021-10-14T14:14:03.767Z",
  "devdoc": {
    "methods": {
      "addToken(address)": {
        "params": {
          "_token": "token address"
        }
      },
      "allowRecoverability(address)": {
        "details": "By default deriving from AragonApp makes it recoverable",
        "params": {
          "token": "Token address that would be recovered"
        },
        "return": "bool whether the app allows the recovery"
      },
      "canPerform(address,bytes32,uint256[])": {
        "details": "Check whether an action can be performed by a sender for a particular role on this app",
        "params": {
          "_params": "Permission params for the role",
          "_role": "Role on this app",
          "_sender": "Sender of the call"
        },
        "return": "Boolean indicating whether the sender has the permissions to perform the action.        Always returns false if the app hasn't been initialized yet."
      },
      "createTokenRequest(address,uint256,uint256,string)": {
        "params": {
          "_depositAmount": "Amount of the token being deposited",
          "_depositToken": "Address of the token being deposited",
          "_reference": "String detailing request reason",
          "_requestAmount": "Amount of the token being requested"
        }
      },
      "finaliseTokenRequest(uint256)": {
        "details": "This function's FINALISE_TOKEN_REQUEST_ROLE permission is typically given exclusively to a forwarder.     This function requires the MINT_ROLE permission on the TokenManager specified.",
        "params": {
          "_tokenRequestId": "ID of the Token Request"
        }
      },
      "getInitializationBlock()": {
        "return": "Block number in which the contract was initialized"
      },
      "getRecoveryVault()": {
        "details": "Get the recovery vault for the app",
        "return": "Recovery vault address for the app"
      },
      "getToken()": {
        "details": "Convenience function for getting the token request token in a radspec string"
      },
      "hasInitialized()": {
        "return": "Whether the contract has been initialized by the time of the current block"
      },
      "initialize(address,address,address[])": {
        "params": {
          "_acceptedDepositTokens": "Unique list of redeemable tokens is ascending order",
          "_tokenManager": "TokenManager address",
          "_vault": "Vault address"
        }
      },
      "refundTokenRequest(uint256)": {
        "params": {
          "_tokenRequestId": "ID of the Token Request"
        }
      },
      "removeToken(address)": {
        "params": {
          "_token": "token address"
        }
      },
      "setTokenManager(address)": {
        "params": {
          "_tokenManager": "The new token manager address"
        }
      },
      "setVault(address)": {
        "params": {
          "_vault": "The new vault address"
        }
      },
      "transferToVault(address)": {
        "params": {
          "_token": "Token balance to be sent to recovery vault."
        }
      }
    }
  },
  "userdoc": {
    "methods": {
      "addToken(address)": {
        "notice": "Add `_token.symbol(): string` to the accepted deposit token request tokens"
      },
      "createTokenRequest(address,uint256,uint256,string)": {
        "notice": "Create a token request depositing `@tokenAmount(_depositToken, _depositAmount, true)` in exchange for `@tokenAmount(self.getToken(): address, _requestAmount, true)`"
      },
      "finaliseTokenRequest(uint256)": {
        "notice": "Approve  `self.getTokenRequest(_tokenRequestId): address`'s request for `@tokenAmount(self.getToken(): address, self.getTokenRequest(_tokenRequestId): (address, address, uint, <uint>))` in exchange for `@tokenAmount(self.getTokenRequest(_tokenRequestId): (address, <address>), self.getTokenRequest(_tokenRequestId): (address, address, <uint>, uint))`"
      },
      "initialize(address,address,address[])": {
        "notice": "Initialize TokenRequest app contract"
      },
      "refundTokenRequest(uint256)": {
        "notice": "Refund `@tokenAmount(self.getTokenRequest(_tokenRequestId): (address, <address>), self.getTokenRequest(_tokenRequestId): (address, address, <uint>, uint))` to `self.getTokenRequest(_tokenRequestId): address`, this will invalidate the request for `@tokenAmount(self.getToken(): address, self.getTokenRequest(_tokenRequestId): (address, address, uint, <uint>))`"
      },
      "removeToken(address)": {
        "notice": "Remove `_token.symbol(): string` from the accepted deposit token request tokens"
      },
      "setTokenManager(address)": {
        "notice": "Set the Token Manager to `_tokenManager`."
      },
      "setVault(address)": {
        "notice": "Set the Vault to `_vault`."
      },
      "transferToVault(address)": {
        "notice": "Send funds to recovery Vault. This contract should never receive funds,        but in case it does, this function allows one to recover them."
      }
    }
  }
}