{
  "contractName": "TokenManager",
  "abi": [
    {
      "constant": true,
      "inputs": [],
      "name": "hasInitialized",
      "outputs": [
        {
          "name": "",
          "type": "bool"
        }
      ],
      "payable": false,
      "stateMutability": "view",
      "type": "function"
    },
    {
      "constant": true,
      "inputs": [],
      "name": "MAX_VESTINGS_PER_ADDRESS",
      "outputs": [
        {
          "name": "",
          "type": "uint256"
        }
      ],
      "payable": false,
      "stateMutability": "view",
      "type": "function"
    },
    {
      "constant": true,
      "inputs": [
        {
          "name": "_script",
          "type": "bytes"
        }
      ],
      "name": "getEVMScriptExecutor",
      "outputs": [
        {
          "name": "",
          "type": "address"
        }
      ],
      "payable": false,
      "stateMutability": "view",
      "type": "function"
    },
    {
      "constant": true,
      "inputs": [],
      "name": "getRecoveryVault",
      "outputs": [
        {
          "name": "",
          "type": "address"
        }
      ],
      "payable": false,
      "stateMutability": "view",
      "type": "function"
    },
    {
      "constant": true,
      "inputs": [],
      "name": "appId",
      "outputs": [
        {
          "name": "",
          "type": "bytes32"
        }
      ],
      "payable": false,
      "stateMutability": "view",
      "type": "function"
    },
    {
      "constant": true,
      "inputs": [],
      "name": "ISSUE_ROLE",
      "outputs": [
        {
          "name": "",
          "type": "bytes32"
        }
      ],
      "payable": false,
      "stateMutability": "view",
      "type": "function"
    },
    {
      "constant": true,
      "inputs": [],
      "name": "getInitializationBlock",
      "outputs": [
        {
          "name": "",
          "type": "uint256"
        }
      ],
      "payable": false,
      "stateMutability": "view",
      "type": "function"
    },
    {
      "constant": true,
      "inputs": [
        {
          "name": "",
          "type": "address"
        }
      ],
      "name": "vestingsLengths",
      "outputs": [
        {
          "name": "",
          "type": "uint256"
        }
      ],
      "payable": false,
      "stateMutability": "view",
      "type": "function"
    },
    {
      "constant": false,
      "inputs": [
        {
          "name": "_token",
          "type": "address"
        }
      ],
      "name": "transferToVault",
      "outputs": [],
      "payable": false,
      "stateMutability": "nonpayable",
      "type": "function"
    },
    {
      "constant": true,
      "inputs": [
        {
          "name": "_sender",
          "type": "address"
        },
        {
          "name": "_role",
          "type": "bytes32"
        },
        {
          "name": "_params",
          "type": "uint256[]"
        }
      ],
      "name": "canPerform",
      "outputs": [
        {
          "name": "",
          "type": "bool"
        }
      ],
      "payable": false,
      "stateMutability": "view",
      "type": "function"
    },
    {
      "constant": true,
      "inputs": [],
      "name": "getEVMScriptRegistry",
      "outputs": [
        {
          "name": "",
          "type": "address"
        }
      ],
      "payable": false,
      "stateMutability": "view",
      "type": "function"
    },
    {
      "constant": true,
      "inputs": [],
      "name": "ASSIGN_ROLE",
      "outputs": [
        {
          "name": "",
          "type": "bytes32"
        }
      ],
      "payable": false,
      "stateMutability": "view",
      "type": "function"
    },
    {
      "constant": true,
      "inputs": [],
      "name": "BURN_ROLE",
      "outputs": [
        {
          "name": "",
          "type": "bytes32"
        }
      ],
      "payable": false,
      "stateMutability": "view",
      "type": "function"
    },
    {
      "constant": true,
      "inputs": [],
      "name": "kernel",
      "outputs": [
        {
          "name": "",
          "type": "address"
        }
      ],
      "payable": false,
      "stateMutability": "view",
      "type": "function"
    },
    {
      "constant": true,
      "inputs": [],
      "name": "isPetrified",
      "outputs": [
        {
          "name": "",
          "type": "bool"
        }
      ],
      "payable": false,
      "stateMutability": "view",
      "type": "function"
    },
    {
      "constant": true,
      "inputs": [],
      "name": "MINT_ROLE",
      "outputs": [
        {
          "name": "",
          "type": "bytes32"
        }
      ],
      "payable": false,
      "stateMutability": "view",
      "type": "function"
    },
    {
      "constant": true,
      "inputs": [],
      "name": "maxAccountTokens",
      "outputs": [
        {
          "name": "",
          "type": "uint256"
        }
      ],
      "payable": false,
      "stateMutability": "view",
      "type": "function"
    },
    {
      "constant": true,
      "inputs": [],
      "name": "REVOKE_VESTINGS_ROLE",
      "outputs": [
        {
          "name": "",
          "type": "bytes32"
        }
      ],
      "payable": false,
      "stateMutability": "view",
      "type": "function"
    },
    {
      "constant": true,
      "inputs": [],
      "name": "token",
      "outputs": [
        {
          "name": "",
          "type": "address"
        }
      ],
      "payable": false,
      "stateMutability": "view",
      "type": "function"
    },
    {
      "anonymous": false,
      "inputs": [
        {
          "indexed": true,
          "name": "receiver",
          "type": "address"
        },
        {
          "indexed": false,
          "name": "vestingId",
          "type": "uint256"
        },
        {
          "indexed": false,
          "name": "amount",
          "type": "uint256"
        }
      ],
      "name": "NewVesting",
      "type": "event"
    },
    {
      "anonymous": false,
      "inputs": [
        {
          "indexed": true,
          "name": "receiver",
          "type": "address"
        },
        {
          "indexed": false,
          "name": "vestingId",
          "type": "uint256"
        },
        {
          "indexed": false,
          "name": "nonVestedAmount",
          "type": "uint256"
        }
      ],
      "name": "RevokeVesting",
      "type": "event"
    },
    {
      "anonymous": false,
      "inputs": [
        {
          "indexed": true,
          "name": "executor",
          "type": "address"
        },
        {
          "indexed": false,
          "name": "script",
          "type": "bytes"
        },
        {
          "indexed": false,
          "name": "input",
          "type": "bytes"
        },
        {
          "indexed": false,
          "name": "returnData",
          "type": "bytes"
        }
      ],
      "name": "ScriptResult",
      "type": "event"
    },
    {
      "anonymous": false,
      "inputs": [
        {
          "indexed": true,
          "name": "vault",
          "type": "address"
        },
        {
          "indexed": true,
          "name": "token",
          "type": "address"
        },
        {
          "indexed": false,
          "name": "amount",
          "type": "uint256"
        }
      ],
      "name": "RecoverToVault",
      "type": "event"
    },
    {
      "constant": false,
      "inputs": [
        {
          "name": "_token",
          "type": "address"
        },
        {
          "name": "_transferable",
          "type": "bool"
        },
        {
          "name": "_maxAccountTokens",
          "type": "uint256"
        }
      ],
      "name": "initialize",
      "outputs": [],
      "payable": false,
      "stateMutability": "nonpayable",
      "type": "function"
    },
    {
      "constant": false,
      "inputs": [
        {
          "name": "_receiver",
          "type": "address"
        },
        {
          "name": "_amount",
          "type": "uint256"
        }
      ],
      "name": "mint",
      "outputs": [],
      "payable": false,
      "stateMutability": "nonpayable",
      "type": "function"
    },
    {
      "constant": false,
      "inputs": [
        {
          "name": "_amount",
          "type": "uint256"
        }
      ],
      "name": "issue",
      "outputs": [],
      "payable": false,
      "stateMutability": "nonpayable",
      "type": "function"
    },
    {
      "constant": false,
      "inputs": [
        {
          "name": "_receiver",
          "type": "address"
        },
        {
          "name": "_amount",
          "type": "uint256"
        }
      ],
      "name": "assign",
      "outputs": [],
      "payable": false,
      "stateMutability": "nonpayable",
      "type": "function"
    },
    {
      "constant": false,
      "inputs": [
        {
          "name": "_holder",
          "type": "address"
        },
        {
          "name": "_amount",
          "type": "uint256"
        }
      ],
      "name": "burn",
      "outputs": [],
      "payable": false,
      "stateMutability": "nonpayable",
      "type": "function"
    },
    {
      "constant": false,
      "inputs": [
        {
          "name": "_receiver",
          "type": "address"
        },
        {
          "name": "_amount",
          "type": "uint256"
        },
        {
          "name": "_start",
          "type": "uint64"
        },
        {
          "name": "_cliff",
          "type": "uint64"
        },
        {
          "name": "_vested",
          "type": "uint64"
        },
        {
          "name": "_revokable",
          "type": "bool"
        }
      ],
      "name": "assignVested",
      "outputs": [
        {
          "name": "",
          "type": "uint256"
        }
      ],
      "payable": false,
      "stateMutability": "nonpayable",
      "type": "function"
    },
    {
      "constant": false,
      "inputs": [
        {
          "name": "_holder",
          "type": "address"
        },
        {
          "name": "_vestingId",
          "type": "uint256"
        }
      ],
      "name": "revokeVesting",
      "outputs": [],
      "payable": false,
      "stateMutability": "nonpayable",
      "type": "function"
    },
    {
      "constant": false,
      "inputs": [
        {
          "name": "_from",
          "type": "address"
        },
        {
          "name": "_to",
          "type": "address"
        },
        {
          "name": "_amount",
          "type": "uint256"
        }
      ],
      "name": "onTransfer",
      "outputs": [
        {
          "name": "",
          "type": "bool"
        }
      ],
      "payable": false,
      "stateMutability": "nonpayable",
      "type": "function"
    },
    {
      "constant": false,
      "inputs": [
        {
          "name": "",
          "type": "address"
        },
        {
          "name": "",
          "type": "address"
        },
        {
          "name": "",
          "type": "uint256"
        }
      ],
      "name": "onApprove",
      "outputs": [
        {
          "name": "",
          "type": "bool"
        }
      ],
      "payable": false,
      "stateMutability": "nonpayable",
      "type": "function"
    },
    {
      "constant": false,
      "inputs": [
        {
          "name": "",
          "type": "address"
        }
      ],
      "name": "proxyPayment",
      "outputs": [
        {
          "name": "",
          "type": "bool"
        }
      ],
      "payable": true,
      "stateMutability": "payable",
      "type": "function"
    },
    {
      "constant": true,
      "inputs": [],
      "name": "isForwarder",
      "outputs": [
        {
          "name": "",
          "type": "bool"
        }
      ],
      "payable": false,
      "stateMutability": "pure",
      "type": "function"
    },
    {
      "constant": false,
      "inputs": [
        {
          "name": "_evmScript",
          "type": "bytes"
        }
      ],
      "name": "forward",
      "outputs": [],
      "payable": false,
      "stateMutability": "nonpayable",
      "type": "function"
    },
    {
      "constant": true,
      "inputs": [
        {
          "name": "_sender",
          "type": "address"
        },
        {
          "name": "",
          "type": "bytes"
        }
      ],
      "name": "canForward",
      "outputs": [
        {
          "name": "",
          "type": "bool"
        }
      ],
      "payable": false,
      "stateMutability": "view",
      "type": "function"
    },
    {
      "constant": true,
      "inputs": [
        {
          "name": "_recipient",
          "type": "address"
        },
        {
          "name": "_vestingId",
          "type": "uint256"
        }
      ],
      "name": "getVesting",
      "outputs": [
        {
          "name": "amount",
          "type": "uint256"
        },
        {
          "name": "start",
          "type": "uint64"
        },
        {
          "name": "cliff",
          "type": "uint64"
        },
        {
          "name": "vesting",
          "type": "uint64"
        },
        {
          "name": "revokable",
          "type": "bool"
        }
      ],
      "payable": false,
      "stateMutability": "view",
      "type": "function"
    },
    {
      "constant": true,
      "inputs": [
        {
          "name": "_holder",
          "type": "address"
        }
      ],
      "name": "spendableBalanceOf",
      "outputs": [
        {
          "name": "",
          "type": "uint256"
        }
      ],
      "payable": false,
      "stateMutability": "view",
      "type": "function"
    },
    {
      "constant": true,
      "inputs": [
        {
          "name": "_holder",
          "type": "address"
        },
        {
          "name": "_time",
          "type": "uint256"
        }
      ],
      "name": "transferableBalance",
      "outputs": [
        {
          "name": "",
          "type": "uint256"
        }
      ],
      "payable": false,
      "stateMutability": "view",
      "type": "function"
    },
    {
      "constant": true,
      "inputs": [
        {
          "name": "_token",
          "type": "address"
        }
      ],
      "name": "allowRecoverability",
      "outputs": [
        {
          "name": "",
          "type": "bool"
        }
      ],
      "payable": false,
      "stateMutability": "view",
      "type": "function"
    }
  ],
  "bytecode": "0x6080604052620000176401000000006200001d810204565b6200023b565b6200003064010000000062000125810204565b60408051808201909152601881527f494e49545f414c52454144595f494e495449414c495a45440000000000000000602082015290156200010c576040517f08c379a00000000000000000000000000000000000000000000000000000000081526004018080602001828103825283818151815260200191508051906020019080838360005b83811015620000d0578181015183820152602001620000b6565b50505050905090810190601f168015620000fe5780820380516001836020036101000a031916815260200191505b509250505060405180910390fd5b506200012360001964010000000062000154810204565b565b60006200014f6000805160206200369d833981519152640100000000620027f96200023382021704565b905090565b6200016764010000000062000125810204565b60408051808201909152601881527f494e49545f414c52454144595f494e495449414c495a454400000000000000006020820152901562000206576040517f08c379a000000000000000000000000000000000000000000000000000000000815260040180806020018281038252838181518152602001915080519060200190808383600083811015620000d0578181015183820152602001620000b6565b50620002306000805160206200369d83398151915282640100000000620032a06200023782021704565b50565b5490565b9055565b613452806200024b6000396000f3006080604052600436106101a85763ffffffff60e060020a6000350416630803fac081146101ad5780630db3971b146101d65780630f8f8b83146101fd57806321cb18cd1461021e5780632914b9bd1461025f57806332f0a3b5146102d45780633e05a36d146102e957806340c10f19146103455780634a3931491461036b57806372f8393c146103955780637e7db6e1146103b957806380afdea8146103da578063856222f1146103ef5780638b3dd7491461040457806397f2562a146104195780639d4941d81461043a5780639dc29fac1461045b578063a1658fad1461047f578063a479e508146104e6578063a51d9a8e146104fb578063b930908f14610510578063be76048814610525578063c0774df314610549578063cc872b66146105b0578063d4aae0c4146105c8578063d948d468146105dd578063da682aeb14610636578063de4796ed14610660578063e37ff29f14610675578063e9a9c8501461069e578063ecfda432146106b3578063edc168f1146106c8578063f48c3054146106dd578063fa6799f2146106f1578063fc0c546a14610715578063fd64eccb1461072a575b600080fd5b3480156101b957600080fd5b506101c261073f565b604080519115158252519081900360200190f35b3480156101e257600080fd5b506101eb610768565b60408051918252519081900360200190f35b34801561020957600080fd5b506101eb600160a060020a036004351661076d565b34801561022a57600080fd5b506101eb600160a060020a03600435166024356001604060020a036044358116906064358116906084351660a435151561083f565b34801561026b57600080fd5b506040805160206004803580820135601f81018490048402850184019095528484526102b8943694929360249392840191908190840183828082843750949750610c8a9650505050505050565b60408051600160a060020a039092168252519081900360200190f35b3480156102e057600080fd5b506102b8610d70565b3480156102f557600080fd5b5061030d600160a060020a0360043516602435610de8565b604080519586526001604060020a03948516602087015292841685840152921660608401529015156080830152519081900360a00190f35b34801561035157600080fd5b50610369600160a060020a0360043516602435610efe565b005b34801561037757600080fd5b506101c2600160a060020a036004358116906024351660443561104a565b3480156103a157600080fd5b506101eb600160a060020a03600435166024356110f5565b3480156103c557600080fd5b506101c2600160a060020a0360043516611185565b3480156103e657600080fd5b506101eb61119a565b3480156103fb57600080fd5b506101eb6111ca565b34801561041057600080fd5b506101eb6111ef565b34801561042557600080fd5b506101eb600160a060020a0360043516611208565b34801561044657600080fd5b50610369600160a060020a036004351661121a565b34801561046757600080fd5b50610369600160a060020a03600435166024356114a1565b34801561048b57600080fd5b5060408051602060046044358181013583810280860185019096528085526101c2958335600160a060020a03169560248035963696956064959394920192918291850190849080828437509497506115da9650505050505050565b3480156104f257600080fd5b506102b861172a565b34801561050757600080fd5b506101eb6117c9565b34801561051c57600080fd5b506101eb6117ef565b34801561053157600080fd5b50610369600160a060020a0360043516602435611813565b34801561055557600080fd5b5060408051602060046024803582810135601f81018590048502860185019096528585526101c2958335600160a060020a03169536956044949193909101919081908401838280828437509497506118ca9650505050505050565b3480156105bc57600080fd5b50610369600435611961565b3480156105d457600080fd5b506102b8611a1b565b3480156105e957600080fd5b506040805160206004803580820135601f8101849004840285018401909552848452610369943694929360249392840191908190840183828082843750949750611a469650505050505050565b34801561064257600080fd5b506101c2600160a060020a0360043581169060243516604435611b3b565b34801561066c57600080fd5b506101c2611bc7565b34801561068157600080fd5b50610369600160a060020a03600435166024351515604435611bda565b3480156106aa57600080fd5b506101eb611e7e565b3480156106bf57600080fd5b506101eb611ea2565b3480156106d457600080fd5b506101eb611ea8565b6101c2600160a060020a0360043516611ed7565b3480156106fd57600080fd5b50610369600160a060020a0360043516602435611f61565b34801561072157600080fd5b506102b8612333565b34801561073657600080fd5b506101c2612342565b60008061074a6111ef565b9050801580159061076257508061075f612347565b10155b91505090565b603281565b600061077761073f565b604080518082019091526014815260008051602061340783398151915260208201529015156108275760405160e560020a62461bcd0281526004018080602001828103825283818151815260200191508051906020019080838360005b838110156107ec5781810151838201526020016107d4565b50505050905090810190601f1680156108195780820380516001836020036101000a031916815260200191505b509250505060405180910390fd5b506108398261083461234b565b61234f565b92915050565b6040805160a860020a6a41535349474e5f524f4c45028152905190819003600b01902060009081906108718989612492565b61087c3383836115da565b60408051808201909152600f815260008051602061334783398151915260208201529015156108f05760405160e560020a62461bcd028152600401808060200182810382528381815181526020019150805190602001908083836000838110156107ec5781810151838201526020016107d4565b506040805180820190915260108152608060020a6f544d5f56455354494e475f544f5f544d026020820152600160a060020a038b163014156109775760405160e560020a62461bcd028152600401808060200182810382528381815181526020019150805190602001908083836000838110156107ec5781810151838201526020016107d4565b50600160a060020a038a1660009081526003602090815260409182902054825180840190935260148352606060020a73544d5f544f4f5f4d414e595f56455354494e47530291830191909152603211610a155760405160e560020a62461bcd028152600401808060200182810382528381815181526020019150805190602001908083836000838110156107ec5781810151838201526020016107d4565b50866001604060020a0316886001604060020a031611158015610a4a5750856001604060020a0316876001604060020a031611155b6040805180820190915260138152606860020a72544d5f57524f4e475f434c4946465f44415445026020820152901515610ac95760405160e560020a62461bcd028152600401808060200182810382528381815181526020019150805190602001908083836000838110156107ec5781810151838201526020016107d4565b50600360008b600160a060020a0316600160a060020a03168152602001908152602001600020600081548092919060010191905055925060a0604051908101604052808a8152602001896001604060020a03168152602001886001604060020a03168152602001876001604060020a03168152602001861515815250600260008c600160a060020a0316600160a060020a0316815260200190815260200160002060008581526020019081526020016000206000820151816000015560208201518160010160006101000a8154816001604060020a0302191690836001604060020a0316021790555060408201518160010160086101000a8154816001604060020a0302191690836001604060020a0316021790555060608201518160010160106101000a8154816001604060020a0302191690836001604060020a0316021790555060808201518160010160186101000a81548160ff021916908315150217905550905050610c398a8a6124a7565b60408051848152602081018b90528151600160a060020a038d16927f627ad26dcfe82ec79b33fda0ddd062f6fab9f4914acac8345f79090dfd86fb54928290030190a2509098975050505050505050565b6000610c9461172a565b600160a060020a03166304bf2a7f836040518263ffffffff1660e060020a0281526004018080602001828103825283818151815260200191508051906020019080838360005b83811015610cf2578181015183820152602001610cda565b50505050905090810190601f168015610d1f5780820380516001836020036101000a031916815260200191505b5092505050602060405180830381600087803b158015610d3e57600080fd5b505af1158015610d52573d6000803e3d6000fd5b505050506040513d6020811015610d6857600080fd5b505192915050565b6000610d7a611a1b565b600160a060020a03166332f0a3b56040518163ffffffff1660e060020a028152600401602060405180830381600087803b158015610db757600080fd5b505af1158015610dcb573d6000803e3d6000fd5b505050506040513d6020811015610de157600080fd5b5051905090565b60008060008060008087876003600083600160a060020a0316600160a060020a031681526020019081526020016000205481106040805190810160405280600d8152602001609860020a6c544d5f4e4f5f56455354494e4702815250901515610e965760405160e560020a62461bcd028152600401808060200182810382528381815181526020019150805190602001908083836000838110156107ec5781810151838201526020016107d4565b50505050600160a060020a0396909616600090815260026020908152604080832097835296905294909420805460019091015490966001604060020a038083169750604060020a830481169650608060020a830416945060c060020a90910460ff1692509050565b6040805160b860020a684d494e545f524f4c450281529051908190036009019020610f298383612492565b610f343383836115da565b60408051808201909152600f81526000805160206133478339815191526020820152901515610fa85760405160e560020a62461bcd028152600401808060200182810382528381815181526020019150805190602001908083836000838110156107ec5781810151838201526020016107d4565b5060408051808201909152601681527f544d5f4d494e545f52454345495645525f49535f544d000000000000000000006020820152600160a060020a0385163014156110395760405160e560020a62461bcd028152600401808060200182810382528381815181526020019150805190602001908083836000838110156107ec5781810151838201526020016107d4565b50611044848461263a565b50505050565b6000805460408051808201909152601381526000805160206133e7833981519152602082015290600160a060020a031633146110cb5760405160e560020a62461bcd028152600401808060200182810382528381815181526020019150805190602001908083836000838110156107ec5781810151838201526020016107d4565b506110d6838361273f565b80156110ed5750816110ea8561083461234b565b10155b949350505050565b60006110ff61073f565b604080518082019091526014815260008051602061340783398151915260208201529015156111735760405160e560020a62461bcd028152600401808060200182810382528381815181526020019150805190602001908083836000838110156107ec5781810151838201526020016107d4565b5061117e838361234f565b9392505050565b600054600160a060020a039081169116141590565b60006111c57fd625496217aa6a3453eecb9c3489dc5a53e6c67b444329ea2b2cbc9ff547639b6127f9565b905090565b6040805160b060020a6949535355455f524f4c45028152905190819003600a01902081565b60006111c56000805160206133678339815191526127f9565b60036020526000908152604090205481565b600080600061122884611185565b6040805180820190915260128152607260020a71149150d3d5915497d11254d0531313d5d1510260208201529015156112a65760405160e560020a62461bcd028152600401808060200182810382528381815181526020019150805190602001908083836000838110156107ec5781810151838201526020016107d4565b506112af610d70565b92506112ba83612801565b60408051808201909152601a81527f5245434f5645525f5641554c545f4e4f545f434f4e545241435400000000000060208201529015156113405760405160e560020a62461bcd028152600401808060200182810382528381815181526020019150805190602001908083836000838110156107ec5781810151838201526020016107d4565b50600160a060020a03841615156113915760405130319250600160a060020a0384169083156108fc029084906000818181858888f1935050505015801561138b573d6000803e3d6000fd5b50611450565b50826113ac600160a060020a0382163063ffffffff61282e16565b91506113c8600160a060020a038216848463ffffffff61291816565b60408051808201909152601d81527f5245434f5645525f544f4b454e5f5452414e534645525f4641494c4544000000602082015290151561144e5760405160e560020a62461bcd028152600401808060200182810382528381815181526020019150805190602001908083836000838110156107ec5781810151838201526020016107d4565b505b83600160a060020a031683600160a060020a03167f596caf56044b55fb8c4ca640089bbc2b63cae3e978b851f5745cbb7c5b288e02846040518082815260200191505060405180910390a350505050565b6040805160b860020a684255524e5f524f4c4502815290519081900360090190206114cc8383612492565b6114d73383836115da565b60408051808201909152600f8152600080516020613347833981519152602082015290151561154b5760405160e560020a62461bcd028152600401808060200182810382528381815181526020019150805190602001908083836000838110156107ec5781810151838201526020016107d4565b50600080546040805160e160020a6369e73bff028152600160a060020a038881166004830152602482018890529151919092169263d3ce77fe92604480820193602093909283900390910190829087803b1580156115a857600080fd5b505af11580156115bc573d6000803e3d6000fd5b505050506040513d60208110156115d257600080fd5b505050505050565b6000806115e561073f565b15156115f45760009150611722565b6115fc611a1b565b9050600160a060020a03811615156116175760009150611722565b80600160a060020a031663fdef910686308761163288612978565b60405160e060020a63ffffffff8716028152600160a060020a03808616600483019081529085166024830152604482018490526080606483019081528351608484015283519192909160a490910190602085019080838360005b838110156116a457818101518382015260200161168c565b50505050905090810190601f1680156116d15780820380516001836020036101000a031916815260200191505b5095505050505050602060405180830381600087803b1580156116f357600080fd5b505af1158015611707573d6000803e3d6000fd5b505050506040513d602081101561171d57600080fd5b505191505b509392505050565b600080611735611a1b565b6040805160e360020a6317c0177b0281527fd6f028ca0e8edb4a8c9757ca4fdccab25fa1e0317da1188108f7d2dee14902fb60048201527fddbcfd564f642ab5627cf68b9b7d374fb4f8a36e941a75d89c87998cef03bd6160248201529051600160a060020a03929092169163be00bbd8916044808201926020929091908290030181600087803b158015610d3e57600080fd5b6040805160a860020a6a41535349474e5f524f4c45028152905190819003600b01902081565b6040805160b860020a684255524e5f524f4c45028152905190819003600901902081565b6040805160a860020a6a41535349474e5f524f4c45028152905190819003600b0190206118408383612492565b61184b3383836115da565b60408051808201909152600f815260008051602061334783398151915260208201529015156118bf5760405160e560020a62461bcd028152600401808060200182810382528381815181526020019150805190602001908083836000838110156107ec5781810151838201526020016107d4565b5061104484846124a7565b60006118d461073f565b801561117e5750600080546040805160e060020a6370a08231028152600160a060020a038781166004830152915191909216916370a0823191602480830192602092919082900301818787803b15801561192d57600080fd5b505af1158015611941573d6000803e3d6000fd5b505050506040513d602081101561195757600080fd5b5051119392505050565b6040805160b060020a6949535355455f524f4c45028152905190819003600a01902061198c82612982565b6119973383836115da565b60408051808201909152600f81526000805160206133478339815191526020820152901515611a0b5760405160e560020a62461bcd028152600401808060200182810382528381815181526020019150805190602001908083836000838110156107ec5781810151838201526020016107d4565b50611a16308461263a565b505050565b60006111c57f4172f0f7d2289153072b0a6ca36959e0cbe2efc3afe50fc81636caa96338137b6127f9565b606080611a5333846118ca565b6040805180820190915260128152607260020a71151357d0d05397d393d517d193d495d05491026020820152901515611ad15760405160e560020a62461bcd028152600401808060200182810382528381815181526020019150805190602001908083836000838110156107ec5781810151838201526020016107d4565b506040805160008152600160208083018281526060840185529295509192909190850190803883395050600080548351939450600160a060020a0316928492508110611b1957fe5b600160a060020a039092166020928302909101909101526110448383836129c3565b6000805460408051808201909152601381526000805160206133e7833981519152602082015290600160a060020a03163314611bbc5760405160e560020a62461bcd028152600401808060200182810382528381815181526020019150805190602001908083836000838110156107ec5781810151838201526020016107d4565b506001949350505050565b6000600019611bd46111ef565b14905090565b611be26111ef565b604080518082019091526018815260008051602061338783398151915260208201529015611c555760405160e560020a62461bcd028152600401808060200182810382528381815181526020019150805190602001908083836000838110156107ec5781810151838201526020016107d4565b50611c5e612f7c565b30600160a060020a031683600160a060020a031663f77c47916040518163ffffffff1660e060020a028152600401602060405180830381600087803b158015611ca657600080fd5b505af1158015611cba573d6000803e3d6000fd5b505050506040513d6020811015611cd057600080fd5b50516040805180820190915260138152606960020a722a26afaa27a5a2a72fa1a7a72a2927a62622a902602082015291600160a060020a0390911614611d5b5760405160e560020a62461bcd028152600401808060200182810382528381815181526020019150805190602001908083836000838110156107ec5781810151838201526020016107d4565b5060008054600160a060020a031916600160a060020a0385161790558015611d835780611d87565b6000195b6001819055508115156000809054906101000a9004600160a060020a0316600160a060020a031663bef97c876040518163ffffffff1660e060020a028152600401602060405180830381600087803b158015611de257600080fd5b505af1158015611df6573d6000803e3d6000fd5b505050506040513d6020811015611e0c57600080fd5b5051151514611a1657600080546040805160e060020a63f41e60c502815285151560048201529051600160a060020a039092169263f41e60c59260248084019382900301818387803b158015611e6157600080fd5b505af1158015611e75573d6000803e3d6000fd5b50505050505050565b6040805160b860020a684d494e545f524f4c45028152905190819003600901902081565b60015481565b60408051606060020a735245564f4b455f56455354494e47535f524f4c45028152905190819003601401902081565b6000805460408051808201909152601381526000805160206133e7833981519152602082015290600160a060020a03163314611f585760405160e560020a62461bcd028152600401808060200182810382528381815181526020019150805190602001908083836000838110156107ec5781810151838201526020016107d4565b50600092915050565b60408051606060020a735245564f4b455f56455354494e47535f524f4c4502815290519081900360140190206000908190611f9b85613020565b611fa63383836115da565b60408051808201909152600f8152600080516020613347833981519152602082015290151561201a5760405160e560020a62461bcd028152600401808060200182810382528381815181526020019150805190602001908083836000838110156107ec5781810151838201526020016107d4565b50600160a060020a038616600090815260036020908152604091829020548251808401909352600d8352609860020a6c544d5f4e4f5f56455354494e4702918301919091528791879182106120b45760405160e560020a62461bcd028152600401808060200182810382528381815181526020019150805190602001908083836000838110156107ec5781810151838201526020016107d4565b50600160a060020a03881660009081526002602090815260408083208a845282529182902060018101548351808501909452601884527f544d5f56455354494e475f4e4f545f5245564f4b41424c45000000000000000092840192909252975060c060020a900460ff16151561216f5760405160e560020a62461bcd028152600401808060200182810382528381815181526020019150805190602001908083836000838110156107ec5781810151838201526020016107d4565b5085546121a79061217e61234b565b60018901546001604060020a0380821691604060020a8104821691608060020a90910416613034565b600160a060020a03808a1660008181526002602090815260408083208d845282528083208381556001018054600160c860020a03191690558254815160e060020a6323b872dd0281526004810195909552306024860152604485018790529051959a50909316936323b872dd936064808501949193918390030190829087803b15801561223357600080fd5b505af1158015612247573d6000803e3d6000fd5b505050506040513d602081101561225d57600080fd5b50516040805180820190915260208082527f544d5f5245564f4b455f5452414e534645525f46524f4d5f5245564552544544908201529015156122e55760405160e560020a62461bcd028152600401808060200182810382528381815181526020019150805190602001908083836000838110156107ec5781810151838201526020016107d4565b5060408051888152602081018790528151600160a060020a038b16927fafc516b1509f836efdc27d64d966d14f82ef53f456f0de74c12ac8a651a084cc928290030190a25050505050505050565b600054600160a060020a031681565b600190565b4390565b4290565b600080546040805160e060020a6370a08231028152600160a060020a03868116600483015291518493849384938493849392909216916370a082319160248082019260209290919082900301818787803b1580156123ac57600080fd5b505af11580156123c0573d6000803e3d6000fd5b505050506040513d60208110156123d657600080fd5b50519450600160a060020a038816301461248657600160a060020a038816600090815260036020526040812054945092505b8383101561248657600160a060020a03881660009081526002602090815260408083208684529091529020805460018201549193506124679189906001604060020a0380821691604060020a8104821691608060020a90910416613034565b9050612479858263ffffffff6130ae16565b9450600190920191612408565b50929695505050505050565b606061117e83600160a060020a031683613141565b6124b1828261273f565b60408051808201909152601a81526000805160206133c783398151915260208201529015156125255760405160e560020a62461bcd028152600401808060200182810382528381815181526020019150805190602001908083836000838110156107ec5781810151838201526020016107d4565b50600080546040805160e060020a6323b872dd028152306004820152600160a060020a03868116602483015260448201869052915191909216926323b872dd92606480820193602093909283900390910190829087803b15801561258857600080fd5b505af115801561259c573d6000803e3d6000fd5b505050506040513d60208110156125b257600080fd5b50516040805180820190915260208082527f544d5f41535349474e5f5452414e534645525f46524f4d5f524556455254454490820152901515611a165760405160e560020a62461bcd028152600401808060200182810382528381815181526020019150805190602001908083836000838110156107ec5781810151838201526020016107d4565b612644828261273f565b60408051808201909152601a81526000805160206133c783398151915260208201529015156126b85760405160e560020a62461bcd028152600401808060200182810382528381815181526020019150805190602001908083836000838110156107ec5781810151838201526020016107d4565b50600080546040805160e660020a630209fccb028152600160a060020a038681166004830152602482018690529151919092169263827f32c092604480820193602093909283900390910190829087803b15801561271557600080fd5b505af1158015612729573d6000803e3d6000fd5b505050506040513d602081101561104457600080fd5b6000600160a060020a03831630141561275a57506001610839565b600154600080546040805160e060020a6370a08231028152600160a060020a03888116600483015291516127f094889493909316926370a0823192602480820193602093909283900390910190829087803b1580156127b857600080fd5b505af11580156127cc573d6000803e3d6000fd5b505050506040513d60208110156127e257600080fd5b50519063ffffffff61319c16565b11159392505050565b5490565b5490565b600080600160a060020a038316151561281d5760009150612828565b823b90506000811191505b50919050565b60408051600160a060020a038316602480830191909152825180830390910181526044909101909152602081018051600160e060020a031660e060020a6370a082310217905260009081806128838684613221565b60408051808201909152601c81527f534146455f4552435f32305f42414c414e43455f5245564552544544000000006020820152919350915082151561290e5760405160e560020a62461bcd028152600401808060200182810382528381815181526020019150805190602001908083836000838110156107ec5781810151838201526020016107d4565b5095945050505050565b60408051600160a060020a03841660248201526044808201849052825180830390910181526064909101909152602081018051600160e060020a031660e060020a63a9059cbb0217905260009061296f8582613252565b95945050505050565b8051602002815290565b60408051600180825281830190925260609160208083019080388339019050509050818160008151811015156129b457fe5b60209081029091010152919050565b60606000806060806129d361073f565b60408051808201909152601481526000805160206134078339815191526020820152901515612a475760405160e560020a62461bcd028152600401808060200182810382528381815181526020019150805190602001908083836000838110156107ec5781810151838201526020016107d4565b50600080612a53611a1b565b9150612a5d61119a565b9050612a688a610c8a565b60408051808201909152601b81527f45564d52554e5f4558454355544f525f554e415641494c41424c4500000000006020820152909650600160a060020a0387161515612afa5760405160e560020a62461bcd028152600401808060200182810382528381815181526020019150805190602001908083836000838110156107ec5781810151838201526020016107d4565b506040516060602482019081528b5160848301528b5160e060020a63279cea3502975087928d928d928d9282916044820191606481019160a490910190602089019080838360005b83811015612b5a578181015183820152602001612b42565b50505050905090810190601f168015612b875780820380516001836020036101000a031916815260200191505b50848103835286518152865160209182019188019080838360005b83811015612bba578181015183820152602001612ba2565b50505050905090810190601f168015612be75780820380516001836020036101000a031916815260200191505b508481038252855181528551602091820191808801910280838360005b83811015612c1c578181015183820152602001612c04565b50505050905001965050505050505060405160208183030381529060405290600160e060020a031916602082018051600160e060020a0383818316178352505050509350600080855160208701895af46040519350808015612ce057603f3d118015612c955760203d03806020883e8601604052612cda565b60e560020a62461bcd02865260206004870152601e60248701527f45564d52554e5f4558454355544f525f494e56414c49445f52455455524e00006044870152606486fd5b50612ce9565b3d6000863e3d85fd5b505085600160a060020a03167f5229a5dba83a54ae8cb5b51bdd6de9474cacbe9dd332f5185f3a4f4f2e3f4ad98b8b8660405180806020018060200180602001848103845287818151815260200191508051906020019080838360005b83811015612d5e578181015183820152602001612d46565b50505050905090810190601f168015612d8b5780820380516001836020036101000a031916815260200191505b50848103835286518152865160209182019188019080838360005b83811015612dbe578181015183820152602001612da6565b50505050905090810190601f168015612deb5780820380516001836020036101000a031916815260200191505b50848103825285518152855160209182019187019080838360005b83811015612e1e578181015183820152602001612e06565b50505050905090810190601f168015612e4b5780820380516001836020036101000a031916815260200191505b50965050505050505060405180910390a282965081600160a060020a0316612e71611a1b565b600160a060020a0316146040805190810160405280601f81526020016000805160206133a7833981519152815250901515612ef15760405160e560020a62461bcd028152600401808060200182810382528381815181526020019150805190602001908083836000838110156107ec5781810151838201526020016107d4565b5080612efb61119a565b60408051808201909152601f81526000805160206133a783398151915260208201529114612f6e5760405160e560020a62461bcd028152600401808060200182810382528381815181526020019150805190602001908083836000838110156107ec5781810151838201526020016107d4565b505050505050509392505050565b612f846111ef565b604080518082019091526018815260008051602061338783398151915260208201529015612ff75760405160e560020a62461bcd028152600401808060200182810382528381815181526020019150805190602001908083836000838110156107ec5781810151838201526020016107d4565b5061301e613003612347565b6000805160206133678339815191529063ffffffff6132a016565b565b606061083982600160a060020a0316612982565b600080828610613047576000915061290e565b838610156130575786915061290e565b613067838663ffffffff6130ae16565b61308761307a888863ffffffff6130ae16565b899063ffffffff6132a416565b81151561309057fe5b0490506130a3878263ffffffff6130ae16565b979650505050505050565b6040805180820190915260128152607060020a714d4154485f5355425f554e444552464c4f570260208201526000908190848411156131325760405160e560020a62461bcd028152600401808060200182810382528381815181526020019150805190602001908083836000838110156107ec5781810151838201526020016107d4565b505050808203805b5092915050565b60408051600280825260608083018452926020830190803883390190505090508281600081518110151561317157fe5b60209081029091010152805182908290600190811061318c57fe5b6020908102909101015292915050565b6040805180820190915260118152607860020a704d4154485f4144445f4f564552464c4f5702602082015260009083830190848210156117225760405160e560020a62461bcd028152600401808060200182810382528381815181526020019150805190602001908083836000838110156107ec5781810151838201526020016107d4565b6000806000806040516020818751602089018a5afa9250600083111561324657805191505b50909590945092505050565b6000806040516020818551602087016000895af16000811115613296573d8015613283576020811461328c57613294565b60019350613294565b600183511493505b505b5090949350505050565b9055565b6000808315156132b7576000915061313a565b508282028284828115156132c757fe5b6040805180820190915260118152607860020a704d4154485f4d554c5f4f564552464c4f5702602082015292919004146117225760405160e560020a62461bcd028152600401808060200182810382528381815181526020019150805190602001908083836000838110156107ec5781810151838201526020016107d456004150505f415554485f4641494c45440000000000000000000000000000000000ebb05b386a8d34882b8711d156f463690983dc47815980fb82aeeff1aa43579e494e49545f414c52454144595f494e495449414c495a4544000000000000000045564d52554e5f50524f5445435445445f53544154455f4d4f44494649454400544d5f42414c414e43455f494e435f4e4f545f414c4c4f574544000000000000544d5f43414c4c45525f4e4f545f544f4b454e00000000000000000000000000494e49545f4e4f545f494e495449414c495a4544000000000000000000000000a165627a7a72305820525049bbc7e27789889328e16e1e9a9305d243d2c866950e9f49161c96f354500029ebb05b386a8d34882b8711d156f463690983dc47815980fb82aeeff1aa43579e",
  "source": "/*\n * SPDX-License-Identitifer:    GPL-3.0-or-later\n */\n\n/* solium-disable function-order */\n\npragma solidity 0.4.24;\n\nimport \"@aragon/os/contracts/apps/AragonApp.sol\";\nimport \"@aragon/os/contracts/common/IForwarder.sol\";\n\nimport \"@aragon/os/contracts/lib/math/SafeMath.sol\";\n\nimport \"@aragon/apps-shared-minime/contracts/ITokenController.sol\";\nimport \"@aragon/apps-shared-minime/contracts/MiniMeToken.sol\";\n\n\ncontract TokenManager is ITokenController, IForwarder, AragonApp {\n    using SafeMath for uint256;\n\n    bytes32 public constant MINT_ROLE = keccak256(\"MINT_ROLE\");\n    bytes32 public constant ISSUE_ROLE = keccak256(\"ISSUE_ROLE\");\n    bytes32 public constant ASSIGN_ROLE = keccak256(\"ASSIGN_ROLE\");\n    bytes32 public constant REVOKE_VESTINGS_ROLE = keccak256(\"REVOKE_VESTINGS_ROLE\");\n    bytes32 public constant BURN_ROLE = keccak256(\"BURN_ROLE\");\n\n    uint256 public constant MAX_VESTINGS_PER_ADDRESS = 50;\n\n    string private constant ERROR_CALLER_NOT_TOKEN = \"TM_CALLER_NOT_TOKEN\";\n    string private constant ERROR_NO_VESTING = \"TM_NO_VESTING\";\n    string private constant ERROR_TOKEN_CONTROLLER = \"TM_TOKEN_CONTROLLER\";\n    string private constant ERROR_MINT_RECEIVER_IS_TM = \"TM_MINT_RECEIVER_IS_TM\";\n    string private constant ERROR_VESTING_TO_TM = \"TM_VESTING_TO_TM\";\n    string private constant ERROR_TOO_MANY_VESTINGS = \"TM_TOO_MANY_VESTINGS\";\n    string private constant ERROR_WRONG_CLIFF_DATE = \"TM_WRONG_CLIFF_DATE\";\n    string private constant ERROR_VESTING_NOT_REVOKABLE = \"TM_VESTING_NOT_REVOKABLE\";\n    string private constant ERROR_REVOKE_TRANSFER_FROM_REVERTED = \"TM_REVOKE_TRANSFER_FROM_REVERTED\";\n    string private constant ERROR_CAN_NOT_FORWARD = \"TM_CAN_NOT_FORWARD\";\n    string private constant ERROR_BALANCE_INCREASE_NOT_ALLOWED = \"TM_BALANCE_INC_NOT_ALLOWED\";\n    string private constant ERROR_ASSIGN_TRANSFER_FROM_REVERTED = \"TM_ASSIGN_TRANSFER_FROM_REVERTED\";\n\n    struct TokenVesting {\n        uint256 amount;\n        uint64 start;\n        uint64 cliff;\n        uint64 vesting;\n        bool revokable;\n    }\n\n    // Note that we COMPLETELY trust this MiniMeToken to not be malicious for proper operation of this contract\n    MiniMeToken public token;\n    uint256 public maxAccountTokens;\n\n    // We are mimicing an array in the inner mapping, we use a mapping instead to make app upgrade more graceful\n    mapping (address => mapping (uint256 => TokenVesting)) internal vestings;\n    mapping (address => uint256) public vestingsLengths;\n\n    // Other token specific events can be watched on the token address directly (avoids duplication)\n    event NewVesting(address indexed receiver, uint256 vestingId, uint256 amount);\n    event RevokeVesting(address indexed receiver, uint256 vestingId, uint256 nonVestedAmount);\n\n    modifier onlyToken() {\n        require(msg.sender == address(token), ERROR_CALLER_NOT_TOKEN);\n        _;\n    }\n\n    modifier vestingExists(address _holder, uint256 _vestingId) {\n        // TODO: it's not checking for gaps that may appear because of deletes in revokeVesting function\n        require(_vestingId < vestingsLengths[_holder], ERROR_NO_VESTING);\n        _;\n    }\n\n    /**\n    * @notice Initialize Token Manager for `_token.symbol(): string`, whose tokens are `transferable ? 'not' : ''` transferable`_maxAccountTokens > 0 ? ' and limited to a maximum of ' + @tokenAmount(_token, _maxAccountTokens, false) + ' per account' : ''`\n    * @param _token MiniMeToken address for the managed token (Token Manager instance must be already set as the token controller)\n    * @param _transferable whether the token can be transferred by holders\n    * @param _maxAccountTokens Maximum amount of tokens an account can have (0 for infinite tokens)\n    */\n    function initialize(\n        MiniMeToken _token,\n        bool _transferable,\n        uint256 _maxAccountTokens\n    )\n        external\n        onlyInit\n    {\n        initialized();\n\n        require(_token.controller() == address(this), ERROR_TOKEN_CONTROLLER);\n\n        token = _token;\n        maxAccountTokens = _maxAccountTokens == 0 ? uint256(-1) : _maxAccountTokens;\n\n        if (token.transfersEnabled() != _transferable) {\n            token.enableTransfers(_transferable);\n        }\n    }\n\n    /**\n    * @notice Mint `@tokenAmount(self.token(): address, _amount, false)` tokens for `_receiver`\n    * @param _receiver The address receiving the tokens, cannot be the Token Manager itself (use `issue()` instead)\n    * @param _amount Number of tokens minted\n    */\n    function mint(address _receiver, uint256 _amount) external authP(MINT_ROLE, arr(_receiver, _amount)) {\n        require(_receiver != address(this), ERROR_MINT_RECEIVER_IS_TM);\n        _mint(_receiver, _amount);\n    }\n\n    /**\n    * @notice Mint `@tokenAmount(self.token(): address, _amount, false)` tokens for the Token Manager\n    * @param _amount Number of tokens minted\n    */\n    function issue(uint256 _amount) external authP(ISSUE_ROLE, arr(_amount)) {\n        _mint(address(this), _amount);\n    }\n\n    /**\n    * @notice Assign `@tokenAmount(self.token(): address, _amount, false)` tokens to `_receiver` from the Token Manager's holdings\n    * @param _receiver The address receiving the tokens\n    * @param _amount Number of tokens transferred\n    */\n    function assign(address _receiver, uint256 _amount) external authP(ASSIGN_ROLE, arr(_receiver, _amount)) {\n        _assign(_receiver, _amount);\n    }\n\n    /**\n    * @notice Burn `@tokenAmount(self.token(): address, _amount, false)` tokens from `_holder`\n    * @param _holder Holder of tokens being burned\n    * @param _amount Number of tokens being burned\n    */\n    function burn(address _holder, uint256 _amount) external authP(BURN_ROLE, arr(_holder, _amount)) {\n        // minime.destroyTokens() never returns false, only reverts on failure\n        token.destroyTokens(_holder, _amount);\n    }\n\n    /**\n    * @notice Assign `@tokenAmount(self.token(): address, _amount, false)` tokens to `_receiver` from the Token Manager's holdings with a `_revokable : 'revokable' : ''` vesting starting at `@formatDate(_start)`, cliff at `@formatDate(_cliff)` (first portion of tokens transferable), and completed vesting at `@formatDate(_vested)` (all tokens transferable)\n    * @param _receiver The address receiving the tokens, cannot be Token Manager itself\n    * @param _amount Number of tokens vested\n    * @param _start Date the vesting calculations start\n    * @param _cliff Date when the initial portion of tokens are transferable\n    * @param _vested Date when all tokens are transferable\n    * @param _revokable Whether the vesting can be revoked by the Token Manager\n    */\n    function assignVested(\n        address _receiver,\n        uint256 _amount,\n        uint64 _start,\n        uint64 _cliff,\n        uint64 _vested,\n        bool _revokable\n    )\n        external\n        authP(ASSIGN_ROLE, arr(_receiver, _amount))\n        returns (uint256)\n    {\n        require(_receiver != address(this), ERROR_VESTING_TO_TM);\n        require(vestingsLengths[_receiver] < MAX_VESTINGS_PER_ADDRESS, ERROR_TOO_MANY_VESTINGS);\n        require(_start <= _cliff && _cliff <= _vested, ERROR_WRONG_CLIFF_DATE);\n\n        uint256 vestingId = vestingsLengths[_receiver]++;\n        vestings[_receiver][vestingId] = TokenVesting(\n            _amount,\n            _start,\n            _cliff,\n            _vested,\n            _revokable\n        );\n\n        _assign(_receiver, _amount);\n\n        emit NewVesting(_receiver, vestingId, _amount);\n\n        return vestingId;\n    }\n\n    /**\n    * @notice Revoke vesting #`_vestingId` from `_holder`, returning unvested tokens to the Token Manager\n    * @param _holder Address whose vesting to revoke\n    * @param _vestingId Numeric id of the vesting\n    */\n    function revokeVesting(address _holder, uint256 _vestingId)\n        external\n        authP(REVOKE_VESTINGS_ROLE, arr(_holder))\n        vestingExists(_holder, _vestingId)\n    {\n        TokenVesting storage v = vestings[_holder][_vestingId];\n        require(v.revokable, ERROR_VESTING_NOT_REVOKABLE);\n\n        uint256 nonVested = _calculateNonVestedTokens(\n            v.amount,\n            getTimestamp(),\n            v.start,\n            v.cliff,\n            v.vesting\n        );\n\n        // To make vestingIds immutable over time, we just zero out the revoked vesting\n        // Clearing this out also allows the token transfer back to the Token Manager to succeed\n        delete vestings[_holder][_vestingId];\n\n        // transferFrom always works as controller\n        // onTransfer hook always allows if transfering to token controller\n        require(token.transferFrom(_holder, address(this), nonVested), ERROR_REVOKE_TRANSFER_FROM_REVERTED);\n\n        emit RevokeVesting(_holder, _vestingId, nonVested);\n    }\n\n    // ITokenController fns\n    // `onTransfer()`, `onApprove()`, and `proxyPayment()` are callbacks from the MiniMe token\n    // contract and are only meant to be called through the managed MiniMe token that gets assigned\n    // during initialization.\n\n    /*\n    * @dev Notifies the controller about a token transfer allowing the controller to decide whether\n    *      to allow it or react if desired (only callable from the token).\n    *      Initialization check is implicitly provided by `onlyToken()`.\n    * @param _from The origin of the transfer\n    * @param _to The destination of the transfer\n    * @param _amount The amount of the transfer\n    * @return False if the controller does not authorize the transfer\n    */\n    function onTransfer(address _from, address _to, uint256 _amount) external onlyToken returns (bool) {\n        return _isBalanceIncreaseAllowed(_to, _amount) && _transferableBalance(_from, getTimestamp()) >= _amount;\n    }\n\n    /**\n    * @dev Notifies the controller about an approval allowing the controller to react if desired\n    *      Initialization check is implicitly provided by `onlyToken()`.\n    * @return False if the controller does not authorize the approval\n    */\n    function onApprove(address, address, uint) external onlyToken returns (bool) {\n        return true;\n    }\n\n    /**\n    * @dev Called when ether is sent to the MiniMe Token contract\n    *      Initialization check is implicitly provided by `onlyToken()`.\n    * @return True if the ether is accepted, false for it to throw\n    */\n    function proxyPayment(address) external payable onlyToken returns (bool) {\n        return false;\n    }\n\n    // Forwarding fns\n\n    function isForwarder() external pure returns (bool) {\n        return true;\n    }\n\n    /**\n    * @notice Execute desired action as a token holder\n    * @dev IForwarder interface conformance. Forwards any token holder action.\n    * @param _evmScript Script being executed\n    */\n    function forward(bytes _evmScript) public {\n        require(canForward(msg.sender, _evmScript), ERROR_CAN_NOT_FORWARD);\n        bytes memory input = new bytes(0); // TODO: Consider input for this\n\n        // Add the managed token to the blacklist to disallow a token holder from executing actions\n        // on the token controller's (this contract) behalf\n        address[] memory blacklist = new address[](1);\n        blacklist[0] = address(token);\n\n        runScript(_evmScript, input, blacklist);\n    }\n\n    function canForward(address _sender, bytes) public view returns (bool) {\n        return hasInitialized() && token.balanceOf(_sender) > 0;\n    }\n\n    // Getter fns\n\n    function getVesting(\n        address _recipient,\n        uint256 _vestingId\n    )\n        public\n        view\n        vestingExists(_recipient, _vestingId)\n        returns (\n            uint256 amount,\n            uint64 start,\n            uint64 cliff,\n            uint64 vesting,\n            bool revokable\n        )\n    {\n        TokenVesting storage tokenVesting = vestings[_recipient][_vestingId];\n        amount = tokenVesting.amount;\n        start = tokenVesting.start;\n        cliff = tokenVesting.cliff;\n        vesting = tokenVesting.vesting;\n        revokable = tokenVesting.revokable;\n    }\n\n    function spendableBalanceOf(address _holder) public view isInitialized returns (uint256) {\n        return _transferableBalance(_holder, getTimestamp());\n    }\n\n    function transferableBalance(address _holder, uint256 _time) public view isInitialized returns (uint256) {\n        return _transferableBalance(_holder, _time);\n    }\n\n    /**\n    * @dev Disable recovery escape hatch for own token,\n    *      as the it has the concept of issuing tokens without assigning them\n    */\n    function allowRecoverability(address _token) public view returns (bool) {\n        return _token != address(token);\n    }\n\n    // Internal fns\n\n    function _assign(address _receiver, uint256 _amount) internal {\n        require(_isBalanceIncreaseAllowed(_receiver, _amount), ERROR_BALANCE_INCREASE_NOT_ALLOWED);\n        // Must use transferFrom() as transfer() does not give the token controller full control\n        require(token.transferFrom(address(this), _receiver, _amount), ERROR_ASSIGN_TRANSFER_FROM_REVERTED);\n    }\n\n    function _mint(address _receiver, uint256 _amount) internal {\n        require(_isBalanceIncreaseAllowed(_receiver, _amount), ERROR_BALANCE_INCREASE_NOT_ALLOWED);\n        token.generateTokens(_receiver, _amount); // minime.generateTokens() never returns false\n    }\n\n    function _isBalanceIncreaseAllowed(address _receiver, uint256 _inc) internal view returns (bool) {\n        // Max balance doesn't apply to the token manager itself\n        if (_receiver == address(this)) {\n            return true;\n        }\n        return token.balanceOf(_receiver).add(_inc) <= maxAccountTokens;\n    }\n\n    /**\n    * @dev Calculate amount of non-vested tokens at a specifc time\n    * @param tokens The total amount of tokens vested\n    * @param time The time at which to check\n    * @param start The date vesting started\n    * @param cliff The cliff period\n    * @param vested The fully vested date\n    * @return The amount of non-vested tokens of a specific grant\n    *  transferableTokens\n    *   |                         _/--------   vestedTokens rect\n    *   |                       _/\n    *   |                     _/\n    *   |                   _/\n    *   |                 _/\n    *   |                /\n    *   |              .|\n    *   |            .  |\n    *   |          .    |\n    *   |        .      |\n    *   |      .        |\n    *   |    .          |\n    *   +===+===========+---------+----------> time\n    *      Start       Cliff    Vested\n    */\n    function _calculateNonVestedTokens(\n        uint256 tokens,\n        uint256 time,\n        uint256 start,\n        uint256 cliff,\n        uint256 vested\n    )\n        private\n        pure\n        returns (uint256)\n    {\n        // Shortcuts for before cliff and after vested cases.\n        if (time >= vested) {\n            return 0;\n        }\n        if (time < cliff) {\n            return tokens;\n        }\n\n        // Interpolate all vested tokens.\n        // As before cliff the shortcut returns 0, we can just calculate a value\n        // in the vesting rect (as shown in above's figure)\n\n        // vestedTokens = tokens * (time - start) / (vested - start)\n        // In assignVesting we enforce start <= cliff <= vested\n        // Here we shortcut time >= vested and time < cliff,\n        // so no division by 0 is possible\n        uint256 vestedTokens = tokens.mul(time.sub(start)) / vested.sub(start);\n\n        // tokens - vestedTokens\n        return tokens.sub(vestedTokens);\n    }\n\n    function _transferableBalance(address _holder, uint256 _time) internal view returns (uint256) {\n        uint256 transferable = token.balanceOf(_holder);\n\n        // This check is not strictly necessary for the current version of this contract, as\n        // Token Managers now cannot assign vestings to themselves.\n        // However, this was a possibility in the past, so in case there were vestings assigned to\n        // themselves, this will still return the correct value (entire balance, as the Token\n        // Manager does not have a spending limit on its own balance).\n        if (_holder != address(this)) {\n            uint256 vestingsCount = vestingsLengths[_holder];\n            for (uint256 i = 0; i < vestingsCount; i++) {\n                TokenVesting storage v = vestings[_holder][i];\n                uint256 nonTransferable = _calculateNonVestedTokens(\n                    v.amount,\n                    _time,\n                    v.start,\n                    v.cliff,\n                    v.vesting\n                );\n                transferable = transferable.sub(nonTransferable);\n            }\n        }\n\n        return transferable;\n    }\n}\n",
  "sourcePath": "@aragon/apps-token-manager/contracts/TokenManager.sol",
  "compiler": {
    "name": "solc",
    "version": "0.4.24+commit.e67f0147.Emscripten.clang"
  },
  "schemaVersion": "3.4.2",
  "updatedAt": "2021-10-14T14:14:04.017Z",
  "devdoc": {
    "methods": {
      "allowRecoverability(address)": {
        "details": "Disable recovery escape hatch for own token,     as the it has the concept of issuing tokens without assigning them"
      },
      "assign(address,uint256)": {
        "params": {
          "_amount": "Number of tokens transferred",
          "_receiver": "The address receiving the tokens"
        }
      },
      "assignVested(address,uint256,uint64,uint64,uint64,bool)": {
        "params": {
          "_amount": "Number of tokens vested",
          "_cliff": "Date when the initial portion of tokens are transferable",
          "_receiver": "The address receiving the tokens, cannot be Token Manager itself",
          "_revokable": "Whether the vesting can be revoked by the Token Manager",
          "_start": "Date the vesting calculations start",
          "_vested": "Date when all tokens are transferable"
        }
      },
      "burn(address,uint256)": {
        "params": {
          "_amount": "Number of tokens being burned",
          "_holder": "Holder of tokens being burned"
        }
      },
      "canPerform(address,bytes32,uint256[])": {
        "details": "Check whether an action can be performed by a sender for a particular role on this app",
        "params": {
          "_params": "Permission params for the role",
          "_role": "Role on this app",
          "_sender": "Sender of the call"
        },
        "return": "Boolean indicating whether the sender has the permissions to perform the action.        Always returns false if the app hasn't been initialized yet."
      },
      "forward(bytes)": {
        "details": "IForwarder interface conformance. Forwards any token holder action.",
        "params": {
          "_evmScript": "Script being executed"
        }
      },
      "getInitializationBlock()": {
        "return": "Block number in which the contract was initialized"
      },
      "getRecoveryVault()": {
        "details": "Get the recovery vault for the app",
        "return": "Recovery vault address for the app"
      },
      "hasInitialized()": {
        "return": "Whether the contract has been initialized by the time of the current block"
      },
      "initialize(address,bool,uint256)": {
        "params": {
          "_maxAccountTokens": "Maximum amount of tokens an account can have (0 for infinite tokens)",
          "_token": "MiniMeToken address for the managed token (Token Manager instance must be already set as the token controller)",
          "_transferable": "whether the token can be transferred by holders"
        }
      },
      "issue(uint256)": {
        "params": {
          "_amount": "Number of tokens minted"
        }
      },
      "mint(address,uint256)": {
        "params": {
          "_amount": "Number of tokens minted",
          "_receiver": "The address receiving the tokens, cannot be the Token Manager itself (use `issue()` instead)"
        }
      },
      "onApprove(address,address,uint256)": {
        "details": "Notifies the controller about an approval allowing the controller to react if desired     Initialization check is implicitly provided by `onlyToken()`.",
        "return": "False if the controller does not authorize the approval"
      },
      "proxyPayment(address)": {
        "details": "Called when ether is sent to the MiniMe Token contract     Initialization check is implicitly provided by `onlyToken()`.",
        "return": "True if the ether is accepted, false for it to throw"
      },
      "revokeVesting(address,uint256)": {
        "params": {
          "_holder": "Address whose vesting to revoke",
          "_vestingId": "Numeric id of the vesting"
        }
      },
      "transferToVault(address)": {
        "params": {
          "_token": "Token balance to be sent to recovery vault."
        }
      }
    }
  },
  "userdoc": {
    "methods": {
      "assign(address,uint256)": {
        "notice": "Assign `@tokenAmount(self.token(): address, _amount, false)` tokens to `_receiver` from the Token Manager's holdings"
      },
      "assignVested(address,uint256,uint64,uint64,uint64,bool)": {
        "notice": "Assign `@tokenAmount(self.token(): address, _amount, false)` tokens to `_receiver` from the Token Manager's holdings with a `_revokable : 'revokable' : ''` vesting starting at `@formatDate(_start)`, cliff at `@formatDate(_cliff)` (first portion of tokens transferable), and completed vesting at `@formatDate(_vested)` (all tokens transferable)"
      },
      "burn(address,uint256)": {
        "notice": "Burn `@tokenAmount(self.token(): address, _amount, false)` tokens from `_holder`"
      },
      "forward(bytes)": {
        "notice": "Execute desired action as a token holder"
      },
      "initialize(address,bool,uint256)": {
        "notice": "Initialize Token Manager for `_token.symbol(): string`, whose tokens are `transferable ? 'not' : ''` transferable`_maxAccountTokens > 0 ? ' and limited to a maximum of ' + @tokenAmount(_token, _maxAccountTokens, false) + ' per account' : ''`"
      },
      "issue(uint256)": {
        "notice": "Mint `@tokenAmount(self.token(): address, _amount, false)` tokens for the Token Manager"
      },
      "mint(address,uint256)": {
        "notice": "Mint `@tokenAmount(self.token(): address, _amount, false)` tokens for `_receiver`"
      },
      "revokeVesting(address,uint256)": {
        "notice": "Revoke vesting #`_vestingId` from `_holder`, returning unvested tokens to the Token Manager"
      },
      "transferToVault(address)": {
        "notice": "Send funds to recovery Vault. This contract should never receive funds,        but in case it does, this function allows one to recover them."
      }
    }
  }
}