{
  "contractName": "Vault",
  "abi": [
    {
      "constant": true,
      "inputs": [],
      "name": "hasInitialized",
      "outputs": [
        {
          "name": "",
          "type": "bool"
        }
      ],
      "payable": false,
      "stateMutability": "view",
      "type": "function"
    },
    {
      "constant": true,
      "inputs": [],
      "name": "TRANSFER_ROLE",
      "outputs": [
        {
          "name": "",
          "type": "bytes32"
        }
      ],
      "payable": false,
      "stateMutability": "view",
      "type": "function"
    },
    {
      "constant": true,
      "inputs": [
        {
          "name": "_script",
          "type": "bytes"
        }
      ],
      "name": "getEVMScriptExecutor",
      "outputs": [
        {
          "name": "",
          "type": "address"
        }
      ],
      "payable": false,
      "stateMutability": "view",
      "type": "function"
    },
    {
      "constant": true,
      "inputs": [],
      "name": "getRecoveryVault",
      "outputs": [
        {
          "name": "",
          "type": "address"
        }
      ],
      "payable": false,
      "stateMutability": "view",
      "type": "function"
    },
    {
      "constant": true,
      "inputs": [],
      "name": "isDepositable",
      "outputs": [
        {
          "name": "",
          "type": "bool"
        }
      ],
      "payable": false,
      "stateMutability": "view",
      "type": "function"
    },
    {
      "constant": true,
      "inputs": [],
      "name": "appId",
      "outputs": [
        {
          "name": "",
          "type": "bytes32"
        }
      ],
      "payable": false,
      "stateMutability": "view",
      "type": "function"
    },
    {
      "constant": true,
      "inputs": [],
      "name": "getInitializationBlock",
      "outputs": [
        {
          "name": "",
          "type": "uint256"
        }
      ],
      "payable": false,
      "stateMutability": "view",
      "type": "function"
    },
    {
      "constant": false,
      "inputs": [
        {
          "name": "_token",
          "type": "address"
        }
      ],
      "name": "transferToVault",
      "outputs": [],
      "payable": false,
      "stateMutability": "nonpayable",
      "type": "function"
    },
    {
      "constant": true,
      "inputs": [
        {
          "name": "_sender",
          "type": "address"
        },
        {
          "name": "_role",
          "type": "bytes32"
        },
        {
          "name": "_params",
          "type": "uint256[]"
        }
      ],
      "name": "canPerform",
      "outputs": [
        {
          "name": "",
          "type": "bool"
        }
      ],
      "payable": false,
      "stateMutability": "view",
      "type": "function"
    },
    {
      "constant": true,
      "inputs": [],
      "name": "getEVMScriptRegistry",
      "outputs": [
        {
          "name": "",
          "type": "address"
        }
      ],
      "payable": false,
      "stateMutability": "view",
      "type": "function"
    },
    {
      "constant": true,
      "inputs": [],
      "name": "kernel",
      "outputs": [
        {
          "name": "",
          "type": "address"
        }
      ],
      "payable": false,
      "stateMutability": "view",
      "type": "function"
    },
    {
      "constant": true,
      "inputs": [],
      "name": "isPetrified",
      "outputs": [
        {
          "name": "",
          "type": "bool"
        }
      ],
      "payable": false,
      "stateMutability": "view",
      "type": "function"
    },
    {
      "payable": true,
      "stateMutability": "payable",
      "type": "fallback"
    },
    {
      "anonymous": false,
      "inputs": [
        {
          "indexed": true,
          "name": "token",
          "type": "address"
        },
        {
          "indexed": true,
          "name": "to",
          "type": "address"
        },
        {
          "indexed": false,
          "name": "amount",
          "type": "uint256"
        }
      ],
      "name": "VaultTransfer",
      "type": "event"
    },
    {
      "anonymous": false,
      "inputs": [
        {
          "indexed": true,
          "name": "token",
          "type": "address"
        },
        {
          "indexed": true,
          "name": "sender",
          "type": "address"
        },
        {
          "indexed": false,
          "name": "amount",
          "type": "uint256"
        }
      ],
      "name": "VaultDeposit",
      "type": "event"
    },
    {
      "anonymous": false,
      "inputs": [
        {
          "indexed": true,
          "name": "executor",
          "type": "address"
        },
        {
          "indexed": false,
          "name": "script",
          "type": "bytes"
        },
        {
          "indexed": false,
          "name": "input",
          "type": "bytes"
        },
        {
          "indexed": false,
          "name": "returnData",
          "type": "bytes"
        }
      ],
      "name": "ScriptResult",
      "type": "event"
    },
    {
      "anonymous": false,
      "inputs": [
        {
          "indexed": true,
          "name": "vault",
          "type": "address"
        },
        {
          "indexed": true,
          "name": "token",
          "type": "address"
        },
        {
          "indexed": false,
          "name": "amount",
          "type": "uint256"
        }
      ],
      "name": "RecoverToVault",
      "type": "event"
    },
    {
      "constant": false,
      "inputs": [],
      "name": "initialize",
      "outputs": [],
      "payable": false,
      "stateMutability": "nonpayable",
      "type": "function"
    },
    {
      "constant": false,
      "inputs": [
        {
          "name": "_token",
          "type": "address"
        },
        {
          "name": "_value",
          "type": "uint256"
        }
      ],
      "name": "deposit",
      "outputs": [],
      "payable": true,
      "stateMutability": "payable",
      "type": "function"
    },
    {
      "constant": false,
      "inputs": [
        {
          "name": "_token",
          "type": "address"
        },
        {
          "name": "_to",
          "type": "address"
        },
        {
          "name": "_value",
          "type": "uint256"
        }
      ],
      "name": "transfer",
      "outputs": [],
      "payable": false,
      "stateMutability": "nonpayable",
      "type": "function"
    },
    {
      "constant": true,
      "inputs": [
        {
          "name": "_token",
          "type": "address"
        }
      ],
      "name": "balance",
      "outputs": [
        {
          "name": "",
          "type": "uint256"
        }
      ],
      "payable": false,
      "stateMutability": "view",
      "type": "function"
    },
    {
      "constant": true,
      "inputs": [
        {
          "name": "",
          "type": "address"
        }
      ],
      "name": "allowRecoverability",
      "outputs": [
        {
          "name": "",
          "type": "bool"
        }
      ],
      "payable": false,
      "stateMutability": "view",
      "type": "function"
    }
  ],
  "bytecode": "0x6080604052620000176401000000006200001d810204565b6200023b565b6200003064010000000062000125810204565b60408051808201909152601881527f494e49545f414c52454144595f494e495449414c495a45440000000000000000602082015290156200010c576040517f08c379a00000000000000000000000000000000000000000000000000000000081526004018080602001828103825283818151815260200191508051906020019080838360005b83811015620000d0578181015183820152602001620000b6565b50505050905090810190601f168015620000fe5780820380516001836020036101000a031916815260200191505b509250505060405180910390fd5b506200012360001964010000000062000154810204565b565b60006200014f60008051602062001933833981519152640100000000620012ed6200023382021704565b905090565b6200016764010000000062000125810204565b60408051808201909152601881527f494e49545f414c52454144595f494e495449414c495a454400000000000000006020820152901562000206576040517f08c379a000000000000000000000000000000000000000000000000000000000815260040180806020018281038252838181518152602001915080519060200190808383600083811015620000d0578181015183820152602001620000b6565b50620002306000805160206200193383398151915282640100000000620015ae6200023782021704565b50565b5490565b9055565b6116e8806200024b6000396000f3006080604052600436106100d75763ffffffff60e060020a6000350416630803fac08114610228578063206b60f9146102515780632914b9bd1461027857806332f0a3b5146102ed57806347e7ef241461030257806348a0c8dd146103195780637e7db6e11461032e57806380afdea81461034f5780638129fc1c146103645780638b3dd749146103795780639d4941d81461038e578063a1658fad146103af578063a479e50814610416578063beabacc81461042b578063d4aae0c414610455578063de4796ed1461046a578063e3d670d71461047f575b6100df6104a0565b6040805180820190915260148152606260020a731253925517d393d517d25392551250531256915102602082015290151561019b5760405160e560020a62461bcd0281526004018080602001828103825283818151815260200191508051906020019080838360005b83811015610160578181015183820152602001610148565b50505050905090810190601f16801561018d5780820380516001836020036101000a031916815260200191505b509250505060405180910390fd5b506040805180820190915260138152606860020a725641554c545f444154415f4e4f4e5f5a45524f026020820152361561021a5760405160e560020a62461bcd02815260040180806020018281038252838181518152602001915080519060200190808383600083811015610160578181015183820152602001610148565b506102266000346104c9565b005b34801561023457600080fd5b5061023d6104a0565b604080519115158252519081900360200190f35b34801561025d57600080fd5b5061026661075a565b60408051918252519081900360200190f35b34801561028457600080fd5b506040805160206004803580820135601f81018490048402850184019095528484526102d19436949293602493928401919081908401838280828437509497506107829650505050505050565b60408051600160a060020a039092168252519081900360200190f35b3480156102f957600080fd5b506102d161086a565b610226600160a060020a03600435166024356108e2565b34801561032557600080fd5b5061023d610979565b34801561033a57600080fd5b5061023d600160a060020a0360043516610997565b34801561035b57600080fd5b5061026661099d565b34801561037057600080fd5b506102266109c8565b34801561038557600080fd5b50610266610a58565b34801561039a57600080fd5b50610226600160a060020a0360043516610a71565b3480156103bb57600080fd5b50604080516020600460443581810135838102808601850190965280855261023d958335600160a060020a0316956024803596369695606495939492019291829185019084908082843750949750610cf89650505050505050565b34801561042257600080fd5b506102d1610e48565b34801561043757600080fd5b50610226600160a060020a0360043581169060243516604435610f19565b34801561046157600080fd5b506102d1611208565b34801561047657600080fd5b5061023d611233565b34801561048b57600080fd5b50610266600160a060020a0360043516611246565b6000806104ab610a58565b905080158015906104c35750806104c0611280565b10155b91505090565b6104d1610979565b6040805180820190915260158152605860020a745641554c545f4e4f545f4445504f53495441424c450260208201529015156105525760405160e560020a62461bcd02815260040180806020018281038252838181518152602001915080519060200190808383600083811015610160578181015183820152602001610148565b5060408051808201909152601881527f5641554c545f4445504f5349545f56414c55455f5a45524f00000000000000006020820152600082116105da5760405160e560020a62461bcd02815260040180806020018281038252838181518152602001915080519060200190808383600083811015610160578181015183820152602001610148565b50600160a060020a0382161515610671576040805180820190915260148152606360020a730ac82aa98a8beac8298aa8abe9a92a69a82a886902602082015234821461066b5760405160e560020a62461bcd02815260040180806020018281038252838181518152602001915080519060200190808383600083811015610160578181015183820152602001610148565b50610716565b61068c600160a060020a03831633308463ffffffff61128416565b6040805190810160405280602081526020017f5641554c545f544f4b454e5f5452414e534645525f46524f4d5f5245564552548152509015156107145760405160e560020a62461bcd02815260040180806020018281038252838181518152602001915080519060200190808383600083811015610160578181015183820152602001610148565b505b6040805182815290513391600160a060020a038516917f2790b90165fd3973ad7edde4eca71b4f8808dd4857a2a3a3e8ae5642a5cb196e9181900360200190a35050565b60408051609860020a6c5452414e534645525f524f4c45028152905190819003600d01902081565b600061078c610e48565b600160a060020a03166304bf2a7f836040518263ffffffff1660e060020a0281526004018080602001828103825283818151815260200191508051906020019080838360005b838110156107ea5781810151838201526020016107d2565b50505050905090810190601f1680156108175780820380516001836020036101000a031916815260200191505b5092505050602060405180830381600087803b15801561083657600080fd5b505af115801561084a573d6000803e3d6000fd5b505050506040513d602081101561086057600080fd5b505190505b919050565b6000610874611208565b600160a060020a03166332f0a3b56040518163ffffffff1660e060020a028152600401602060405180830381600087803b1580156108b157600080fd5b505af11580156108c5573d6000803e3d6000fd5b505050506040513d60208110156108db57600080fd5b5051905090565b6108ea6104a0565b6040805180820190915260148152606260020a731253925517d393d517d25392551250531256915102602082015290151561096a5760405160e560020a62461bcd02815260040180806020018281038252838181518152602001915080519060200190808383600083811015610160578181015183820152602001610148565b5061097582826104c9565b5050565b600061099260008051602061169d8339815191526112ed565b905090565b50600090565b60006109927fd625496217aa6a3453eecb9c3489dc5a53e6c67b444329ea2b2cbc9ff547639b6112ed565b6109d0610a58565b604080518082019091526018815260008051602061167d83398151915260208201529015610a435760405160e560020a62461bcd02815260040180806020018281038252838181518152602001915080519060200190808383600083811015610160578181015183820152602001610148565b50610a4c6112f1565b610a566001611393565b565b600061099260008051602061165d8339815191526112ed565b6000806000610a7f84610997565b6040805180820190915260128152607260020a71149150d3d5915497d11254d0531313d5d151026020820152901515610afd5760405160e560020a62461bcd02815260040180806020018281038252838181518152602001915080519060200190808383600083811015610160578181015183820152602001610148565b50610b0661086a565b9250610b11836113b8565b60408051808201909152601a81527f5245434f5645525f5641554c545f4e4f545f434f4e54524143540000000000006020820152901515610b975760405160e560020a62461bcd02815260040180806020018281038252838181518152602001915080519060200190808383600083811015610160578181015183820152602001610148565b50600160a060020a0384161515610be85760405130319250600160a060020a0384169083156108fc029084906000818181858888f19350505050158015610be2573d6000803e3d6000fd5b50610ca7565b5082610c03600160a060020a0382163063ffffffff6113e516565b9150610c1f600160a060020a038216848463ffffffff6114cf16565b60408051808201909152601d81527f5245434f5645525f544f4b454e5f5452414e534645525f4641494c45440000006020820152901515610ca55760405160e560020a62461bcd02815260040180806020018281038252838181518152602001915080519060200190808383600083811015610160578181015183820152602001610148565b505b83600160a060020a031683600160a060020a03167f596caf56044b55fb8c4ca640089bbc2b63cae3e978b851f5745cbb7c5b288e02846040518082815260200191505060405180910390a350505050565b600080610d036104a0565b1515610d125760009150610e40565b610d1a611208565b9050600160a060020a0381161515610d355760009150610e40565b80600160a060020a031663fdef9106863087610d508861152f565b60405160e060020a63ffffffff8716028152600160a060020a03808616600483019081529085166024830152604482018490526080606483019081528351608484015283519192909160a490910190602085019080838360005b83811015610dc2578181015183820152602001610daa565b50505050905090810190601f168015610def5780820380516001836020036101000a031916815260200191505b5095505050505050602060405180830381600087803b158015610e1157600080fd5b505af1158015610e25573d6000803e3d6000fd5b505050506040513d6020811015610e3b57600080fd5b505191505b509392505050565b600080610e53611208565b6040805160e360020a6317c0177b0281527fd6f028ca0e8edb4a8c9757ca4fdccab25fa1e0317da1188108f7d2dee14902fb60048201527fddbcfd564f642ab5627cf68b9b7d374fb4f8a36e941a75d89c87998cef03bd6160248201529051600160a060020a03929092169163be00bbd8916044808201926020929091908290030181600087803b158015610ee757600080fd5b505af1158015610efb573d6000803e3d6000fd5b505050506040513d6020811015610f1157600080fd5b505192915050565b60408051609860020a6c5452414e534645525f524f4c45028152905190819003600d019020610f49848484611539565b610f54338383610cf8565b60408051808201909152600f8152608a60020a6e10541417d055551217d19052531151026020820152901515610fcf5760405160e560020a62461bcd02815260040180806020018281038252838181518152602001915080519060200190808383600083811015610160578181015183820152602001610148565b5060408051808201909152601981527f5641554c545f5452414e534645525f56414c55455f5a45524f000000000000006020820152600084116110575760405160e560020a62461bcd02815260040180806020018281038252838181518152602001915080519060200190808383600083811015610160578181015183820152602001610148565b50600160a060020a038516151561111457604051600160a060020a0385169084156108fc029085906000818181858888f19350505050604080519081016040528060138152602001606a60020a72159055531517d4d1539117d4915591549511510281525090151561110e5760405160e560020a62461bcd02815260040180806020018281038252838181518152602001915080519060200190808383600083811015610160578181015183820152602001610148565b506111b6565b61112e600160a060020a038616858563ffffffff6114cf16565b60408051808201909152601d81527f5641554c545f544f4b454e5f5452414e534645525f524556455254454400000060208201529015156111b45760405160e560020a62461bcd02815260040180806020018281038252838181518152602001915080519060200190808383600083811015610160578181015183820152602001610148565b505b83600160a060020a031685600160a060020a03167f239e7f6cdac8fb35a788a46b431b54da87de90b82448a2c294be5e92a6e579af856040518082815260200191505060405180910390a35050505050565b60006109927f4172f0f7d2289153072b0a6ca36959e0cbe2efc3afe50fc81636caa96338137b6112ed565b6000600019611240610a58565b14905090565b6000600160a060020a038216151561126057503031610865565b611279600160a060020a0383163063ffffffff6113e516565b9050610865565b4390565b60408051600160a060020a038581166024830152841660448201526064808201849052825180830390910181526084909101909152602081018051600160e060020a031660e060020a6323b872dd021790526000906112e38682611560565b9695505050505050565b5490565b6112f9610a58565b604080518082019091526018815260008051602061167d8339815191526020820152901561136c5760405160e560020a62461bcd02815260040180806020018281038252838181518152602001915080519060200190808383600083811015610160578181015183820152602001610148565b50610a56611378611280565b60008051602061165d8339815191529063ffffffff6115ae16565b6113b160008051602061169d8339815191528263ffffffff6115ae16565b50565b5490565b600080600160a060020a03831615156113d457600091506113df565b823b90506000811191505b50919050565b60408051600160a060020a038316602480830191909152825180830390910181526044909101909152602081018051600160e060020a031660e060020a6370a0823102179052600090818061143a86846115b2565b60408051808201909152601c81527f534146455f4552435f32305f42414c414e43455f524556455254454400000000602082015291935091508215156114c55760405160e560020a62461bcd02815260040180806020018281038252838181518152602001915080519060200190808383600083811015610160578181015183820152602001610148565b5095945050505050565b60408051600160a060020a03841660248201526044808201849052825180830390910181526064909101909152602081018051600160e060020a031660e060020a63a9059cbb021790526000906115268582611560565b95945050505050565b8051602002815290565b606061155884600160a060020a031684600160a060020a0316846115e3565b949350505050565b6000806040516020818551602087016000895af160008111156115a4573d8015611591576020811461159a576115a2565b600193506115a2565b600183511493505b505b5090949350505050565b9055565b6000806000806040516020818751602089018a5afa925060008311156115d757805191505b50909590945092505050565b604080516003808252608082019092526060916020820183803883390190505090508381600081518110151561161557fe5b60209081029091010152805183908290600190811061163057fe5b60209081029091010152805182908290600290811061164b57fe5b6020908102909101015293925050505600ebb05b386a8d34882b8711d156f463690983dc47815980fb82aeeff1aa43579e494e49545f414c52454144595f494e495449414c495a45440000000000000000665fd576fbbe6f247aff98f5c94a561e3f71ec2d3c988d56f12d342396c50ceaa165627a7a72305820b7a7e47703a00b4da53fa62918e5c3eb6c3c4d205db69d63f38eb84bebad36880029ebb05b386a8d34882b8711d156f463690983dc47815980fb82aeeff1aa43579e",
  "source": "pragma solidity 0.4.24;\n\nimport \"@aragon/os/contracts/apps/AragonApp.sol\";\nimport \"@aragon/os/contracts/common/DepositableStorage.sol\";\nimport \"@aragon/os/contracts/common/EtherTokenConstant.sol\";\nimport \"@aragon/os/contracts/common/SafeERC20.sol\";\nimport \"@aragon/os/contracts/lib/token/ERC20.sol\";\n\n\ncontract Vault is EtherTokenConstant, AragonApp, DepositableStorage {\n    using SafeERC20 for ERC20;\n\n    bytes32 public constant TRANSFER_ROLE = keccak256(\"TRANSFER_ROLE\");\n\n    string private constant ERROR_DATA_NON_ZERO = \"VAULT_DATA_NON_ZERO\";\n    string private constant ERROR_NOT_DEPOSITABLE = \"VAULT_NOT_DEPOSITABLE\";\n    string private constant ERROR_DEPOSIT_VALUE_ZERO = \"VAULT_DEPOSIT_VALUE_ZERO\";\n    string private constant ERROR_TRANSFER_VALUE_ZERO = \"VAULT_TRANSFER_VALUE_ZERO\";\n    string private constant ERROR_SEND_REVERTED = \"VAULT_SEND_REVERTED\";\n    string private constant ERROR_VALUE_MISMATCH = \"VAULT_VALUE_MISMATCH\";\n    string private constant ERROR_TOKEN_TRANSFER_FROM_REVERTED = \"VAULT_TOKEN_TRANSFER_FROM_REVERT\";\n    string private constant ERROR_TOKEN_TRANSFER_REVERTED = \"VAULT_TOKEN_TRANSFER_REVERTED\";\n\n    event VaultTransfer(address indexed token, address indexed to, uint256 amount);\n    event VaultDeposit(address indexed token, address indexed sender, uint256 amount);\n\n    /**\n    * @dev On a normal send() or transfer() this fallback is never executed as it will be\n    *      intercepted by the Proxy (see aragonOS#281)\n    */\n    function () external payable isInitialized {\n        require(msg.data.length == 0, ERROR_DATA_NON_ZERO);\n        _deposit(ETH, msg.value);\n    }\n\n    /**\n    * @notice Initialize Vault app\n    * @dev As an AragonApp it needs to be initialized in order for roles (`auth` and `authP`) to work\n    */\n    function initialize() external onlyInit {\n        initialized();\n        setDepositable(true);\n    }\n\n    /**\n    * @notice Deposit `_value` `_token` to the vault\n    * @param _token Address of the token being transferred\n    * @param _value Amount of tokens being transferred\n    */\n    function deposit(address _token, uint256 _value) external payable isInitialized {\n        _deposit(_token, _value);\n    }\n\n    /**\n    * @notice Transfer `_value` `_token` from the Vault to `_to`\n    * @param _token Address of the token being transferred\n    * @param _to Address of the recipient of tokens\n    * @param _value Amount of tokens being transferred\n    */\n    /* solium-disable-next-line function-order */\n    function transfer(address _token, address _to, uint256 _value)\n        external\n        authP(TRANSFER_ROLE, arr(_token, _to, _value))\n    {\n        require(_value > 0, ERROR_TRANSFER_VALUE_ZERO);\n\n        if (_token == ETH) {\n            require(_to.send(_value), ERROR_SEND_REVERTED);\n        } else {\n            require(ERC20(_token).safeTransfer(_to, _value), ERROR_TOKEN_TRANSFER_REVERTED);\n        }\n\n        emit VaultTransfer(_token, _to, _value);\n    }\n\n    function balance(address _token) public view returns (uint256) {\n        if (_token == ETH) {\n            return address(this).balance;\n        } else {\n            return ERC20(_token).staticBalanceOf(address(this));\n        }\n    }\n\n    /**\n    * @dev Disable recovery escape hatch, as it could be used\n    *      maliciously to transfer funds away from the vault\n    */\n    function allowRecoverability(address) public view returns (bool) {\n        return false;\n    }\n\n    function _deposit(address _token, uint256 _value) internal {\n        require(isDepositable(), ERROR_NOT_DEPOSITABLE);\n        require(_value > 0, ERROR_DEPOSIT_VALUE_ZERO);\n\n        if (_token == ETH) {\n            // Deposit is implicit in this case\n            require(msg.value == _value, ERROR_VALUE_MISMATCH);\n        } else {\n            require(\n                ERC20(_token).safeTransferFrom(msg.sender, address(this), _value),\n                ERROR_TOKEN_TRANSFER_FROM_REVERTED\n            );\n        }\n\n        emit VaultDeposit(_token, msg.sender, _value);\n    }\n}\n",
  "sourcePath": "@aragon/apps-vault/contracts/Vault.sol",
  "compiler": {
    "name": "solc",
    "version": "0.4.24+commit.e67f0147.Emscripten.clang"
  },
  "schemaVersion": "3.4.2",
  "updatedAt": "2021-10-14T14:14:04.039Z",
  "devdoc": {
    "methods": {
      "allowRecoverability(address)": {
        "details": "Disable recovery escape hatch, as it could be used     maliciously to transfer funds away from the vault"
      },
      "canPerform(address,bytes32,uint256[])": {
        "details": "Check whether an action can be performed by a sender for a particular role on this app",
        "params": {
          "_params": "Permission params for the role",
          "_role": "Role on this app",
          "_sender": "Sender of the call"
        },
        "return": "Boolean indicating whether the sender has the permissions to perform the action.        Always returns false if the app hasn't been initialized yet."
      },
      "deposit(address,uint256)": {
        "params": {
          "_token": "Address of the token being transferred",
          "_value": "Amount of tokens being transferred"
        }
      },
      "getInitializationBlock()": {
        "return": "Block number in which the contract was initialized"
      },
      "getRecoveryVault()": {
        "details": "Get the recovery vault for the app",
        "return": "Recovery vault address for the app"
      },
      "hasInitialized()": {
        "return": "Whether the contract has been initialized by the time of the current block"
      },
      "initialize()": {
        "details": "As an AragonApp it needs to be initialized in order for roles (`auth` and `authP`) to work"
      },
      "transfer(address,address,uint256)": {
        "params": {
          "_to": "Address of the recipient of tokens",
          "_token": "Address of the token being transferred",
          "_value": "Amount of tokens being transferred"
        }
      },
      "transferToVault(address)": {
        "params": {
          "_token": "Token balance to be sent to recovery vault."
        }
      }
    }
  },
  "userdoc": {
    "methods": {
      "deposit(address,uint256)": {
        "notice": "Deposit `_value` `_token` to the vault"
      },
      "initialize()": {
        "notice": "Initialize Vault app"
      },
      "transfer(address,address,uint256)": {
        "notice": "Transfer `_value` `_token` from the Vault to `_to`"
      },
      "transferToVault(address)": {
        "notice": "Send funds to recovery Vault. This contract should never receive funds,        but in case it does, this function allows one to recover them."
      }
    }
  }
}