{
  "contractName": "Voting",
  "abi": [
    {
      "constant": true,
      "inputs": [],
      "name": "hasInitialized",
      "outputs": [
        {
          "name": "",
          "type": "bool"
        }
      ],
      "payable": false,
      "stateMutability": "view",
      "type": "function"
    },
    {
      "constant": true,
      "inputs": [
        {
          "name": "_script",
          "type": "bytes"
        }
      ],
      "name": "getEVMScriptExecutor",
      "outputs": [
        {
          "name": "",
          "type": "address"
        }
      ],
      "payable": false,
      "stateMutability": "view",
      "type": "function"
    },
    {
      "constant": true,
      "inputs": [],
      "name": "getRecoveryVault",
      "outputs": [
        {
          "name": "",
          "type": "address"
        }
      ],
      "payable": false,
      "stateMutability": "view",
      "type": "function"
    },
    {
      "constant": true,
      "inputs": [],
      "name": "MODIFY_QUORUM_ROLE",
      "outputs": [
        {
          "name": "",
          "type": "bytes32"
        }
      ],
      "payable": false,
      "stateMutability": "view",
      "type": "function"
    },
    {
      "constant": true,
      "inputs": [],
      "name": "MODIFY_SUPPORT_ROLE",
      "outputs": [
        {
          "name": "",
          "type": "bytes32"
        }
      ],
      "payable": false,
      "stateMutability": "view",
      "type": "function"
    },
    {
      "constant": true,
      "inputs": [
        {
          "name": "token",
          "type": "address"
        }
      ],
      "name": "allowRecoverability",
      "outputs": [
        {
          "name": "",
          "type": "bool"
        }
      ],
      "payable": false,
      "stateMutability": "view",
      "type": "function"
    },
    {
      "constant": true,
      "inputs": [],
      "name": "appId",
      "outputs": [
        {
          "name": "",
          "type": "bytes32"
        }
      ],
      "payable": false,
      "stateMutability": "view",
      "type": "function"
    },
    {
      "constant": true,
      "inputs": [],
      "name": "getInitializationBlock",
      "outputs": [
        {
          "name": "",
          "type": "uint256"
        }
      ],
      "payable": false,
      "stateMutability": "view",
      "type": "function"
    },
    {
      "constant": false,
      "inputs": [
        {
          "name": "_token",
          "type": "address"
        }
      ],
      "name": "transferToVault",
      "outputs": [],
      "payable": false,
      "stateMutability": "nonpayable",
      "type": "function"
    },
    {
      "constant": true,
      "inputs": [
        {
          "name": "_sender",
          "type": "address"
        },
        {
          "name": "_role",
          "type": "bytes32"
        },
        {
          "name": "_params",
          "type": "uint256[]"
        }
      ],
      "name": "canPerform",
      "outputs": [
        {
          "name": "",
          "type": "bool"
        }
      ],
      "payable": false,
      "stateMutability": "view",
      "type": "function"
    },
    {
      "constant": true,
      "inputs": [],
      "name": "getEVMScriptRegistry",
      "outputs": [
        {
          "name": "",
          "type": "address"
        }
      ],
      "payable": false,
      "stateMutability": "view",
      "type": "function"
    },
    {
      "constant": true,
      "inputs": [],
      "name": "voteTime",
      "outputs": [
        {
          "name": "",
          "type": "uint64"
        }
      ],
      "payable": false,
      "stateMutability": "view",
      "type": "function"
    },
    {
      "constant": true,
      "inputs": [],
      "name": "CREATE_VOTES_ROLE",
      "outputs": [
        {
          "name": "",
          "type": "bytes32"
        }
      ],
      "payable": false,
      "stateMutability": "view",
      "type": "function"
    },
    {
      "constant": true,
      "inputs": [],
      "name": "kernel",
      "outputs": [
        {
          "name": "",
          "type": "address"
        }
      ],
      "payable": false,
      "stateMutability": "view",
      "type": "function"
    },
    {
      "constant": true,
      "inputs": [],
      "name": "minAcceptQuorumPct",
      "outputs": [
        {
          "name": "",
          "type": "uint64"
        }
      ],
      "payable": false,
      "stateMutability": "view",
      "type": "function"
    },
    {
      "constant": true,
      "inputs": [],
      "name": "isPetrified",
      "outputs": [
        {
          "name": "",
          "type": "bool"
        }
      ],
      "payable": false,
      "stateMutability": "view",
      "type": "function"
    },
    {
      "constant": true,
      "inputs": [],
      "name": "votesLength",
      "outputs": [
        {
          "name": "",
          "type": "uint256"
        }
      ],
      "payable": false,
      "stateMutability": "view",
      "type": "function"
    },
    {
      "constant": true,
      "inputs": [],
      "name": "supportRequiredPct",
      "outputs": [
        {
          "name": "",
          "type": "uint64"
        }
      ],
      "payable": false,
      "stateMutability": "view",
      "type": "function"
    },
    {
      "constant": true,
      "inputs": [],
      "name": "token",
      "outputs": [
        {
          "name": "",
          "type": "address"
        }
      ],
      "payable": false,
      "stateMutability": "view",
      "type": "function"
    },
    {
      "constant": true,
      "inputs": [],
      "name": "PCT_BASE",
      "outputs": [
        {
          "name": "",
          "type": "uint64"
        }
      ],
      "payable": false,
      "stateMutability": "view",
      "type": "function"
    },
    {
      "anonymous": false,
      "inputs": [
        {
          "indexed": true,
          "name": "voteId",
          "type": "uint256"
        },
        {
          "indexed": true,
          "name": "creator",
          "type": "address"
        },
        {
          "indexed": false,
          "name": "metadata",
          "type": "string"
        }
      ],
      "name": "StartVote",
      "type": "event"
    },
    {
      "anonymous": false,
      "inputs": [
        {
          "indexed": true,
          "name": "voteId",
          "type": "uint256"
        },
        {
          "indexed": true,
          "name": "voter",
          "type": "address"
        },
        {
          "indexed": false,
          "name": "supports",
          "type": "bool"
        },
        {
          "indexed": false,
          "name": "stake",
          "type": "uint256"
        }
      ],
      "name": "CastVote",
      "type": "event"
    },
    {
      "anonymous": false,
      "inputs": [
        {
          "indexed": true,
          "name": "voteId",
          "type": "uint256"
        }
      ],
      "name": "ExecuteVote",
      "type": "event"
    },
    {
      "anonymous": false,
      "inputs": [
        {
          "indexed": false,
          "name": "supportRequiredPct",
          "type": "uint64"
        }
      ],
      "name": "ChangeSupportRequired",
      "type": "event"
    },
    {
      "anonymous": false,
      "inputs": [
        {
          "indexed": false,
          "name": "minAcceptQuorumPct",
          "type": "uint64"
        }
      ],
      "name": "ChangeMinQuorum",
      "type": "event"
    },
    {
      "anonymous": false,
      "inputs": [
        {
          "indexed": true,
          "name": "executor",
          "type": "address"
        },
        {
          "indexed": false,
          "name": "script",
          "type": "bytes"
        },
        {
          "indexed": false,
          "name": "input",
          "type": "bytes"
        },
        {
          "indexed": false,
          "name": "returnData",
          "type": "bytes"
        }
      ],
      "name": "ScriptResult",
      "type": "event"
    },
    {
      "anonymous": false,
      "inputs": [
        {
          "indexed": true,
          "name": "vault",
          "type": "address"
        },
        {
          "indexed": true,
          "name": "token",
          "type": "address"
        },
        {
          "indexed": false,
          "name": "amount",
          "type": "uint256"
        }
      ],
      "name": "RecoverToVault",
      "type": "event"
    },
    {
      "constant": false,
      "inputs": [
        {
          "name": "_token",
          "type": "address"
        },
        {
          "name": "_supportRequiredPct",
          "type": "uint64"
        },
        {
          "name": "_minAcceptQuorumPct",
          "type": "uint64"
        },
        {
          "name": "_voteTime",
          "type": "uint64"
        }
      ],
      "name": "initialize",
      "outputs": [],
      "payable": false,
      "stateMutability": "nonpayable",
      "type": "function"
    },
    {
      "constant": false,
      "inputs": [
        {
          "name": "_supportRequiredPct",
          "type": "uint64"
        }
      ],
      "name": "changeSupportRequiredPct",
      "outputs": [],
      "payable": false,
      "stateMutability": "nonpayable",
      "type": "function"
    },
    {
      "constant": false,
      "inputs": [
        {
          "name": "_minAcceptQuorumPct",
          "type": "uint64"
        }
      ],
      "name": "changeMinAcceptQuorumPct",
      "outputs": [],
      "payable": false,
      "stateMutability": "nonpayable",
      "type": "function"
    },
    {
      "constant": false,
      "inputs": [
        {
          "name": "_executionScript",
          "type": "bytes"
        },
        {
          "name": "_metadata",
          "type": "string"
        }
      ],
      "name": "newVote",
      "outputs": [
        {
          "name": "voteId",
          "type": "uint256"
        }
      ],
      "payable": false,
      "stateMutability": "nonpayable",
      "type": "function"
    },
    {
      "constant": false,
      "inputs": [
        {
          "name": "_executionScript",
          "type": "bytes"
        },
        {
          "name": "_metadata",
          "type": "string"
        },
        {
          "name": "_castVote",
          "type": "bool"
        },
        {
          "name": "_executesIfDecided",
          "type": "bool"
        }
      ],
      "name": "newVote",
      "outputs": [
        {
          "name": "voteId",
          "type": "uint256"
        }
      ],
      "payable": false,
      "stateMutability": "nonpayable",
      "type": "function"
    },
    {
      "constant": false,
      "inputs": [
        {
          "name": "_voteId",
          "type": "uint256"
        },
        {
          "name": "_supports",
          "type": "bool"
        },
        {
          "name": "_executesIfDecided",
          "type": "bool"
        }
      ],
      "name": "vote",
      "outputs": [],
      "payable": false,
      "stateMutability": "nonpayable",
      "type": "function"
    },
    {
      "constant": false,
      "inputs": [
        {
          "name": "_voteId",
          "type": "uint256"
        }
      ],
      "name": "executeVote",
      "outputs": [],
      "payable": false,
      "stateMutability": "nonpayable",
      "type": "function"
    },
    {
      "constant": true,
      "inputs": [],
      "name": "isForwarder",
      "outputs": [
        {
          "name": "",
          "type": "bool"
        }
      ],
      "payable": false,
      "stateMutability": "pure",
      "type": "function"
    },
    {
      "constant": false,
      "inputs": [
        {
          "name": "_evmScript",
          "type": "bytes"
        }
      ],
      "name": "forward",
      "outputs": [],
      "payable": false,
      "stateMutability": "nonpayable",
      "type": "function"
    },
    {
      "constant": true,
      "inputs": [
        {
          "name": "_sender",
          "type": "address"
        },
        {
          "name": "",
          "type": "bytes"
        }
      ],
      "name": "canForward",
      "outputs": [
        {
          "name": "",
          "type": "bool"
        }
      ],
      "payable": false,
      "stateMutability": "view",
      "type": "function"
    },
    {
      "constant": true,
      "inputs": [
        {
          "name": "_voteId",
          "type": "uint256"
        }
      ],
      "name": "canExecute",
      "outputs": [
        {
          "name": "",
          "type": "bool"
        }
      ],
      "payable": false,
      "stateMutability": "view",
      "type": "function"
    },
    {
      "constant": true,
      "inputs": [
        {
          "name": "_voteId",
          "type": "uint256"
        },
        {
          "name": "_voter",
          "type": "address"
        }
      ],
      "name": "canVote",
      "outputs": [
        {
          "name": "",
          "type": "bool"
        }
      ],
      "payable": false,
      "stateMutability": "view",
      "type": "function"
    },
    {
      "constant": true,
      "inputs": [
        {
          "name": "_voteId",
          "type": "uint256"
        }
      ],
      "name": "getVote",
      "outputs": [
        {
          "name": "open",
          "type": "bool"
        },
        {
          "name": "executed",
          "type": "bool"
        },
        {
          "name": "startDate",
          "type": "uint64"
        },
        {
          "name": "snapshotBlock",
          "type": "uint64"
        },
        {
          "name": "supportRequired",
          "type": "uint64"
        },
        {
          "name": "minAcceptQuorum",
          "type": "uint64"
        },
        {
          "name": "yea",
          "type": "uint256"
        },
        {
          "name": "nay",
          "type": "uint256"
        },
        {
          "name": "votingPower",
          "type": "uint256"
        },
        {
          "name": "script",
          "type": "bytes"
        }
      ],
      "payable": false,
      "stateMutability": "view",
      "type": "function"
    },
    {
      "constant": true,
      "inputs": [
        {
          "name": "_voteId",
          "type": "uint256"
        },
        {
          "name": "_voter",
          "type": "address"
        }
      ],
      "name": "getVoterState",
      "outputs": [
        {
          "name": "",
          "type": "uint8"
        }
      ],
      "payable": false,
      "stateMutability": "view",
      "type": "function"
    }
  ],
  "bytecode": "0x6080604052620000176401000000006200001d810204565b6200023b565b6200003064010000000062000125810204565b60408051808201909152601881527f494e49545f414c52454144595f494e495449414c495a45440000000000000000602082015290156200010c576040517f08c379a00000000000000000000000000000000000000000000000000000000081526004018080602001828103825283818151815260200191508051906020019080838360005b83811015620000d0578181015183820152602001620000b6565b50505050905090810190601f168015620000fe5780820380516001836020036101000a031916815260200191505b509250505060405180910390fd5b506200012360001964010000000062000154810204565b565b60006200014f600080516020620036a883398151915264010000000062001f1c6200023382021704565b905090565b6200016764010000000062000125810204565b60408051808201909152601881527f494e49545f414c52454144595f494e495449414c495a454400000000000000006020820152901562000206576040517f08c379a000000000000000000000000000000000000000000000000000000000815260040180806020018281038252838181518152602001915080519060200190808383600083811015620000d0578181015183820152602001620000b6565b5062000230600080516020620036a88339815191528264010000000062002c016200023782021704565b50565b5490565b9055565b61345d806200024b6000396000f3006080604052600436106101925763ffffffff60e060020a6000350416630803fac081146101975780632914b9bd146101c057806332f0a3b5146102355780633c624c751461024a5780634b12311c146102715780635a55c1f0146102b95780635eb24332146103d857806362de7e5a146103fb5780637c1d0b87146104105780637e7db6e11461043157806380afdea8146104525780638b3dd749146104675780639d4941d81461047c578063a1658fad1461049d578063a479e50814610504578063bcf93dd614610519578063be2c64d41461054a578063c0774df31461055f578063cc63604a146105c6578063cdb2867b146105de578063d4aae0c414610602578063d5db2c8014610617578063d948d46814610643578063dc474b1a1461069c578063de4796ed146106b1578063de4f6347146106c6578063df133bca146106db578063df3d3305146106fd578063f4b0051314610736578063f98a4eca1461076c578063fad167ab14610784578063fc0c546a14610799578063fc157cb4146107ae578063fd64eccb146107c3575b600080fd5b3480156101a357600080fd5b506101ac6107d8565b604080519115158252519081900360200190f35b3480156101cc57600080fd5b506040805160206004803580820135601f81018490048402850184019095528484526102199436949293602493928401919081908401838280828437509497506108029650505050505050565b60408051600160a060020a039092168252519081900360200190f35b34801561024157600080fd5b506102196108e8565b34801561025657600080fd5b5061025f610961565b60408051918252519081900360200190f35b34801561027d57600080fd5b50610295600435600160a060020a036024351661098e565b604051808260028111156102a557fe5b60ff16815260200191505060405180910390f35b3480156102c557600080fd5b506102d1600435610a7a565b604051808b1515151581526020018a151515158152602001896001604060020a03166001604060020a03168152602001886001604060020a03166001604060020a03168152602001876001604060020a03166001604060020a03168152602001866001604060020a03166001604060020a0316815260200185815260200184815260200183815260200180602001828103825283818151815260200191508051906020019080838360005b8381101561039457818101518382015260200161037c565b50505050905090810190601f1680156103c15780820380516001836020036101000a031916815260200191505b509b50505050505050505050505060405180910390f35b3480156103e457600080fd5b506103f96001604060020a0360043516610c63565b005b34801561040757600080fd5b5061025f610e23565b34801561041c57600080fd5b506103f96001604060020a0360043516610e51565b34801561043d57600080fd5b506101ac600160a060020a03600435166110b4565b34801561045e57600080fd5b5061025f6110ba565b34801561047357600080fd5b5061025f6110ea565b34801561048857600080fd5b506103f9600160a060020a0360043516611103565b3480156104a957600080fd5b5060408051602060046044358181013583810280860185019096528085526101ac958335600160a060020a031695602480359636969560649593949201929182918501908490808284375094975061138a9650505050505050565b34801561051057600080fd5b506102196114da565b34801561052557600080fd5b5061052e611579565b604080516001604060020a039092168252519081900360200190f35b34801561055657600080fd5b5061025f61158f565b34801561056b57600080fd5b5060408051602060046024803582810135601f81018590048502860185019096528585526101ac958335600160a060020a03169536956044949193909101919081908401838280828437509497506115b29650505050505050565b3480156105d257600080fd5b506101ac6004356115f0565b3480156105ea57600080fd5b506101ac600435600160a060020a036024351661167f565b34801561060e57600080fd5b5061021961170e565b34801561062357600080fd5b5061025f6024600480358281019290820135918135918201910135611739565b34801561064f57600080fd5b506040805160206004803580820135601f81018490048402850184019095528484526103f99436949293602493928401919081908401838280828437509497506118689650505050505050565b3480156106a857600080fd5b5061052e61191a565b3480156106bd57600080fd5b506101ac611929565b3480156106d257600080fd5b5061025f61193c565b3480156106e757600080fd5b506103f960043560243515156044351515611942565b34801561070957600080fd5b506103f9600160a060020a03600435166001604060020a0360243581169060443581169060643516611a57565b34801561074257600080fd5b5061025f602460048035828101929082013591813591820191013560443515156064351515611c78565b34801561077857600080fd5b506103f9600435611da6565b34801561079057600080fd5b5061052e611e28565b3480156107a557600080fd5b50610219611e3e565b3480156107ba57600080fd5b5061052e611e4d565b3480156107cf57600080fd5b506101ac611e59565b6000806107e36110ea565b905080158015906107fb5750806107f8611e5e565b10155b91505b5090565b600061080c6114da565b600160a060020a03166304bf2a7f836040518263ffffffff1660e060020a0281526004018080602001828103825283818151815260200191508051906020019080838360005b8381101561086a578181015183820152602001610852565b50505050905090810190601f1680156108975780820380516001836020036101000a031916815260200191505b5092505050602060405180830381600087803b1580156108b657600080fd5b505af11580156108ca573d6000803e3d6000fd5b505050506040513d60208110156108e057600080fd5b505192915050565b60006108f261170e565b600160a060020a03166332f0a3b56040518163ffffffff1660e060020a028152600401602060405180830381600087803b15801561092f57600080fd5b505af1158015610943573d6000803e3d6000fd5b505050506040513d602081101561095957600080fd5b505190505b90565b60408051607060020a714d4f444946595f51554f52554d5f524f4c45028152905190819003601201902081565b60035460408051808201909152600e815260008051602061339283398151915260208201526000918491908210610a465760405160e560020a62461bcd0281526004018080602001828103825283818151815260200191508051906020019080838360005b83811015610a0b5781810151838201526020016109f3565b50505050905090810190601f168015610a385780820380516001836020036101000a031916815260200191505b509250505060405180910390fd5b506000848152600260209081526040808320600160a060020a038716845260060190915290205460ff1691505b5092915050565b6000806000806000806000806000606060008b60035481106040805190810160405280600e8152602001600080516020613392833981519152815250901515610b085760405160e560020a62461bcd02815260040180806020018281038252838181518152602001915080519060200190808383600083811015610a0b5781810151838201526020016109f3565b5060008d81526002602052604090209150610b2282611e62565b9b508160000160009054906101000a900460ff169a508160000160019054906101000a90046001604060020a031699508160000160099054906101000a90046001604060020a031698508160000160119054906101000a90046001604060020a031697508160010160009054906101000a90046001604060020a03169650816002015495508160030154945081600401549350816005018054600181600116156101000203166002900480601f016020809104026020016040519081016040528092919081815260200182805460018160011615610100020316600290048015610c4d5780601f10610c2257610100808354040283529160200191610c4d565b820191906000526020600020905b815481529060010190602001808311610c3057829003601f168201915b5050505050925050509193959799509193959799565b60408051607060020a714d4f444946595f51554f52554d5f524f4c450281529051908190036012019020600154610ca6906001604060020a038085169116611ec1565b610cb133838361138a565b60408051808201909152600f8152608a60020a6e10541417d055551217d19052531151026020820152901515610d2c5760405160e560020a62461bcd02815260040180806020018281038252838181518152602001915080519060200190808383600083811015610a0b5781810151838201526020016109f3565b5060005460408051808201909152601981527f564f54494e475f4348414e47455f51554f52554d5f50435453000000000000006020820152906001604060020a0360a060020a90910481169085161115610dcb5760405160e560020a62461bcd02815260040180806020018281038252838181518152602001915080519060200190808383600083811015610a0b5781810151838201526020016109f3565b50600180546001604060020a03851667ffffffffffffffff19909116811790915560408051918252517f3172f2e9273c729c2a47cc8bf7e7f18506e3e3035126d562602bd2155bc78a509181900360200190a1505050565b60408051606860020a724d4f444946595f535550504f52545f524f4c45028152905190819003601301902081565b60408051606860020a724d4f444946595f535550504f52545f524f4c450281529051908190036013019020600054610e9c906001604060020a038085169160a060020a900416611ec1565b610ea733838361138a565b60408051808201909152600f8152608a60020a6e10541417d055551217d19052531151026020820152901515610f225760405160e560020a62461bcd02815260040180806020018281038252838181518152602001915080519060200190808383600083811015610a0b5781810151838201526020016109f3565b5060015460408051808201909152601a81527f564f54494e475f4348414e47455f535550504f52545f504354530000000000006020820152906001604060020a0380861691161115610fb95760405160e560020a62461bcd02815260040180806020018281038252838181518152602001915080519060200190808383600083811015610a0b5781810151838201526020016109f3565b5060408051808201909152601a81527f564f54494e475f4348414e47455f535550505f544f4f5f4249470000000000006020820152670de0b6b3a76400006001604060020a038516106110515760405160e560020a62461bcd02815260040180806020018281038252838181518152602001915080519060200190808383600083811015610a0b5781810151838201526020016109f3565b50600080546001604060020a03851660a060020a810260a060020a60e060020a03199092169190911790915560408051918252517f903b617f7f36eb047a29b89d1bf7885fdae31d250c3320fccf11d045c11b396e9181900360200190a1505050565b50600190565b60006110e57fd625496217aa6a3453eecb9c3489dc5a53e6c67b444329ea2b2cbc9ff547639b611f1c565b905090565b60006110e56000805160206133b2833981519152611f1c565b6000806000611111846110b4565b6040805180820190915260128152607260020a71149150d3d5915497d11254d0531313d5d15102602082015290151561118f5760405160e560020a62461bcd02815260040180806020018281038252838181518152602001915080519060200190808383600083811015610a0b5781810151838201526020016109f3565b506111986108e8565b92506111a383611f24565b60408051808201909152601a81527f5245434f5645525f5641554c545f4e4f545f434f4e545241435400000000000060208201529015156112295760405160e560020a62461bcd02815260040180806020018281038252838181518152602001915080519060200190808383600083811015610a0b5781810151838201526020016109f3565b50600160a060020a038416151561127a5760405130319250600160a060020a0384169083156108fc029084906000818181858888f19350505050158015611274573d6000803e3d6000fd5b50611339565b5082611295600160a060020a0382163063ffffffff611f4a16565b91506112b1600160a060020a038216848463ffffffff61203416565b60408051808201909152601d81527f5245434f5645525f544f4b454e5f5452414e534645525f4641494c454400000060208201529015156113375760405160e560020a62461bcd02815260040180806020018281038252838181518152602001915080519060200190808383600083811015610a0b5781810151838201526020016109f3565b505b83600160a060020a031683600160a060020a03167f596caf56044b55fb8c4ca640089bbc2b63cae3e978b851f5745cbb7c5b288e02846040518082815260200191505060405180910390a350505050565b6000806113956107d8565b15156113a457600091506114d2565b6113ac61170e565b9050600160a060020a03811615156113c757600091506114d2565b80600160a060020a031663fdef91068630876113e288612094565b60405160e060020a63ffffffff8716028152600160a060020a03808616600483019081529085166024830152604482018490526080606483019081528351608484015283519192909160a490910190602085019080838360005b8381101561145457818101518382015260200161143c565b50505050905090810190601f1680156114815780820380516001836020036101000a031916815260200191505b5095505050505050602060405180830381600087803b1580156114a357600080fd5b505af11580156114b7573d6000803e3d6000fd5b505050506040513d60208110156114cd57600080fd5b505191505b509392505050565b6000806114e561170e565b6040805160e360020a6317c0177b0281527fd6f028ca0e8edb4a8c9757ca4fdccab25fa1e0317da1188108f7d2dee14902fb60048201527fddbcfd564f642ab5627cf68b9b7d374fb4f8a36e941a75d89c87998cef03bd6160248201529051600160a060020a03929092169163be00bbd8916044808201926020929091908290030181600087803b1580156108b657600080fd5b600154604060020a90046001604060020a031681565b604080516000805160206133d28339815191528152905190819003601101902081565b60006115e98360405180806000805160206133d2833981519152815250601101905060405180910390206115e461209e565b61138a565b9392505050565b60035460408051808201909152600e81526000805160206133928339815191526020820152600091839190821061166c5760405160e560020a62461bcd02815260040180806020018281038252838181518152602001915080519060200190808383600083811015610a0b5781810151838201526020016109f3565b50611676836120b0565b91505b50919050565b60035460408051808201909152600e8152600080516020613392833981519152602082015260009184919082106116fb5760405160e560020a62461bcd02815260040180806020018281038252838181518152602001915080519060200190808383600083811015610a0b5781810151838201526020016109f3565b5061170684846121aa565b949350505050565b60006110e57f4172f0f7d2289153072b0a6ca36959e0cbe2efc3afe50fc81636caa96338137b611f1c565b604080516000805160206133d283398151915281528151908190036011018120600080835260208301909352906117769033908390855b5061138a565b60408051808201909152600f8152608a60020a6e10541417d055551217d190525311510260208201529015156117f15760405160e560020a62461bcd02815260040180806020018281038252838181518152602001915080519060200190808383600083811015610a0b5781810151838201526020016109f3565b5061185e86868080601f0160208091040260200160405190810160405280939291908181526020018383808284375050604080516020601f8c018190048102820181019092528a815294508a93508992508291508401838280828437820191505050505050600180612267565b9695505050505050565b61187233826115b2565b60408051808201909152601681527f564f54494e475f43414e5f4e4f545f464f52574152440000000000000000000060208201529015156118f85760405160e560020a62461bcd02815260040180806020018281038252838181518152602001915080519060200190808383600083811015610a0b5781810151838201526020016109f3565b50611916816020604051908101604052806000815250600180612267565b5050565b6001546001604060020a031681565b60006000196119366110ea565b14905090565b60035481565b60035460408051808201909152600e81526000805160206133928339815191526020820152849182106119ba5760405160e560020a62461bcd02815260040180806020018281038252838181518152602001915080519060200190808383600083811015610a0b5781810151838201526020016109f3565b506119c584336121aa565b6040805180820190915260138152606860020a72564f54494e475f43414e5f4e4f545f564f5445026020820152901515611a445760405160e560020a62461bcd02815260040180806020018281038252838181518152602001915080519060200190808383600083811015610a0b5781810151838201526020016109f3565b50611a5184843385612522565b50505050565b611a5f6110ea565b60408051808201909152601881526000805160206133f283398151915260208201529015611ad25760405160e560020a62461bcd02815260040180806020018281038252838181518152602001915080519060200190808383600083811015610a0b5781810151838201526020016109f3565b50611adb612741565b6040805180820190915260108152608060020a6f564f54494e475f494e49545f504354530260208201526001604060020a038085169084161115611b645760405160e560020a62461bcd02815260040180806020018281038252838181518152602001915080519060200190808383600083811015610a0b5781810151838201526020016109f3565b5060408051808201909152601b81527f564f54494e475f494e49545f535550504f52545f544f4f5f42494700000000006020820152670de0b6b3a76400006001604060020a03851610611bfc5760405160e560020a62461bcd02815260040180806020018281038252838181518152602001915080519060200190808383600083811015610a0b5781810151838201526020016109f3565b5060008054600160a060020a031916600160a060020a03959095169490941760a060020a60e060020a03191660a060020a6001604060020a0394851602179093556001805467ffffffffffffffff1916918316919091176fffffffffffffffff00000000000000001916604060020a9390921692909202179055565b604080516000805160206133d28339815191528152815190819003601101812060008083526020830190935290611cb3903390839085611770565b60408051808201909152600f8152608a60020a6e10541417d055551217d19052531151026020820152901515611d2e5760405160e560020a62461bcd02815260040180806020018281038252838181518152602001915080519060200190808383600083811015610a0b5781810151838201526020016109f3565b50611d9a88888080601f0160208091040260200160405190810160405280939291908181526020018383808284375050604080516020601f8e018190048102820181019092528c815294508c93508b925082915084018382808284378201915050505050508686612267565b98975050505050505050565b60035460408051808201909152600e8152600080516020613392833981519152602082015282918210611e1e5760405160e560020a62461bcd02815260040180806020018281038252838181518152602001915080519060200190808383600083811015610a0b5781810151838201526020016109f3565b50611916826127e5565b60005460a060020a90046001604060020a031681565b600054600160a060020a031681565b670de0b6b3a764000081565b600190565b4390565b6001548154600091611e929161010090046001604060020a0390811691604060020a90041663ffffffff61288116565b6001604060020a0316611ea3612914565b6001604060020a0316108015611ebb5750815460ff16155b92915050565b604080516002808252606080830184529260208301908038833901905050905082816000815181101515611ef157fe5b602090810290910101528051829082906001908110611f0c57fe5b6020908102909101015292915050565b5490565b5490565b600080600160a060020a0383161515611f405760009150611679565b50506000903b1190565b60408051600160a060020a038316602480830191909152825180830390910181526044909101909152602081018051600160e060020a031660e060020a6370a08231021790526000908180611f9f8684612926565b60408051808201909152601c81527f534146455f4552435f32305f42414c414e43455f5245564552544544000000006020820152919350915082151561202a5760405160e560020a62461bcd02815260040180806020018281038252838181518152602001915080519060200190808383600083811015610a0b5781810151838201526020016109f3565b5095945050505050565b60408051600160a060020a03841660248201526044808201849052825180830390910181526064909101909152602081018051600160e060020a031660e060020a63a9059cbb0217905260009061208b8582612957565b95945050505050565b8051602002815290565b60408051600081526020810190915290565b60008181526002602052604081208054829060ff16156120d357600092506121a3565b6002820154600483015483546120fa929190608860020a90046001604060020a03166129a5565b1561210857600192506121a3565b61211182611e62565b1561211f57600092506121a3565b600382015460028301546121389163ffffffff6129e716565b6002830154835491925061215d918390608860020a90046001604060020a03166129a5565b151561216c57600092506121a3565b60028201546004830154600184015461218f9291906001604060020a03166129a5565b151561219e57600092506121a3565b600192505b5050919050565b60008281526002602052604081206121c181611e62565b801561170657506000805482546040805160e160020a63277166bf028152600160a060020a038881166004830152604860020a9093046001604060020a0316602482015290519190921691634ee2cd7e91604480830192602092919082900301818787803b15801561223257600080fd5b505af1158015612246573d6000803e3d6000fd5b505050506040513d602081101561225c57600080fd5b505111949350505050565b6000806000806001612277612a6c565b600080546040805160e460020a630981b24d028152949093036001604060020a03811660048601529251929650600160a060020a03169263981b24d09260248083019360209383900390910190829087803b1580156122d557600080fd5b505af11580156122e9573d6000803e3d6000fd5b505050506040513d60208110156122ff57600080fd5b505160408051808201909152601681527f564f54494e475f4e4f5f564f54494e475f504f5745520000000000000000000060208201529092506000831161238b5760405160e560020a62461bcd02815260040180806020018281038252838181518152602001915080519060200190808383600083811015610a0b5781810151838201526020016109f3565b5050600380546001810190915560008181526002602052604090209093506123b1612914565b815468ffffffffffffffff0019166101006001604060020a03928316021770ffffffffffffffff0000000000000000001916604860020a8583160217808355600054608860020a60c860020a031990911660a060020a9091048216608860020a021782556001805490830180549190921667ffffffffffffffff1990911617905560048101829055875161244e90600583019060208b0190613303565b5033600160a060020a0316847f4d72fe0577a3a3f7da968d7b892779dde102519c25527b29cf7054f245c791b9896040518080602001828103825283818151815260200191508051906020019080838360005b838110156124b95781810151838201526020016124a1565b50505050905090810190601f1680156124e65780820380516001836020036101000a031916815260200191505b509250505060405180910390a3858015612505575061250584336121aa565b15612517576125178460013388612522565b505050949350505050565b600084815260026020908152604080832083548154835160e160020a63277166bf028152600160a060020a038981166004830152604860020a9092046001604060020a03166024820152935192959485949190921692634ee2cd7e9260448084019391929182900301818787803b15801561259c57600080fd5b505af11580156125b0573d6000803e3d6000fd5b505050506040513d60208110156125c657600080fd5b5051600160a060020a038616600090815260068501602052604090205490925060ff16905060018160028111156125f957fe5b141561261e576002830154612614908363ffffffff612a7916565b600284015561264d565b600281600281111561262c57fe5b141561264d576003830154612647908363ffffffff612a7916565b60038401555b8515612672576002830154612668908363ffffffff6129e716565b600284015561268d565b6003830154612687908363ffffffff6129e716565b60038401555b8561269957600261269c565b60015b600160a060020a03861660009081526006850160205260409020805460ff191660018360028111156126ca57fe5b0217905550604080518715158152602081018490528151600160a060020a038816928a927fb34ee265e3d4f5ec4e8b52d59b2a9be8fceca2f274ebc080d8fba797fea9391f929081900390910190a383801561272a575061272a876120b0565b156127385761273887612b05565b50505050505050565b6127496110ea565b60408051808201909152601881526000805160206133f2833981519152602082015290156127bc5760405160e560020a62461bcd02815260040180806020018281038252838181518152602001915080519060200190808383600083811015610a0b5781810151838201526020016109f3565b506127e36127c8611e5e565b6000805160206133b28339815191529063ffffffff612c0116565b565b6127ee816120b0565b60408051808201909152601681527f564f54494e475f43414e5f4e4f545f455845435554450000000000000000000060208201529015156128745760405160e560020a62461bcd02815260040180806020018281038252838181518152602001915080519060200190808383600083811015610a0b5781810151838201526020016109f3565b5061287e81612b05565b50565b6040805180820190915260138152606860020a724d41544836345f4144445f4f564552464c4f57026020820152600090838301906001604060020a0380861690831610156114d25760405160e560020a62461bcd02815260040180806020018281038252838181518152602001915080519060200190808383600083811015610a0b5781810151838201526020016109f3565b60006110e5612921612c05565b612c09565b6000806000806040516020818751602089018a5afa9250600083111561294b57805191505b50909590945092505050565b6000806040516020818551602087016000895af1600081111561299b573d8015612988576020811461299157612999565b60019350612999565b600183511493505b505b5090949350505050565b6000808315156129b857600091506114d2565b836129d186670de0b6b3a764000063ffffffff612c9c16565b8115156129da57fe5b0492909211949350505050565b6040805180820190915260118152607860020a704d4154485f4144445f4f564552464c4f5702602082015260009083830190848210156114d25760405160e560020a62461bcd02815260040180806020018281038252838181518152602001915080519060200190808383600083811015610a0b5781810151838201526020016109f3565b60006110e5612921611e5e565b6040805180820190915260128152607060020a714d4154485f5355425f554e444552464c4f57026020820152600090819084841115612afd5760405160e560020a62461bcd02815260040180806020018281038252838181518152602001915080519060200190808383600083811015610a0b5781810151838201526020016109f3565b505050900390565b6000818152600260208181526040808420805460ff191660019081178255825195865260058201805491821615610100026000190190911694909404601f81018490048402860183018352928501838152909493612bd0939192909190850182828015612bb35780601f10612b8857610100808354040283529160200191612bb3565b820191906000526020600020905b815481529060010190602001808311612b9657829003601f168201915b50506040805160008152602081019091528693509150612d3e9050565b5060405183907fbf8e2b108bb7c980e08903a8a46527699d5e84905a082d56dacb4150725c8cab90600090a2505050565b9055565b4290565b6040805180820190915260158152605860020a7455494e5436345f4e554d4245525f544f4f5f4249470260208201526000906001604060020a03831115612c955760405160e560020a62461bcd02815260040180806020018281038252838181518152602001915080519060200190808383600083811015610a0b5781810151838201526020016109f3565b5090919050565b600080831515612caf5760009150610a73565b50828202828482811515612cbf57fe5b6040805180820190915260118152607860020a704d4154485f4d554c5f4f564552464c4f5702602082015292919004146114d25760405160e560020a62461bcd02815260040180806020018281038252838181518152602001915080519060200190808383600083811015610a0b5781810151838201526020016109f3565b6060600080606080612d4e6107d8565b6040805180820190915260148152606260020a731253925517d393d517d253925512505312569151026020820152901515612dce5760405160e560020a62461bcd02815260040180806020018281038252838181518152602001915080519060200190808383600083811015610a0b5781810151838201526020016109f3565b50600080612dda61170e565b9150612de46110ba565b9050612def8a610802565b60408051808201909152601b81527f45564d52554e5f4558454355544f525f554e415641494c41424c4500000000006020820152909650600160a060020a0387161515612e815760405160e560020a62461bcd02815260040180806020018281038252838181518152602001915080519060200190808383600083811015610a0b5781810151838201526020016109f3565b506040516060602482019081528b5160848301528b5160e060020a63279cea3502975087928d928d928d9282916044820191606481019160a490910190602089019080838360005b83811015612ee1578181015183820152602001612ec9565b50505050905090810190601f168015612f0e5780820380516001836020036101000a031916815260200191505b50848103835286518152865160209182019188019080838360005b83811015612f41578181015183820152602001612f29565b50505050905090810190601f168015612f6e5780820380516001836020036101000a031916815260200191505b508481038252855181528551602091820191808801910280838360005b83811015612fa3578181015183820152602001612f8b565b50505050905001965050505050505060405160208183030381529060405290600160e060020a031916602082018051600160e060020a0383818316178352505050509350600080855160208701895af4604051935080801561306757603f3d11801561301c5760203d03806020883e8601604052613061565b60e560020a62461bcd02865260206004870152601e60248701527f45564d52554e5f4558454355544f525f494e56414c49445f52455455524e00006044870152606486fd5b50613070565b3d6000863e3d85fd5b505085600160a060020a03167f5229a5dba83a54ae8cb5b51bdd6de9474cacbe9dd332f5185f3a4f4f2e3f4ad98b8b8660405180806020018060200180602001848103845287818151815260200191508051906020019080838360005b838110156130e55781810151838201526020016130cd565b50505050905090810190601f1680156131125780820380516001836020036101000a031916815260200191505b50848103835286518152865160209182019188019080838360005b8381101561314557818101518382015260200161312d565b50505050905090810190601f1680156131725780820380516001836020036101000a031916815260200191505b50848103825285518152855160209182019187019080838360005b838110156131a557818101518382015260200161318d565b50505050905090810190601f1680156131d25780820380516001836020036101000a031916815260200191505b50965050505050505060405180910390a282965081600160a060020a03166131f861170e565b600160a060020a0316146040805190810160405280601f81526020016000805160206134128339815191528152509015156132785760405160e560020a62461bcd02815260040180806020018281038252838181518152602001915080519060200190808383600083811015610a0b5781810151838201526020016109f3565b50806132826110ba565b60408051808201909152601f8152600080516020613412833981519152602082015291146132f55760405160e560020a62461bcd02815260040180806020018281038252838181518152602001915080519060200190808383600083811015610a0b5781810151838201526020016109f3565b505050505050509392505050565b828054600181600116156101000203166002900490600052602060002090601f016020900481019282601f1061334457805160ff1916838001178555613371565b82800160010185558215613371579182015b82811115613371578251825591602001919060010190613356565b506107fe9261095e9250905b808211156107fe576000815560010161337d5600564f54494e475f4e4f5f564f5445000000000000000000000000000000000000ebb05b386a8d34882b8711d156f463690983dc47815980fb82aeeff1aa43579e4352454154455f564f5445535f524f4c45000000000000000000000000000000494e49545f414c52454144595f494e495449414c495a4544000000000000000045564d52554e5f50524f5445435445445f53544154455f4d4f44494649454400a165627a7a723058200dce71267e965eba12f268bb26ce7c5e6e39e8e6b8099f8aa06bbe1b367ce8a00029ebb05b386a8d34882b8711d156f463690983dc47815980fb82aeeff1aa43579e",
  "source": "/*\n * SPDX-License-Identitifer:    GPL-3.0-or-later\n */\n\npragma solidity 0.4.24;\n\nimport \"@aragon/os/contracts/apps/AragonApp.sol\";\nimport \"@aragon/os/contracts/common/IForwarder.sol\";\n\nimport \"@aragon/os/contracts/lib/math/SafeMath.sol\";\nimport \"@aragon/os/contracts/lib/math/SafeMath64.sol\";\n\nimport \"@aragon/apps-shared-minime/contracts/MiniMeToken.sol\";\n\n\ncontract Voting is IForwarder, AragonApp {\n    using SafeMath for uint256;\n    using SafeMath64 for uint64;\n\n    bytes32 public constant CREATE_VOTES_ROLE = keccak256(\"CREATE_VOTES_ROLE\");\n    bytes32 public constant MODIFY_SUPPORT_ROLE = keccak256(\"MODIFY_SUPPORT_ROLE\");\n    bytes32 public constant MODIFY_QUORUM_ROLE = keccak256(\"MODIFY_QUORUM_ROLE\");\n\n    uint64 public constant PCT_BASE = 10 ** 18; // 0% = 0; 1% = 10^16; 100% = 10^18\n\n    string private constant ERROR_NO_VOTE = \"VOTING_NO_VOTE\";\n    string private constant ERROR_INIT_PCTS = \"VOTING_INIT_PCTS\";\n    string private constant ERROR_CHANGE_SUPPORT_PCTS = \"VOTING_CHANGE_SUPPORT_PCTS\";\n    string private constant ERROR_CHANGE_QUORUM_PCTS = \"VOTING_CHANGE_QUORUM_PCTS\";\n    string private constant ERROR_INIT_SUPPORT_TOO_BIG = \"VOTING_INIT_SUPPORT_TOO_BIG\";\n    string private constant ERROR_CHANGE_SUPPORT_TOO_BIG = \"VOTING_CHANGE_SUPP_TOO_BIG\";\n    string private constant ERROR_CAN_NOT_VOTE = \"VOTING_CAN_NOT_VOTE\";\n    string private constant ERROR_CAN_NOT_EXECUTE = \"VOTING_CAN_NOT_EXECUTE\";\n    string private constant ERROR_CAN_NOT_FORWARD = \"VOTING_CAN_NOT_FORWARD\";\n    string private constant ERROR_NO_VOTING_POWER = \"VOTING_NO_VOTING_POWER\";\n\n    enum VoterState { Absent, Yea, Nay }\n\n    struct Vote {\n        bool executed;\n        uint64 startDate;\n        uint64 snapshotBlock;\n        uint64 supportRequiredPct;\n        uint64 minAcceptQuorumPct;\n        uint256 yea;\n        uint256 nay;\n        uint256 votingPower;\n        bytes executionScript;\n        mapping (address => VoterState) voters;\n    }\n\n    MiniMeToken public token;\n    uint64 public supportRequiredPct;\n    uint64 public minAcceptQuorumPct;\n    uint64 public voteTime;\n\n    // We are mimicing an array, we use a mapping instead to make app upgrade more graceful\n    mapping (uint256 => Vote) internal votes;\n    uint256 public votesLength;\n\n    event StartVote(uint256 indexed voteId, address indexed creator, string metadata);\n    event CastVote(uint256 indexed voteId, address indexed voter, bool supports, uint256 stake);\n    event ExecuteVote(uint256 indexed voteId);\n    event ChangeSupportRequired(uint64 supportRequiredPct);\n    event ChangeMinQuorum(uint64 minAcceptQuorumPct);\n\n    modifier voteExists(uint256 _voteId) {\n        require(_voteId < votesLength, ERROR_NO_VOTE);\n        _;\n    }\n\n    /**\n    * @notice Initialize Voting app with `_token.symbol(): string` for governance, minimum support of `@formatPct(_supportRequiredPct)`%, minimum acceptance quorum of `@formatPct(_minAcceptQuorumPct)`%, and a voting duration of `@transformTime(_voteTime)`\n    * @param _token MiniMeToken Address that will be used as governance token\n    * @param _supportRequiredPct Percentage of yeas in casted votes for a vote to succeed (expressed as a percentage of 10^18; eg. 10^16 = 1%, 10^18 = 100%)\n    * @param _minAcceptQuorumPct Percentage of yeas in total possible votes for a vote to succeed (expressed as a percentage of 10^18; eg. 10^16 = 1%, 10^18 = 100%)\n    * @param _voteTime Seconds that a vote will be open for token holders to vote (unless enough yeas or nays have been cast to make an early decision)\n    */\n    function initialize(\n        MiniMeToken _token,\n        uint64 _supportRequiredPct,\n        uint64 _minAcceptQuorumPct,\n        uint64 _voteTime\n    )\n        external\n        onlyInit\n    {\n        initialized();\n\n        require(_minAcceptQuorumPct <= _supportRequiredPct, ERROR_INIT_PCTS);\n        require(_supportRequiredPct < PCT_BASE, ERROR_INIT_SUPPORT_TOO_BIG);\n\n        token = _token;\n        supportRequiredPct = _supportRequiredPct;\n        minAcceptQuorumPct = _minAcceptQuorumPct;\n        voteTime = _voteTime;\n    }\n\n    /**\n    * @notice Change required support to `@formatPct(_supportRequiredPct)`%\n    * @param _supportRequiredPct New required support\n    */\n    function changeSupportRequiredPct(uint64 _supportRequiredPct)\n        external\n        authP(MODIFY_SUPPORT_ROLE, arr(uint256(_supportRequiredPct), uint256(supportRequiredPct)))\n    {\n        require(minAcceptQuorumPct <= _supportRequiredPct, ERROR_CHANGE_SUPPORT_PCTS);\n        require(_supportRequiredPct < PCT_BASE, ERROR_CHANGE_SUPPORT_TOO_BIG);\n        supportRequiredPct = _supportRequiredPct;\n\n        emit ChangeSupportRequired(_supportRequiredPct);\n    }\n\n    /**\n    * @notice Change minimum acceptance quorum to `@formatPct(_minAcceptQuorumPct)`%\n    * @param _minAcceptQuorumPct New acceptance quorum\n    */\n    function changeMinAcceptQuorumPct(uint64 _minAcceptQuorumPct)\n        external\n        authP(MODIFY_QUORUM_ROLE, arr(uint256(_minAcceptQuorumPct), uint256(minAcceptQuorumPct)))\n    {\n        require(_minAcceptQuorumPct <= supportRequiredPct, ERROR_CHANGE_QUORUM_PCTS);\n        minAcceptQuorumPct = _minAcceptQuorumPct;\n\n        emit ChangeMinQuorum(_minAcceptQuorumPct);\n    }\n\n    /**\n    * @notice Create a new vote about \"`_metadata`\"\n    * @param _executionScript EVM script to be executed on approval\n    * @param _metadata Vote metadata\n    * @return voteId Id for newly created vote\n    */\n    function newVote(bytes _executionScript, string _metadata) external auth(CREATE_VOTES_ROLE) returns (uint256 voteId) {\n        return _newVote(_executionScript, _metadata, true, true);\n    }\n\n    /**\n    * @notice Create a new vote about \"`_metadata`\"\n    * @param _executionScript EVM script to be executed on approval\n    * @param _metadata Vote metadata\n    * @param _castVote Whether to also cast newly created vote\n    * @param _executesIfDecided Whether to also immediately execute newly created vote if decided\n    * @return voteId id for newly created vote\n    */\n    function newVote(bytes _executionScript, string _metadata, bool _castVote, bool _executesIfDecided)\n        external\n        auth(CREATE_VOTES_ROLE)\n        returns (uint256 voteId)\n    {\n        return _newVote(_executionScript, _metadata, _castVote, _executesIfDecided);\n    }\n\n    /**\n    * @notice Vote `_supports ? 'yes' : 'no'` in vote #`_voteId`\n    * @dev Initialization check is implicitly provided by `voteExists()` as new votes can only be\n    *      created via `newVote(),` which requires initialization\n    * @param _voteId Id for vote\n    * @param _supports Whether voter supports the vote\n    * @param _executesIfDecided Whether the vote should execute its action if it becomes decided\n    */\n    function vote(uint256 _voteId, bool _supports, bool _executesIfDecided) external voteExists(_voteId) {\n        require(_canVote(_voteId, msg.sender), ERROR_CAN_NOT_VOTE);\n        _vote(_voteId, _supports, msg.sender, _executesIfDecided);\n    }\n\n    /**\n    * @notice Execute vote #`_voteId`\n    * @dev Initialization check is implicitly provided by `voteExists()` as new votes can only be\n    *      created via `newVote(),` which requires initialization\n    * @param _voteId Id for vote\n    */\n    function executeVote(uint256 _voteId) external voteExists(_voteId) {\n        _executeVote(_voteId);\n    }\n\n    // Forwarding fns\n\n    function isForwarder() external pure returns (bool) {\n        return true;\n    }\n\n    /**\n    * @notice Creates a vote to execute the desired action, and casts a support vote if possible\n    * @dev IForwarder interface conformance\n    * @param _evmScript Start vote with script\n    */\n    function forward(bytes _evmScript) public {\n        require(canForward(msg.sender, _evmScript), ERROR_CAN_NOT_FORWARD);\n        _newVote(_evmScript, \"\", true, true);\n    }\n\n    function canForward(address _sender, bytes) public view returns (bool) {\n        // Note that `canPerform()` implicitly does an initialization check itself\n        return canPerform(_sender, CREATE_VOTES_ROLE, arr());\n    }\n\n    // Getter fns\n\n    /**\n    * @dev Initialization check is implicitly provided by `voteExists()` as new votes can only be\n    *      created via `newVote(),` which requires initialization\n    */\n    function canExecute(uint256 _voteId) public view voteExists(_voteId) returns (bool) {\n        return _canExecute(_voteId);\n    }\n\n    /**\n    * @dev Initialization check is implicitly provided by `voteExists()` as new votes can only be\n    *      created via `newVote(),` which requires initialization\n    */\n    function canVote(uint256 _voteId, address _voter) public view voteExists(_voteId) returns (bool) {\n        return _canVote(_voteId, _voter);\n    }\n\n    function getVote(uint256 _voteId)\n        public\n        view\n        voteExists(_voteId)\n        returns (\n            bool open,\n            bool executed,\n            uint64 startDate,\n            uint64 snapshotBlock,\n            uint64 supportRequired,\n            uint64 minAcceptQuorum,\n            uint256 yea,\n            uint256 nay,\n            uint256 votingPower,\n            bytes script\n        )\n    {\n        Vote storage vote_ = votes[_voteId];\n\n        open = _isVoteOpen(vote_);\n        executed = vote_.executed;\n        startDate = vote_.startDate;\n        snapshotBlock = vote_.snapshotBlock;\n        supportRequired = vote_.supportRequiredPct;\n        minAcceptQuorum = vote_.minAcceptQuorumPct;\n        yea = vote_.yea;\n        nay = vote_.nay;\n        votingPower = vote_.votingPower;\n        script = vote_.executionScript;\n    }\n\n    function getVoterState(uint256 _voteId, address _voter) public view voteExists(_voteId) returns (VoterState) {\n        return votes[_voteId].voters[_voter];\n    }\n\n    // Internal fns\n\n    function _newVote(bytes _executionScript, string _metadata, bool _castVote, bool _executesIfDecided)\n        internal\n        returns (uint256 voteId)\n    {\n        uint64 snapshotBlock = getBlockNumber64() - 1; // avoid double voting in this very block\n        uint256 votingPower = token.totalSupplyAt(snapshotBlock);\n        require(votingPower > 0, ERROR_NO_VOTING_POWER);\n\n        voteId = votesLength++;\n\n        Vote storage vote_ = votes[voteId];\n        vote_.startDate = getTimestamp64();\n        vote_.snapshotBlock = snapshotBlock;\n        vote_.supportRequiredPct = supportRequiredPct;\n        vote_.minAcceptQuorumPct = minAcceptQuorumPct;\n        vote_.votingPower = votingPower;\n        vote_.executionScript = _executionScript;\n\n        emit StartVote(voteId, msg.sender, _metadata);\n\n        if (_castVote && _canVote(voteId, msg.sender)) {\n            _vote(voteId, true, msg.sender, _executesIfDecided);\n        }\n    }\n\n    function _vote(\n        uint256 _voteId,\n        bool _supports,\n        address _voter,\n        bool _executesIfDecided\n    ) internal\n    {\n        Vote storage vote_ = votes[_voteId];\n\n        // This could re-enter, though we can assume the governance token is not malicious\n        uint256 voterStake = token.balanceOfAt(_voter, vote_.snapshotBlock);\n        VoterState state = vote_.voters[_voter];\n\n        // If voter had previously voted, decrease count\n        if (state == VoterState.Yea) {\n            vote_.yea = vote_.yea.sub(voterStake);\n        } else if (state == VoterState.Nay) {\n            vote_.nay = vote_.nay.sub(voterStake);\n        }\n\n        if (_supports) {\n            vote_.yea = vote_.yea.add(voterStake);\n        } else {\n            vote_.nay = vote_.nay.add(voterStake);\n        }\n\n        vote_.voters[_voter] = _supports ? VoterState.Yea : VoterState.Nay;\n\n        emit CastVote(_voteId, _voter, _supports, voterStake);\n\n        if (_executesIfDecided && _canExecute(_voteId)) {\n            // We've already checked if the vote can be executed with `_canExecute()`\n            _unsafeExecuteVote(_voteId);\n        }\n    }\n\n    function _executeVote(uint256 _voteId) internal {\n        require(_canExecute(_voteId), ERROR_CAN_NOT_EXECUTE);\n        _unsafeExecuteVote(_voteId);\n    }\n\n    /**\n    * @dev Unsafe version of _executeVote that assumes you have already checked if the vote can be executed\n    */\n    function _unsafeExecuteVote(uint256 _voteId) internal {\n        Vote storage vote_ = votes[_voteId];\n\n        vote_.executed = true;\n\n        bytes memory input = new bytes(0); // TODO: Consider input for voting scripts\n        runScript(vote_.executionScript, input, new address[](0));\n\n        emit ExecuteVote(_voteId);\n    }\n\n    function _canExecute(uint256 _voteId) internal view returns (bool) {\n        Vote storage vote_ = votes[_voteId];\n\n        if (vote_.executed) {\n            return false;\n        }\n\n        // Voting is already decided\n        if (_isValuePct(vote_.yea, vote_.votingPower, vote_.supportRequiredPct)) {\n            return true;\n        }\n\n        // Vote ended?\n        if (_isVoteOpen(vote_)) {\n            return false;\n        }\n        // Has enough support?\n        uint256 totalVotes = vote_.yea.add(vote_.nay);\n        if (!_isValuePct(vote_.yea, totalVotes, vote_.supportRequiredPct)) {\n            return false;\n        }\n        // Has min quorum?\n        if (!_isValuePct(vote_.yea, vote_.votingPower, vote_.minAcceptQuorumPct)) {\n            return false;\n        }\n\n        return true;\n    }\n\n    function _canVote(uint256 _voteId, address _voter) internal view returns (bool) {\n        Vote storage vote_ = votes[_voteId];\n\n        return _isVoteOpen(vote_) && token.balanceOfAt(_voter, vote_.snapshotBlock) > 0;\n    }\n\n    function _isVoteOpen(Vote storage vote_) internal view returns (bool) {\n        return getTimestamp64() < vote_.startDate.add(voteTime) && !vote_.executed;\n    }\n\n    /**\n    * @dev Calculates whether `_value` is more than a percentage `_pct` of `_total`\n    */\n    function _isValuePct(uint256 _value, uint256 _total, uint256 _pct) internal pure returns (bool) {\n        if (_total == 0) {\n            return false;\n        }\n\n        uint256 computedPct = _value.mul(PCT_BASE) / _total;\n        return computedPct > _pct;\n    }\n}\n",
  "sourcePath": "@aragon/apps-voting/contracts/Voting.sol",
  "compiler": {
    "name": "solc",
    "version": "0.4.24+commit.e67f0147.Emscripten.clang"
  },
  "schemaVersion": "3.4.2",
  "updatedAt": "2021-10-14T14:14:04.055Z",
  "devdoc": {
    "methods": {
      "allowRecoverability(address)": {
        "details": "By default deriving from AragonApp makes it recoverable",
        "params": {
          "token": "Token address that would be recovered"
        },
        "return": "bool whether the app allows the recovery"
      },
      "canExecute(uint256)": {
        "details": "Initialization check is implicitly provided by `voteExists()` as new votes can only be     created via `newVote(),` which requires initialization"
      },
      "canPerform(address,bytes32,uint256[])": {
        "details": "Check whether an action can be performed by a sender for a particular role on this app",
        "params": {
          "_params": "Permission params for the role",
          "_role": "Role on this app",
          "_sender": "Sender of the call"
        },
        "return": "Boolean indicating whether the sender has the permissions to perform the action.        Always returns false if the app hasn't been initialized yet."
      },
      "canVote(uint256,address)": {
        "details": "Initialization check is implicitly provided by `voteExists()` as new votes can only be     created via `newVote(),` which requires initialization"
      },
      "changeMinAcceptQuorumPct(uint64)": {
        "params": {
          "_minAcceptQuorumPct": "New acceptance quorum"
        }
      },
      "changeSupportRequiredPct(uint64)": {
        "params": {
          "_supportRequiredPct": "New required support"
        }
      },
      "executeVote(uint256)": {
        "details": "Initialization check is implicitly provided by `voteExists()` as new votes can only be     created via `newVote(),` which requires initialization",
        "params": {
          "_voteId": "Id for vote"
        }
      },
      "forward(bytes)": {
        "details": "IForwarder interface conformance",
        "params": {
          "_evmScript": "Start vote with script"
        }
      },
      "getInitializationBlock()": {
        "return": "Block number in which the contract was initialized"
      },
      "getRecoveryVault()": {
        "details": "Get the recovery vault for the app",
        "return": "Recovery vault address for the app"
      },
      "hasInitialized()": {
        "return": "Whether the contract has been initialized by the time of the current block"
      },
      "initialize(address,uint64,uint64,uint64)": {
        "params": {
          "_minAcceptQuorumPct": "Percentage of yeas in total possible votes for a vote to succeed (expressed as a percentage of 10^18; eg. 10^16 = 1%, 10^18 = 100%)",
          "_supportRequiredPct": "Percentage of yeas in casted votes for a vote to succeed (expressed as a percentage of 10^18; eg. 10^16 = 1%, 10^18 = 100%)",
          "_token": "MiniMeToken Address that will be used as governance token",
          "_voteTime": "Seconds that a vote will be open for token holders to vote (unless enough yeas or nays have been cast to make an early decision)"
        }
      },
      "newVote(bytes,string)": {
        "params": {
          "_executionScript": "EVM script to be executed on approval",
          "_metadata": "Vote metadata"
        },
        "return": "voteId Id for newly created vote"
      },
      "newVote(bytes,string,bool,bool)": {
        "params": {
          "_castVote": "Whether to also cast newly created vote",
          "_executesIfDecided": "Whether to also immediately execute newly created vote if decided",
          "_executionScript": "EVM script to be executed on approval",
          "_metadata": "Vote metadata"
        },
        "return": "voteId id for newly created vote"
      },
      "transferToVault(address)": {
        "params": {
          "_token": "Token balance to be sent to recovery vault."
        }
      },
      "vote(uint256,bool,bool)": {
        "details": "Initialization check is implicitly provided by `voteExists()` as new votes can only be     created via `newVote(),` which requires initialization",
        "params": {
          "_executesIfDecided": "Whether the vote should execute its action if it becomes decided",
          "_supports": "Whether voter supports the vote",
          "_voteId": "Id for vote"
        }
      }
    }
  },
  "userdoc": {
    "methods": {
      "changeMinAcceptQuorumPct(uint64)": {
        "notice": "Change minimum acceptance quorum to `@formatPct(_minAcceptQuorumPct)`%"
      },
      "changeSupportRequiredPct(uint64)": {
        "notice": "Change required support to `@formatPct(_supportRequiredPct)`%"
      },
      "executeVote(uint256)": {
        "notice": "Execute vote #`_voteId`"
      },
      "forward(bytes)": {
        "notice": "Creates a vote to execute the desired action, and casts a support vote if possible"
      },
      "initialize(address,uint64,uint64,uint64)": {
        "notice": "Initialize Voting app with `_token.symbol(): string` for governance, minimum support of `@formatPct(_supportRequiredPct)`%, minimum acceptance quorum of `@formatPct(_minAcceptQuorumPct)`%, and a voting duration of `@transformTime(_voteTime)`"
      },
      "newVote(bytes,string)": {
        "notice": "Create a new vote about \"`_metadata`\""
      },
      "newVote(bytes,string,bool,bool)": {
        "notice": "Create a new vote about \"`_metadata`\""
      },
      "transferToVault(address)": {
        "notice": "Send funds to recovery Vault. This contract should never receive funds,        but in case it does, this function allows one to recover them."
      },
      "vote(uint256,bool,bool)": {
        "notice": "Vote `_supports ? 'yes' : 'no'` in vote #`_voteId`"
      }
    }
  }
}