{
  "contractName": "WhitelistOracle",
  "abi": [
    {
      "constant": true,
      "inputs": [],
      "name": "hasInitialized",
      "outputs": [
        {
          "name": "",
          "type": "bool"
        }
      ],
      "payable": false,
      "stateMutability": "view",
      "type": "function"
    },
    {
      "constant": true,
      "inputs": [],
      "name": "REMOVE_SENDER_ROLE",
      "outputs": [
        {
          "name": "",
          "type": "bytes32"
        }
      ],
      "payable": false,
      "stateMutability": "view",
      "type": "function"
    },
    {
      "constant": true,
      "inputs": [
        {
          "name": "_script",
          "type": "bytes"
        }
      ],
      "name": "getEVMScriptExecutor",
      "outputs": [
        {
          "name": "",
          "type": "address"
        }
      ],
      "payable": false,
      "stateMutability": "view",
      "type": "function"
    },
    {
      "constant": true,
      "inputs": [],
      "name": "ADD_SENDER_ROLE",
      "outputs": [
        {
          "name": "",
          "type": "bytes32"
        }
      ],
      "payable": false,
      "stateMutability": "view",
      "type": "function"
    },
    {
      "constant": true,
      "inputs": [],
      "name": "getRecoveryVault",
      "outputs": [
        {
          "name": "",
          "type": "address"
        }
      ],
      "payable": false,
      "stateMutability": "view",
      "type": "function"
    },
    {
      "constant": true,
      "inputs": [
        {
          "name": "token",
          "type": "address"
        }
      ],
      "name": "allowRecoverability",
      "outputs": [
        {
          "name": "",
          "type": "bool"
        }
      ],
      "payable": false,
      "stateMutability": "view",
      "type": "function"
    },
    {
      "constant": true,
      "inputs": [],
      "name": "appId",
      "outputs": [
        {
          "name": "",
          "type": "bytes32"
        }
      ],
      "payable": false,
      "stateMutability": "view",
      "type": "function"
    },
    {
      "constant": true,
      "inputs": [],
      "name": "getInitializationBlock",
      "outputs": [
        {
          "name": "",
          "type": "uint256"
        }
      ],
      "payable": false,
      "stateMutability": "view",
      "type": "function"
    },
    {
      "constant": false,
      "inputs": [
        {
          "name": "_token",
          "type": "address"
        }
      ],
      "name": "transferToVault",
      "outputs": [],
      "payable": false,
      "stateMutability": "nonpayable",
      "type": "function"
    },
    {
      "constant": true,
      "inputs": [
        {
          "name": "_sender",
          "type": "address"
        },
        {
          "name": "_role",
          "type": "bytes32"
        },
        {
          "name": "_params",
          "type": "uint256[]"
        }
      ],
      "name": "canPerform",
      "outputs": [
        {
          "name": "",
          "type": "bool"
        }
      ],
      "payable": false,
      "stateMutability": "view",
      "type": "function"
    },
    {
      "constant": true,
      "inputs": [],
      "name": "getEVMScriptRegistry",
      "outputs": [
        {
          "name": "",
          "type": "address"
        }
      ],
      "payable": false,
      "stateMutability": "view",
      "type": "function"
    },
    {
      "constant": true,
      "inputs": [],
      "name": "kernel",
      "outputs": [
        {
          "name": "",
          "type": "address"
        }
      ],
      "payable": false,
      "stateMutability": "view",
      "type": "function"
    },
    {
      "constant": true,
      "inputs": [],
      "name": "isPetrified",
      "outputs": [
        {
          "name": "",
          "type": "bool"
        }
      ],
      "payable": false,
      "stateMutability": "view",
      "type": "function"
    },
    {
      "anonymous": false,
      "inputs": [
        {
          "indexed": false,
          "name": "_sender",
          "type": "address"
        }
      ],
      "name": "ValidSenderAdded",
      "type": "event"
    },
    {
      "anonymous": false,
      "inputs": [
        {
          "indexed": false,
          "name": "_sender",
          "type": "address"
        }
      ],
      "name": "ValidSenderRemoved",
      "type": "event"
    },
    {
      "anonymous": false,
      "inputs": [
        {
          "indexed": true,
          "name": "executor",
          "type": "address"
        },
        {
          "indexed": false,
          "name": "script",
          "type": "bytes"
        },
        {
          "indexed": false,
          "name": "input",
          "type": "bytes"
        },
        {
          "indexed": false,
          "name": "returnData",
          "type": "bytes"
        }
      ],
      "name": "ScriptResult",
      "type": "event"
    },
    {
      "anonymous": false,
      "inputs": [
        {
          "indexed": true,
          "name": "vault",
          "type": "address"
        },
        {
          "indexed": true,
          "name": "token",
          "type": "address"
        },
        {
          "indexed": false,
          "name": "amount",
          "type": "uint256"
        }
      ],
      "name": "RecoverToVault",
      "type": "event"
    },
    {
      "constant": false,
      "inputs": [
        {
          "name": "_senders",
          "type": "address[]"
        }
      ],
      "name": "initialize",
      "outputs": [],
      "payable": false,
      "stateMutability": "nonpayable",
      "type": "function"
    },
    {
      "constant": false,
      "inputs": [
        {
          "name": "_sender",
          "type": "address"
        }
      ],
      "name": "addSender",
      "outputs": [],
      "payable": false,
      "stateMutability": "nonpayable",
      "type": "function"
    },
    {
      "constant": false,
      "inputs": [
        {
          "name": "_sender",
          "type": "address"
        }
      ],
      "name": "removeSender",
      "outputs": [],
      "payable": false,
      "stateMutability": "nonpayable",
      "type": "function"
    },
    {
      "constant": false,
      "inputs": [
        {
          "name": "_from",
          "type": "address"
        },
        {
          "name": "",
          "type": "address"
        },
        {
          "name": "",
          "type": "uint256"
        }
      ],
      "name": "getTransferability",
      "outputs": [
        {
          "name": "",
          "type": "bool"
        }
      ],
      "payable": false,
      "stateMutability": "nonpayable",
      "type": "function"
    }
  ],
  "bytecode": "0x6080604052620000176401000000006200001d810204565b6200023b565b6200003064010000000062000125810204565b60408051808201909152601881527f494e49545f414c52454144595f494e495449414c495a45440000000000000000602082015290156200010c576040517f08c379a00000000000000000000000000000000000000000000000000000000081526004018080602001828103825283818151815260200191508051906020019080838360005b83811015620000d0578181015183820152602001620000b6565b50505050905090810190601f168015620000fe5780820380516001836020036101000a031916815260200191505b509250505060405180910390fd5b506200012360001964010000000062000154810204565b565b60006200014f6000805160206200144f83398151915264010000000062000ea86200023382021704565b905090565b6200016764010000000062000125810204565b60408051808201909152601881527f494e49545f414c52454144595f494e495449414c495a454400000000000000006020820152901562000206576040517f08c379a000000000000000000000000000000000000000000000000000000000815260040180806020018281038252838181518152602001915080519060200190808383600083811015620000d0578181015183820152602001620000b6565b50620002306000805160206200144f83398151915282640100000000620011546200023782021704565b50565b5490565b9055565b611204806200024b6000396000f3006080604052600436106100d75763ffffffff60e060020a6000350416630803fac081146100dc5780631b757b251461010557806322bfbd961461012c5780632914b9bd146101565780632919bca4146101cb57806332f0a3b5146101e05780637e7db6e1146101f557806380afdea8146102165780638b3dd7491461022b5780639d4941d814610240578063a1658fad14610263578063a224cee7146102ca578063a479e508146102ea578063b2f87643146102ff578063b697f53114610320578063d4aae0c414610341578063de4796ed14610356575b600080fd5b3480156100e857600080fd5b506100f161036b565b604080519115158252519081900360200190f35b34801561011157600080fd5b5061011a610394565b60408051918252519081900360200190f35b34801561013857600080fd5b506100f1600160a060020a03600435811690602435166044356103a6565b34801561016257600080fd5b506040805160206004803580820135601f81018490048402850184019095528484526101af9436949293602493928401919081908401838280828437509497506103c69650505050505050565b60408051600160a060020a039092168252519081900360200190f35b3480156101d757600080fd5b5061011a6104ac565b3480156101ec57600080fd5b506101af6104be565b34801561020157600080fd5b506100f1600160a060020a0360043516610536565b34801561022257600080fd5b5061011a61053c565b34801561023757600080fd5b5061011a61056c565b34801561024c57600080fd5b50610261600160a060020a0360043516610585565b005b34801561026f57600080fd5b5060408051602060046044358181013583810280860185019096528085526100f1958335600160a060020a03169560248035963696956064959394920192918291850190849080828437509497506108489650505050505050565b3480156102d657600080fd5b506102616004803560248101910135610998565b3480156102f657600080fd5b506101af610a79565b34801561030b57600080fd5b50610261600160a060020a0360043516610b18565b34801561032c57600080fd5b50610261600160a060020a0360043516610cbf565b34801561034d57600080fd5b506101af610e66565b34801561036257600080fd5b506100f1610e91565b60008061037661056c565b9050801580159061038e57508061038b610ea4565b10155b91505090565b60008051602061119983398151915281565b5050600160a060020a031660009081526020819052604090205460ff1690565b60006103d0610a79565b600160a060020a03166304bf2a7f836040518263ffffffff1660e060020a0281526004018080602001828103825283818151815260200191508051906020019080838360005b8381101561042e578181015183820152602001610416565b50505050905090810190601f16801561045b5780820380516001836020036101000a031916815260200191505b5092505050602060405180830381600087803b15801561047a57600080fd5b505af115801561048e573d6000803e3d6000fd5b505050506040513d60208110156104a457600080fd5b505192915050565b6000805160206111b983398151915281565b60006104c8610e66565b600160a060020a03166332f0a3b56040518163ffffffff1660e060020a028152600401602060405180830381600087803b15801561050557600080fd5b505af1158015610519573d6000803e3d6000fd5b505050506040513d602081101561052f57600080fd5b5051905090565b50600190565b60006105677fd625496217aa6a3453eecb9c3489dc5a53e6c67b444329ea2b2cbc9ff547639b610ea8565b905090565b6000610567600080516020611159833981519152610ea8565b600080600061059384610536565b6040805180820190915260128152607260020a71149150d3d5915497d11254d0531313d5d15102602082015290151561064d5760405160e560020a62461bcd0281526004018080602001828103825283818151815260200191508051906020019080838360005b838110156106125781810151838201526020016105fa565b50505050905090810190601f16801561063f5780820380516001836020036101000a031916815260200191505b509250505060405180910390fd5b506106566104be565b925061066183610eb0565b60408051808201909152601a81527f5245434f5645525f5641554c545f4e4f545f434f4e545241435400000000000060208201529015156106e75760405160e560020a62461bcd028152600401808060200182810382528381815181526020019150805190602001908083836000838110156106125781810151838201526020016105fa565b50600160a060020a03841615156107385760405130319250600160a060020a0384169083156108fc029084906000818181858888f19350505050158015610732573d6000803e3d6000fd5b506107f7565b5082610753600160a060020a0382163063ffffffff610edd16565b915061076f600160a060020a038216848463ffffffff610fc716565b60408051808201909152601d81527f5245434f5645525f544f4b454e5f5452414e534645525f4641494c454400000060208201529015156107f55760405160e560020a62461bcd028152600401808060200182810382528381815181526020019150805190602001908083836000838110156106125781810151838201526020016105fa565b505b83600160a060020a031683600160a060020a03167f596caf56044b55fb8c4ca640089bbc2b63cae3e978b851f5745cbb7c5b288e02846040518082815260200191505060405180910390a350505050565b60008061085361036b565b15156108625760009150610990565b61086a610e66565b9050600160a060020a03811615156108855760009150610990565b80600160a060020a031663fdef91068630876108a088611027565b60405160e060020a63ffffffff8716028152600160a060020a03808616600483019081529085166024830152604482018490526080606483019081528351608484015283519192909160a490910190602085019080838360005b838110156109125781810151838201526020016108fa565b50505050905090810190601f16801561093f5780820380516001836020036101000a031916815260200191505b5095505050505050602060405180830381600087803b15801561096157600080fd5b505af1158015610975573d6000803e3d6000fd5b505050506040513d602081101561098b57600080fd5b505191505b509392505050565b60006109a261056c565b604080518082019091526018815260008051602061117983398151915260208201529015610a155760405160e560020a62461bcd028152600401808060200182810382528381815181526020019150805190602001908083836000838110156106125781810151838201526020016105fa565b50610a1e611031565b5060005b81811015610a74576001600080858585818110610a3b57fe5b60209081029290920135600160a060020a0316835250810191909152604001600020805460ff1916911515919091179055600101610a22565b505050565b600080610a84610e66565b6040805160e360020a6317c0177b0281527fd6f028ca0e8edb4a8c9757ca4fdccab25fa1e0317da1188108f7d2dee14902fb60048201527fddbcfd564f642ab5627cf68b9b7d374fb4f8a36e941a75d89c87998cef03bd6160248201529051600160a060020a03929092169163be00bbd8916044808201926020929091908290030181600087803b15801561047a57600080fd5b6040805160008082526020820190925260008051602061119983398151915291610b489133918491905b50610848565b60408051808201909152600f8152608a60020a6e10541417d055551217d19052531151026020820152901515610bc35760405160e560020a62461bcd028152600401808060200182810382528381815181526020019150805190602001908083836000838110156106125781810151838201526020016105fa565b50600160a060020a03821660009081526020818152604091829020548251808401909352601983527f574f5f4552524f525f53454e4445525f4e4f545f4558495354000000000000009183019190915260ff161515610c675760405160e560020a62461bcd028152600401808060200182810382528381815181526020019150805190602001908083836000838110156106125781810151838201526020016105fa565b50600160a060020a03821660008181526020818152604091829020805460ff19169055815192835290517f3e29eaf193af56b4e032c44f2f11abb0b8ec4bf1676f0dbafcf9610222b43d299281900390910190a15050565b604080516000808252602082019092526000805160206111b983398151915291610ced913391849190610b42565b60408051808201909152600f8152608a60020a6e10541417d055551217d19052531151026020820152901515610d685760405160e560020a62461bcd028152600401808060200182810382528381815181526020019150805190602001908083836000838110156106125781810151838201526020016105fa565b50600160a060020a03821660009081526020818152604091829020548251808401909352601d83527f574f5f4552524f525f53454e4445525f414c52454144595f41444445440000009183019190915260ff1615610e0b5760405160e560020a62461bcd028152600401808060200182810382528381815181526020019150805190602001908083836000838110156106125781810151838201526020016105fa565b50600160a060020a03821660008181526020818152604091829020805460ff19166001179055815192835290517ffd64faf436ce476701b2dbc50552ae23a2fca6328afb4047268e2c4c4c4b3cde9281900390910190a15050565b60006105677f4172f0f7d2289153072b0a6ca36959e0cbe2efc3afe50fc81636caa96338137b610ea8565b6000600019610e9e61056c565b14905090565b4390565b5490565b5490565b600080600160a060020a0383161515610ecc5760009150610ed7565b823b90506000811191505b50919050565b60408051600160a060020a038316602480830191909152825180830390910181526044909101909152602081018051600160e060020a031660e060020a6370a08231021790526000908180610f3286846110d5565b60408051808201909152601c81527f534146455f4552435f32305f42414c414e43455f52455645525445440000000060208201529193509150821515610fbd5760405160e560020a62461bcd028152600401808060200182810382528381815181526020019150805190602001908083836000838110156106125781810151838201526020016105fa565b5095945050505050565b60408051600160a060020a03841660248201526044808201849052825180830390910181526064909101909152602081018051600160e060020a031660e060020a63a9059cbb0217905260009061101e8582611106565b95945050505050565b8051602002815290565b61103961056c565b6040805180820190915260188152600080516020611179833981519152602082015290156110ac5760405160e560020a62461bcd028152600401808060200182810382528381815181526020019150805190602001908083836000838110156106125781810151838201526020016105fa565b506110d36110b8610ea4565b6000805160206111598339815191529063ffffffff61115416565b565b6000806000806040516020818751602089018a5afa925060008311156110fa57805191505b50909590945092505050565b6000806040516020818551602087016000895af1600081111561114a573d8015611137576020811461114057611148565b60019350611148565b600183511493505b505b5090949350505050565b90555600ebb05b386a8d34882b8711d156f463690983dc47815980fb82aeeff1aa43579e494e49545f414c52454144595f494e495449414c495a454400000000000000009d7a040f5c6540f643d8a175f70736671ffabd35f3de2e4176cfcbbe9cd71acb649896fce4266201ed0200f1f18d2316c4c0be48c949b18cccd5ef15621249e3a165627a7a723058208dc174829bf935bb4760131a1a129802231b9f5f791d6d8a2d8f61fbcb9807610029ebb05b386a8d34882b8711d156f463690983dc47815980fb82aeeff1aa43579e",
  "source": "/*\n * SPDX-License-Identifier:    GPL-3.0-or-later\n */\n\n/* solium-disable function-order */\n\npragma solidity 0.4.24;\n\nimport \"@aragon/os/contracts/apps/AragonApp.sol\";\n\ninterface ITransferOracle {\n    function getTransferability(address _from, address _to, uint256 _amount) external returns (bool);\n}\n\n\ncontract WhitelistOracle is AragonApp, ITransferOracle {\n\n    /*\n    bytes32 public constant ADD_SENDER_ROLE = keccak256(\"ADD_SENDER_ROLE\");\n    bytes32 public constant REMOVE_SENDER_ROLE = keccak256(\"REMOVE_SENDER_ROLE\");\n    */\n\n    bytes32 public constant ADD_SENDER_ROLE = 0x649896fce4266201ed0200f1f18d2316c4c0be48c949b18cccd5ef15621249e3;\n    bytes32 public constant REMOVE_SENDER_ROLE = 0x9d7a040f5c6540f643d8a175f70736671ffabd35f3de2e4176cfcbbe9cd71acb;\n\n    string private constant ERROR_SENDER_ALREADY_ADDED = \"WO_ERROR_SENDER_ALREADY_ADDED\";\n    string private constant ERROR_SENDER_NOT_EXIST = \"WO_ERROR_SENDER_NOT_EXIST\";\n    event ValidSenderAdded(address _sender);\n    event ValidSenderRemoved(address _sender);\n\n    mapping(address => bool) validSender;\n\n    function initialize(address[] _senders) external onlyInit {\n        initialized();\n        for (uint256 i = 0; i < _senders.length; i++) {\n            validSender[_senders[i]] = true;\n        }\n    }\n\n    function addSender(address _sender) external auth(ADD_SENDER_ROLE) {\n        require(!validSender[_sender], ERROR_SENDER_ALREADY_ADDED);\n        validSender[_sender] = true;\n        emit ValidSenderAdded(_sender);\n    }\n\n    function removeSender(address _sender) external auth(REMOVE_SENDER_ROLE) {\n        require(validSender[_sender], ERROR_SENDER_NOT_EXIST);\n        validSender[_sender] = false;\n        emit ValidSenderRemoved(_sender);\n    }\n\n    function getTransferability(address _from, address /*_to*/, uint256 /*_amount*/) external returns (bool) {\n        return validSender[_from];\n    }\n\n}",
  "sourcePath": "@autarklabs/apps-whitelist-oracle/contracts/WhitelistOracle.sol",
  "compiler": {
    "name": "solc",
    "version": "0.4.24+commit.e67f0147.Emscripten.clang"
  },
  "schemaVersion": "3.4.2",
  "updatedAt": "2021-10-14T13:05:20.281Z",
  "devdoc": {
    "methods": {
      "allowRecoverability(address)": {
        "details": "By default deriving from AragonApp makes it recoverable",
        "params": {
          "token": "Token address that would be recovered"
        },
        "return": "bool whether the app allows the recovery"
      },
      "canPerform(address,bytes32,uint256[])": {
        "details": "Check whether an action can be performed by a sender for a particular role on this app",
        "params": {
          "_params": "Permission params for the role",
          "_role": "Role on this app",
          "_sender": "Sender of the call"
        },
        "return": "Boolean indicating whether the sender has the permissions to perform the action.        Always returns false if the app hasn't been initialized yet."
      },
      "getInitializationBlock()": {
        "return": "Block number in which the contract was initialized"
      },
      "getRecoveryVault()": {
        "details": "Get the recovery vault for the app",
        "return": "Recovery vault address for the app"
      },
      "hasInitialized()": {
        "return": "Whether the contract has been initialized by the time of the current block"
      },
      "transferToVault(address)": {
        "params": {
          "_token": "Token balance to be sent to recovery vault."
        }
      }
    }
  },
  "userdoc": {
    "methods": {
      "transferToVault(address)": {
        "notice": "Send funds to recovery Vault. This contract should never receive funds,        but in case it does, this function allows one to recover them."
      }
    }
  }
}